{"abi":[{"type":"function","name":"compressG1Unchecked","inputs":[{"name":"uncompressed128","type":"bytes","internalType":"bytes"}],"outputs":[{"name":"","type":"bytes","internalType":"bytes"}],"stateMutability":"pure"},{"type":"function","name":"compressG2Unchecked","inputs":[{"name":"uncompressed256","type":"bytes","internalType":"bytes"}],"outputs":[{"name":"","type":"bytes","internalType":"bytes"}],"stateMutability":"pure"},{"type":"function","name":"unionUnique","inputs":[{"name":"ns","type":"bytes","internalType":"bytes"},{"name":"msg","type":"bytes","internalType":"bytes"}],"outputs":[{"name":"","type":"bytes","internalType":"bytes"}],"stateMutability":"pure"},{"type":"function","name":"verify","inputs":[{"name":"namespace","type":"bytes","internalType":"bytes"},{"name":"message","type":"bytes","internalType":"bytes"},{"name":"dst","type":"bytes","internalType":"bytes"},{"name":"sigUncompressed","type":"bytes","internalType":"bytes"},{"name":"pkUncompressed","type":"bytes","internalType":"bytes"}],"outputs":[{"name":"","type":"bool","internalType":"bool"}],"stateMutability":"view"},{"type":"error","name":"DstTooLong","inputs":[]},{"type":"error","name":"InfinityPoint","inputs":[]},{"type":"error","name":"InvalidPointLength","inputs":[]},{"type":"error","name":"NamespaceTooLong","inputs":[]},{"type":"error","name":"PrecompileFailed","inputs":[]}],"bytecode":{"object":"0x60808060405234601557610f24908161001a8239f35b5f80fdfe60806040526004361015610011575f80fd5b5f3560e01c8063654f3ba0146109c15780638bf26133146103755780638f498050146102af5763a5d2dd2214610045575f80fd5b346102ab5760203660031901126102ab576004356001600160401b0381116102ab57610075903690600401610a2c565b90610100820361029c5761009261008d368484610b30565b610c16565b6100a56100a0368585610b30565b610c7b565b926100b1368285610b30565b92604051916100c1606084610a83565b60308352604094853660208601375f5b60308110610263575050906100e7913691610b30565b604051936100f6606086610a83565b603085523660208601375f5b6030811061021657505061011582610ce0565b80610207575b806101f8575b806101e9575b6101da5761013483610d18565b9283156101ad575b50506101489192610ba6565b8051156101925760208101805160f81c92156101a6576020925b8251156101925761018e931760801760f81b6001600160f81b0319165f1a905360405191829182610a59565b0390f35b634e487b7160e01b5f52603260045260245ffd5b5f92610162565b61014893506101bb90610ce0565b90816101ca575b50915f61013c565b6101d49150610d18565b5f6101c2565b635a3dde7560e01b5f5260045ffd5b506101f383610ce0565b610127565b5061020281610ce0565b610121565b5061021184610ce0565b61011b565b8060d001908160d01161024f576001916001600160f81b03199061023a9085610b95565b51165f1a6102488288610b95565b5301610102565b634e487b7160e01b5f52601160045260245ffd5b80609001908160901161024f576001916001600160f81b0319906102879085610b95565b51165f1a6102958288610b95565b53016100d1565b633532eb3b60e01b5f5260045ffd5b5f80fd5b346102ab5760203660031901126102ab576004356001600160401b0381116102ab576102df903690600401610a2c565b906080820361029c576100a0610305916102fd61008d368684610b30565b933691610b30565b9061030f81610ce0565b80610366575b6101da578051156101925760208101610332815160f81c93610d18565b156101a6576020928251156101925761018e931760801760f81b6001600160f81b0319165f1a905360405191829182610a59565b5061037082610ce0565b610315565b346102ab5760a03660031901126102ab576004356001600160401b0381116102ab576103a5903690600401610a2c565b6024356001600160401b0381116102ab576103c4903690600401610a2c565b6044929192356001600160401b0381116102ab576103e6903690600401610a2c565b6064356001600160401b0381116102ab57610405903690600401610a2c565b9690936084356001600160401b0381116102ab57610427903690600401610a2c565b97909660808a148015906109b5575b61029c576104649361045161044c368d8b610b30565b610be6565b61045f61044c368c8c610b30565b610ab8565b60ff82116109a6576104a1600160206040518581968383019889378082019060ff60f81b9060f81b16838201520301601e19810185520183610a83565b60609260205f6040516104b48782610a83565b60408152601f198701946105196003858401883682378680604051958693828501985180918a5e8401908282018a8152815193849201905e0101600160f71b81528660028201528a5190818a8583015e0186838201520301601f198101835282610a83565b604051918291518091835e8101838152039060025afa1561099b575f519260205f60405182810190878252600160f81b60408201526105726041828751808a8484015e810186838201520301601f198101835282610a83565b604051918291518091835e8101838152039060025afa1561099b575f519360205f604051828101908885188252600160f91b60408201526105cd6041828851808b8484015e810186838201520301601f198101835282610a83565b604051918291518091835e8101838152039060025afa1561099b575f519260205f604051828101908786188252600360f81b6040820152610628604182895180898484015e810186838201520301601f198101835282610a83565b604051918291518091835e8101838152039060025afa1561099b576020915f9161068560418451966040519384918989840197188752600160fa1b60408401525180918484015e810186838201520301601f198101835282610a83565b604051918291518091835e8101838152039060025afa1561099b575f51916040519460208601526040850152848401526080830152608082526106c960a083610a83565b6040516106d68482610a83565b60408152813660208301375f5b6040811061097057506106f590610dc6565b91604051916107048584610a83565b604083523660208401375f5b604081106109375750506107415f9261073b61073561072f8695610dc6565b92610e9d565b91610e9d565b90610ba6565b602081519101600b5afa610753610b66565b9015801561092b575b61091c57602095855f9695879689856107776108c197610be6565b81610120986107896040519a8b610a83565b6101008a526f13e02b6052719f607dacd3a088274f65828b01916f024aa2b2f08f0a91260805272dc5105183527fc6e47ad4fa403b02b4510b647ae3d1770bac0326a805bbefd48056c8c121bdb860408d01528b01527f596bd0d09920b61ab5da61bbdc7f5049334cf11213945d57e5ac7d055d042b7e60808b01526f0d1b3cc2c7027888be51d9ef691d77bc60a08b01527fb679afda66c73f17f9ee3837a55024f78c71363275a75d75d86bab79f74782aa60c08b01526f13fa4d4a0ad8b1ce186ed5061789213d60e08b01527f993923066dddaf1040bc3ff59f825c78df74f2d75467e25e0f55f8a00fa030ed6101008b015260405199888b99848b019d8e37890190838201908e8252519283915e0101908a8252805192839101825e019188835282370185815203601f198101835282610a83565b5190600f5afa6108cf610b66565b81610911575b816108e6575b506040519015158152f35b6001915082815191015190838110610901575b5014826108db565b5f1990840360031b1b16836108f9565b8051831491506108d5565b6342740b4960e11b5f5260045ffd5b5060808151141561075c565b80604001908160401161024f576001916001600160f81b03199061095b9085610b95565b51165f1a6109698286610b95565b5301610710565b6001906001600160f81b03196109868287610b95565b51165f1a6109948285610b95565b53016106e3565b6040513d5f823e3d90fd5b6308c9786560e41b5f5260045ffd5b50610100891415610436565b346102ab5760403660031901126102ab576004356001600160401b0381116102ab576109f1903690600401610a2c565b602435906001600160401b0382116102ab5761018e92610a18610a20933690600401610a2c565b929091610ab8565b60405191829182610a59565b9181601f840112156102ab578235916001600160401b0383116102ab57602083818601950101116102ab57565b602060409281835280519182918282860152018484015e5f828201840152601f01601f1916010190565b90601f801991011681019081106001600160401b03821117610aa457604052565b634e487b7160e01b5f52604160045260245ffd5b9092916080841015610b065782602191610b03948660405197889660ff60f81b8260f81b166020890152868801378501918483015f81523701015f815203601f198101835282610a83565b90565b630cfa390760e41b5f5260045ffd5b6001600160401b038111610aa457601f01601f191660200190565b929192610b3c82610b15565b91610b4a6040519384610a83565b8294818452818301116102ab578281602093845f960137010152565b3d15610b90573d90610b7782610b15565b91610b856040519384610a83565b82523d5f602084013e565b606090565b908151811015610192570160200190565b610be4906020808095946040519684889551918291018487015e8401908282015f8152815193849201905e01015f815203601f198101845283610a83565b565b5f5b81518110156101da576001600160f81b0319610c048284610b95565b5116610c1257600101610be8565b5050565b9060405191610c26606084610a83565b603083526040366020850137825f5b60308110610c4257505050565b80601001908160101161024f576001916001600160f81b031990610c669086610b95565b51165f1a610c748285610b95565b5301610c35565b9060405191610c8b606084610a83565b603083526040366020850137825f5b60308110610ca757505050565b80605001908160501161024f576001916001600160f81b031990610ccb9086610b95565b51165f1a610cd98285610b95565b5301610c9a565b5f5b60308110610cf1575050600190565b6001600160f81b0319610d048284610b95565b5116610d1257600101610ce2565b50505f90565b5f5f915f5b60108110610da857506010905b60308210610d885750506f0d0088f51cbff34d258dd3db21a5d66b8103610d7157507fb23ba5c279c2895fb39869507b587b120f55ffff58a9ffffdcff7fffffffd5551090565b6f0d0088f51cbff34d258dd3db21a5d66b91501190565b9092600190610d978584610b95565b5160f81c9060081b17930190610d2a565b91600190610db68484610b95565b5160f81c9060081b179201610d1d565b5f8091604051610dd7606082610a83565b60308152610e73600160208301927f1a0111ea397fe69a4b1ba7b6434bacd764774b84f38512bf6730d2a0f6b0f62484526f1eabfffeb153ffffb9feffffffffaaab60801b6040820152608060405194859260208085019860408a52866040870152603060608701528051918291018587015e8401908560f81b84830152518092608183015e010186838201520301601f198101835282610a83565b519060055afa610e81610b66565b90158015610e91575b61091c5790565b50603081511415610e8a565b5f610ec18192604051610eb1604082610a83565b6010815260203681830137610ba6565b60208151910160105afa610ed3610b66565b90158015610ee25761091c5790565b50608081511415610e8a56fea2646970667358221220d9ae55f261a1cd489c3641fd7b163dcb49d36ef08e97f7d28bb3c1d7217b146264736f6c634300081e0033","linkReferences":{}},"methodIdentifiers":{"compressG1Unchecked(bytes)":"8f498050","compressG2Unchecked(bytes)":"a5d2dd22","unionUnique(bytes,bytes)":"654f3ba0","verify(bytes,bytes,bytes,bytes,bytes)":"8bf26133"},"storageLayout":{"storage":[],"types":{}},"id":32}