{"abi":[{"type":"constructor","inputs":[{"name":"stakingContract","type":"address","internalType":"contract IStaking"},{"name":"systemRewardContract","type":"address","internalType":"contract ISystemReward"},{"name":"stakingPoolContract","type":"address","internalType":"contract IStakingPool"},{"name":"governanceContract","type":"address","internalType":"contract IFluentGovernance"},{"name":"chainConfigContract","type":"address","internalType":"contract IChainConfig"},{"name":"stakingToken","type":"address","internalType":"contract IERC20"}],"stateMutability":"nonpayable"},{"type":"function","name":"UPGRADE_INTERFACE_VERSION","inputs":[],"outputs":[{"name":"","type":"string","internalType":"string"}],"stateMutability":"view"},{"type":"function","name":"acceptOwnership","inputs":[],"outputs":[],"stateMutability":"nonpayable"},{"type":"function","name":"getActiveValidatorsLength","inputs":[],"outputs":[{"name":"","type":"uint32","internalType":"uint32"}],"stateMutability":"view"},{"type":"function","name":"getBlsVerifier","inputs":[],"outputs":[{"name":"","type":"address","internalType":"address"}],"stateMutability":"view"},{"type":"function","name":"getChainConfig","inputs":[],"outputs":[{"name":"","type":"address","internalType":"contract IChainConfig"}],"stateMutability":"view"},{"type":"function","name":"getDposActivationBlock","inputs":[],"outputs":[{"name":"","type":"uint64","internalType":"uint64"}],"stateMutability":"view"},{"type":"function","name":"getEpochBlockInterval","inputs":[],"outputs":[{"name":"","type":"uint32","internalType":"uint32"}],"stateMutability":"view"},{"type":"function","name":"getEvidenceDecoder","inputs":[],"outputs":[{"name":"","type":"address","internalType":"address"}],"stateMutability":"view"},{"type":"function","name":"getFelonyThreshold","inputs":[],"outputs":[{"name":"","type":"uint32","internalType":"uint32"}],"stateMutability":"view"},{"type":"function","name":"getGovernance","inputs":[],"outputs":[{"name":"","type":"address","internalType":"contract IFluentGovernance"}],"stateMutability":"view"},{"type":"function","name":"getMinStakingAmount","inputs":[],"outputs":[{"name":"","type":"uint256","internalType":"uint256"}],"stateMutability":"view"},{"type":"function","name":"getMinValidatorStakeAmount","inputs":[],"outputs":[{"name":"","type":"uint256","internalType":"uint256"}],"stateMutability":"view"},{"type":"function","name":"getMisdemeanorThreshold","inputs":[],"outputs":[{"name":"","type":"uint32","internalType":"uint32"}],"stateMutability":"view"},{"type":"function","name":"getStaking","inputs":[],"outputs":[{"name":"","type":"address","internalType":"contract IStaking"}],"stateMutability":"view"},{"type":"function","name":"getStakingPool","inputs":[],"outputs":[{"name":"","type":"address","internalType":"contract IStakingPool"}],"stateMutability":"view"},{"type":"function","name":"getStakingToken","inputs":[],"outputs":[{"name":"","type":"address","internalType":"contract IERC20"}],"stateMutability":"view"},{"type":"function","name":"getSystemReward","inputs":[],"outputs":[{"name":"","type":"address","internalType":"contract ISystemReward"}],"stateMutability":"view"},{"type":"function","name":"getUndelegatePeriod","inputs":[],"outputs":[{"name":"","type":"uint32","internalType":"uint32"}],"stateMutability":"view"},{"type":"function","name":"getValidatorJailEpochLength","inputs":[],"outputs":[{"name":"","type":"uint32","internalType":"uint32"}],"stateMutability":"view"},{"type":"function","name":"initialize","inputs":[{"name":"initialOwner","type":"address","internalType":"address"},{"name":"activeValidatorsLength","type":"uint32","internalType":"uint32"},{"name":"epochBlockInterval","type":"uint32","internalType":"uint32"},{"name":"misdemeanorThreshold","type":"uint32","internalType":"uint32"},{"name":"felonyThreshold","type":"uint32","internalType":"uint32"},{"name":"validatorJailEpochLength","type":"uint32","internalType":"uint32"},{"name":"undelegatePeriod","type":"uint32","internalType":"uint32"},{"name":"minValidatorStakeAmount","type":"uint256","internalType":"uint256"},{"name":"minStakingAmount","type":"uint256","internalType":"uint256"},{"name":"dposActivationBlock","type":"uint64","internalType":"uint64"}],"outputs":[],"stateMutability":"nonpayable"},{"type":"function","name":"owner","inputs":[],"outputs":[{"name":"","type":"address","internalType":"address"}],"stateMutability":"view"},{"type":"function","name":"pendingOwner","inputs":[],"outputs":[{"name":"","type":"address","internalType":"address"}],"stateMutability":"view"},{"type":"function","name":"proxiableUUID","inputs":[],"outputs":[{"name":"","type":"bytes32","internalType":"bytes32"}],"stateMutability":"view"},{"type":"function","name":"renounceOwnership","inputs":[],"outputs":[],"stateMutability":"nonpayable"},{"type":"function","name":"setActiveValidatorsLength","inputs":[{"name":"newValue","type":"uint32","internalType":"uint32"}],"outputs":[],"stateMutability":"nonpayable"},{"type":"function","name":"setBlsVerifier","inputs":[{"name":"newValue","type":"address","internalType":"address"}],"outputs":[],"stateMutability":"nonpayable"},{"type":"function","name":"setDposActivationBlock","inputs":[{"name":"newValue","type":"uint64","internalType":"uint64"}],"outputs":[],"stateMutability":"nonpayable"},{"type":"function","name":"setEpochBlockInterval","inputs":[{"name":"newValue","type":"uint32","internalType":"uint32"}],"outputs":[],"stateMutability":"nonpayable"},{"type":"function","name":"setEvidenceDecoder","inputs":[{"name":"newValue","type":"address","internalType":"address"}],"outputs":[],"stateMutability":"nonpayable"},{"type":"function","name":"setFelonyThreshold","inputs":[{"name":"newValue","type":"uint32","internalType":"uint32"}],"outputs":[],"stateMutability":"nonpayable"},{"type":"function","name":"setMinStakingAmount","inputs":[{"name":"newValue","type":"uint256","internalType":"uint256"}],"outputs":[],"stateMutability":"nonpayable"},{"type":"function","name":"setMinValidatorStakeAmount","inputs":[{"name":"newValue","type":"uint256","internalType":"uint256"}],"outputs":[],"stateMutability":"nonpayable"},{"type":"function","name":"setMisdemeanorThreshold","inputs":[{"name":"newValue","type":"uint32","internalType":"uint32"}],"outputs":[],"stateMutability":"nonpayable"},{"type":"function","name":"setUndelegatePeriod","inputs":[{"name":"newValue","type":"uint32","internalType":"uint32"}],"outputs":[],"stateMutability":"nonpayable"},{"type":"function","name":"setValidatorJailEpochLength","inputs":[{"name":"newValue","type":"uint32","internalType":"uint32"}],"outputs":[],"stateMutability":"nonpayable"},{"type":"function","name":"transferOwnership","inputs":[{"name":"newOwner","type":"address","internalType":"address"}],"outputs":[],"stateMutability":"nonpayable"},{"type":"function","name":"upgradeToAndCall","inputs":[{"name":"newImplementation","type":"address","internalType":"address"},{"name":"data","type":"bytes","internalType":"bytes"}],"outputs":[],"stateMutability":"payable"},{"type":"event","name":"ActiveValidatorsLengthChanged","inputs":[{"name":"prevValue","type":"uint32","indexed":false,"internalType":"uint32"},{"name":"newValue","type":"uint32","indexed":false,"internalType":"uint32"}],"anonymous":false},{"type":"event","name":"BlsVerifierChanged","inputs":[{"name":"prevValue","type":"address","indexed":false,"internalType":"address"},{"name":"newValue","type":"address","indexed":false,"internalType":"address"}],"anonymous":false},{"type":"event","name":"DposActivationBlockChanged","inputs":[{"name":"prevValue","type":"uint64","indexed":false,"internalType":"uint64"},{"name":"newValue","type":"uint64","indexed":false,"internalType":"uint64"}],"anonymous":false},{"type":"event","name":"EpochBlockIntervalChanged","inputs":[{"name":"prevValue","type":"uint32","indexed":false,"internalType":"uint32"},{"name":"newValue","type":"uint32","indexed":false,"internalType":"uint32"}],"anonymous":false},{"type":"event","name":"EvidenceDecoderChanged","inputs":[{"name":"prevValue","type":"address","indexed":false,"internalType":"address"},{"name":"newValue","type":"address","indexed":false,"internalType":"address"}],"anonymous":false},{"type":"event","name":"FelonyThresholdChanged","inputs":[{"name":"prevValue","type":"uint32","indexed":false,"internalType":"uint32"},{"name":"newValue","type":"uint32","indexed":false,"internalType":"uint32"}],"anonymous":false},{"type":"event","name":"Initialized","inputs":[{"name":"version","type":"uint64","indexed":false,"internalType":"uint64"}],"anonymous":false},{"type":"event","name":"MinStakingAmountChanged","inputs":[{"name":"prevValue","type":"uint256","indexed":false,"internalType":"uint256"},{"name":"newValue","type":"uint256","indexed":false,"internalType":"uint256"}],"anonymous":false},{"type":"event","name":"MinValidatorStakeAmountChanged","inputs":[{"name":"prevValue","type":"uint256","indexed":false,"internalType":"uint256"},{"name":"newValue","type":"uint256","indexed":false,"internalType":"uint256"}],"anonymous":false},{"type":"event","name":"MisdemeanorThresholdChanged","inputs":[{"name":"prevValue","type":"uint32","indexed":false,"internalType":"uint32"},{"name":"newValue","type":"uint32","indexed":false,"internalType":"uint32"}],"anonymous":false},{"type":"event","name":"OwnershipTransferStarted","inputs":[{"name":"previousOwner","type":"address","indexed":true,"internalType":"address"},{"name":"newOwner","type":"address","indexed":true,"internalType":"address"}],"anonymous":false},{"type":"event","name":"OwnershipTransferred","inputs":[{"name":"previousOwner","type":"address","indexed":true,"internalType":"address"},{"name":"newOwner","type":"address","indexed":true,"internalType":"address"}],"anonymous":false},{"type":"event","name":"UndelegatePeriodChanged","inputs":[{"name":"prevValue","type":"uint32","indexed":false,"internalType":"uint32"},{"name":"newValue","type":"uint32","indexed":false,"internalType":"uint32"}],"anonymous":false},{"type":"event","name":"Upgraded","inputs":[{"name":"implementation","type":"address","indexed":true,"internalType":"address"}],"anonymous":false},{"type":"event","name":"ValidatorJailEpochLengthChanged","inputs":[{"name":"prevValue","type":"uint32","indexed":false,"internalType":"uint32"},{"name":"newValue","type":"uint32","indexed":false,"internalType":"uint32"}],"anonymous":false},{"type":"error","name":"ActivationBlockInPast","inputs":[]},{"type":"error","name":"AddressEmptyCode","inputs":[{"name":"target","type":"address","internalType":"address"}]},{"type":"error","name":"AlreadySlashedForEquivocation","inputs":[{"name":"validator","type":"address","internalType":"address"}]},{"type":"error","name":"AmountTooLow","inputs":[{"name":"amount","type":"uint256","internalType":"uint256"}]},{"type":"error","name":"BadCommissionRate","inputs":[{"name":"commissionRate","type":"uint16","internalType":"uint16"}]},{"type":"error","name":"BadShareDistribution","inputs":[{"name":"shareDistribution","type":"uint16","internalType":"uint16"}]},{"type":"error","name":"BlsVerifierNotConfigured","inputs":[]},{"type":"error","name":"CommitteeLengthMismatch","inputs":[{"name":"expected","type":"uint256","internalType":"uint256"},{"name":"got","type":"uint256","internalType":"uint256"}]},{"type":"error","name":"CommitteeMemberKeyless","inputs":[{"name":"validator","type":"address","internalType":"address"}]},{"type":"error","name":"CommitteeMemberNotInActiveSet","inputs":[{"name":"validator","type":"address","internalType":"address"}]},{"type":"error","name":"CommitteeNotStrictlyAscending","inputs":[{"name":"validator","type":"address","internalType":"address"}]},{"type":"error","name":"ConsensusKeysAlreadySet","inputs":[{"name":"validator","type":"address","internalType":"address"}]},{"type":"error","name":"ConsensusKeysNotSet","inputs":[{"name":"validator","type":"address","internalType":"address"}]},{"type":"error","name":"DelegationQueueEmpty","inputs":[]},{"type":"error","name":"DelegationQueueNotEmpty","inputs":[{"name":"delegationQueue","type":"uint256","internalType":"uint256"}]},{"type":"error","name":"DepositIsZero","inputs":[]},{"type":"error","name":"ERC1967InvalidImplementation","inputs":[{"name":"implementation","type":"address","internalType":"address"}]},{"type":"error","name":"ERC1967NonPayable","inputs":[]},{"type":"error","name":"EpochCommitteeNotCommitted","inputs":[{"name":"epoch","type":"uint64","internalType":"uint64"}]},{"type":"error","name":"EpochIsNotReady","inputs":[{"name":"epoch","type":"uint64","internalType":"uint64"}]},{"type":"error","name":"EpochNotYetCommittable","inputs":[{"name":"target","type":"uint64","internalType":"uint64"},{"name":"currentEpoch","type":"uint64","internalType":"uint64"}]},{"type":"error","name":"EquivocationKeyMismatch","inputs":[]},{"type":"error","name":"EquivocationSignatureInvalid","inputs":[]},{"type":"error","name":"EvidenceDecoderNotConfigured","inputs":[]},{"type":"error","name":"FailedInnerCall","inputs":[]},{"type":"error","name":"InitialStakeTooLow","inputs":[{"name":"initialStake","type":"uint256","internalType":"uint256"}]},{"type":"error","name":"InsufficientBalance","inputs":[]},{"type":"error","name":"InvalidClaimEpoch","inputs":[]},{"type":"error","name":"InvalidConsensusKeyEncoding","inputs":[]},{"type":"error","name":"InvalidInitialization","inputs":[]},{"type":"error","name":"InvalidProofOfPossession","inputs":[{"name":"validator","type":"address","internalType":"address"}]},{"type":"error","name":"MalformedInitialBalance","inputs":[]},{"type":"error","name":"MalformedInputLength","inputs":[]},{"type":"error","name":"MisdemeanorThresholdNotMet","inputs":[]},{"type":"error","name":"NotActiveValidator","inputs":[]},{"type":"error","name":"NotEnoughBalance","inputs":[]},{"type":"error","name":"NotEnoughShares","inputs":[{"name":"requiredShares","type":"uint256","internalType":"uint256"}]},{"type":"error","name":"NotInitializing","inputs":[]},{"type":"error","name":"NotPendingValidator","inputs":[{"name":"validator","type":"address","internalType":"address"}]},{"type":"error","name":"NothingToClaim","inputs":[]},{"type":"error","name":"NothingToUnstake","inputs":[]},{"type":"error","name":"OnlyCoinbase","inputs":[]},{"type":"error","name":"OnlyGovernance","inputs":[]},{"type":"error","name":"OnlyLivenessSlashing","inputs":[]},{"type":"error","name":"OnlyStakingContract","inputs":[]},{"type":"error","name":"OnlySystemCall","inputs":[]},{"type":"error","name":"OnlyValidatorOwner","inputs":[{"name":"validator","type":"address","internalType":"address"}]},{"type":"error","name":"OnlyZeroGasPrice","inputs":[]},{"type":"error","name":"OwnableInvalidOwner","inputs":[{"name":"owner","type":"address","internalType":"address"}]},{"type":"error","name":"OwnableUnauthorizedAccount","inputs":[{"name":"account","type":"address","internalType":"address"}]},{"type":"error","name":"OwnerCantBeZero","inputs":[]},{"type":"error","name":"OwnerSelfStakeBelowMinimum","inputs":[]},{"type":"error","name":"PendingUndelegate","inputs":[]},{"type":"error","name":"SafeTransferFailed","inputs":[]},{"type":"error","name":"SignerIndexOutOfRange","inputs":[{"name":"epoch","type":"uint64","internalType":"uint64"},{"name":"signerIdx","type":"uint32","internalType":"uint32"},{"name":"committeeLen","type":"uint256","internalType":"uint256"}]},{"type":"error","name":"StillInJail","inputs":[{"name":"validator","type":"address","internalType":"address"}]},{"type":"error","name":"UUPSUnauthorizedCallContext","inputs":[]},{"type":"error","name":"UUPSUnsupportedProxiableUUID","inputs":[{"name":"slot","type":"bytes32","internalType":"bytes32"}]},{"type":"error","name":"UnalignedActivationBlock","inputs":[]},{"type":"error","name":"UnsafeTransferFailed","inputs":[]},{"type":"error","name":"ValidatorAlreadyExists","inputs":[{"name":"validator","type":"address","internalType":"address"}]},{"type":"error","name":"ValidatorNotFound","inputs":[{"name":"validator","type":"address","internalType":"address"}]},{"type":"error","name":"ValidatorNotInJail","inputs":[{"name":"validator","type":"address","internalType":"address"}]},{"type":"error","name":"ValidatorOwnerAlreadyInUse","inputs":[{"name":"validator","type":"address","internalType":"address"}]},{"type":"error","name":"WrongAmountPrecision","inputs":[]},{"type":"error","name":"ZeroAmount","inputs":[]},{"type":"error","name":"ZeroValue","inputs":[{"name":"field","type":"string","internalType":"string"}]}],"bytecode":{"object":"0x6101603461021357601f61206d38819003918201601f19168301916001600160401b038311848410176102175780849260c094604052833981010312610213578051906001600160a01b03821682036102135760208101516001600160a01b03811681036102135760408201516001600160a01b0381168103610213576060830151916001600160a01b0383168303610213576080840151936001600160a01b03851685036102135760a00151946001600160a01b0386168603610213573060805260a05260c05260e0526101005261012052610140525f51602061204d5f395f51905f525460ff8160401c16610204576002600160401b03196001600160401b038216016101ae575b604051611e21908161022c823960805181818161128d015261135c015260a05181610fd0015260c05181611014015260e0518161162d0152610100518181816101cd015281816102e0015281816104e1015281816105840152818161066701528181610793015281816108860152818161117d0152818161152c01528181611677015281816117b601526118000152610120518161121a015261014051816109f60152f35b6001600160401b0319166001600160401b039081175f51602061204d5f395f51905f52556040519081527fc7f505b2f371ae2175ee4913f4499e1f2633a7b5936321eed1cdaeb6115181d290602090a15f610109565b63f92ee8a960e01b5f5260045ffd5b5f80fd5b634e487b7160e01b5f52604160045260245ffdfe6080806040526004361015610012575f80fd5b5f3560e01c908162857c90146117e557508063289b3c0d146117a157806332cc6f0814611772578063346c90a81461174157806341d8a0801461165c5780634594633414611618578063466ae541146115115780634f1ef286146112e157806352d1902d1461127b5780635e7b72ad14611249578063606c0c9414611205578063612d669e146111675780636cbe6cd8146111355780636f8568471461110c578063715018a61461108f57806379ba5097146110435780637a37cc5914610fff5780637b1391a614610fbb5780638009708914610a8b5780638da5cb5b14610a575780639dbf97db14610a255780639f9106d1146109e1578063a2a50528146109ac578063ad3cb1cc1461094e578063af70fa2c1461086b578063be19973814610839578063c227a41214610778578063c6b904ad14610731578063c8652bd51461064c578063d98e3ebf14610569578063e1a2e863146104cb578063e2cf72f914610497578063e30c397814610463578063eea9a01b1461043a578063f2fde38b146103b6578063f517ca6a146102b85763fcd6cb3e146101b2575f80fd5b346102b45760203660031901126102b4576101cb6118ef565b7f00000000000000000000000000000000000000000000000000000000000000006001600160a01b031633036102a55763ffffffff81169061020e821515611b98565b5f516020611d8c5f395f51905f52549163ffffffff8360401c1611610297576040805163ffffffff606085901c81168252831660208201527f67da1e9c07e7b373ed5e18cc8355caf6dfe18ab4472ec575600a2172772c62049190a163ffffffff60601b1990911660609190911b63ffffffff60601b16175f516020611d8c5f395f51905f5255005b625a985f60e01b5f5260045ffd5b6354348f0360e01b5f5260045ffd5b5f80fd5b346102b45760203660031901126102b4576004356001600160401b038116908181036102b4577f00000000000000000000000000000000000000000000000000000000000000006001600160a01b031633036102a5576001600160401b0361033763ffffffff5f516020611d8c5f395f51905f525460201c1683611b2d565b166103a757438210610398577f78cb2b4e564cfd9b5595e14ebebb2a58997c4cb5af705e0e74900d7e5f51aecb6040610396936001600160401b035f516020611dcc5f395f51905f525460a01c169082519182526020820152a1611b5f565b005b630dacb59f60e01b5f5260045ffd5b6330df900d60e01b5f5260045ffd5b346102b45760203660031901126102b4576103cf6118d9565b6103d7611bd7565b5f516020611dac5f395f51905f5280546001600160a01b0319166001600160a01b039283169081179091555f516020611cec5f395f51905f52549091167f38d16b8cac22d99fc7c124b9cd0de2d3fa1faef420bfe791d8c362d765e227005f80a3005b346102b4575f3660031901126102b45760205f516020611d4c5f395f51905f5254604051908152f35b346102b4575f3660031901126102b4575f516020611dac5f395f51905f52546040516001600160a01b039091168152602090f35b346102b4575f3660031901126102b4575f516020611dcc5f395f51905f52546040516001600160a01b039091168152602090f35b346102b45760203660031901126102b4576004357f00000000000000000000000000000000000000000000000000000000000000006001600160a01b031633036102a55761051a811515611ae6565b7f207082661d623a88e041ad2d52c2d4ddc719880c70c3ab44aa81accff9bd86ed60405f516020611d2c5f395f51905f52548151908152836020820152a15f516020611d2c5f395f51905f5255005b346102b45760203660031901126102b4576105826118ef565b7f00000000000000000000000000000000000000000000000000000000000000006001600160a01b031633036102a55763ffffffff8116906105c5821515611aa2565b5f516020611d8c5f395f51905f52549163ffffffff8360601c1610610297576040805163ffffffff84831c81168252831660208201527f5aa72ebd12c45515403eef36583106e321b8707946a6ae621f5f393ee0c9677b9190a163ffffffff60401b1990911660409190911b63ffffffff60401b16175f516020611d8c5f395f51905f5255005b346102b45760203660031901126102b4576106656118ef565b7f00000000000000000000000000000000000000000000000000000000000000006001600160a01b031633036102a5576106a663ffffffff82161515611a5a565b5f516020611d8c5f395f51905f5254907f0a677ce4509bf46fe9bdf65c86abe71921755a78494111b1caa25df328ffcd1c604051806107018463ffffffff8760801c168363ffffffff91821681529116602082015260400190565b0390a163ffffffff60801b1990911660809190911b63ffffffff60801b16175f516020611d8c5f395f51905f5255005b346102b4575f3660031901126102b4577f8046150a36ce023dec392c496d6e64fcdc42b4e5054073dafc987cdbcc500e03546040516001600160a01b039091168152602090f35b346102b45760203660031901126102b4576107916118ef565b7f00000000000000000000000000000000000000000000000000000000000000006001600160a01b031633036102a55763ffffffff8116906107d4821515611a14565b5f516020611d8c5f395f51905f52546040805163ffffffff808416825293909316602084015290917f1c4cfc6dcf4219ed649285020aedf5d064480d1acdf4b8c75b397abd5910f40c9190a163ffffffff1916175f516020611d8c5f395f51905f5255005b346102b4575f3660031901126102b457602063ffffffff5f516020611d8c5f395f51905f525460601c16604051908152f35b346102b45760203660031901126102b4576108846118ef565b7f00000000000000000000000000000000000000000000000000000000000000006001600160a01b031633036102a5576108c563ffffffff821615156119d2565b63ffffffff60201b5f516020611d8c5f395f51905f5254917f33c8012b0f51f8c1a1e525ea046da837d0eb4fa7473cd863e0bfb73a4f475a5a604051806109288463ffffffff8860201c168363ffffffff91821681529116602082015260400190565b0390a160201b169063ffffffff60201b1916175f516020611d8c5f395f51905f52555f80f35b346102b4575f3660031901126102b457604080519061096d8183611902565b600582526020820191640352e302e360dc1b83528151928391602083525180918160208501528484015e5f828201840152601f01601f19168101030190f35b346102b4575f3660031901126102b45760206001600160401b035f516020611dcc5f395f51905f525460a01c16604051908152f35b346102b4575f3660031901126102b4576040517f00000000000000000000000000000000000000000000000000000000000000006001600160a01b03168152602090f35b346102b4575f3660031901126102b457602063ffffffff5f516020611d8c5f395f51905f525460401c16604051908152f35b346102b4575f3660031901126102b4575f516020611cec5f395f51905f52546040516001600160a01b039091168152602090f35b346102b4576101403660031901126102b457610aa56118d9565b6024359063ffffffff821682036102b4576044359163ffffffff831683036102b4576064359263ffffffff841684036102b45760843563ffffffff811681036102b45760a4359163ffffffff831683036102b45760c4359363ffffffff851685036102b45761012435966001600160401b03881688036102b4575f516020611d6c5f395f51905f5254966001600160401b03881680159081610fab575b6001149081610fa1575b159081610f98575b50610f895760016001600160401b03198916175f516020611d6c5f395f51905f525560ff8860401c1615610f5d575b610b8b611c62565b610b93611c62565b610b9b611c62565b6001600160a01b03811615610f4a57610bb390611bf7565b610bbb611c62565b610bc3611c62565b610bcb611c62565b610bdc63ffffffff83161515611a14565b5f516020611d8c5f395f51905f5254957f1c4cfc6dcf4219ed649285020aedf5d064480d1acdf4b8c75b397abd5910f40c604080515f815263ffffffff86166020820152a1610c3263ffffffff851615156119d2565b7f33c8012b0f51f8c1a1e525ea046da837d0eb4fa7473cd863e0bfb73a4f475a5a604080515f815263ffffffff87166020820152a1610c7863ffffffff83161515611aa2565b7f5aa72ebd12c45515403eef36583106e321b8707946a6ae621f5f393ee0c9677b604080515f815263ffffffff85166020820152a1610cbe63ffffffff86161515611b98565b63ffffffff821663ffffffff861610610297576001600160401b0396610ea49663ffffffff967fb191e5acbef9e4b8ce0f17af112f8984f92833324657b89fe39768885f81b6ce956040957f67da1e9c07e7b373ed5e18cc8355caf6dfe18ab4472ec575600a2172772c62048780515f81528c86166020820152a1610d468a85161515611a5a565b7f0a677ce4509bf46fe9bdf65c86abe71921755a78494111b1caa25df328ffcd1c8780515f81528c87166020820152a1610d838a87161515611952565b8960a01b8660a01b16948a60a01b19928b60801b19918c8060601b1992169060018060601b031916171663ffffffff60201b8b60201b161716908a881b90881b161716908860601b9060601b1617908760801b9060801b1617175f516020611d8c5f395f51905f5255848251915f8352166020820152a1610e0760e4351515611ae6565b60e4355f516020611d2c5f395f51905f52557f207082661d623a88e041ad2d52c2d4ddc719880c70c3ab44aa81accff9bd86ed604080515f815260e4356020820152a1610e58610104351515611992565b610104355f516020611d4c5f395f51905f52557f973f438cb6bc47d284033b6113687c6087f4fb7a3395b03597578ae1259bf23c604080515f8152610104356020820152a11684611b2d565b166103a7577f78cb2b4e564cfd9b5595e14ebebb2a58997c4cb5af705e0e74900d7e5f51aecb604083610ed860ff95611b5f565b6001600160401b038251915f8352166020820152a160401c1615610ef857005b60ff60401b195f516020611d6c5f395f51905f5254165f516020611d6c5f395f51905f52557fc7f505b2f371ae2175ee4913f4499e1f2633a7b5936321eed1cdaeb6115181d2602060405160018152a1005b631e4fbdf760e01b5f525f60045260245ffd5b68ffffffffffffffffff19881668010000000000000001175f516020611d6c5f395f51905f5255610b83565b63f92ee8a960e01b5f5260045ffd5b9050158a610b54565b303b159150610b4c565b60408a901c60ff16159150610b42565b346102b4575f3660031901126102b4576040517f00000000000000000000000000000000000000000000000000000000000000006001600160a01b03168152602090f35b346102b4575f3660031901126102b4576040517f00000000000000000000000000000000000000000000000000000000000000006001600160a01b03168152602090f35b346102b4575f3660031901126102b4575f516020611dac5f395f51905f5254336001600160a01b039091160361107c5761039633611bf7565b63118cdaa760e01b5f523360045260245ffd5b346102b4575f3660031901126102b4576110a7611bd7565b5f516020611dac5f395f51905f5280546001600160a01b03199081169091555f516020611cec5f395f51905f52805491821690555f906001600160a01b03167f8be0079c531659141344cd1fd0a4f28419497f9722a3daafe3b4186f6b6457e08280a3005b346102b4575f3660031901126102b45760205f516020611d2c5f395f51905f5254604051908152f35b346102b4575f3660031901126102b457602063ffffffff5f516020611d8c5f395f51905f525460801c16604051908152f35b346102b45760203660031901126102b4576004357f00000000000000000000000000000000000000000000000000000000000000006001600160a01b031633036102a5576111b6811515611992565b7f973f438cb6bc47d284033b6113687c6087f4fb7a3395b03597578ae1259bf23c60405f516020611d4c5f395f51905f52548151908152836020820152a15f516020611d4c5f395f51905f5255005b346102b4575f3660031901126102b4576040517f00000000000000000000000000000000000000000000000000000000000000006001600160a01b03168152602090f35b346102b4575f3660031901126102b457602063ffffffff5f516020611d8c5f395f51905f525460a01c16604051908152f35b346102b4575f3660031901126102b4577f00000000000000000000000000000000000000000000000000000000000000006001600160a01b031630036112d25760206040515f516020611d0c5f395f51905f528152f35b63703e46dd60e11b5f5260045ffd5b60403660031901126102b4576112f56118d9565b602435906001600160401b0382116102b457366023830112156102b45781600401359061132182611937565b9161132f6040519384611902565b808352602083019336602483830101116102b457815f926024602093018737840101526001600160a01b037f0000000000000000000000000000000000000000000000000000000000000000163081149081156114ef575b506112d257611394611bd7565b6040516352d1902d60e01b81526001600160a01b0382169390602081600481885afa5f91816114bb575b506113d65784634c9c8ce360e01b5f5260045260245ffd5b805f516020611d0c5f395f51905f528692036114a95750823b15611497575f516020611d0c5f395f51905f5280546001600160a01b031916821790557fbc7cd75a20ee27fd9adebab32041f755214dbc6bffa90cc0225b39da2e5c2d3b5f80a282511561147e575f8091610396945190845af43d15611476573d9161145a83611937565b926114686040519485611902565b83523d5f602085013e611c8d565b606091611c8d565b5050503461148857005b63b398979f60e01b5f5260045ffd5b634c9c8ce360e01b5f5260045260245ffd5b632a87526960e21b5f5260045260245ffd5b9091506020813d6020116114e7575b816114d760209383611902565b810103126102b4575190866113be565b3d91506114ca565b5f516020611d0c5f395f51905f52546001600160a01b03161415905084611387565b346102b45760203660031901126102b45761152a6118d9565b7f00000000000000000000000000000000000000000000000000000000000000006001600160a01b031633036102a5576001600160a01b0381169081156115e4577f8046150a36ce023dec392c496d6e64fcdc42b4e5054073dafc987cdbcc500e0380546001600160a01b031981169093179055604080516001600160a01b0393841681529190921660208201527fc7ddd19923691ea90036ccf8092cd931a0a2452a8e5f5cbb33f0fb2a1a3d4bcf91819081015b0390a1005b60405163046c82ad60e41b815260206004820152600b60248201526a313639ab32b934b334b2b960a91b6044820152606490fd5b346102b4575f3660031901126102b4576040517f00000000000000000000000000000000000000000000000000000000000000006001600160a01b03168152602090f35b346102b45760203660031901126102b4576116756118ef565b7f00000000000000000000000000000000000000000000000000000000000000006001600160a01b031633036102a5576116b663ffffffff82161515611952565b5f516020611d8c5f395f51905f5254907fb191e5acbef9e4b8ce0f17af112f8984f92833324657b89fe39768885f81b6ce604051806117118463ffffffff8760a01c168363ffffffff91821681529116602082015260400190565b0390a163ffffffff60a01b1990911660a09190911b63ffffffff60a01b16175f516020611d8c5f395f51905f5255005b346102b4575f3660031901126102b457602063ffffffff5f516020611d8c5f395f51905f5254821c16604051908152f35b346102b4575f3660031901126102b457602063ffffffff5f516020611d8c5f395f51905f525416604051908152f35b346102b4575f3660031901126102b4576040517f00000000000000000000000000000000000000000000000000000000000000006001600160a01b03168152602090f35b346102b45760203660031901126102b4576117fe6118d9565b7f00000000000000000000000000000000000000000000000000000000000000006001600160a01b031633036102a5576001600160a01b03811680156118a4575f516020611dcc5f395f51905f5280546001600160a01b031981169092179055604080516001600160a01b0392831681529290911660208301527fc4c5f72550481191f4d22648d1cfe85a2afece167eabbc7c952dcf3cc27304ec9250819081016115df565b63046c82ad60e41b835260206004840152600f60248401526e32bb34b232b731b2a232b1b7b232b960891b6044840152606483fd5b600435906001600160a01b03821682036102b457565b6004359063ffffffff821682036102b457565b90601f801991011681019081106001600160401b0382111761192357604052565b634e487b7160e01b5f52604160045260245ffd5b6001600160401b03811161192357601f01601f191660200190565b1561195957565b60405163046c82ad60e41b815260206004820152601060248201526f1d5b99195b1959d85d1954195c9a5bd960821b6044820152606490fd5b1561199957565b60405163046c82ad60e41b815260206004820152601060248201526f1b5a5b94dd185ada5b99d05b5bdd5b9d60821b6044820152606490fd5b156119d957565b60405163046c82ad60e41b8152602060048201526012602482015271195c1bd8da109b1bd8dad25b9d195c9d985b60721b6044820152606490fd5b15611a1b57565b60405163046c82ad60e41b81526020600482015260166024820152750c2c6e8d2eccaacc2d8d2c8c2e8dee4e698cadccee8d60531b6044820152606490fd5b15611a6157565b60405163046c82ad60e41b81526020600482015260186024820152770ecc2d8d2c8c2e8dee494c2d2d88ae0dec6d098cadccee8d60431b6044820152606490fd5b15611aa957565b60405163046c82ad60e41b81526020600482015260146024820152731b5a5cd9195b59585b9bdc951a1c995cda1bdb1960621b6044820152606490fd5b15611aed57565b60405163046c82ad60e41b81526020600482015260176024820152761b5a5b95985b1a59185d1bdc94dd185ad9505b5bdd5b9d604a1b6044820152606490fd5b906001600160401b0316908115611b4b576001600160401b03160690565b634e487b7160e01b5f52601260045260245ffd5b5f516020611dcc5f395f51905f52805467ffffffffffffffff60a01b191660a09290921b67ffffffffffffffff60a01b16919091179055565b15611b9f57565b60405163046c82ad60e41b815260206004820152600f60248201526e19995b1bdb9e551a1c995cda1bdb19608a1b6044820152606490fd5b5f516020611cec5f395f51905f52546001600160a01b0316330361107c57565b5f516020611dac5f395f51905f5280546001600160a01b03199081169091555f516020611cec5f395f51905f5280549182166001600160a01b0393841690811790915591167f8be0079c531659141344cd1fd0a4f28419497f9722a3daafe3b4186f6b6457e05f80a3565b60ff5f516020611d6c5f395f51905f525460401c1615611c7e57565b631afcd79f60e31b5f5260045ffd5b90611cb15750805115611ca257805190602001fd5b630a12f52160e11b5f5260045ffd5b81511580611ce2575b611cc2575090565b639996b31560e01b5f9081526001600160a01b0391909116600452602490fd5b50803b15611cba56fe9016d09d72d40fdae2fd8ceac6b6234c7706214fd39c1cd1e609a0528c199300360894a13ba1a3210667c828492db98dca3e2076cc3735a920a3ca505d382bbc8046150a36ce023dec392c496d6e64fcdc42b4e5054073dafc987cdbcc500e018046150a36ce023dec392c496d6e64fcdc42b4e5054073dafc987cdbcc500e02f0c57e16840df040f15088dc2f81fe391c3923bec73e23a9662efc9c229c6a008046150a36ce023dec392c496d6e64fcdc42b4e5054073dafc987cdbcc500e00237e158222e3e6968b72b9db0d8043aacf074ad9f650f0d1606b4d82ee432c008046150a36ce023dec392c496d6e64fcdc42b4e5054073dafc987cdbcc500e04a2646970667358221220495994d1de899af92ed756620649c919c00c654421a837437e02e22bd164cf3264736f6c634300081e0033f0c57e16840df040f15088dc2f81fe391c3923bec73e23a9662efc9c229c6a00","linkReferences":{}},"methodIdentifiers":{"UPGRADE_INTERFACE_VERSION()":"ad3cb1cc","acceptOwnership()":"79ba5097","getActiveValidatorsLength()":"32cc6f08","getBlsVerifier()":"c6b904ad","getChainConfig()":"606c0c94","getDposActivationBlock()":"a2a50528","getEpochBlockInterval()":"346c90a8","getEvidenceDecoder()":"e2cf72f9","getFelonyThreshold()":"be199738","getGovernance()":"289b3c0d","getMinStakingAmount()":"eea9a01b","getMinValidatorStakeAmount()":"6f856847","getMisdemeanorThreshold()":"9dbf97db","getStaking()":"7b1391a6","getStakingPool()":"45946334","getStakingToken()":"9f9106d1","getSystemReward()":"7a37cc59","getUndelegatePeriod()":"5e7b72ad","getValidatorJailEpochLength()":"6cbe6cd8","initialize(address,uint32,uint32,uint32,uint32,uint32,uint32,uint256,uint256,uint64)":"80097089","owner()":"8da5cb5b","pendingOwner()":"e30c3978","proxiableUUID()":"52d1902d","renounceOwnership()":"715018a6","setActiveValidatorsLength(uint32)":"c227a412","setBlsVerifier(address)":"466ae541","setDposActivationBlock(uint64)":"f517ca6a","setEpochBlockInterval(uint32)":"af70fa2c","setEvidenceDecoder(address)":"00857c90","setFelonyThreshold(uint32)":"fcd6cb3e","setMinStakingAmount(uint256)":"612d669e","setMinValidatorStakeAmount(uint256)":"e1a2e863","setMisdemeanorThreshold(uint32)":"d98e3ebf","setUndelegatePeriod(uint32)":"41d8a080","setValidatorJailEpochLength(uint32)":"c8652bd5","transferOwnership(address)":"f2fde38b","upgradeToAndCall(address,bytes)":"4f1ef286"},"storageLayout":{"storage":[],"types":{}},"id":42}