{"abi":[{"type":"constructor","inputs":[{"name":"stakingContract","type":"address","internalType":"contract IStaking"},{"name":"systemRewardContract","type":"address","internalType":"contract ISystemReward"},{"name":"stakingPoolContract","type":"address","internalType":"contract IStakingPool"},{"name":"governanceContract","type":"address","internalType":"contract IFluentGovernance"},{"name":"chainConfigContract","type":"address","internalType":"contract IChainConfig"},{"name":"stakingToken","type":"address","internalType":"contract IERC20"},{"name":"minUndelegateBlocks","type":"uint256","internalType":"uint256"}],"stateMutability":"nonpayable"},{"type":"function","name":"MAX_ACTIVE_VALIDATORS","inputs":[],"outputs":[{"name":"","type":"uint32","internalType":"uint32"}],"stateMutability":"view"},{"type":"function","name":"UPGRADE_INTERFACE_VERSION","inputs":[],"outputs":[{"name":"","type":"string","internalType":"string"}],"stateMutability":"view"},{"type":"function","name":"acceptOwnership","inputs":[],"outputs":[],"stateMutability":"nonpayable"},{"type":"function","name":"getActiveValidatorsLength","inputs":[],"outputs":[{"name":"","type":"uint32","internalType":"uint32"}],"stateMutability":"view"},{"type":"function","name":"getBlsVerifier","inputs":[],"outputs":[{"name":"","type":"address","internalType":"address"}],"stateMutability":"view"},{"type":"function","name":"getChainConfig","inputs":[],"outputs":[{"name":"","type":"address","internalType":"contract IChainConfig"}],"stateMutability":"view"},{"type":"function","name":"getDposActivationBlock","inputs":[],"outputs":[{"name":"","type":"uint64","internalType":"uint64"}],"stateMutability":"view"},{"type":"function","name":"getEpochBlockInterval","inputs":[],"outputs":[{"name":"","type":"uint32","internalType":"uint32"}],"stateMutability":"view"},{"type":"function","name":"getEvidenceDecoder","inputs":[],"outputs":[{"name":"","type":"address","internalType":"address"}],"stateMutability":"view"},{"type":"function","name":"getFelonyThreshold","inputs":[],"outputs":[{"name":"","type":"uint32","internalType":"uint32"}],"stateMutability":"view"},{"type":"function","name":"getGovernance","inputs":[],"outputs":[{"name":"","type":"address","internalType":"contract IFluentGovernance"}],"stateMutability":"view"},{"type":"function","name":"getMinStakingAmount","inputs":[],"outputs":[{"name":"","type":"uint256","internalType":"uint256"}],"stateMutability":"view"},{"type":"function","name":"getMinValidatorStakeAmount","inputs":[],"outputs":[{"name":"","type":"uint256","internalType":"uint256"}],"stateMutability":"view"},{"type":"function","name":"getMisdemeanorThreshold","inputs":[],"outputs":[{"name":"","type":"uint32","internalType":"uint32"}],"stateMutability":"view"},{"type":"function","name":"getStaking","inputs":[],"outputs":[{"name":"","type":"address","internalType":"contract IStaking"}],"stateMutability":"view"},{"type":"function","name":"getStakingPool","inputs":[],"outputs":[{"name":"","type":"address","internalType":"contract IStakingPool"}],"stateMutability":"view"},{"type":"function","name":"getStakingToken","inputs":[],"outputs":[{"name":"","type":"address","internalType":"contract IERC20"}],"stateMutability":"view"},{"type":"function","name":"getSystemReward","inputs":[],"outputs":[{"name":"","type":"address","internalType":"contract ISystemReward"}],"stateMutability":"view"},{"type":"function","name":"getUndelegatePeriod","inputs":[],"outputs":[{"name":"","type":"uint32","internalType":"uint32"}],"stateMutability":"view"},{"type":"function","name":"getValidatorJailEpochLength","inputs":[],"outputs":[{"name":"","type":"uint32","internalType":"uint32"}],"stateMutability":"view"},{"type":"function","name":"initialize","inputs":[{"name":"initialOwner","type":"address","internalType":"address"},{"name":"activeValidatorsLength","type":"uint32","internalType":"uint32"},{"name":"epochBlockInterval","type":"uint32","internalType":"uint32"},{"name":"misdemeanorThreshold","type":"uint32","internalType":"uint32"},{"name":"felonyThreshold","type":"uint32","internalType":"uint32"},{"name":"validatorJailEpochLength","type":"uint32","internalType":"uint32"},{"name":"undelegatePeriod","type":"uint32","internalType":"uint32"},{"name":"minValidatorStakeAmount","type":"uint256","internalType":"uint256"},{"name":"minStakingAmount","type":"uint256","internalType":"uint256"},{"name":"dposActivationBlock","type":"uint64","internalType":"uint64"}],"outputs":[],"stateMutability":"nonpayable"},{"type":"function","name":"owner","inputs":[],"outputs":[{"name":"","type":"address","internalType":"address"}],"stateMutability":"view"},{"type":"function","name":"pendingOwner","inputs":[],"outputs":[{"name":"","type":"address","internalType":"address"}],"stateMutability":"view"},{"type":"function","name":"proxiableUUID","inputs":[],"outputs":[{"name":"","type":"bytes32","internalType":"bytes32"}],"stateMutability":"view"},{"type":"function","name":"renounceOwnership","inputs":[],"outputs":[],"stateMutability":"nonpayable"},{"type":"function","name":"setActiveValidatorsLength","inputs":[{"name":"newValue","type":"uint32","internalType":"uint32"}],"outputs":[],"stateMutability":"nonpayable"},{"type":"function","name":"setBlsVerifier","inputs":[{"name":"newValue","type":"address","internalType":"address"}],"outputs":[],"stateMutability":"nonpayable"},{"type":"function","name":"setDposActivationBlock","inputs":[{"name":"newValue","type":"uint64","internalType":"uint64"}],"outputs":[],"stateMutability":"nonpayable"},{"type":"function","name":"setEpochBlockInterval","inputs":[{"name":"newValue","type":"uint32","internalType":"uint32"}],"outputs":[],"stateMutability":"nonpayable"},{"type":"function","name":"setEvidenceDecoder","inputs":[{"name":"newValue","type":"address","internalType":"address"}],"outputs":[],"stateMutability":"nonpayable"},{"type":"function","name":"setFelonyThreshold","inputs":[{"name":"newValue","type":"uint32","internalType":"uint32"}],"outputs":[],"stateMutability":"nonpayable"},{"type":"function","name":"setMinStakingAmount","inputs":[{"name":"newValue","type":"uint256","internalType":"uint256"}],"outputs":[],"stateMutability":"nonpayable"},{"type":"function","name":"setMinValidatorStakeAmount","inputs":[{"name":"newValue","type":"uint256","internalType":"uint256"}],"outputs":[],"stateMutability":"nonpayable"},{"type":"function","name":"setMisdemeanorThreshold","inputs":[{"name":"newValue","type":"uint32","internalType":"uint32"}],"outputs":[],"stateMutability":"nonpayable"},{"type":"function","name":"setUndelegatePeriod","inputs":[{"name":"newValue","type":"uint32","internalType":"uint32"}],"outputs":[],"stateMutability":"nonpayable"},{"type":"function","name":"setValidatorJailEpochLength","inputs":[{"name":"newValue","type":"uint32","internalType":"uint32"}],"outputs":[],"stateMutability":"nonpayable"},{"type":"function","name":"transferOwnership","inputs":[{"name":"newOwner","type":"address","internalType":"address"}],"outputs":[],"stateMutability":"nonpayable"},{"type":"function","name":"upgradeToAndCall","inputs":[{"name":"newImplementation","type":"address","internalType":"address"},{"name":"data","type":"bytes","internalType":"bytes"}],"outputs":[],"stateMutability":"payable"},{"type":"event","name":"ActiveValidatorsLengthChanged","inputs":[{"name":"prevValue","type":"uint32","indexed":false,"internalType":"uint32"},{"name":"newValue","type":"uint32","indexed":false,"internalType":"uint32"}],"anonymous":false},{"type":"event","name":"BlsVerifierChanged","inputs":[{"name":"prevValue","type":"address","indexed":false,"internalType":"address"},{"name":"newValue","type":"address","indexed":false,"internalType":"address"}],"anonymous":false},{"type":"event","name":"DposActivationBlockChanged","inputs":[{"name":"prevValue","type":"uint64","indexed":false,"internalType":"uint64"},{"name":"newValue","type":"uint64","indexed":false,"internalType":"uint64"}],"anonymous":false},{"type":"event","name":"EpochBlockIntervalChanged","inputs":[{"name":"prevValue","type":"uint32","indexed":false,"internalType":"uint32"},{"name":"newValue","type":"uint32","indexed":false,"internalType":"uint32"}],"anonymous":false},{"type":"event","name":"EvidenceDecoderChanged","inputs":[{"name":"prevValue","type":"address","indexed":false,"internalType":"address"},{"name":"newValue","type":"address","indexed":false,"internalType":"address"}],"anonymous":false},{"type":"event","name":"FelonyThresholdChanged","inputs":[{"name":"prevValue","type":"uint32","indexed":false,"internalType":"uint32"},{"name":"newValue","type":"uint32","indexed":false,"internalType":"uint32"}],"anonymous":false},{"type":"event","name":"Initialized","inputs":[{"name":"version","type":"uint64","indexed":false,"internalType":"uint64"}],"anonymous":false},{"type":"event","name":"MinStakingAmountChanged","inputs":[{"name":"prevValue","type":"uint256","indexed":false,"internalType":"uint256"},{"name":"newValue","type":"uint256","indexed":false,"internalType":"uint256"}],"anonymous":false},{"type":"event","name":"MinValidatorStakeAmountChanged","inputs":[{"name":"prevValue","type":"uint256","indexed":false,"internalType":"uint256"},{"name":"newValue","type":"uint256","indexed":false,"internalType":"uint256"}],"anonymous":false},{"type":"event","name":"MisdemeanorThresholdChanged","inputs":[{"name":"prevValue","type":"uint32","indexed":false,"internalType":"uint32"},{"name":"newValue","type":"uint32","indexed":false,"internalType":"uint32"}],"anonymous":false},{"type":"event","name":"OwnershipTransferStarted","inputs":[{"name":"previousOwner","type":"address","indexed":true,"internalType":"address"},{"name":"newOwner","type":"address","indexed":true,"internalType":"address"}],"anonymous":false},{"type":"event","name":"OwnershipTransferred","inputs":[{"name":"previousOwner","type":"address","indexed":true,"internalType":"address"},{"name":"newOwner","type":"address","indexed":true,"internalType":"address"}],"anonymous":false},{"type":"event","name":"UndelegatePeriodChanged","inputs":[{"name":"prevValue","type":"uint32","indexed":false,"internalType":"uint32"},{"name":"newValue","type":"uint32","indexed":false,"internalType":"uint32"}],"anonymous":false},{"type":"event","name":"Upgraded","inputs":[{"name":"implementation","type":"address","indexed":true,"internalType":"address"}],"anonymous":false},{"type":"event","name":"ValidatorJailEpochLengthChanged","inputs":[{"name":"prevValue","type":"uint32","indexed":false,"internalType":"uint32"},{"name":"newValue","type":"uint32","indexed":false,"internalType":"uint32"}],"anonymous":false},{"type":"error","name":"ActivationBlockInPast","inputs":[]},{"type":"error","name":"AddressEmptyCode","inputs":[{"name":"target","type":"address","internalType":"address"}]},{"type":"error","name":"AlreadySlashedForEquivocation","inputs":[{"name":"validator","type":"address","internalType":"address"}]},{"type":"error","name":"AmountTooLow","inputs":[{"name":"amount","type":"uint256","internalType":"uint256"}]},{"type":"error","name":"BadCommissionRate","inputs":[{"name":"commissionRate","type":"uint16","internalType":"uint16"}]},{"type":"error","name":"BadShareDistribution","inputs":[{"name":"shareDistribution","type":"uint16","internalType":"uint16"}]},{"type":"error","name":"BlsVerifierNotConfigured","inputs":[]},{"type":"error","name":"CommitteeLengthMismatch","inputs":[{"name":"expected","type":"uint256","internalType":"uint256"},{"name":"got","type":"uint256","internalType":"uint256"}]},{"type":"error","name":"CommitteeMemberKeyless","inputs":[{"name":"validator","type":"address","internalType":"address"}]},{"type":"error","name":"CommitteeMemberNotInActiveSet","inputs":[{"name":"validator","type":"address","internalType":"address"}]},{"type":"error","name":"CommitteeNotStrictlyAscending","inputs":[{"name":"validator","type":"address","internalType":"address"}]},{"type":"error","name":"ConsensusKeysAlreadySet","inputs":[{"name":"validator","type":"address","internalType":"address"}]},{"type":"error","name":"ConsensusKeysNotSet","inputs":[{"name":"validator","type":"address","internalType":"address"}]},{"type":"error","name":"DelegationQueueEmpty","inputs":[]},{"type":"error","name":"DelegationQueueNotEmpty","inputs":[{"name":"delegationQueue","type":"uint256","internalType":"uint256"}]},{"type":"error","name":"DepositIsZero","inputs":[]},{"type":"error","name":"DposAlreadyActive","inputs":[]},{"type":"error","name":"ERC1967InvalidImplementation","inputs":[{"name":"implementation","type":"address","internalType":"address"}]},{"type":"error","name":"ERC1967NonPayable","inputs":[]},{"type":"error","name":"EpochCommitteeNotCommitted","inputs":[{"name":"epoch","type":"uint64","internalType":"uint64"}]},{"type":"error","name":"EpochIsNotReady","inputs":[{"name":"epoch","type":"uint64","internalType":"uint64"}]},{"type":"error","name":"EpochNotYetCommittable","inputs":[{"name":"target","type":"uint64","internalType":"uint64"},{"name":"currentEpoch","type":"uint64","internalType":"uint64"}]},{"type":"error","name":"EquivocationKeyMismatch","inputs":[]},{"type":"error","name":"EquivocationSignatureInvalid","inputs":[]},{"type":"error","name":"EvidenceDecoderNotConfigured","inputs":[]},{"type":"error","name":"FailedInnerCall","inputs":[]},{"type":"error","name":"InitialStakeTooLow","inputs":[{"name":"initialStake","type":"uint256","internalType":"uint256"}]},{"type":"error","name":"InsufficientBalance","inputs":[]},{"type":"error","name":"InvalidClaimEpoch","inputs":[]},{"type":"error","name":"InvalidConsensusKeyEncoding","inputs":[]},{"type":"error","name":"InvalidInitialization","inputs":[]},{"type":"error","name":"InvalidProofOfPossession","inputs":[{"name":"validator","type":"address","internalType":"address"}]},{"type":"error","name":"MalformedInitialBalance","inputs":[]},{"type":"error","name":"MalformedInputLength","inputs":[]},{"type":"error","name":"MaxActiveValidatorsExceeded","inputs":[{"name":"requested","type":"uint32","internalType":"uint32"},{"name":"max","type":"uint32","internalType":"uint32"}]},{"type":"error","name":"MisdemeanorThresholdNotMet","inputs":[]},{"type":"error","name":"NotActiveValidator","inputs":[]},{"type":"error","name":"NotEnoughBalance","inputs":[]},{"type":"error","name":"NotEnoughShares","inputs":[{"name":"requiredShares","type":"uint256","internalType":"uint256"}]},{"type":"error","name":"NotInitializing","inputs":[]},{"type":"error","name":"NotPendingValidator","inputs":[{"name":"validator","type":"address","internalType":"address"}]},{"type":"error","name":"NothingToClaim","inputs":[]},{"type":"error","name":"NothingToUnstake","inputs":[]},{"type":"error","name":"OnlyCoinbase","inputs":[]},{"type":"error","name":"OnlyGovernance","inputs":[]},{"type":"error","name":"OnlyLivenessSlashing","inputs":[]},{"type":"error","name":"OnlyStakingContract","inputs":[]},{"type":"error","name":"OnlySystemCall","inputs":[]},{"type":"error","name":"OnlyValidatorOwner","inputs":[{"name":"validator","type":"address","internalType":"address"}]},{"type":"error","name":"OnlyZeroGasPrice","inputs":[]},{"type":"error","name":"OwnableInvalidOwner","inputs":[{"name":"owner","type":"address","internalType":"address"}]},{"type":"error","name":"OwnableUnauthorizedAccount","inputs":[{"name":"account","type":"address","internalType":"address"}]},{"type":"error","name":"OwnerCantBeZero","inputs":[]},{"type":"error","name":"OwnerSelfStakeBelowMinimum","inputs":[]},{"type":"error","name":"PeerPubkeyAlreadyInUse","inputs":[{"name":"peerPubkey","type":"bytes32","internalType":"bytes32"}]},{"type":"error","name":"PendingUndelegate","inputs":[]},{"type":"error","name":"SafeTransferFailed","inputs":[]},{"type":"error","name":"SignerIndexOutOfRange","inputs":[{"name":"epoch","type":"uint64","internalType":"uint64"},{"name":"signerIdx","type":"uint32","internalType":"uint32"},{"name":"committeeLen","type":"uint256","internalType":"uint256"}]},{"type":"error","name":"StillInJail","inputs":[{"name":"validator","type":"address","internalType":"address"}]},{"type":"error","name":"UUPSUnauthorizedCallContext","inputs":[]},{"type":"error","name":"UUPSUnsupportedProxiableUUID","inputs":[{"name":"slot","type":"bytes32","internalType":"bytes32"}]},{"type":"error","name":"UnalignedActivationBlock","inputs":[]},{"type":"error","name":"UndelegateWindowTooShort","inputs":[{"name":"windowBlocks","type":"uint256","internalType":"uint256"},{"name":"minBlocks","type":"uint256","internalType":"uint256"}]},{"type":"error","name":"UnsafeTransferFailed","inputs":[]},{"type":"error","name":"ValidatorAlreadyExists","inputs":[{"name":"validator","type":"address","internalType":"address"}]},{"type":"error","name":"ValidatorNotFound","inputs":[{"name":"validator","type":"address","internalType":"address"}]},{"type":"error","name":"ValidatorNotInJail","inputs":[{"name":"validator","type":"address","internalType":"address"}]},{"type":"error","name":"ValidatorOwnerAlreadyInUse","inputs":[{"name":"validator","type":"address","internalType":"address"}]},{"type":"error","name":"WrongAmountPrecision","inputs":[]},{"type":"error","name":"ZeroAmount","inputs":[]},{"type":"error","name":"ZeroValue","inputs":[{"name":"field","type":"string","internalType":"string"}]}],"bytecode":{"object":"0x6101803461022857601f6121ed38819003918201601f19168301916001600160401b0383118484101761022c5780849260e094604052833981010312610228578051906001600160a01b03821682036102285760208101516001600160a01b03811681036102285760408201516001600160a01b0381168103610228576060830151906001600160a01b0382168203610228576080840151926001600160a01b03841684036102285760a0850151946001600160a01b03861686036102285760c00151953060805260a05260c05260e0526101005261012052610140525f5160206121cd5f395f51905f525460ff8160401c16610219576002600160401b03196001600160401b038216016101c3575b5061016052604051611f8c90816102418239608051818181611360015261142f015260a05181611088015260c051816110cc015260e051816117000152610100518181816101d8015281816102eb01528181610512015281816105b501528181610698015281816107c4015281816108c501528181611235015281816115ff0152818161174a0152818161188b01526118d5015261012051816112d201526101405181610a9001526101605181611cee0152f35b6001600160401b0319166001600160401b039081175f5160206121cd5f395f51905f52556040519081527fc7f505b2f371ae2175ee4913f4499e1f2633a7b5936321eed1cdaeb6115181d290602090a15f61010f565b63f92ee8a960e01b5f5260045ffd5b5f80fd5b634e487b7160e01b5f52604160045260245ffdfe6080806040526004361015610012575f80fd5b5f3560e01c908162857c90146118ba57508063289b3c0d1461187657806332cc6f0814611847578063346c90a81461181657806341d8a0801461172f57806345946334146116eb578063466ae541146115e45780634f1ef286146113b457806352d1902d1461134e5780635d887462146113335780635e7b72ad14611301578063606c0c94146112bd578063612d669e1461121f5780636cbe6cd8146111ed5780636f856847146111c4578063715018a61461114757806379ba5097146110fb5780637a37cc59146110b75780637b1391a6146110735780638009708914610b255780638da5cb5b14610af15780639dbf97db14610abf5780639f9106d114610a7b578063a2a5052814610a46578063ad3cb1cc146109e8578063af70fa2c146108aa578063be19973814610878578063c227a412146107a9578063c6b904ad14610762578063c8652bd51461067d578063d98e3ebf1461059a578063e1a2e863146104fc578063e2cf72f9146104c8578063e30c397814610494578063eea9a01b1461046b578063f2fde38b146103e7578063f517ca6a146102c35763fcd6cb3e146101bd575f80fd5b346102bf5760203660031901126102bf576101d66119c4565b7f00000000000000000000000000000000000000000000000000000000000000006001600160a01b031633036102b05763ffffffff811690610219821515611c93565b5f516020611ef75f395f51905f52549163ffffffff8360401c16116102a2576040805163ffffffff606085901c81168252831660208201527f67da1e9c07e7b373ed5e18cc8355caf6dfe18ab4472ec575600a2172772c62049190a163ffffffff60601b1990911660609190911b63ffffffff60601b16175f516020611ef75f395f51905f5255005b625a985f60e01b5f5260045ffd5b6354348f0360e01b5f5260045ffd5b5f80fd5b346102bf5760203660031901126102bf576004356001600160401b038116908181036102bf577f00000000000000000000000000000000000000000000000000000000000000006001600160a01b031633036102b0576001600160401b035f516020611f375f395f51905f525460a01c16801580156103de575b156103cf576001600160401b0361036b63ffffffff5f516020611ef75f395f51905f525460201c1684611ae9565b166103c0574383106103b15760407f78cb2b4e564cfd9b5595e14ebebb2a58997c4cb5af705e0e74900d7e5f51aecb916103af9482519182526020820152a1611c5a565b005b630dacb59f60e01b5f5260045ffd5b6330df900d60e01b5f5260045ffd5b6346f2bb9f60e01b5f5260045ffd5b5080431061033d565b346102bf5760203660031901126102bf576104006119ae565b610408611d42565b5f516020611f175f395f51905f5280546001600160a01b0319166001600160a01b039283169081179091555f516020611e575f395f51905f52549091167f38d16b8cac22d99fc7c124b9cd0de2d3fa1faef420bfe791d8c362d765e227005f80a3005b346102bf575f3660031901126102bf5760205f516020611eb75f395f51905f5254604051908152f35b346102bf575f3660031901126102bf575f516020611f175f395f51905f52546040516001600160a01b039091168152602090f35b346102bf575f3660031901126102bf575f516020611f375f395f51905f52546040516001600160a01b039091168152602090f35b346102bf5760203660031901126102bf576004357f00000000000000000000000000000000000000000000000000000000000000006001600160a01b031633036102b05761054b811515611c13565b7f207082661d623a88e041ad2d52c2d4ddc719880c70c3ab44aa81accff9bd86ed60405f516020611e975f395f51905f52548151908152836020820152a15f516020611e975f395f51905f5255005b346102bf5760203660031901126102bf576105b36119c4565b7f00000000000000000000000000000000000000000000000000000000000000006001600160a01b031633036102b05763ffffffff8116906105f6821515611bcf565b5f516020611ef75f395f51905f52549163ffffffff8360601c16106102a2576040805163ffffffff84831c81168252831660208201527f5aa72ebd12c45515403eef36583106e321b8707946a6ae621f5f393ee0c9677b9190a163ffffffff60401b1990911660409190911b63ffffffff60401b16175f516020611ef75f395f51905f5255005b346102bf5760203660031901126102bf576106966119c4565b7f00000000000000000000000000000000000000000000000000000000000000006001600160a01b031633036102b0576106d763ffffffff82161515611b87565b5f516020611ef75f395f51905f5254907f0a677ce4509bf46fe9bdf65c86abe71921755a78494111b1caa25df328ffcd1c604051806107328463ffffffff8760801c168363ffffffff91821681529116602082015260400190565b0390a163ffffffff60801b1990911660809190911b63ffffffff60801b16175f516020611ef75f395f51905f5255005b346102bf575f3660031901126102bf577f8046150a36ce023dec392c496d6e64fcdc42b4e5054073dafc987cdbcc500e03546040516001600160a01b039091168152602090f35b346102bf5760203660031901126102bf576107c26119c4565b7f00000000000000000000000000000000000000000000000000000000000000006001600160a01b031633036102b05763ffffffff811690610805821515611b1b565b610813816033841115611b61565b5f516020611ef75f395f51905f52546040805163ffffffff808416825293909316602084015290917f1c4cfc6dcf4219ed649285020aedf5d064480d1acdf4b8c75b397abd5910f40c9190a163ffffffff1916175f516020611ef75f395f51905f5255005b346102bf575f3660031901126102bf57602063ffffffff5f516020611ef75f395f51905f525460601c16604051908152f35b346102bf5760203660031901126102bf576108c36119c4565b7f00000000000000000000000000000000000000000000000000000000000000006001600160a01b031633036102b05763ffffffff8116610905811515611aa7565b6001600160401b035f516020611f375f395f51905f525460a01c168015801590816109df575b156103cf576109c1575b8263ffffffff60201b5f516020611ef75f395f51905f5254916109618163ffffffff8560a01c16611cd2565b6040805163ffffffff602086811c82168352908416908201527f33c8012b0f51f8c1a1e525ea046da837d0eb4fa7473cd863e0bfb73a4f475a5a9190a160201b169063ffffffff60201b1916175f516020611ef75f395f51905f52555f80f35b6001600160401b03916109d391611ae9565b166103c0578180610935565b5081431061092b565b346102bf575f3660031901126102bf576040805190610a0781836119d7565b600582526020820191640352e302e360dc1b83528151928391602083525180918160208501528484015e5f828201840152601f01601f19168101030190f35b346102bf575f3660031901126102bf5760206001600160401b035f516020611f375f395f51905f525460a01c16604051908152f35b346102bf575f3660031901126102bf576040517f00000000000000000000000000000000000000000000000000000000000000006001600160a01b03168152602090f35b346102bf575f3660031901126102bf57602063ffffffff5f516020611ef75f395f51905f525460401c16604051908152f35b346102bf575f3660031901126102bf575f516020611e575f395f51905f52546040516001600160a01b039091168152602090f35b346102bf576101403660031901126102bf57610b3f6119ae565b6024359063ffffffff821682036102bf576044359163ffffffff831683036102bf576064359263ffffffff841684036102bf5760843563ffffffff811681036102bf5760a4359163ffffffff831683036102bf5760c4359363ffffffff851685036102bf5761012435966001600160401b03881688036102bf575f516020611ed75f395f51905f5254966001600160401b03881680159081611063575b6001149081611059575b159081611050575b506110415760016001600160401b03198916175f516020611ed75f395f51905f525560ff8860401c1615611015575b610c25611dcd565b610c2d611dcd565b610c35611dcd565b6001600160a01b0381161561100257610c4d90611d62565b610c55611dcd565b610c5d611dcd565b610c65611dcd565b610c7663ffffffff83161515611b1b565b610c8a82603363ffffffff82161115611b61565b5f516020611ef75f395f51905f5254957f1c4cfc6dcf4219ed649285020aedf5d064480d1acdf4b8c75b397abd5910f40c604080515f815263ffffffff86166020820152a1610ce063ffffffff85161515611aa7565b7f33c8012b0f51f8c1a1e525ea046da837d0eb4fa7473cd863e0bfb73a4f475a5a604080515f815263ffffffff87166020820152a1610d2663ffffffff83161515611bcf565b7f5aa72ebd12c45515403eef36583106e321b8707946a6ae621f5f393ee0c9677b604080515f815263ffffffff85166020820152a1610d6c63ffffffff86161515611c93565b63ffffffff821663ffffffff8616106102a2576001600160401b0396610f5c9663ffffffff967fb191e5acbef9e4b8ce0f17af112f8984f92833324657b89fe39768885f81b6ce956040957f67da1e9c07e7b373ed5e18cc8355caf6dfe18ab4472ec575600a2172772c62048780515f81528c86166020820152a1610df48a85161515611b87565b7f0a677ce4509bf46fe9bdf65c86abe71921755a78494111b1caa25df328ffcd1c8780515f81528c87166020820152a1610e318a87161515611a27565b610e3b8987611cd2565b8960a01b8660a01b16948a60a01b19928b60801b19918c8060601b1992169060018060601b031916171663ffffffff60201b8b60201b161716908a881b90881b161716908860601b9060601b1617908760801b9060801b1617175f516020611ef75f395f51905f5255848251915f8352166020820152a1610ebf60e4351515611c13565b60e4355f516020611e975f395f51905f52557f207082661d623a88e041ad2d52c2d4ddc719880c70c3ab44aa81accff9bd86ed604080515f815260e4356020820152a1610f10610104351515611a67565b610104355f516020611eb75f395f51905f52557f973f438cb6bc47d284033b6113687c6087f4fb7a3395b03597578ae1259bf23c604080515f8152610104356020820152a11684611ae9565b166103c0577f78cb2b4e564cfd9b5595e14ebebb2a58997c4cb5af705e0e74900d7e5f51aecb604083610f9060ff95611c5a565b6001600160401b038251915f8352166020820152a160401c1615610fb057005b60ff60401b195f516020611ed75f395f51905f5254165f516020611ed75f395f51905f52557fc7f505b2f371ae2175ee4913f4499e1f2633a7b5936321eed1cdaeb6115181d2602060405160018152a1005b631e4fbdf760e01b5f525f60045260245ffd5b68ffffffffffffffffff19881668010000000000000001175f516020611ed75f395f51905f5255610c1d565b63f92ee8a960e01b5f5260045ffd5b9050158a610bee565b303b159150610be6565b60408a901c60ff16159150610bdc565b346102bf575f3660031901126102bf576040517f00000000000000000000000000000000000000000000000000000000000000006001600160a01b03168152602090f35b346102bf575f3660031901126102bf576040517f00000000000000000000000000000000000000000000000000000000000000006001600160a01b03168152602090f35b346102bf575f3660031901126102bf575f516020611f175f395f51905f5254336001600160a01b0390911603611134576103af33611d62565b63118cdaa760e01b5f523360045260245ffd5b346102bf575f3660031901126102bf5761115f611d42565b5f516020611f175f395f51905f5280546001600160a01b03199081169091555f516020611e575f395f51905f52805491821690555f906001600160a01b03167f8be0079c531659141344cd1fd0a4f28419497f9722a3daafe3b4186f6b6457e08280a3005b346102bf575f3660031901126102bf5760205f516020611e975f395f51905f5254604051908152f35b346102bf575f3660031901126102bf57602063ffffffff5f516020611ef75f395f51905f525460801c16604051908152f35b346102bf5760203660031901126102bf576004357f00000000000000000000000000000000000000000000000000000000000000006001600160a01b031633036102b05761126e811515611a67565b7f973f438cb6bc47d284033b6113687c6087f4fb7a3395b03597578ae1259bf23c60405f516020611eb75f395f51905f52548151908152836020820152a15f516020611eb75f395f51905f5255005b346102bf575f3660031901126102bf576040517f00000000000000000000000000000000000000000000000000000000000000006001600160a01b03168152602090f35b346102bf575f3660031901126102bf57602063ffffffff5f516020611ef75f395f51905f525460a01c16604051908152f35b346102bf575f3660031901126102bf57602060405160338152f35b346102bf575f3660031901126102bf577f00000000000000000000000000000000000000000000000000000000000000006001600160a01b031630036113a55760206040515f516020611e775f395f51905f528152f35b63703e46dd60e11b5f5260045ffd5b60403660031901126102bf576113c86119ae565b602435906001600160401b0382116102bf57366023830112156102bf578160040135906113f482611a0c565b9161140260405193846119d7565b808352602083019336602483830101116102bf57815f926024602093018737840101526001600160a01b037f0000000000000000000000000000000000000000000000000000000000000000163081149081156115c2575b506113a557611467611d42565b6040516352d1902d60e01b81526001600160a01b0382169390602081600481885afa5f918161158e575b506114a95784634c9c8ce360e01b5f5260045260245ffd5b805f516020611e775f395f51905f5286920361157c5750823b1561156a575f516020611e775f395f51905f5280546001600160a01b031916821790557fbc7cd75a20ee27fd9adebab32041f755214dbc6bffa90cc0225b39da2e5c2d3b5f80a2825115611551575f80916103af945190845af43d15611549573d9161152d83611a0c565b9261153b60405194856119d7565b83523d5f602085013e611df8565b606091611df8565b5050503461155b57005b63b398979f60e01b5f5260045ffd5b634c9c8ce360e01b5f5260045260245ffd5b632a87526960e21b5f5260045260245ffd5b9091506020813d6020116115ba575b816115aa602093836119d7565b810103126102bf57519086611491565b3d915061159d565b5f516020611e775f395f51905f52546001600160a01b0316141590508461145a565b346102bf5760203660031901126102bf576115fd6119ae565b7f00000000000000000000000000000000000000000000000000000000000000006001600160a01b031633036102b0576001600160a01b0381169081156116b7577f8046150a36ce023dec392c496d6e64fcdc42b4e5054073dafc987cdbcc500e0380546001600160a01b031981169093179055604080516001600160a01b0393841681529190921660208201527fc7ddd19923691ea90036ccf8092cd931a0a2452a8e5f5cbb33f0fb2a1a3d4bcf91819081015b0390a1005b60405163046c82ad60e41b815260206004820152600b60248201526a313639ab32b934b334b2b960a91b6044820152606490fd5b346102bf575f3660031901126102bf576040517f00000000000000000000000000000000000000000000000000000000000000006001600160a01b03168152602090f35b346102bf5760203660031901126102bf576117486119c4565b7f00000000000000000000000000000000000000000000000000000000000000006001600160a01b031633036102b05761178963ffffffff82161515611a27565b5f516020611ef75f395f51905f5254906117ac63ffffffff8360201c1682611cd2565b6040805163ffffffff60a085901c81168252831660208201527fb191e5acbef9e4b8ce0f17af112f8984f92833324657b89fe39768885f81b6ce9190a163ffffffff60a01b1990911660a09190911b63ffffffff60a01b16175f516020611ef75f395f51905f5255005b346102bf575f3660031901126102bf57602063ffffffff5f516020611ef75f395f51905f5254821c16604051908152f35b346102bf575f3660031901126102bf57602063ffffffff5f516020611ef75f395f51905f525416604051908152f35b346102bf575f3660031901126102bf576040517f00000000000000000000000000000000000000000000000000000000000000006001600160a01b03168152602090f35b346102bf5760203660031901126102bf576118d36119ae565b7f00000000000000000000000000000000000000000000000000000000000000006001600160a01b031633036102b0576001600160a01b0381168015611979575f516020611f375f395f51905f5280546001600160a01b031981169092179055604080516001600160a01b0392831681529290911660208301527fc4c5f72550481191f4d22648d1cfe85a2afece167eabbc7c952dcf3cc27304ec9250819081016116b2565b63046c82ad60e41b835260206004840152600f60248401526e32bb34b232b731b2a232b1b7b232b960891b6044840152606483fd5b600435906001600160a01b03821682036102bf57565b6004359063ffffffff821682036102bf57565b90601f801991011681019081106001600160401b038211176119f857604052565b634e487b7160e01b5f52604160045260245ffd5b6001600160401b0381116119f857601f01601f191660200190565b15611a2e57565b60405163046c82ad60e41b815260206004820152601060248201526f1d5b99195b1959d85d1954195c9a5bd960821b6044820152606490fd5b15611a6e57565b60405163046c82ad60e41b815260206004820152601060248201526f1b5a5b94dd185ada5b99d05b5bdd5b9d60821b6044820152606490fd5b15611aae57565b60405163046c82ad60e41b8152602060048201526012602482015271195c1bd8da109b1bd8dad25b9d195c9d985b60721b6044820152606490fd5b906001600160401b0316908115611b07576001600160401b03160690565b634e487b7160e01b5f52601260045260245ffd5b15611b2257565b60405163046c82ad60e41b81526020600482015260166024820152750c2c6e8d2eccaacc2d8d2c8c2e8dee4e698cadccee8d60531b6044820152606490fd5b15611b695750565b63ffffffff906385e9715f60e01b5f5216600452603360245260445ffd5b15611b8e57565b60405163046c82ad60e41b81526020600482015260186024820152770ecc2d8d2c8c2e8dee494c2d2d88ae0dec6d098cadccee8d60431b6044820152606490fd5b15611bd657565b60405163046c82ad60e41b81526020600482015260146024820152731b5a5cd9195b59585b9bdc951a1c995cda1bdb1960621b6044820152606490fd5b15611c1a57565b60405163046c82ad60e41b81526020600482015260176024820152761b5a5b95985b1a59185d1bdc94dd185ad9505b5bdd5b9d604a1b6044820152606490fd5b5f516020611f375f395f51905f52805467ffffffffffffffff60a01b191660a09290921b67ffffffffffffffff60a01b16919091179055565b15611c9a57565b60405163046c82ad60e41b815260206004820152600f60248201526e19995b1bdb9e551a1c995cda1bdb19608a1b6044820152606490fd5b63ffffffff9182169116818102918115918304141715611d2e577f000000000000000000000000000000000000000000000000000000000000000090818110611d19575050565b6353013ab360e01b5f5260045260245260445ffd5b634e487b7160e01b5f52601160045260245ffd5b5f516020611e575f395f51905f52546001600160a01b0316330361113457565b5f516020611f175f395f51905f5280546001600160a01b03199081169091555f516020611e575f395f51905f5280549182166001600160a01b0393841690811790915591167f8be0079c531659141344cd1fd0a4f28419497f9722a3daafe3b4186f6b6457e05f80a3565b60ff5f516020611ed75f395f51905f525460401c1615611de957565b631afcd79f60e31b5f5260045ffd5b90611e1c5750805115611e0d57805190602001fd5b630a12f52160e11b5f5260045ffd5b81511580611e4d575b611e2d575090565b639996b31560e01b5f9081526001600160a01b0391909116600452602490fd5b50803b15611e2556fe9016d09d72d40fdae2fd8ceac6b6234c7706214fd39c1cd1e609a0528c199300360894a13ba1a3210667c828492db98dca3e2076cc3735a920a3ca505d382bbc8046150a36ce023dec392c496d6e64fcdc42b4e5054073dafc987cdbcc500e018046150a36ce023dec392c496d6e64fcdc42b4e5054073dafc987cdbcc500e02f0c57e16840df040f15088dc2f81fe391c3923bec73e23a9662efc9c229c6a008046150a36ce023dec392c496d6e64fcdc42b4e5054073dafc987cdbcc500e00237e158222e3e6968b72b9db0d8043aacf074ad9f650f0d1606b4d82ee432c008046150a36ce023dec392c496d6e64fcdc42b4e5054073dafc987cdbcc500e04a26469706673582212202d07cb2e679eba424a3c5347de074e17d9bed94a0657b4808c8c30d99bb78df064736f6c634300081e0033f0c57e16840df040f15088dc2f81fe391c3923bec73e23a9662efc9c229c6a00","linkReferences":{}},"methodIdentifiers":{"MAX_ACTIVE_VALIDATORS()":"5d887462","UPGRADE_INTERFACE_VERSION()":"ad3cb1cc","acceptOwnership()":"79ba5097","getActiveValidatorsLength()":"32cc6f08","getBlsVerifier()":"c6b904ad","getChainConfig()":"606c0c94","getDposActivationBlock()":"a2a50528","getEpochBlockInterval()":"346c90a8","getEvidenceDecoder()":"e2cf72f9","getFelonyThreshold()":"be199738","getGovernance()":"289b3c0d","getMinStakingAmount()":"eea9a01b","getMinValidatorStakeAmount()":"6f856847","getMisdemeanorThreshold()":"9dbf97db","getStaking()":"7b1391a6","getStakingPool()":"45946334","getStakingToken()":"9f9106d1","getSystemReward()":"7a37cc59","getUndelegatePeriod()":"5e7b72ad","getValidatorJailEpochLength()":"6cbe6cd8","initialize(address,uint32,uint32,uint32,uint32,uint32,uint32,uint256,uint256,uint64)":"80097089","owner()":"8da5cb5b","pendingOwner()":"e30c3978","proxiableUUID()":"52d1902d","renounceOwnership()":"715018a6","setActiveValidatorsLength(uint32)":"c227a412","setBlsVerifier(address)":"466ae541","setDposActivationBlock(uint64)":"f517ca6a","setEpochBlockInterval(uint32)":"af70fa2c","setEvidenceDecoder(address)":"00857c90","setFelonyThreshold(uint32)":"fcd6cb3e","setMinStakingAmount(uint256)":"612d669e","setMinValidatorStakeAmount(uint256)":"e1a2e863","setMisdemeanorThreshold(uint32)":"d98e3ebf","setUndelegatePeriod(uint32)":"41d8a080","setValidatorJailEpochLength(uint32)":"c8652bd5","transferOwnership(address)":"f2fde38b","upgradeToAndCall(address,bytes)":"4f1ef286"},"storageLayout":{"storage":[],"types":{}},"id":3}