{"abi":[{"type":"constructor","inputs":[{"name":"stakingContract","type":"address","internalType":"contract IStaking"},{"name":"chainConfigContract","type":"address","internalType":"contract IChainConfig"}],"stateMutability":"nonpayable"},{"type":"receive","stateMutability":"payable"},{"type":"function","name":"BALLOT_TYPEHASH","inputs":[],"outputs":[{"name":"","type":"bytes32","internalType":"bytes32"}],"stateMutability":"view"},{"type":"function","name":"CLOCK_MODE","inputs":[],"outputs":[{"name":"","type":"string","internalType":"string"}],"stateMutability":"view"},{"type":"function","name":"COUNTING_MODE","inputs":[],"outputs":[{"name":"","type":"string","internalType":"string"}],"stateMutability":"pure"},{"type":"function","name":"EXTENDED_BALLOT_TYPEHASH","inputs":[],"outputs":[{"name":"","type":"bytes32","internalType":"bytes32"}],"stateMutability":"view"},{"type":"function","name":"UPGRADE_INTERFACE_VERSION","inputs":[],"outputs":[{"name":"","type":"string","internalType":"string"}],"stateMutability":"view"},{"type":"function","name":"acceptOwnership","inputs":[],"outputs":[],"stateMutability":"nonpayable"},{"type":"function","name":"cancel","inputs":[{"name":"targets","type":"address[]","internalType":"address[]"},{"name":"values","type":"uint256[]","internalType":"uint256[]"},{"name":"calldatas","type":"bytes[]","internalType":"bytes[]"},{"name":"descriptionHash","type":"bytes32","internalType":"bytes32"}],"outputs":[{"name":"","type":"uint256","internalType":"uint256"}],"stateMutability":"nonpayable"},{"type":"function","name":"castVote","inputs":[{"name":"proposalId","type":"uint256","internalType":"uint256"},{"name":"support","type":"uint8","internalType":"uint8"}],"outputs":[{"name":"","type":"uint256","internalType":"uint256"}],"stateMutability":"nonpayable"},{"type":"function","name":"castVoteBySig","inputs":[{"name":"proposalId","type":"uint256","internalType":"uint256"},{"name":"support","type":"uint8","internalType":"uint8"},{"name":"voter","type":"address","internalType":"address"},{"name":"signature","type":"bytes","internalType":"bytes"}],"outputs":[{"name":"","type":"uint256","internalType":"uint256"}],"stateMutability":"nonpayable"},{"type":"function","name":"castVoteWithReason","inputs":[{"name":"proposalId","type":"uint256","internalType":"uint256"},{"name":"support","type":"uint8","internalType":"uint8"},{"name":"reason","type":"string","internalType":"string"}],"outputs":[{"name":"","type":"uint256","internalType":"uint256"}],"stateMutability":"nonpayable"},{"type":"function","name":"castVoteWithReasonAndParams","inputs":[{"name":"proposalId","type":"uint256","internalType":"uint256"},{"name":"support","type":"uint8","internalType":"uint8"},{"name":"reason","type":"string","internalType":"string"},{"name":"params","type":"bytes","internalType":"bytes"}],"outputs":[{"name":"","type":"uint256","internalType":"uint256"}],"stateMutability":"nonpayable"},{"type":"function","name":"castVoteWithReasonAndParamsBySig","inputs":[{"name":"proposalId","type":"uint256","internalType":"uint256"},{"name":"support","type":"uint8","internalType":"uint8"},{"name":"voter","type":"address","internalType":"address"},{"name":"reason","type":"string","internalType":"string"},{"name":"params","type":"bytes","internalType":"bytes"},{"name":"signature","type":"bytes","internalType":"bytes"}],"outputs":[{"name":"","type":"uint256","internalType":"uint256"}],"stateMutability":"nonpayable"},{"type":"function","name":"clock","inputs":[],"outputs":[{"name":"","type":"uint48","internalType":"uint48"}],"stateMutability":"view"},{"type":"function","name":"eip712Domain","inputs":[],"outputs":[{"name":"fields","type":"bytes1","internalType":"bytes1"},{"name":"name","type":"string","internalType":"string"},{"name":"version","type":"string","internalType":"string"},{"name":"chainId","type":"uint256","internalType":"uint256"},{"name":"verifyingContract","type":"address","internalType":"address"},{"name":"salt","type":"bytes32","internalType":"bytes32"},{"name":"extensions","type":"uint256[]","internalType":"uint256[]"}],"stateMutability":"view"},{"type":"function","name":"execute","inputs":[{"name":"targets","type":"address[]","internalType":"address[]"},{"name":"values","type":"uint256[]","internalType":"uint256[]"},{"name":"calldatas","type":"bytes[]","internalType":"bytes[]"},{"name":"descriptionHash","type":"bytes32","internalType":"bytes32"}],"outputs":[{"name":"","type":"uint256","internalType":"uint256"}],"stateMutability":"payable"},{"type":"function","name":"getVotes","inputs":[{"name":"account","type":"address","internalType":"address"},{"name":"timepoint","type":"uint256","internalType":"uint256"}],"outputs":[{"name":"","type":"uint256","internalType":"uint256"}],"stateMutability":"view"},{"type":"function","name":"getVotesWithParams","inputs":[{"name":"account","type":"address","internalType":"address"},{"name":"timepoint","type":"uint256","internalType":"uint256"},{"name":"params","type":"bytes","internalType":"bytes"}],"outputs":[{"name":"","type":"uint256","internalType":"uint256"}],"stateMutability":"view"},{"type":"function","name":"getVotingPower","inputs":[{"name":"validatorOwner","type":"address","internalType":"address"}],"outputs":[{"name":"","type":"uint256","internalType":"uint256"}],"stateMutability":"view"},{"type":"function","name":"getVotingSupply","inputs":[],"outputs":[{"name":"","type":"uint256","internalType":"uint256"}],"stateMutability":"view"},{"type":"function","name":"hasVoted","inputs":[{"name":"proposalId","type":"uint256","internalType":"uint256"},{"name":"account","type":"address","internalType":"address"}],"outputs":[{"name":"","type":"bool","internalType":"bool"}],"stateMutability":"view"},{"type":"function","name":"hashProposal","inputs":[{"name":"targets","type":"address[]","internalType":"address[]"},{"name":"values","type":"uint256[]","internalType":"uint256[]"},{"name":"calldatas","type":"bytes[]","internalType":"bytes[]"},{"name":"descriptionHash","type":"bytes32","internalType":"bytes32"}],"outputs":[{"name":"","type":"uint256","internalType":"uint256"}],"stateMutability":"pure"},{"type":"function","name":"initialize","inputs":[{"name":"initialOwner","type":"address","internalType":"address"},{"name":"initialVotingPeriod","type":"uint32","internalType":"uint32"}],"outputs":[],"stateMutability":"nonpayable"},{"type":"function","name":"name","inputs":[],"outputs":[{"name":"","type":"string","internalType":"string"}],"stateMutability":"view"},{"type":"function","name":"nonces","inputs":[{"name":"owner","type":"address","internalType":"address"}],"outputs":[{"name":"","type":"uint256","internalType":"uint256"}],"stateMutability":"view"},{"type":"function","name":"onERC1155BatchReceived","inputs":[{"name":"","type":"address","internalType":"address"},{"name":"","type":"address","internalType":"address"},{"name":"","type":"uint256[]","internalType":"uint256[]"},{"name":"","type":"uint256[]","internalType":"uint256[]"},{"name":"","type":"bytes","internalType":"bytes"}],"outputs":[{"name":"","type":"bytes4","internalType":"bytes4"}],"stateMutability":"nonpayable"},{"type":"function","name":"onERC1155Received","inputs":[{"name":"","type":"address","internalType":"address"},{"name":"","type":"address","internalType":"address"},{"name":"","type":"uint256","internalType":"uint256"},{"name":"","type":"uint256","internalType":"uint256"},{"name":"","type":"bytes","internalType":"bytes"}],"outputs":[{"name":"","type":"bytes4","internalType":"bytes4"}],"stateMutability":"nonpayable"},{"type":"function","name":"onERC721Received","inputs":[{"name":"","type":"address","internalType":"address"},{"name":"","type":"address","internalType":"address"},{"name":"","type":"uint256","internalType":"uint256"},{"name":"","type":"bytes","internalType":"bytes"}],"outputs":[{"name":"","type":"bytes4","internalType":"bytes4"}],"stateMutability":"nonpayable"},{"type":"function","name":"owner","inputs":[],"outputs":[{"name":"","type":"address","internalType":"address"}],"stateMutability":"view"},{"type":"function","name":"pendingOwner","inputs":[],"outputs":[{"name":"","type":"address","internalType":"address"}],"stateMutability":"view"},{"type":"function","name":"proposalDeadline","inputs":[{"name":"proposalId","type":"uint256","internalType":"uint256"}],"outputs":[{"name":"","type":"uint256","internalType":"uint256"}],"stateMutability":"view"},{"type":"function","name":"proposalEta","inputs":[{"name":"proposalId","type":"uint256","internalType":"uint256"}],"outputs":[{"name":"","type":"uint256","internalType":"uint256"}],"stateMutability":"view"},{"type":"function","name":"proposalNeedsQueuing","inputs":[{"name":"","type":"uint256","internalType":"uint256"}],"outputs":[{"name":"","type":"bool","internalType":"bool"}],"stateMutability":"view"},{"type":"function","name":"proposalProposer","inputs":[{"name":"proposalId","type":"uint256","internalType":"uint256"}],"outputs":[{"name":"","type":"address","internalType":"address"}],"stateMutability":"view"},{"type":"function","name":"proposalSnapshot","inputs":[{"name":"proposalId","type":"uint256","internalType":"uint256"}],"outputs":[{"name":"","type":"uint256","internalType":"uint256"}],"stateMutability":"view"},{"type":"function","name":"proposalThreshold","inputs":[],"outputs":[{"name":"","type":"uint256","internalType":"uint256"}],"stateMutability":"view"},{"type":"function","name":"proposalVotes","inputs":[{"name":"proposalId","type":"uint256","internalType":"uint256"}],"outputs":[{"name":"againstVotes","type":"uint256","internalType":"uint256"},{"name":"forVotes","type":"uint256","internalType":"uint256"},{"name":"abstainVotes","type":"uint256","internalType":"uint256"}],"stateMutability":"view"},{"type":"function","name":"propose","inputs":[{"name":"targets","type":"address[]","internalType":"address[]"},{"name":"values","type":"uint256[]","internalType":"uint256[]"},{"name":"calldatas","type":"bytes[]","internalType":"bytes[]"},{"name":"description","type":"string","internalType":"string"}],"outputs":[{"name":"","type":"uint256","internalType":"uint256"}],"stateMutability":"nonpayable"},{"type":"function","name":"proposeWithCustomVotingPeriod","inputs":[{"name":"targets","type":"address[]","internalType":"address[]"},{"name":"values","type":"uint256[]","internalType":"uint256[]"},{"name":"calldatas","type":"bytes[]","internalType":"bytes[]"},{"name":"description","type":"string","internalType":"string"},{"name":"customVotingPeriod","type":"uint256","internalType":"uint256"}],"outputs":[{"name":"","type":"uint256","internalType":"uint256"}],"stateMutability":"nonpayable"},{"type":"function","name":"proxiableUUID","inputs":[],"outputs":[{"name":"","type":"bytes32","internalType":"bytes32"}],"stateMutability":"view"},{"type":"function","name":"queue","inputs":[{"name":"targets","type":"address[]","internalType":"address[]"},{"name":"values","type":"uint256[]","internalType":"uint256[]"},{"name":"calldatas","type":"bytes[]","internalType":"bytes[]"},{"name":"descriptionHash","type":"bytes32","internalType":"bytes32"}],"outputs":[{"name":"","type":"uint256","internalType":"uint256"}],"stateMutability":"nonpayable"},{"type":"function","name":"quorum","inputs":[{"name":"blockNumber","type":"uint256","internalType":"uint256"}],"outputs":[{"name":"","type":"uint256","internalType":"uint256"}],"stateMutability":"view"},{"type":"function","name":"relay","inputs":[{"name":"target","type":"address","internalType":"address"},{"name":"value","type":"uint256","internalType":"uint256"},{"name":"data","type":"bytes","internalType":"bytes"}],"outputs":[],"stateMutability":"payable"},{"type":"function","name":"renounceOwnership","inputs":[],"outputs":[],"stateMutability":"nonpayable"},{"type":"function","name":"setProposalThreshold","inputs":[{"name":"newProposalThreshold","type":"uint256","internalType":"uint256"}],"outputs":[],"stateMutability":"nonpayable"},{"type":"function","name":"setVotingDelay","inputs":[{"name":"newVotingDelay","type":"uint48","internalType":"uint48"}],"outputs":[],"stateMutability":"nonpayable"},{"type":"function","name":"setVotingPeriod","inputs":[{"name":"newVotingPeriod","type":"uint32","internalType":"uint32"}],"outputs":[],"stateMutability":"nonpayable"},{"type":"function","name":"state","inputs":[{"name":"proposalId","type":"uint256","internalType":"uint256"}],"outputs":[{"name":"","type":"uint8","internalType":"enum IGovernor.ProposalState"}],"stateMutability":"view"},{"type":"function","name":"supportsInterface","inputs":[{"name":"interfaceId","type":"bytes4","internalType":"bytes4"}],"outputs":[{"name":"","type":"bool","internalType":"bool"}],"stateMutability":"view"},{"type":"function","name":"transferOwnership","inputs":[{"name":"newOwner","type":"address","internalType":"address"}],"outputs":[],"stateMutability":"nonpayable"},{"type":"function","name":"upgradeToAndCall","inputs":[{"name":"newImplementation","type":"address","internalType":"address"},{"name":"data","type":"bytes","internalType":"bytes"}],"outputs":[],"stateMutability":"payable"},{"type":"function","name":"version","inputs":[],"outputs":[{"name":"","type":"string","internalType":"string"}],"stateMutability":"view"},{"type":"function","name":"votingDelay","inputs":[],"outputs":[{"name":"","type":"uint256","internalType":"uint256"}],"stateMutability":"view"},{"type":"function","name":"votingPeriod","inputs":[],"outputs":[{"name":"","type":"uint256","internalType":"uint256"}],"stateMutability":"view"},{"type":"event","name":"EIP712DomainChanged","inputs":[],"anonymous":false},{"type":"event","name":"Initialized","inputs":[{"name":"version","type":"uint64","indexed":false,"internalType":"uint64"}],"anonymous":false},{"type":"event","name":"OwnershipTransferStarted","inputs":[{"name":"previousOwner","type":"address","indexed":true,"internalType":"address"},{"name":"newOwner","type":"address","indexed":true,"internalType":"address"}],"anonymous":false},{"type":"event","name":"OwnershipTransferred","inputs":[{"name":"previousOwner","type":"address","indexed":true,"internalType":"address"},{"name":"newOwner","type":"address","indexed":true,"internalType":"address"}],"anonymous":false},{"type":"event","name":"ProposalCanceled","inputs":[{"name":"proposalId","type":"uint256","indexed":false,"internalType":"uint256"}],"anonymous":false},{"type":"event","name":"ProposalCreated","inputs":[{"name":"proposalId","type":"uint256","indexed":false,"internalType":"uint256"},{"name":"proposer","type":"address","indexed":false,"internalType":"address"},{"name":"targets","type":"address[]","indexed":false,"internalType":"address[]"},{"name":"values","type":"uint256[]","indexed":false,"internalType":"uint256[]"},{"name":"signatures","type":"string[]","indexed":false,"internalType":"string[]"},{"name":"calldatas","type":"bytes[]","indexed":false,"internalType":"bytes[]"},{"name":"voteStart","type":"uint256","indexed":false,"internalType":"uint256"},{"name":"voteEnd","type":"uint256","indexed":false,"internalType":"uint256"},{"name":"description","type":"string","indexed":false,"internalType":"string"}],"anonymous":false},{"type":"event","name":"ProposalExecuted","inputs":[{"name":"proposalId","type":"uint256","indexed":false,"internalType":"uint256"}],"anonymous":false},{"type":"event","name":"ProposalQueued","inputs":[{"name":"proposalId","type":"uint256","indexed":false,"internalType":"uint256"},{"name":"etaSeconds","type":"uint256","indexed":false,"internalType":"uint256"}],"anonymous":false},{"type":"event","name":"ProposalThresholdSet","inputs":[{"name":"oldProposalThreshold","type":"uint256","indexed":false,"internalType":"uint256"},{"name":"newProposalThreshold","type":"uint256","indexed":false,"internalType":"uint256"}],"anonymous":false},{"type":"event","name":"Upgraded","inputs":[{"name":"implementation","type":"address","indexed":true,"internalType":"address"}],"anonymous":false},{"type":"event","name":"VoteCast","inputs":[{"name":"voter","type":"address","indexed":true,"internalType":"address"},{"name":"proposalId","type":"uint256","indexed":false,"internalType":"uint256"},{"name":"support","type":"uint8","indexed":false,"internalType":"uint8"},{"name":"weight","type":"uint256","indexed":false,"internalType":"uint256"},{"name":"reason","type":"string","indexed":false,"internalType":"string"}],"anonymous":false},{"type":"event","name":"VoteCastWithParams","inputs":[{"name":"voter","type":"address","indexed":true,"internalType":"address"},{"name":"proposalId","type":"uint256","indexed":false,"internalType":"uint256"},{"name":"support","type":"uint8","indexed":false,"internalType":"uint8"},{"name":"weight","type":"uint256","indexed":false,"internalType":"uint256"},{"name":"reason","type":"string","indexed":false,"internalType":"string"},{"name":"params","type":"bytes","indexed":false,"internalType":"bytes"}],"anonymous":false},{"type":"event","name":"VotingDelaySet","inputs":[{"name":"oldVotingDelay","type":"uint256","indexed":false,"internalType":"uint256"},{"name":"newVotingDelay","type":"uint256","indexed":false,"internalType":"uint256"}],"anonymous":false},{"type":"event","name":"VotingPeriodSet","inputs":[{"name":"oldVotingPeriod","type":"uint256","indexed":false,"internalType":"uint256"},{"name":"newVotingPeriod","type":"uint256","indexed":false,"internalType":"uint256"}],"anonymous":false},{"type":"error","name":"AddressEmptyCode","inputs":[{"name":"target","type":"address","internalType":"address"}]},{"type":"error","name":"ERC1967InvalidImplementation","inputs":[{"name":"implementation","type":"address","internalType":"address"}]},{"type":"error","name":"ERC1967NonPayable","inputs":[]},{"type":"error","name":"FailedInnerCall","inputs":[]},{"type":"error","name":"GovernorAlreadyCastVote","inputs":[{"name":"voter","type":"address","internalType":"address"}]},{"type":"error","name":"GovernorAlreadyQueuedProposal","inputs":[{"name":"proposalId","type":"uint256","internalType":"uint256"}]},{"type":"error","name":"GovernorDisabledDeposit","inputs":[]},{"type":"error","name":"GovernorInsufficientProposerVotes","inputs":[{"name":"proposer","type":"address","internalType":"address"},{"name":"votes","type":"uint256","internalType":"uint256"},{"name":"threshold","type":"uint256","internalType":"uint256"}]},{"type":"error","name":"GovernorInvalidProposalLength","inputs":[{"name":"targets","type":"uint256","internalType":"uint256"},{"name":"calldatas","type":"uint256","internalType":"uint256"},{"name":"values","type":"uint256","internalType":"uint256"}]},{"type":"error","name":"GovernorInvalidSignature","inputs":[{"name":"voter","type":"address","internalType":"address"}]},{"type":"error","name":"GovernorInvalidVoteType","inputs":[]},{"type":"error","name":"GovernorInvalidVotingPeriod","inputs":[{"name":"votingPeriod","type":"uint256","internalType":"uint256"}]},{"type":"error","name":"GovernorNonexistentProposal","inputs":[{"name":"proposalId","type":"uint256","internalType":"uint256"}]},{"type":"error","name":"GovernorNotQueuedProposal","inputs":[{"name":"proposalId","type":"uint256","internalType":"uint256"}]},{"type":"error","name":"GovernorOnlyExecutor","inputs":[{"name":"account","type":"address","internalType":"address"}]},{"type":"error","name":"GovernorOnlyProposer","inputs":[{"name":"account","type":"address","internalType":"address"}]},{"type":"error","name":"GovernorQueueNotImplemented","inputs":[]},{"type":"error","name":"GovernorRestrictedProposer","inputs":[{"name":"proposer","type":"address","internalType":"address"}]},{"type":"error","name":"GovernorUnexpectedProposalState","inputs":[{"name":"proposalId","type":"uint256","internalType":"uint256"},{"name":"current","type":"uint8","internalType":"enum IGovernor.ProposalState"},{"name":"expectedStates","type":"bytes32","internalType":"bytes32"}]},{"type":"error","name":"InvalidAccountNonce","inputs":[{"name":"account","type":"address","internalType":"address"},{"name":"currentNonce","type":"uint256","internalType":"uint256"}]},{"type":"error","name":"InvalidInitialization","inputs":[]},{"type":"error","name":"NotInitializing","inputs":[]},{"type":"error","name":"OnlyValidatorOwner","inputs":[]},{"type":"error","name":"OwnableInvalidOwner","inputs":[{"name":"owner","type":"address","internalType":"address"}]},{"type":"error","name":"OwnableUnauthorizedAccount","inputs":[{"name":"account","type":"address","internalType":"address"}]},{"type":"error","name":"QueueEmpty","inputs":[]},{"type":"error","name":"QueueFull","inputs":[]},{"type":"error","name":"SafeCastOverflowedUintDowncast","inputs":[{"name":"bits","type":"uint8","internalType":"uint8"},{"name":"value","type":"uint256","internalType":"uint256"}]},{"type":"error","name":"UUPSUnauthorizedCallContext","inputs":[]},{"type":"error","name":"UUPSUnsupportedProxiableUUID","inputs":[{"name":"slot","type":"bytes32","internalType":"bytes32"}]}],"bytecode":{"object":"0x60e03461015b57601f61418138819003918201601f19168301916001600160401b0383118484101761015f57808492604094855283398101031261015b578051906001600160a01b038216820361015b5760200151906001600160a01b038216820361015b573060805260a05260c0525f5160206141615f395f51905f525460ff8160401c1661014c576002600160401b03196001600160401b038216016100f6575b604051613fed90816101748239608051818181610d050152610e2e015260a051818181611dd601528181612164015281816128cf01528181612c2d01528181612fbe01526133da015260c0518161333f0152f35b6001600160401b0319166001600160401b039081175f5160206141615f395f51905f52556040519081527fc7f505b2f371ae2175ee4913f4499e1f2633a7b5936321eed1cdaeb6115181d290602090a15f6100a2565b63f92ee8a960e01b5f5260045ffd5b5f80fd5b634e487b7160e01b5f52604160045260245ffdfe6080604052600436101561001a575b3615610018575f80fd5b005b5f3560e01c806301ffc9a71461036957806302a251a31461036457806306fdde031461035f5780630eb448fa1461035a578063143489d014610355578063150b7a0214610350578063160cbed71461034b5780632656227d146103465780632d63f693146103415780632fe3e2611461033c5780633932abb1146103375780633e4f49e614610332578063438596321461032d578063452115d6146103285780634bf5d7e9146103235780634f1ef2861461031e57806352d1902d14610319578063544ffc9c1461031457806354fd4d501461030f578063567813881461030a57806359fe2ccf146103055780635b8d0e0d146103005780635f398a14146102fb578063715018a6146102f657806379051887146102f157806379ba5097146102ec5780637b3c71d3146102e75780637d5e81e2146102e25780637ecebe00146102dd57806384b0196e146102d85780638da5cb5b146102d35780638ff262e3146102ce57806391ddadf4146102c95780639a802a6d146102c4578063a9a95294146102bf578063ab58fb8e146102ba578063ad3cb1cc146102b5578063b58131b0146102b0578063bb4d4436146102ab578063bc197c81146102a6578063c01f9e37146102a1578063c28bc2fa1461029c578063c59057e414610297578063c5e4c9f914610292578063dd4e2ba51461028d578063deaaa7cc14610288578063e30c397814610283578063e540d01d1461027e578063eb9019d414610279578063ece40cc114610274578063f23a6e611461026f578063f2fde38b1461026a5763f8ce560a0361000e57611b73565b611aeb565b611a92565b611a6e565b611a34565b611a07565b6119d3565b611999565b61193a565b6117e4565b6117c3565b611758565b61173a565b6116a1565b611678565b61164f565b611608565b6115d6565b6115bb565b611570565b61154e565b61144f565b61141b565b611371565b611285565b6111e8565b611190565b611144565b611110565b611093565b611018565b610f7f565b610f37565b610efa565b610ec0565b610e73565b610e1c565b610cc3565b610c64565b610ba5565b610b44565b610b15565b610abd565b610a83565b610a65565b610911565b6108df565b610817565b6107e7565b610737565b610435565b6103db565b346103d75760203660031901126103d75760043563ffffffff60e01b81168091036103d7576020906332a2ad4360e11b81149081156103c6575b81156103b5575b506040519015158152f35b6301ffc9a760e01b1490505f6103aa565b630271189760e51b811491506103a3565b5f80fd5b346103d7575f3660031901126103d75760206103f5611b91565b604051908152f35b805180835260209291819084018484015e5f828201840152601f01601f1916010190565b9060206104329281815201906103fd565b90565b346103d7575f3660031901126103d7576040515f5f516020613f385f395f51905f525461046181611bb7565b80845290600181169081156105035750600114610499575b610495836104898185038261053b565b60405191829182610421565b0390f35b5f516020613f385f395f51905f525f9081527fda13dda7583a39a3cd73e8830529c760837228fa4683752c823b17e10548aad5939250905b8082106104e957509091508101602001610489610479565b9192600181602092548385880101520191019092916104d1565b60ff191660208086019190915291151560051b840190910191506104899050610479565b634e487b7160e01b5f52604160045260245ffd5b90601f801991011681019081106001600160401b0382111761055c57604052565b610527565b6001600160401b03811161055c5760051b60200190565b6001600160a01b038116036103d757565b9080601f830112156103d75781356105a081610561565b926105ae604051948561053b565b81845260208085019260051b8201019283116103d757602001905b8282106105d65750505090565b6020809183356105e581610578565b8152019101906105c9565b9080601f830112156103d757813561060781610561565b92610615604051948561053b565b81845260208085019260051b8201019283116103d757602001905b82821061063d5750505090565b8135815260209182019101610630565b6001600160401b03811161055c57601f01601f191660200190565b9291926106748261064d565b91610682604051938461053b565b8294818452818301116103d7578281602093845f960137010152565b9080601f830112156103d75781602061043293359101610668565b9080601f830112156103d75781356106d081610561565b926106de604051948561053b565b81845260208085019260051b820101918383116103d75760208201905b83821061070a57505050505090565b81356001600160401b0381116103d75760209161072c8784809488010161069e565b8152019101906106fb565b346103d75760a03660031901126103d7576004356001600160401b0381116103d757610767903690600401610589565b6024356001600160401b0381116103d7576107869036906004016105f0565b6044356001600160401b0381116103d7576107a59036906004016106b9565b91606435916001600160401b0383116103d757610495936107cd6107d794369060040161069e565b9160843593611db9565b6040519081529081906020820190565b346103d75760203660031901126103d7576020610805600435611efa565b6040516001600160a01b039091168152f35b346103d75760803660031901126103d757610833600435610578565b61083e602435610578565b6064356001600160401b0381116103d75761085d90369060040161069e565b50604051630a85bd0160e11b8152602090f35b60806003198201126103d7576004356001600160401b0381116103d7578161089a91600401610589565b916024356001600160401b0381116103d757826108b9916004016105f0565b91604435906001600160401b0382116103d7576108d8916004016106b9565b9060643590565b346103d7576109016108fc6108f336610870565b92919091612393565b612635565b50634844252360e11b5f5260045ffd5b61092961091d36610870565b81838594969395612393565b916020916109386030856126f5565b5061095861094585611ee0565b805460ff60f01b1916600160f01b179055565b5f925b50906104959461096a926127cd565b806109cb575b6109b6575b6040518181527f712ae1383f79ac853f8d882153778e0260ef8f03b504e2866e0593e04d2b291f9080602081015b0390a16040519081529081906020820190565b5f5f516020613f185f395f51905f5255610975565b505f516020613f185f395f51905f52546001600160801b03811660809190911c1415610970565b1590565b8351811015610a565760019030610a2c610a20610a138489611f34565b516001600160a01b031690565b6001600160a01b031690565b14610a38575b016109f6565b610a51610a458288611f34565b51898151910120612733565b610a32565b5093945092919061049561095b565b346103d75760203660031901126103d75760206103f5600435611f4d565b346103d7575f3660031901126103d75760206040517f3e83946653575f9a39005e1545185629e92736b7528ab20ca3816f315424a8118152f35b346103d7575f3660031901126103d757602065ffffffffffff5f516020613e185f395f51905f525416604051908152f35b634e487b7160e01b5f52602160045260245ffd5b6008811015610b1057602452565b610aee565b346103d75760203660031901126103d757610b31600435611f73565b6040516008821015610b10576020918152f35b346103d75760403660031901126103d757602060ff610b99602435600435610b6b82610578565b5f525f516020613ef85f395f51905f528452600360405f20019060018060a01b03165f5260205260405f2090565b54166040519015158152f35b346103d757610bb336610870565b90610bc2828285879697612393565b610bcb81612675565b506001600160a01b0390610bde90611efa565b163303610c515761049593610bf293612393565b610bfd603b826126f5565b50610c1f610c0a82611ee0565b80546001600160f81b0316600160f81b179055565b6040518181527f789cf55be980739dad1d0699b93b58e806b51c9d96619bfa8fe0a28abaa7b30c9080602081016109a3565b63233d98e360e01b5f523360045260245ffd5b346103d7575f3660031901126103d757610495604051610c8560408261053b565b601d81527f6d6f64653d626c6f636b6e756d6265722666726f6d3d64656661756c7400000060208201526040519182916020835260208301906103fd565b60403660031901126103d757600435610cdb81610578565b6024356001600160401b0381116103d757610cfa90369060040161069e565b906001600160a01b037f000000000000000000000000000000000000000000000000000000000000000016308114908115610dfa575b50610deb57610d3d612dda565b6040516352d1902d60e01b8152916020836004816001600160a01b0386165afa5f9381610dba575b50610d8757634c9c8ce360e01b5f526001600160a01b03821660045260245b5ffd5b905f516020613ed85f395f51905f528303610da65761001892506131cf565b632a87526960e21b5f52600483905260245ffd5b610ddd91945060203d602011610de4575b610dd5818361053b565b81019061288b565b925f610d65565b503d610dcb565b63703e46dd60e11b5f5260045ffd5b5f516020613ed85f395f51905f52546001600160a01b0316141590505f610d30565b346103d7575f3660031901126103d7577f00000000000000000000000000000000000000000000000000000000000000006001600160a01b03163003610deb5760206040515f516020613ed85f395f51905f528152f35b346103d75760203660031901126103d7576004355f525f516020613ef85f395f51905f52602052606060405f20805490600260018201549101549060405192835260208301526040820152f35b346103d7575f3660031901126103d757610495610edb612050565b6040519182916020835260208301906103fd565b60ff8116036103d757565b346103d75760403660031901126103d75760206103f5600435602435610f1f81610eef565b60405191610f2d858461053b565b5f8352339061289a565b346103d7575f3660031901126103d75760206103f5436128b7565b9181601f840112156103d7578235916001600160401b0383116103d757602083818601950101116103d757565b346103d75760c03660031901126103d757602435600435610f9f82610eef565b60443590610fac82610578565b6064356001600160401b0381116103d757610fcb903690600401610f52565b6084356001600160401b0381116103d757610fea90369060040161069e565b9160a435946001600160401b0386116103d757610495966110126107d797369060040161069e565b9561206f565b346103d75760803660031901126103d75760243560043561103882610eef565b6044356001600160401b0381116103d757611057903690600401610f52565b9091606435936001600160401b0385116103d75761108b6107d79461108361049597369060040161069e565b943691610668565b913390612bde565b346103d7575f3660031901126103d7576110ab612dda565b5f516020613f985f395f51905f5280546001600160a01b03199081169091555f516020613e585f395f51905f52805491821690555f906001600160a01b03167f8be0079c531659141344cd1fd0a4f28419497f9722a3daafe3b4186f6b6457e08280a3005b346103d75760203660031901126103d75760043565ffffffffffff811681036103d7576100189061113f612e65565b612e81565b346103d7575f3660031901126103d7575f516020613f985f395f51905f5254336001600160a01b039091160361117d5761001833612dfa565b63118cdaa760e01b5f523360045260245ffd5b346103d75760603660031901126103d7576024356004356111b082610eef565b604435906001600160401b0382116103d7576020926111e06111d96103f5943690600401610f52565b3691610668565b91339061289a565b346103d75760803660031901126103d7576004356001600160401b0381116103d757611218903690600401610589565b6024356001600160401b0381116103d7576112379036906004016105f0565b906044356001600160401b0381116103d7576112579036906004016106b9565b90606435916001600160401b0383116103d7576104959361127f6107d794369060040161069e565b92612147565b346103d75760203660031901126103d7576004356112a281610578565b60018060a01b03165f527f5ab42ced628888259c08ac98db1eb0cf702fc1501344311d8b100cd1bfe4bb00602052602060405f2054604051908152f35b90602080835192838152019201905f5b8181106112fc5750505090565b82518452602093840193909201916001016112ef565b916113479061133961043297959693600f60f81b865260e0602087015260e08601906103fd565b9084820360408601526103fd565b60608301949094526001600160a01b031660808201525f60a082015280830360c0909101526112df565b346103d7575f3660031901126103d7575f516020613e985f395f51905f52541580611405575b156113c8576113a4611bef565b6113ac611cbe565b906104956113b8612217565b6040519384933091469186611312565b60405162461bcd60e51b81526020600482015260156024820152741152540dcc4c8e88155b9a5b9a5d1a585b1a5e9959605a1b6044820152606490fd5b505f516020613f785f395f51905f525415611397565b346103d7575f3660031901126103d7575f516020613e585f395f51905f52546040516001600160a01b039091168152602090f35b346103d75760803660031901126103d75760243560043561146f82610eef565b6044359161147c83610578565b6064356001600160401b0381116103d7576109f26114a161151792369060040161069e565b6115116114ad876129de565b60405160208101917ff2aad550cf55f045cb27e9c559f9889fdfb6e6cdaa032301d6ea397784ae51d7835288604083015260ff8816606083015260018060a01b038a16608083015260a082015260a0815261150960c08261053b565b519020612a1f565b86612aa1565b61153257906107d7916104959361152c6115f4565b9261289a565b6394ab6c0760e01b5f526001600160a01b03831660045260245ffd5b346103d7575f3660031901126103d757602060405165ffffffffffff43168152f35b346103d75760603660031901126103d75760043561158d81610578565b6044356024356001600160401b0382116103d7576020926115b56103f593369060040161069e565b50612f9d565b346103d75760203660031901126103d75760206040515f8152f35b346103d75760203660031901126103d75760206103f5600435612232565b6040519061160360208361053b565b5f8252565b346103d7575f3660031901126103d75761049560405161162960408261053b565b60058152640352e302e360dc1b60208201526040519182916020835260208301906103fd565b346103d7575f3660031901126103d75760205f516020613eb85f395f51905f5254604051908152f35b346103d75760203660031901126103d75760206103f560043561169a81610578565b4390612f9d565b346103d75760a03660031901126103d7576116bd600435610578565b6116c8602435610578565b6044356001600160401b0381116103d7576116e79036906004016105f0565b506064356001600160401b0381116103d7576117079036906004016105f0565b506084356001600160401b0381116103d75761172790369060040161069e565b5060405163bc197c8160e01b8152602090f35b346103d75760203660031901126103d75760206103f560043561226c565b60603660031901126103d75760043561177081610578565b6024356044356001600160401b0381116103d757610018925f9261179984933690600401610f52565b91906117a3612e65565b826040519384928337810185815203925af16117bd6122d0565b9061307c565b346103d75760206103f56108f336610870565b63ffffffff8116036103d757565b346103d75760403660031901126103d75760043561180181610578565b6024359061180e826117d6565b5f516020613f585f395f51905f5254916001600160401b0361183f60ff604086901c1615946001600160401b031690565b1680159081611932575b6001149081611928575b15908161191f575b506119105761189e918361189560016001600160401b03195f516020613f585f395f51905f525416175f516020613f585f395f51905f5255565b6118ec576123fa565b6118a457005b5f516020613f585f395f51905f52805460ff60401b19169055604051600181527fc7f505b2f371ae2175ee4913f4499e1f2633a7b5936321eed1cdaeb6115181d290602090a1005b5f516020613f585f395f51905f52805460ff60401b1916600160401b1790556123fa565b63f92ee8a960e01b5f5260045ffd5b9050155f61185b565b303b159150611853565b849150611849565b346103d7575f3660031901126103d75761049560405161195b60408261053b565b602081527f737570706f72743d627261766f2671756f72756d3d666f722c6162737461696e60208201526040519182916020835260208301906103fd565b346103d7575f3660031901126103d75760206040517ff2aad550cf55f045cb27e9c559f9889fdfb6e6cdaa032301d6ea397784ae51d78152f35b346103d7575f3660031901126103d7575f516020613f985f395f51905f52546040516001600160a01b039091168152602090f35b346103d75760203660031901126103d757610018600435611a27816117d6565b611a2f612e65565b6130ea565b346103d75760403660031901126103d75760206103f5600435611a5681610578565b602435905f604051611a68868261053b565b52612f9d565b346103d75760203660031901126103d757610018600435611a8d612e65565b613180565b346103d75760a03660031901126103d757611aae600435610578565b611ab9602435610578565b6084356001600160401b0381116103d757611ad890369060040161069e565b5060405163f23a6e6160e01b8152602090f35b346103d75760203660031901126103d757600435611b0881610578565b611b10612dda565b5f516020613f985f395f51905f5280546001600160a01b0319166001600160a01b039283169081179091555f516020613e585f395f51905f52549091167f38d16b8cac22d99fc7c124b9cd0de2d3fa1faef420bfe791d8c362d765e227005f80a3005b346103d75760203660031901126103d75760206103f56004356125e6565b5f5c611bb25763ffffffff5f516020613e185f395f51905f525460301c1690565b5f5c90565b90600182811c92168015611be5575b6020831014611bd157565b634e487b7160e01b5f52602260045260245ffd5b91607f1691611bc6565b604051905f825f516020613e385f395f51905f525491611c0e83611bb7565b8083529260018116908115611c9f5750600114611c34575b611c329250038361053b565b565b505f516020613e385f395f51905f525f90815290917f42ad5d3e1f2e6e70edcf6d991b8a3023d3fca8047a131592f9edb9fd9b89d57d5b818310611c83575050906020611c3292820101611c26565b6020919350806001915483858901015201910190918492611c6b565b60209250611c3294915060ff191682840152151560051b820101611c26565b604051905f825f516020613e785f395f51905f525491611cdd83611bb7565b8083529260018116908115611c9f5750600114611d0057611c329250038361053b565b505f516020613e785f395f51905f525f90815290917f5f9ce34815f8e11431c7bb75a8e6886a91478f7ffc1dbb0a98dc240fddd76b755b818310611d4f575050906020611c3292820101611c26565b6020919350806001915483858901015201910190918492611d37565b908160209103126103d7575161043281610578565b6040513d5f823e3d90fd5b908160209103126103d7575180151581036103d75790565b15611daa57565b6367336db360e11b5f5260045ffd5b604051631808461160e11b81523360048201526001600160a01b037f0000000000000000000000000000000000000000000000000000000000000000169594939291906020816024818a5afa8015611e9b57611e47976020925f92611ea0575b506040516310ab556b60e21b81526001600160a01b0390921660048301529097889190829081906024820190565b03915afa958615611e9b5761043296611e67915f91611e6c575b50611da3565b611ecf565b611e8e915060203d602011611e94575b611e86818361053b565b810190611d8b565b5f611e61565b503d611e7c565b611d80565b611ec1919250833d8511611ec8575b611eb9818361053b565b810190611d6b565b905f611e19565b503d611eaf565b611eda945f5d612147565b5f805d90565b5f525f516020613df85f395f51905f5260205260405f2090565b5f9081525f516020613df85f395f51905f5260205260409020546001600160a01b031690565b634e487b7160e01b5f52603260045260245ffd5b8051821015611f485760209160051b010190565b611f20565b5f525f516020613df85f395f51905f5260205265ffffffffffff60405f205460a01c1690565b611f7c81611ee0565b5460f881901c9060f01c60ff166120495761204357611f9a81611f4d565b801561202f574365ffffffffffff168091101561202957611fba8261226c565b10611fc55750600190565b611fd16109f28261283b565b8015611ffa575b15611fe35750600390565b611fec90612232565b611ff557600490565b600590565b506120246109f2825f525f516020613ef85f395f51905f5260205260405f20600181015490541090565b611fd8565b50505f90565b636ad0607560e01b5f52600482905260245ffd5b50600290565b5050600790565b6040519061205f60408361053b565b60018252603160f81b6020830152565b9390929196956109f26121109161210a8a612089816129de565b61209436888a610668565b602081519101208b5160208d0120906040519260208401947f3e83946653575f9a39005e1545185629e92736b7528ab20ca3816f315424a81186528d604086015260ff8d16606086015260018060a01b0316608085015260a084015260c083015260e082015260e081526115096101008261053b565b8a612aa1565b61212b57610432959691612125913691610668565b92612bde565b6394ab6c0760e01b5f526001600160a01b03871660045260245ffd5b604051631808461160e11b81523360048201526001600160a01b037f0000000000000000000000000000000000000000000000000000000000000000169493929190602081602481895afa8015611e9b576121d4966020925f926121f8575b506040516310ab556b60e21b81526001600160a01b0390921660048301529096879190829081906024820190565b03915afa948515611e9b57610432956121f3915f91611e6c5750611da3565b612ef5565b612210919250833d8511611ec857611eb9818361053b565b905f6121a6565b6040519061222660208361053b565b5f808352366020840137565b5f525f516020613df85f395f51905f5260205265ffffffffffff600160405f2001541690565b634e487b7160e01b5f52601160045260245ffd5b805f525f516020613df85f395f51905f5260205265ffffffffffff60405f205460a01c16905f525f516020613df85f395f51905f5260205263ffffffff60405f205460d01c160165ffffffffffff81116122cb5765ffffffffffff1690565b612258565b3d156122fa573d906122e18261064d565b916122ef604051938461053b565b82523d5f602084013e565b606090565b90602080835192838152019201905f5b81811061231c5750505090565b82516001600160a01b031684526020938401939092019160010161230f565b9080602083519182815201916020808360051b8301019401925f915b83831061236657505050505090565b9091929394602080612384600193601f1986820301875289516103fd565b97019301930191939290612357565b92906123f4916123e06123ce946040519586946123bc602087019960808b5260a08801906122ff565b868103601f19016040880152906112df565b848103601f190160608601529061233b565b90608083015203601f19810183528261053b565b51902090565b9190916040519261240c60408561053b565b601084526f466c75656e74476f7665726e616e636560801b602085015261243161385f565b612439612050565b9361244261385f565b8051946001600160401b03861161055c576124738661246e5f516020613e385f395f51905f5254611bb7565b61388a565b602095601f811160011461252157916124c56124f4926124b18561250197966125069a9b5f91612516575b508160011b915f199060031b1c19161790565b5f516020613e385f395f51905f5255613991565b6124da5f5f516020613e985f395f51905f5255565b6124ef5f5f516020613f785f395f51905f5255565b613ab0565b6124fc61385f565b613089565b6130af565b61250e61385f565b611c3261385f565b90508501515f61249e565b5f516020613e385f395f51905f525f52601f1981167f42ad5d3e1f2e6e70edcf6d991b8a3023d3fca8047a131592f9edb9fd9b89d57d905f5b8181106125b05750926001836124c5936125069a9b6125019998966124f49810612598575b5050811b015f516020613e385f395f51905f5255613991565b8601515f1960f88460031b161c191690555f8061257f565b858a015183556020998a01996001909301920161255a565b81156125d2570490565b634e487b7160e01b5f52601260045260245ffd5b6125ef906128b7565b8060011b90808204600214901517156122cb576003900490565b6008811015610b105760ff600191161b90565b600452606491906008811015610b10576024525f604452565b61263e81611f73565b90601061264a83612609565b1615612654575090565b6331b75e4d60e01b5f5260045261266b9150610b02565b601060445260645ffd5b61267e81611f73565b90600161268a83612609565b1615612694575090565b6331b75e4d60e01b5f526004526126ab9150610b02565b600160445260645ffd5b6126be81611f73565b9060026126ca83612609565b16156126d4575090565b6331b75e4d60e01b5f526004526126eb9150610b02565b600260445260645ffd5b906126ff82611f73565b918161270a84612609565b161561271557505090565b6331b75e4d60e01b5f5260045261272b82610b02565b60445260645ffd5b5f516020613f185f395f51905f52546001608082901c90810192916001600160801b038085169116146127be575f9081527f7c712897014dbe49c045ef1299aa2d5f9e67e48eea4403efa21f1e0f3ac0cb0360205260409020555f516020613f185f395f51905f5280546001600160801b031660809290921b6001600160801b031916919091179055565b638acb5f2760e01b5f5260045ffd5b9291925f5b8151811015612827576001906128205f806001600160a01b036127f58588611f34565b51166128018589611f34565b519061280d868c611f34565b5191602083519301915af16117bd6122d0565b50016127d2565b5050509050565b919082018092116122cb57565b805f525f516020613ef85f395f51905f5260205261286461285f60405f2092611f4d565b6125e6565b6002600183015492015482018092116122cb57111590565b6027198101919082116122cb57565b908160209103126103d7575190565b916104329391604051936128af60208661053b565b5f8552612bde565b60405163b7ab4db560e01b81525f92919083816004817f00000000000000000000000000000000000000000000000000000000000000006001600160a01b03165afa908115611e9b575f91612944575b505f935b815185101561293e576129366001916129308561292b610a138a88611f34565b613328565b9061282e565b94019361290b565b93505050565b90503d805f833e612955818361053b565b8101906020818303126103d7578051906001600160401b0382116103d757019080601f830112156103d757815161298b81610561565b92612999604051948561053b565b81845260208085019260051b8201019283116103d757602001905b8282106129c4575050505f612907565b6020809183516129d381610578565b8152019101906129b4565b6001600160a01b03165f9081527f5ab42ced628888259c08ac98db1eb0cf702fc1501344311d8b100cd1bfe4bb006020526040902080546001810190915590565b604290612a2a613d6e565b612a32613dc5565b6040519060208201927f8b73c3c69bb8fe3d512ecc4cf759cc79239f7b179b0ffacaa9a75d522b39400f8452604083015260608201524660808201523060a082015260a08152612a8360c08261053b565b519020906040519161190160f01b8352600283015260228201522090565b90612aac8382613479565b506004819592951015610b1057159384612b68575b508315612acf575b50505090565b5f935090612b07612b158594936040519283916020830195630b135d3f60e11b875260248401526040604484015260648301906103fd565b03601f19810183528261053b565b51915afa612b216122d0565b81612b5a575b81612b36575b505f8080612ac9565b9050612b53630b135d3f60e11b916020808251830101910161288b565b145f612b2d565b905060208151101590612b27565b6001600160a01b0384811691161493505f612ac1565b93909260ff612baa9361043297958752166020860152604085015260a0606085015260a08401906103fd565b9160808184039101526103fd565b909260ff60809361043296958452166020830152604082015281606082015201906103fd565b92919092612beb816126b5565b50612bfe612bf882611f4d565b85612f9d565b604051631808461160e11b81526001600160a01b039586166004820181905291969195602090829060249082907f0000000000000000000000000000000000000000000000000000000000000000165afa908115611e9b575f91612dbb575b50612c7c835f525f516020613ef85f395f51905f5260205260405f2090565b9060038201612ca5612c9e83839060018060a01b03165f5260205260405f2090565b5460ff1690565b612d9f57612cd391612cc6919060018060a01b03165f5260205260405f2090565b805460ff19166001179055565b60ff841680612d5d5750612ce887825461282e565b90555b8051612d2a5750612d247fb8e138887d0aa13bab447e82de9d5c1777041ecd21ca36ba824ff1e6c07ddda4938660405194859485612bb8565b0390a290565b612d24907fe2babfbac5889a709b63bb7f598b324e08bc5a4fb9ec647fb3cbc9ec07eb8712948760405195869586612b7e565b60018103612d7b5750600101612d7487825461282e565b9055612ceb565b600203612d9057600201612d7487825461282e565b6303599be160e11b5f5260045ffd5b6371c6af4960e01b5f526001600160a01b03821660045260245ffd5b612dd4915060203d602011611ec857611eb9818361053b565b5f612c5d565b5f516020613e585f395f51905f52546001600160a01b0316330361117d57565b5f516020613f985f395f51905f5280546001600160a01b03199081169091555f516020613e585f395f51905f5280549182166001600160a01b0393841690811790915591167f8be0079c531659141344cd1fd0a4f28419497f9722a3daafe3b4186f6b6457e05f80a3565b333003612e6e57565b6347096e4760e01b5f523360045260245ffd5b7fc565b045403dc03c2eea82b81a0465edad9e2e7fc4d97e11421c209da93d7a93604065ffffffffffff805f516020613e185f395f51905f5254169382519485521692836020820152a165ffffffffffff195f516020613e185f395f51905f525416175f516020613e185f395f51905f5255565b9193929093612f0482336134c4565b15612f8a575f1965ffffffffffff43160165ffffffffffff81116122cb5765ffffffffffff612f44915f604051612f3c60208261053b565b521633612f9d565b945f516020613eb85f395f51905f525495868110612f6a57506104329495503393613690565b636121770b60e11b5f908152336004526024919091526044879052606490fd5b63d9b3955760e01b5f523360045260245ffd5b604051631808461160e11b81526001600160a01b03918216600482015291907f000000000000000000000000000000000000000000000000000000000000000016602083602481845afa928315611e9b575f9361305b575b506040516310ab556b60e21b81526001600160a01b038416600482015290602090829060249082905afa908115611e9b575f9161303c575b50156120295761043291613328565b613055915060203d602011611e9457611e86818361053b565b5f61302d565b61307591935060203d602011611ec857611eb9818361053b565b915f612ff5565b909190611c325750613841565b6130a69061309561385f565b61309d61385f565b611a2f5f612e81565b611c325f613180565b6130b761385f565b6130bf61385f565b6001600160a01b038116156130d757611c3290612dfa565b631e4fbdf760e01b5f525f60045260245ffd5b63ffffffff811690811561316d577f7e3f7f0708a84de9203036abaa450dccc85ad5ff52f78c170f3edb55cf5e882860405f516020613e185f395f51905f52549381519063ffffffff8660301c1682526020820152a163ffffffff60301b1990911660309190911b63ffffffff60301b16175f516020613e185f395f51905f5255565b63f1cfbf0560e01b5f525f60045260245ffd5b7fccb45da8d5717e6c4544694297c4ba5cf151d455c9bb0ed4fc7a38411bc0546160405f516020613eb85f395f51905f52548151908152836020820152a15f516020613eb85f395f51905f5255565b90813b15613250575f516020613ed85f395f51905f5280546001600160a01b0319166001600160a01b0384169081179091557fbc7cd75a20ee27fd9adebab32041f755214dbc6bffa90cc0225b39da2e5c2d3b5f80a28051156132385761323591613bbd565b50565b50503461324157565b63b398979f60e01b5f5260045ffd5b50634c9c8ce360e01b5f9081526001600160a01b0391909116600452602490fd5b908160209103126103d75751610432816117d6565b51906001600160401b03821682036103d757565b90816101209103126103d75780516132b181610578565b9160208201516132c081610eef565b9160408101519160608201516132d5816117d6565b916132e260808201613286565b916132ef60a08301613286565b916132fc60c08201613286565b9160e082015161ffff811681036103d75761010092909201516001600160601b03811681036103d75790565b60405163068d921560e31b815291906020836004817f00000000000000000000000000000000000000000000000000000000000000006001600160a01b03165afa928315611e9b576133936101209363ffffffff6133d69661339f945f9161344a575b5016906125c8565b6001600160401b031690565b604051632409269360e11b81526001600160a01b0390921660048301526001600160401b0316602482015291829081906044820190565b03817f00000000000000000000000000000000000000000000000000000000000000006001600160a01b03165afa908115611e9b575f91613415575090565b61343791506101203d8111613443575b61342f818361053b565b81019061329a565b50505050505091505090565b503d613425565b61346c915060203d602011613472575b613464818361053b565b810190613271565b5f61338b565b503d61345a565b81519190604183036134a9576134a29250602082015190606060408401519301515f1a90613bda565b9192909190565b50505f9160029190565b908151811015611f48570160200190565b8151603481106135735760131981840101516001600160a01b0319166b1b91f1b211f2119351b859f160a31b0161357357915f926135018161287c565b915b81831061351e575050506001600160a01b0391821691161490565b90919361354461353f61353187856134b3565b516001600160f81b03191690565b613c52565b90156135685760019160ff9060041b6010600160a01b031691161794019190613503565b505050505050600190565b505050600190565b9061358582610561565b613592604051918261053b565b82815280926135a3601f1991610561565b01905f5b8281106135b357505050565b8060606020809385010152016135a7565b959998969794939192613605936135f792885260018060a01b0316602088015261012060408801526101208701906122ff565b9085820360608701526112df565b968388036080850152815180895260208901906020808260051b8c01019401915f905b82821061366457505050506104329697509061364b9184820360a086015261233b565b9360c083015260e08201526101008184039101526103fd565b909192946020806136826001938f601f1990820301865289516103fd565b970192019201909291613628565b9290949391946136a882516020840120878387612393565b958451825190818114801590613836575b801561382e575b61380f57505065ffffffffffff6136e86136d989611ee0565b5460a01c65ffffffffffff1690565b166137f257916137ed917f7d84a6263ae0d98d3329bd7b46bb4e8d6f98cd35a7adb45c274c8b7fd5ebd5e095949361374461373665ffffffffffff5f516020613e185f395f51905f52541690565b65ffffffffffff431661282e565b9061374d611b91565b6137cb6137598c611ee0565b80546001600160a01b0319166001600160a01b038a161781556137a261377e86613ccf565b825465ffffffffffff60a01b191660a09190911b65ffffffffffff60a01b16178255565b6137ab83613cfe565b815463ffffffff60d01b191660d09190911b63ffffffff60d01b16179055565b6137df6137d8895161357b565b918461282e565b936040519889988d8a6135c4565b0390a1565b610d84876137ff81611f73565b6331b75e4d60e01b5f529061261c565b9151630447b05d60e41b5f908152600493909352602452604452606490fd5b5080156136c0565b5082518114156136b9565b80511561385057805190602001fd5b630a12f52160e11b5f5260045ffd5b60ff5f516020613f585f395f51905f525460401c161561387b57565b631afcd79f60e31b5f5260045ffd5b601f8111613896575050565b5f516020613e385f395f51905f525f5260205f20906020601f840160051c830193106138dc575b601f0160051c01905b8181106138d1575050565b5f81556001016138c6565b90915081906138bd565b601f81116138f2575050565b5f516020613f385f395f51905f525f5260205f20906020601f840160051c83019310613938575b601f0160051c01905b81811061392d575050565b5f8155600101613922565b9091508190613919565b601f821161394f57505050565b5f5260205f20906020601f840160051c83019310613987575b601f0160051c01905b81811061397c575050565b5f8155600101613971565b9091508190613968565b9081516001600160401b03811161055c576139d0816139bd5f516020613e785f395f51905f5254611bb7565b5f516020613e785f395f51905f52613942565b602092601f8211600114613a1c57613a00929382915f92613a11575b50508160011b915f199060031b1c19161790565b5f516020613e785f395f51905f5255565b015190505f806139ec565b5f516020613e785f395f51905f525f52601f198216937f5f9ce34815f8e11431c7bb75a8e6886a91478f7ffc1dbb0a98dc240fddd76b75915f5b868110613a985750836001959610613a80575b505050811b015f516020613e785f395f51905f5255565b01515f1960f88460031b161c191690555f8080613a69565b91926020600181928685015181550194019201613a56565b90613ab961385f565b81516001600160401b03811161055c57613ae981613ae45f516020613f385f395f51905f5254611bb7565b6138e6565b602092601f8211600114613b2957613b18929382915f92613a115750508160011b915f199060031b1c19161790565b5f516020613f385f395f51905f5255565b5f516020613f385f395f51905f525f52601f198216937fda13dda7583a39a3cd73e8830529c760837228fa4683752c823b17e10548aad5915f5b868110613ba55750836001959610613b8d575b505050811b015f516020613f385f395f51905f5255565b01515f1960f88460031b161c191690555f8080613b76565b91926020600181928685015181550194019201613b63565b5f8061043293602081519101845af4613bd46122d0565b91613d29565b91906fa2a8918ca85bafe22016d0b997e4df60600160ff1b038411613c47579160209360809260ff5f9560405194855216868401526040830152606082015282805260015afa15611e9b575f516001600160a01b03811615613c3d57905f905f90565b505f906001905f90565b5050505f9160039190565b60f81c9081602f1080613cc5575b15613c7257600191602f190160ff1690565b8160401080613cbb575b15613c8e576001916036190160ff1690565b8160601080613cb1575b15613caa576001916056190160ff1690565b5f91508190565b5060678210613c98565b5060478210613c7c565b50603a8210613c60565b65ffffffffffff8111613ce75765ffffffffffff1690565b6306dfcc6560e41b5f52603060045260245260445ffd5b63ffffffff8111613d125763ffffffff1690565b6306dfcc6560e41b5f52602060045260245260445ffd5b90613d345750613841565b81511580613d65575b613d45575090565b639996b31560e01b5f9081526001600160a01b0391909116600452602490fd5b50803b15613d3d565b613d76611bef565b8051908115613d86576020012090565b50505f516020613e985f395f51905f52548015613da05790565b507fc5d2460186f7233c927e7db2dcc703c0e500b653ca82273b7bfad8045d85a47090565b613dcd611cbe565b8051908115613ddd576020012090565b50505f516020613f785f395f51905f52548015613da0579056fe7c712897014dbe49c045ef1299aa2d5f9e67e48eea4403efa21f1e0f3ac0cb0100d7616c8fe29c6c2fbe1d0c5bc8f2faa4c35b43746e70b24b4d532752affd01a16a46d94261c7517cc8ff89f61c0ce93598e3c849801011dee649a6a557d1029016d09d72d40fdae2fd8ceac6b6234c7706214fd39c1cd1e609a0528c199300a16a46d94261c7517cc8ff89f61c0ce93598e3c849801011dee649a6a557d103a16a46d94261c7517cc8ff89f61c0ce93598e3c849801011dee649a6a557d10000d7616c8fe29c6c2fbe1d0c5bc8f2faa4c35b43746e70b24b4d532752affd00360894a13ba1a3210667c828492db98dca3e2076cc3735a920a3ca505d382bbca1cefa0f43667ef127a258e673c94202a79b656e62899531c4376d87a7f398007c712897014dbe49c045ef1299aa2d5f9e67e48eea4403efa21f1e0f3ac0cb027c712897014dbe49c045ef1299aa2d5f9e67e48eea4403efa21f1e0f3ac0cb00f0c57e16840df040f15088dc2f81fe391c3923bec73e23a9662efc9c229c6a00a16a46d94261c7517cc8ff89f61c0ce93598e3c849801011dee649a6a557d101237e158222e3e6968b72b9db0d8043aacf074ad9f650f0d1606b4d82ee432c00a264697066735822122041aea0d54095e4a4ccd95bcda7815e4b9de2732c4e04da1509af4bea95f8357364736f6c634300081e0033f0c57e16840df040f15088dc2f81fe391c3923bec73e23a9662efc9c229c6a00","linkReferences":{}},"methodIdentifiers":{"BALLOT_TYPEHASH()":"deaaa7cc","CLOCK_MODE()":"4bf5d7e9","COUNTING_MODE()":"dd4e2ba5","EXTENDED_BALLOT_TYPEHASH()":"2fe3e261","UPGRADE_INTERFACE_VERSION()":"ad3cb1cc","acceptOwnership()":"79ba5097","cancel(address[],uint256[],bytes[],bytes32)":"452115d6","castVote(uint256,uint8)":"56781388","castVoteBySig(uint256,uint8,address,bytes)":"8ff262e3","castVoteWithReason(uint256,uint8,string)":"7b3c71d3","castVoteWithReasonAndParams(uint256,uint8,string,bytes)":"5f398a14","castVoteWithReasonAndParamsBySig(uint256,uint8,address,string,bytes,bytes)":"5b8d0e0d","clock()":"91ddadf4","eip712Domain()":"84b0196e","execute(address[],uint256[],bytes[],bytes32)":"2656227d","getVotes(address,uint256)":"eb9019d4","getVotesWithParams(address,uint256,bytes)":"9a802a6d","getVotingPower(address)":"bb4d4436","getVotingSupply()":"59fe2ccf","hasVoted(uint256,address)":"43859632","hashProposal(address[],uint256[],bytes[],bytes32)":"c59057e4","initialize(address,uint32)":"c5e4c9f9","name()":"06fdde03","nonces(address)":"7ecebe00","onERC1155BatchReceived(address,address,uint256[],uint256[],bytes)":"bc197c81","onERC1155Received(address,address,uint256,uint256,bytes)":"f23a6e61","onERC721Received(address,address,uint256,bytes)":"150b7a02","owner()":"8da5cb5b","pendingOwner()":"e30c3978","proposalDeadline(uint256)":"c01f9e37","proposalEta(uint256)":"ab58fb8e","proposalNeedsQueuing(uint256)":"a9a95294","proposalProposer(uint256)":"143489d0","proposalSnapshot(uint256)":"2d63f693","proposalThreshold()":"b58131b0","proposalVotes(uint256)":"544ffc9c","propose(address[],uint256[],bytes[],string)":"7d5e81e2","proposeWithCustomVotingPeriod(address[],uint256[],bytes[],string,uint256)":"0eb448fa","proxiableUUID()":"52d1902d","queue(address[],uint256[],bytes[],bytes32)":"160cbed7","quorum(uint256)":"f8ce560a","relay(address,uint256,bytes)":"c28bc2fa","renounceOwnership()":"715018a6","setProposalThreshold(uint256)":"ece40cc1","setVotingDelay(uint48)":"79051887","setVotingPeriod(uint32)":"e540d01d","state(uint256)":"3e4f49e6","supportsInterface(bytes4)":"01ffc9a7","transferOwnership(address)":"f2fde38b","upgradeToAndCall(address,bytes)":"4f1ef286","version()":"54fd4d50","votingDelay()":"3932abb1","votingPeriod()":"02a251a3"},"storageLayout":{"storage":[],"types":{}},"id":0}