{"abi":[{"type":"constructor","inputs":[{"name":"stakingContract","type":"address","internalType":"contract IStaking"},{"name":"systemRewardContract","type":"address","internalType":"contract ISystemReward"},{"name":"stakingPoolContract","type":"address","internalType":"contract IStakingPool"},{"name":"governanceContract","type":"address","internalType":"contract IFluentGovernance"},{"name":"chainConfigContract","type":"address","internalType":"contract IChainConfig"},{"name":"stakingToken","type":"address","internalType":"contract IERC20"}],"stateMutability":"nonpayable"},{"type":"function","name":"UPGRADE_INTERFACE_VERSION","inputs":[],"outputs":[{"name":"","type":"string","internalType":"string"}],"stateMutability":"view"},{"type":"function","name":"acceptOwnership","inputs":[],"outputs":[],"stateMutability":"nonpayable"},{"type":"function","name":"getChainConfig","inputs":[],"outputs":[{"name":"","type":"address","internalType":"contract IChainConfig"}],"stateMutability":"view"},{"type":"function","name":"getGovernance","inputs":[],"outputs":[{"name":"","type":"address","internalType":"contract IFluentGovernance"}],"stateMutability":"view"},{"type":"function","name":"getStaking","inputs":[],"outputs":[{"name":"","type":"address","internalType":"contract IStaking"}],"stateMutability":"view"},{"type":"function","name":"getStakingPool","inputs":[],"outputs":[{"name":"","type":"address","internalType":"contract IStakingPool"}],"stateMutability":"view"},{"type":"function","name":"getStakingToken","inputs":[],"outputs":[{"name":"","type":"address","internalType":"contract IERC20"}],"stateMutability":"view"},{"type":"function","name":"getSystemReward","inputs":[],"outputs":[{"name":"","type":"address","internalType":"contract ISystemReward"}],"stateMutability":"view"},{"type":"function","name":"initialize","inputs":[{"name":"initialOwner","type":"address","internalType":"address"}],"outputs":[],"stateMutability":"nonpayable"},{"type":"function","name":"lastProcessedBlock","inputs":[],"outputs":[{"name":"","type":"uint64","internalType":"uint64"}],"stateMutability":"view"},{"type":"function","name":"missCount","inputs":[{"name":"epoch","type":"uint64","internalType":"uint64"},{"name":"signerIdx","type":"uint32","internalType":"uint32"}],"outputs":[{"name":"","type":"uint32","internalType":"uint32"}],"stateMutability":"view"},{"type":"function","name":"owner","inputs":[],"outputs":[{"name":"","type":"address","internalType":"address"}],"stateMutability":"view"},{"type":"function","name":"pendingOwner","inputs":[],"outputs":[{"name":"","type":"address","internalType":"address"}],"stateMutability":"view"},{"type":"function","name":"processBitmap","inputs":[{"name":"epoch","type":"uint64","internalType":"uint64"},{"name":"blockNumber","type":"uint64","internalType":"uint64"},{"name":"committeeSize","type":"uint8","internalType":"uint8"},{"name":"signersBitmap","type":"bytes","internalType":"bytes"}],"outputs":[],"stateMutability":"nonpayable"},{"type":"function","name":"proxiableUUID","inputs":[],"outputs":[{"name":"","type":"bytes32","internalType":"bytes32"}],"stateMutability":"view"},{"type":"function","name":"renounceOwnership","inputs":[],"outputs":[],"stateMutability":"nonpayable"},{"type":"function","name":"transferOwnership","inputs":[{"name":"newOwner","type":"address","internalType":"address"}],"outputs":[],"stateMutability":"nonpayable"},{"type":"function","name":"upgradeToAndCall","inputs":[{"name":"newImplementation","type":"address","internalType":"address"},{"name":"data","type":"bytes","internalType":"bytes"}],"outputs":[],"stateMutability":"payable"},{"type":"event","name":"Initialized","inputs":[{"name":"version","type":"uint64","indexed":false,"internalType":"uint64"}],"anonymous":false},{"type":"event","name":"LivenessSlashDispatched","inputs":[{"name":"epoch","type":"uint64","indexed":true,"internalType":"uint64"},{"name":"signerIdx","type":"uint32","indexed":true,"internalType":"uint32"},{"name":"validator","type":"address","indexed":true,"internalType":"address"}],"anonymous":false},{"type":"event","name":"OwnershipTransferStarted","inputs":[{"name":"previousOwner","type":"address","indexed":true,"internalType":"address"},{"name":"newOwner","type":"address","indexed":true,"internalType":"address"}],"anonymous":false},{"type":"event","name":"OwnershipTransferred","inputs":[{"name":"previousOwner","type":"address","indexed":true,"internalType":"address"},{"name":"newOwner","type":"address","indexed":true,"internalType":"address"}],"anonymous":false},{"type":"event","name":"Upgraded","inputs":[{"name":"implementation","type":"address","indexed":true,"internalType":"address"}],"anonymous":false},{"type":"error","name":"AddressEmptyCode","inputs":[{"name":"target","type":"address","internalType":"address"}]},{"type":"error","name":"AlreadySlashedForEquivocation","inputs":[{"name":"validator","type":"address","internalType":"address"}]},{"type":"error","name":"AmountTooLow","inputs":[{"name":"amount","type":"uint256","internalType":"uint256"}]},{"type":"error","name":"BadCommissionRate","inputs":[{"name":"commissionRate","type":"uint16","internalType":"uint16"}]},{"type":"error","name":"BadShareDistribution","inputs":[{"name":"shareDistribution","type":"uint16","internalType":"uint16"}]},{"type":"error","name":"BeaconEpochNotMonotonic","inputs":[{"name":"epoch","type":"uint64","internalType":"uint64"},{"name":"lastCommitted","type":"uint64","internalType":"uint64"}]},{"type":"error","name":"BlsVerifierNotConfigured","inputs":[]},{"type":"error","name":"CommitteeLengthMismatch","inputs":[{"name":"expected","type":"uint256","internalType":"uint256"},{"name":"got","type":"uint256","internalType":"uint256"}]},{"type":"error","name":"CommitteeMemberKeyless","inputs":[{"name":"validator","type":"address","internalType":"address"}]},{"type":"error","name":"CommitteeMemberNotInActiveSet","inputs":[{"name":"validator","type":"address","internalType":"address"}]},{"type":"error","name":"CommitteeNotStrictlyAscending","inputs":[{"name":"validator","type":"address","internalType":"address"}]},{"type":"error","name":"ConsensusKeysAlreadySet","inputs":[{"name":"validator","type":"address","internalType":"address"}]},{"type":"error","name":"ConsensusKeysNotSet","inputs":[{"name":"validator","type":"address","internalType":"address"}]},{"type":"error","name":"DelegationQueueEmpty","inputs":[]},{"type":"error","name":"DelegationQueueNotEmpty","inputs":[{"name":"delegationQueue","type":"uint256","internalType":"uint256"}]},{"type":"error","name":"DepositIsZero","inputs":[]},{"type":"error","name":"ERC1967InvalidImplementation","inputs":[{"name":"implementation","type":"address","internalType":"address"}]},{"type":"error","name":"ERC1967NonPayable","inputs":[]},{"type":"error","name":"EpochCommitteeNotCommitted","inputs":[{"name":"epoch","type":"uint64","internalType":"uint64"}]},{"type":"error","name":"EpochIsNotReady","inputs":[{"name":"epoch","type":"uint64","internalType":"uint64"}]},{"type":"error","name":"EpochNotYetCommittable","inputs":[{"name":"target","type":"uint64","internalType":"uint64"},{"name":"currentEpoch","type":"uint64","internalType":"uint64"}]},{"type":"error","name":"EquivocationKeyMismatch","inputs":[]},{"type":"error","name":"EquivocationSignatureInvalid","inputs":[]},{"type":"error","name":"EvidenceDecoderNotConfigured","inputs":[]},{"type":"error","name":"FailedInnerCall","inputs":[]},{"type":"error","name":"InitialStakeTooLow","inputs":[{"name":"initialStake","type":"uint256","internalType":"uint256"}]},{"type":"error","name":"InsufficientBalance","inputs":[]},{"type":"error","name":"InvalidBitmapLength","inputs":[]},{"type":"error","name":"InvalidClaimEpoch","inputs":[]},{"type":"error","name":"InvalidConsensusKeyEncoding","inputs":[]},{"type":"error","name":"InvalidInitialization","inputs":[]},{"type":"error","name":"InvalidProofOfPossession","inputs":[{"name":"validator","type":"address","internalType":"address"}]},{"type":"error","name":"MalformedInitialBalance","inputs":[]},{"type":"error","name":"MalformedInputLength","inputs":[]},{"type":"error","name":"NotActiveValidator","inputs":[]},{"type":"error","name":"NotEnoughBalance","inputs":[]},{"type":"error","name":"NotEnoughShares","inputs":[{"name":"requiredShares","type":"uint256","internalType":"uint256"}]},{"type":"error","name":"NotInitializing","inputs":[]},{"type":"error","name":"NotPendingValidator","inputs":[{"name":"validator","type":"address","internalType":"address"}]},{"type":"error","name":"NothingToClaim","inputs":[]},{"type":"error","name":"NothingToUnstake","inputs":[]},{"type":"error","name":"OnlyCoinbase","inputs":[]},{"type":"error","name":"OnlyGovernance","inputs":[]},{"type":"error","name":"OnlyLivenessSlashing","inputs":[]},{"type":"error","name":"OnlyStakingContract","inputs":[]},{"type":"error","name":"OnlySystemCall","inputs":[]},{"type":"error","name":"OnlyValidatorOwner","inputs":[{"name":"validator","type":"address","internalType":"address"}]},{"type":"error","name":"OnlyZeroGasPrice","inputs":[]},{"type":"error","name":"OwnableInvalidOwner","inputs":[{"name":"owner","type":"address","internalType":"address"}]},{"type":"error","name":"OwnableUnauthorizedAccount","inputs":[{"name":"account","type":"address","internalType":"address"}]},{"type":"error","name":"OwnerCantBeZero","inputs":[]},{"type":"error","name":"OwnerSelfStakeBelowMinimum","inputs":[]},{"type":"error","name":"PeerPubkeyAlreadyInUse","inputs":[{"name":"peerPubkey","type":"bytes32","internalType":"bytes32"}]},{"type":"error","name":"PendingUndelegate","inputs":[]},{"type":"error","name":"SafeTransferFailed","inputs":[]},{"type":"error","name":"SignerIndexOutOfRange","inputs":[{"name":"epoch","type":"uint64","internalType":"uint64"},{"name":"signerIdx","type":"uint32","internalType":"uint32"},{"name":"committeeLen","type":"uint256","internalType":"uint256"}]},{"type":"error","name":"StillInJail","inputs":[{"name":"validator","type":"address","internalType":"address"}]},{"type":"error","name":"UUPSUnauthorizedCallContext","inputs":[]},{"type":"error","name":"UUPSUnsupportedProxiableUUID","inputs":[{"name":"slot","type":"bytes32","internalType":"bytes32"}]},{"type":"error","name":"UnsafeTransferFailed","inputs":[]},{"type":"error","name":"ValidatorAlreadyExists","inputs":[{"name":"validator","type":"address","internalType":"address"}]},{"type":"error","name":"ValidatorNotFound","inputs":[{"name":"validator","type":"address","internalType":"address"}]},{"type":"error","name":"ValidatorNotInJail","inputs":[{"name":"validator","type":"address","internalType":"address"}]},{"type":"error","name":"ValidatorOwnerAlreadyInUse","inputs":[{"name":"validator","type":"address","internalType":"address"}]},{"type":"error","name":"WrongAmountPrecision","inputs":[]},{"type":"error","name":"ZeroAmount","inputs":[]}],"bytecode":{"object":"0x610160346101d457601f6113cb38819003918201601f19168301916001600160401b038311848410176101d85780849260c0946040528339810103126101d4578051906001600160a01b03821682036101d45760208101516001600160a01b03811681036101d45760408201516001600160a01b03811681036101d4576060830151916001600160a01b03831683036101d4576080840151936001600160a01b03851685036101d45760a00151946001600160a01b03861686036101d4573060805260a05260c05260e0526101005261012052610140525f5160206113ab5f395f51905f525460ff8160401c166101c5576002600160401b03196001600160401b0382160161016f575b6040516111be90816101ed82396080518181816106410152610710015260a0518181816104af0152610b49015260c051816104f3015260e051816108da015261010051816109c60152610120518181816106000152610af8015261014051816104370152f35b6001600160401b0319166001600160401b039081175f5160206113ab5f395f51905f52556040519081527fc7f505b2f371ae2175ee4913f4499e1f2633a7b5936321eed1cdaeb6115181d290602090a15f610109565b63f92ee8a960e01b5f5260045ffd5b5f80fd5b634e487b7160e01b5f52604160045260245ffdfe6080806040526004361015610012575f80fd5b5f3560e01c908163289b3c0d146109b45750806333de61d2146109825780633975dfbc1461090957806345946334146108c55780634f1ef2861461069557806352d1902d1461062f578063606c0c94146105eb578063715018a61461056e57806379ba5097146105225780637a37cc59146104de5780637b1391a61461049a5780638da5cb5b146104665780639f9106d114610422578063ad3cb1cc146103c4578063c4d66de814610242578063e30c39781461020e578063f2a0eea31461016a5763f2fde38b146100e2575f80fd5b34610166576020366003190112610166576100fb610a0b565b610103610ec5565b5f5160206111695f395f51905f5280546001600160a01b0319166001600160a01b039283169081179091555f5160206110e95f395f51905f52549091167f38d16b8cac22d99fc7c124b9cd0de2d3fa1faef420bfe791d8c362d765e227005f80a3005b5f80fd5b34610166576080366003190112610166576101836109f5565b6024356001600160401b0381168103610166576044359160ff8316830361016657606435926001600160401b0384116101665736602385011215610166578360040135926001600160401b038411610166573660248587010111610166576003600160a01b031933016101ff5760246101fd950192610a8d565b005b633d45932f60e11b5f5260045ffd5b34610166575f366003190112610166575f5160206111695f395f51905f52546040516001600160a01b039091168152602090f35b346101665760203660031901126101665761025b610a0b565b5f5160206111495f395f51905f52549060ff8260401c1615916001600160401b038116801590816103bc575b60011490816103b2575b1590816103a9575b5061039a5767ffffffffffffffff1981166001175f5160206111495f395f51905f52558261036e575b506102cb61105f565b6102d361105f565b6102db61105f565b6001600160a01b0381161561035b576102f390610ee5565b6102fb61105f565b61030361105f565b61030957005b60ff60401b195f5160206111495f395f51905f5254165f5160206111495f395f51905f52557fc7f505b2f371ae2175ee4913f4499e1f2633a7b5936321eed1cdaeb6115181d2602060405160018152a1005b631e4fbdf760e01b5f525f60045260245ffd5b68ffffffffffffffffff191668010000000000000001175f5160206111495f395f51905f5255826102c2565b63f92ee8a960e01b5f5260045ffd5b90501584610299565b303b159150610291565b849150610287565b34610166575f3660031901126101665760408051906103e38183610a21565b600582526020820191640352e302e360dc1b83528151928391602083525180918160208501528484015e5f828201840152601f01601f19168101030190f35b34610166575f366003190112610166576040517f00000000000000000000000000000000000000000000000000000000000000006001600160a01b03168152602090f35b34610166575f366003190112610166575f5160206110e95f395f51905f52546040516001600160a01b039091168152602090f35b34610166575f366003190112610166576040517f00000000000000000000000000000000000000000000000000000000000000006001600160a01b03168152602090f35b34610166575f366003190112610166576040517f00000000000000000000000000000000000000000000000000000000000000006001600160a01b03168152602090f35b34610166575f366003190112610166575f5160206111695f395f51905f5254336001600160a01b039091160361055b576101fd33610ee5565b63118cdaa760e01b5f523360045260245ffd5b34610166575f36600319011261016657610586610ec5565b5f5160206111695f395f51905f5280546001600160a01b03199081169091555f5160206110e95f395f51905f52805491821690555f906001600160a01b03167f8be0079c531659141344cd1fd0a4f28419497f9722a3daafe3b4186f6b6457e08280a3005b34610166575f366003190112610166576040517f00000000000000000000000000000000000000000000000000000000000000006001600160a01b03168152602090f35b34610166575f366003190112610166577f00000000000000000000000000000000000000000000000000000000000000006001600160a01b031630036106865760206040515f5160206111095f395f51905f528152f35b63703e46dd60e11b5f5260045ffd5b6040366003190112610166576106a9610a0b565b602435906001600160401b0382116101665736602383011215610166578160040135906106d582610a56565b916106e36040519384610a21565b8083526020830193366024838301011161016657815f926024602093018737840101526001600160a01b037f0000000000000000000000000000000000000000000000000000000000000000163081149081156108a3575b5061068657610748610ec5565b6040516352d1902d60e01b81526001600160a01b0382169390602081600481885afa5f918161086f575b5061078a5784634c9c8ce360e01b5f5260045260245ffd5b805f5160206111095f395f51905f5286920361085d5750823b1561084b575f5160206111095f395f51905f5280546001600160a01b031916821790557fbc7cd75a20ee27fd9adebab32041f755214dbc6bffa90cc0225b39da2e5c2d3b5f80a2825115610832575f80916101fd945190845af43d1561082a573d9161080e83610a56565b9261081c6040519485610a21565b83523d5f602085013e61108a565b60609161108a565b5050503461083c57005b63b398979f60e01b5f5260045ffd5b634c9c8ce360e01b5f5260045260245ffd5b632a87526960e21b5f5260045260245ffd5b9091506020813d60201161089b575b8161088b60209383610a21565b8101031261016657519086610772565b3d915061087e565b5f5160206111095f395f51905f52546001600160a01b0316141590508461073b565b34610166575f366003190112610166576040517f00000000000000000000000000000000000000000000000000000000000000006001600160a01b03168152602090f35b34610166576040366003190112610166576109226109f5565b6024359063ffffffff8216809203610166576001600160401b03165f527fcdf1e9106d462d95f24a4f73d10fa2eb0e161882b0a384920def44fb49e5750060205260405f20905f52602052602063ffffffff60405f205416604051908152f35b34610166575f3660031901126101665760206001600160401b035f5160206111295f395f51905f525416604051908152f35b34610166575f366003190112610166577f00000000000000000000000000000000000000000000000000000000000000006001600160a01b03168152602090f35b600435906001600160401b038216820361016657565b600435906001600160a01b038216820361016657565b90601f801991011681019081106001600160401b03821117610a4257604052565b634e487b7160e01b5f52604160045260245ffd5b6001600160401b038111610a4257601f01601f191660200190565b90816020910312610166575163ffffffff811681036101665790565b9160ff909594919516928315610e87576001600160401b03805f5160206111295f395f51905f525416961695861115610e8757856001600160401b03195f5160206111295f395f51905f525416175f5160206111295f395f51905f52556001600160401b0380610b1e7f00000000000000000000000000000000000000000000000000000000000000009889610f50565b16931692808414908115610e8f575b5015610e87576040516338f9b3b760e21b8152600481018490527f00000000000000000000000000000000000000000000000000000000000000006001600160a01b03169290602081602481875afa8015610d665786915f91610e52575b5003610e495760078501808611610dd55760031c8103610e3a57600491845f527fcdf1e9106d462d95f24a4f73d10fa2eb0e161882b0a384920def44fb49e57500602052602060405f2098604051948580926371a3769d60e01b825260018060a01b03165afa928315610d66575f93610e09575b505f5b60ff81169087821015610dfd57601f8160031c1684811015610de95783013560f81c600782161c600190811603610c745760019060ff92805f528b60205263ffffffff60405f205416610c59575b505b0116610c02565b5f528a60205260405f2063ffffffff1981541690555f610c50565b815f5289602052600163ffffffff60405f2054160163ffffffff8111610dd55763ffffffff9081169086168110610db25750815f528960205260405f2063ffffffff19815416905560405163d7f1733d60e01b81528760048201528260248201526020816044818a5afa908115610d66575f91610d71575b5060018060a01b03168060405193897f09a359b63edf5326b4b48f3370152233721495f6091cbc9d2259be1ae02c84ea5f80a4863b156101665763c96be4cb60e01b835260048301525f82602481838a5af1908115610d665760ff92600192610d56575b50610c52565b5f610d6091610a21565b5f610d50565b6040513d5f823e3d90fd5b90506020813d8211610daa575b81610d8b60209383610a21565b8101031261016657516001600160a01b0381168103610166575f610cec565b3d9150610d7e565b9060019160ff935f528b60205260405f209063ffffffff19825416179055610c52565b634e487b7160e01b5f52601160045260245ffd5b634e487b7160e01b5f52603260045260245ffd5b50505050505050509050565b610e2c91935060203d602011610e33575b610e248183610a21565b810190610a71565b915f610bff565b503d610e1a565b6307d4cdd360e51b5f5260045ffd5b50505050509050565b9150506020813d602011610e7f575b81610e6e60209383610a21565b81010312610166578590515f610b8b565b3d9150610e61565b505050509050565b801515915081610ea1575b505f610b2d565b5f190190506001600160401b038111610dd5576001600160401b031683145f610e9a565b5f5160206110e95f395f51905f52546001600160a01b0316330361055b57565b5f5160206111695f395f51905f5280546001600160a01b03199081169091555f5160206110e95f395f51905f5280549182166001600160a01b0393841690811790915591167f8be0079c531659141344cd1fd0a4f28419497f9722a3daafe3b4186f6b6457e05f80a3565b604051631454a0a560e31b81526001600160a01b039190911690602081600481855afa8015610d66575f90611016575b6001600160401b0391501680831061100f578203918211610dd55760206004916040519283809263068d921560e31b82525afa8015610d665763ffffffff915f91610ff0575b50168015610fdc576001600160401b0391041690565b634e487b7160e01b5f52601260045260245ffd5b611009915060203d602011610e3357610e248183610a21565b5f610fc6565b5050505f90565b506020813d602011611057575b8161103060209383610a21565b8101031261016657516001600160401b0381168103610166576001600160401b0390610f80565b3d9150611023565b60ff5f5160206111495f395f51905f525460401c161561107b57565b631afcd79f60e31b5f5260045ffd5b906110ae575080511561109f57805190602001fd5b630a12f52160e11b5f5260045ffd5b815115806110df575b6110bf575090565b639996b31560e01b5f9081526001600160a01b0391909116600452602490fd5b50803b156110b756fe9016d09d72d40fdae2fd8ceac6b6234c7706214fd39c1cd1e609a0528c199300360894a13ba1a3210667c828492db98dca3e2076cc3735a920a3ca505d382bbccdf1e9106d462d95f24a4f73d10fa2eb0e161882b0a384920def44fb49e57501f0c57e16840df040f15088dc2f81fe391c3923bec73e23a9662efc9c229c6a00237e158222e3e6968b72b9db0d8043aacf074ad9f650f0d1606b4d82ee432c00a26469706673582212207ada0cdf7ccf22e40a2cd2b80e1e58076c1e6e2f7f0097166940221ee1973ed464736f6c634300081e0033f0c57e16840df040f15088dc2f81fe391c3923bec73e23a9662efc9c229c6a00","linkReferences":{}},"methodIdentifiers":{"UPGRADE_INTERFACE_VERSION()":"ad3cb1cc","acceptOwnership()":"79ba5097","getChainConfig()":"606c0c94","getGovernance()":"289b3c0d","getStaking()":"7b1391a6","getStakingPool()":"45946334","getStakingToken()":"9f9106d1","getSystemReward()":"7a37cc59","initialize(address)":"c4d66de8","lastProcessedBlock()":"33de61d2","missCount(uint64,uint32)":"3975dfbc","owner()":"8da5cb5b","pendingOwner()":"e30c3978","processBitmap(uint64,uint64,uint8,bytes)":"f2a0eea3","proxiableUUID()":"52d1902d","renounceOwnership()":"715018a6","transferOwnership(address)":"f2fde38b","upgradeToAndCall(address,bytes)":"4f1ef286"},"storageLayout":{"storage":[],"types":{}},"id":44}