{"abi":[{"type":"function","name":"getBatch","inputs":[{"name":"batchIndex","type":"uint256","internalType":"uint256"}],"outputs":[{"name":"","type":"tuple","internalType":"struct BatchRecord","components":[{"name":"batchRoot","type":"bytes32","internalType":"bytes32"},{"name":"acceptedAtBlock","type":"uint32","internalType":"uint32"},{"name":"expectedBlobs","type":"uint8","internalType":"uint8"},{"name":"status","type":"uint8","internalType":"enum BatchStatus"},{"name":"sentMessageCursorStart","type":"uint64","internalType":"uint64"},{"name":"submitBlobsWindowSnapshot","type":"uint24","internalType":"uint24"},{"name":"preconfirmationWindowSnapshot","type":"uint24","internalType":"uint24"},{"name":"challengeWindowSnapshot","type":"uint24","internalType":"uint24"},{"name":"finalizationDelaySnapshot","type":"uint24","internalType":"uint24"},{"name":"numberOfBlocks","type":"uint24","internalType":"uint24"},{"name":"toBlockHash","type":"bytes32","internalType":"bytes32"}]}],"stateMutability":"view"},{"type":"function","name":"lastFinalizedBatchIndex","inputs":[],"outputs":[{"name":"","type":"uint256","internalType":"uint256"}],"stateMutability":"view"},{"type":"function","name":"setCheckpoint","inputs":[{"name":"batchIndex","type":"uint256","internalType":"uint256"},{"name":"toBlockHash","type":"bytes32","internalType":"bytes32"}],"outputs":[],"stateMutability":"nonpayable"}],"bytecode":{"object":"0x6080806040523460155761029d908161001a8239f35b5f80fdfe6080806040526004361015610012575f80fd5b5f3560e01c908163059def6114610219575080632d33245e146101ec57635ac442821461003d575f80fd5b346101e85760203660031901126101e8575f61014061005a610232565b8281528260208201528260408201528260608201528260808201528260a08201528260c08201528260e0820152826101008201528261012082015201526004355f52600160205260405f206100ad610232565b815481526001820154602082019063ffffffff81168252604083019060ff8160201c16825260ff8160281c16606085019060068110156101d457815284608081019167ffffffffffffffff8460301c16835260a082019062ffffff8560701c16825260ff60c084019662ffffff8760881c16885263ffffffff600260e087019c8d62ffffff8b60a01c16905262ffffff6101206101008a0199828d60b81c168b52019a60d01c168a520154996101408c019a8b526040519b518c52511660208b015251166040890152519760068910156101d45762ffffff80968180969467ffffffffffffffff82966101609e60608f0152511660808d0152511660a08b0152511660c0890152511660e08701525116610100850152511661012083015251610140820152f35b634e487b7160e01b5f52602160045260245ffd5b5f80fd5b346101e85760403660031901126101e857600435805f526001602052602435600260405f2001555f555f80f35b346101e8575f3660031901126101e8576020905f548152f35b60405190610160820182811067ffffffffffffffff82111761025357604052565b634e487b7160e01b5f52604160045260245ffdfea264697066735822122093804730730fe6e3d582be555fb23c50e28eed7512ce767ae60bf84af0e9151064736f6c634300081e0033","linkReferences":{}},"methodIdentifiers":{"getBatch(uint256)":"5ac44282","lastFinalizedBatchIndex()":"059def61","setCheckpoint(uint256,bytes32)":"2d33245e"},"storageLayout":{"storage":[{"astId":13918,"contract":"contracts/mocks/MockRollup.sol:MockRollup","label":"_lastFinalizedBatchIndex","offset":0,"slot":"0","type":"t_uint256"},{"astId":13923,"contract":"contracts/mocks/MockRollup.sol:MockRollup","label":"_batches","offset":0,"slot":"1","type":"t_mapping(t_uint256,t_struct(BatchRecord)11236_storage)"}],"types":{"t_bytes32":{"encoding":"inplace","label":"bytes32","numberOfBytes":"32"},"t_enum(BatchStatus)11177":{"encoding":"inplace","label":"enum BatchStatus","numberOfBytes":"1"},"t_mapping(t_uint256,t_struct(BatchRecord)11236_storage)":{"encoding":"mapping","key":"t_uint256","label":"mapping(uint256 => struct BatchRecord)","numberOfBytes":"32","value":"t_struct(BatchRecord)11236_storage"},"t_struct(BatchRecord)11236_storage":{"encoding":"inplace","label":"struct BatchRecord","numberOfBytes":"96","members":[{"astId":11204,"contract":"contracts/mocks/MockRollup.sol:MockRollup","label":"batchRoot","offset":0,"slot":"0","type":"t_bytes32"},{"astId":11207,"contract":"contracts/mocks/MockRollup.sol:MockRollup","label":"acceptedAtBlock","offset":0,"slot":"1","type":"t_uint32"},{"astId":11210,"contract":"contracts/mocks/MockRollup.sol:MockRollup","label":"expectedBlobs","offset":4,"slot":"1","type":"t_uint8"},{"astId":11214,"contract":"contracts/mocks/MockRollup.sol:MockRollup","label":"status","offset":5,"slot":"1","type":"t_enum(BatchStatus)11177"},{"astId":11217,"contract":"contracts/mocks/MockRollup.sol:MockRollup","label":"sentMessageCursorStart","offset":6,"slot":"1","type":"t_uint64"},{"astId":11220,"contract":"contracts/mocks/MockRollup.sol:MockRollup","label":"submitBlobsWindowSnapshot","offset":14,"slot":"1","type":"t_uint24"},{"astId":11223,"contract":"contracts/mocks/MockRollup.sol:MockRollup","label":"preconfirmationWindowSnapshot","offset":17,"slot":"1","type":"t_uint24"},{"astId":11226,"contract":"contracts/mocks/MockRollup.sol:MockRollup","label":"challengeWindowSnapshot","offset":20,"slot":"1","type":"t_uint24"},{"astId":11229,"contract":"contracts/mocks/MockRollup.sol:MockRollup","label":"finalizationDelaySnapshot","offset":23,"slot":"1","type":"t_uint24"},{"astId":11232,"contract":"contracts/mocks/MockRollup.sol:MockRollup","label":"numberOfBlocks","offset":26,"slot":"1","type":"t_uint24"},{"astId":11235,"contract":"contracts/mocks/MockRollup.sol:MockRollup","label":"toBlockHash","offset":0,"slot":"2","type":"t_bytes32"}]},"t_uint24":{"encoding":"inplace","label":"uint24","numberOfBytes":"3"},"t_uint256":{"encoding":"inplace","label":"uint256","numberOfBytes":"32"},"t_uint32":{"encoding":"inplace","label":"uint32","numberOfBytes":"4"},"t_uint64":{"encoding":"inplace","label":"uint64","numberOfBytes":"8"},"t_uint8":{"encoding":"inplace","label":"uint8","numberOfBytes":"1"}}},"id":37}