{"abi":[{"type":"function","name":"currentPrevrandao","inputs":[],"outputs":[{"name":"","type":"uint256","internalType":"uint256"}],"stateMutability":"view"},{"type":"function","name":"snapshot","inputs":[],"outputs":[{"name":"r","type":"uint256","internalType":"uint256"}],"stateMutability":"nonpayable"},{"type":"event","name":"Snapshot","inputs":[{"name":"blockNumber","type":"uint256","indexed":true,"internalType":"uint256"},{"name":"prevrandao","type":"uint256","indexed":false,"internalType":"uint256"}],"anonymous":false}],"bytecode":{"object":"0x6080806040523460135760c3908160188239f35b5f80fdfe60808060405260043610156011575f80fd5b5f3560e01c9081638b430ba81460775750639711715a14602f575f80fd5b346073575f3660031901126073576040514481527f492fbd8cfdd942203e99f6bc74253a1e1f5791b0644612279e778349f353b19860204392a26020604051448152f35b5f80fd5b346073575f366003190112607357602090448152f3fea264697066735822122057c4aa72f2c5ec0abeac9939709426d7c2483615280ebdd78c7b197e755ed65364736f6c634300081e0033","linkReferences":{}},"methodIdentifiers":{"currentPrevrandao()":"8b430ba8","snapshot()":"9711715a"},"storageLayout":{"storage":[],"types":{}},"id":0}