{"abi":[{"type":"function","name":"decodeConflictingFinalize","inputs":[{"name":"e","type":"bytes","internalType":"bytes"}],"outputs":[{"name":"","type":"tuple","internalType":"struct SimplexEvidenceDecoder.Decoded","components":[{"name":"epoch","type":"uint64","internalType":"uint64"},{"name":"signerIdx","type":"uint32","internalType":"uint32"},{"name":"kind1","type":"uint8","internalType":"uint8"},{"name":"msg1","type":"bytes","internalType":"bytes"},{"name":"sig1","type":"bytes","internalType":"bytes"},{"name":"kind2","type":"uint8","internalType":"uint8"},{"name":"msg2","type":"bytes","internalType":"bytes"},{"name":"sig2","type":"bytes","internalType":"bytes"}]}],"stateMutability":"pure"},{"type":"function","name":"decodeConflictingNotarize","inputs":[{"name":"e","type":"bytes","internalType":"bytes"}],"outputs":[{"name":"","type":"tuple","internalType":"struct SimplexEvidenceDecoder.Decoded","components":[{"name":"epoch","type":"uint64","internalType":"uint64"},{"name":"signerIdx","type":"uint32","internalType":"uint32"},{"name":"kind1","type":"uint8","internalType":"uint8"},{"name":"msg1","type":"bytes","internalType":"bytes"},{"name":"sig1","type":"bytes","internalType":"bytes"},{"name":"kind2","type":"uint8","internalType":"uint8"},{"name":"msg2","type":"bytes","internalType":"bytes"},{"name":"sig2","type":"bytes","internalType":"bytes"}]}],"stateMutability":"pure"},{"type":"function","name":"decodeNullifyFinalize","inputs":[{"name":"e","type":"bytes","internalType":"bytes"}],"outputs":[{"name":"d","type":"tuple","internalType":"struct SimplexEvidenceDecoder.Decoded","components":[{"name":"epoch","type":"uint64","internalType":"uint64"},{"name":"signerIdx","type":"uint32","internalType":"uint32"},{"name":"kind1","type":"uint8","internalType":"uint8"},{"name":"msg1","type":"bytes","internalType":"bytes"},{"name":"sig1","type":"bytes","internalType":"bytes"},{"name":"kind2","type":"uint8","internalType":"uint8"},{"name":"msg2","type":"bytes","internalType":"bytes"},{"name":"sig2","type":"bytes","internalType":"bytes"}]}],"stateMutability":"pure"},{"type":"error","name":"InvalidEvidence","inputs":[]}],"bytecode":{"object":"0x6080806040523460155761096c908161001a8239f35b5f80fdfe6102806040526004361015610012575f80fd5b5f3560e01c806327e7ff4b146103c05780632d85f570146102275763ce4b0b3a1461003b575f80fd5b34610223576100d16100a06100b2610052366105a1565b6101805261005e6106be565b505f60c05261006b6106be565b60c05261007b61018051826107d3565b93999491906101609793975260a0526101c0526101a05292959192610180518561078d565b61018099939592999791975187610832565b6101409290925261018051959d909b929893979096949590939261078d565b909160809e939e52909c9061018051036101c75763ffffffff1663ffffffff8a161492831593610201575b5082156101e9575b50506101c7576001600160401b03166001600160401b036101c051161493846101d6575b505050506101c7576101ac9461019c9363ffffffff610181936001600160401b036101a0511660c0515216602060c05101526002604060c0510152610173366101605160a05161071f565b606060c0510152369161071f565b608060c0510152600260a060c051015236906101405161071f565b60c080510152369060805161071f565b60e060c0510152604051806101c360c05182610614565b0390f35b63325de78f60e21b5f5260045ffd5b6101e09450610896565b5f808080610128565b6001600160401b039192508116911614155f80610104565b6001600160401b03919350166001600160401b036101a051161415915f6100fc565b5f80fd5b3461022357610235366105a1565b9061023e6106be565b5f915f935f5b818510156101c7578483013560f81c946001810180911161028c579560408210156101c757607f8616821b1794608016156102a0576007810180911161028c57949394610244565b634e487b7160e01b5f52601160045260245ffd5b5084936001600160401b0381116101c7576001600160401b036102c691169482846108d0565b909190818111610223576103006102ee6102e183858861078d565b878a9c949c959295610832565b92509895949c93509891508a8d61078d565b9c92919c9b909b036101c75763ffffffff9e8f169e168e14801593906103ac575b508215610394575b50506101c7576103586103839961037797600160406101c39f8f9061036499825260208201520152369161071f565b60608b0152369161071f565b6080880152600260a0880152369161071f565b60c0850152369161071f565b60e082015260405191829182610614565b6001600160401b039192508116911614158c80610329565b6001600160401b031686141592508e610321565b346102235761045961042861043a6103d7366105a1565b610220526103e36106be565b505f610120526103f16106be565b6101205261040261022051826107d3565b93999491906102009793975261010052610260526102405292959192610220518561078d565b61022099939592999791975187610832565b6101e09290925261022051959d909b929893979096949590939261078d565b909160e09e939e52909c9061022051036101c75763ffffffff1663ffffffff8a16149283159361057f575b508215610567575b50506101c7576001600160401b03166001600160401b036102605116149384610554575b505050506101c75761053b946105299363ffffffff61050d936001600160401b03610240511661012051521660206101205101525f60406101205101526104fe36610200516101005161071f565b6060610120510152369161071f565b60806101205101525f60a061012051015236906101e05161071f565b60c0610120510152369060e05161071f565b60e0610120510152604051806101c36101205182610614565b61055e9450610896565b868080806104b0565b6001600160401b039192508116911614158b8061048c565b6001600160401b03919350166001600160401b0361024051161415918d610484565b906020600319830112610223576004356001600160401b0381116102235782602382011215610223578060040135926001600160401b0384116102235760248483010111610223576024019190565b805180835260209291819084018484015e5f828201840152601f01601f1916010190565b906106bb91602081526001600160401b03825116602082015263ffffffff602083015116604082015260ff604083015116606082015260e06106a561068361066d606086015161010060808701526101208601906105f0565b6080860151858203601f190160a08701526105f0565b60ff60a08601511660c085015260c0850151601f1985830301848601526105f0565b92015190610100601f19828503019101526105f0565b90565b6040519061010082018281106001600160401b0382111761070b57604052606060e0835f81525f60208201525f604082015282808201528260808201525f60a08201528260c08201520152565b634e487b7160e01b5f52604160045260245ffd5b9291926001600160401b03821161070b5760405191601f8101601f19908116603f011683016001600160401b0381118482101761070b57604052829481845281830111610223578281602093845f960137010152565b90939293848311610223578411610223578101920390565b929161079a9082856108d0565b919063ffffffff81116101c75763ffffffff1693603083019283811161028c578284116101c7576107cc928492610775565b9290929190565b6001600160401b03929183929183926108076107fd6107f35f86866108d0565b98169785856108d0565b96169584846108d0565b941693602081019384821161028c578085116101c75761082991859185610775565b93909392918190565b906001600160401b0393918493928461086661085c6108528787876108d0565b99169886866108d0565b97169685856108d0565b911694602082019182811161028c578583116101c7576107cc9161088d8480938989610775565b97909796610775565b91908381036108c8576108bd926108ae91369161071f565b6020815191012092369161071f565b602081519101201490565b505050505f90565b919290925f925f5b858310156101c7578282013560f81c926001810180911161028c579460408210156101c757607f8416821b179260801615610920576007810180911161028c579391936108d8565b50509250906001600160401b0383116101c7579056fea264697066735822122074aac2dd447ef67ec9155ea85013bdf69b727ae64c7414e8cb9886279093e8f764736f6c634300081e0033","linkReferences":{}},"methodIdentifiers":{"decodeConflictingFinalize(bytes)":"ce4b0b3a","decodeConflictingNotarize(bytes)":"27e7ff4b","decodeNullifyFinalize(bytes)":"2d85f570"},"storageLayout":{"storage":[],"types":{}},"id":36}