{"abi":[{"type":"constructor","inputs":[{"name":"stakingContract","type":"address","internalType":"contract IStaking"},{"name":"systemRewardContract","type":"address","internalType":"contract ISystemReward"},{"name":"stakingPoolContract","type":"address","internalType":"contract IStakingPool"},{"name":"governanceContract","type":"address","internalType":"contract IFluentGovernance"},{"name":"chainConfigContract","type":"address","internalType":"contract IChainConfig"},{"name":"stakingToken","type":"address","internalType":"contract IERC20"},{"name":"livenessSlashingAddr","type":"address","internalType":"address"}],"stateMutability":"nonpayable"},{"type":"function","name":"UPGRADE_INTERFACE_VERSION","inputs":[],"outputs":[{"name":"","type":"string","internalType":"string"}],"stateMutability":"view"},{"type":"function","name":"acceptOwnership","inputs":[],"outputs":[],"stateMutability":"nonpayable"},{"type":"function","name":"activateValidator","inputs":[{"name":"validator","type":"address","internalType":"address"}],"outputs":[],"stateMutability":"nonpayable"},{"type":"function","name":"addValidator","inputs":[{"name":"account","type":"address","internalType":"address"}],"outputs":[],"stateMutability":"nonpayable"},{"type":"function","name":"calcAvailableForRedelegateAmount","inputs":[{"name":"validator","type":"address","internalType":"address"},{"name":"delegator","type":"address","internalType":"address"}],"outputs":[{"name":"amountToStake","type":"uint256","internalType":"uint256"},{"name":"rewardsDust","type":"uint256","internalType":"uint256"}],"stateMutability":"view"},{"type":"function","name":"changeValidatorCommissionRate","inputs":[{"name":"validatorAddress","type":"address","internalType":"address"},{"name":"commissionRate","type":"uint16","internalType":"uint16"}],"outputs":[],"stateMutability":"nonpayable"},{"type":"function","name":"changeValidatorOwner","inputs":[{"name":"validatorAddress","type":"address","internalType":"address"},{"name":"newOwner","type":"address","internalType":"address"}],"outputs":[],"stateMutability":"nonpayable"},{"type":"function","name":"claimDelegatorFee","inputs":[{"name":"validatorAddress","type":"address","internalType":"address"}],"outputs":[],"stateMutability":"nonpayable"},{"type":"function","name":"claimDelegatorFeeAtEpoch","inputs":[{"name":"validatorAddress","type":"address","internalType":"address"},{"name":"beforeEpoch","type":"uint64","internalType":"uint64"}],"outputs":[],"stateMutability":"nonpayable"},{"type":"function","name":"claimValidatorFee","inputs":[{"name":"validatorAddress","type":"address","internalType":"address"}],"outputs":[],"stateMutability":"nonpayable"},{"type":"function","name":"claimValidatorFeeAtEpoch","inputs":[{"name":"validatorAddress","type":"address","internalType":"address"},{"name":"beforeEpoch","type":"uint64","internalType":"uint64"}],"outputs":[],"stateMutability":"nonpayable"},{"type":"function","name":"commitEpochCommittee","inputs":[{"name":"committee","type":"address[]","internalType":"address[]"}],"outputs":[],"stateMutability":"nonpayable"},{"type":"function","name":"committeeSelectionEpoch","inputs":[],"outputs":[{"name":"","type":"uint64","internalType":"uint64"}],"stateMutability":"view"},{"type":"function","name":"currentEpoch","inputs":[],"outputs":[{"name":"","type":"uint64","internalType":"uint64"}],"stateMutability":"view"},{"type":"function","name":"delegate","inputs":[{"name":"validatorAddress","type":"address","internalType":"address"},{"name":"amount","type":"uint256","internalType":"uint256"}],"outputs":[],"stateMutability":"nonpayable"},{"type":"function","name":"deposit","inputs":[{"name":"validatorAddress","type":"address","internalType":"address"},{"name":"amount","type":"uint256","internalType":"uint256"}],"outputs":[],"stateMutability":"nonpayable"},{"type":"function","name":"disableValidator","inputs":[{"name":"validator","type":"address","internalType":"address"}],"outputs":[],"stateMutability":"nonpayable"},{"type":"function","name":"getChainConfig","inputs":[],"outputs":[{"name":"","type":"address","internalType":"contract IChainConfig"}],"stateMutability":"view"},{"type":"function","name":"getConsensusKeys","inputs":[{"name":"validatorAddress","type":"address","internalType":"address"}],"outputs":[{"name":"","type":"tuple","internalType":"struct IStaking.ConsensusKeys","components":[{"name":"blsPubkey","type":"bytes","internalType":"bytes"},{"name":"peerPubkey","type":"bytes32","internalType":"bytes32"},{"name":"activationEpoch","type":"uint64","internalType":"uint64"}]}],"stateMutability":"view"},{"type":"function","name":"getDelegatorFee","inputs":[{"name":"validatorAddress","type":"address","internalType":"address"},{"name":"delegatorAddress","type":"address","internalType":"address"}],"outputs":[{"name":"","type":"uint256","internalType":"uint256"}],"stateMutability":"view"},{"type":"function","name":"getEpochCommittee","inputs":[{"name":"epoch","type":"uint64","internalType":"uint64"}],"outputs":[{"name":"","type":"address[]","internalType":"address[]"}],"stateMutability":"view"},{"type":"function","name":"getEpochCommitteeLength","inputs":[{"name":"epoch","type":"uint64","internalType":"uint64"}],"outputs":[{"name":"","type":"uint256","internalType":"uint256"}],"stateMutability":"view"},{"type":"function","name":"getGovernance","inputs":[],"outputs":[{"name":"","type":"address","internalType":"contract IFluentGovernance"}],"stateMutability":"view"},{"type":"function","name":"getPendingDelegatorFee","inputs":[{"name":"validatorAddress","type":"address","internalType":"address"},{"name":"delegatorAddress","type":"address","internalType":"address"}],"outputs":[{"name":"","type":"uint256","internalType":"uint256"}],"stateMutability":"view"},{"type":"function","name":"getPendingValidatorFee","inputs":[{"name":"validatorAddress","type":"address","internalType":"address"}],"outputs":[{"name":"","type":"uint256","internalType":"uint256"}],"stateMutability":"view"},{"type":"function","name":"getStaking","inputs":[],"outputs":[{"name":"","type":"address","internalType":"contract IStaking"}],"stateMutability":"view"},{"type":"function","name":"getStakingPool","inputs":[],"outputs":[{"name":"","type":"address","internalType":"contract IStakingPool"}],"stateMutability":"view"},{"type":"function","name":"getStakingToken","inputs":[],"outputs":[{"name":"","type":"address","internalType":"contract IERC20"}],"stateMutability":"view"},{"type":"function","name":"getSystemReward","inputs":[],"outputs":[{"name":"","type":"address","internalType":"contract ISystemReward"}],"stateMutability":"view"},{"type":"function","name":"getValidatorByOwner","inputs":[{"name":"owner","type":"address","internalType":"address"}],"outputs":[{"name":"","type":"address","internalType":"address"}],"stateMutability":"view"},{"type":"function","name":"getValidatorDelegation","inputs":[{"name":"validatorAddress","type":"address","internalType":"address"},{"name":"delegator","type":"address","internalType":"address"}],"outputs":[{"name":"delegatedAmount","type":"uint256","internalType":"uint256"},{"name":"atEpoch","type":"uint64","internalType":"uint64"}],"stateMutability":"view"},{"type":"function","name":"getValidatorFee","inputs":[{"name":"validatorAddress","type":"address","internalType":"address"}],"outputs":[{"name":"","type":"uint256","internalType":"uint256"}],"stateMutability":"view"},{"type":"function","name":"getValidatorStatus","inputs":[{"name":"validatorAddress","type":"address","internalType":"address"}],"outputs":[{"name":"ownerAddress","type":"address","internalType":"address"},{"name":"status","type":"uint8","internalType":"uint8"},{"name":"totalDelegated","type":"uint256","internalType":"uint256"},{"name":"slashesCount","type":"uint32","internalType":"uint32"},{"name":"changedAt","type":"uint64","internalType":"uint64"},{"name":"jailedBefore","type":"uint64","internalType":"uint64"},{"name":"claimedAt","type":"uint64","internalType":"uint64"},{"name":"commissionRate","type":"uint16","internalType":"uint16"},{"name":"totalRewards","type":"uint96","internalType":"uint96"}],"stateMutability":"view"},{"type":"function","name":"getValidatorStatusAtEpoch","inputs":[{"name":"validatorAddress","type":"address","internalType":"address"},{"name":"epoch","type":"uint64","internalType":"uint64"}],"outputs":[{"name":"ownerAddress","type":"address","internalType":"address"},{"name":"status","type":"uint8","internalType":"uint8"},{"name":"totalDelegated","type":"uint256","internalType":"uint256"},{"name":"slashesCount","type":"uint32","internalType":"uint32"},{"name":"changedAt","type":"uint64","internalType":"uint64"},{"name":"jailedBefore","type":"uint64","internalType":"uint64"},{"name":"claimedAt","type":"uint64","internalType":"uint64"},{"name":"commissionRate","type":"uint16","internalType":"uint16"},{"name":"totalRewards","type":"uint96","internalType":"uint96"}],"stateMutability":"view"},{"type":"function","name":"getValidators","inputs":[],"outputs":[{"name":"","type":"address[]","internalType":"address[]"}],"stateMutability":"view"},{"type":"function","name":"getValidatorsWithKeys","inputs":[],"outputs":[{"name":"addrs","type":"address[]","internalType":"address[]"},{"name":"keys","type":"tuple[]","internalType":"struct IStaking.ConsensusKeys[]","components":[{"name":"blsPubkey","type":"bytes","internalType":"bytes"},{"name":"peerPubkey","type":"bytes32","internalType":"bytes32"},{"name":"activationEpoch","type":"uint64","internalType":"uint64"}]}],"stateMutability":"view"},{"type":"function","name":"getValidatorsWithKeysAt","inputs":[{"name":"epoch","type":"uint64","internalType":"uint64"}],"outputs":[{"name":"addrs","type":"address[]","internalType":"address[]"},{"name":"keys","type":"tuple[]","internalType":"struct IStaking.ConsensusKeys[]","components":[{"name":"blsPubkey","type":"bytes","internalType":"bytes"},{"name":"peerPubkey","type":"bytes32","internalType":"bytes32"},{"name":"activationEpoch","type":"uint64","internalType":"uint64"}]}],"stateMutability":"view"},{"type":"function","name":"initialize","inputs":[{"name":"initialOwner","type":"address","internalType":"address"},{"name":"validators","type":"address[]","internalType":"address[]"},{"name":"initialStakes","type":"uint256[]","internalType":"uint256[]"},{"name":"commissionRate","type":"uint16","internalType":"uint16"}],"outputs":[],"stateMutability":"nonpayable"},{"type":"function","name":"isValidator","inputs":[{"name":"account","type":"address","internalType":"address"}],"outputs":[{"name":"","type":"bool","internalType":"bool"}],"stateMutability":"view"},{"type":"function","name":"isValidatorActive","inputs":[{"name":"account","type":"address","internalType":"address"}],"outputs":[{"name":"","type":"bool","internalType":"bool"}],"stateMutability":"view"},{"type":"function","name":"nextEpoch","inputs":[],"outputs":[{"name":"","type":"uint64","internalType":"uint64"}],"stateMutability":"view"},{"type":"function","name":"nextEpochToCommit","inputs":[],"outputs":[{"name":"","type":"uint64","internalType":"uint64"}],"stateMutability":"view"},{"type":"function","name":"owner","inputs":[],"outputs":[{"name":"","type":"address","internalType":"address"}],"stateMutability":"view"},{"type":"function","name":"pendingOwner","inputs":[],"outputs":[{"name":"","type":"address","internalType":"address"}],"stateMutability":"view"},{"type":"function","name":"proxiableUUID","inputs":[],"outputs":[{"name":"","type":"bytes32","internalType":"bytes32"}],"stateMutability":"view"},{"type":"function","name":"redelegateDelegatorFee","inputs":[{"name":"validator","type":"address","internalType":"address"}],"outputs":[],"stateMutability":"nonpayable"},{"type":"function","name":"registerValidator","inputs":[{"name":"validatorAddress","type":"address","internalType":"address"},{"name":"commissionRate","type":"uint16","internalType":"uint16"},{"name":"initialStake","type":"uint256","internalType":"uint256"}],"outputs":[],"stateMutability":"nonpayable"},{"type":"function","name":"releaseValidatorFromJail","inputs":[{"name":"validatorAddress","type":"address","internalType":"address"}],"outputs":[],"stateMutability":"nonpayable"},{"type":"function","name":"removeValidator","inputs":[{"name":"account","type":"address","internalType":"address"}],"outputs":[],"stateMutability":"nonpayable"},{"type":"function","name":"renounceOwnership","inputs":[],"outputs":[],"stateMutability":"nonpayable"},{"type":"function","name":"resolveSigner","inputs":[{"name":"epoch","type":"uint64","internalType":"uint64"},{"name":"signerIdx","type":"uint32","internalType":"uint32"}],"outputs":[{"name":"","type":"address","internalType":"address"}],"stateMutability":"view"},{"type":"function","name":"setConsensusKeys","inputs":[{"name":"validatorAddress","type":"address","internalType":"address"},{"name":"blsPubkeyUncompressed","type":"bytes","internalType":"bytes"},{"name":"blsPoPUncompressed","type":"bytes","internalType":"bytes"},{"name":"peerPubkey","type":"bytes32","internalType":"bytes32"}],"outputs":[],"stateMutability":"nonpayable"},{"type":"function","name":"slash","inputs":[{"name":"validatorAddress","type":"address","internalType":"address"}],"outputs":[],"stateMutability":"nonpayable"},{"type":"function","name":"slashEquivocationFinalize","inputs":[{"name":"evidence","type":"bytes","internalType":"bytes"},{"name":"pkUncompressed","type":"bytes","internalType":"bytes"},{"name":"sig1Uncompressed","type":"bytes","internalType":"bytes"},{"name":"sig2Uncompressed","type":"bytes","internalType":"bytes"}],"outputs":[],"stateMutability":"nonpayable"},{"type":"function","name":"slashEquivocationNotarize","inputs":[{"name":"evidence","type":"bytes","internalType":"bytes"},{"name":"pkUncompressed","type":"bytes","internalType":"bytes"},{"name":"sig1Uncompressed","type":"bytes","internalType":"bytes"},{"name":"sig2Uncompressed","type":"bytes","internalType":"bytes"}],"outputs":[],"stateMutability":"nonpayable"},{"type":"function","name":"slashEquivocationNullifyFinalize","inputs":[{"name":"evidence","type":"bytes","internalType":"bytes"},{"name":"pkUncompressed","type":"bytes","internalType":"bytes"},{"name":"sig1Uncompressed","type":"bytes","internalType":"bytes"},{"name":"sig2Uncompressed","type":"bytes","internalType":"bytes"}],"outputs":[],"stateMutability":"nonpayable"},{"type":"function","name":"transferOwnership","inputs":[{"name":"newOwner","type":"address","internalType":"address"}],"outputs":[],"stateMutability":"nonpayable"},{"type":"function","name":"undelegate","inputs":[{"name":"validatorAddress","type":"address","internalType":"address"},{"name":"amount","type":"uint256","internalType":"uint256"}],"outputs":[],"stateMutability":"nonpayable"},{"type":"function","name":"upgradeToAndCall","inputs":[{"name":"newImplementation","type":"address","internalType":"address"},{"name":"data","type":"bytes","internalType":"bytes"}],"outputs":[],"stateMutability":"payable"},{"type":"event","name":"Claimed","inputs":[{"name":"validator","type":"address","indexed":true,"internalType":"address"},{"name":"staker","type":"address","indexed":true,"internalType":"address"},{"name":"amount","type":"uint256","indexed":false,"internalType":"uint256"},{"name":"epoch","type":"uint64","indexed":false,"internalType":"uint64"}],"anonymous":false},{"type":"event","name":"ConsensusKeysSet","inputs":[{"name":"validator","type":"address","indexed":true,"internalType":"address"},{"name":"blsPubkey","type":"bytes","indexed":false,"internalType":"bytes"},{"name":"peerPubkey","type":"bytes32","indexed":false,"internalType":"bytes32"},{"name":"activationEpoch","type":"uint64","indexed":false,"internalType":"uint64"}],"anonymous":false},{"type":"event","name":"Delegated","inputs":[{"name":"validator","type":"address","indexed":true,"internalType":"address"},{"name":"staker","type":"address","indexed":true,"internalType":"address"},{"name":"amount","type":"uint256","indexed":false,"internalType":"uint256"},{"name":"epoch","type":"uint64","indexed":false,"internalType":"uint64"}],"anonymous":false},{"type":"event","name":"EpochCommitteeCommitted","inputs":[{"name":"epoch","type":"uint64","indexed":true,"internalType":"uint64"},{"name":"committee","type":"address[]","indexed":false,"internalType":"address[]"}],"anonymous":false},{"type":"event","name":"EquivocationSlashed","inputs":[{"name":"validator","type":"address","indexed":true,"internalType":"address"},{"name":"epoch","type":"uint64","indexed":false,"internalType":"uint64"},{"name":"reporter","type":"address","indexed":true,"internalType":"address"}],"anonymous":false},{"type":"event","name":"Initialized","inputs":[{"name":"version","type":"uint64","indexed":false,"internalType":"uint64"}],"anonymous":false},{"type":"event","name":"OwnershipTransferStarted","inputs":[{"name":"previousOwner","type":"address","indexed":true,"internalType":"address"},{"name":"newOwner","type":"address","indexed":true,"internalType":"address"}],"anonymous":false},{"type":"event","name":"OwnershipTransferred","inputs":[{"name":"previousOwner","type":"address","indexed":true,"internalType":"address"},{"name":"newOwner","type":"address","indexed":true,"internalType":"address"}],"anonymous":false},{"type":"event","name":"Redelegated","inputs":[{"name":"validator","type":"address","indexed":true,"internalType":"address"},{"name":"staker","type":"address","indexed":true,"internalType":"address"},{"name":"amount","type":"uint256","indexed":false,"internalType":"uint256"},{"name":"dust","type":"uint256","indexed":false,"internalType":"uint256"},{"name":"epoch","type":"uint64","indexed":false,"internalType":"uint64"}],"anonymous":false},{"type":"event","name":"Undelegated","inputs":[{"name":"validator","type":"address","indexed":true,"internalType":"address"},{"name":"staker","type":"address","indexed":true,"internalType":"address"},{"name":"amount","type":"uint256","indexed":false,"internalType":"uint256"},{"name":"epoch","type":"uint64","indexed":false,"internalType":"uint64"}],"anonymous":false},{"type":"event","name":"Upgraded","inputs":[{"name":"implementation","type":"address","indexed":true,"internalType":"address"}],"anonymous":false},{"type":"event","name":"ValidatorAdded","inputs":[{"name":"validator","type":"address","indexed":true,"internalType":"address"},{"name":"owner","type":"address","indexed":true,"internalType":"address"},{"name":"status","type":"uint8","indexed":false,"internalType":"uint8"},{"name":"commissionRate","type":"uint16","indexed":false,"internalType":"uint16"}],"anonymous":false},{"type":"event","name":"ValidatorDeposited","inputs":[{"name":"validator","type":"address","indexed":true,"internalType":"address"},{"name":"amount","type":"uint256","indexed":false,"internalType":"uint256"},{"name":"epoch","type":"uint64","indexed":false,"internalType":"uint64"}],"anonymous":false},{"type":"event","name":"ValidatorJailed","inputs":[{"name":"validator","type":"address","indexed":true,"internalType":"address"},{"name":"epoch","type":"uint64","indexed":false,"internalType":"uint64"}],"anonymous":false},{"type":"event","name":"ValidatorModified","inputs":[{"name":"validator","type":"address","indexed":true,"internalType":"address"},{"name":"owner","type":"address","indexed":true,"internalType":"address"},{"name":"status","type":"uint8","indexed":false,"internalType":"uint8"},{"name":"commissionRate","type":"uint16","indexed":false,"internalType":"uint16"}],"anonymous":false},{"type":"event","name":"ValidatorOwnerClaimed","inputs":[{"name":"validator","type":"address","indexed":true,"internalType":"address"},{"name":"amount","type":"uint256","indexed":false,"internalType":"uint256"},{"name":"epoch","type":"uint64","indexed":false,"internalType":"uint64"}],"anonymous":false},{"type":"event","name":"ValidatorReleased","inputs":[{"name":"validator","type":"address","indexed":true,"internalType":"address"},{"name":"epoch","type":"uint64","indexed":false,"internalType":"uint64"}],"anonymous":false},{"type":"event","name":"ValidatorRemoved","inputs":[{"name":"validator","type":"address","indexed":true,"internalType":"address"}],"anonymous":false},{"type":"event","name":"ValidatorSlashed","inputs":[{"name":"validator","type":"address","indexed":true,"internalType":"address"},{"name":"slashes","type":"uint32","indexed":false,"internalType":"uint32"},{"name":"epoch","type":"uint64","indexed":false,"internalType":"uint64"}],"anonymous":false},{"type":"error","name":"AddressEmptyCode","inputs":[{"name":"target","type":"address","internalType":"address"}]},{"type":"error","name":"AddressInsufficientBalance","inputs":[{"name":"account","type":"address","internalType":"address"}]},{"type":"error","name":"AlreadySlashedForEquivocation","inputs":[{"name":"validator","type":"address","internalType":"address"}]},{"type":"error","name":"AmountTooLow","inputs":[{"name":"amount","type":"uint256","internalType":"uint256"}]},{"type":"error","name":"BadCommissionRate","inputs":[{"name":"commissionRate","type":"uint16","internalType":"uint16"}]},{"type":"error","name":"BadShareDistribution","inputs":[{"name":"shareDistribution","type":"uint16","internalType":"uint16"}]},{"type":"error","name":"BlsVerifierNotConfigured","inputs":[]},{"type":"error","name":"CommitteeLengthMismatch","inputs":[{"name":"expected","type":"uint256","internalType":"uint256"},{"name":"got","type":"uint256","internalType":"uint256"}]},{"type":"error","name":"CommitteeMemberKeyless","inputs":[{"name":"validator","type":"address","internalType":"address"}]},{"type":"error","name":"CommitteeMemberNotInActiveSet","inputs":[{"name":"validator","type":"address","internalType":"address"}]},{"type":"error","name":"CommitteeNotStrictlyAscending","inputs":[{"name":"validator","type":"address","internalType":"address"}]},{"type":"error","name":"ConsensusKeysAlreadySet","inputs":[{"name":"validator","type":"address","internalType":"address"}]},{"type":"error","name":"ConsensusKeysNotSet","inputs":[{"name":"validator","type":"address","internalType":"address"}]},{"type":"error","name":"DelegationQueueEmpty","inputs":[]},{"type":"error","name":"DelegationQueueNotEmpty","inputs":[{"name":"delegationQueue","type":"uint256","internalType":"uint256"}]},{"type":"error","name":"DepositIsZero","inputs":[]},{"type":"error","name":"ERC1967InvalidImplementation","inputs":[{"name":"implementation","type":"address","internalType":"address"}]},{"type":"error","name":"ERC1967NonPayable","inputs":[]},{"type":"error","name":"EpochCommitteeNotCommitted","inputs":[{"name":"epoch","type":"uint64","internalType":"uint64"}]},{"type":"error","name":"EpochIsNotReady","inputs":[{"name":"epoch","type":"uint64","internalType":"uint64"}]},{"type":"error","name":"EpochNotYetCommittable","inputs":[{"name":"target","type":"uint64","internalType":"uint64"},{"name":"currentEpoch","type":"uint64","internalType":"uint64"}]},{"type":"error","name":"EquivocationKeyMismatch","inputs":[]},{"type":"error","name":"EquivocationSignatureInvalid","inputs":[]},{"type":"error","name":"EvidenceDecoderNotConfigured","inputs":[]},{"type":"error","name":"FailedInnerCall","inputs":[]},{"type":"error","name":"InitialStakeTooLow","inputs":[{"name":"initialStake","type":"uint256","internalType":"uint256"}]},{"type":"error","name":"InsufficientBalance","inputs":[]},{"type":"error","name":"InvalidClaimEpoch","inputs":[]},{"type":"error","name":"InvalidConsensusKeyEncoding","inputs":[]},{"type":"error","name":"InvalidEpoch","inputs":[]},{"type":"error","name":"InvalidInitialization","inputs":[]},{"type":"error","name":"InvalidProofOfPossession","inputs":[{"name":"validator","type":"address","internalType":"address"}]},{"type":"error","name":"MalformedInitialBalance","inputs":[]},{"type":"error","name":"MalformedInputLength","inputs":[]},{"type":"error","name":"NotActiveValidator","inputs":[]},{"type":"error","name":"NotEnoughBalance","inputs":[]},{"type":"error","name":"NotEnoughShares","inputs":[{"name":"requiredShares","type":"uint256","internalType":"uint256"}]},{"type":"error","name":"NotInitializing","inputs":[]},{"type":"error","name":"NotPendingValidator","inputs":[{"name":"validator","type":"address","internalType":"address"}]},{"type":"error","name":"NothingToClaim","inputs":[]},{"type":"error","name":"NothingToUnstake","inputs":[]},{"type":"error","name":"OnlyCoinbase","inputs":[]},{"type":"error","name":"OnlyGovernance","inputs":[]},{"type":"error","name":"OnlyLivenessSlashing","inputs":[]},{"type":"error","name":"OnlyStakingContract","inputs":[]},{"type":"error","name":"OnlySystemCall","inputs":[]},{"type":"error","name":"OnlyValidatorOwner","inputs":[{"name":"validator","type":"address","internalType":"address"}]},{"type":"error","name":"OnlyZeroGasPrice","inputs":[]},{"type":"error","name":"OwnableInvalidOwner","inputs":[{"name":"owner","type":"address","internalType":"address"}]},{"type":"error","name":"OwnableUnauthorizedAccount","inputs":[{"name":"account","type":"address","internalType":"address"}]},{"type":"error","name":"OwnerCantBeZero","inputs":[]},{"type":"error","name":"OwnerSelfStakeBelowMinimum","inputs":[]},{"type":"error","name":"PeerPubkeyAlreadyInUse","inputs":[{"name":"peerPubkey","type":"bytes32","internalType":"bytes32"}]},{"type":"error","name":"PendingUndelegate","inputs":[]},{"type":"error","name":"SafeERC20FailedOperation","inputs":[{"name":"token","type":"address","internalType":"address"}]},{"type":"error","name":"SafeTransferFailed","inputs":[]},{"type":"error","name":"SignerIndexOutOfRange","inputs":[{"name":"epoch","type":"uint64","internalType":"uint64"},{"name":"signerIdx","type":"uint32","internalType":"uint32"},{"name":"committeeLen","type":"uint256","internalType":"uint256"}]},{"type":"error","name":"StillInJail","inputs":[{"name":"validator","type":"address","internalType":"address"}]},{"type":"error","name":"UUPSUnauthorizedCallContext","inputs":[]},{"type":"error","name":"UUPSUnsupportedProxiableUUID","inputs":[{"name":"slot","type":"bytes32","internalType":"bytes32"}]},{"type":"error","name":"UnsafeTransferFailed","inputs":[]},{"type":"error","name":"ValidatorAlreadyExists","inputs":[{"name":"validator","type":"address","internalType":"address"}]},{"type":"error","name":"ValidatorHasActiveDelegations","inputs":[{"name":"validator","type":"address","internalType":"address"}]},{"type":"error","name":"ValidatorNotFound","inputs":[{"name":"validator","type":"address","internalType":"address"}]},{"type":"error","name":"ValidatorNotInJail","inputs":[{"name":"validator","type":"address","internalType":"address"}]},{"type":"error","name":"ValidatorOwnerAlreadyInUse","inputs":[{"name":"validator","type":"address","internalType":"address"}]},{"type":"error","name":"WrongAmountPrecision","inputs":[]},{"type":"error","name":"ZeroAmount","inputs":[]},{"type":"error","name":"ZeroCommissionRate","inputs":[]},{"type":"error","name":"ZeroInitialStake","inputs":[]},{"type":"error","name":"ZeroOwner","inputs":[]},{"type":"error","name":"ZeroValidator","inputs":[]}],"bytecode":{"object":"0x610180346102e757601f61533838819003918201601f19168301916001600160401b038311848410176102eb5780849260e0946040528339810103126102e7578051906001600160a01b03821682036102e75760208101516001600160a01b03811681036102e75760408201516001600160a01b03811681036102e7576060830151906001600160a01b03821682036102e7576080840151926001600160a01b03841684036102e75760a0850151946001600160a01b03861686036102e75760c00151956001600160a01b03871687036102e7573060805260a05260c05260e0526101005261012052610140525f5160206153185f395f51905f525460ff8160401c166102d8576002600160401b03196001600160401b03821601610282575b5061016052604051615018908161030082396080518181816117b60152613871015260a05181611bb5015260c051818181611b710152818161265601526131f4015260e05181610fa001526101005181818161097201528181610bc901528181610c56015281816112f801526126ea0152610120518181816107c801528181610b2301528181610e3301528181610ee3015281816115710152818161172d01528181611831015281816118e301528181611d0b015281816120040152818161216e015281816122b70152818161259a015281816125fd0152818161281e0152818161287f0152818161299301528181612df401528181612ef3015281816130cd0152818161319b01526147050152610140518181816107f901528181610e12015281816110b20152818161214d015281816121ab0152818161262e01528181612e67015281816130fe015281816131cc015261365e015261016051816128d80152f35b6001600160401b0319166001600160401b039081175f5160206153185f395f51905f52556040519081527fc7f505b2f371ae2175ee4913f4499e1f2633a7b5936321eed1cdaeb6115181d290602090a15f61011f565b63f92ee8a960e01b5f5260045ffd5b5f80fd5b634e487b7160e01b5f52604160045260245ffdfe60806040526004361015610011575f80fd5b5f3560e01c806252c9e1146103c357806301f6bb50146103be578063026e402b146103b957806314f8649f146103b45780631fe97684146103af578063225cba85146103aa578063289b3c0d146103a557806330108c22146103a057806340a141ff1461039b578063426594b11461039657806342ad55ac14610391578063457179fd1461038c578063459463341461038757806347e7ef241461038257806348124d261461037d5780634d238c8e146103785780634d99dd16146103735780634f1ef2861461036e57806352b7bea21461036957806352d1902d146103645780635ef9e8c61461035f578063606c0c941461035a578063715018a61461035557806373a3dda614610350578063766718081461034b57806379ba5097146103465780637a37cc59146103415780637b1391a61461033c5780637cfba9f31461033757806380b562de1461033257806387401d8a1461032d5780638bd070e4146103285780638da5cb5b146103235780638ecb3fc91461031e5780639f9106d114610319578063a10827e914610314578063a310624f1461030f578063ad36f42f1461030a578063ad3cb1cc14610305578063add07a3e14610300578063adf2a79c146102fb578063aea0e78b146102f6578063b46e5520146102f1578063b7ab4db5146102ec578063c06a82de146102e7578063c2fd58fc146102e2578063c6fb9065146102dd578063c96be4cb146102d8578063d41c52eb146102d3578063d7f1733d146102ce578063d951e186146102c9578063dd0fb5df146102c4578063e28d2f63146102bf578063e30c3978146102ba578063e3e6cedc146102b5578063f2fde38b146102b0578063facd743b146102ab578063fe38ebef146102a65763ff4794fc146102a1575f80fd5b613152565b613092565b61301f565b612f97565b612f4f565b612f1b565b612eaa565b612db4565b612d82565b612cb4565b612b6e565b6128b9565b612846565b6127f6565b6127c4565b612792565b6126c7565b6126aa565b6125c2565b612551565b61250a565b6123e0565b6122f6565b61226e565b612196565b6120f9565b6120c5565b61207c565b611f41565b611eaa565b611ce9565b611ba0565b611b5c565b611b10565b611ae5565b611981565b611912565b6118ce565b61180a565b6117a4565b611705565b61168b565b611525565b6112d5565b61115b565b610fcf565b610f8b565b610eaa565b610e79565b610dbe565b610c33565b610bf8565b610bb4565b610a98565b61094f565b61085f565b61077c565b6105dc565b610405565b6001600160a01b038116036103d957565b5f80fd5b60409060031901126103d9576004356103f5816103c8565b90602435610402816103c8565b90565b346103d9576104ee5f516020614f035f395f51905f52610424366103dd565b61056661054a61053c61044061043b86979661323a565b61330a565b61051987610514604084019761046b838a5161045b816132f4565b610464816132f4565b1515613389565b6105036104f3602087019d8e61049b61048a825160018060a01b031690565b6001600160a01b03811633146133b1565b6104af6001600160a01b03861615156133d9565b6104e1876104db6104cf6104c28961325f565b546001600160a01b031690565b6001600160a01b031690565b156133ef565b516001600160a01b031690565b61325f565b80546001600160a01b0319169055565b6001600160a01b0381168c5261325f565b613435565b6104e18161053761053161052b613e94565b83613ec8565b9961323a565b613454565b95516001600160a01b031690565b915193610556856132f4565b61055f856132f4565b5460f01c90565b6040516001600160a01b03928316959092169382916105859183613552565b0390a3005b9181601f840112156103d9578235916001600160401b0383116103d9576020808501948460051b0101116103d957565b6064359061ffff821682036103d957565b6024359061ffff821682036103d957565b346103d95760803660031901126103d9576004356105f9816103c8565b6024356001600160401b0381116103d95761061890369060040161058a565b6044929192356001600160401b0381116103d95761063a90369060040161058a565b906106436105ba565b925f516020614fa35f395f51905f5254956001600160401b036106816106746106708a60ff9060401c1690565b1590565b986001600160401b031690565b1680159081610774575b600114908161076a575b159081610761575b50610752576106e095876106d760016001600160401b03195f516020614fa35f395f51905f525416175f516020614fa35f395f51905f5255565b61072e576135e7565b6106e657005b5f516020614fa35f395f51905f52805460ff60401b19169055604051600181527fc7f505b2f371ae2175ee4913f4499e1f2633a7b5936321eed1cdaeb6115181d290602090a1005b5f516020614fa35f395f51905f52805460ff60401b1916600160401b1790556135e7565b63f92ee8a960e01b5f5260045ffd5b9050155f61069d565b303b159150610695565b88915061068b565b346103d95760403660031901126103d957600435610799816103c8565b73__$1cd3066fe913aa9d2ac4c48f01e58e18c5$__90602435823b156103d957604051634498f72b60e11b81527f00000000000000000000000000000000000000000000000000000000000000006001600160a01b0390811660048301527f00000000000000000000000000000000000000000000000000000000000000008116602483015290921660448301526064820152905f90829060849082905af4801561085a5761084457005b806108525f6108589361162f565b80610baa565b005b6136f6565b346103d95760403660031901126103d95760043561087c816103c8565b6108846105cb565b61089781610bb861ffff82161115613701565b5f516020614f035f395f51905f526108b161043b8461323a565b9161091861090a60408501946108cc87875161045b816132f4565b6104e18161053760208201996108eb61048a8c5160018060a01b031690565b610905886109006108fa613e94565b86613ec8565b613720565b61323a565b94516001600160a01b031690565b925192610924846132f4565b61092d846132f4565b6040516001600160a01b03918216959091169390918291610585919083613552565b346103d95760203660031901126103d95760043561096c816103c8565b6109a0337f00000000000000000000000000000000000000000000000000000000000000006001600160a01b031614613743565b6001600160a01b0381165f8181525f516020614f235f395f51905f52602052604090205f516020614f035f395f51905f52906109db9061330a565b610a50610a3b60206040840193610a07600186516109f8816132f4565b610a01816132f4565b146144e4565b610a1088614a1b565b600285525b610a2d81610537610a2761052b613e94565b9a61323a565b01516001600160a01b031690565b915194610a47866132f4565b61055f866132f4565b6040516001600160a01b039092169482916105859183613552565b9181601f840112156103d9578235916001600160401b0383116103d957602083818601950101116103d957565b346103d95760803660031901126103d957600435610ab5816103c8565b6024356001600160401b0381116103d957610ad4903690600401610a6b565b906044356001600160401b0381116103d957610af4903690600401610a6b565b93909273__$c0ca080a98cf238f72f7f61cbbb953094a$__91823b156103d95760405163dcf44cad60e01b81527f00000000000000000000000000000000000000000000000000000000000000006001600160a01b039081166004830152909116602482015260a06044820152945f94869485938493610b9293929091610b809160a487019190613759565b84810360031901606486015291613759565b606435608483015203915af4801561085a5761084457005b5f9103126103d957565b346103d9575f3660031901126103d9576040517f00000000000000000000000000000000000000000000000000000000000000006001600160a01b03168152602090f35b346103d95760203660031901126103d9576020600435610c17816103c8565b6001600160a01b0390610c299061325f565b5416604051908152f35b346103d95760203660031901126103d957600435610c50816103c8565b610c84337f00000000000000000000000000000000000000000000000000000000000000006001600160a01b031614613743565b610d98610d8760018060a01b03831692835f525f516020614f235f395f51905f526020526109056104f36104ee60405f20610d7e85610d78604051610cc8816115d9565b60018060a01b038554168152610d6a836001870154610d60610d506002602087019a60018060a01b0385168c52610d2f610d1f60408a0196610d1060ff8260a01c16896132fe565b60a81c6001600160401b031690565b6001600160401b031660608a0152565b01546001600160401b03811660808801525b60401c6001600160401b031690565b6001600160401b031660a0860152565b5161045b816132f4565b610d726146f6565b90614ba7565b156144fa565b6104e185614a1b565b60025f918281558260018201550155565b7fe1434e25d6611e0db941968fdc97811c982ac1602e951637d206f5fdda9dd8f15f80a2005b346103d9575f60203660031901126103d957600435610ddc816103c8565b73__$1cd3066fe913aa9d2ac4c48f01e58e18c5$__803b156103d957610e5b915f9160405180809581946311e4ddaf60e31b83527f00000000000000000000000000000000000000000000000000000000000000007f000000000000000000000000000000000000000000000000000000000000000060048501613779565b03915af4801561085a57610e6d575080f35b61085891505f9061162f565b346103d95760203660031901126103d9576020610ea0600435610e9b816103c8565b6137b0565b6040519015158152f35b346103d95760203660031901126103d957610f1d6020600435610ecc816103c8565b60405163e61e2bff60e01b81526001600160a01b037f000000000000000000000000000000000000000000000000000000000000000081166004830152909116602482015291829081906044820190565b038173__$1cd3066fe913aa9d2ac4c48f01e58e18c5$__5af4801561085a57610f58915f91610f5c575b506040519081529081906020820190565b0390f35b610f7e915060203d602011610f84575b610f76818361162f565b810190613838565b5f610f47565b503d610f6c565b346103d9575f3660031901126103d9576040517f00000000000000000000000000000000000000000000000000000000000000006001600160a01b03168152602090f35b346103d95760403660031901126103d957600435610fec816103c8565b60243590413303611116573a6111075781156110f8577f9fce3fb7dc05df2879421f9d9c06784dad3d39aba44c0c1ee0b9d094e76550059060018060a01b03811692835f525f516020614f235f395f51905f5260205261106061105160405f2061330a565b92604084015161045b816132f4565b6110aa61107561106e6146f6565b8094613ec8565b805461108d906001600160601b03858116911661452d565b81546001600160601b0319166001600160601b0391909116179055565b6110d68130337f000000000000000000000000000000000000000000000000000000000000000061442b565b604080519182526001600160401b03909216602082015290819081015b0390a2005b63b288589b60e01b5f5260045ffd5b6383f1b1d360e01b5f5260045ffd5b63022d8c9560e31b5f5260045ffd5b6001600160401b038116036103d957565b60409060031901126103d95760043561114e816103c8565b9060243561040281611125565b346103d95761116936611136565b9060018060a01b03165f525f516020614f235f395f51905f5260205261119b61119460405f2061330a565b918261456a565b6020820151909190610f58906001600160a01b0316916040810151936111c0856132f4565b6111c9856132f4565b60208101516111f1906111ec906001600160701b03165b6001600160701b031690565b613847565b91611203604083015163ffffffff1690565b9061121860608201516001600160401b031690565b61124060a061123160808501516001600160401b031690565b9301516001600160401b031690565b92611261611253606087015161ffff1690565b95516001600160601b031690565b604080516001600160a01b03909a168a5260ff909a1660208a01529888019590955263ffffffff9490941660608701526001600160401b039384166080870152831660a086015290911660c084015261ffff1660e08301526001600160601b03909216610100820152908190610120820190565b346103d95760203660031901126103d9576004356112f2816103c8565b611326337f00000000000000000000000000000000000000000000000000000000000000006001600160a01b031614613743565b6114d46113396113346146f6565b613b1c565b6001600160a01b038316929061135984151561135481613fa4565b613fba565b6113645f5b15613e7e565b6001600160401b038116806114fd575b506113805f6001613701565b6113e561138f61043b8461323a565b6113cd6001604083016113b68782516113a7816132f4565b6113b0816132f4565b15613fe6565b6001600160a01b03871680855260208501526132fe565b6001600160401b03831660608201526105378461323a565b6113f8826104db6104cf6104c28361325f565b611405826105148161325f565b61140f60016132f4565b611418826139ff565b6114cf6114986114275f6111e0565b9361147a611433611650565b5f81526001600160701b03871660208201525f6040820181905260608201526114758661145f85613297565b906001600160401b03165f5260205260405f2090565b61402c565b611483816132bc565b9060018060a01b03165f5260205260405f2090565b916114a583548015614098565b6114bf6114b0611661565b6001600160701b039095168552565b6001600160401b03166020840152565b6140b2565b6114de60016132f4565b805f516020614e835f395f51905f52604051806105855f600183613552565b61151f9061151861150c613e94565b6001600160401b031690565b1015613fd0565b5f611374565b346103d95760403660031901126103d957600435611542816103c8565b73__$1cd3066fe913aa9d2ac4c48f01e58e18c5$__90602435823b156103d9576040516304e6b02160e51b81527f00000000000000000000000000000000000000000000000000000000000000006001600160a01b03908116600483015290921660248301526044820152905f90829060649082905af4801561085a5761084457005b634e487b7160e01b5f52604160045260245ffd5b60c081019081106001600160401b038211176115f457604052565b6115c5565b606081019081106001600160401b038211176115f457604052565b608081019081106001600160401b038211176115f457604052565b90601f801991011681019081106001600160401b038211176115f457604052565b6040519061165f60808361162f565b565b6040519061165f60408361162f565b6001600160401b0381116115f457601f01601f191660200190565b60403660031901126103d9576004356116a3816103c8565b602435906001600160401b0382116103d957366023830112156103d9578160040135906116cf82611670565b916116dd604051938461162f565b80835236602482860101116103d9576020815f92602461085897018387013784010152613865565b346103d9576117556020611718366103dd565b604051635c345cf760e01b81529384928392907f000000000000000000000000000000000000000000000000000000000000000060048501613779565b038173__$1cd3066fe913aa9d2ac4c48f01e58e18c5$__5af4801561085a576020915f91611787575b50604051908152f35b61179e9150823d8411610f8457610f76818361162f565b5f61177e565b346103d9575f3660031901126103d9577f00000000000000000000000000000000000000000000000000000000000000006001600160a01b031630036117fb5760206040515f516020614f435f395f51905f528152f35b63703e46dd60e11b5f5260045ffd5b346103d957611859604061181d366103dd565b8251635f0243e360e11b81529384928392907f000000000000000000000000000000000000000000000000000000000000000060048501613779565b038173__$1cd3066fe913aa9d2ac4c48f01e58e18c5$__5af490811561085a575f905f92611894575b50604080519182526020820192909252f35b9150506040813d6040116118c6575b816118b06040938361162f565b810103126103d95760208151910151905f611882565b3d91506118a3565b346103d9575f3660031901126103d9576040517f00000000000000000000000000000000000000000000000000000000000000006001600160a01b03168152602090f35b346103d9575f3660031901126103d95761192a614650565b611932613417565b5f516020614ee35f395f51905f5280546001600160a01b031981169091555f906001600160a01b03167f8be0079c531659141344cd1fd0a4f28419497f9722a3daafe3b4186f6b6457e08280a3005b346103d95760203660031901126103d95760043561199e816103c8565b6001600160a01b0381165f9081527f96610efdc8a37de390ea3757bf0331faa3a74708adc53f30ba708302b0f55800602052604090205460ff16611aca57611a6f6119eb61043b8361323a565b611a6660408201611a128560038351611a03816132f4565b611a0c816132f4565b1461396a565b6020830151611a2c906001600160a01b03163381146133b1565b611a6085611a386146f6565b6001600160401b03611a5761150c60808901516001600160401b031690565b91161015613992565b60019052565b6105378361323a565b611a78816139ff565b7f7bd9ec00705b7640a93da0fcf84dc0bfce1b2c9a5146d548ab1dabd23322c9ac6110f3611aa46146f6565b6040516001600160401b0390911681526001600160a01b03909316929081906020820190565b638300031d60e01b5f526001600160a01b031660045260245ffd5b346103d9575f3660031901126103d9576020611aff6146f6565b6001600160401b0360405191168152f35b346103d9575f3660031901126103d9575f516020614fc35f395f51905f5254336001600160a01b0390911603611b495761085833614670565b63118cdaa760e01b5f523360045260245ffd5b346103d9575f3660031901126103d9576040517f00000000000000000000000000000000000000000000000000000000000000006001600160a01b03168152602090f35b346103d9575f3660031901126103d9576040517f00000000000000000000000000000000000000000000000000000000000000006001600160a01b03168152602090f35b90602080835192838152019201905f5b818110611c015750505090565b82516001600160a01b0316845260209384019390920191600101611bf4565b805180835260209291819084018484015e5f828201840152601f01601f1916010190565b9060406001600160401b0381611c638551606086526060860190611c20565b946020810151602086015201511691015290565b90611c8a90604083526040830190611be4565b906020818303910152815180825260208201916020808360051b8301019401925f915b838310611cbc57505050505090565b9091929394602080611cda600193601f198682030187528951611c44565b97019301930191939290611cad565b346103d95760203660031901126103d957611d2f600435611d0981611125565b7f0000000000000000000000000000000000000000000000000000000000000000614822565b611d398151613acd565b905f5b8151811015611e89576001600160a01b03611d57828461379c565b51165f525f516020614ea35f395f51905f5260205260405f2060405190611d7d826115f9565b6040515f82548060011c9060018116908115611e7f575b602083108214611e6b578285526020850191908115611e525750600114611e17575b50506002600195949383611dd2611dfb95611deb95038261162f565b855286810154602086015201546001600160401b031690565b6001600160401b03166040830152565b611e05828661379c565b52611e10818561379c565b5001611d3c565b909150611e27845f5260205f2090565b915f925b818410611e3e5750500160026001611db6565b600181602092548686015201930192611e2b565b60ff191682525090151560051b01905060026001611db6565b634e487b7160e01b5f52602260045260245ffd5b91607f1691611d94565b50610f5860405192839283611c77565b906020610402928181520190611be4565b346103d95760203660031901126103d9576001600160401b03600435611ecf81611125565b165f525f516020614ec35f395f51905f5260205260405f206040519081602082549182815201915f5260205f20905f5b818110611f2257610f5885611f168187038261162f565b60405191829182611e99565b82546001600160a01b0316845260209093019260019283019201611eff565b346103d95760203660031901126103d9576004356001600160401b0381116103d957611f7190369060040161058a565b6003600160a01b0319330161206d57611f886146f6565b91611fa75f516020614f635f395f51905f52546001600160401b031690565b90611fb461150c85613b1c565b6001600160401b03831690811161204b5761203c575f925b73__$c0ca080a98cf238f72f7f61cbbb953094a$__91823b156103d95761202c5f9560405197889687958695631792dc1560e31b87527f000000000000000000000000000000000000000000000000000000000000000060048801613b78565b03915af4801561085a5761084457005b61204582613b5a565b92611fcc565b631e559a0560e11b5f526001600160401b03808416600452851660245260445ffd5b633d45932f60e11b5f5260045ffd5b346103d9575f3660031901126103d9575f516020614f635f395f51905f52546001600160401b0316806120b557506040515f8152602090f35b6120c0602091613b5a565b611aff565b346103d9575f3660031901126103d9575f516020614ee35f395f51905f52546040516001600160a01b039091168152602090f35b346103d9575f60203660031901126103d957600435612117816103c8565b73__$1cd3066fe913aa9d2ac4c48f01e58e18c5$__803b156103d957610e5b915f916040518080958194637284855160e11b83527f00000000000000000000000000000000000000000000000000000000000000007f000000000000000000000000000000000000000000000000000000000000000060048501613779565b346103d9575f3660031901126103d9576040517f00000000000000000000000000000000000000000000000000000000000000006001600160a01b03168152602090f35b60806003198201126103d9576004356001600160401b0381116103d9578161220491600401610a6b565b929092916024356001600160401b0381116103d9578161222691600401610a6b565b929092916044356001600160401b0381116103d9578161224891600401610a6b565b92909291606435906001600160401b0382116103d95761226a91600401610a6b565b9091565b346103d95761227c366121da565b91969394929673__$c0ca080a98cf238f72f7f61cbbb953094a$__97883b156103d9575f966122df95604051998a98630817c25760e11b8a527f000000000000000000000000000000000000000000000000000000000000000060048b01613c02565b938180849603915af4801561085a57610e6d575080f35b346103d95760203660031901126103d95761231961043b600435610905816103c8565b805161232d906001600160a01b0316613297565b90610f58612367612362606084019461234d86516001600160401b031690565b6001600160401b03165f5260205260405f2090565b613c5d565b60208301519092906001600160a01b031692604082015194612388866132f4565b612391866132f4565b60208201516123ac906111ec906001600160701b03166111e0565b926112186123c1604085015163ffffffff1690565b92516001600160401b031690565b906020610402928181520190611c44565b346103d95760203660031901126103d9576004356123fd816103c8565b612405613aae565b5060018060a01b03165f525f516020614ea35f395f51905f5260205260405f20604051612431816115f9565b6040515f83548060011c9060018116908115612500575b602083108214611e6b5782855260208501919081156124e657506001146124aa575b610f588561249e611deb60028a89612484818b038261162f565b85526001810154602086015201546001600160401b031690565b604051918291826123cf565b9091506124ba855f5260205f2090565b915f925b8184106124d2575050016002610f5861246a565b8054848401526020909301926001016124be565b60ff191682525090151560051b0190506002610f5861246a565b91607f1691612448565b346103d9575f3660031901126103d957610f5860405161252b60408261162f565b60058152640352e302e360dc1b6020820152604051918291602083526020830190611c20565b346103d95761255f366121da565b91969394929673__$c0ca080a98cf238f72f7f61cbbb953094a$__97883b156103d9575f966122df95604051998a98633bd68e1f60e21b8a527f000000000000000000000000000000000000000000000000000000000000000060048b01613c02565b346103d9576125d036611136565b9073__$1cd3066fe913aa9d2ac4c48f01e58e18c5$__91823b156103d95760405163c5d0132d60e01b81527f00000000000000000000000000000000000000000000000000000000000000006001600160a01b0390811660048301527f0000000000000000000000000000000000000000000000000000000000000000811660248301527f00000000000000000000000000000000000000000000000000000000000000008116604483015290921660648301526001600160401b03166084820152905f90829060a49082905af4801561085a5761084457005b346103d9575f3660031901126103d9576020611aff6113346146f6565b346103d95760203660031901126103d9576004356126e4816103c8565b612718337f00000000000000000000000000000000000000000000000000000000000000006001600160a01b031614613743565b6001600160a01b0381165f8181525f516020614f235f395f51905f52602052604090205f516020614f035f395f51905f52906127539061330a565b610a50610a3b602060408401936127808860028751612771816132f4565b61277a816132f4565b14614998565b612789886139ff565b60018552610a15565b346103d9575f3660031901126103d957610f586127b0611d096146f6565b604051918291602083526020830190611be4565b346103d9575f3660031901126103d95760206001600160401b035f516020614f635f395f51905f525416604051908152f35b346103d9576117556020612809366103dd565b60405163ca55139b60e01b81529384928392907f000000000000000000000000000000000000000000000000000000000000000060048501613779565b346103d95760203660031901126103d957610f1d6020600435612868816103c8565b604051632c9737fb60e21b81526001600160a01b037f000000000000000000000000000000000000000000000000000000000000000081166004830152909116602482015291829081906044820190565b346103d95760203660031901126103d9576004356128d6816103c8565b7f00000000000000000000000000000000000000000000000000000000000000006001600160a01b03163303612b5f5761291261043b8261323a565b604081019161292681845161045b816132f4565b61292e6146f6565b906129398284613ec8565b93612977612957612952875463ffffffff9060d01c1690565b6149c0565b865463ffffffff60d01b191660d082901b63ffffffff60d01b1617909655565b612984846105378461323a565b6040516317c332e760e31b81527f00000000000000000000000000000000000000000000000000000000000000006001600160a01b03169490602081600481895afa801561085a5763ffffffff915f91612b40575b501663ffffffff871614612a3f575b50506040805163ffffffff90951685526001600160401b0390921660208501526001600160a01b0316927ff30f0392d5346908bf200bc0924d0c9860e22d46fc606e979a2e14fff24c62b9925090819081016110f3565b6004946020612a4c6146f6565b9160405197888092630d97cd9b60e31b82525afa92831561085a57612abb612aab612ac19363ffffffff612aca977ff30f0392d5346908bf200bc0924d0c9860e22d46fc606e979a2e14fff24c62b99b5f91612b11575b501690613b3a565b6001600160401b03166080850152565b60039052565b611a6683614a1b565b6040516001600160401b03831681526001600160a01b038216907f6acc1079130362b805ce4a8874346d4ee8893d55f223e378ddc73031ce427eab90602090a25f806129e8565b612b33915060203d602011612b39575b612b2b818361162f565b8101906146e1565b5f612aa3565b503d612b21565b612b59915060203d602011612b3957612b2b818361162f565b5f6129d9565b635e2569d960e11b5f5260045ffd5b346103d9575f3660031901126103d957612b89611d096146f6565b612b938151613acd565b905f5b8151811015611e89576001600160a01b03612bb1828461379c565b51165f525f516020614ea35f395f51905f5260205260405f2060405190612bd7826115f9565b6040515f82548060011c9060018116908115612c9c575b602083108214611e6b578285526020850191908115612c835750600114612c48575b50506002600195949383611dd2612c2c95611deb95038261162f565b612c36828661379c565b52612c41818561379c565b5001612b96565b909150612c58845f5260205f2090565b915f925b818410612c6f5750500160026001612c10565b600181602092548686015201930192612c5c565b60ff191682525090151560051b01905060026001612c10565b91607f1691612bee565b63ffffffff8116036103d957565b346103d95760403660031901126103d957600435612cd181611125565b6001600160401b0360243591612ce683612ca6565b16805f525f516020614ec35f395f51905f5260205260405f20908154908115612d705763ffffffff84169082821015612d5857610f58612d3e612d2987876139ea565b905460039190911b1c6001600160a01b031690565b6040516001600160a01b0390911681529081906020820190565b632fdbfd3160e21b5f5260045260245260445260645ffd5b6316b38b6f60e01b5f5260045260245ffd5b346103d957612d99612d93366103dd565b90613d55565b604080519283526001600160401b0391909116602083015290f35b346103d95760603660031901126103d957600435612dd1816103c8565b612dd96105cb565b90604435604051636f85684760e01b815290916020826004817f00000000000000000000000000000000000000000000000000000000000000006001600160a01b03165afa91821561085a5761085894612e4385612e639581945f91612e8b575b50811015613e64565b612e536402540be400830661135e565b612e5b613e94565b923390614124565b30337f000000000000000000000000000000000000000000000000000000000000000061442b565b612ea4915060203d602011610f8457610f76818361162f565b5f612e3a565b346103d957612eb8366121da565b91969394929673__$c0ca080a98cf238f72f7f61cbbb953094a$__97883b156103d9575f966122df95604051998a9863a757204960e01b8a527f000000000000000000000000000000000000000000000000000000000000000060048b01613c02565b346103d9575f3660031901126103d9575f516020614fc35f395f51905f52546040516001600160a01b039091168152602090f35b346103d95760203660031901126103d9576001600160401b03600435612f7481611125565b165f525f516020614ec35f395f51905f52602052602060405f2054604051908152f35b346103d95760203660031901126103d957600435612fb4816103c8565b612fbc614650565b5f516020614fc35f395f51905f5280546001600160a01b0319166001600160a01b039283169081179091555f516020614ee35f395f51905f52549091167f38d16b8cac22d99fc7c124b9cd0de2d3fa1faef420bfe791d8c362d765e227005f80a3005b346103d95760203660031901126103d95760043561303c816103c8565b6001600160a01b03165f9081525f516020614f235f395f51905f52602052604090206001015460a01c60ff16600481101561307e576040519015158152602090f35b634e487b7160e01b5f52602160045260245ffd5b346103d9576130a036611136565b9073__$1cd3066fe913aa9d2ac4c48f01e58e18c5$__91823b156103d9576040516304c5372960e01b81527f00000000000000000000000000000000000000000000000000000000000000006001600160a01b0390811660048301527f00000000000000000000000000000000000000000000000000000000000000008116602483015290921660448301526001600160401b03166064820152905f90829060849082905af4801561085a5761084457005b346103d95760203660031901126103d95760043561316f816103c8565b73__$1cd3066fe913aa9d2ac4c48f01e58e18c5$__90813b156103d957604051635154d80160e11b81527f00000000000000000000000000000000000000000000000000000000000000006001600160a01b0390811660048301527f0000000000000000000000000000000000000000000000000000000000000000811660248301527f0000000000000000000000000000000000000000000000000000000000000000811660448301529091166064820152905f90829060849082905af4801561085a5761084457005b6001600160a01b03165f9081525f516020614f235f395f51905f526020526040902090565b6001600160a01b03165f9081527f4102a9ba7244b40639ebe412c7bfc792b19c048efdf631bf4f130fef80c0df016020526040902090565b6001600160a01b03165f9081525f516020614f835f395f51905f526020526040902090565b6001600160a01b03165f9081527f4102a9ba7244b40639ebe412c7bfc792b19c048efdf631bf4f130fef80c0df036020526040902090565b6004111561307e57565b600482101561307e5752565b9061165f60405161331a816115d9565b60a061337b60028396600180851b0381541685526001600160401b03806001830154600180881b038116602089015261335b60ff82891c1660408a016132fe565b60a81c1616606086015201546001600160401b0381166080850152610d41565b6001600160401b0316910152565b156133915750565b635a4887e160e01b5f9081526001600160a01b0391909116600452602490fd5b156133b95750565b6359de29ed60e01b5f9081526001600160a01b0391909116600452602490fd5b156133e057565b6352afe97760e11b5f5260045ffd5b156133f75750565b63b5202b6360e01b5f9081526001600160a01b0391909116600452602490fd5b5f516020614fc35f395f51905f5280546001600160a01b0319169055565b80546001600160a01b0319166001600160a01b03909216919091179055565b815190919061346c906001600160a01b031683613435565b602081015160018301929061348a906001600160a01b031684613435565b6040820151600481101561307e57600481101561307e578354606084015167ffffffffffffffff60a81b60a89190911b1668ffffffffffffffffff60a01b1990911660ff60a01b60a093841b16171790935561165f9261352a916002019261351c6134ff60808301516001600160401b031690565b855467ffffffffffffffff19166001600160401b03909116178555565b01516001600160401b031690565b815467ffffffffffffffff60401b191660409190911b67ffffffffffffffff60401b16179055565b60ff909116815261ffff909116602082015260400190565b1561357157565b63612acc3960e11b5f5260045ffd5b634e487b7160e01b5f52603260045260245ffd5b91908110156135a45760051b0190565b613580565b35610402816103c8565b634e487b7160e01b5f52601160045260245ffd5b90600182018092116135d557565b6135b3565b919082018092116135d557565b939291936135f36149d8565b6135fb6149d8565b6136036149d8565b6001600160a01b038116156136e35761362190959493929195614670565b6136296149d8565b6136316149d8565b61363c83831461356a565b5f945f945b84861061368257505050505050806136565750565b61165f9030337f000000000000000000000000000000000000000000000000000000000000000061442b565b9091929394956136d76001916136c56136a461369f8b8b89613594565b6135a9565b856136b361369f8d8d8b613594565b6136be8d8c8c613594565b35926142b7565b6136d0898888613594565b35906135da565b96019493929190613641565b631e4fbdf760e01b5f525f60045260245ffd5b6040513d5f823e3d90fd5b156137095750565b61ffff906368ec6e2560e11b5f521660045260245ffd5b80546001600160f01b031660f09290921b6001600160f01b031916919091179055565b1561374a57565b6354348f0360e01b5f5260045ffd5b908060209392818452848401375f828201840152601f01601f1916010190565b6001600160a01b0391821681529181166020830152909116604082015260600190565b80518210156135a45760209160051b010190565b6001600160a01b03165f8181525f516020614f235f395f51905f526020526040902060019081015460a01c60ff166137e7816132f4565b03613833576137f4614522565b905f5b825181101561382c57816001600160a01b036138166104e1848761379c565b1614613824576001016137f7565b505050600190565b5050505f90565b505f90565b908160209103126103d9575190565b906402540be4008202918083046402540be40014901517156135d557565b90916001600160a01b037f000000000000000000000000000000000000000000000000000000000000000016308114908115613948575b506117fb576138a9614650565b6040516352d1902d60e01b8152926020846004816001600160a01b0387165afa5f9481613927575b506138f257634c9c8ce360e01b5f526001600160a01b03831660045260245ffd5b90915f516020614f435f395f51905f5284036139135761165f929350614b05565b632a87526960e21b5f52600484905260245ffd5b61394191955060203d602011610f8457610f76818361162f565b935f6138d1565b5f516020614f435f395f51905f52546001600160a01b0316141590505f61389c565b156139725750565b631bceedfb60e11b5f9081526001600160a01b0391909116600452602490fd5b1561399a5750565b633a4541ef60e01b5f9081526001600160a01b0391909116600452602490fd5b5f516020614e635f395f51905f52548110156135a4575f516020614e635f395f51905f525f5260205f2001905f90565b80548210156135a4575f5260205f2001905f90565b5f516020614e635f395f51905f525490600160401b8210156115f457600182015f516020614e635f395f51905f52555f516020614e635f395f51905f52548210156135a4575f516020614e635f395f51905f525f527f024be1d688fec05d4c3e9aeb5eac4f8c1e7d5bd030a2d0a8bafafba39f7f7ac990910180546001600160a01b0319166001600160a01b03909216919091179055565b6001600160401b0381116115f45760051b60200190565b60405190613abb826115f9565b5f604083606081528260208201520152565b90613ad782613a97565b613ae4604051918261162f565b8281528092613af5601f1991613a97565b01905f5b828110613b0557505050565b602090613b10613aae565b82828501015201613af9565b6001600160401b036001911601906001600160401b0382116135d557565b906001600160401b03809116911601906001600160401b0382116135d557565b6001600160401b035f19911601906001600160401b0382116135d557565b6001600160a01b03909116815260a0602082018190528101839052929594939160c0840191905f5b818110613bd857505050916001600160401b036080928161165f96959816604084015216606082015201906001600160401b03169052565b9091926020806001928635613bec816103c8565b848060a01b031681520194019101919091613ba0565b9795939094613c33613c41936104029b9995613c4f9860018060a01b03168c5260a060208d015260a08c0191613759565b9189830360408b0152613759565b918683036060880152613759565b926080818503910152613759565b90604051613c6a81611614565b91546001600160601b0381168352606081811c6001600160701b0316602085015260d082901c63ffffffff16604085015260f09190911c90830152565b90604051604081018181106001600160401b038211176115f45760405291546001600160701b038116835260701c6001600160401b03166020830152565b908154613cf181613a97565b92613cff604051948561162f565b81845260208401905f5260205f205f915b838310613d1d5750505050565b600160208192613d2c85613ca7565b815201920192019190613d10565b5f198101919082116135d557565b919082039182116135d557565b90611483613d62926132bc565b60405190613d6f82611614565b8054613d7a81613a97565b90613d88604051928361162f565b80825260208201835f5260205f205f915b838310613e4757505050506003613e0692613df6928552613dd7613dc760018301546001600160401b031690565b6001600160401b03166020870152565b613de360028201613ce5565b604086015201546001600160401b031690565b6001600160401b03166060830152565b518051908115613e3f57613e1c613e2292613d3a565b9061379c565b519061040260206112316111ec6111e0865160018060701b031690565b50505f905f90565b600160208192613e5685613ca7565b815201920192019190613d99565b15613e6c5750565b630a30df6160e11b5f5260045260245ffd5b15613e8557565b634b5d6ee760e11b5f5260045ffd5b6104026113346146f6565b8054600160601b600160d01b03191660609290921b600160601b600160d01b0316919091179055565b80516001600160a01b03165f9081525f516020614f835f395f51905f5260205260409020919291613efa90849061145f565b805490939060601c6001600160701b0316613fa057613f6c613f666060613f4561236282613f31613297895160018060a01b031690565b97019661234d88516001600160401b031690565b6020810151613f5d906001600160701b031689613e9f565b015161ffff1690565b85613720565b613f8061150c83516001600160401b031690565b6001600160401b03821611613f93575050565b6001600160401b03169052565b5050565b15613fab57565b632808647560e11b5f5260045ffd5b15613fc157565b639905827b60e01b5f5260045ffd5b15613fd757565b63d5b25b6360e01b5f5260045ffd5b15613fee5750565b63164688df60e21b5f9081526001600160a01b0391909116600452602490fd5b8115614018570490565b634e487b7160e01b5f52601260045260245ffd5b815181546001600160601b0319166001600160601b039190911617815561165f9161ffff90606090602081015161406c906001600160701b031685613e9f565b6040810151845463ffffffff60d01b191660d09190911b63ffffffff60d01b1617845501511690613720565b156140a05750565b634168a4a560e11b5f5260045260245ffd5b8054600160401b8110156115f4576140cf916001820181556139ea565b91909161411157805182546020909201516001600160b01b03199092166001600160701b03919091161760709190911b67ffffffffffffffff60701b16179055565b634e487b7160e01b5f525f60045260245ffd5b916142855f516020614e835f395f51905f5293614177966114cf61149861429d966114836142456111e06141649c60018060a01b0389169d8e1515613fa4565b6001600160a01b0385169e8f1515613fba565b6141876402540be400820661135e565b6001600160401b038816806142a2575b506141ab8b610bb861ffff82161115613701565b6142106141ba61043b8b61323a565b6141f860028c6141e460408501916141d78184516113a7816132f4565b6001600160a01b03168552565b6001600160a01b038a1660208501526132fe565b6001600160401b038a1660608201526105378b61323a565b614223896104db6104cf6104c28961325f565b614230896105148761325f565b61423a60026132f4565b6402540be400900490565b95614280614251611650565b5f81526001600160701b03891660208201525f604082015261ffff8b1660608201526114758861145f85613297565b6132bc565b61428f60026132f4565b604051918291600283613552565b0390a3565b6142b19061151861150c613e94565b5f614197565b6001600160a01b038116925f516020614e835f395f51905f529261429d92614413916143e2906142e8881515613fa4565b6001600160a01b03811698611483906143a7906111e09061430a8d1515613fba565b61431a6402540be400820661135e565b61432d89610bb861ffff82161115613701565b61437461433c61043b8961323a565b6143656001604083016143548c82516113a7816132f4565b6001600160a01b038c1684526141e4565b5f60608201526105378961323a565b614387876104db6104cf6104c28961325f565b614394876105148761325f565b61439e60016132f4565b61423a876139ff565b936142806143b3611650565b5f81526001600160701b03871660208201525f604082015261ffff891660608201526114755f61145f85613297565b6143ee81548015614098565b6144086143f9611661565b6001600160701b039093168352565b5f60208301526140b2565b61441d60016132f4565b604051918291600183613552565b6040516323b872dd60e01b602082019081526001600160a01b03938416602483015293909216604483015260648083019490945292815291614495915f9182919061447760848761162f565b60018060a01b031694519082865af161448e614c69565b9083614e04565b80519081151591826144c6575b50506144ab5750565b635274afe760e01b5f526001600160a01b031660045260245ffd5b6144dd925090602080610670938301019101614a03565b5f806144a2565b156144eb57565b63098a8cbb60e41b5f5260045ffd5b156145025750565b6375687d0f60e11b5f9081526001600160a01b0391909116600452602490fd5b610402611d096146f6565b6001600160601b0391821690821601919082116135d557565b6040519061455382611614565b5f6060838281528260208201528260408201520152565b91906145a290614578614546565b5083516001600160a01b03165f9081525f516020614f835f395f51905f526020526040902061145f565b91604051926145b084611614565b546001600160601b0381168452606081811c6001600160701b03166020860181905260d083901c63ffffffff16604087015260f09290921c90850152839061464b575061464060606146286123628461234d8461461961329761165f995160018060a01b031690565b9201516001600160401b031690565b6020818101516001600160701b031690870152613f5d565b61ffff166060840152565b925050565b5f516020614ee35f395f51905f52546001600160a01b03163303611b4957565b614678613417565b5f516020614ee35f395f51905f5280546001600160a01b039283166001600160a01b0319821681179092559091167f8be0079c531659141344cd1fd0a4f28419497f9722a3daafe3b4186f6b6457e05f80a3565b908160209103126103d9575161040281611125565b908160209103126103d9575161040281612ca6565b604051631454a0a560e31b81527f00000000000000000000000000000000000000000000000000000000000000006001600160a01b031690602081600481855afa801561085a576001600160401b03915f916147c1575b5016908143106147bb57602061476560049343613d48565b916040519384809263068d921560e31b82525afa90811561085a5763ffffffff61150c92610402945f9161479c575b50169061400e565b6147b5915060203d602011612b3957612b2b818361162f565b5f614794565b50505f90565b6147e3915060203d6020116147e9575b6147db818361162f565b8101906146cc565b5f61474d565b503d6147d1565b906147fa82613a97565b614807604051918261162f565b8281528092614818601f1991613a97565b0190602036910137565b905f516020614e635f395f51905f525461483b816147f0565b925f5b82811061497657506040516306598de160e31b815290602090829060049082906001600160a01b03165afa801561085a5763ffffffff915f91614957575b50169181831161494e575b5f5b83811061489857505050815290565b806148ac61043b6109056104e1858a61379c565b6148b5836135c7565b85811061490b575050906149056001926148f06148d56104e1858b61379c565b916148ff6148e66104e1838d61379c565b6148f0878d61379c565b6001600160a01b039091169052565b8961379c565b01614889565b61491e61043b6109056104e1848c61379c565b6149288684614ba7565b6149328783614ba7565b11614941575b506001016148b5565b9092509050816001614938565b91508091614887565b614970915060203d602011612b3957612b2b818361162f565b5f61487c565b80614992614988612d296001946139ba565b6148f0838961379c565b0161483e565b156149a05750565b63403f6f6f60e11b5f9081526001600160a01b0391909116600452602490fd5b63ffffffff60019116019063ffffffff82116135d557565b60ff5f516020614fa35f395f51905f525460401c16156149f457565b631afcd79f60e31b5f5260045ffd5b908160209103126103d9575180151581036103d95790565b5f516020614e635f395f51905f5254905f905f19906001600160a01b03165b838310614ac7575b5090505f811215614a51575050565b6001821180614ab5575b614a6a575b505061165f614bde565b614a8a614a84612d29614a7f614aae95613d3a565b6139ba565b916139ba565b81546001600160a01b0393841660039290921b91821b9390911b1916919091179055565b5f80614a60565b50614abf82613d3a565b811415614a5b565b80614aeb614ad4856139ba565b90546001600160a01b039260039290921b1c821690565b1603614afa575050805f614a42565b600190920191614a3a565b90813b15614b86575f516020614f435f395f51905f5280546001600160a01b0319166001600160a01b0384169081179091557fbc7cd75a20ee27fd9adebab32041f755214dbc6bffa90cc0225b39da2e5c2d3b5f80a2805115614b6e57614b6b91614c98565b50565b505034614b7757565b63b398979f60e01b5f5260045ffd5b50634c9c8ce360e01b5f9081526001600160a01b0391909116600452602490fd5b6001600160701b0391602091614bbd9190614cb5565b0151166402540be4008102908082046402540be40014901517156135d55790565b5f516020614e635f395f51905f52548015614c55575f198101905f516020614e635f395f51905f52548210156135a4575f516020614e635f395f51905f525f8190527f024be1d688fec05d4c3e9aeb5eac4f8c1e7d5bd030a2d0a8bafafba39f7f7ac890910180546001600160a01b031916905555565b634e487b7160e01b5f52603160045260245ffd5b3d15614c93573d90614c7a82611670565b91614c88604051938461162f565b82523d5f602084013e565b606090565b5f8061040293602081519101845af4614caf614c69565b91614e04565b90614cbe614546565b506060820190614cd582516001600160401b031690565b6001600160401b0381166001600160401b0383161015614dfd57505b6001600160401b0381168015614dd1578351614d1f9061236290849061145f906001600160a01b0316613297565b90614d3461150c85516001600160401b031690565b148015614dbb575b8015614da8575b8015614d8d575b8015614d6e575b614d6757505f19016001600160401b0316614cf1565b9250505090565b5063ffffffff614d85604083015163ffffffff1690565b161515614d51565b5061ffff614da0606083015161ffff1690565b161515614d4a565b5080516001600160601b03161515614d43565b5060208101516001600160701b03161515614d3c565b50509051610402915061236290614df0906001600160a01b0316613297565b5f805260205260405f2090565b9050614cf1565b90614e285750805115614e1957805190602001fd5b630a12f52160e11b5f5260045ffd5b81511580614e59575b614e39575090565b639996b31560e01b5f9081526001600160a01b0391909116600452602490fd5b50803b15614e3156fe4102a9ba7244b40639ebe412c7bfc792b19c048efdf631bf4f130fef80c0df0242449fd19d367b0177da9082fe6da7d4da41af7573e3a3c1750ecffeffe26f9df295d610a4116363064013aa5e1168427c6b907b208d8be559665c0e7adec5008f1c49778ec45f03e87f0e3e1567785ab335a882d8dad6d5c44cb7ae509684009016d09d72d40fdae2fd8ceac6b6234c7706214fd39c1cd1e609a0528c199300c00107e0d011ac7c8e4dfa18e3dd3623ff151f8bfcc3821cd39bc114bd6504d94102a9ba7244b40639ebe412c7bfc792b19c048efdf631bf4f130fef80c0df00360894a13ba1a3210667c828492db98dca3e2076cc3735a920a3ca505d382bbc8f1c49778ec45f03e87f0e3e1567785ab335a882d8dad6d5c44cb7ae509684014102a9ba7244b40639ebe412c7bfc792b19c048efdf631bf4f130fef80c0df04f0c57e16840df040f15088dc2f81fe391c3923bec73e23a9662efc9c229c6a00237e158222e3e6968b72b9db0d8043aacf074ad9f650f0d1606b4d82ee432c00a2646970667358221220200c005074015a86aa842c5ef89eab868494bc8f8bcfde2ad1b6875968a2d95164736f6c634300081e0033f0c57e16840df040f15088dc2f81fe391c3923bec73e23a9662efc9c229c6a00","linkReferences":{"contracts/staking/StakingDpos.sol":{"StakingDpos":[{"start":3577,"length":20},{"start":8910,"length":20},{"start":9604,"length":20},{"start":10343,"length":20},{"start":12736,"length":20}]},"contracts/staking/StakingEconomics.sol":{"StakingEconomics":[{"start":2715,"length":20},{"start":4318,"length":20},{"start":4641,"length":20},{"start":6212,"length":20},{"start":6745,"length":20},{"start":7005,"length":20},{"start":9241,"length":20},{"start":10451,"length":20},{"start":13219,"length":20},{"start":13425,"length":20}]}}},"methodIdentifiers":{"UPGRADE_INTERFACE_VERSION()":"ad3cb1cc","acceptOwnership()":"79ba5097","activateValidator(address)":"b46e5520","addValidator(address)":"4d238c8e","calcAvailableForRedelegateAmount(address,address)":"5ef9e8c6","changeValidatorCommissionRate(address,uint16)":"14f8649f","changeValidatorOwner(address,address)":"0052c9e1","claimDelegatorFee(address)":"426594b1","claimDelegatorFeeAtEpoch(address,uint64)":"fe38ebef","claimValidatorFee(address)":"ff4794fc","claimValidatorFeeAtEpoch(address,uint64)":"adf2a79c","commitEpochCommittee(address[])":"87401d8a","committeeSelectionEpoch()":"8bd070e4","currentEpoch()":"76671808","delegate(address,uint256)":"026e402b","deposit(address,uint256)":"47e7ef24","disableValidator(address)":"1fe97684","getChainConfig()":"606c0c94","getConsensusKeys(address)":"ad36f42f","getDelegatorFee(address,address)":"52b7bea2","getEpochCommittee(uint64)":"80b562de","getEpochCommitteeLength(uint64)":"e3e6cedc","getGovernance()":"289b3c0d","getPendingDelegatorFee(address,address)":"c2fd58fc","getPendingValidatorFee(address)":"c6fb9065","getStaking()":"7b1391a6","getStakingPool()":"45946334","getStakingToken()":"9f9106d1","getSystemReward()":"7a37cc59","getValidatorByOwner(address)":"30108c22","getValidatorDelegation(address,address)":"d951e186","getValidatorFee(address)":"457179fd","getValidatorStatus(address)":"a310624f","getValidatorStatusAtEpoch(address,uint64)":"48124d26","getValidators()":"b7ab4db5","getValidatorsWithKeys()":"d41c52eb","getValidatorsWithKeysAt(uint64)":"7cfba9f3","initialize(address,address[],uint256[],uint16)":"01f6bb50","isValidator(address)":"facd743b","isValidatorActive(address)":"42ad55ac","nextEpoch()":"aea0e78b","nextEpochToCommit()":"c06a82de","owner()":"8da5cb5b","pendingOwner()":"e30c3978","proxiableUUID()":"52d1902d","redelegateDelegatorFee(address)":"8ecb3fc9","registerValidator(address,uint16,uint256)":"dd0fb5df","releaseValidatorFromJail(address)":"73a3dda6","removeValidator(address)":"40a141ff","renounceOwnership()":"715018a6","resolveSigner(uint64,uint32)":"d7f1733d","setConsensusKeys(address,bytes,bytes,bytes32)":"225cba85","slash(address)":"c96be4cb","slashEquivocationFinalize(bytes,bytes,bytes,bytes)":"add07a3e","slashEquivocationNotarize(bytes,bytes,bytes,bytes)":"e28d2f63","slashEquivocationNullifyFinalize(bytes,bytes,bytes,bytes)":"a10827e9","transferOwnership(address)":"f2fde38b","undelegate(address,uint256)":"4d99dd16","upgradeToAndCall(address,bytes)":"4f1ef286"},"storageLayout":{"storage":[],"types":{}},"id":44}