{"abi":[{"type":"constructor","inputs":[{"name":"stakingContract","type":"address","internalType":"contract IStaking"},{"name":"systemRewardContract","type":"address","internalType":"contract ISystemReward"},{"name":"stakingPoolContract","type":"address","internalType":"contract IStakingPool"},{"name":"governanceContract","type":"address","internalType":"contract IFluentGovernance"},{"name":"chainConfigContract","type":"address","internalType":"contract IChainConfig"},{"name":"stakingToken","type":"address","internalType":"contract IERC20"},{"name":"livenessSlashingAddr","type":"address","internalType":"address"}],"stateMutability":"nonpayable"},{"type":"function","name":"UPGRADE_INTERFACE_VERSION","inputs":[],"outputs":[{"name":"","type":"string","internalType":"string"}],"stateMutability":"view"},{"type":"function","name":"acceptOwnership","inputs":[],"outputs":[],"stateMutability":"nonpayable"},{"type":"function","name":"activateValidator","inputs":[{"name":"validator","type":"address","internalType":"address"}],"outputs":[],"stateMutability":"nonpayable"},{"type":"function","name":"addValidator","inputs":[{"name":"account","type":"address","internalType":"address"}],"outputs":[],"stateMutability":"nonpayable"},{"type":"function","name":"calcAvailableForRedelegateAmount","inputs":[{"name":"validator","type":"address","internalType":"address"},{"name":"delegator","type":"address","internalType":"address"}],"outputs":[{"name":"amountToStake","type":"uint256","internalType":"uint256"},{"name":"rewardsDust","type":"uint256","internalType":"uint256"}],"stateMutability":"view"},{"type":"function","name":"changeValidatorCommissionRate","inputs":[{"name":"validatorAddress","type":"address","internalType":"address"},{"name":"commissionRate","type":"uint16","internalType":"uint16"}],"outputs":[],"stateMutability":"nonpayable"},{"type":"function","name":"changeValidatorOwner","inputs":[{"name":"validatorAddress","type":"address","internalType":"address"},{"name":"newOwner","type":"address","internalType":"address"}],"outputs":[],"stateMutability":"nonpayable"},{"type":"function","name":"claimDelegatorFee","inputs":[{"name":"validatorAddress","type":"address","internalType":"address"}],"outputs":[],"stateMutability":"nonpayable"},{"type":"function","name":"claimDelegatorFeeAtEpoch","inputs":[{"name":"validatorAddress","type":"address","internalType":"address"},{"name":"beforeEpoch","type":"uint64","internalType":"uint64"}],"outputs":[],"stateMutability":"nonpayable"},{"type":"function","name":"claimValidatorFee","inputs":[{"name":"validatorAddress","type":"address","internalType":"address"}],"outputs":[],"stateMutability":"nonpayable"},{"type":"function","name":"claimValidatorFeeAtEpoch","inputs":[{"name":"validatorAddress","type":"address","internalType":"address"},{"name":"beforeEpoch","type":"uint64","internalType":"uint64"}],"outputs":[],"stateMutability":"nonpayable"},{"type":"function","name":"commitEpochCommittee","inputs":[{"name":"committee","type":"address[]","internalType":"address[]"}],"outputs":[],"stateMutability":"nonpayable"},{"type":"function","name":"committeeSelectionEpoch","inputs":[],"outputs":[{"name":"","type":"uint64","internalType":"uint64"}],"stateMutability":"view"},{"type":"function","name":"currentEpoch","inputs":[],"outputs":[{"name":"","type":"uint64","internalType":"uint64"}],"stateMutability":"view"},{"type":"function","name":"delegate","inputs":[{"name":"validatorAddress","type":"address","internalType":"address"},{"name":"amount","type":"uint256","internalType":"uint256"}],"outputs":[],"stateMutability":"nonpayable"},{"type":"function","name":"deposit","inputs":[{"name":"validatorAddress","type":"address","internalType":"address"},{"name":"amount","type":"uint256","internalType":"uint256"}],"outputs":[],"stateMutability":"nonpayable"},{"type":"function","name":"disableValidator","inputs":[{"name":"validator","type":"address","internalType":"address"}],"outputs":[],"stateMutability":"nonpayable"},{"type":"function","name":"getChainConfig","inputs":[],"outputs":[{"name":"","type":"address","internalType":"contract IChainConfig"}],"stateMutability":"view"},{"type":"function","name":"getConsensusKeys","inputs":[{"name":"validatorAddress","type":"address","internalType":"address"}],"outputs":[{"name":"","type":"tuple","internalType":"struct IStaking.ConsensusKeys","components":[{"name":"blsPubkey","type":"bytes","internalType":"bytes"},{"name":"peerPubkey","type":"bytes32","internalType":"bytes32"},{"name":"activationEpoch","type":"uint64","internalType":"uint64"}]}],"stateMutability":"view"},{"type":"function","name":"getDelegatorFee","inputs":[{"name":"validatorAddress","type":"address","internalType":"address"},{"name":"delegatorAddress","type":"address","internalType":"address"}],"outputs":[{"name":"","type":"uint256","internalType":"uint256"}],"stateMutability":"view"},{"type":"function","name":"getEpochCommittee","inputs":[{"name":"epoch","type":"uint64","internalType":"uint64"}],"outputs":[{"name":"","type":"address[]","internalType":"address[]"}],"stateMutability":"view"},{"type":"function","name":"getEpochCommitteeLength","inputs":[{"name":"epoch","type":"uint64","internalType":"uint64"}],"outputs":[{"name":"","type":"uint256","internalType":"uint256"}],"stateMutability":"view"},{"type":"function","name":"getGovernance","inputs":[],"outputs":[{"name":"","type":"address","internalType":"contract IFluentGovernance"}],"stateMutability":"view"},{"type":"function","name":"getPendingDelegatorFee","inputs":[{"name":"validatorAddress","type":"address","internalType":"address"},{"name":"delegatorAddress","type":"address","internalType":"address"}],"outputs":[{"name":"","type":"uint256","internalType":"uint256"}],"stateMutability":"view"},{"type":"function","name":"getPendingValidatorFee","inputs":[{"name":"validatorAddress","type":"address","internalType":"address"}],"outputs":[{"name":"","type":"uint256","internalType":"uint256"}],"stateMutability":"view"},{"type":"function","name":"getRegistryWithKeys","inputs":[],"outputs":[{"name":"addrs","type":"address[]","internalType":"address[]"},{"name":"keys","type":"tuple[]","internalType":"struct IStaking.ConsensusKeys[]","components":[{"name":"blsPubkey","type":"bytes","internalType":"bytes"},{"name":"peerPubkey","type":"bytes32","internalType":"bytes32"},{"name":"activationEpoch","type":"uint64","internalType":"uint64"}]}],"stateMutability":"view"},{"type":"function","name":"getStaking","inputs":[],"outputs":[{"name":"","type":"address","internalType":"contract IStaking"}],"stateMutability":"view"},{"type":"function","name":"getStakingPool","inputs":[],"outputs":[{"name":"","type":"address","internalType":"contract IStakingPool"}],"stateMutability":"view"},{"type":"function","name":"getStakingToken","inputs":[],"outputs":[{"name":"","type":"address","internalType":"contract IERC20"}],"stateMutability":"view"},{"type":"function","name":"getSystemReward","inputs":[],"outputs":[{"name":"","type":"address","internalType":"contract ISystemReward"}],"stateMutability":"view"},{"type":"function","name":"getValidatorByOwner","inputs":[{"name":"owner","type":"address","internalType":"address"}],"outputs":[{"name":"","type":"address","internalType":"address"}],"stateMutability":"view"},{"type":"function","name":"getValidatorDelegation","inputs":[{"name":"validatorAddress","type":"address","internalType":"address"},{"name":"delegator","type":"address","internalType":"address"}],"outputs":[{"name":"delegatedAmount","type":"uint256","internalType":"uint256"},{"name":"atEpoch","type":"uint64","internalType":"uint64"}],"stateMutability":"view"},{"type":"function","name":"getValidatorFee","inputs":[{"name":"validatorAddress","type":"address","internalType":"address"}],"outputs":[{"name":"","type":"uint256","internalType":"uint256"}],"stateMutability":"view"},{"type":"function","name":"getValidatorStatus","inputs":[{"name":"validatorAddress","type":"address","internalType":"address"}],"outputs":[{"name":"ownerAddress","type":"address","internalType":"address"},{"name":"status","type":"uint8","internalType":"uint8"},{"name":"totalDelegated","type":"uint256","internalType":"uint256"},{"name":"slashesCount","type":"uint32","internalType":"uint32"},{"name":"changedAt","type":"uint64","internalType":"uint64"},{"name":"jailedBefore","type":"uint64","internalType":"uint64"},{"name":"claimedAt","type":"uint64","internalType":"uint64"},{"name":"commissionRate","type":"uint16","internalType":"uint16"},{"name":"totalRewards","type":"uint96","internalType":"uint96"}],"stateMutability":"view"},{"type":"function","name":"getValidatorStatusAtEpoch","inputs":[{"name":"validatorAddress","type":"address","internalType":"address"},{"name":"epoch","type":"uint64","internalType":"uint64"}],"outputs":[{"name":"ownerAddress","type":"address","internalType":"address"},{"name":"status","type":"uint8","internalType":"uint8"},{"name":"totalDelegated","type":"uint256","internalType":"uint256"},{"name":"slashesCount","type":"uint32","internalType":"uint32"},{"name":"changedAt","type":"uint64","internalType":"uint64"},{"name":"jailedBefore","type":"uint64","internalType":"uint64"},{"name":"claimedAt","type":"uint64","internalType":"uint64"},{"name":"commissionRate","type":"uint16","internalType":"uint16"},{"name":"totalRewards","type":"uint96","internalType":"uint96"}],"stateMutability":"view"},{"type":"function","name":"getValidators","inputs":[],"outputs":[{"name":"","type":"address[]","internalType":"address[]"}],"stateMutability":"view"},{"type":"function","name":"getValidatorsWithKeys","inputs":[],"outputs":[{"name":"addrs","type":"address[]","internalType":"address[]"},{"name":"keys","type":"tuple[]","internalType":"struct IStaking.ConsensusKeys[]","components":[{"name":"blsPubkey","type":"bytes","internalType":"bytes"},{"name":"peerPubkey","type":"bytes32","internalType":"bytes32"},{"name":"activationEpoch","type":"uint64","internalType":"uint64"}]}],"stateMutability":"view"},{"type":"function","name":"getValidatorsWithKeysAt","inputs":[{"name":"epoch","type":"uint64","internalType":"uint64"}],"outputs":[{"name":"addrs","type":"address[]","internalType":"address[]"},{"name":"keys","type":"tuple[]","internalType":"struct IStaking.ConsensusKeys[]","components":[{"name":"blsPubkey","type":"bytes","internalType":"bytes"},{"name":"peerPubkey","type":"bytes32","internalType":"bytes32"},{"name":"activationEpoch","type":"uint64","internalType":"uint64"}]}],"stateMutability":"view"},{"type":"function","name":"initialize","inputs":[{"name":"initialOwner","type":"address","internalType":"address"},{"name":"validators","type":"address[]","internalType":"address[]"},{"name":"initialStakes","type":"uint256[]","internalType":"uint256[]"},{"name":"commissionRate","type":"uint16","internalType":"uint16"}],"outputs":[],"stateMutability":"nonpayable"},{"type":"function","name":"isValidator","inputs":[{"name":"account","type":"address","internalType":"address"}],"outputs":[{"name":"","type":"bool","internalType":"bool"}],"stateMutability":"view"},{"type":"function","name":"isValidatorActive","inputs":[{"name":"account","type":"address","internalType":"address"}],"outputs":[{"name":"","type":"bool","internalType":"bool"}],"stateMutability":"view"},{"type":"function","name":"nextEpoch","inputs":[],"outputs":[{"name":"","type":"uint64","internalType":"uint64"}],"stateMutability":"view"},{"type":"function","name":"nextEpochToCommit","inputs":[],"outputs":[{"name":"","type":"uint64","internalType":"uint64"}],"stateMutability":"view"},{"type":"function","name":"owner","inputs":[],"outputs":[{"name":"","type":"address","internalType":"address"}],"stateMutability":"view"},{"type":"function","name":"pendingOwner","inputs":[],"outputs":[{"name":"","type":"address","internalType":"address"}],"stateMutability":"view"},{"type":"function","name":"proxiableUUID","inputs":[],"outputs":[{"name":"","type":"bytes32","internalType":"bytes32"}],"stateMutability":"view"},{"type":"function","name":"redelegateDelegatorFee","inputs":[{"name":"validator","type":"address","internalType":"address"}],"outputs":[],"stateMutability":"nonpayable"},{"type":"function","name":"registerValidator","inputs":[{"name":"validatorAddress","type":"address","internalType":"address"},{"name":"commissionRate","type":"uint16","internalType":"uint16"},{"name":"initialStake","type":"uint256","internalType":"uint256"}],"outputs":[],"stateMutability":"nonpayable"},{"type":"function","name":"releaseValidatorFromJail","inputs":[{"name":"validatorAddress","type":"address","internalType":"address"}],"outputs":[],"stateMutability":"nonpayable"},{"type":"function","name":"removeValidator","inputs":[{"name":"account","type":"address","internalType":"address"}],"outputs":[],"stateMutability":"nonpayable"},{"type":"function","name":"renounceOwnership","inputs":[],"outputs":[],"stateMutability":"nonpayable"},{"type":"function","name":"resolveSigner","inputs":[{"name":"epoch","type":"uint64","internalType":"uint64"},{"name":"signerIdx","type":"uint32","internalType":"uint32"}],"outputs":[{"name":"","type":"address","internalType":"address"}],"stateMutability":"view"},{"type":"function","name":"setConsensusKeys","inputs":[{"name":"validatorAddress","type":"address","internalType":"address"},{"name":"blsPubkeyUncompressed","type":"bytes","internalType":"bytes"},{"name":"blsPoPUncompressed","type":"bytes","internalType":"bytes"},{"name":"peerPubkey","type":"bytes32","internalType":"bytes32"}],"outputs":[],"stateMutability":"nonpayable"},{"type":"function","name":"slash","inputs":[{"name":"validatorAddress","type":"address","internalType":"address"}],"outputs":[],"stateMutability":"nonpayable"},{"type":"function","name":"slashEquivocationFinalize","inputs":[{"name":"evidence","type":"bytes","internalType":"bytes"},{"name":"pkUncompressed","type":"bytes","internalType":"bytes"},{"name":"sig1Uncompressed","type":"bytes","internalType":"bytes"},{"name":"sig2Uncompressed","type":"bytes","internalType":"bytes"}],"outputs":[],"stateMutability":"nonpayable"},{"type":"function","name":"slashEquivocationNotarize","inputs":[{"name":"evidence","type":"bytes","internalType":"bytes"},{"name":"pkUncompressed","type":"bytes","internalType":"bytes"},{"name":"sig1Uncompressed","type":"bytes","internalType":"bytes"},{"name":"sig2Uncompressed","type":"bytes","internalType":"bytes"}],"outputs":[],"stateMutability":"nonpayable"},{"type":"function","name":"slashEquivocationNullifyFinalize","inputs":[{"name":"evidence","type":"bytes","internalType":"bytes"},{"name":"pkUncompressed","type":"bytes","internalType":"bytes"},{"name":"sig1Uncompressed","type":"bytes","internalType":"bytes"},{"name":"sig2Uncompressed","type":"bytes","internalType":"bytes"}],"outputs":[],"stateMutability":"nonpayable"},{"type":"function","name":"transferOwnership","inputs":[{"name":"newOwner","type":"address","internalType":"address"}],"outputs":[],"stateMutability":"nonpayable"},{"type":"function","name":"undelegate","inputs":[{"name":"validatorAddress","type":"address","internalType":"address"},{"name":"amount","type":"uint256","internalType":"uint256"}],"outputs":[],"stateMutability":"nonpayable"},{"type":"function","name":"upgradeToAndCall","inputs":[{"name":"newImplementation","type":"address","internalType":"address"},{"name":"data","type":"bytes","internalType":"bytes"}],"outputs":[],"stateMutability":"payable"},{"type":"event","name":"Claimed","inputs":[{"name":"validator","type":"address","indexed":true,"internalType":"address"},{"name":"staker","type":"address","indexed":true,"internalType":"address"},{"name":"amount","type":"uint256","indexed":false,"internalType":"uint256"},{"name":"epoch","type":"uint64","indexed":false,"internalType":"uint64"}],"anonymous":false},{"type":"event","name":"ConsensusKeysSet","inputs":[{"name":"validator","type":"address","indexed":true,"internalType":"address"},{"name":"blsPubkey","type":"bytes","indexed":false,"internalType":"bytes"},{"name":"peerPubkey","type":"bytes32","indexed":false,"internalType":"bytes32"},{"name":"activationEpoch","type":"uint64","indexed":false,"internalType":"uint64"}],"anonymous":false},{"type":"event","name":"Delegated","inputs":[{"name":"validator","type":"address","indexed":true,"internalType":"address"},{"name":"staker","type":"address","indexed":true,"internalType":"address"},{"name":"amount","type":"uint256","indexed":false,"internalType":"uint256"},{"name":"epoch","type":"uint64","indexed":false,"internalType":"uint64"}],"anonymous":false},{"type":"event","name":"EpochCommitteeCommitted","inputs":[{"name":"epoch","type":"uint64","indexed":true,"internalType":"uint64"},{"name":"committee","type":"address[]","indexed":false,"internalType":"address[]"}],"anonymous":false},{"type":"event","name":"EquivocationSlashed","inputs":[{"name":"validator","type":"address","indexed":true,"internalType":"address"},{"name":"epoch","type":"uint64","indexed":false,"internalType":"uint64"},{"name":"reporter","type":"address","indexed":true,"internalType":"address"}],"anonymous":false},{"type":"event","name":"Initialized","inputs":[{"name":"version","type":"uint64","indexed":false,"internalType":"uint64"}],"anonymous":false},{"type":"event","name":"OwnershipTransferStarted","inputs":[{"name":"previousOwner","type":"address","indexed":true,"internalType":"address"},{"name":"newOwner","type":"address","indexed":true,"internalType":"address"}],"anonymous":false},{"type":"event","name":"OwnershipTransferred","inputs":[{"name":"previousOwner","type":"address","indexed":true,"internalType":"address"},{"name":"newOwner","type":"address","indexed":true,"internalType":"address"}],"anonymous":false},{"type":"event","name":"Redelegated","inputs":[{"name":"validator","type":"address","indexed":true,"internalType":"address"},{"name":"staker","type":"address","indexed":true,"internalType":"address"},{"name":"amount","type":"uint256","indexed":false,"internalType":"uint256"},{"name":"dust","type":"uint256","indexed":false,"internalType":"uint256"},{"name":"epoch","type":"uint64","indexed":false,"internalType":"uint64"}],"anonymous":false},{"type":"event","name":"Undelegated","inputs":[{"name":"validator","type":"address","indexed":true,"internalType":"address"},{"name":"staker","type":"address","indexed":true,"internalType":"address"},{"name":"amount","type":"uint256","indexed":false,"internalType":"uint256"},{"name":"epoch","type":"uint64","indexed":false,"internalType":"uint64"}],"anonymous":false},{"type":"event","name":"Upgraded","inputs":[{"name":"implementation","type":"address","indexed":true,"internalType":"address"}],"anonymous":false},{"type":"event","name":"ValidatorAdded","inputs":[{"name":"validator","type":"address","indexed":true,"internalType":"address"},{"name":"owner","type":"address","indexed":true,"internalType":"address"},{"name":"status","type":"uint8","indexed":false,"internalType":"uint8"},{"name":"commissionRate","type":"uint16","indexed":false,"internalType":"uint16"}],"anonymous":false},{"type":"event","name":"ValidatorDeposited","inputs":[{"name":"validator","type":"address","indexed":true,"internalType":"address"},{"name":"amount","type":"uint256","indexed":false,"internalType":"uint256"},{"name":"epoch","type":"uint64","indexed":false,"internalType":"uint64"}],"anonymous":false},{"type":"event","name":"ValidatorJailed","inputs":[{"name":"validator","type":"address","indexed":true,"internalType":"address"},{"name":"epoch","type":"uint64","indexed":false,"internalType":"uint64"}],"anonymous":false},{"type":"event","name":"ValidatorModified","inputs":[{"name":"validator","type":"address","indexed":true,"internalType":"address"},{"name":"owner","type":"address","indexed":true,"internalType":"address"},{"name":"status","type":"uint8","indexed":false,"internalType":"uint8"},{"name":"commissionRate","type":"uint16","indexed":false,"internalType":"uint16"}],"anonymous":false},{"type":"event","name":"ValidatorOwnerClaimed","inputs":[{"name":"validator","type":"address","indexed":true,"internalType":"address"},{"name":"amount","type":"uint256","indexed":false,"internalType":"uint256"},{"name":"epoch","type":"uint64","indexed":false,"internalType":"uint64"}],"anonymous":false},{"type":"event","name":"ValidatorReleased","inputs":[{"name":"validator","type":"address","indexed":true,"internalType":"address"},{"name":"epoch","type":"uint64","indexed":false,"internalType":"uint64"}],"anonymous":false},{"type":"event","name":"ValidatorRemoved","inputs":[{"name":"validator","type":"address","indexed":true,"internalType":"address"}],"anonymous":false},{"type":"event","name":"ValidatorSlashed","inputs":[{"name":"validator","type":"address","indexed":true,"internalType":"address"},{"name":"slashes","type":"uint32","indexed":false,"internalType":"uint32"},{"name":"epoch","type":"uint64","indexed":false,"internalType":"uint64"}],"anonymous":false},{"type":"error","name":"AddressEmptyCode","inputs":[{"name":"target","type":"address","internalType":"address"}]},{"type":"error","name":"AddressInsufficientBalance","inputs":[{"name":"account","type":"address","internalType":"address"}]},{"type":"error","name":"AlreadySlashedForEquivocation","inputs":[{"name":"validator","type":"address","internalType":"address"}]},{"type":"error","name":"AmountTooLow","inputs":[{"name":"amount","type":"uint256","internalType":"uint256"}]},{"type":"error","name":"BadCommissionRate","inputs":[{"name":"commissionRate","type":"uint16","internalType":"uint16"}]},{"type":"error","name":"BadShareDistribution","inputs":[{"name":"shareDistribution","type":"uint16","internalType":"uint16"}]},{"type":"error","name":"BlsVerifierNotConfigured","inputs":[]},{"type":"error","name":"CommitteeLengthMismatch","inputs":[{"name":"expected","type":"uint256","internalType":"uint256"},{"name":"got","type":"uint256","internalType":"uint256"}]},{"type":"error","name":"CommitteeMemberKeyless","inputs":[{"name":"validator","type":"address","internalType":"address"}]},{"type":"error","name":"CommitteeMemberNotInActiveSet","inputs":[{"name":"validator","type":"address","internalType":"address"}]},{"type":"error","name":"CommitteeNotStrictlyAscending","inputs":[{"name":"validator","type":"address","internalType":"address"}]},{"type":"error","name":"ConsensusKeysAlreadySet","inputs":[{"name":"validator","type":"address","internalType":"address"}]},{"type":"error","name":"ConsensusKeysNotSet","inputs":[{"name":"validator","type":"address","internalType":"address"}]},{"type":"error","name":"DelegationQueueEmpty","inputs":[]},{"type":"error","name":"DelegationQueueNotEmpty","inputs":[{"name":"delegationQueue","type":"uint256","internalType":"uint256"}]},{"type":"error","name":"DepositIsZero","inputs":[]},{"type":"error","name":"ERC1967InvalidImplementation","inputs":[{"name":"implementation","type":"address","internalType":"address"}]},{"type":"error","name":"ERC1967NonPayable","inputs":[]},{"type":"error","name":"EpochCommitteeNotCommitted","inputs":[{"name":"epoch","type":"uint64","internalType":"uint64"}]},{"type":"error","name":"EpochIsNotReady","inputs":[{"name":"epoch","type":"uint64","internalType":"uint64"}]},{"type":"error","name":"EpochNotYetCommittable","inputs":[{"name":"target","type":"uint64","internalType":"uint64"},{"name":"currentEpoch","type":"uint64","internalType":"uint64"}]},{"type":"error","name":"EquivocationKeyMismatch","inputs":[]},{"type":"error","name":"EquivocationSignatureInvalid","inputs":[]},{"type":"error","name":"EvidenceDecoderNotConfigured","inputs":[]},{"type":"error","name":"FailedInnerCall","inputs":[]},{"type":"error","name":"InitialStakeTooLow","inputs":[{"name":"initialStake","type":"uint256","internalType":"uint256"}]},{"type":"error","name":"InsufficientBalance","inputs":[]},{"type":"error","name":"InvalidClaimEpoch","inputs":[]},{"type":"error","name":"InvalidConsensusKeyEncoding","inputs":[]},{"type":"error","name":"InvalidEpoch","inputs":[]},{"type":"error","name":"InvalidInitialization","inputs":[]},{"type":"error","name":"InvalidProofOfPossession","inputs":[{"name":"validator","type":"address","internalType":"address"}]},{"type":"error","name":"MalformedInitialBalance","inputs":[]},{"type":"error","name":"MalformedInputLength","inputs":[]},{"type":"error","name":"NotActiveValidator","inputs":[]},{"type":"error","name":"NotEnoughBalance","inputs":[]},{"type":"error","name":"NotEnoughShares","inputs":[{"name":"requiredShares","type":"uint256","internalType":"uint256"}]},{"type":"error","name":"NotInitializing","inputs":[]},{"type":"error","name":"NotPendingValidator","inputs":[{"name":"validator","type":"address","internalType":"address"}]},{"type":"error","name":"NothingToClaim","inputs":[]},{"type":"error","name":"NothingToUnstake","inputs":[]},{"type":"error","name":"OnlyCoinbase","inputs":[]},{"type":"error","name":"OnlyGovernance","inputs":[]},{"type":"error","name":"OnlyLivenessSlashing","inputs":[]},{"type":"error","name":"OnlyStakingContract","inputs":[]},{"type":"error","name":"OnlySystemCall","inputs":[]},{"type":"error","name":"OnlyValidatorOwner","inputs":[{"name":"validator","type":"address","internalType":"address"}]},{"type":"error","name":"OnlyZeroGasPrice","inputs":[]},{"type":"error","name":"OwnableInvalidOwner","inputs":[{"name":"owner","type":"address","internalType":"address"}]},{"type":"error","name":"OwnableUnauthorizedAccount","inputs":[{"name":"account","type":"address","internalType":"address"}]},{"type":"error","name":"OwnerCantBeZero","inputs":[]},{"type":"error","name":"OwnerSelfStakeBelowMinimum","inputs":[]},{"type":"error","name":"PeerPubkeyAlreadyInUse","inputs":[{"name":"peerPubkey","type":"bytes32","internalType":"bytes32"}]},{"type":"error","name":"PendingUndelegate","inputs":[]},{"type":"error","name":"SafeERC20FailedOperation","inputs":[{"name":"token","type":"address","internalType":"address"}]},{"type":"error","name":"SafeTransferFailed","inputs":[]},{"type":"error","name":"SignerIndexOutOfRange","inputs":[{"name":"epoch","type":"uint64","internalType":"uint64"},{"name":"signerIdx","type":"uint32","internalType":"uint32"},{"name":"committeeLen","type":"uint256","internalType":"uint256"}]},{"type":"error","name":"StillInJail","inputs":[{"name":"validator","type":"address","internalType":"address"}]},{"type":"error","name":"UUPSUnauthorizedCallContext","inputs":[]},{"type":"error","name":"UUPSUnsupportedProxiableUUID","inputs":[{"name":"slot","type":"bytes32","internalType":"bytes32"}]},{"type":"error","name":"UnsafeTransferFailed","inputs":[]},{"type":"error","name":"ValidatorAlreadyExists","inputs":[{"name":"validator","type":"address","internalType":"address"}]},{"type":"error","name":"ValidatorHasActiveDelegations","inputs":[{"name":"validator","type":"address","internalType":"address"}]},{"type":"error","name":"ValidatorNotFound","inputs":[{"name":"validator","type":"address","internalType":"address"}]},{"type":"error","name":"ValidatorNotInJail","inputs":[{"name":"validator","type":"address","internalType":"address"}]},{"type":"error","name":"ValidatorOwnerAlreadyInUse","inputs":[{"name":"validator","type":"address","internalType":"address"}]},{"type":"error","name":"WrongAmountPrecision","inputs":[]},{"type":"error","name":"ZeroAmount","inputs":[]},{"type":"error","name":"ZeroCommissionRate","inputs":[]},{"type":"error","name":"ZeroInitialStake","inputs":[]},{"type":"error","name":"ZeroOwner","inputs":[]},{"type":"error","name":"ZeroValidator","inputs":[]}],"bytecode":{"object":"0x610180346102e757601f6154ca38819003918201601f19168301916001600160401b038311848410176102eb5780849260e0946040528339810103126102e7578051906001600160a01b03821682036102e75760208101516001600160a01b03811681036102e75760408201516001600160a01b03811681036102e7576060830151906001600160a01b03821682036102e7576080840151926001600160a01b03841684036102e75760a0850151946001600160a01b03861686036102e75760c00151956001600160a01b03871687036102e7573060805260a05260c05260e0526101005261012052610140525f5160206154aa5f395f51905f525460ff8160401c166102d8576002600160401b03196001600160401b03821601610282575b50610160526040516151aa908161030082396080518181816117c60152613940015260a05181611bc5015260c051818181611b810152818161266601526132c3015260e05181610fb001526101005181818161098201528181610bd901528181610c660152818161130801526126fa0152610120518181816107d801528181610b3301528181610e4301528181610ef3015281816115810152818161173d01528181611841015281816118f301528181611d1b015281816120140152818161217e015281816122c7015281816125aa0152818161260d0152818161282e0152818161288f015281816129a301528181612ec301528181612fc20152818161319c0152818161326a01526148c901526101405181818161080901528181610e22015281816110c20152818161215d015281816121bb0152818161263e01528181612f36015281816131cd0152818161329b015261372d015261016051816128e80152f35b6001600160401b0319166001600160401b039081175f5160206154aa5f395f51905f52556040519081527fc7f505b2f371ae2175ee4913f4499e1f2633a7b5936321eed1cdaeb6115181d290602090a15f61011f565b63f92ee8a960e01b5f5260045ffd5b5f80fd5b634e487b7160e01b5f52604160045260245ffdfe60806040526004361015610011575f80fd5b5f3560e01c806252c9e1146103d357806301f6bb50146103ce578063026e402b146103c957806314f8649f146103c45780631fe97684146103bf578063225cba85146103ba578063289b3c0d146103b557806330108c22146103b057806340a141ff146103ab578063426594b1146103a657806342ad55ac146103a1578063457179fd1461039c578063459463341461039757806347e7ef241461039257806348124d261461038d5780634d238c8e146103885780634d99dd16146103835780634f1ef2861461037e57806352b7bea21461037957806352d1902d146103745780635ef9e8c61461036f578063606c0c941461036a578063715018a61461036557806373a3dda614610360578063766718081461035b57806379ba5097146103565780637a37cc59146103515780637b1391a61461034c5780637cfba9f31461034757806380b562de1461034257806387401d8a1461033d5780638bd070e4146103385780638da5cb5b146103335780638ecb3fc91461032e5780639f9106d114610329578063a10827e914610324578063a310624f1461031f578063ad36f42f1461031a578063ad3cb1cc14610315578063add07a3e14610310578063adf2a79c1461030b578063aea0e78b14610306578063b46e552014610301578063b7ab4db5146102fc578063c06a82de146102f7578063c2fd58fc146102f2578063c6fb9065146102ed578063c96be4cb146102e8578063d41c52eb146102e3578063d7f1733d146102de578063d951e186146102d9578063d96cbd7b146102d4578063dd0fb5df146102cf578063e28d2f63146102ca578063e30c3978146102c5578063e3e6cedc146102c0578063f2fde38b146102bb578063facd743b146102b6578063fe38ebef146102b15763ff4794fc146102ac575f80fd5b613221565b613161565b6130ee565b613066565b61301e565b612fea565b612f79565b612e83565b612dc5565b612d93565b612cc5565b612b7f565b6128c9565b612856565b612806565b6127d4565b6127a2565b6126d7565b6126ba565b6125d2565b612561565b61251a565b6123f0565b612306565b61227e565b6121a6565b612109565b6120d5565b61208c565b611f51565b611eba565b611cf9565b611bb0565b611b6c565b611b20565b611af5565b611991565b611922565b6118de565b61181a565b6117b4565b611715565b61169b565b611535565b6112e5565b61116b565b610fdf565b610f9b565b610eba565b610e89565b610dce565b610c43565b610c08565b610bc4565b610aa8565b61095f565b61086f565b61078c565b6105ec565b610415565b6001600160a01b038116036103e957565b5f80fd5b60409060031901126103e957600435610405816103d8565b90602435610412816103d8565b90565b346103e9576104fe5f5160206150955f395f51905f52610434366103ed565b61057661055a61054c61045061044b869796613309565b6133d9565b61052987610524604084019761047b838a5161046b816133c3565b610474816133c3565b1515613458565b610513610503602087019d8e6104ab61049a825160018060a01b031690565b6001600160a01b0381163314613480565b6104bf6001600160a01b03861615156134a8565b6104f1876104eb6104df6104d28961332e565b546001600160a01b031690565b6001600160a01b031690565b156134be565b516001600160a01b031690565b61332e565b80546001600160a01b0319169055565b6001600160a01b0381168c5261332e565b613504565b6104f18161054761054161053b614058565b8361408c565b99613309565b613523565b95516001600160a01b031690565b915193610566856133c3565b61056f856133c3565b5460f01c90565b6040516001600160a01b03928316959092169382916105959183613621565b0390a3005b9181601f840112156103e9578235916001600160401b0383116103e9576020808501948460051b0101116103e957565b6064359061ffff821682036103e957565b6024359061ffff821682036103e957565b346103e95760803660031901126103e957600435610609816103d8565b6024356001600160401b0381116103e95761062890369060040161059a565b6044929192356001600160401b0381116103e95761064a90369060040161059a565b906106536105ca565b925f5160206151355f395f51905f5254956001600160401b036106916106846106808a60ff9060401c1690565b1590565b986001600160401b031690565b1680159081610784575b600114908161077a575b159081610771575b50610762576106f095876106e760016001600160401b03195f5160206151355f395f51905f525416175f5160206151355f395f51905f5255565b61073e576136b6565b6106f657005b5f5160206151355f395f51905f52805460ff60401b19169055604051600181527fc7f505b2f371ae2175ee4913f4499e1f2633a7b5936321eed1cdaeb6115181d290602090a1005b5f5160206151355f395f51905f52805460ff60401b1916600160401b1790556136b6565b63f92ee8a960e01b5f5260045ffd5b9050155f6106ad565b303b1591506106a5565b88915061069b565b346103e95760403660031901126103e9576004356107a9816103d8565b73__$1cd3066fe913aa9d2ac4c48f01e58e18c5$__90602435823b156103e957604051634498f72b60e11b81527f00000000000000000000000000000000000000000000000000000000000000006001600160a01b0390811660048301527f00000000000000000000000000000000000000000000000000000000000000008116602483015290921660448301526064820152905f90829060849082905af4801561086a5761085457005b806108625f6108689361163f565b80610bba565b005b6137c5565b346103e95760403660031901126103e95760043561088c816103d8565b6108946105db565b6108a781610bb861ffff821611156137d0565b5f5160206150955f395f51905f526108c161044b84613309565b9161092861091a60408501946108dc87875161046b816133c3565b6104f18161054760208201996108fb61049a8c5160018060a01b031690565b6109158861091061090a614058565b8661408c565b6137ef565b613309565b94516001600160a01b031690565b925192610934846133c3565b61093d846133c3565b6040516001600160a01b03918216959091169390918291610595919083613621565b346103e95760203660031901126103e95760043561097c816103d8565b6109b0337f00000000000000000000000000000000000000000000000000000000000000006001600160a01b031614613812565b6001600160a01b0381165f8181525f5160206150b55f395f51905f52602052604090205f5160206150955f395f51905f52906109eb906133d9565b610a60610a4b60206040840193610a1760018651610a08816133c3565b610a11816133c3565b146146a8565b610a2088614bad565b600285525b610a3d81610547610a3761053b614058565b9a613309565b01516001600160a01b031690565b915194610a57866133c3565b61056f866133c3565b6040516001600160a01b039092169482916105959183613621565b9181601f840112156103e9578235916001600160401b0383116103e957602083818601950101116103e957565b346103e95760803660031901126103e957600435610ac5816103d8565b6024356001600160401b0381116103e957610ae4903690600401610a7b565b906044356001600160401b0381116103e957610b04903690600401610a7b565b93909273__$c0ca080a98cf238f72f7f61cbbb953094a$__91823b156103e95760405163dcf44cad60e01b81527f00000000000000000000000000000000000000000000000000000000000000006001600160a01b039081166004830152909116602482015260a06044820152945f94869485938493610ba293929091610b909160a487019190613828565b84810360031901606486015291613828565b606435608483015203915af4801561086a5761085457005b5f9103126103e957565b346103e9575f3660031901126103e9576040517f00000000000000000000000000000000000000000000000000000000000000006001600160a01b03168152602090f35b346103e95760203660031901126103e9576020600435610c27816103d8565b6001600160a01b0390610c399061332e565b5416604051908152f35b346103e95760203660031901126103e957600435610c60816103d8565b610c94337f00000000000000000000000000000000000000000000000000000000000000006001600160a01b031614613812565b610da8610d9760018060a01b03831692835f525f5160206150b55f395f51905f526020526109156105036104fe60405f20610d8e85610d88604051610cd8816115e9565b60018060a01b038554168152610d7a836001870154610d70610d606002602087019a60018060a01b0385168c52610d3f610d2f60408a0196610d2060ff8260a01c16896133cd565b60a81c6001600160401b031690565b6001600160401b031660608a0152565b01546001600160401b03811660808801525b60401c6001600160401b031690565b6001600160401b031660a0860152565b5161046b816133c3565b610d826148ba565b90614d39565b156146be565b6104f185614bad565b60025f918281558260018201550155565b7fe1434e25d6611e0db941968fdc97811c982ac1602e951637d206f5fdda9dd8f15f80a2005b346103e9575f60203660031901126103e957600435610dec816103d8565b73__$1cd3066fe913aa9d2ac4c48f01e58e18c5$__803b156103e957610e6b915f9160405180809581946311e4ddaf60e31b83527f00000000000000000000000000000000000000000000000000000000000000007f000000000000000000000000000000000000000000000000000000000000000060048501613848565b03915af4801561086a57610e7d575080f35b61086891505f9061163f565b346103e95760203660031901126103e9576020610eb0600435610eab816103d8565b61387f565b6040519015158152f35b346103e95760203660031901126103e957610f2d6020600435610edc816103d8565b60405163e61e2bff60e01b81526001600160a01b037f000000000000000000000000000000000000000000000000000000000000000081166004830152909116602482015291829081906044820190565b038173__$1cd3066fe913aa9d2ac4c48f01e58e18c5$__5af4801561086a57610f68915f91610f6c575b506040519081529081906020820190565b0390f35b610f8e915060203d602011610f94575b610f86818361163f565b810190613907565b5f610f57565b503d610f7c565b346103e9575f3660031901126103e9576040517f00000000000000000000000000000000000000000000000000000000000000006001600160a01b03168152602090f35b346103e95760403660031901126103e957600435610ffc816103d8565b60243590413303611126573a611117578115611108577f9fce3fb7dc05df2879421f9d9c06784dad3d39aba44c0c1ee0b9d094e76550059060018060a01b03811692835f525f5160206150b55f395f51905f5260205261107061106160405f206133d9565b92604084015161046b816133c3565b6110ba61108561107e6148ba565b809461408c565b805461109d906001600160601b0385811691166146f1565b81546001600160601b0319166001600160601b0391909116179055565b6110e68130337f00000000000000000000000000000000000000000000000000000000000000006145ef565b604080519182526001600160401b03909216602082015290819081015b0390a2005b63b288589b60e01b5f5260045ffd5b6383f1b1d360e01b5f5260045ffd5b63022d8c9560e31b5f5260045ffd5b6001600160401b038116036103e957565b60409060031901126103e95760043561115e816103d8565b9060243561041281611135565b346103e95761117936611146565b9060018060a01b03165f525f5160206150b55f395f51905f526020526111ab6111a460405f206133d9565b918261472e565b6020820151909190610f68906001600160a01b0316916040810151936111d0856133c3565b6111d9856133c3565b6020810151611201906111fc906001600160701b03165b6001600160701b031690565b613916565b91611213604083015163ffffffff1690565b9061122860608201516001600160401b031690565b61125060a061124160808501516001600160401b031690565b9301516001600160401b031690565b92611271611263606087015161ffff1690565b95516001600160601b031690565b604080516001600160a01b03909a168a5260ff909a1660208a01529888019590955263ffffffff9490941660608701526001600160401b039384166080870152831660a086015290911660c084015261ffff1660e08301526001600160601b03909216610100820152908190610120820190565b346103e95760203660031901126103e957600435611302816103d8565b611336337f00000000000000000000000000000000000000000000000000000000000000006001600160a01b031614613812565b6114e46113496113446148ba565b613cae565b6001600160a01b038316929061136984151561136481614168565b61417e565b6113745f5b15614042565b6001600160401b0381168061150d575b506113905f60016137d0565b6113f561139f61044b84613309565b6113dd6001604083016113c68782516113b7816133c3565b6113c0816133c3565b156141aa565b6001600160a01b03871680855260208501526133cd565b6001600160401b038316606082015261054784613309565b611408826104eb6104df6104d28361332e565b611415826105248161332e565b61141f60016133c3565b61142882613ace565b6114df6114a86114375f6111f0565b9361148a611443611660565b5f81526001600160701b03871660208201525f6040820181905260608201526114858661146f85613366565b906001600160401b03165f5260205260405f2090565b6141f0565b6114938161338b565b9060018060a01b03165f5260205260405f2090565b916114b58354801561425c565b6114cf6114c0611671565b6001600160701b039095168552565b6001600160401b03166020840152565b614276565b6114ee60016133c3565b805f5160206150155f395f51905f52604051806105955f600183613621565b61152f9061152861151c614058565b6001600160401b031690565b1015614194565b5f611384565b346103e95760403660031901126103e957600435611552816103d8565b73__$1cd3066fe913aa9d2ac4c48f01e58e18c5$__90602435823b156103e9576040516304e6b02160e51b81527f00000000000000000000000000000000000000000000000000000000000000006001600160a01b03908116600483015290921660248301526044820152905f90829060649082905af4801561086a5761085457005b634e487b7160e01b5f52604160045260245ffd5b60c081019081106001600160401b0382111761160457604052565b6115d5565b606081019081106001600160401b0382111761160457604052565b608081019081106001600160401b0382111761160457604052565b90601f801991011681019081106001600160401b0382111761160457604052565b6040519061166f60808361163f565b565b6040519061166f60408361163f565b6001600160401b03811161160457601f01601f191660200190565b60403660031901126103e9576004356116b3816103d8565b602435906001600160401b0382116103e957366023830112156103e9578160040135906116df82611680565b916116ed604051938461163f565b80835236602482860101116103e9576020815f92602461086897018387013784010152613934565b346103e9576117656020611728366103ed565b604051635c345cf760e01b81529384928392907f000000000000000000000000000000000000000000000000000000000000000060048501613848565b038173__$1cd3066fe913aa9d2ac4c48f01e58e18c5$__5af4801561086a576020915f91611797575b50604051908152f35b6117ae9150823d8411610f9457610f86818361163f565b5f61178e565b346103e9575f3660031901126103e9577f00000000000000000000000000000000000000000000000000000000000000006001600160a01b0316300361180b5760206040515f5160206150d55f395f51905f528152f35b63703e46dd60e11b5f5260045ffd5b346103e957611869604061182d366103ed565b8251635f0243e360e11b81529384928392907f000000000000000000000000000000000000000000000000000000000000000060048501613848565b038173__$1cd3066fe913aa9d2ac4c48f01e58e18c5$__5af490811561086a575f905f926118a4575b50604080519182526020820192909252f35b9150506040813d6040116118d6575b816118c06040938361163f565b810103126103e95760208151910151905f611892565b3d91506118b3565b346103e9575f3660031901126103e9576040517f00000000000000000000000000000000000000000000000000000000000000006001600160a01b03168152602090f35b346103e9575f3660031901126103e95761193a614814565b6119426134e6565b5f5160206150755f395f51905f5280546001600160a01b031981169091555f906001600160a01b03167f8be0079c531659141344cd1fd0a4f28419497f9722a3daafe3b4186f6b6457e08280a3005b346103e95760203660031901126103e9576004356119ae816103d8565b6001600160a01b0381165f9081527f96610efdc8a37de390ea3757bf0331faa3a74708adc53f30ba708302b0f55800602052604090205460ff16611ada57611a7f6119fb61044b83613309565b611a7660408201611a228560038351611a13816133c3565b611a1c816133c3565b14613a39565b6020830151611a3c906001600160a01b0316338114613480565b611a7085611a486148ba565b6001600160401b03611a6761151c60808901516001600160401b031690565b91161015613a61565b60019052565b61054783613309565b611a8881613ace565b7f7bd9ec00705b7640a93da0fcf84dc0bfce1b2c9a5146d548ab1dabd23322c9ac611103611ab46148ba565b6040516001600160401b0390911681526001600160a01b03909316929081906020820190565b638300031d60e01b5f526001600160a01b031660045260245ffd5b346103e9575f3660031901126103e9576020611b0f6148ba565b6001600160401b0360405191168152f35b346103e9575f3660031901126103e9575f5160206151555f395f51905f5254336001600160a01b0390911603611b595761086833614834565b63118cdaa760e01b5f523360045260245ffd5b346103e9575f3660031901126103e9576040517f00000000000000000000000000000000000000000000000000000000000000006001600160a01b03168152602090f35b346103e9575f3660031901126103e9576040517f00000000000000000000000000000000000000000000000000000000000000006001600160a01b03168152602090f35b90602080835192838152019201905f5b818110611c115750505090565b82516001600160a01b0316845260209384019390920191600101611c04565b805180835260209291819084018484015e5f828201840152601f01601f1916010190565b9060406001600160401b0381611c738551606086526060860190611c30565b946020810151602086015201511691015290565b90611c9a90604083526040830190611bf4565b906020818303910152815180825260208201916020808360051b8301019401925f915b838310611ccc57505050505090565b9091929394602080611cea600193601f198682030187528951611c54565b97019301930191939290611cbd565b346103e95760203660031901126103e957611d3f600435611d1981611135565b7f00000000000000000000000000000000000000000000000000000000000000006149b4565b611d498151613b9c565b905f5b8151811015611e99576001600160a01b03611d67828461386b565b51165f525f5160206150355f395f51905f5260205260405f2060405190611d8d82611609565b6040515f82548060011c9060018116908115611e8f575b602083108214611e7b578285526020850191908115611e625750600114611e27575b50506002600195949383611de2611e0b95611dfb95038261163f565b855286810154602086015201546001600160401b031690565b6001600160401b03166040830152565b611e15828661386b565b52611e20818561386b565b5001611d4c565b909150611e37845f5260205f2090565b915f925b818410611e4e5750500160026001611dc6565b600181602092548686015201930192611e3b565b60ff191682525090151560051b01905060026001611dc6565b634e487b7160e01b5f52602260045260245ffd5b91607f1691611da4565b50610f6860405192839283611c87565b906020610412928181520190611bf4565b346103e95760203660031901126103e9576001600160401b03600435611edf81611135565b165f525f5160206150555f395f51905f5260205260405f206040519081602082549182815201915f5260205f20905f5b818110611f3257610f6885611f268187038261163f565b60405191829182611ea9565b82546001600160a01b0316845260209093019260019283019201611f0f565b346103e95760203660031901126103e9576004356001600160401b0381116103e957611f8190369060040161059a565b6003600160a01b0319330161207d57611f986148ba565b91611fb75f5160206150f55f395f51905f52546001600160401b031690565b90611fc461151c85613cae565b6001600160401b03831690811161205b5761204c575f925b73__$c0ca080a98cf238f72f7f61cbbb953094a$__91823b156103e95761203c5f9560405197889687958695631792dc1560e31b87527f000000000000000000000000000000000000000000000000000000000000000060048801613d0a565b03915af4801561086a5761085457005b61205582613cec565b92611fdc565b631e559a0560e11b5f526001600160401b03808416600452851660245260445ffd5b633d45932f60e11b5f5260045ffd5b346103e9575f3660031901126103e9575f5160206150f55f395f51905f52546001600160401b0316806120c557506040515f8152602090f35b6120d0602091613cec565b611b0f565b346103e9575f3660031901126103e9575f5160206150755f395f51905f52546040516001600160a01b039091168152602090f35b346103e9575f60203660031901126103e957600435612127816103d8565b73__$1cd3066fe913aa9d2ac4c48f01e58e18c5$__803b156103e957610e6b915f916040518080958194637284855160e11b83527f00000000000000000000000000000000000000000000000000000000000000007f000000000000000000000000000000000000000000000000000000000000000060048501613848565b346103e9575f3660031901126103e9576040517f00000000000000000000000000000000000000000000000000000000000000006001600160a01b03168152602090f35b60806003198201126103e9576004356001600160401b0381116103e9578161221491600401610a7b565b929092916024356001600160401b0381116103e9578161223691600401610a7b565b929092916044356001600160401b0381116103e9578161225891600401610a7b565b92909291606435906001600160401b0382116103e95761227a91600401610a7b565b9091565b346103e95761228c366121ea565b91969394929673__$c0ca080a98cf238f72f7f61cbbb953094a$__97883b156103e9575f966122ef95604051998a98630817c25760e11b8a527f000000000000000000000000000000000000000000000000000000000000000060048b01613d94565b938180849603915af4801561086a57610e7d575080f35b346103e95760203660031901126103e95761232961044b600435610915816103d8565b805161233d906001600160a01b0316613366565b90610f68612377612372606084019461235d86516001600160401b031690565b6001600160401b03165f5260205260405f2090565b613def565b60208301519092906001600160a01b031692604082015194612398866133c3565b6123a1866133c3565b60208201516123bc906111fc906001600160701b03166111f0565b926112286123d1604085015163ffffffff1690565b92516001600160401b031690565b906020610412928181520190611c54565b346103e95760203660031901126103e95760043561240d816103d8565b612415613b7d565b5060018060a01b03165f525f5160206150355f395f51905f5260205260405f2060405161244181611609565b6040515f83548060011c9060018116908115612510575b602083108214611e7b5782855260208501919081156124f657506001146124ba575b610f68856124ae611dfb60028a89612494818b038261163f565b85526001810154602086015201546001600160401b031690565b604051918291826123df565b9091506124ca855f5260205f2090565b915f925b8184106124e2575050016002610f6861247a565b8054848401526020909301926001016124ce565b60ff191682525090151560051b0190506002610f6861247a565b91607f1691612458565b346103e9575f3660031901126103e957610f6860405161253b60408261163f565b60058152640352e302e360dc1b6020820152604051918291602083526020830190611c30565b346103e95761256f366121ea565b91969394929673__$c0ca080a98cf238f72f7f61cbbb953094a$__97883b156103e9575f966122ef95604051998a98633bd68e1f60e21b8a527f000000000000000000000000000000000000000000000000000000000000000060048b01613d94565b346103e9576125e036611146565b9073__$1cd3066fe913aa9d2ac4c48f01e58e18c5$__91823b156103e95760405163c5d0132d60e01b81527f00000000000000000000000000000000000000000000000000000000000000006001600160a01b0390811660048301527f0000000000000000000000000000000000000000000000000000000000000000811660248301527f00000000000000000000000000000000000000000000000000000000000000008116604483015290921660648301526001600160401b03166084820152905f90829060a49082905af4801561086a5761085457005b346103e9575f3660031901126103e9576020611b0f6113446148ba565b346103e95760203660031901126103e9576004356126f4816103d8565b612728337f00000000000000000000000000000000000000000000000000000000000000006001600160a01b031614613812565b6001600160a01b0381165f8181525f5160206150b55f395f51905f52602052604090205f5160206150955f395f51905f5290612763906133d9565b610a60610a4b602060408401936127908860028751612781816133c3565b61278a816133c3565b14614b2a565b61279988613ace565b60018552610a25565b346103e9575f3660031901126103e957610f686127c0611d196148ba565b604051918291602083526020830190611bf4565b346103e9575f3660031901126103e95760206001600160401b035f5160206150f55f395f51905f525416604051908152f35b346103e9576117656020612819366103ed565b60405163ca55139b60e01b81529384928392907f000000000000000000000000000000000000000000000000000000000000000060048501613848565b346103e95760203660031901126103e957610f2d6020600435612878816103d8565b604051632c9737fb60e21b81526001600160a01b037f000000000000000000000000000000000000000000000000000000000000000081166004830152909116602482015291829081906044820190565b346103e95760203660031901126103e9576004356128e6816103d8565b7f00000000000000000000000000000000000000000000000000000000000000006001600160a01b03163303612b705761292261044b82613309565b604081019161293681845161046b816133c3565b61293e6148ba565b90612949828461408c565b93612987612967612962875463ffffffff9060d01c1690565b614b52565b865463ffffffff60d01b191660d082901b63ffffffff60d01b1617909655565b6129948461054784613309565b6040516317c332e760e31b81527f00000000000000000000000000000000000000000000000000000000000000006001600160a01b03169490602081600481895afa801561086a5763ffffffff915f91612b51575b501663ffffffff87161015612a50575b50506040805163ffffffff90951685526001600160401b0390921660208501526001600160a01b0316927ff30f0392d5346908bf200bc0924d0c9860e22d46fc606e979a2e14fff24c62b992509081908101611103565b6004946020612a5d6148ba565b9160405197888092630d97cd9b60e31b82525afa92831561086a57612acc612abc612ad29363ffffffff612adb977ff30f0392d5346908bf200bc0924d0c9860e22d46fc606e979a2e14fff24c62b99b5f91612b22575b501690613ccc565b6001600160401b03166080850152565b60039052565b611a7683614bad565b6040516001600160401b03831681526001600160a01b038216907f6acc1079130362b805ce4a8874346d4ee8893d55f223e378ddc73031ce427eab90602090a25f806129f9565b612b44915060203d602011612b4a575b612b3c818361163f565b8101906148a5565b5f612ab4565b503d612b32565b612b6a915060203d602011612b4a57612b3c818361163f565b5f6129e9565b635e2569d960e11b5f5260045ffd5b346103e9575f3660031901126103e957612b9a611d196148ba565b612ba48151613b9c565b905f5b8151811015611e99576001600160a01b03612bc2828461386b565b51165f525f5160206150355f395f51905f5260205260405f2060405190612be882611609565b6040515f82548060011c9060018116908115612cad575b602083108214611e7b578285526020850191908115612c945750600114612c59575b50506002600195949383611de2612c3d95611dfb95038261163f565b612c47828661386b565b52612c52818561386b565b5001612ba7565b909150612c69845f5260205f2090565b915f925b818410612c805750500160026001612c21565b600181602092548686015201930192612c6d565b60ff191682525090151560051b01905060026001612c21565b91607f1691612bff565b63ffffffff8116036103e957565b346103e95760403660031901126103e957600435612ce281611135565b6001600160401b0360243591612cf783612cb7565b16805f525f5160206150555f395f51905f5260205260405f20908154908115612d815763ffffffff84169082821015612d6957610f68612d4f612d3a8787613ab9565b905460039190911b1c6001600160a01b031690565b6040516001600160a01b0390911681529081906020820190565b632fdbfd3160e21b5f5260045260245260445260645ffd5b6316b38b6f60e01b5f5260045260245ffd5b346103e957612daa612da4366103ed565b90613ee7565b604080519283526001600160401b0391909116602083015290f35b346103e9575f3660031901126103e9575f516020614ff55f395f51905f5254612ded81613ff6565b612df682613b9c565b915f5b818110612e11575050610f6860405192839283611c87565b80612e1d600192613a89565b838060a01b0391549060031b1c16612e35828661386b565b52818060a01b03612e46828661386b565b51165f525f5160206150355f395f51905f52602052612e6760405f20613beb565b612e71828761386b565b52612e7c818661386b565b5001612df9565b346103e95760603660031901126103e957600435612ea0816103d8565b612ea86105db565b90604435604051636f85684760e01b815290916020826004817f00000000000000000000000000000000000000000000000000000000000000006001600160a01b03165afa91821561086a5761086894612f1285612f329581945f91612f5a575b50811015614028565b612f226402540be400830661136e565b612f2a614058565b9233906142e8565b30337f00000000000000000000000000000000000000000000000000000000000000006145ef565b612f73915060203d602011610f9457610f86818361163f565b5f612f09565b346103e957612f87366121ea565b91969394929673__$c0ca080a98cf238f72f7f61cbbb953094a$__97883b156103e9575f966122ef95604051998a9863a757204960e01b8a527f000000000000000000000000000000000000000000000000000000000000000060048b01613d94565b346103e9575f3660031901126103e9575f5160206151555f395f51905f52546040516001600160a01b039091168152602090f35b346103e95760203660031901126103e9576001600160401b0360043561304381611135565b165f525f5160206150555f395f51905f52602052602060405f2054604051908152f35b346103e95760203660031901126103e957600435613083816103d8565b61308b614814565b5f5160206151555f395f51905f5280546001600160a01b0319166001600160a01b039283169081179091555f5160206150755f395f51905f52549091167f38d16b8cac22d99fc7c124b9cd0de2d3fa1faef420bfe791d8c362d765e227005f80a3005b346103e95760203660031901126103e95760043561310b816103d8565b6001600160a01b03165f9081525f5160206150b55f395f51905f52602052604090206001015460a01c60ff16600481101561314d576040519015158152602090f35b634e487b7160e01b5f52602160045260245ffd5b346103e95761316f36611146565b9073__$1cd3066fe913aa9d2ac4c48f01e58e18c5$__91823b156103e9576040516304c5372960e01b81527f00000000000000000000000000000000000000000000000000000000000000006001600160a01b0390811660048301527f00000000000000000000000000000000000000000000000000000000000000008116602483015290921660448301526001600160401b03166064820152905f90829060849082905af4801561086a5761085457005b346103e95760203660031901126103e95760043561323e816103d8565b73__$1cd3066fe913aa9d2ac4c48f01e58e18c5$__90813b156103e957604051635154d80160e11b81527f00000000000000000000000000000000000000000000000000000000000000006001600160a01b0390811660048301527f0000000000000000000000000000000000000000000000000000000000000000811660248301527f0000000000000000000000000000000000000000000000000000000000000000811660448301529091166064820152905f90829060849082905af4801561086a5761085457005b6001600160a01b03165f9081525f5160206150b55f395f51905f526020526040902090565b6001600160a01b03165f9081527f4102a9ba7244b40639ebe412c7bfc792b19c048efdf631bf4f130fef80c0df016020526040902090565b6001600160a01b03165f9081525f5160206151155f395f51905f526020526040902090565b6001600160a01b03165f9081527f4102a9ba7244b40639ebe412c7bfc792b19c048efdf631bf4f130fef80c0df036020526040902090565b6004111561314d57565b600482101561314d5752565b9061166f6040516133e9816115e9565b60a061344a60028396600180851b0381541685526001600160401b03806001830154600180881b038116602089015261342a60ff82891c1660408a016133cd565b60a81c1616606086015201546001600160401b0381166080850152610d51565b6001600160401b0316910152565b156134605750565b635a4887e160e01b5f9081526001600160a01b0391909116600452602490fd5b156134885750565b6359de29ed60e01b5f9081526001600160a01b0391909116600452602490fd5b156134af57565b6352afe97760e11b5f5260045ffd5b156134c65750565b63b5202b6360e01b5f9081526001600160a01b0391909116600452602490fd5b5f5160206151555f395f51905f5280546001600160a01b0319169055565b80546001600160a01b0319166001600160a01b03909216919091179055565b815190919061353b906001600160a01b031683613504565b6020810151600183019290613559906001600160a01b031684613504565b6040820151600481101561314d57600481101561314d578354606084015167ffffffffffffffff60a81b60a89190911b1668ffffffffffffffffff60a01b1990911660ff60a01b60a093841b16171790935561166f926135f991600201926135eb6135ce60808301516001600160401b031690565b855467ffffffffffffffff19166001600160401b03909116178555565b01516001600160401b031690565b815467ffffffffffffffff60401b191660409190911b67ffffffffffffffff60401b16179055565b60ff909116815261ffff909116602082015260400190565b1561364057565b63612acc3960e11b5f5260045ffd5b634e487b7160e01b5f52603260045260245ffd5b91908110156136735760051b0190565b61364f565b35610412816103d8565b634e487b7160e01b5f52601160045260245ffd5b90600182018092116136a457565b613682565b919082018092116136a457565b939291936136c2614b6a565b6136ca614b6a565b6136d2614b6a565b6001600160a01b038116156137b2576136f090959493929195614834565b6136f8614b6a565b613700614b6a565b61370b838314613639565b5f945f945b84861061375157505050505050806137255750565b61166f9030337f00000000000000000000000000000000000000000000000000000000000000006145ef565b9091929394956137a660019161379461377361376e8b8b89613663565b613678565b8561378261376e8d8d8b613663565b61378d8d8c8c613663565b359261447b565b61379f898888613663565b35906136a9565b96019493929190613710565b631e4fbdf760e01b5f525f60045260245ffd5b6040513d5f823e3d90fd5b156137d85750565b61ffff906368ec6e2560e11b5f521660045260245ffd5b80546001600160f01b031660f09290921b6001600160f01b031916919091179055565b1561381957565b6354348f0360e01b5f5260045ffd5b908060209392818452848401375f828201840152601f01601f1916010190565b6001600160a01b0391821681529181166020830152909116604082015260600190565b80518210156136735760209160051b010190565b6001600160a01b03165f8181525f5160206150b55f395f51905f526020526040902060019081015460a01c60ff166138b6816133c3565b03613902576138c36146e6565b905f5b82518110156138fb57816001600160a01b036138e56104f1848761386b565b16146138f3576001016138c6565b505050600190565b5050505f90565b505f90565b908160209103126103e9575190565b906402540be4008202918083046402540be40014901517156136a457565b90916001600160a01b037f000000000000000000000000000000000000000000000000000000000000000016308114908115613a17575b5061180b57613978614814565b6040516352d1902d60e01b8152926020846004816001600160a01b0387165afa5f94816139f6575b506139c157634c9c8ce360e01b5f526001600160a01b03831660045260245ffd5b90915f5160206150d55f395f51905f5284036139e25761166f929350614c97565b632a87526960e21b5f52600484905260245ffd5b613a1091955060203d602011610f9457610f86818361163f565b935f6139a0565b5f5160206150d55f395f51905f52546001600160a01b0316141590505f61396b565b15613a415750565b631bceedfb60e11b5f9081526001600160a01b0391909116600452602490fd5b15613a695750565b633a4541ef60e01b5f9081526001600160a01b0391909116600452602490fd5b5f516020614ff55f395f51905f5254811015613673575f516020614ff55f395f51905f525f5260205f2001905f90565b8054821015613673575f5260205f2001905f90565b5f516020614ff55f395f51905f525490600160401b82101561160457600182015f516020614ff55f395f51905f52555f516020614ff55f395f51905f5254821015613673575f516020614ff55f395f51905f525f527f024be1d688fec05d4c3e9aeb5eac4f8c1e7d5bd030a2d0a8bafafba39f7f7ac990910180546001600160a01b0319166001600160a01b03909216919091179055565b6001600160401b0381116116045760051b60200190565b60405190613b8a82611609565b5f604083606081528260208201520152565b90613ba682613b66565b613bb3604051918261163f565b8281528092613bc4601f1991613b66565b01905f5b828110613bd457505050565b602090613bdf613b7d565b82828501015201613bc8565b90604051613bf881611609565b80926040515f82548060011c9060018116908115613ca4575b602083108214611e7b578285526020850191908115613c8a5750600114613c4e575b5050600261166f94938361249460409561344a95038261163f565b909150613c5e845f5260205f2090565b915f925b818410613c7657505001600261166f613c33565b805484840152602090930192600101613c62565b60ff191682525090151560051b019050600261166f613c33565b91607f1691613c11565b6001600160401b036001911601906001600160401b0382116136a457565b906001600160401b03809116911601906001600160401b0382116136a457565b6001600160401b035f19911601906001600160401b0382116136a457565b6001600160a01b03909116815260a0602082018190528101839052929594939160c0840191905f5b818110613d6a57505050916001600160401b036080928161166f96959816604084015216606082015201906001600160401b03169052565b9091926020806001928635613d7e816103d8565b848060a01b031681520194019101919091613d32565b9795939094613dc5613dd3936104129b9995613de19860018060a01b03168c5260a060208d015260a08c0191613828565b9189830360408b0152613828565b918683036060880152613828565b926080818503910152613828565b90604051613dfc81611624565b91546001600160601b0381168352606081811c6001600160701b0316602085015260d082901c63ffffffff16604085015260f09190911c90830152565b90604051604081018181106001600160401b038211176116045760405291546001600160701b038116835260701c6001600160401b03166020830152565b908154613e8381613b66565b92613e91604051948561163f565b81845260208401905f5260205f205f915b838310613eaf5750505050565b600160208192613ebe85613e39565b815201920192019190613ea2565b5f198101919082116136a457565b919082039182116136a457565b90611493613ef49261338b565b60405190613f0182611624565b8054613f0c81613b66565b90613f1a604051928361163f565b80825260208201835f5260205f205f915b838310613fd957505050506003613f9892613f88928552613f69613f5960018301546001600160401b031690565b6001600160401b03166020870152565b613f7560028201613e77565b604086015201546001600160401b031690565b6001600160401b03166060830152565b518051908115613fd157613fae613fb492613ecc565b9061386b565b519061041260206112416111fc6111f0865160018060701b031690565b50505f905f90565b600160208192613fe885613e39565b815201920192019190613f2b565b9061400082613b66565b61400d604051918261163f565b828152809261401e601f1991613b66565b0190602036910137565b156140305750565b630a30df6160e11b5f5260045260245ffd5b1561404957565b634b5d6ee760e11b5f5260045ffd5b6104126113446148ba565b8054600160601b600160d01b03191660609290921b600160601b600160d01b0316919091179055565b80516001600160a01b03165f9081525f5160206151155f395f51905f52602052604090209192916140be90849061146f565b805490939060601c6001600160701b03166141645761413061412a6060614109612372826140f5613366895160018060a01b031690565b97019661235d88516001600160401b031690565b6020810151614121906001600160701b031689614063565b015161ffff1690565b856137ef565b61414461151c83516001600160401b031690565b6001600160401b03821611614157575050565b6001600160401b03169052565b5050565b1561416f57565b632808647560e11b5f5260045ffd5b1561418557565b639905827b60e01b5f5260045ffd5b1561419b57565b63d5b25b6360e01b5f5260045ffd5b156141b25750565b63164688df60e21b5f9081526001600160a01b0391909116600452602490fd5b81156141dc570490565b634e487b7160e01b5f52601260045260245ffd5b815181546001600160601b0319166001600160601b039190911617815561166f9161ffff906060906020810151614230906001600160701b031685614063565b6040810151845463ffffffff60d01b191660d09190911b63ffffffff60d01b16178455015116906137ef565b156142645750565b634168a4a560e11b5f5260045260245ffd5b8054600160401b8110156116045761429391600182018155613ab9565b9190916142d557805182546020909201516001600160b01b03199092166001600160701b03919091161760709190911b67ffffffffffffffff60701b16179055565b634e487b7160e01b5f525f60045260245ffd5b916144495f5160206150155f395f51905f529361433b966114df6114a8614461966114936144096111f06143289c60018060a01b0389169d8e1515614168565b6001600160a01b0385169e8f151561417e565b61434b6402540be400820661136e565b6001600160401b03881680614466575b5061436f8b610bb861ffff821611156137d0565b6143d461437e61044b8b613309565b6143bc60028c6143a8604085019161439b8184516113b7816133c3565b6001600160a01b03168552565b6001600160a01b038a1660208501526133cd565b6001600160401b038a1660608201526105478b613309565b6143e7896104eb6104df6104d28961332e565b6143f4896105248761332e565b6143fe60026133c3565b6402540be400900490565b95614444614415611660565b5f81526001600160701b03891660208201525f604082015261ffff8b1660608201526114858861146f85613366565b61338b565b61445360026133c3565b604051918291600283613621565b0390a3565b6144759061152861151c614058565b5f61435b565b6001600160a01b038116925f5160206150155f395f51905f5292614461926145d7916145a6906144ac881515614168565b6001600160a01b038116986114939061456b906111f0906144ce8d151561417e565b6144de6402540be400820661136e565b6144f189610bb861ffff821611156137d0565b61453861450061044b89613309565b6145296001604083016145188c82516113b7816133c3565b6001600160a01b038c1684526143a8565b5f606082015261054789613309565b61454b876104eb6104df6104d28961332e565b614558876105248761332e565b61456260016133c3565b6143fe87613ace565b93614444614577611660565b5f81526001600160701b03871660208201525f604082015261ffff891660608201526114855f61146f85613366565b6145b28154801561425c565b6145cc6145bd611671565b6001600160701b039093168352565b5f6020830152614276565b6145e160016133c3565b604051918291600183613621565b6040516323b872dd60e01b602082019081526001600160a01b03938416602483015293909216604483015260648083019490945292815291614659915f9182919061463b60848761163f565b60018060a01b031694519082865af1614652614dfb565b9083614f96565b805190811515918261468a575b505061466f5750565b635274afe760e01b5f526001600160a01b031660045260245ffd5b6146a1925090602080610680938301019101614b95565b5f80614666565b156146af57565b63098a8cbb60e41b5f5260045ffd5b156146c65750565b6375687d0f60e11b5f9081526001600160a01b0391909116600452602490fd5b610412611d196148ba565b6001600160601b0391821690821601919082116136a457565b6040519061471782611624565b5f6060838281528260208201528260408201520152565b91906147669061473c61470a565b5083516001600160a01b03165f9081525f5160206151155f395f51905f526020526040902061146f565b916040519261477484611624565b546001600160601b0381168452606081811c6001600160701b03166020860181905260d083901c63ffffffff16604087015260f09290921c90850152839061480f575061480460606147ec6123728461235d846147dd61336661166f995160018060a01b031690565b9201516001600160401b031690565b6020818101516001600160701b031690870152614121565b61ffff166060840152565b925050565b5f5160206150755f395f51905f52546001600160a01b03163303611b5957565b61483c6134e6565b5f5160206150755f395f51905f5280546001600160a01b039283166001600160a01b0319821681179092559091167f8be0079c531659141344cd1fd0a4f28419497f9722a3daafe3b4186f6b6457e05f80a3565b908160209103126103e9575161041281611135565b908160209103126103e9575161041281612cb7565b604051631454a0a560e31b81527f00000000000000000000000000000000000000000000000000000000000000006001600160a01b031690602081600481855afa801561086a576001600160401b03915f91614985575b50169081431061497f57602061492960049343613eda565b916040519384809263068d921560e31b82525afa90811561086a5763ffffffff61151c92610412945f91614960575b5016906141d2565b614979915060203d602011612b4a57612b3c818361163f565b5f614958565b50505f90565b6149a7915060203d6020116149ad575b61499f818361163f565b810190614890565b5f614911565b503d614995565b905f516020614ff55f395f51905f52546149cd81613ff6565b925f5b828110614b0857506040516306598de160e31b815290602090829060049082906001600160a01b03165afa801561086a5763ffffffff915f91614ae9575b501691818311614ae0575b5f5b838110614a2a57505050815290565b80614a3e61044b6109156104f1858a61386b565b614a4783613696565b858110614a9d57505090614a97600192614a82614a676104f1858b61386b565b91614a91614a786104f1838d61386b565b614a82878d61386b565b6001600160a01b039091169052565b8961386b565b01614a1b565b614ab061044b6109156104f1848c61386b565b614aba8684614d39565b614ac48783614d39565b11614ad3575b50600101614a47565b9092509050816001614aca565b91508091614a19565b614b02915060203d602011612b4a57612b3c818361163f565b5f614a0e565b80614b24614b1a612d3a600194613a89565b614a82838961386b565b016149d0565b15614b325750565b63403f6f6f60e11b5f9081526001600160a01b0391909116600452602490fd5b63ffffffff60019116019063ffffffff82116136a457565b60ff5f5160206151355f395f51905f525460401c1615614b8657565b631afcd79f60e31b5f5260045ffd5b908160209103126103e9575180151581036103e95790565b5f516020614ff55f395f51905f5254905f905f19906001600160a01b03165b838310614c59575b5090505f811215614be3575050565b6001821180614c47575b614bfc575b505061166f614d70565b614c1c614c16612d3a614c11614c4095613ecc565b613a89565b91613a89565b81546001600160a01b0393841660039290921b91821b9390911b1916919091179055565b5f80614bf2565b50614c5182613ecc565b811415614bed565b80614c7d614c6685613a89565b90546001600160a01b039260039290921b1c821690565b1603614c8c575050805f614bd4565b600190920191614bcc565b90813b15614d18575f5160206150d55f395f51905f5280546001600160a01b0319166001600160a01b0384169081179091557fbc7cd75a20ee27fd9adebab32041f755214dbc6bffa90cc0225b39da2e5c2d3b5f80a2805115614d0057614cfd91614e2a565b50565b505034614d0957565b63b398979f60e01b5f5260045ffd5b50634c9c8ce360e01b5f9081526001600160a01b0391909116600452602490fd5b6001600160701b0391602091614d4f9190614e47565b0151166402540be4008102908082046402540be40014901517156136a45790565b5f516020614ff55f395f51905f52548015614de7575f198101905f516020614ff55f395f51905f5254821015613673575f516020614ff55f395f51905f525f8190527f024be1d688fec05d4c3e9aeb5eac4f8c1e7d5bd030a2d0a8bafafba39f7f7ac890910180546001600160a01b031916905555565b634e487b7160e01b5f52603160045260245ffd5b3d15614e25573d90614e0c82611680565b91614e1a604051938461163f565b82523d5f602084013e565b606090565b5f8061041293602081519101845af4614e41614dfb565b91614f96565b90614e5061470a565b506060820190614e6782516001600160401b031690565b6001600160401b0381166001600160401b0383161015614f8f57505b6001600160401b0381168015614f63578351614eb19061237290849061146f906001600160a01b0316613366565b90614ec661151c85516001600160401b031690565b148015614f4d575b8015614f3a575b8015614f1f575b8015614f00575b614ef957505f19016001600160401b0316614e83565b9250505090565b5063ffffffff614f17604083015163ffffffff1690565b161515614ee3565b5061ffff614f32606083015161ffff1690565b161515614edc565b5080516001600160601b03161515614ed5565b5060208101516001600160701b03161515614ece565b50509051610412915061237290614f82906001600160a01b0316613366565b5f805260205260405f2090565b9050614e83565b90614fba5750805115614fab57805190602001fd5b630a12f52160e11b5f5260045ffd5b81511580614feb575b614fcb575090565b639996b31560e01b5f9081526001600160a01b0391909116600452602490fd5b50803b15614fc356fe4102a9ba7244b40639ebe412c7bfc792b19c048efdf631bf4f130fef80c0df0242449fd19d367b0177da9082fe6da7d4da41af7573e3a3c1750ecffeffe26f9df295d610a4116363064013aa5e1168427c6b907b208d8be559665c0e7adec5008f1c49778ec45f03e87f0e3e1567785ab335a882d8dad6d5c44cb7ae509684009016d09d72d40fdae2fd8ceac6b6234c7706214fd39c1cd1e609a0528c199300c00107e0d011ac7c8e4dfa18e3dd3623ff151f8bfcc3821cd39bc114bd6504d94102a9ba7244b40639ebe412c7bfc792b19c048efdf631bf4f130fef80c0df00360894a13ba1a3210667c828492db98dca3e2076cc3735a920a3ca505d382bbc8f1c49778ec45f03e87f0e3e1567785ab335a882d8dad6d5c44cb7ae509684014102a9ba7244b40639ebe412c7bfc792b19c048efdf631bf4f130fef80c0df04f0c57e16840df040f15088dc2f81fe391c3923bec73e23a9662efc9c229c6a00237e158222e3e6968b72b9db0d8043aacf074ad9f650f0d1606b4d82ee432c00a2646970667358221220ddb4e6c79896321a6efe3dff63cce0ebf1d6764ab64f24994ddd2f993564aafc64736f6c634300081e0033f0c57e16840df040f15088dc2f81fe391c3923bec73e23a9662efc9c229c6a00","linkReferences":{"contracts/staking/StakingDpos.sol":{"StakingDpos":[{"start":3593,"length":20},{"start":8926,"length":20},{"start":9620,"length":20},{"start":10359,"length":20},{"start":12943,"length":20}]},"contracts/staking/StakingEconomics.sol":{"StakingEconomics":[{"start":2731,"length":20},{"start":4334,"length":20},{"start":4657,"length":20},{"start":6228,"length":20},{"start":6761,"length":20},{"start":7021,"length":20},{"start":9257,"length":20},{"start":10467,"length":20},{"start":13426,"length":20},{"start":13632,"length":20}]}}},"methodIdentifiers":{"UPGRADE_INTERFACE_VERSION()":"ad3cb1cc","acceptOwnership()":"79ba5097","activateValidator(address)":"b46e5520","addValidator(address)":"4d238c8e","calcAvailableForRedelegateAmount(address,address)":"5ef9e8c6","changeValidatorCommissionRate(address,uint16)":"14f8649f","changeValidatorOwner(address,address)":"0052c9e1","claimDelegatorFee(address)":"426594b1","claimDelegatorFeeAtEpoch(address,uint64)":"fe38ebef","claimValidatorFee(address)":"ff4794fc","claimValidatorFeeAtEpoch(address,uint64)":"adf2a79c","commitEpochCommittee(address[])":"87401d8a","committeeSelectionEpoch()":"8bd070e4","currentEpoch()":"76671808","delegate(address,uint256)":"026e402b","deposit(address,uint256)":"47e7ef24","disableValidator(address)":"1fe97684","getChainConfig()":"606c0c94","getConsensusKeys(address)":"ad36f42f","getDelegatorFee(address,address)":"52b7bea2","getEpochCommittee(uint64)":"80b562de","getEpochCommitteeLength(uint64)":"e3e6cedc","getGovernance()":"289b3c0d","getPendingDelegatorFee(address,address)":"c2fd58fc","getPendingValidatorFee(address)":"c6fb9065","getRegistryWithKeys()":"d96cbd7b","getStaking()":"7b1391a6","getStakingPool()":"45946334","getStakingToken()":"9f9106d1","getSystemReward()":"7a37cc59","getValidatorByOwner(address)":"30108c22","getValidatorDelegation(address,address)":"d951e186","getValidatorFee(address)":"457179fd","getValidatorStatus(address)":"a310624f","getValidatorStatusAtEpoch(address,uint64)":"48124d26","getValidators()":"b7ab4db5","getValidatorsWithKeys()":"d41c52eb","getValidatorsWithKeysAt(uint64)":"7cfba9f3","initialize(address,address[],uint256[],uint16)":"01f6bb50","isValidator(address)":"facd743b","isValidatorActive(address)":"42ad55ac","nextEpoch()":"aea0e78b","nextEpochToCommit()":"c06a82de","owner()":"8da5cb5b","pendingOwner()":"e30c3978","proxiableUUID()":"52d1902d","redelegateDelegatorFee(address)":"8ecb3fc9","registerValidator(address,uint16,uint256)":"dd0fb5df","releaseValidatorFromJail(address)":"73a3dda6","removeValidator(address)":"40a141ff","renounceOwnership()":"715018a6","resolveSigner(uint64,uint32)":"d7f1733d","setConsensusKeys(address,bytes,bytes,bytes32)":"225cba85","slash(address)":"c96be4cb","slashEquivocationFinalize(bytes,bytes,bytes,bytes)":"add07a3e","slashEquivocationNotarize(bytes,bytes,bytes,bytes)":"e28d2f63","slashEquivocationNullifyFinalize(bytes,bytes,bytes,bytes)":"a10827e9","transferOwnership(address)":"f2fde38b","undelegate(address,uint256)":"4d99dd16","upgradeToAndCall(address,bytes)":"4f1ef286"},"storageLayout":{"storage":[],"types":{}},"id":5}