{"abi":[{"type":"function","name":"calcAvailableForRedelegateAmount","inputs":[{"name":"cfg","type":"IChainConfig","internalType":"contract IChainConfig"},{"name":"validator","type":"address","internalType":"address"},{"name":"delegator","type":"address","internalType":"address"}],"outputs":[{"name":"amountToStake","type":"uint256","internalType":"uint256"},{"name":"rewardsDust","type":"uint256","internalType":"uint256"}],"stateMutability":"view"},{"type":"function","name":"getDelegatorFee","inputs":[{"name":"cfg","type":"IChainConfig","internalType":"contract IChainConfig"},{"name":"validatorAddress","type":"address","internalType":"address"},{"name":"delegatorAddress","type":"address","internalType":"address"}],"outputs":[{"name":"","type":"uint256","internalType":"uint256"}],"stateMutability":"view"},{"type":"function","name":"getPendingDelegatorFee","inputs":[{"name":"cfg","type":"IChainConfig","internalType":"contract IChainConfig"},{"name":"validatorAddress","type":"address","internalType":"address"},{"name":"delegatorAddress","type":"address","internalType":"address"}],"outputs":[{"name":"","type":"uint256","internalType":"uint256"}],"stateMutability":"view"},{"type":"function","name":"getPendingValidatorFee","inputs":[{"name":"cfg","type":"IChainConfig","internalType":"contract IChainConfig"},{"name":"validatorAddress","type":"address","internalType":"address"}],"outputs":[{"name":"","type":"uint256","internalType":"uint256"}],"stateMutability":"view"},{"type":"function","name":"getValidatorFee","inputs":[{"name":"cfg","type":"IChainConfig","internalType":"contract IChainConfig"},{"name":"validatorAddress","type":"address","internalType":"address"}],"outputs":[{"name":"","type":"uint256","internalType":"uint256"}],"stateMutability":"view"},{"type":"event","name":"Claimed","inputs":[{"name":"validator","type":"address","indexed":true,"internalType":"address"},{"name":"staker","type":"address","indexed":true,"internalType":"address"},{"name":"amount","type":"uint256","indexed":false,"internalType":"uint256"},{"name":"epoch","type":"uint64","indexed":false,"internalType":"uint64"}],"anonymous":false},{"type":"event","name":"Delegated","inputs":[{"name":"validator","type":"address","indexed":true,"internalType":"address"},{"name":"staker","type":"address","indexed":true,"internalType":"address"},{"name":"amount","type":"uint256","indexed":false,"internalType":"uint256"},{"name":"epoch","type":"uint64","indexed":false,"internalType":"uint64"}],"anonymous":false},{"type":"event","name":"Redelegated","inputs":[{"name":"validator","type":"address","indexed":true,"internalType":"address"},{"name":"staker","type":"address","indexed":true,"internalType":"address"},{"name":"amount","type":"uint256","indexed":false,"internalType":"uint256"},{"name":"dust","type":"uint256","indexed":false,"internalType":"uint256"},{"name":"epoch","type":"uint64","indexed":false,"internalType":"uint64"}],"anonymous":false},{"type":"event","name":"Undelegated","inputs":[{"name":"validator","type":"address","indexed":true,"internalType":"address"},{"name":"staker","type":"address","indexed":true,"internalType":"address"},{"name":"amount","type":"uint256","indexed":false,"internalType":"uint256"},{"name":"epoch","type":"uint64","indexed":false,"internalType":"uint64"}],"anonymous":false},{"type":"event","name":"ValidatorOwnerClaimed","inputs":[{"name":"validator","type":"address","indexed":true,"internalType":"address"},{"name":"amount","type":"uint256","indexed":false,"internalType":"uint256"},{"name":"epoch","type":"uint64","indexed":false,"internalType":"uint64"}],"anonymous":false},{"type":"error","name":"AddressEmptyCode","inputs":[{"name":"target","type":"address","internalType":"address"}]},{"type":"error","name":"AddressInsufficientBalance","inputs":[{"name":"account","type":"address","internalType":"address"}]},{"type":"error","name":"AmountTooLow","inputs":[{"name":"amount","type":"uint256","internalType":"uint256"}]},{"type":"error","name":"DelegationQueueEmpty","inputs":[]},{"type":"error","name":"FailedInnerCall","inputs":[]},{"type":"error","name":"InsufficientBalance","inputs":[]},{"type":"error","name":"InvalidClaimEpoch","inputs":[]},{"type":"error","name":"NotEnoughBalance","inputs":[]},{"type":"error","name":"OwnerSelfStakeBelowMinimum","inputs":[]},{"type":"error","name":"SafeERC20FailedOperation","inputs":[{"name":"token","type":"address","internalType":"address"}]},{"type":"error","name":"ValidatorNotFound","inputs":[{"name":"validator","type":"address","internalType":"address"}]},{"type":"error","name":"WrongAmountPrecision","inputs":[]}],"bytecode":{"object":"0x60808060405234601b57612a0a90816100208239308160070152f35b5f80fdfe6080604052307f0000000000000000000000000000000000000000000000000000000000000000146004361015610034575f80fd5b5f3560e01c90816304c53729146113c75781635c345cf7146113945781638931ee56146110145781638f26ed7814610fd75781639cd6042014610a7d578163a2a9b002146109f7578163b25cdfec146109d0578163be0487c614610982578163c5d0132d146108ca578163ca55139b14610889578163e5090aa2146100f5575063e61e2bff146100c2575f80fd5b60403660031901126100f15760206100e96100db611428565b6100e361143e565b90611627565b604051908152f35b5f80fd5b6100f15760603660031901126100f15761010d611428565b61011561143e565b61011d611454565b916101278161170c565b9061013184611480565b60018060a01b0333165f5260205261014d60405f20928361258d565b935f9260018101946001600160401b03865416906001600160401b0383549816905f19890197898911995b6001600160401b03851698818a101561086f579a6001600160401b039a9b6101a96101a3888a611805565b5061182e565b9a8660208d019d8e51161015610853575f926106f1578d11928361082b575b905b6001600160401b038d5116878110908161080c575b50156102c957908c916101f18b6114b8565b6001600160401b0380855116165f526020528b8d60405f20604051906102168261153b565b549260018060601b038416825260018060701b038460601c16602083019481865263ffffffff8160d01c16604085015260f01c6060840152156102b2579361029a6102a9946102896001600160401b0397956102766102a0968a98612622565b505090516001600160701b0316906118d4565b90516001600160701b0316906116ee565b906118e7565b945b51166118b7565b168d52906101ca565b50505050916102a96001600160401b0380926102a2565b9a91509a509490945f95156102fd5750806102f06102ea6102f59389611805565b90611949565b6118b7565b939998610178565b90929799506001600160401b039398969a5061032591945061031f8387611805565b906118f4565b9392935b166001600160401b03198254161790556003820160026001600160401b0382541693018054905b816001600160401b03861610610799575b50506001600160401b0361038593166001600160401b0319825416179055846124ea565b919093841515806103ef575b505081806103dd575b5050604051928352602083015260408201527fa82f74002b6639f6cfc2cfd4f3ade1998108eda0f484d9064e3098c211e81d6e6060339360018060a01b031692a3005b6103e89133906126f9565b848161039a565b60405163eea9a01b60e01b81526020816004816001600160a01b0387165afa801561078e5787915f91610757575b509161043392821015908161074f575b50612087565b6402540be4008506610740576001600160a01b0386165f8181525f5160206129755f395f51905f526020526040908190209051929061047184611505565b80546001600160a01b039081168552600182015490811660208601908152946040810193919260a084901c60ff1692600484101561072c57610501610506916104fc8f94600290888b526001600160401b03606089019a60a81c168a5201549460808701976001600160401b03871689526001600160401b0360a089019760401c16875215156114dd565b61170c565b61187a565b966105118884612740565b956105438d6402540be40060018060701b039104169761053d8960018060701b03835460601c166120a1565b906120ba565b5f8881525f5160206129755f395f51905f5260205260409020935184546001600160a01b03199081166001600160a01b039283161786559251600186018054909416911617825551600481101561072c5760026001600160401b0394859384936105e6998254908660a81b905160a81b169160ff60a01b9060a01b16906001600160481b0360a01b191617179055019451161682198454161783555116906120e3565b6105ef88611480565b335f908152602091909152604090208054909190156107055781545f1981019081116106f15761061f9083611805565b50918254906001600160401b03861691826001600160401b038260701c1610155f146106ad57505082546001600160701b039261065f92509083166120a1565b82546001600160701b03191691161790555b5f5160206129955f395f51905f52604051806106a333958a839081526001600160401b03909116602082015260400190565b0390a38580610391565b6106ec9450919290916106c991906001600160701b03166120a1565b91604051926106d784611520565b6001600160701b03168352602083015261210e565b610671565b634e487b7160e01b5f52601160045260245ffd5b6106ec916040519161071683611520565b82526001600160401b038516602083015261210e565b634e487b7160e01b5f52602160045260245ffd5b634b5d6ee760e11b5f5260045ffd5b90508961042d565b9150506020813d602011610786575b8161077360209383611556565b810103126100f15751869061043361041d565b3d9150610766565b6040513d5f823e3d90fd5b9091926107a96101a38684611805565b876001600160401b036020830151161161080457516001600160701b03166402540be4008181029291808404909114901517156106f1576107fb916107ed916118e7565b946102f06102ea8285611805565b93929190610350565b509291610361565b9050838015918215610821575b50508f6101df565b109050835f610819565b91506001600160401b036108476108418961185c565b8a611805565b505460701c16916101c8565b5096979b50505092909597506001600160401b03919650610329565b95969a505092909597506001600160401b03919650610329565b60603660031901126100f15760206100e96108a2611428565b6108aa61143e565b6108b2611454565b906108c46108bf8461170c565b61185c565b92611cf7565b6100f15760a03660031901126100f1576108e2611428565b6108ea61143e565b6108f2611454565b6108fa61146a565b90608435926001600160401b0384168085036100f15760018060a01b0384165f525f5160206129755f395f51905f5260205260405f209360ff600186015460a01c1690600482101561072c576109519115156114dd565b6001600160401b036109628761170c565b1610610973576109719461214c565b005b635071536360e11b5f5260045ffd5b60603660031901126100f15760406109c461099b611428565b6109be6109a661143e565b6109ae611454565b6109b78461170c565b9184611cf7565b906124ea565b82519182526020820152f35b60403660031901126100f15760206100e96109e9611428565b6109f161143e565b90611577565b6100f15760803660031901126100f157610a0f611428565b610a1761143e565b90610a20611454565b91610a2961146a565b9260018060a01b0384165f525f5160206129755f395f51905f5260205260405f209160ff600184015460a01c16600481101561072c5761097195610a6e9115156114dd565b610a778461170c565b9361214c565b6100f15760603660031901126100f157610a95611428565b610a9d61143e565b60405163eea9a01b60e01b815260443592906001600160a01b03821690602081600481855afa801561078e5785915f91610fa2575b508110159081610f98575b610ae691612087565b6402540be40084066107405760018060a01b03831692835f525f5160206129755f395f51905f5260205260405f209260405193610b2285611505565b80546001600160a01b0390811686526001820154908116602087019081529093604087019360a086901c60ff169190600483101561072c576108bf610ba5916104fc8460028d99888c526001600160401b0360608c019d60a81c168d520154966001600160401b0360a060808c019b828b168d52019860401c16885215156114dd565b95610bb0878a612740565b80546001600160701b036402540be4008e0481169b9297929160601c168b8110610f7a57610be18c610be792612133565b886120ba565b5f8c81525f5160206129755f395f51905f5260205260409020905181546001600160a01b039182166001600160a01b0319918216178355875160018401805491909316911617815588519590600487101561072c576001600160401b03600281948293610c969a610c91998254908660a81b905160a81b169160ff60a01b9060a01b16906001600160481b0360a01b191617179055019451161682198454161783555116906120e3565b611480565b60018060a01b0333165f5260205260405f209283548015610f89575f1981019081116106f157610cc69085611805565b508054909390916001600160701b038316898110610f7a5789610ce891612133565b93516001600160a01b031633149081610f46575b50610e78575b506001600160401b039360049360209360029387891697889160701c1610155f14610e4a5781546001600160701b0319166001600160701b03919091161790555b019460405192838092635e7b72ad60e01b82525afa801561078e5763ffffffff915f91610e1b575b5016016001600160401b0381116106f1576001600160401b039060405194610d9286611520565b85521660208401528154600160401b811015610e07577fa410e32157a44414a502bb47d775234de1aa7da123f5adfe426898f1601883fd9361031f82610e02956001610de095018155611805565b6040519182913396839081526001600160401b03909116602082015260400190565b0390a3005b634e487b7160e01b5f52604160045260245ffd5b610e3d915060203d602011610e43575b610e358183611556565b8101906116d2565b88610d6b565b503d610e2b565b610e73915060405190610e5c82611520565b6001600160701b031681528481018790528261210e565b610d43565b6402540be4006001600160701b038416818102929181159184041417156106f157546402540be40060609190911c6001600160701b0316818102929181159184041417156106f157604051636f85684760e01b81526020816004818c5afa90811561078e575f91610f14575b5081109182610f09575b5050610efa5789610d02565b6348b4fee160e01b5f5260045ffd5b141590508a80610eee565b90506020813d602011610f3e575b81610f2f60209383611556565b810103126100f157518c610ee4565b3d9150610f22565b80915051600481101561072c57600114908115610f65575b508b610cfc565b905051600481101561072c576002148b610f5e565b631e9acf1760e31b5f5260045ffd5b631022580160e11b5f5260045ffd5b8015159150610add565b9150506020813d602011610fcf575b81610fbe60209383611556565b810103126100f15784905186610ad2565b3d9150610fb1565b6100f15760603660031901126100f157610971610ff2611428565b610ffa61143e565b90611003611454565b61100c8261170c565b923392611953565b6100f15760803660031901126100f15761102c611428565b61103461143e565b9061103d611454565b60405163eea9a01b60e01b81526064359391906020816004816001600160a01b0388165afa801561078e5785915f9161135f575b508110159081611355575b61108591612087565b6402540be40084066107405760018060a01b03811692835f525f5160206129755f395f51905f5260205260405f2091604051906110c182611505565b83546001600160a01b0390811683526001850154908116602084019081526040840195909360a083901c60ff1691600483101561072c57610501600261114992858b526001600160401b03606086019760a81c1687520154976104fc8760808601966001600160401b038c1688526001600160401b0360a088019c60401c168c5215156114dd565b956111548783612740565b976111808c6402540be40060018060701b039104169961053d8b60018060701b03835460601c166120a1565b5f8b81525f5160206129755f395f51905f5260205260409020925183546001600160a01b03199081166001600160a01b03928316178555975160018501805490991691161787555195600487101561072c576001600160401b036002819482936112279a610c91998254908660a81b905160a81b169160ff60a01b9060a01b16906001600160481b0360a01b191617179055019451161682198454161783555116906120e3565b335f908152602091909152604090208054909390156113185783545f198101919082116106f15784610e029461126e610de0945f5160206129955f395f51905f5298611805565b50918254906001600160401b03871691826001600160401b038260701c1610155f146112f757505082546001600160701b03926112ae92509083166120a1565b82546001600160701b03191691161790555b6040516323b872dd60e01b602082015233602482015230604482015260648082018990528152906112f2608483611556565b61286d565b6113139450919290916106c991906001600160701b03166120a1565b6112c0565b610de090611313610e02945f5160206129955f395f51905f52966040519161133f83611520565b82526001600160401b038616602083015261210e565b801515915061107c565b9150506020813d60201161138c575b8161137b60209383611556565b810103126100f15784905186611071565b3d915061136e565b60603660031901126100f15760206100e96113ad611428565b6113b561143e565b6113bd611454565b906108c48361170c565b6100f15760803660031901126100f1576113df611428565b6113e761143e565b906113f0611454565b90606435916001600160401b0383168084036100f1576001600160401b036114178461170c565b161061097357610971933392611953565b600435906001600160a01b03821682036100f157565b602435906001600160a01b03821682036100f157565b604435906001600160a01b03821682036100f157565b606435906001600160a01b03821682036100f157565b6001600160a01b03165f9081527f4102a9ba7244b40639ebe412c7bfc792b19c048efdf631bf4f130fef80c0df036020526040902090565b6001600160a01b03165f9081525f5160206129b55f395f51905f526020526040902090565b156114e55750565b635a4887e160e01b5f9081526001600160a01b0391909116600452602490fd5b60c081019081106001600160401b03821117610e0757604052565b604081019081106001600160401b03821117610e0757604052565b608081019081106001600160401b03821117610e0757604052565b90601f801991011681019081106001600160401b03821117610e0757604052565b9060018060a01b03165f525f5160206129755f395f51905f5260205260405f2090604051916115a583611505565b80546001600160a01b0390811684526001820154908116602085015260a081901c60ff169190600483101561072c576001600160401b03918260029285604089015260a81c1660608701520154818116608086015260401c1660a0840152156116215761161e916116186108bf8361170c565b91612417565b90565b50505f90565b9060018060a01b03165f525f5160206129755f395f51905f5260205260405f20906040519161165583611505565b80546001600160a01b0390811684526001820154908116602085015260a081901c60ff169190600483101561072c576001600160401b03918260029285604089015260a81c1660608701520154818116608086015260401c1660a0840152156116215761161e916116188261170c565b919082039182116106f157565b908160209103126100f1575163ffffffff811681036100f15790565b81156116f8570490565b634e487b7160e01b5f52601260045260245ffd5b604051631454a0a560e31b81526001600160a01b039190911690602081600481855afa801561078e575f906117bc575b6001600160401b039150169081431061162157602061175d600493436116c5565b916040519384809263068d921560e31b82525afa90811561078e5763ffffffff611799926001600160401b03945f9161179d575b5016906116ee565b1690565b6117b6915060203d602011610e4357610e358183611556565b5f611791565b506020813d6020116117fd575b816117d660209383611556565b810103126100f157516001600160401b03811681036100f1576001600160401b039061173c565b3d91506117c9565b805482101561181a575f5260205f2001905f90565b634e487b7160e01b5f52603260045260245ffd5b9060405161183b81611520565b91546001600160701b038116835260701c6001600160401b03166020830152565b6001600160401b036001911601906001600160401b0382116106f157565b6001600160401b036002911601906001600160401b0382116106f157565b6001600160401b036103e8911601906001600160401b0382116106f157565b6001600160401b03166001600160401b0381146106f15760010190565b818102929181159184041417156106f157565b919082018092116106f157565b91906119365780518254602092909201516001600160b01b03199092166001600160701b03919091161760709190911b67ffffffffffffffff60701b16179055565b634e487b7160e01b5f525f60045260245ffd5b90611936575f9055565b939492909461196183611480565b60018060a01b0383165f5260205261197d60405f20918261258d565b935f946001600160401b0360018401541693835498895f19810111995b806001600160401b0388161015611cb5576119b86101a38888611805565b9a8b6001600160401b036020818816920151161015611c9d575f906106f1578b995f1983016001600160401b038a1610611c75575b6001600160401b0360208c0151166001600160401b03871681109081611c56575b5015611ad6578a6001600160401b03806020611a298e6114b8565b93015116165f5260205260405f2060405190611a448261153b565b549060018060601b03821681528d60018060701b038360601c16602083019381855263ffffffff8160d01c16604085015260f01c606084015215611abe57611aa76001600160401b03948f611ab19561028961029a926102768a98602098612622565b9d5b0151166118b7565b1660208d01528b996119ed565b50505099611ab16001600160401b0360208193611aa9565b995050955f9a5f1988016001600160401b0383161015611b085750806102f06102ea611b029389611805565b9561199a565b9092965085949a506001600160401b039397995061031f83611b2a9397611805565b166001600160401b0319600183015416176001820155600381019060026001600160401b0383541691018054905b816001600160401b03841610611bdc575b5050837fb22dec804803f8b1c5333f626cdbfdfb1bd629f1e1bb45dcfb22b5f74ed46b1c959493611bb3936001600160401b038994166001600160401b03198254161790556126f9565b604080519485526001600160401b039290921660208501526001600160a01b03908116941692a3565b909196611bec6101a38984611805565b6001600160401b0388166001600160401b0360208301511611611c4e57516001600160701b03166402540be4008181029291808404909114901517156106f157611c4791611c39916118e7565b976102f06102ea8285611805565b9190611b58565b509691611b69565b9050828015918215611c6b575b50505f611a0e565b109050825f611c63565b90506001600160401b03611c91611c8b8a61185c565b89611805565b505460701c16906119ed565b505093929850936001600160401b0391959750611b2a565b5093929850936001600160401b0391959750611b2a565b6001600160401b038111610e075760051b60200190565b805182101561181a5760209160051b010190565b9091611d0283611480565b9060018060a01b03165f5260205260405f209160405194611d228661153b565b8354611d2d81611ccc565b90611d3b6040519283611556565b80825260208201865f5260205f205f915b838310612064575050505086526001600160401b03600185015416906020870191825260028501948554611d7f81611ccc565b96611d8d6040519889611556565b81885260208801905f5260205f205f915b838310612041575050505060408801958652600301546001600160401b031660608801908152905f905b6001600160401b03845116895180518210156120305790611de891611ce3565b519760208901996001600160401b038b5116986001600160401b038316809a1015611f8a575f956001600160401b03885116835151905f1982019182116106f15710611f5b575b90919293945b6001600160401b038d51168b81109081611f3c575b5015611f1157908c9594939291611e608a6114b8565b6001600160401b0380895116165f5260205260405f208d60405191611e848361153b565b549160018060601b03831681528d60018060701b038460601c16602083019481865263ffffffff8160d01c16604085015260f01c606084015215611efa579361029a611eed946102896001600160401b039795610276611ee5968a98612622565b9851166118b7565b168d529091929394611e35565b5050505095611eed6001600160401b0380926102a2565b995092995092995092506001600160401b03611f2f818651166118b7565b1684529197959095611dc8565b9050878015918215611f51575b50505f611e4a565b109050875f611f49565b95506001600160401b036020611f80845183611f79818d511661185c565b1690611ce3565b5101511695611e2f565b9950509650945092509550505b6001600160401b03855116845180518210156120265790611fb791611ce3565b516001600160401b036020820151166001600160401b0385161061201e57516001600160701b03166402540be40081810291808304909114901517156106f157612000916118e7565b926001600160401b03612015818751166118b7565b16855292611f97565b509350915050565b5050925092505090565b505094509250955050929192611f97565b600160208192612053989e988561182e565b8152019201920191909a949a611d9e565b600160208192612076859e999e61182e565b815201920192019190999499611d4c565b1561208f5750565b637640cbd760e01b5f5260045260245ffd5b6001600160701b0391821690821601919082116106f157565b8054600160601b600160d01b03191660609290921b600160601b600160d01b0316919091179055565b805467ffffffffffffffff60401b191660409290921b67ffffffffffffffff60401b16919091179055565b80549190600160401b831015610e07578261031f91600161213195018155611805565b565b6001600160701b0391821690821603919082116106f157565b93919392909260028201946001600160401b03865460401c169161216f83611898565b6001600160401b0386166001600160401b0382161061240f575b505f965f93915b6001600160401b0387166001600160401b0384161061237e5750906121b4916120e3565b60018301546121ce9087906001600160a01b0316876126f9565b8161221f575b505054604080519485526001600160401b039290921660208501526001600160a01b0316927fb947d7b49cedaf132fd7a9592099c21170864455405d51b482503244153241009250a2565b60405163095ea7b360e01b602082019081526001600160a01b03929092166024820181905260448201849052959161226482606481015b03601f198101845283611556565b81516001600160a01b038416915f91829182855af1906122826128d8565b8261234c575b5081612341575b5015612302575b5050833b156100f1575f9360248592604051968793849263b6b55f2560e01b845260048401525af192831561078e577fb947d7b49cedaf132fd7a9592099c21170864455405d51b48250324415324100936122f2575b806121d4565b5f6122fc91611556565b5f6122ec565b61233a916112f260405163095ea7b360e01b60208201528860248201525f604482015260448152612334606482611556565b8261286d565b5f80612296565b90503b15155f61228f565b80519192508115918215612364575b5050905f612288565b6123779250602080918301019101612855565b5f8061235b565b91939760016124066001600160401b03926123a0838060a01b038a54166114b8565b8489165f526020526124006123f760405f20604051906123bf8261153b565b54868060601b0381168252868060701b038160601c16602083015263ffffffff8160d01c16604083015260f01c606082015288612622565b939091506118e7565b9b6118e7565b95011691612190565b94505f612189565b9092915f5b60a085016001600160401b038151166001600160401b03841611156124e357906124c1916001600160401b038061245b60018060a01b038a51166114b8565b925116165f526020526124b860405f20604051906124788261153b565b546001600160601b0381168252606081811c6001600160701b0316602084015260d082901c63ffffffff16604084015260f09190911c9082015285612622565b509190506118e7565b9260a085016001600160401b036124da818351166118b7565b1690529261241c565b5093505050565b91906402540be40081046402540be4008102908082046402540be40014901517156106f15760405163eea9a01b60e01b815290938490602090839060049082906001600160a01b03165afa91821561078e575f92612559575b5010612553578261161e916116c5565b5f925090565b9091506020813d602011612585575b8161257560209383611556565b810103126100f15751905f612543565b3d9150612568565b6001600160401b03600182015416815481105f146125ea576125ba6001600160401b03916125c593611805565b505460701c16611898565b906001600160401b0381166001600160401b038316105f146125e5575090565b905090565b5060026001600160401b03600383015416910190815481105f1461261d576125ba6001600160401b03916125c593611805565b505090565b6004602063ffffffff6040850151169260405192838092639dbf97db60e01b825260018060a01b03165afa801561078e5763ffffffff915f916126da575b50161161267857515f9182916001600160601b031690565b60208101516001600160701b0316156126c7576126c26127106126ad60018060601b0384511661ffff606086015116906118d4565b925192049182906001600160601b03166116c5565b915f90565b515f916001600160601b03909116908290565b6126f3915060203d602011610e4357610e358183611556565b5f612660565b9190918161270657505050565b60405163a9059cbb60e01b60208201526001600160a01b039093166024840152604483019190915261213191906112f28260648101612256565b919060018060a01b038351165f525f5160206129b55f395f51905f5260205260405f206001600160401b0382165f5260205260405f20928360018060701b03815460601c1661284f575060018060a01b038151165f525f5160206129b55f395f51905f52602052606060405f209101906001600160401b0380835116165f5260205260405f20612819604051916127d68361153b565b546001600160601b0381168352606081811c6001600160701b03166020850181905260d083901c63ffffffff16604086015260f083901c919094015291866120ba565b84546001600160f01b03166001600160f01b031990911617845580516001600160401b039283169216821161284c575050565b52565b93505050565b908160209103126100f1575180151581036100f15790565b5f806128959260018060a01b03169360208151910182865af161288e6128d8565b9083612916565b80519081151591826128bd575b50506128ab5750565b635274afe760e01b5f5260045260245ffd5b6128d09250602080918301019101612855565b155f806128a2565b3d15612911573d906001600160401b038211610e075760405191612906601f8201601f191660200184611556565b82523d5f602084013e565b606090565b9061293a575080511561292b57805190602001fd5b630a12f52160e11b5f5260045ffd5b8151158061296b575b61294b575090565b639996b31560e01b5f9081526001600160a01b0391909116600452602490fd5b50803b1561294356fe4102a9ba7244b40639ebe412c7bfc792b19c048efdf631bf4f130fef80c0df0030bcda2f188b532c7644e632473e83a6fb3c5c79717650d0ac790d141bb1b1774102a9ba7244b40639ebe412c7bfc792b19c048efdf631bf4f130fef80c0df04a2646970667358221220a6bdb1fe6e6567ef4d5bbad0829e3e6a3de656cf68f8d587de0a00e7b79bd90c64736f6c634300081e0033","linkReferences":{}},"methodIdentifiers":{"calcAvailableForRedelegateAmount(IChainConfig,address,address)":"be0487c6","claimDelegatorFee(IChainConfig,IERC20,address)":"8f26ed78","claimDelegatorFeeAtEpoch(IChainConfig,IERC20,address,uint64)":"04c53729","claimValidatorFee(IChainConfig,IERC20,ISystemReward,address)":"a2a9b002","claimValidatorFeeAtEpoch(IChainConfig,IERC20,ISystemReward,address,uint64)":"c5d0132d","delegate(IChainConfig,IERC20,address,uint256)":"8931ee56","getDelegatorFee(IChainConfig,address,address)":"5c345cf7","getPendingDelegatorFee(IChainConfig,address,address)":"ca55139b","getPendingValidatorFee(IChainConfig,address)":"b25cdfec","getValidatorFee(IChainConfig,address)":"e61e2bff","redelegateDelegatorFee(IChainConfig,IERC20,address)":"e5090aa2","undelegate(IChainConfig,address,uint256)":"9cd60420"},"storageLayout":{"storage":[],"types":{}},"id":47}