{"abi":[{"type":"constructor","inputs":[{"name":"stakingContract","type":"address","internalType":"contract IStaking"},{"name":"systemRewardContract","type":"address","internalType":"contract ISystemReward"},{"name":"stakingPoolContract","type":"address","internalType":"contract IStakingPool"},{"name":"governanceContract","type":"address","internalType":"contract IFluentGovernance"},{"name":"chainConfigContract","type":"address","internalType":"contract IChainConfig"},{"name":"stakingToken","type":"address","internalType":"contract IERC20"},{"name":"livenessSlashingAddr","type":"address","internalType":"address"}],"stateMutability":"nonpayable"},{"type":"function","name":"UPGRADE_INTERFACE_VERSION","inputs":[],"outputs":[{"name":"","type":"string","internalType":"string"}],"stateMutability":"view"},{"type":"function","name":"acceptOwnership","inputs":[],"outputs":[],"stateMutability":"nonpayable"},{"type":"function","name":"activateValidator","inputs":[{"name":"validator","type":"address","internalType":"address"}],"outputs":[],"stateMutability":"nonpayable"},{"type":"function","name":"addValidator","inputs":[{"name":"account","type":"address","internalType":"address"}],"outputs":[],"stateMutability":"nonpayable"},{"type":"function","name":"calcAvailableForRedelegateAmount","inputs":[{"name":"validator","type":"address","internalType":"address"},{"name":"delegator","type":"address","internalType":"address"}],"outputs":[{"name":"amountToStake","type":"uint256","internalType":"uint256"},{"name":"rewardsDust","type":"uint256","internalType":"uint256"}],"stateMutability":"view"},{"type":"function","name":"changeValidatorCommissionRate","inputs":[{"name":"validatorAddress","type":"address","internalType":"address"},{"name":"commissionRate","type":"uint16","internalType":"uint16"}],"outputs":[],"stateMutability":"nonpayable"},{"type":"function","name":"changeValidatorOwner","inputs":[{"name":"validatorAddress","type":"address","internalType":"address"},{"name":"newOwner","type":"address","internalType":"address"}],"outputs":[],"stateMutability":"nonpayable"},{"type":"function","name":"claimDelegatorFee","inputs":[{"name":"validatorAddress","type":"address","internalType":"address"}],"outputs":[],"stateMutability":"nonpayable"},{"type":"function","name":"claimDelegatorFeeAtEpoch","inputs":[{"name":"validatorAddress","type":"address","internalType":"address"},{"name":"beforeEpoch","type":"uint64","internalType":"uint64"}],"outputs":[],"stateMutability":"nonpayable"},{"type":"function","name":"claimValidatorFee","inputs":[{"name":"validatorAddress","type":"address","internalType":"address"}],"outputs":[],"stateMutability":"nonpayable"},{"type":"function","name":"claimValidatorFeeAtEpoch","inputs":[{"name":"validatorAddress","type":"address","internalType":"address"},{"name":"beforeEpoch","type":"uint64","internalType":"uint64"}],"outputs":[],"stateMutability":"nonpayable"},{"type":"function","name":"commitEpochCommittee","inputs":[{"name":"committee","type":"address[]","internalType":"address[]"}],"outputs":[],"stateMutability":"nonpayable"},{"type":"function","name":"committeeSelectionEpoch","inputs":[],"outputs":[{"name":"","type":"uint64","internalType":"uint64"}],"stateMutability":"view"},{"type":"function","name":"currentEpoch","inputs":[],"outputs":[{"name":"","type":"uint64","internalType":"uint64"}],"stateMutability":"view"},{"type":"function","name":"delegate","inputs":[{"name":"validatorAddress","type":"address","internalType":"address"},{"name":"amount","type":"uint256","internalType":"uint256"}],"outputs":[],"stateMutability":"nonpayable"},{"type":"function","name":"deposit","inputs":[{"name":"validatorAddress","type":"address","internalType":"address"},{"name":"amount","type":"uint256","internalType":"uint256"}],"outputs":[],"stateMutability":"nonpayable"},{"type":"function","name":"disableValidator","inputs":[{"name":"validator","type":"address","internalType":"address"}],"outputs":[],"stateMutability":"nonpayable"},{"type":"function","name":"getChainConfig","inputs":[],"outputs":[{"name":"","type":"address","internalType":"contract IChainConfig"}],"stateMutability":"view"},{"type":"function","name":"getConsensusKeys","inputs":[{"name":"validatorAddress","type":"address","internalType":"address"}],"outputs":[{"name":"","type":"tuple","internalType":"struct IStaking.ConsensusKeys","components":[{"name":"blsPubkey","type":"bytes","internalType":"bytes"},{"name":"peerPubkey","type":"bytes32","internalType":"bytes32"},{"name":"activationEpoch","type":"uint64","internalType":"uint64"}]}],"stateMutability":"view"},{"type":"function","name":"getDelegatorFee","inputs":[{"name":"validatorAddress","type":"address","internalType":"address"},{"name":"delegatorAddress","type":"address","internalType":"address"}],"outputs":[{"name":"","type":"uint256","internalType":"uint256"}],"stateMutability":"view"},{"type":"function","name":"getEpochCommittee","inputs":[{"name":"epoch","type":"uint64","internalType":"uint64"}],"outputs":[{"name":"","type":"address[]","internalType":"address[]"}],"stateMutability":"view"},{"type":"function","name":"getEpochCommitteeLength","inputs":[{"name":"epoch","type":"uint64","internalType":"uint64"}],"outputs":[{"name":"","type":"uint256","internalType":"uint256"}],"stateMutability":"view"},{"type":"function","name":"getGovernance","inputs":[],"outputs":[{"name":"","type":"address","internalType":"contract IFluentGovernance"}],"stateMutability":"view"},{"type":"function","name":"getPendingDelegatorFee","inputs":[{"name":"validatorAddress","type":"address","internalType":"address"},{"name":"delegatorAddress","type":"address","internalType":"address"}],"outputs":[{"name":"","type":"uint256","internalType":"uint256"}],"stateMutability":"view"},{"type":"function","name":"getPendingValidatorFee","inputs":[{"name":"validatorAddress","type":"address","internalType":"address"}],"outputs":[{"name":"","type":"uint256","internalType":"uint256"}],"stateMutability":"view"},{"type":"function","name":"getStaking","inputs":[],"outputs":[{"name":"","type":"address","internalType":"contract IStaking"}],"stateMutability":"view"},{"type":"function","name":"getStakingPool","inputs":[],"outputs":[{"name":"","type":"address","internalType":"contract IStakingPool"}],"stateMutability":"view"},{"type":"function","name":"getStakingToken","inputs":[],"outputs":[{"name":"","type":"address","internalType":"contract IERC20"}],"stateMutability":"view"},{"type":"function","name":"getSystemReward","inputs":[],"outputs":[{"name":"","type":"address","internalType":"contract ISystemReward"}],"stateMutability":"view"},{"type":"function","name":"getValidatorByOwner","inputs":[{"name":"owner","type":"address","internalType":"address"}],"outputs":[{"name":"","type":"address","internalType":"address"}],"stateMutability":"view"},{"type":"function","name":"getValidatorDelegation","inputs":[{"name":"validatorAddress","type":"address","internalType":"address"},{"name":"delegator","type":"address","internalType":"address"}],"outputs":[{"name":"delegatedAmount","type":"uint256","internalType":"uint256"},{"name":"atEpoch","type":"uint64","internalType":"uint64"}],"stateMutability":"view"},{"type":"function","name":"getValidatorFee","inputs":[{"name":"validatorAddress","type":"address","internalType":"address"}],"outputs":[{"name":"","type":"uint256","internalType":"uint256"}],"stateMutability":"view"},{"type":"function","name":"getValidatorStatus","inputs":[{"name":"validatorAddress","type":"address","internalType":"address"}],"outputs":[{"name":"ownerAddress","type":"address","internalType":"address"},{"name":"status","type":"uint8","internalType":"uint8"},{"name":"totalDelegated","type":"uint256","internalType":"uint256"},{"name":"slashesCount","type":"uint32","internalType":"uint32"},{"name":"changedAt","type":"uint64","internalType":"uint64"},{"name":"jailedBefore","type":"uint64","internalType":"uint64"},{"name":"claimedAt","type":"uint64","internalType":"uint64"},{"name":"commissionRate","type":"uint16","internalType":"uint16"},{"name":"totalRewards","type":"uint96","internalType":"uint96"}],"stateMutability":"view"},{"type":"function","name":"getValidatorStatusAtEpoch","inputs":[{"name":"validatorAddress","type":"address","internalType":"address"},{"name":"epoch","type":"uint64","internalType":"uint64"}],"outputs":[{"name":"ownerAddress","type":"address","internalType":"address"},{"name":"status","type":"uint8","internalType":"uint8"},{"name":"totalDelegated","type":"uint256","internalType":"uint256"},{"name":"slashesCount","type":"uint32","internalType":"uint32"},{"name":"changedAt","type":"uint64","internalType":"uint64"},{"name":"jailedBefore","type":"uint64","internalType":"uint64"},{"name":"claimedAt","type":"uint64","internalType":"uint64"},{"name":"commissionRate","type":"uint16","internalType":"uint16"},{"name":"totalRewards","type":"uint96","internalType":"uint96"}],"stateMutability":"view"},{"type":"function","name":"getValidators","inputs":[],"outputs":[{"name":"","type":"address[]","internalType":"address[]"}],"stateMutability":"view"},{"type":"function","name":"getValidatorsWithKeys","inputs":[],"outputs":[{"name":"addrs","type":"address[]","internalType":"address[]"},{"name":"keys","type":"tuple[]","internalType":"struct IStaking.ConsensusKeys[]","components":[{"name":"blsPubkey","type":"bytes","internalType":"bytes"},{"name":"peerPubkey","type":"bytes32","internalType":"bytes32"},{"name":"activationEpoch","type":"uint64","internalType":"uint64"}]}],"stateMutability":"view"},{"type":"function","name":"getValidatorsWithKeysAt","inputs":[{"name":"epoch","type":"uint64","internalType":"uint64"}],"outputs":[{"name":"addrs","type":"address[]","internalType":"address[]"},{"name":"keys","type":"tuple[]","internalType":"struct IStaking.ConsensusKeys[]","components":[{"name":"blsPubkey","type":"bytes","internalType":"bytes"},{"name":"peerPubkey","type":"bytes32","internalType":"bytes32"},{"name":"activationEpoch","type":"uint64","internalType":"uint64"}]}],"stateMutability":"view"},{"type":"function","name":"initialize","inputs":[{"name":"initialOwner","type":"address","internalType":"address"},{"name":"validators","type":"address[]","internalType":"address[]"},{"name":"initialStakes","type":"uint256[]","internalType":"uint256[]"},{"name":"commissionRate","type":"uint16","internalType":"uint16"}],"outputs":[],"stateMutability":"nonpayable"},{"type":"function","name":"isValidator","inputs":[{"name":"account","type":"address","internalType":"address"}],"outputs":[{"name":"","type":"bool","internalType":"bool"}],"stateMutability":"view"},{"type":"function","name":"isValidatorActive","inputs":[{"name":"account","type":"address","internalType":"address"}],"outputs":[{"name":"","type":"bool","internalType":"bool"}],"stateMutability":"view"},{"type":"function","name":"nextEpoch","inputs":[],"outputs":[{"name":"","type":"uint64","internalType":"uint64"}],"stateMutability":"view"},{"type":"function","name":"nextEpochToCommit","inputs":[],"outputs":[{"name":"","type":"uint64","internalType":"uint64"}],"stateMutability":"view"},{"type":"function","name":"owner","inputs":[],"outputs":[{"name":"","type":"address","internalType":"address"}],"stateMutability":"view"},{"type":"function","name":"pendingOwner","inputs":[],"outputs":[{"name":"","type":"address","internalType":"address"}],"stateMutability":"view"},{"type":"function","name":"proxiableUUID","inputs":[],"outputs":[{"name":"","type":"bytes32","internalType":"bytes32"}],"stateMutability":"view"},{"type":"function","name":"redelegateDelegatorFee","inputs":[{"name":"validator","type":"address","internalType":"address"}],"outputs":[],"stateMutability":"nonpayable"},{"type":"function","name":"registerValidator","inputs":[{"name":"validatorAddress","type":"address","internalType":"address"},{"name":"commissionRate","type":"uint16","internalType":"uint16"},{"name":"initialStake","type":"uint256","internalType":"uint256"}],"outputs":[],"stateMutability":"nonpayable"},{"type":"function","name":"releaseValidatorFromJail","inputs":[{"name":"validatorAddress","type":"address","internalType":"address"}],"outputs":[],"stateMutability":"nonpayable"},{"type":"function","name":"removeValidator","inputs":[{"name":"account","type":"address","internalType":"address"}],"outputs":[],"stateMutability":"nonpayable"},{"type":"function","name":"renounceOwnership","inputs":[],"outputs":[],"stateMutability":"nonpayable"},{"type":"function","name":"resolveSigner","inputs":[{"name":"epoch","type":"uint64","internalType":"uint64"},{"name":"signerIdx","type":"uint32","internalType":"uint32"}],"outputs":[{"name":"","type":"address","internalType":"address"}],"stateMutability":"view"},{"type":"function","name":"setConsensusKeys","inputs":[{"name":"validatorAddress","type":"address","internalType":"address"},{"name":"blsPubkeyUncompressed","type":"bytes","internalType":"bytes"},{"name":"blsPoPUncompressed","type":"bytes","internalType":"bytes"},{"name":"peerPubkey","type":"bytes32","internalType":"bytes32"}],"outputs":[],"stateMutability":"nonpayable"},{"type":"function","name":"slash","inputs":[{"name":"validatorAddress","type":"address","internalType":"address"}],"outputs":[],"stateMutability":"nonpayable"},{"type":"function","name":"slashEquivocationFinalize","inputs":[{"name":"evidence","type":"bytes","internalType":"bytes"},{"name":"pkUncompressed","type":"bytes","internalType":"bytes"},{"name":"sig1Uncompressed","type":"bytes","internalType":"bytes"},{"name":"sig2Uncompressed","type":"bytes","internalType":"bytes"}],"outputs":[],"stateMutability":"nonpayable"},{"type":"function","name":"slashEquivocationNotarize","inputs":[{"name":"evidence","type":"bytes","internalType":"bytes"},{"name":"pkUncompressed","type":"bytes","internalType":"bytes"},{"name":"sig1Uncompressed","type":"bytes","internalType":"bytes"},{"name":"sig2Uncompressed","type":"bytes","internalType":"bytes"}],"outputs":[],"stateMutability":"nonpayable"},{"type":"function","name":"slashEquivocationNullifyFinalize","inputs":[{"name":"evidence","type":"bytes","internalType":"bytes"},{"name":"pkUncompressed","type":"bytes","internalType":"bytes"},{"name":"sig1Uncompressed","type":"bytes","internalType":"bytes"},{"name":"sig2Uncompressed","type":"bytes","internalType":"bytes"}],"outputs":[],"stateMutability":"nonpayable"},{"type":"function","name":"transferOwnership","inputs":[{"name":"newOwner","type":"address","internalType":"address"}],"outputs":[],"stateMutability":"nonpayable"},{"type":"function","name":"undelegate","inputs":[{"name":"validatorAddress","type":"address","internalType":"address"},{"name":"amount","type":"uint256","internalType":"uint256"}],"outputs":[],"stateMutability":"nonpayable"},{"type":"function","name":"upgradeToAndCall","inputs":[{"name":"newImplementation","type":"address","internalType":"address"},{"name":"data","type":"bytes","internalType":"bytes"}],"outputs":[],"stateMutability":"payable"},{"type":"event","name":"Claimed","inputs":[{"name":"validator","type":"address","indexed":true,"internalType":"address"},{"name":"staker","type":"address","indexed":true,"internalType":"address"},{"name":"amount","type":"uint256","indexed":false,"internalType":"uint256"},{"name":"epoch","type":"uint64","indexed":false,"internalType":"uint64"}],"anonymous":false},{"type":"event","name":"ConsensusKeysSet","inputs":[{"name":"validator","type":"address","indexed":true,"internalType":"address"},{"name":"blsPubkey","type":"bytes","indexed":false,"internalType":"bytes"},{"name":"peerPubkey","type":"bytes32","indexed":false,"internalType":"bytes32"},{"name":"activationEpoch","type":"uint64","indexed":false,"internalType":"uint64"}],"anonymous":false},{"type":"event","name":"Delegated","inputs":[{"name":"validator","type":"address","indexed":true,"internalType":"address"},{"name":"staker","type":"address","indexed":true,"internalType":"address"},{"name":"amount","type":"uint256","indexed":false,"internalType":"uint256"},{"name":"epoch","type":"uint64","indexed":false,"internalType":"uint64"}],"anonymous":false},{"type":"event","name":"EpochCommitteeCommitted","inputs":[{"name":"epoch","type":"uint64","indexed":true,"internalType":"uint64"},{"name":"committee","type":"address[]","indexed":false,"internalType":"address[]"}],"anonymous":false},{"type":"event","name":"EquivocationSlashed","inputs":[{"name":"validator","type":"address","indexed":true,"internalType":"address"},{"name":"epoch","type":"uint64","indexed":false,"internalType":"uint64"},{"name":"reporter","type":"address","indexed":true,"internalType":"address"}],"anonymous":false},{"type":"event","name":"Initialized","inputs":[{"name":"version","type":"uint64","indexed":false,"internalType":"uint64"}],"anonymous":false},{"type":"event","name":"OwnershipTransferStarted","inputs":[{"name":"previousOwner","type":"address","indexed":true,"internalType":"address"},{"name":"newOwner","type":"address","indexed":true,"internalType":"address"}],"anonymous":false},{"type":"event","name":"OwnershipTransferred","inputs":[{"name":"previousOwner","type":"address","indexed":true,"internalType":"address"},{"name":"newOwner","type":"address","indexed":true,"internalType":"address"}],"anonymous":false},{"type":"event","name":"Redelegated","inputs":[{"name":"validator","type":"address","indexed":true,"internalType":"address"},{"name":"staker","type":"address","indexed":true,"internalType":"address"},{"name":"amount","type":"uint256","indexed":false,"internalType":"uint256"},{"name":"dust","type":"uint256","indexed":false,"internalType":"uint256"},{"name":"epoch","type":"uint64","indexed":false,"internalType":"uint64"}],"anonymous":false},{"type":"event","name":"Undelegated","inputs":[{"name":"validator","type":"address","indexed":true,"internalType":"address"},{"name":"staker","type":"address","indexed":true,"internalType":"address"},{"name":"amount","type":"uint256","indexed":false,"internalType":"uint256"},{"name":"epoch","type":"uint64","indexed":false,"internalType":"uint64"}],"anonymous":false},{"type":"event","name":"Upgraded","inputs":[{"name":"implementation","type":"address","indexed":true,"internalType":"address"}],"anonymous":false},{"type":"event","name":"ValidatorAdded","inputs":[{"name":"validator","type":"address","indexed":true,"internalType":"address"},{"name":"owner","type":"address","indexed":true,"internalType":"address"},{"name":"status","type":"uint8","indexed":false,"internalType":"uint8"},{"name":"commissionRate","type":"uint16","indexed":false,"internalType":"uint16"}],"anonymous":false},{"type":"event","name":"ValidatorDeposited","inputs":[{"name":"validator","type":"address","indexed":true,"internalType":"address"},{"name":"amount","type":"uint256","indexed":false,"internalType":"uint256"},{"name":"epoch","type":"uint64","indexed":false,"internalType":"uint64"}],"anonymous":false},{"type":"event","name":"ValidatorJailed","inputs":[{"name":"validator","type":"address","indexed":true,"internalType":"address"},{"name":"epoch","type":"uint64","indexed":false,"internalType":"uint64"}],"anonymous":false},{"type":"event","name":"ValidatorModified","inputs":[{"name":"validator","type":"address","indexed":true,"internalType":"address"},{"name":"owner","type":"address","indexed":true,"internalType":"address"},{"name":"status","type":"uint8","indexed":false,"internalType":"uint8"},{"name":"commissionRate","type":"uint16","indexed":false,"internalType":"uint16"}],"anonymous":false},{"type":"event","name":"ValidatorOwnerClaimed","inputs":[{"name":"validator","type":"address","indexed":true,"internalType":"address"},{"name":"amount","type":"uint256","indexed":false,"internalType":"uint256"},{"name":"epoch","type":"uint64","indexed":false,"internalType":"uint64"}],"anonymous":false},{"type":"event","name":"ValidatorReleased","inputs":[{"name":"validator","type":"address","indexed":true,"internalType":"address"},{"name":"epoch","type":"uint64","indexed":false,"internalType":"uint64"}],"anonymous":false},{"type":"event","name":"ValidatorRemoved","inputs":[{"name":"validator","type":"address","indexed":true,"internalType":"address"}],"anonymous":false},{"type":"event","name":"ValidatorSlashed","inputs":[{"name":"validator","type":"address","indexed":true,"internalType":"address"},{"name":"slashes","type":"uint32","indexed":false,"internalType":"uint32"},{"name":"epoch","type":"uint64","indexed":false,"internalType":"uint64"}],"anonymous":false},{"type":"error","name":"AddressEmptyCode","inputs":[{"name":"target","type":"address","internalType":"address"}]},{"type":"error","name":"AddressInsufficientBalance","inputs":[{"name":"account","type":"address","internalType":"address"}]},{"type":"error","name":"AlreadySlashedForEquivocation","inputs":[{"name":"validator","type":"address","internalType":"address"}]},{"type":"error","name":"AmountTooLow","inputs":[{"name":"amount","type":"uint256","internalType":"uint256"}]},{"type":"error","name":"BadCommissionRate","inputs":[{"name":"commissionRate","type":"uint16","internalType":"uint16"}]},{"type":"error","name":"BadShareDistribution","inputs":[{"name":"shareDistribution","type":"uint16","internalType":"uint16"}]},{"type":"error","name":"BlsVerifierNotConfigured","inputs":[]},{"type":"error","name":"CommitteeLengthMismatch","inputs":[{"name":"expected","type":"uint256","internalType":"uint256"},{"name":"got","type":"uint256","internalType":"uint256"}]},{"type":"error","name":"CommitteeMemberKeyless","inputs":[{"name":"validator","type":"address","internalType":"address"}]},{"type":"error","name":"CommitteeMemberNotInActiveSet","inputs":[{"name":"validator","type":"address","internalType":"address"}]},{"type":"error","name":"CommitteeNotStrictlyAscending","inputs":[{"name":"validator","type":"address","internalType":"address"}]},{"type":"error","name":"ConsensusKeysAlreadySet","inputs":[{"name":"validator","type":"address","internalType":"address"}]},{"type":"error","name":"ConsensusKeysNotSet","inputs":[{"name":"validator","type":"address","internalType":"address"}]},{"type":"error","name":"DelegationQueueEmpty","inputs":[]},{"type":"error","name":"DelegationQueueNotEmpty","inputs":[{"name":"delegationQueue","type":"uint256","internalType":"uint256"}]},{"type":"error","name":"DepositIsZero","inputs":[]},{"type":"error","name":"ERC1967InvalidImplementation","inputs":[{"name":"implementation","type":"address","internalType":"address"}]},{"type":"error","name":"ERC1967NonPayable","inputs":[]},{"type":"error","name":"EpochCommitteeNotCommitted","inputs":[{"name":"epoch","type":"uint64","internalType":"uint64"}]},{"type":"error","name":"EpochIsNotReady","inputs":[{"name":"epoch","type":"uint64","internalType":"uint64"}]},{"type":"error","name":"EpochNotYetCommittable","inputs":[{"name":"target","type":"uint64","internalType":"uint64"},{"name":"currentEpoch","type":"uint64","internalType":"uint64"}]},{"type":"error","name":"EquivocationKeyMismatch","inputs":[]},{"type":"error","name":"EquivocationSignatureInvalid","inputs":[]},{"type":"error","name":"EvidenceDecoderNotConfigured","inputs":[]},{"type":"error","name":"FailedInnerCall","inputs":[]},{"type":"error","name":"InitialStakeTooLow","inputs":[{"name":"initialStake","type":"uint256","internalType":"uint256"}]},{"type":"error","name":"InsufficientBalance","inputs":[]},{"type":"error","name":"InvalidClaimEpoch","inputs":[]},{"type":"error","name":"InvalidConsensusKeyEncoding","inputs":[]},{"type":"error","name":"InvalidEpoch","inputs":[]},{"type":"error","name":"InvalidInitialization","inputs":[]},{"type":"error","name":"InvalidProofOfPossession","inputs":[{"name":"validator","type":"address","internalType":"address"}]},{"type":"error","name":"MalformedInitialBalance","inputs":[]},{"type":"error","name":"MalformedInputLength","inputs":[]},{"type":"error","name":"NotActiveValidator","inputs":[]},{"type":"error","name":"NotEnoughBalance","inputs":[]},{"type":"error","name":"NotEnoughShares","inputs":[{"name":"requiredShares","type":"uint256","internalType":"uint256"}]},{"type":"error","name":"NotInitializing","inputs":[]},{"type":"error","name":"NotPendingValidator","inputs":[{"name":"validator","type":"address","internalType":"address"}]},{"type":"error","name":"NothingToClaim","inputs":[]},{"type":"error","name":"NothingToUnstake","inputs":[]},{"type":"error","name":"OnlyCoinbase","inputs":[]},{"type":"error","name":"OnlyGovernance","inputs":[]},{"type":"error","name":"OnlyLivenessSlashing","inputs":[]},{"type":"error","name":"OnlyStakingContract","inputs":[]},{"type":"error","name":"OnlySystemCall","inputs":[]},{"type":"error","name":"OnlyValidatorOwner","inputs":[{"name":"validator","type":"address","internalType":"address"}]},{"type":"error","name":"OnlyZeroGasPrice","inputs":[]},{"type":"error","name":"OwnableInvalidOwner","inputs":[{"name":"owner","type":"address","internalType":"address"}]},{"type":"error","name":"OwnableUnauthorizedAccount","inputs":[{"name":"account","type":"address","internalType":"address"}]},{"type":"error","name":"OwnerCantBeZero","inputs":[]},{"type":"error","name":"OwnerSelfStakeBelowMinimum","inputs":[]},{"type":"error","name":"PeerPubkeyAlreadyInUse","inputs":[{"name":"peerPubkey","type":"bytes32","internalType":"bytes32"}]},{"type":"error","name":"PendingUndelegate","inputs":[]},{"type":"error","name":"SafeERC20FailedOperation","inputs":[{"name":"token","type":"address","internalType":"address"}]},{"type":"error","name":"SafeTransferFailed","inputs":[]},{"type":"error","name":"SignerIndexOutOfRange","inputs":[{"name":"epoch","type":"uint64","internalType":"uint64"},{"name":"signerIdx","type":"uint32","internalType":"uint32"},{"name":"committeeLen","type":"uint256","internalType":"uint256"}]},{"type":"error","name":"StillInJail","inputs":[{"name":"validator","type":"address","internalType":"address"}]},{"type":"error","name":"UUPSUnauthorizedCallContext","inputs":[]},{"type":"error","name":"UUPSUnsupportedProxiableUUID","inputs":[{"name":"slot","type":"bytes32","internalType":"bytes32"}]},{"type":"error","name":"UnsafeTransferFailed","inputs":[]},{"type":"error","name":"ValidatorAlreadyExists","inputs":[{"name":"validator","type":"address","internalType":"address"}]},{"type":"error","name":"ValidatorHasActiveDelegations","inputs":[{"name":"validator","type":"address","internalType":"address"}]},{"type":"error","name":"ValidatorNotFound","inputs":[{"name":"validator","type":"address","internalType":"address"}]},{"type":"error","name":"ValidatorNotInJail","inputs":[{"name":"validator","type":"address","internalType":"address"}]},{"type":"error","name":"ValidatorOwnerAlreadyInUse","inputs":[{"name":"validator","type":"address","internalType":"address"}]},{"type":"error","name":"WrongAmountPrecision","inputs":[]},{"type":"error","name":"ZeroAmount","inputs":[]},{"type":"error","name":"ZeroCommissionRate","inputs":[]},{"type":"error","name":"ZeroInitialStake","inputs":[]},{"type":"error","name":"ZeroOwner","inputs":[]},{"type":"error","name":"ZeroValidator","inputs":[]}],"bytecode":{"object":"0x6101803461029a57601f6169e938819003918201601f19168301916001600160401b0383118484101761029e5780849260e09460405283398101031261029a578051906001600160a01b038216820361029a5760208101516001600160a01b038116810361029a5760408201516001600160a01b038116810361029a576060830151906001600160a01b038216820361029a576080840151926001600160a01b038416840361029a5760a0850151946001600160a01b038616860361029a5760c00151956001600160a01b038716870361029a573060805260a05260c05260e0526101005261012052610140525f5160206169c95f395f51905f525460ff8160401c1661028b576002600160401b03196001600160401b03821601610235575b506101605260405161671690816102b38239608051818181611e5a0152614280015260a051816121bc015260c0518181816121780152615bd3015260e051816113a9015261010051818181610b5001528181610dbd01528181610e4a015281816116ea0152612f1e0152610120518181816107b201528181610d010152818161191e01528181611eea015281816123120152818161260b01528181612b5901528181612e3301528181613149015281816135a8015281816136a70152818161503501528181615263015281816158720152615f8501526101405181818161095d015281816114bb01528181612a4d0152818161361b01528181613fbb01528181615c0201526160e70152610160518161308e0152f35b6001600160401b0319166001600160401b039081175f5160206169c95f395f51905f52556040519081527fc7f505b2f371ae2175ee4913f4499e1f2633a7b5936321eed1cdaeb6115181d290602090a15f61011f565b63f92ee8a960e01b5f5260045ffd5b5f80fd5b634e487b7160e01b5f52604160045260245ffdfe60806040526004361015610011575f80fd5b5f3560e01c806252c9e1146103c357806301f6bb50146103be578063026e402b146103b957806314f8649f146103b45780631fe97684146103af578063225cba85146103aa578063289b3c0d146103a557806330108c22146103a057806340a141ff1461039b578063426594b11461039657806342ad55ac14610391578063457179fd1461038c578063459463341461038757806347e7ef241461038257806348124d261461037d5780634d238c8e146103785780634d99dd16146103735780634f1ef2861461036e57806352b7bea21461036957806352d1902d146103645780635ef9e8c61461035f578063606c0c941461035a578063715018a61461035557806373a3dda614610350578063766718081461034b57806379ba5097146103465780637a37cc59146103415780637b1391a61461033c5780637cfba9f31461033757806380b562de1461033257806387401d8a1461032d5780638bd070e4146103285780638da5cb5b146103235780638ecb3fc91461031e5780639f9106d114610319578063a10827e914610314578063a310624f1461030f578063ad36f42f1461030a578063ad3cb1cc14610305578063add07a3e14610300578063adf2a79c146102fb578063aea0e78b146102f6578063b46e5520146102f1578063b7ab4db5146102ec578063c06a82de146102e7578063c2fd58fc146102e2578063c6fb9065146102dd578063c96be4cb146102d8578063d41c52eb146102d3578063d7f1733d146102ce578063d951e186146102c9578063dd0fb5df146102c4578063e28d2f63146102bf578063e30c3978146102ba578063e3e6cedc146102b5578063f2fde38b146102b0578063facd743b146102ab578063fe38ebef146102a65763ff4794fc146102a1575f80fd5b613ae8565b613832565b6137d3565b61374b565b613703565b6136cf565b61365e565b613568565b613541565b61345a565b613314565b61306f565b613048565b61302a565b612ff8565b612fc6565b612efb565b612ede565b612e5b565b612dea565b612da3565b612c79565b612ba4565b612b10565b612a38565b612700565b6126cc565b612683565b612548565b6124b1565b6122f0565b6121a7565b612163565b612117565b6120ec565b611f88565b611f19565b611ed5565b611eae565b611e48565b611e27565b611dad565b6118ef565b6116c7565b611556565b6113d8565b611394565b611365565b611334565b610fb2565b610e27565b610dec565b610da8565b610c76565b610b2d565b610a3d565b61077c565b6105dc565b610405565b6001600160a01b038116036103d957565b5f80fd5b60409060031901126103d9576004356103f5816103c8565b90602435610402816103c8565b90565b346103d9576104ee5f5160206166215f395f51905f52610424366103dd565b61056661054a61053c61044061043b869796613b59565b613c50565b61051987610514604084019761046b838a5161045b81613c3a565b61046481613c3a565b1515613ccf565b6105036104f3602087019d8e61049b61048a825160018060a01b031690565b6001600160a01b0381163314613cf7565b6104af6001600160a01b0386161515613d1f565b6104e1876104db6104cf6104c289613b7e565b546001600160a01b031690565b6001600160a01b031690565b15613d35565b516001600160a01b031690565b613b7e565b80546001600160a01b0319169055565b6001600160a01b0381168c52613b7e565b613d7b565b6104e18161053761053161052b614a21565b83614a55565b99613b59565b613df3565b95516001600160a01b031690565b91519361055685613c3a565b61055f85613c3a565b5460f01c90565b6040516001600160a01b03928316959092169382916105859183613eaf565b0390a3005b9181601f840112156103d9578235916001600160401b0383116103d9576020808501948460051b0101116103d957565b6064359061ffff821682036103d957565b6024359061ffff821682036103d957565b346103d95760803660031901126103d9576004356105f9816103c8565b6024356001600160401b0381116103d95761061890369060040161058a565b6044929192356001600160401b0381116103d95761063a90369060040161058a565b906106436105ba565b925f5160206166a15f395f51905f5254956001600160401b036106816106746106708a60ff9060401c1690565b1590565b986001600160401b031690565b1680159081610774575b600114908161076a575b159081610761575b50610752576106e095876106d760016001600160401b03195f5160206166a15f395f51905f525416175f5160206166a15f395f51905f5255565b61072e57613f44565b6106e657005b5f5160206166a15f395f51905f52805460ff60401b19169055604051600181527fc7f505b2f371ae2175ee4913f4499e1f2633a7b5936321eed1cdaeb6115181d290602090a1005b5f5160206166a15f395f51905f52805460ff60401b1916600160401b179055613f44565b63f92ee8a960e01b5f5260045ffd5b9050155f61069d565b303b159150610695565b88915061068b565b346103d95760403660031901126103d957600435610799816103c8565b60405163eea9a01b60e01b8152602435906020816004817f00000000000000000000000000000000000000000000000000000000000000006001600160a01b03165afa8015610a385782915f91610a09575b5081101590816109ff575b6107ff91614fe9565b6108116402540be40082065b15614a0b565b7f30bcda2f188b532c7644e632473e83a6fb3c5c79717650d0ac790d141bb1b17761058561084161043b85613b59565b61085385604083015161045b81613c3a565b61086361085e615254565b614549565b906108b86108718383614a55565b916108af61088d6402540be40089045b6001600160701b031690565b84549094906108a990869060601c6001600160701b0316615003565b90614a2c565b61053788613b59565b6108da336108c588613bb6565b9060018060a01b03165f5260205260405f2090565b8054156109ef576108f46108ee82546148e7565b826143f9565b5090815461090c816001600160401b039060701c1690565b6001600160401b0386811691161061099c575050805461095592610938916001600160701b0316615003565b81546001600160701b0319166001600160701b0391909116179055565b6109818430337f0000000000000000000000000000000000000000000000000000000000000000614fa0565b60405133956001600160a01b03169490928392909183613528565b6109ea939192506109b691906001600160701b0316615003565b906109d16109c2611d72565b6001600160701b039093168352565b6001600160401b0384166020830152614c7b565b614c7b565b610955565b906109ea916109d16109c2611d72565b80151591506107f6565b610a2b915060203d602011610a31575b610a238183611d51565b8101906149e2565b5f6107eb565b503d610a19565b6140cb565b346103d95760403660031901126103d957600435610a5a816103c8565b610a626105cb565b610a7581610bb861ffff82161115614053565b5f5160206166215f395f51905f52610a8f61043b84613b59565b91610af6610ae86040850194610aaa87875161045b81613c3a565b6104e1816105376020820199610ac961048a8c5160018060a01b031690565b610ae388610ade610ad8614a21565b86614a55565b614072565b613b59565b94516001600160a01b031690565b925192610b0284613c3a565b610b0b84613c3a565b6040516001600160a01b03918216959091169390918291610585919083613eaf565b346103d95760203660031901126103d957600435610b4a816103c8565b610b7e337f00000000000000000000000000000000000000000000000000000000000000006001600160a01b031614614095565b6001600160a01b0381165f8181525f5160206166415f395f51905f52602052604090205f5160206166215f395f51905f5290610bb990613c50565b610c2e610c1960206040840193610be560018651610bd681613c3a565b610bdf81613c3a565b146151ec565b610bee88615de4565b600285525b610c0b81610537610c0561052b614a21565b9a613b59565b01516001600160a01b031690565b915194610c2586613c3a565b61055f86613c3a565b6040516001600160a01b039092169482916105859183613eaf565b9181601f840112156103d9578235916001600160401b0383116103d957602083818601950101116103d957565b346103d95760803660031901126103d957600435610c93816103c8565b6024356001600160401b0381116103d957610cb2903690600401610c49565b906044356001600160401b0381116103d957610cd2903690600401610c49565b93909273__$c0ca080a98cf238f72f7f61cbbb953094a$__91823b156103d95760405163dcf44cad60e01b81527f00000000000000000000000000000000000000000000000000000000000000006001600160a01b039081166004830152909116602482015260a06044820152945f94869485938493610d7093929091610d5e9160a4870191906140ab565b848103600319016064860152916140ab565b606435608483015203915af48015610a3857610d8857005b80610d965f610d9c93611d51565b80610d9e565b005b5f9103126103d957565b346103d9575f3660031901126103d9576040517f00000000000000000000000000000000000000000000000000000000000000006001600160a01b03168152602090f35b346103d95760203660031901126103d9576020600435610e0b816103c8565b6001600160a01b0390610e1d90613b7e565b5416604051908152f35b346103d95760203660031901126103d957600435610e44816103c8565b610e78337f00000000000000000000000000000000000000000000000000000000000000006001600160a01b031614614095565b610f8c610f7b60018060a01b03831692835f525f5160206166415f395f51905f52602052610ae36104f36104ee60405f20610f7285610f6c604051610ebc81611cfb565b60018060a01b038554168152610f5e836001870154610f54610f446002602087019a60018060a01b0385168c52610f23610f1360408a0196610f0460ff8260a01c1689613c44565b60a81c6001600160401b031690565b6001600160401b031660608a0152565b01546001600160401b03811660808801525b60401c6001600160401b031690565b6001600160401b031660a0860152565b5161045b81613c3a565b610f66615254565b906161ad565b15615202565b6104e185615de4565b60025f918281558260018201550155565b7fe1434e25d6611e0db941968fdc97811c982ac1602e951637d206f5fdda9dd8f15f80a2005b346103d95760203660031901126103d957600435610fcf816103c8565b610fd7615254565b610fee610fe7336108c585613bb6565b9182615ece565b905f600182019161100683546001600160401b031690565b8154946001600160401b0381165b6001600160401b03831695878710156113235761103a61103485876143f9565b5061479e565b966020880198836110616110558c516001600160401b031690565b6001600160401b031690565b1015611310575f97611072826148e7565b83106112e5575b8b61108e6110558d516001600160401b031690565b86811090816112c6575b5015611185576110d48c6110bf6110b16110d994613bee565b91516001600160401b031690565b6001600160401b03165f5260205260405f2090565b6146a9565b60208101805190918c916110f5906001600160701b0316610881565b1561117c579161113f6108816111316111459461112b61088161111b61114b9a99615f65565b505092516001600160701b031690565b90614261565b92516001600160701b031690565b90614b86565b90613f37565b975b6111766111696111648d516001600160401b031690565b61534e565b6001600160401b03168c52565b97611079565b5050509761114d565b5097509850969096939193611199896148e7565b11156111bd5750806111646111b16111b793876143f9565b9061536b565b91611014565b849597506111dd906111d7836111e29697999495996143f9565b90614c67565b613dad565b600382019060026111fa83546001600160401b031690565b93018054915b826001600160401b03861610611256575b50505091611243610585927fb22dec804803f8b1c5333f626cdbfdfb1bd629f1e1bb45dcfb22b5f74ed46b1c94613dad565b61124c5f615375565b610981843361609b565b9091939561126761103488856143f9565b8261127f61105560208401516001600160401b031690565b116112be57516112b6916112a891611145906112a3906001600160701b0316610881565b614243565b966111646111b182866143f9565b939190611200565b509593611211565b90508a80159182156112db575b50505f611098565b1090508a5f6112d3565b97506111766110556112ff6112f98961452b565b8a6143f9565b505460701c6001600160401b031690565b505090939496506111e292919550613dad565b90939496506111e292919550613dad565b346103d95760203660031901126103d957602061135b600435611356816103c8565b6140ea565b6040519015158152f35b346103d95760203660031901126103d957602061138c600435611387816103c8565b614172565b604051908152f35b346103d9575f3660031901126103d9576040517f00000000000000000000000000000000000000000000000000000000000000006001600160a01b03168152602090f35b346103d95760403660031901126103d9576004356113f5816103c8565b60243590413303611511573a6115025781156114f3577f9fce3fb7dc05df2879421f9d9c06784dad3d39aba44c0c1ee0b9d094e76550059060018060a01b03811692835f525f5160206166415f395f51905f5260205261146961145a60405f20613c50565b92604084015161045b81613c3a565b6114b361147e611477615254565b8094614a55565b8054611496906001600160601b038581169116615422565b81546001600160601b0319166001600160601b0391909116179055565b6114df8130337f0000000000000000000000000000000000000000000000000000000000000000614fa0565b6114ee60405192839283613528565b0390a2005b63b288589b60e01b5f5260045ffd5b6383f1b1d360e01b5f5260045ffd5b63022d8c9560e31b5f5260045ffd5b6001600160401b038116036103d957565b60409060031901126103d957600435611549816103c8565b9060243561040281611520565b346103d95761156436611531565b9060018060a01b03165f525f5160206166415f395f51905f5260205261159661158f60405f20613c50565b918261545f565b60208201519091906116c3906001600160a01b0316916040810151936115bb85613c3a565b6115c485613c3a565b60208101516115df906112a3906001600160701b0316610881565b916115f1604083015163ffffffff1690565b9061160660608201516001600160401b031690565b61162e60a061161f60808501516001600160401b031690565b9301516001600160401b031690565b9261164f611641606087015161ffff1690565b95516001600160601b031690565b604080516001600160a01b03909a168a5260ff909a1660208a01529888019590955263ffffffff9490941660608701526001600160401b039384166080870152831660a086015290911660c084015261ffff1660e08301526001600160601b03909216610100820152908190610120820190565b0390f35b346103d95760203660031901126103d9576004356116e4816103c8565b611718337f00000000000000000000000000000000000000000000000000000000000000006001600160a01b031614614095565b6118aa61172b611726615254565b61452b565b6001600160a01b038316929061174b84151561174681614b1c565b614b32565b6117545f61080b565b6001600160401b038116806118d3575b506117705f6001614053565b6117d561177f61043b84613b59565b6117bd6001604083016117a687825161179781613c3a565b6117a081613c3a565b15614b5e565b6001600160a01b0387168085526020850152613c44565b6001600160401b038316606082015261053784613b59565b6117e8826104db6104cf6104c283613b7e565b6117f58261051481613b7e565b6117ff6001613c3a565b6118088261440e565b6109e56118736118175f610881565b9361186a611823611d83565b5f81526001600160701b03871660208201525f6040820181905260608201526118658661184f85613bee565b906001600160401b03165f5260205260405f2090565b614ba4565b6108c581613bb6565b9161188083548015614c10565b61189a61188b611d72565b6001600160701b039095168552565b6001600160401b03166020840152565b6118b46001613c3a565b805f5160206165a15f395f51905f52604051806105855f600183613eaf565b6118e9906118e2611055614a21565b1015614b48565b5f611764565b346103d95760403660031901126103d95760043561190c816103c8565b60243560405163eea9a01b60e01b81527f00000000000000000000000000000000000000000000000000000000000000006001600160a01b031690602081600481855afa8015610a385783915f91611cc8575b508110159081611cbe575b61197391614fe9565b6119836402540be400830661080b565b61198f61043b84613b59565b9060408201916119a485845161045b81613c3a565b6119ac614a21565b906119b78282614a55565b805490939060601c6001600160701b0316946119d96402540be4008804610881565b95611a0c611a06886001600160701b03811693611a016001600160701b038216861115615531565b615547565b87614a2c565b611a19846105378b613b59565b611a26336108c58b613bb6565b95611a45611a3f8854611a3a811515615560565b6148e7565b886143f9565b5092611a896104cf6020611a7a8c885497611a01611a688a60018060701b031690565b916001600160701b0383161015615531565b9801516001600160a01b031690565b33149081611c78575b50611bd2575b50600493602093929160701c6001600160401b03166001600160401b03878116911610611b9a5781546001600160701b0319166001600160701b039091161790555b604051635e7b72ad60e01b815292839182905afa938415610a3857600261058594611b65611b3b63ffffffff7fa410e32157a44414a502bb47d775234de1aa7da123f5adfe426898f1601883fd99610981975f91611b6b575b501687614586565b611b55611b46611d72565b6001600160701b039096168652565b6001600160401b03166020850152565b01614c7b565b611b8d915060203d602011611b93575b611b858183611d51565b81019061523f565b5f611b33565b503d611b7b565b611bcd9150611bb9611baa611d72565b6001600160701b039092168252565b6001600160401b0386168185015286614c7b565b611ada565b90929190611c026112a3610881611bf16001600160701b038916614243565b935460601c6001600160701b031690565b90604051636f85684760e01b8152602081600481885afa908115610a38575f91611c59575b5081109182611c4e575b5050611c3f5790915f611a98565b6348b4fee160e01b5f5260045ffd5b141590505f80611c31565b611c72915060203d602011610a3157610a238183611d51565b5f611c27565b905060018151611c8781613c3a565b611c9081613c3a565b14908115611ca0575b505f611a92565b6002915051611cae81613c3a565b611cb781613c3a565b145f611c99565b801515915061196a565b611ce1915060203d602011610a3157610a238183611d51565b5f61195f565b634e487b7160e01b5f52604160045260245ffd5b60c081019081106001600160401b03821117611d1657604052565b611ce7565b606081019081106001600160401b03821117611d1657604052565b608081019081106001600160401b03821117611d1657604052565b90601f801991011681019081106001600160401b03821117611d1657604052565b60405190611d81604083611d51565b565b60405190611d81608083611d51565b6001600160401b038111611d1657601f01601f191660200190565b60403660031901126103d957600435611dc5816103c8565b602435906001600160401b0382116103d957366023830112156103d957816004013590611df182611d92565b91611dff6040519384611d51565b80835236602482860101116103d9576020815f926024610d9c97018387013784010152614274565b346103d957602061138c611e3a366103dd565b611e42615254565b91615576565b346103d9575f3660031901126103d9577f00000000000000000000000000000000000000000000000000000000000000006001600160a01b03163003611e9f5760206040515f5160206166615f395f51905f528152f35b63703e46dd60e11b5f5260045ffd5b346103d9576040611ec9611ec4611e3a366103dd565b615837565b82519182526020820152f35b346103d9575f3660031901126103d9576040517f00000000000000000000000000000000000000000000000000000000000000006001600160a01b03168152602090f35b346103d9575f3660031901126103d957611f316158e1565b611f39613d5d565b5f5160206166015f395f51905f5280546001600160a01b031981169091555f906001600160a01b03167f8be0079c531659141344cd1fd0a4f28419497f9722a3daafe3b4186f6b6457e08280a3005b346103d95760203660031901126103d957600435611fa5816103c8565b6001600160a01b0381165f9081527f96610efdc8a37de390ea3757bf0331faa3a74708adc53f30ba708302b0f55800602052604090205460ff166120d157612076611ff261043b83613b59565b61206d60408201612019856003835161200a81613c3a565b61201381613c3a565b14614379565b6020830151612033906001600160a01b0316338114613cf7565b6120678561203f615254565b6001600160401b0361205e61105560808901516001600160401b031690565b911610156143a1565b60019052565b61053783613b59565b61207f8161440e565b7f7bd9ec00705b7640a93da0fcf84dc0bfce1b2c9a5146d548ab1dabd23322c9ac6114ee6120ab615254565b6040516001600160401b0390911681526001600160a01b03909316929081906020820190565b638300031d60e01b5f526001600160a01b031660045260245ffd5b346103d9575f3660031901126103d9576020612106615254565b6001600160401b0360405191168152f35b346103d9575f3660031901126103d9575f5160206166c15f395f51905f5254336001600160a01b039091160361215057610d9c33615901565b63118cdaa760e01b5f523360045260245ffd5b346103d9575f3660031901126103d9576040517f00000000000000000000000000000000000000000000000000000000000000006001600160a01b03168152602090f35b346103d9575f3660031901126103d9576040517f00000000000000000000000000000000000000000000000000000000000000006001600160a01b03168152602090f35b90602080835192838152019201905f5b8181106122085750505090565b82516001600160a01b03168452602093840193909201916001016121fb565b805180835260209291819084018484015e5f828201840152601f01601f1916010190565b9060406001600160401b038161226a8551606086526060860190612227565b946020810151602086015201511691015290565b90612291906040835260408301906121eb565b906020818303910152815180825260208201916020808360051b8301019401925f915b8383106122c357505050505090565b90919293946020806122e1600193601f19868203018752895161224b565b970193019301919392906122b4565b346103d95760203660031901126103d95761233660043561231081611520565b7f000000000000000000000000000000000000000000000000000000000000000061598f565b61234081516144dc565b905f5b8151811015612490576001600160a01b0361235e82846140d6565b51165f525f5160206165c15f395f51905f5260205260405f206040519061238482611d1b565b6040515f82548060011c9060018116908115612486575b602083108214612472578285526020850191908115612459575060011461241e575b505060026001959493836123d9612402956123f2950382611d51565b855286810154602086015201546001600160401b031690565b6001600160401b03166040830152565b61240c82866140d6565b5261241781856140d6565b5001612343565b90915061242e845f5260205f2090565b915f925b81841061244557505001600260016123bd565b600181602092548686015201930192612432565b60ff191682525090151560051b019050600260016123bd565b634e487b7160e01b5f52602260045260245ffd5b91607f169161239b565b506116c36040519283928361227e565b9060206104029281815201906121eb565b346103d95760203660031901126103d9576001600160401b036004356124d681611520565b165f525f5160206165e15f395f51905f5260205260405f206040519081602082549182815201915f5260205f20905f5b818110612529576116c38561251d81870382611d51565b604051918291826124a0565b82546001600160a01b0316845260209093019260019283019201612506565b346103d95760203660031901126103d9576004356001600160401b0381116103d95761257890369060040161058a565b6003600160a01b031933016126745761258f615254565b916125ae5f5160206166815f395f51905f52546001600160401b031690565b906125bb6110558561452b565b6001600160401b03831690811161265257612643575f925b73__$c0ca080a98cf238f72f7f61cbbb953094a$__91823b156103d9576126335f9560405197889687958695631792dc1560e31b87527f0000000000000000000000000000000000000000000000000000000000000000600488016145c4565b03915af48015610a3857610d8857005b61264c826145a6565b926125d3565b631e559a0560e11b5f526001600160401b03808416600452851660245260445ffd5b633d45932f60e11b5f5260045ffd5b346103d9575f3660031901126103d9575f5160206166815f395f51905f52546001600160401b0316806126bc57506040515f8152602090f35b6126c76020916145a6565b612106565b346103d9575f3660031901126103d9575f5160206166015f395f51905f52546040516001600160a01b039091168152602090f35b346103d95760203660031901126103d95760043561271d816103c8565b612725615254565b612735610fe7336108c585613bb6565b905f600182019161274d83546001600160401b031690565b8154946001600160401b0381165b6001600160401b0383169587871015612a285761277b61103485876143f9565b966020880198836127966110558c516001600160401b031690565b1015612a16575f976127a7826148e7565b8310612a02575b8b6127c36110558d516001600160401b031690565b86811090816129e3575b5015612850576110d48c6110bf6110b16127e694613bee565b60208101805190918c91612802906001600160701b0316610881565b15612847579161113f6108816111316111459461112b61088161111b6128289a99615f65565b975b6128416111696111648d516001600160401b031690565b976127ae565b5050509761282a565b5097509850969096939193612864896148e7565b11156128825750806111646111b161287c93876143f9565b9161275b565b8192975061289b906111d7869798936128a396976143f9565b949394613dad565b600383019060026128bb83546001600160401b031690565b94018054915b826001600160401b03871610612979575b505050906129047fa82f74002b6639f6cfc2cfd4f3ade1998108eda0f484d9064e3098c211e81d6e9361291893613dad565b61290e6001615375565b611ec46001615375565b819391612969575b8061295a575b6040805194855260208501919091526001600160401b039091169083015233926001600160a01b0316918060608101610585565b612964813361609b565b612926565b61297484863361501c565b612920565b90919361298961103487856143f9565b826129a161105560208401516001600160401b031690565b116129dc57516129d3916129c591611145906112a3906001600160701b0316610881565b956111646111b182866143f9565b949391906128c1565b50936128d2565b90508a80159182156129f8575b50505f6127cd565b1090508a5f6129f0565b97506128416110556112ff6112f98961452b565b5050909395506128a392919650613dad565b909395506128a392919650613dad565b346103d9575f3660031901126103d9576040517f00000000000000000000000000000000000000000000000000000000000000006001600160a01b03168152602090f35b60806003198201126103d9576004356001600160401b0381116103d95781612aa691600401610c49565b929092916024356001600160401b0381116103d95781612ac891600401610c49565b929092916044356001600160401b0381116103d95781612aea91600401610c49565b92909291606435906001600160401b0382116103d957612b0c91600401610c49565b9091565b346103d957612b1e36612a7c565b91969394929673__$c0ca080a98cf238f72f7f61cbbb953094a$__97883b156103d9575f96612b8195604051998a98630817c25760e11b8a527f000000000000000000000000000000000000000000000000000000000000000060048b0161464e565b938180849603915af48015610a3857612b98575080f35b610d9c91505f90611d51565b346103d95760203660031901126103d957612bc761043b600435610ae3816103c8565b8051612be0906001600160a01b0316613bee565b613bee565b906116c3612c006110d460608401946110bf86516001600160401b031690565b60208301519092906001600160a01b031692604082015194612c2186613c3a565b612c2a86613c3a565b6020820151612c45906112a3906001600160701b0316610881565b92611606612c5a604085015163ffffffff1690565b92516001600160401b031690565b90602061040292818152019061224b565b346103d95760203660031901126103d957600435612c96816103c8565b612c9e6144bd565b5060018060a01b03165f525f5160206165c15f395f51905f5260205260405f20604051612cca81611d1b565b6040515f83548060011c9060018116908115612d99575b602083108214612472578285526020850191908115612d7f5750600114612d43575b6116c385612d376123f260028a89612d1d818b0382611d51565b85526001810154602086015201546001600160401b031690565b60405191829182612c68565b909150612d53855f5260205f2090565b915f925b818410612d6b5750500160026116c3612d03565b805484840152602090930192600101612d57565b60ff191682525090151560051b01905060026116c3612d03565b91607f1691612ce1565b346103d9575f3660031901126103d9576116c3604051612dc4604082611d51565b60058152640352e302e360dc1b6020820152604051918291602083526020830190612227565b346103d957612df836612a7c565b91969394929673__$c0ca080a98cf238f72f7f61cbbb953094a$__97883b156103d9575f96612b8195604051998a98633bd68e1f60e21b8a527f000000000000000000000000000000000000000000000000000000000000000060048b0161464e565b346103d957612e6936611531565b6001600160a01b0382165f9081525f5160206166415f395f51905f5260205260409020600181015460a01c60ff166004811015612ed957610d9c93612eaf911515613ccf565b612ed46001600160401b03612ec2615254565b166001600160401b03841611156146f3565b615b05565b613c26565b346103d9575f3660031901126103d9576020612106611726615254565b346103d95760203660031901126103d957600435612f18816103c8565b612f4c337f00000000000000000000000000000000000000000000000000000000000000006001600160a01b031614614095565b6001600160a01b0381165f8181525f5160206166415f395f51905f52602052604090205f5160206166215f395f51905f5290612f8790613c50565b610c2e610c1960206040840193612fb48860028751612fa581613c3a565b612fae81613c3a565b14615ce8565b612fbd8861440e565b60018552610bf3565b346103d9575f3660031901126103d9576116c3612fe4612310615254565b6040519182916020835260208301906121eb565b346103d9575f3660031901126103d95760206001600160401b035f5160206166815f395f51905f525416604051908152f35b346103d957602061138c61303d366103dd565b611e42611726615254565b346103d95760203660031901126103d957602061138c60043561306a816103c8565b614709565b346103d95760203660031901126103d95760043561308c816103c8565b7f00000000000000000000000000000000000000000000000000000000000000006001600160a01b03163303613305576130c861043b82613b59565b60408101916130dc81845161045b81613c3a565b6130e4615254565b906130ef8284614a55565b9361312d61310d613108875463ffffffff9060d01c1690565b615d10565b865463ffffffff60d01b191660d082901b63ffffffff60d01b1617909655565b61313a8461053784613b59565b6040516317c332e760e31b81527f00000000000000000000000000000000000000000000000000000000000000006001600160a01b03169490602081600481895afa8015610a385763ffffffff915f916132e6575b501663ffffffff8716146131f5575b50506040805163ffffffff90951685526001600160401b0390921660208501526001600160a01b0316927ff30f0392d5346908bf200bc0924d0c9860e22d46fc606e979a2e14fff24c62b9925090819081016114ee565b6004946020613202615254565b9160405197888092630d97cd9b60e31b82525afa928315610a38576132716132616132779363ffffffff613280977ff30f0392d5346908bf200bc0924d0c9860e22d46fc606e979a2e14fff24c62b99b5f916132c7575b501690614586565b6001600160401b03166080850152565b60039052565b61206d83615de4565b6040516001600160401b03831681526001600160a01b038216907f6acc1079130362b805ce4a8874346d4ee8893d55f223e378ddc73031ce427eab90602090a25f8061319e565b6132e0915060203d602011611b9357611b858183611d51565b5f613259565b6132ff915060203d602011611b9357611b858183611d51565b5f61318f565b635e2569d960e11b5f5260045ffd5b346103d9575f3660031901126103d95761332f612310615254565b61333981516144dc565b905f5b8151811015612490576001600160a01b0361335782846140d6565b51165f525f5160206165c15f395f51905f5260205260405f206040519061337d82611d1b565b6040515f82548060011c9060018116908115613442575b60208310821461247257828552602085019190811561342957506001146133ee575b505060026001959493836123d96133d2956123f2950382611d51565b6133dc82866140d6565b526133e781856140d6565b500161333c565b9091506133fe845f5260205f2090565b915f925b81841061341557505001600260016133b6565b600181602092548686015201930192613402565b60ff191682525090151560051b019050600260016133b6565b91607f1691613394565b63ffffffff8116036103d957565b346103d95760403660031901126103d95760043561347781611520565b6001600160401b036024359161348c8361344c565b16805f525f5160206165e15f395f51905f5260205260405f209081549081156135165763ffffffff841690828210156134fe576116c36134e46134cf87876143f9565b905460039190911b1c6001600160a01b031690565b6040516001600160a01b0390911681529081906020820190565b632fdbfd3160e21b5f5260045260245260445260645ffd5b6316b38b6f60e01b5f5260045260245ffd5b9081526001600160401b03909116602082015260400190565b346103d957613558613552366103dd565b90614902565b906116c360405192839283613528565b346103d95760603660031901126103d957600435613585816103c8565b61358d6105cb565b90604435604051636f85684760e01b815290916020826004817f00000000000000000000000000000000000000000000000000000000000000006001600160a01b03165afa918215610a3857610d9c946135f7856136179581945f9161363f575b508110156149f1565b6136076402540be400830661080b565b61360f614a21565b923390614ca8565b30337f0000000000000000000000000000000000000000000000000000000000000000614fa0565b613658915060203d602011610a3157610a238183611d51565b5f6135ee565b346103d95761366c36612a7c565b91969394929673__$c0ca080a98cf238f72f7f61cbbb953094a$__97883b156103d9575f96612b8195604051998a9863a757204960e01b8a527f000000000000000000000000000000000000000000000000000000000000000060048b0161464e565b346103d9575f3660031901126103d9575f5160206166c15f395f51905f52546040516001600160a01b039091168152602090f35b346103d95760203660031901126103d9576001600160401b0360043561372881611520565b165f525f5160206165e15f395f51905f52602052602060405f2054604051908152f35b346103d95760203660031901126103d957600435613768816103c8565b6137706158e1565b5f5160206166c15f395f51905f5280546001600160a01b0319166001600160a01b039283169081179091555f5160206166015f395f51905f52549091167f38d16b8cac22d99fc7c124b9cd0de2d3fa1faef420bfe791d8c362d765e227005f80a3005b346103d95760203660031901126103d9576004356137f0816103c8565b6001600160a01b03165f9081525f5160206166415f395f51905f52602052604090206001015460a01c60ff166004811015612ed9576040519015158152602090f35b346103d95761384036611531565b6138656001600160401b03613853615254565b166001600160401b03831611156146f3565b613875610fe7336108c585613bb6565b905f600182019161388d83546001600160401b031690565b8154946001600160401b0381165b6001600160401b0383169587871015613ad7576138bb61103485876143f9565b966020880198836138d66110558c516001600160401b031690565b1015613ac4575f976138e7826148e7565b8310613ab0575b8b6139036110558d516001600160401b031690565b8681109081613a91575b5015613990576110d48c6110bf6110b161392694613bee565b60208101805190918c91613942906001600160701b0316610881565b15613987579161113f6108816111316111459461112b61088161111b6139689a99615f65565b975b6139816111696111648d516001600160401b031690565b976138ee565b5050509761396a565b50975098509690969391936139a4896148e7565b11156139c25750806111646111b16139bc93876143f9565b9161389b565b849597506111dd906111d7836139dc9697999495996143f9565b600382019060026139f483546001600160401b031690565b93018054915b826001600160401b03861610613a3c5750505091611243610585927fb22dec804803f8b1c5333f626cdbfdfb1bd629f1e1bb45dcfb22b5f74ed46b1c94613dad565b90919395613a4d61103488856143f9565b82613a6561105560208401516001600160401b031690565b116112be5751613a89916112a891611145906112a3906001600160701b0316610881565b9391906139fa565b90508a8015918215613aa6575b50505f61390d565b1090508a5f613a9e565b97506139816110556112ff6112f98961452b565b505090939496506139dc92919550613dad565b90939496506139dc92919550613dad565b346103d95760203660031901126103d957600435613b05816103c8565b6001600160a01b0381165f9081525f5160206166415f395f51905f5260205260409020600181015460a01c60ff166004811015612ed957610d9c92613b4b911515613ccf565b613b53615254565b90615b05565b6001600160a01b03165f9081525f5160206166415f395f51905f526020526040902090565b6001600160a01b03165f9081527f4102a9ba7244b40639ebe412c7bfc792b19c048efdf631bf4f130fef80c0df016020526040902090565b6001600160a01b03165f9081527f4102a9ba7244b40639ebe412c7bfc792b19c048efdf631bf4f130fef80c0df036020526040902090565b6001600160a01b03165f9081527f4102a9ba7244b40639ebe412c7bfc792b19c048efdf631bf4f130fef80c0df046020526040902090565b634e487b7160e01b5f52602160045260245ffd5b60041115612ed957565b6004821015612ed95752565b90611d81604051613c6081611cfb565b60a0613cc160028396600180851b0381541685526001600160401b03806001830154600180881b0381166020890152613ca160ff82891c1660408a01613c44565b60a81c1616606086015201546001600160401b0381166080850152610f35565b6001600160401b0316910152565b15613cd75750565b635a4887e160e01b5f9081526001600160a01b0391909116600452602490fd5b15613cff5750565b6359de29ed60e01b5f9081526001600160a01b0391909116600452602490fd5b15613d2657565b6352afe97760e11b5f5260045ffd5b15613d3d5750565b63b5202b6360e01b5f9081526001600160a01b0391909116600452602490fd5b5f5160206166c15f395f51905f5280546001600160a01b0319169055565b80546001600160a01b0319166001600160a01b03909216919091179055565b634e487b7160e01b5f525f60045260245ffd5b906001600160401b03166001600160401b0319825416179055565b805467ffffffffffffffff60401b191660409290921b67ffffffffffffffff60401b16919091179055565b8151909190613e0b906001600160a01b031683613d7b565b6020810151600183019290613e29906001600160a01b031684613d7b565b60408201516004811015612ed9578354606084015167ffffffffffffffff60a81b60a89190911b1668ffffffffffffffffff60a01b1990911660ff60a01b60a093841b161717909355611d8192613ea99160020192613e9b613e9560808301516001600160401b031690565b85613dad565b01516001600160401b031690565b90613dc8565b60ff909116815261ffff909116602082015260400190565b15613ece57565b63612acc3960e11b5f5260045ffd5b634e487b7160e01b5f52603260045260245ffd5b9190811015613f015760051b0190565b613edd565b35610402816103c8565b634e487b7160e01b5f52601160045260245ffd5b9060018201809211613f3257565b613f10565b91908201809211613f3257565b93929193613f50615d28565b613f58615d28565b613f60615d28565b6001600160a01b0381161561404057613f7e90959493929195615901565b613f86615d28565b613f8e615d28565b613f99838314613ec7565b5f945f945b848610613fdf5750505050505080613fb35750565b611d819030337f0000000000000000000000000000000000000000000000000000000000000000614fa0565b909192939495614034600191614022614001613ffc8b8b89613ef1565b613f06565b85614010613ffc8d8d8b613ef1565b61401b8d8c8c613ef1565b3592614e3b565b61402d898888613ef1565b3590613f37565b96019493929190613f9e565b631e4fbdf760e01b5f525f60045260245ffd5b1561405b5750565b61ffff906368ec6e2560e11b5f521660045260245ffd5b80546001600160f01b031660f09290921b6001600160f01b031916919091179055565b1561409c57565b6354348f0360e01b5f5260045ffd5b908060209392818452848401375f828201840152601f01601f1916010190565b6040513d5f823e3d90fd5b8051821015613f015760209160051b010190565b6001600160a01b03165f8181525f5160206166415f395f51905f526020526040902060019081015460a01c60ff1661412181613c3a565b0361416d5761412e61537f565b905f5b825181101561416657816001600160a01b036141506104e184876140d6565b161461415e57600101614131565b505050600190565b5050505f90565b505f90565b60018060a01b03165f525f5160206166415f395f51905f5260205260405f206040519061419e82611cfb565b80546001600160a01b03908116835260018201549081166020840152604083019161421991614209916002916141f3906141e390610f0460a082901c60ff1689613c44565b6001600160401b03166060880152565b01546001600160401b0381166080860152610f35565b6001600160401b031660a0840152565b5161422381613c3a565b61422c81613c3a565b1561416d576104029061423d615254565b9061538a565b906402540be4008202918083046402540be4001490151715613f3257565b81810292918115918404141715613f3257565b90916001600160a01b037f000000000000000000000000000000000000000000000000000000000000000016308114908115614357575b50611e9f576142b86158e1565b6040516352d1902d60e01b8152926020846004816001600160a01b0387165afa5f9481614336575b5061430157634c9c8ce360e01b5f526001600160a01b03831660045260245ffd5b90915f5160206166615f395f51905f52840361432257611d8192935061610b565b632a87526960e21b5f52600484905260245ffd5b61435091955060203d602011610a3157610a238183611d51565b935f6142e0565b5f5160206166615f395f51905f52546001600160a01b0316141590505f6142ab565b156143815750565b631bceedfb60e11b5f9081526001600160a01b0391909116600452602490fd5b156143a95750565b633a4541ef60e01b5f9081526001600160a01b0391909116600452602490fd5b5f5160206165815f395f51905f5254811015613f01575f5160206165815f395f51905f525f5260205f2001905f90565b8054821015613f01575f5260205f2001905f90565b5f5160206165815f395f51905f525490600160401b821015611d1657600182015f5160206165815f395f51905f52555f5160206165815f395f51905f5254821015613f01575f5160206165815f395f51905f525f527f024be1d688fec05d4c3e9aeb5eac4f8c1e7d5bd030a2d0a8bafafba39f7f7ac990910180546001600160a01b0319166001600160a01b03909216919091179055565b6001600160401b038111611d165760051b60200190565b604051906144ca82611d1b565b5f604083606081528260208201520152565b906144e6826144a6565b6144f36040519182611d51565b8281528092614504601f19916144a6565b01905f5b82811061451457505050565b60209061451f6144bd565b82828501015201614508565b6001600160401b036001911601906001600160401b038211613f3257565b6001600160401b036002911601906001600160401b038211613f3257565b6001600160401b036103e8911601906001600160401b038211613f3257565b906001600160401b03809116911601906001600160401b038211613f3257565b6001600160401b035f19911601906001600160401b038211613f3257565b6001600160a01b03909116815260a0602082018190528101839052929594939160c0840191905f5b81811061462457505050916001600160401b0360809281611d8196959816604084015216606082015201906001600160401b03169052565b9091926020806001928635614638816103c8565b848060a01b0316815201940191019190916145ec565b979593909461467f61468d936104029b999561469b9860018060a01b03168c5260a060208d015260a08c01916140ab565b9189830360408b01526140ab565b9186830360608801526140ab565b9260808185039101526140ab565b906040516146b681611d36565b91546001600160601b0381168352606081811c6001600160701b0316602085015260d082901c63ffffffff16604085015260f09190911c90830152565b156146fa57565b635071536360e11b5f5260045ffd5b60018060a01b03165f525f5160206166415f395f51905f5260205260405f206040519061473582611cfb565b80546001600160a01b03908116835260018201549081166020840152604083019161477a91614209916002916141f3906141e390610f0460a082901c60ff1689613c44565b5161478481613c3a565b61478d81613c3a565b1561416d576104029061423d614a21565b90604051604081018181106001600160401b03821117611d165760405291546001600160701b038116835260701c6001600160401b03166020830152565b9081546147e8816144a6565b926147f66040519485611d51565b81845260208401905f5260205f205f915b8383106148145750505050565b6001602081926148238561479e565b815201920192019190614807565b9060405161483e81611d36565b8092805461484b816144a6565b906148596040519283611d51565b80825260208201835f5260205f205f915b8383106148ca5750505050613cc160038493606093611d8196526148ab61489b60018301546001600160401b031690565b6001600160401b03166020870152565b6148b7600282016147dc565b604086015201546001600160401b031690565b6001602081926148d98561479e565b81520192019201919061486a565b5f19810191908211613f3257565b91908203918211613f3257565b906108c561490f92613bb6565b6040519061491c82611d36565b8054614927816144a6565b906149356040519283611d51565b80825260208201835f5260205f205f915b8383106149c557505050506003614984926149749285526148ab61489b60018301546001600160401b031690565b6001600160401b03166060830152565b5180519081156149bd5761499a6149a0926148e7565b906140d6565b5190610402602061161f6112a3610881865160018060701b031690565b50505f905f90565b6001602081926149d48561479e565b815201920192019190614946565b908160209103126103d9575190565b156149f95750565b630a30df6160e11b5f5260045260245ffd5b15614a1257565b634b5d6ee760e11b5f5260045ffd5b610402611726615254565b8054600160601b600160d01b03191660609290921b600160601b600160d01b0316919091179055565b8051614a6f90839061184f906001600160a01b0316613bee565b805490929060601c6001600160701b0316614b1757614ae1614adb6060614aba6110d482614aa6612bdb895160018060a01b031690565b9701966110bf88516001600160401b031690565b6020810151614ad2906001600160701b031688614a2c565b015161ffff1690565b84614072565b614af561105583516001600160401b031690565b6001600160401b03821611614b0957505090565b6001600160401b0316905290565b505090565b15614b2357565b632808647560e11b5f5260045ffd5b15614b3957565b639905827b60e01b5f5260045ffd5b15614b4f57565b63d5b25b6360e01b5f5260045ffd5b15614b665750565b63164688df60e21b5f9081526001600160a01b0391909116600452602490fd5b8115614b90570490565b634e487b7160e01b5f52601260045260245ffd5b815181546001600160601b0319166001600160601b0391909116178155611d819161ffff906060906020810151614be4906001600160701b031685614a2c565b6040810151845463ffffffff60d01b191660d09190911b63ffffffff60d01b1617845501511690614072565b15614c185750565b634168a4a560e11b5f5260045260245ffd5b8151815460209093015167ffffffffffffffff60701b60709190911b166001600160b01b03199093166001600160701b0390911617919091179055565b9190614c7657611d8191614c2a565b613d9a565b8054600160401b811015611d1657614c98916001820181556143f9565b919091614c7657611d8191614c2a565b91614e095f5160206165a15f395f51905f5293614cfb966109e5611873614e21966108c5614dc9610881614ce89c60018060a01b0389169d8e1515614b1c565b6001600160a01b0385169e8f1515614b32565b614d0b6402540be400820661080b565b6001600160401b03881680614e26575b50614d2f8b610bb861ffff82161115614053565b614d94614d3e61043b8b613b59565b614d7c60028c614d686040850191614d5b81845161179781613c3a565b6001600160a01b03168552565b6001600160a01b038a166020850152613c44565b6001600160401b038a1660608201526105378b613b59565b614da7896104db6104cf6104c289613b7e565b614db48961051487613b7e565b614dbe6002613c3a565b6402540be400900490565b95614e04614dd5611d83565b5f81526001600160701b03891660208201525f604082015261ffff8b1660608201526118658861184f85613bee565b613bb6565b614e136002613c3a565b604051918291600283613eaf565b0390a3565b614e35906118e2611055614a21565b5f614d1b565b6001600160a01b038116925f5160206165a15f395f51905f5292614e2192614f8891614f6690614e6c881515614b1c565b6001600160a01b038116986108c590614f2b9061088190614e8e8d1515614b32565b614e9e6402540be400820661080b565b614eb189610bb861ffff82161115614053565b614ef8614ec061043b89613b59565b614ee9600160408301614ed88c825161179781613c3a565b6001600160a01b038c168452614d68565b5f606082015261053789613b59565b614f0b876104db6104cf6104c289613b7e565b614f188761051487613b7e565b614f226001613c3a565b614dbe8761440e565b93614e04614f37611d83565b5f81526001600160701b03871660208201525f604082015261ffff891660608201526118655f61184f85613bee565b614f7281548015614c10565b614f7d6109c2611d72565b5f6020830152614c7b565b614f926001613c3a565b604051918291600183613eaf565b6040516323b872dd60e01b60208201526001600160a01b039283166024820152929091166044830152606480830193909352918152611d8191614fe4608483611d51565b615d6b565b15614ff15750565b637640cbd760e01b5f5260045260245ffd5b6001600160701b039182169082160191908211613f3257565b60405163eea9a01b60e01b8152919291906020826004817f00000000000000000000000000000000000000000000000000000000000000006001600160a01b03165afa918215610a38577f30bcda2f188b532c7644e632473e83a6fb3c5c79717650d0ac790d141bb1b1779284915f916151cd575b5081101590816151c3575b6150a591614fe9565b6150b56402540be400840661080b565b6150c161043b85613b59565b906150d485604084015161045b81613c3a565b6150df61085e615254565b916150ed6108718483614a55565b6150fa826108c588613bb6565b8054156151b35761510e6108ee82546148e7565b50908154615126816001600160401b039060701c1690565b6001600160401b03878116911610615174575050805461515292610938916001600160701b0316615003565b6040516001600160a01b03918216959091169390918291614e21919083613528565b6151ae9391925061518e91906001600160701b0316615003565b9061519a6109c2611d72565b6001600160401b0385166020830152614c7b565b615152565b906151ae9161519a6109c2611d72565b801515915061509c565b6151e6915060203d602011610a3157610a238183611d51565b5f615091565b156151f357565b63098a8cbb60e41b5f5260045ffd5b1561520a5750565b6375687d0f60e11b5f9081526001600160a01b0391909116600452602490fd5b908160209103126103d9575161040281611520565b908160209103126103d957516104028161344c565b604051631454a0a560e31b81527f00000000000000000000000000000000000000000000000000000000000000006001600160a01b031690602081600481855afa8015610a38576001600160401b03915f9161531f575b5016908143106153195760206152c3600493436148f5565b916040519384809263068d921560e31b82525afa908115610a385763ffffffff61105592610402945f916152fa575b501690614b86565b615313915060203d602011611b9357611b858183611d51565b5f6152f2565b50505f90565b615341915060203d602011615347575b6153398183611d51565b81019061522a565b5f6152ab565b503d61532f565b6001600160401b03166001600160401b038114613f325760010190565b90614c76575f9055565b60021115612ed957565b610402612310615254565b905f5b60a083016001600160401b038151166001600160401b038416111561541b576153e86110d46153ed926001600160401b036153d060018060a01b03895116613bee565b9151166001600160401b03165f5260205260405f2090565b615f65565b5090508101809111613f32579260a083016001600160401b036154128183511661534e565b1690529261538d565b5091505090565b6001600160601b039182169082160191908211613f3257565b6040519061544882611d36565b5f6060838281528260208201528260408201520152565b906154819061546c61543b565b50825161184f906001600160a01b0316613bee565b906040519161548f83611d36565b546001600160601b0381168352606081811c6001600160701b039081166020860181815260d085901c63ffffffff16604088015260f09490941c9286019283529192911661552b57606061552391614ad26155106110d4876110bf86615501612bdb6104029c5160018060a01b031690565b9201516001600160401b031690565b60208101516001600160701b0316909252565b61ffff169052565b50505090565b1561553857565b631e9acf1760e31b5f5260045ffd5b6001600160701b039182169082160391908211613f3257565b1561556757565b631022580160e11b5f5260045ffd5b919061558861558d916108c585613bb6565b614831565b925f9360208101905b81516001600160401b03169581519687516001600160401b038216101561582c576001600160401b039495969761499a6155d6926001600160401b031690565b519460208601966155ee88516001600160401b031690565b868216968791161015615774575f9361560e86516001600160401b031690565b6001600160401b036156218351516148e7565b911610615739575b925b61563f6110558a516001600160401b031690565b878110908161571a575b50156156e55761566e6110d461565e8c613bee565b8b516001600160401b03166110bf565b60208101805190918a9161568a906001600160701b0316610881565b156156dc579161113f6108816111316111459461112b61088161111b6156b09a99615f65565b925b6156d66156c96111648b516001600160401b031690565b6001600160401b03168a52565b9261562b565b505050926156b2565b955095509550905061571161570461116484516001600160401b031690565b6001600160401b03168352565b94939194615596565b905085801591821561572f575b50505f615649565b109050855f615727565b935061576e611055602061575f875161499a6110556117268c516001600160401b031690565b5101516001600160401b031690565b93615629565b9550935094509450505b6040606085019401925b84516001600160401b031684519081516001600160401b0382161015615822576157bb91906001600160401b031661499a565b5160208101516001600160401b0385811691161161581a57516157ef9190611145906112a3906001600160701b0316610881565b9261581461580761116487516001600160401b031690565b6001600160401b03168652565b92615788565b509350915050565b5050925092505090565b50945094505061577e565b906402540be4008204916402540be4008302928084046402540be4001490151715613f325760405163eea9a01b60e01b8152836020826004817f00000000000000000000000000000000000000000000000000000000000000006001600160a01b03165afa918215610a38575f926158c0575b50106158ba5782610402916148f5565b5f925090565b6158da91925060203d602011610a3157610a238183611d51565b905f6158aa565b5f5160206166015f395f51905f52546001600160a01b0316330361215057565b615909613d5d565b5f5160206166015f395f51905f5280546001600160a01b039283166001600160a01b0319821681179092559091167f8be0079c531659141344cd1fd0a4f28419497f9722a3daafe3b4186f6b6457e05f80a3565b90615967826144a6565b6159746040519182611d51565b8281528092615985601f19916144a6565b0190602036910137565b905f5160206165815f395f51905f52546159a88161595d565b925f5b828110615ae357506040516306598de160e31b815290602090829060049082906001600160a01b03165afa8015610a385763ffffffff915f91615ac4575b501691818311615abb575b5f5b838110615a0557505050815290565b80615a1961043b610ae36104e1858a6140d6565b615a2283613f24565b858110615a7857505090615a72600192615a5d615a426104e1858b6140d6565b91615a6c615a536104e1838d6140d6565b615a5d878d6140d6565b6001600160a01b039091169052565b896140d6565b016159f6565b615a8b61043b610ae36104e1848c6140d6565b615a9586846161ad565b615a9f87836161ad565b11615aae575b50600101615a22565b9092509050816001615aa5565b915080916159f4565b615add915060203d602011611b9357611b858183611d51565b5f6159e9565b80615aff615af56134cf6001946143c9565b615a5d83896140d6565b016159ab565b6002810191615b1f83546001600160401b039060401c1690565b91615b2983614567565b6001600160401b0383166001600160401b03821610615ce0575b505f935f93905b6001600160401b0384166001600160401b03831610615c975790615b6d91613dc8565b6001810154615b869085906001600160a01b031661609b565b82615bd1575b547fb947d7b49cedaf132fd7a9592099c21170864455405d51b4825032441532410092506001600160a01b039081161692615bcc60405192839283613528565b0390a2565b7f00000000000000000000000000000000000000000000000000000000000000006001600160a01b0316615c2684827f00000000000000000000000000000000000000000000000000000000000000006161e4565b803b156103d95760405163b6b55f2560e01b815260048101949094525f908490602490829084905af1928315610a38577fb947d7b49cedaf132fd7a9592099c21170864455405d51b4825032441532410093615c83575b50615b8c565b80610d965f615c9193611d51565b5f615c7d565b9093946001615cd76001600160401b0392615cd1615cc86153e86110d48b61184f612bdb8c5460018060a01b031690565b93909150613f37565b98613f37565b95011690615b4a565b91505f615b43565b15615cf05750565b63403f6f6f60e11b5f9081526001600160a01b0391909116600452602490fd5b63ffffffff60019116019063ffffffff8211613f3257565b60ff5f5160206166a15f395f51905f525460401c1615615d4457565b631afcd79f60e31b5f5260045ffd5b908160209103126103d9575180151581036103d95790565b5f80615d939260018060a01b03169360208151910182865af1615d8c61635f565b9083616522565b8051908115159182615dc9575b5050615da95750565b635274afe760e01b5f9081526001600160a01b0391909116600452602490fd5b615ddc9250602080918301019101615d53565b155f80615da0565b5f5160206165815f395f51905f5254905f905f19906001600160a01b03165b838310615e90575b5090505f811215615e1a575050565b6001821180615e7e575b615e33575b5050611d816162d4565b615e53615e4d6134cf615e48615e77956148e7565b6143c9565b916143c9565b81546001600160a01b0393841660039290921b91821b9390911b1916919091179055565b5f80615e29565b50615e88826148e7565b811415615e24565b80615eb4615e9d856143c9565b90546001600160a01b039260039290921b1c821690565b1603615ec3575050805f615e0b565b600190920191615e03565b60018101546001600160401b031681546001600160401b0382161015615f28576112ff615efe91615f03936143f9565b614567565b906001600160401b0381166001600160401b038316105f14615f23575090565b905090565b506002615f3f60038301546001600160401b031690565b91019081546001600160401b038216105f14614b17576112ff615efe91615f03936143f9565b604081015163ffffffff16604051639dbf97db60e01b81526020816004817f00000000000000000000000000000000000000000000000000000000000000006001600160a01b03165afa908115610a385763ffffffff9182915f9161607c575b5016911610615ff05751615fe9906001600160601b03165b6001600160601b031690565b5f915f9190565b60208101516001600160701b0316156160635761605e615fdd9161605961604761603f616026615fdd855160018060601b031690565b61112b616038606087015161ffff1690565b61ffff1690565b612710900490565b9151919384926001600160601b031690565b6148f5565b915f90565b51616076906001600160601b0316615fdd565b5f918290565b616095915060203d602011611b9357611b858183611d51565b5f615fc5565b90806160a5575050565b60405163a9059cbb60e01b60208201526001600160a01b0390921660248301526044820152611d81906160e581606481015b03601f198101835282611d51565b7f0000000000000000000000000000000000000000000000000000000000000000615d6b565b90813b1561618c575f5160206166615f395f51905f5280546001600160a01b0319166001600160a01b0384169081179091557fbc7cd75a20ee27fd9adebab32041f755214dbc6bffa90cc0225b39da2e5c2d3b5f80a2805115616174576161719161638e565b50565b50503461617d57565b63b398979f60e01b5f5260045ffd5b50634c9c8ce360e01b5f9081526001600160a01b0391909116600452602490fd5b6001600160701b03916020916161c391906163ab565b0151166402540be4008102908082046402540be4001490151715613f325790565b60405163095ea7b360e01b602082019081526001600160a01b0384166024830152604480830195909552938152919261625190616222606485611d51565b83516001600160a01b038416915f91829182855af19061624061635f565b826162a2575b508161629b57501590565b61625a57505050565b60405163095ea7b360e01b60208201526001600160a01b0390931660248401525f6044840152611d8192614fe49061629581606481016160d7565b82615d6b565b3b15919050565b805191925081159182156162ba575b5050905f616246565b6162cd9250602080918301019101615d53565b5f806162b1565b5f5160206165815f395f51905f5254801561634b575f198101905f5160206165815f395f51905f5254821015613f01575f5160206165815f395f51905f525f8190527f024be1d688fec05d4c3e9aeb5eac4f8c1e7d5bd030a2d0a8bafafba39f7f7ac890910180546001600160a01b031916905555565b634e487b7160e01b5f52603160045260245ffd5b3d15616389573d9061637082611d92565b9161637e6040519384611d51565b82523d5f602084013e565b606090565b5f8061040293602081519101845af46163a561635f565b91616522565b906163b461543b565b5060608201906163cb82516001600160401b031690565b6001600160401b0381166001600160401b038316101561651b57505b6001600160401b03811680156164ef5783516001600160a01b03165f9081527f4102a9ba7244b40639ebe412c7bfc792b19c048efdf631bf4f130fef80c0df046020526040902061643d906110d490849061184f565b9061645261105585516001600160401b031690565b1480156164d9575b80156164c6575b80156164ab575b801561648c575b61648557505f19016001600160401b03166163e7565b9250505090565b5063ffffffff6164a3604083015163ffffffff1690565b16151561646f565b5061ffff6164be606083015161ffff1690565b161515616468565b5080516001600160601b03161515616461565b5060208101516001600160701b0316151561645a565b5050905161040291506110d49061650e906001600160a01b0316613bee565b5f805260205260405f2090565b90506163e7565b90616546575080511561653757805190602001fd5b630a12f52160e11b5f5260045ffd5b81511580616577575b616557575090565b639996b31560e01b5f9081526001600160a01b0391909116600452602490fd5b50803b1561654f56fe4102a9ba7244b40639ebe412c7bfc792b19c048efdf631bf4f130fef80c0df0242449fd19d367b0177da9082fe6da7d4da41af7573e3a3c1750ecffeffe26f9df295d610a4116363064013aa5e1168427c6b907b208d8be559665c0e7adec5008f1c49778ec45f03e87f0e3e1567785ab335a882d8dad6d5c44cb7ae509684009016d09d72d40fdae2fd8ceac6b6234c7706214fd39c1cd1e609a0528c199300c00107e0d011ac7c8e4dfa18e3dd3623ff151f8bfcc3821cd39bc114bd6504d94102a9ba7244b40639ebe412c7bfc792b19c048efdf631bf4f130fef80c0df00360894a13ba1a3210667c828492db98dca3e2076cc3735a920a3ca505d382bbc8f1c49778ec45f03e87f0e3e1567785ab335a882d8dad6d5c44cb7ae50968401f0c57e16840df040f15088dc2f81fe391c3923bec73e23a9662efc9c229c6a00237e158222e3e6968b72b9db0d8043aacf074ad9f650f0d1606b4d82ee432c00a26469706673582212204724c3730e2aec79c9abe4c2729f642d4878a948e0457e50360c9769f757df4964736f6c634300081e0033f0c57e16840df040f15088dc2f81fe391c3923bec73e23a9662efc9c229c6a00","linkReferences":{"contracts/staking/StakingDpos.sol":{"StakingDpos":[{"start":3978,"length":20},{"start":10376,"length":20},{"start":11737,"length":20},{"start":12467,"length":20},{"start":14631,"length":20}]}}},"methodIdentifiers":{"UPGRADE_INTERFACE_VERSION()":"ad3cb1cc","acceptOwnership()":"79ba5097","activateValidator(address)":"b46e5520","addValidator(address)":"4d238c8e","calcAvailableForRedelegateAmount(address,address)":"5ef9e8c6","changeValidatorCommissionRate(address,uint16)":"14f8649f","changeValidatorOwner(address,address)":"0052c9e1","claimDelegatorFee(address)":"426594b1","claimDelegatorFeeAtEpoch(address,uint64)":"fe38ebef","claimValidatorFee(address)":"ff4794fc","claimValidatorFeeAtEpoch(address,uint64)":"adf2a79c","commitEpochCommittee(address[])":"87401d8a","committeeSelectionEpoch()":"8bd070e4","currentEpoch()":"76671808","delegate(address,uint256)":"026e402b","deposit(address,uint256)":"47e7ef24","disableValidator(address)":"1fe97684","getChainConfig()":"606c0c94","getConsensusKeys(address)":"ad36f42f","getDelegatorFee(address,address)":"52b7bea2","getEpochCommittee(uint64)":"80b562de","getEpochCommitteeLength(uint64)":"e3e6cedc","getGovernance()":"289b3c0d","getPendingDelegatorFee(address,address)":"c2fd58fc","getPendingValidatorFee(address)":"c6fb9065","getStaking()":"7b1391a6","getStakingPool()":"45946334","getStakingToken()":"9f9106d1","getSystemReward()":"7a37cc59","getValidatorByOwner(address)":"30108c22","getValidatorDelegation(address,address)":"d951e186","getValidatorFee(address)":"457179fd","getValidatorStatus(address)":"a310624f","getValidatorStatusAtEpoch(address,uint64)":"48124d26","getValidators()":"b7ab4db5","getValidatorsWithKeys()":"d41c52eb","getValidatorsWithKeysAt(uint64)":"7cfba9f3","initialize(address,address[],uint256[],uint16)":"01f6bb50","isValidator(address)":"facd743b","isValidatorActive(address)":"42ad55ac","nextEpoch()":"aea0e78b","nextEpochToCommit()":"c06a82de","owner()":"8da5cb5b","pendingOwner()":"e30c3978","proxiableUUID()":"52d1902d","redelegateDelegatorFee(address)":"8ecb3fc9","registerValidator(address,uint16,uint256)":"dd0fb5df","releaseValidatorFromJail(address)":"73a3dda6","removeValidator(address)":"40a141ff","renounceOwnership()":"715018a6","resolveSigner(uint64,uint32)":"d7f1733d","setConsensusKeys(address,bytes,bytes,bytes32)":"225cba85","slash(address)":"c96be4cb","slashEquivocationFinalize(bytes,bytes,bytes,bytes)":"add07a3e","slashEquivocationNotarize(bytes,bytes,bytes,bytes)":"e28d2f63","slashEquivocationNullifyFinalize(bytes,bytes,bytes,bytes)":"a10827e9","transferOwnership(address)":"f2fde38b","undelegate(address,uint256)":"4d99dd16","upgradeToAndCall(address,bytes)":"4f1ef286"},"storageLayout":{"storage":[],"types":{}},"id":5}