{"abi":[{"type":"constructor","inputs":[{"name":"stakingContract","type":"address","internalType":"contract IStaking"},{"name":"systemRewardContract","type":"address","internalType":"contract ISystemReward"},{"name":"stakingPoolContract","type":"address","internalType":"contract IStakingPool"},{"name":"governanceContract","type":"address","internalType":"contract IFluentGovernance"},{"name":"chainConfigContract","type":"address","internalType":"contract IChainConfig"},{"name":"stakingToken","type":"address","internalType":"contract IERC20"},{"name":"livenessSlashingAddr","type":"address","internalType":"address"}],"stateMutability":"nonpayable"},{"type":"function","name":"UPGRADE_INTERFACE_VERSION","inputs":[],"outputs":[{"name":"","type":"string","internalType":"string"}],"stateMutability":"view"},{"type":"function","name":"acceptOwnership","inputs":[],"outputs":[],"stateMutability":"nonpayable"},{"type":"function","name":"activateValidator","inputs":[{"name":"validator","type":"address","internalType":"address"}],"outputs":[],"stateMutability":"nonpayable"},{"type":"function","name":"addValidator","inputs":[{"name":"account","type":"address","internalType":"address"}],"outputs":[],"stateMutability":"nonpayable"},{"type":"function","name":"beaconAssurance","inputs":[{"name":"epoch","type":"uint64","internalType":"uint64"}],"outputs":[{"name":"","type":"bool","internalType":"bool"}],"stateMutability":"view"},{"type":"function","name":"calcAvailableForRedelegateAmount","inputs":[{"name":"validator","type":"address","internalType":"address"},{"name":"delegator","type":"address","internalType":"address"}],"outputs":[{"name":"amountToStake","type":"uint256","internalType":"uint256"},{"name":"rewardsDust","type":"uint256","internalType":"uint256"}],"stateMutability":"view"},{"type":"function","name":"changeValidatorCommissionRate","inputs":[{"name":"validatorAddress","type":"address","internalType":"address"},{"name":"commissionRate","type":"uint16","internalType":"uint16"}],"outputs":[],"stateMutability":"nonpayable"},{"type":"function","name":"changeValidatorOwner","inputs":[{"name":"validatorAddress","type":"address","internalType":"address"},{"name":"newOwner","type":"address","internalType":"address"}],"outputs":[],"stateMutability":"nonpayable"},{"type":"function","name":"claimDelegatorFee","inputs":[{"name":"validatorAddress","type":"address","internalType":"address"}],"outputs":[],"stateMutability":"nonpayable"},{"type":"function","name":"claimDelegatorFeeAtEpoch","inputs":[{"name":"validatorAddress","type":"address","internalType":"address"},{"name":"beforeEpoch","type":"uint64","internalType":"uint64"}],"outputs":[],"stateMutability":"nonpayable"},{"type":"function","name":"claimValidatorFee","inputs":[{"name":"validatorAddress","type":"address","internalType":"address"}],"outputs":[],"stateMutability":"nonpayable"},{"type":"function","name":"claimValidatorFeeAtEpoch","inputs":[{"name":"validatorAddress","type":"address","internalType":"address"},{"name":"beforeEpoch","type":"uint64","internalType":"uint64"}],"outputs":[],"stateMutability":"nonpayable"},{"type":"function","name":"commitEpochBeaconKey","inputs":[{"name":"groupPubKey","type":"bytes","internalType":"bytes"}],"outputs":[],"stateMutability":"nonpayable"},{"type":"function","name":"commitEpochCommittee","inputs":[{"name":"committee","type":"address[]","internalType":"address[]"}],"outputs":[],"stateMutability":"nonpayable"},{"type":"function","name":"committeeSelectionEpoch","inputs":[],"outputs":[{"name":"","type":"uint64","internalType":"uint64"}],"stateMutability":"view"},{"type":"function","name":"currentEpoch","inputs":[],"outputs":[{"name":"","type":"uint64","internalType":"uint64"}],"stateMutability":"view"},{"type":"function","name":"delegate","inputs":[{"name":"validatorAddress","type":"address","internalType":"address"},{"name":"amount","type":"uint256","internalType":"uint256"}],"outputs":[],"stateMutability":"nonpayable"},{"type":"function","name":"deposit","inputs":[{"name":"validatorAddress","type":"address","internalType":"address"},{"name":"amount","type":"uint256","internalType":"uint256"}],"outputs":[],"stateMutability":"nonpayable"},{"type":"function","name":"disableValidator","inputs":[{"name":"validator","type":"address","internalType":"address"}],"outputs":[],"stateMutability":"nonpayable"},{"type":"function","name":"getChainConfig","inputs":[],"outputs":[{"name":"","type":"address","internalType":"contract IChainConfig"}],"stateMutability":"view"},{"type":"function","name":"getConsensusKeys","inputs":[{"name":"validatorAddress","type":"address","internalType":"address"}],"outputs":[{"name":"","type":"tuple","internalType":"struct IStaking.ConsensusKeys","components":[{"name":"blsPubkey","type":"bytes","internalType":"bytes"},{"name":"peerPubkey","type":"bytes32","internalType":"bytes32"},{"name":"activationEpoch","type":"uint64","internalType":"uint64"}]}],"stateMutability":"view"},{"type":"function","name":"getDelegatorFee","inputs":[{"name":"validatorAddress","type":"address","internalType":"address"},{"name":"delegatorAddress","type":"address","internalType":"address"}],"outputs":[{"name":"","type":"uint256","internalType":"uint256"}],"stateMutability":"view"},{"type":"function","name":"getEpochBeaconKey","inputs":[{"name":"epoch","type":"uint64","internalType":"uint64"}],"outputs":[{"name":"","type":"bytes","internalType":"bytes"}],"stateMutability":"view"},{"type":"function","name":"getEpochCommittee","inputs":[{"name":"epoch","type":"uint64","internalType":"uint64"}],"outputs":[{"name":"","type":"address[]","internalType":"address[]"}],"stateMutability":"view"},{"type":"function","name":"getEpochCommitteeLength","inputs":[{"name":"epoch","type":"uint64","internalType":"uint64"}],"outputs":[{"name":"","type":"uint256","internalType":"uint256"}],"stateMutability":"view"},{"type":"function","name":"getGovernance","inputs":[],"outputs":[{"name":"","type":"address","internalType":"contract IFluentGovernance"}],"stateMutability":"view"},{"type":"function","name":"getPendingDelegatorFee","inputs":[{"name":"validatorAddress","type":"address","internalType":"address"},{"name":"delegatorAddress","type":"address","internalType":"address"}],"outputs":[{"name":"","type":"uint256","internalType":"uint256"}],"stateMutability":"view"},{"type":"function","name":"getPendingValidatorFee","inputs":[{"name":"validatorAddress","type":"address","internalType":"address"}],"outputs":[{"name":"","type":"uint256","internalType":"uint256"}],"stateMutability":"view"},{"type":"function","name":"getRegistryWithKeys","inputs":[],"outputs":[{"name":"addrs","type":"address[]","internalType":"address[]"},{"name":"keys","type":"tuple[]","internalType":"struct IStaking.ConsensusKeys[]","components":[{"name":"blsPubkey","type":"bytes","internalType":"bytes"},{"name":"peerPubkey","type":"bytes32","internalType":"bytes32"},{"name":"activationEpoch","type":"uint64","internalType":"uint64"}]}],"stateMutability":"view"},{"type":"function","name":"getStaking","inputs":[],"outputs":[{"name":"","type":"address","internalType":"contract IStaking"}],"stateMutability":"view"},{"type":"function","name":"getStakingPool","inputs":[],"outputs":[{"name":"","type":"address","internalType":"contract IStakingPool"}],"stateMutability":"view"},{"type":"function","name":"getStakingToken","inputs":[],"outputs":[{"name":"","type":"address","internalType":"contract IERC20"}],"stateMutability":"view"},{"type":"function","name":"getSystemReward","inputs":[],"outputs":[{"name":"","type":"address","internalType":"contract ISystemReward"}],"stateMutability":"view"},{"type":"function","name":"getValidatorByOwner","inputs":[{"name":"owner","type":"address","internalType":"address"}],"outputs":[{"name":"","type":"address","internalType":"address"}],"stateMutability":"view"},{"type":"function","name":"getValidatorDelegation","inputs":[{"name":"validatorAddress","type":"address","internalType":"address"},{"name":"delegator","type":"address","internalType":"address"}],"outputs":[{"name":"delegatedAmount","type":"uint256","internalType":"uint256"},{"name":"atEpoch","type":"uint64","internalType":"uint64"}],"stateMutability":"view"},{"type":"function","name":"getValidatorFee","inputs":[{"name":"validatorAddress","type":"address","internalType":"address"}],"outputs":[{"name":"","type":"uint256","internalType":"uint256"}],"stateMutability":"view"},{"type":"function","name":"getValidatorStatus","inputs":[{"name":"validatorAddress","type":"address","internalType":"address"}],"outputs":[{"name":"ownerAddress","type":"address","internalType":"address"},{"name":"status","type":"uint8","internalType":"uint8"},{"name":"totalDelegated","type":"uint256","internalType":"uint256"},{"name":"slashesCount","type":"uint32","internalType":"uint32"},{"name":"changedAt","type":"uint64","internalType":"uint64"},{"name":"jailedBefore","type":"uint64","internalType":"uint64"},{"name":"claimedAt","type":"uint64","internalType":"uint64"},{"name":"commissionRate","type":"uint16","internalType":"uint16"},{"name":"totalRewards","type":"uint96","internalType":"uint96"}],"stateMutability":"view"},{"type":"function","name":"getValidatorStatusAtEpoch","inputs":[{"name":"validatorAddress","type":"address","internalType":"address"},{"name":"epoch","type":"uint64","internalType":"uint64"}],"outputs":[{"name":"ownerAddress","type":"address","internalType":"address"},{"name":"status","type":"uint8","internalType":"uint8"},{"name":"totalDelegated","type":"uint256","internalType":"uint256"},{"name":"slashesCount","type":"uint32","internalType":"uint32"},{"name":"changedAt","type":"uint64","internalType":"uint64"},{"name":"jailedBefore","type":"uint64","internalType":"uint64"},{"name":"claimedAt","type":"uint64","internalType":"uint64"},{"name":"commissionRate","type":"uint16","internalType":"uint16"},{"name":"totalRewards","type":"uint96","internalType":"uint96"}],"stateMutability":"view"},{"type":"function","name":"getValidators","inputs":[],"outputs":[{"name":"","type":"address[]","internalType":"address[]"}],"stateMutability":"view"},{"type":"function","name":"getValidatorsWithKeys","inputs":[],"outputs":[{"name":"addrs","type":"address[]","internalType":"address[]"},{"name":"keys","type":"tuple[]","internalType":"struct IStaking.ConsensusKeys[]","components":[{"name":"blsPubkey","type":"bytes","internalType":"bytes"},{"name":"peerPubkey","type":"bytes32","internalType":"bytes32"},{"name":"activationEpoch","type":"uint64","internalType":"uint64"}]}],"stateMutability":"view"},{"type":"function","name":"getValidatorsWithKeysAt","inputs":[{"name":"epoch","type":"uint64","internalType":"uint64"}],"outputs":[{"name":"addrs","type":"address[]","internalType":"address[]"},{"name":"keys","type":"tuple[]","internalType":"struct IStaking.ConsensusKeys[]","components":[{"name":"blsPubkey","type":"bytes","internalType":"bytes"},{"name":"peerPubkey","type":"bytes32","internalType":"bytes32"},{"name":"activationEpoch","type":"uint64","internalType":"uint64"}]}],"stateMutability":"view"},{"type":"function","name":"initialize","inputs":[{"name":"initialOwner","type":"address","internalType":"address"},{"name":"validators","type":"address[]","internalType":"address[]"},{"name":"initialStakes","type":"uint256[]","internalType":"uint256[]"},{"name":"commissionRate","type":"uint16","internalType":"uint16"}],"outputs":[],"stateMutability":"nonpayable"},{"type":"function","name":"isValidator","inputs":[{"name":"account","type":"address","internalType":"address"}],"outputs":[{"name":"","type":"bool","internalType":"bool"}],"stateMutability":"view"},{"type":"function","name":"isValidatorActive","inputs":[{"name":"account","type":"address","internalType":"address"}],"outputs":[{"name":"","type":"bool","internalType":"bool"}],"stateMutability":"view"},{"type":"function","name":"nextEpoch","inputs":[],"outputs":[{"name":"","type":"uint64","internalType":"uint64"}],"stateMutability":"view"},{"type":"function","name":"nextEpochForBeaconKey","inputs":[],"outputs":[{"name":"","type":"uint64","internalType":"uint64"}],"stateMutability":"view"},{"type":"function","name":"nextEpochToCommit","inputs":[],"outputs":[{"name":"","type":"uint64","internalType":"uint64"}],"stateMutability":"view"},{"type":"function","name":"owner","inputs":[],"outputs":[{"name":"","type":"address","internalType":"address"}],"stateMutability":"view"},{"type":"function","name":"pendingOwner","inputs":[],"outputs":[{"name":"","type":"address","internalType":"address"}],"stateMutability":"view"},{"type":"function","name":"proxiableUUID","inputs":[],"outputs":[{"name":"","type":"bytes32","internalType":"bytes32"}],"stateMutability":"view"},{"type":"function","name":"redelegateDelegatorFee","inputs":[{"name":"validator","type":"address","internalType":"address"}],"outputs":[],"stateMutability":"nonpayable"},{"type":"function","name":"registerValidator","inputs":[{"name":"validatorAddress","type":"address","internalType":"address"},{"name":"commissionRate","type":"uint16","internalType":"uint16"},{"name":"initialStake","type":"uint256","internalType":"uint256"}],"outputs":[],"stateMutability":"nonpayable"},{"type":"function","name":"releaseValidatorFromJail","inputs":[{"name":"validatorAddress","type":"address","internalType":"address"}],"outputs":[],"stateMutability":"nonpayable"},{"type":"function","name":"removeValidator","inputs":[{"name":"account","type":"address","internalType":"address"}],"outputs":[],"stateMutability":"nonpayable"},{"type":"function","name":"renounceOwnership","inputs":[],"outputs":[],"stateMutability":"nonpayable"},{"type":"function","name":"resolveSigner","inputs":[{"name":"epoch","type":"uint64","internalType":"uint64"},{"name":"signerIdx","type":"uint32","internalType":"uint32"}],"outputs":[{"name":"","type":"address","internalType":"address"}],"stateMutability":"view"},{"type":"function","name":"setConsensusKeys","inputs":[{"name":"validatorAddress","type":"address","internalType":"address"},{"name":"blsPubkeyUncompressed","type":"bytes","internalType":"bytes"},{"name":"blsPoPUncompressed","type":"bytes","internalType":"bytes"},{"name":"peerPubkey","type":"bytes32","internalType":"bytes32"}],"outputs":[],"stateMutability":"nonpayable"},{"type":"function","name":"slash","inputs":[{"name":"validatorAddress","type":"address","internalType":"address"}],"outputs":[],"stateMutability":"nonpayable"},{"type":"function","name":"slashEquivocationFinalize","inputs":[{"name":"evidence","type":"bytes","internalType":"bytes"},{"name":"pkUncompressed","type":"bytes","internalType":"bytes"},{"name":"sig1Uncompressed","type":"bytes","internalType":"bytes"},{"name":"sig2Uncompressed","type":"bytes","internalType":"bytes"}],"outputs":[],"stateMutability":"nonpayable"},{"type":"function","name":"slashEquivocationNotarize","inputs":[{"name":"evidence","type":"bytes","internalType":"bytes"},{"name":"pkUncompressed","type":"bytes","internalType":"bytes"},{"name":"sig1Uncompressed","type":"bytes","internalType":"bytes"},{"name":"sig2Uncompressed","type":"bytes","internalType":"bytes"}],"outputs":[],"stateMutability":"nonpayable"},{"type":"function","name":"slashEquivocationNullifyFinalize","inputs":[{"name":"evidence","type":"bytes","internalType":"bytes"},{"name":"pkUncompressed","type":"bytes","internalType":"bytes"},{"name":"sig1Uncompressed","type":"bytes","internalType":"bytes"},{"name":"sig2Uncompressed","type":"bytes","internalType":"bytes"}],"outputs":[],"stateMutability":"nonpayable"},{"type":"function","name":"transferOwnership","inputs":[{"name":"newOwner","type":"address","internalType":"address"}],"outputs":[],"stateMutability":"nonpayable"},{"type":"function","name":"undelegate","inputs":[{"name":"validatorAddress","type":"address","internalType":"address"},{"name":"amount","type":"uint256","internalType":"uint256"}],"outputs":[],"stateMutability":"nonpayable"},{"type":"function","name":"upgradeToAndCall","inputs":[{"name":"newImplementation","type":"address","internalType":"address"},{"name":"data","type":"bytes","internalType":"bytes"}],"outputs":[],"stateMutability":"payable"},{"type":"event","name":"Claimed","inputs":[{"name":"validator","type":"address","indexed":true,"internalType":"address"},{"name":"staker","type":"address","indexed":true,"internalType":"address"},{"name":"amount","type":"uint256","indexed":false,"internalType":"uint256"},{"name":"epoch","type":"uint64","indexed":false,"internalType":"uint64"}],"anonymous":false},{"type":"event","name":"ConsensusKeysSet","inputs":[{"name":"validator","type":"address","indexed":true,"internalType":"address"},{"name":"blsPubkey","type":"bytes","indexed":false,"internalType":"bytes"},{"name":"peerPubkey","type":"bytes32","indexed":false,"internalType":"bytes32"},{"name":"activationEpoch","type":"uint64","indexed":false,"internalType":"uint64"}],"anonymous":false},{"type":"event","name":"Delegated","inputs":[{"name":"validator","type":"address","indexed":true,"internalType":"address"},{"name":"staker","type":"address","indexed":true,"internalType":"address"},{"name":"amount","type":"uint256","indexed":false,"internalType":"uint256"},{"name":"epoch","type":"uint64","indexed":false,"internalType":"uint64"}],"anonymous":false},{"type":"event","name":"EpochBeaconKeyCommitted","inputs":[{"name":"epoch","type":"uint64","indexed":true,"internalType":"uint64"},{"name":"assured","type":"bool","indexed":false,"internalType":"bool"}],"anonymous":false},{"type":"event","name":"EpochCommitteeCommitted","inputs":[{"name":"epoch","type":"uint64","indexed":true,"internalType":"uint64"},{"name":"committee","type":"address[]","indexed":false,"internalType":"address[]"}],"anonymous":false},{"type":"event","name":"EquivocationSlashed","inputs":[{"name":"validator","type":"address","indexed":true,"internalType":"address"},{"name":"epoch","type":"uint64","indexed":false,"internalType":"uint64"},{"name":"reporter","type":"address","indexed":true,"internalType":"address"}],"anonymous":false},{"type":"event","name":"Initialized","inputs":[{"name":"version","type":"uint64","indexed":false,"internalType":"uint64"}],"anonymous":false},{"type":"event","name":"OwnershipTransferStarted","inputs":[{"name":"previousOwner","type":"address","indexed":true,"internalType":"address"},{"name":"newOwner","type":"address","indexed":true,"internalType":"address"}],"anonymous":false},{"type":"event","name":"OwnershipTransferred","inputs":[{"name":"previousOwner","type":"address","indexed":true,"internalType":"address"},{"name":"newOwner","type":"address","indexed":true,"internalType":"address"}],"anonymous":false},{"type":"event","name":"Redelegated","inputs":[{"name":"validator","type":"address","indexed":true,"internalType":"address"},{"name":"staker","type":"address","indexed":true,"internalType":"address"},{"name":"amount","type":"uint256","indexed":false,"internalType":"uint256"},{"name":"dust","type":"uint256","indexed":false,"internalType":"uint256"},{"name":"epoch","type":"uint64","indexed":false,"internalType":"uint64"}],"anonymous":false},{"type":"event","name":"Undelegated","inputs":[{"name":"validator","type":"address","indexed":true,"internalType":"address"},{"name":"staker","type":"address","indexed":true,"internalType":"address"},{"name":"amount","type":"uint256","indexed":false,"internalType":"uint256"},{"name":"epoch","type":"uint64","indexed":false,"internalType":"uint64"}],"anonymous":false},{"type":"event","name":"Upgraded","inputs":[{"name":"implementation","type":"address","indexed":true,"internalType":"address"}],"anonymous":false},{"type":"event","name":"ValidatorAdded","inputs":[{"name":"validator","type":"address","indexed":true,"internalType":"address"},{"name":"owner","type":"address","indexed":true,"internalType":"address"},{"name":"status","type":"uint8","indexed":false,"internalType":"uint8"},{"name":"commissionRate","type":"uint16","indexed":false,"internalType":"uint16"}],"anonymous":false},{"type":"event","name":"ValidatorDeposited","inputs":[{"name":"validator","type":"address","indexed":true,"internalType":"address"},{"name":"amount","type":"uint256","indexed":false,"internalType":"uint256"},{"name":"epoch","type":"uint64","indexed":false,"internalType":"uint64"}],"anonymous":false},{"type":"event","name":"ValidatorJailed","inputs":[{"name":"validator","type":"address","indexed":true,"internalType":"address"},{"name":"epoch","type":"uint64","indexed":false,"internalType":"uint64"}],"anonymous":false},{"type":"event","name":"ValidatorModified","inputs":[{"name":"validator","type":"address","indexed":true,"internalType":"address"},{"name":"owner","type":"address","indexed":true,"internalType":"address"},{"name":"status","type":"uint8","indexed":false,"internalType":"uint8"},{"name":"commissionRate","type":"uint16","indexed":false,"internalType":"uint16"}],"anonymous":false},{"type":"event","name":"ValidatorOwnerClaimed","inputs":[{"name":"validator","type":"address","indexed":true,"internalType":"address"},{"name":"amount","type":"uint256","indexed":false,"internalType":"uint256"},{"name":"epoch","type":"uint64","indexed":false,"internalType":"uint64"}],"anonymous":false},{"type":"event","name":"ValidatorReleased","inputs":[{"name":"validator","type":"address","indexed":true,"internalType":"address"},{"name":"epoch","type":"uint64","indexed":false,"internalType":"uint64"}],"anonymous":false},{"type":"event","name":"ValidatorRemoved","inputs":[{"name":"validator","type":"address","indexed":true,"internalType":"address"}],"anonymous":false},{"type":"event","name":"ValidatorSlashed","inputs":[{"name":"validator","type":"address","indexed":true,"internalType":"address"},{"name":"slashes","type":"uint32","indexed":false,"internalType":"uint32"},{"name":"epoch","type":"uint64","indexed":false,"internalType":"uint64"}],"anonymous":false},{"type":"error","name":"AddressEmptyCode","inputs":[{"name":"target","type":"address","internalType":"address"}]},{"type":"error","name":"AddressInsufficientBalance","inputs":[{"name":"account","type":"address","internalType":"address"}]},{"type":"error","name":"AlreadySlashedForEquivocation","inputs":[{"name":"validator","type":"address","internalType":"address"}]},{"type":"error","name":"AmountTooLow","inputs":[{"name":"amount","type":"uint256","internalType":"uint256"}]},{"type":"error","name":"BadCommissionRate","inputs":[{"name":"commissionRate","type":"uint16","internalType":"uint16"}]},{"type":"error","name":"BadShareDistribution","inputs":[{"name":"shareDistribution","type":"uint16","internalType":"uint16"}]},{"type":"error","name":"BlsVerifierNotConfigured","inputs":[]},{"type":"error","name":"CommitteeLengthMismatch","inputs":[{"name":"expected","type":"uint256","internalType":"uint256"},{"name":"got","type":"uint256","internalType":"uint256"}]},{"type":"error","name":"CommitteeMemberKeyless","inputs":[{"name":"validator","type":"address","internalType":"address"}]},{"type":"error","name":"CommitteeMemberNotInActiveSet","inputs":[{"name":"validator","type":"address","internalType":"address"}]},{"type":"error","name":"CommitteeNotStrictlyAscending","inputs":[{"name":"validator","type":"address","internalType":"address"}]},{"type":"error","name":"ConsensusKeysAlreadySet","inputs":[{"name":"validator","type":"address","internalType":"address"}]},{"type":"error","name":"ConsensusKeysNotSet","inputs":[{"name":"validator","type":"address","internalType":"address"}]},{"type":"error","name":"DelegationQueueEmpty","inputs":[]},{"type":"error","name":"DelegationQueueNotEmpty","inputs":[{"name":"delegationQueue","type":"uint256","internalType":"uint256"}]},{"type":"error","name":"DepositIsZero","inputs":[]},{"type":"error","name":"ERC1967InvalidImplementation","inputs":[{"name":"implementation","type":"address","internalType":"address"}]},{"type":"error","name":"ERC1967NonPayable","inputs":[]},{"type":"error","name":"EpochCommitteeNotCommitted","inputs":[{"name":"epoch","type":"uint64","internalType":"uint64"}]},{"type":"error","name":"EpochIsNotReady","inputs":[{"name":"epoch","type":"uint64","internalType":"uint64"}]},{"type":"error","name":"EpochNotYetCommittable","inputs":[{"name":"target","type":"uint64","internalType":"uint64"},{"name":"currentEpoch","type":"uint64","internalType":"uint64"}]},{"type":"error","name":"EquivocationKeyMismatch","inputs":[]},{"type":"error","name":"EquivocationSignatureInvalid","inputs":[]},{"type":"error","name":"EvidenceDecoderNotConfigured","inputs":[]},{"type":"error","name":"FailedInnerCall","inputs":[]},{"type":"error","name":"InitialStakeTooLow","inputs":[{"name":"initialStake","type":"uint256","internalType":"uint256"}]},{"type":"error","name":"InsufficientBalance","inputs":[]},{"type":"error","name":"InvalidClaimEpoch","inputs":[]},{"type":"error","name":"InvalidConsensusKeyEncoding","inputs":[]},{"type":"error","name":"InvalidEpoch","inputs":[]},{"type":"error","name":"InvalidInitialization","inputs":[]},{"type":"error","name":"InvalidProofOfPossession","inputs":[{"name":"validator","type":"address","internalType":"address"}]},{"type":"error","name":"MalformedInitialBalance","inputs":[]},{"type":"error","name":"MalformedInputLength","inputs":[]},{"type":"error","name":"NotActiveValidator","inputs":[]},{"type":"error","name":"NotEnoughBalance","inputs":[]},{"type":"error","name":"NotEnoughShares","inputs":[{"name":"requiredShares","type":"uint256","internalType":"uint256"}]},{"type":"error","name":"NotInitializing","inputs":[]},{"type":"error","name":"NotPendingValidator","inputs":[{"name":"validator","type":"address","internalType":"address"}]},{"type":"error","name":"NothingToClaim","inputs":[]},{"type":"error","name":"NothingToUnstake","inputs":[]},{"type":"error","name":"OnlyCoinbase","inputs":[]},{"type":"error","name":"OnlyGovernance","inputs":[]},{"type":"error","name":"OnlyLivenessSlashing","inputs":[]},{"type":"error","name":"OnlyStakingContract","inputs":[]},{"type":"error","name":"OnlySystemCall","inputs":[]},{"type":"error","name":"OnlyValidatorOwner","inputs":[{"name":"validator","type":"address","internalType":"address"}]},{"type":"error","name":"OnlyZeroGasPrice","inputs":[]},{"type":"error","name":"OwnableInvalidOwner","inputs":[{"name":"owner","type":"address","internalType":"address"}]},{"type":"error","name":"OwnableUnauthorizedAccount","inputs":[{"name":"account","type":"address","internalType":"address"}]},{"type":"error","name":"OwnerCantBeZero","inputs":[]},{"type":"error","name":"OwnerSelfStakeBelowMinimum","inputs":[]},{"type":"error","name":"PeerPubkeyAlreadyInUse","inputs":[{"name":"peerPubkey","type":"bytes32","internalType":"bytes32"}]},{"type":"error","name":"PendingUndelegate","inputs":[]},{"type":"error","name":"SafeERC20FailedOperation","inputs":[{"name":"token","type":"address","internalType":"address"}]},{"type":"error","name":"SafeTransferFailed","inputs":[]},{"type":"error","name":"SignerIndexOutOfRange","inputs":[{"name":"epoch","type":"uint64","internalType":"uint64"},{"name":"signerIdx","type":"uint32","internalType":"uint32"},{"name":"committeeLen","type":"uint256","internalType":"uint256"}]},{"type":"error","name":"StillInJail","inputs":[{"name":"validator","type":"address","internalType":"address"}]},{"type":"error","name":"UUPSUnauthorizedCallContext","inputs":[]},{"type":"error","name":"UUPSUnsupportedProxiableUUID","inputs":[{"name":"slot","type":"bytes32","internalType":"bytes32"}]},{"type":"error","name":"UnsafeTransferFailed","inputs":[]},{"type":"error","name":"ValidatorAlreadyExists","inputs":[{"name":"validator","type":"address","internalType":"address"}]},{"type":"error","name":"ValidatorHasActiveDelegations","inputs":[{"name":"validator","type":"address","internalType":"address"}]},{"type":"error","name":"ValidatorNotFound","inputs":[{"name":"validator","type":"address","internalType":"address"}]},{"type":"error","name":"ValidatorNotInJail","inputs":[{"name":"validator","type":"address","internalType":"address"}]},{"type":"error","name":"ValidatorOwnerAlreadyInUse","inputs":[{"name":"validator","type":"address","internalType":"address"}]},{"type":"error","name":"WrongAmountPrecision","inputs":[]},{"type":"error","name":"ZeroAmount","inputs":[]},{"type":"error","name":"ZeroCommissionRate","inputs":[]},{"type":"error","name":"ZeroInitialStake","inputs":[]},{"type":"error","name":"ZeroOwner","inputs":[]},{"type":"error","name":"ZeroValidator","inputs":[]}],"bytecode":{"object":"0x610180346102e757601f6156d938819003918201601f19168301916001600160401b038311848410176102eb5780849260e0946040528339810103126102e7578051906001600160a01b03821682036102e75760208101516001600160a01b03811681036102e75760408201516001600160a01b03811681036102e7576060830151906001600160a01b03821682036102e7576080840151926001600160a01b03841684036102e75760a0850151946001600160a01b03861686036102e75760c00151956001600160a01b03871687036102e7573060805260a05260c05260e0526101005261012052610140525f5160206156b95f395f51905f525460ff8160401c166102d8576002600160401b03196001600160401b03821601610282575b50610160526040516153b99081610300823960805181818161185801526139cf015260a05181611d8d015260c051818181611d49015281816126eb015261331a015260e05181610ff00152610100518181816109c201528181610c1901528181610ca601528181611348015261277f01526101205181818161081801528181610b7301528181610e8301528181610f33015281816115c1015281816117cf015281816118d30152818161198501528181611ee30152818161211801528181612273015281816123bc0152818161262f01528181612692015281816128b30152818161291401528181612a2801528181612f1a01528181613019015281816131f3015281816132c10152614a1c01526101405181818161084901528181610e620152818161110201528181612252015281816122b0015281816126c301528181612f8d01528181613224015281816132f201526137840152610160518161296d0152f35b6001600160401b0319166001600160401b039081175f5160206156b95f395f51905f52556040519081527fc7f505b2f371ae2175ee4913f4499e1f2633a7b5936321eed1cdaeb6115181d290602090a15f61011f565b63f92ee8a960e01b5f5260045ffd5b5f80fd5b634e487b7160e01b5f52604160045260245ffdfe60806040526004361015610011575f80fd5b5f3560e01c806252c9e11461041357806301f6bb501461040e578063026e402b1461040957806314f8649f146104045780631fe97684146103ff578063225cba85146103fa578063289b3c0d146103f557806330108c22146103f057806340a141ff146103eb578063426594b1146103e657806342ad55ac146103e1578063457179fd146103dc57806345946334146103d757806347e7ef24146103d257806348124d26146103cd5780634d238c8e146103c85780634d99dd16146103c35780634e5e2c04146103be5780634f1ef286146103b957806352b7bea2146103b457806352d1902d146103af5780635ef9e8c6146103aa578063606c0c94146103a55780636ece9cb1146103a0578063715018a61461039b57806373a3dda614610396578063766718081461039157806379ba50971461038c5780637a37cc59146103875780637b1391a6146103825780637cfba9f31461037d57806380b562de1461037857806387401d8a146103735780638bd070e41461036e5780638da5cb5b146103695780638ecb3fc9146103645780639f9106d11461035f578063a10827e91461035a578063a310624f14610355578063a8f4bbb614610350578063ad36f42f1461034b578063ad3cb1cc14610346578063add07a3e14610341578063adf2a79c1461033c578063aea0e78b14610337578063b46e552014610332578063b7ab4db51461032d578063c06a82de14610328578063c2fd58fc14610323578063c6fb90651461031e578063c96be4cb14610319578063c9adaf5c14610314578063d41c52eb1461030f578063d7f1733d1461030a578063d951e18614610305578063d96cbd7b14610300578063dd0fb5df146102fb578063e28d2f63146102f6578063e30c3978146102f1578063e3e6cedc146102ec578063f2fde38b146102e7578063facd743b146102e2578063fe38ebef146102dd5763ff4794fc146102d8575f80fd5b613278565b6131b8565b613145565b6130bd565b613075565b613041565b612fd0565b612eda565b612e1c565b612dea565b612d1c565b612c60565b612c04565b61294e565b6128db565b61288b565b612859565b612827565b61275c565b61273f565b612657565b6125e6565b61259f565b612517565b6124d4565b6123fb565b612373565b61229b565b6121fe565b6121ca565b612181565b612052565b611fbb565b611ec1565b611d78565b611d34565b611ce8565b611cbd565b611b59565b611aea565b6119b4565b611970565b6118ac565b611846565b6117a7565b61172d565b611615565b611575565b611325565b6111ab565b61101f565b610fdb565b610efa565b610ec9565b610e0e565b610c83565b610c48565b610c04565b610ae8565b61099f565b6108af565b6107cc565b61062c565b610455565b6001600160a01b0381160361042957565b5f80fd5b60409060031901126104295760043561044581610418565b9060243561045281610418565b90565b346104295761053e5f5160206152a45f395f51905f526104743661042d565b6105b661059a61058c61049061048b869796613360565b613430565b6105698761056460408401976104bb838a516104ab8161341a565b6104b48161341a565b15156134af565b610553610543602087019d8e6104eb6104da825160018060a01b031690565b6001600160a01b03811633146134d7565b6104ff6001600160a01b03861615156134ff565b6105318761052b61051f61051289613385565b546001600160a01b031690565b6001600160a01b031690565b15613515565b516001600160a01b031690565b613385565b80546001600160a01b0319169055565b6001600160a01b0381168c52613385565b61355b565b6105318161058761058161057b614227565b8361425b565b99613360565b61357a565b95516001600160a01b031690565b9151936105a68561341a565b6105af8561341a565b5460f01c90565b6040516001600160a01b03928316959092169382916105d59183613678565b0390a3005b9181601f84011215610429578235916001600160401b038311610429576020808501948460051b01011161042957565b6064359061ffff8216820361042957565b6024359061ffff8216820361042957565b346104295760803660031901126104295760043561064981610418565b6024356001600160401b038111610429576106689036906004016105da565b6044929192356001600160401b0381116104295761068a9036906004016105da565b9061069361060a565b925f5160206153445f395f51905f5254956001600160401b036106d16106c46106c08a60ff9060401c1690565b1590565b986001600160401b031690565b16801590816107c4575b60011490816107ba575b1590816107b1575b506107a257610730958761072760016001600160401b03195f5160206153445f395f51905f525416175f5160206153445f395f51905f5255565b61077e5761370d565b61073657005b5f5160206153445f395f51905f52805460ff60401b19169055604051600181527fc7f505b2f371ae2175ee4913f4499e1f2633a7b5936321eed1cdaeb6115181d290602090a1005b5f5160206153445f395f51905f52805460ff60401b1916600160401b17905561370d565b63f92ee8a960e01b5f5260045ffd5b9050155f6106ed565b303b1591506106e5565b8891506106db565b34610429576040366003190112610429576004356107e981610418565b73__$1cd3066fe913aa9d2ac4c48f01e58e18c5$__90602435823b1561042957604051634498f72b60e11b81527f00000000000000000000000000000000000000000000000000000000000000006001600160a01b0390811660048301527f00000000000000000000000000000000000000000000000000000000000000008116602483015290921660448301526064820152905f90829060849082905af480156108aa5761089457005b806108a25f6108a8936116d1565b80610bfa565b005b61381c565b34610429576040366003190112610429576004356108cc81610418565b6108d461061b565b6108e781610bb861ffff82161115613827565b5f5160206152a45f395f51905f5261090161048b84613360565b9161096861095a604085019461091c8787516104ab8161341a565b61053181610587602082019961093b6104da8c5160018060a01b031690565b6109558861095061094a614227565b8661425b565b613846565b613360565b94516001600160a01b031690565b9251926109748461341a565b61097d8461341a565b6040516001600160a01b039182169590911693909182916105d5919083613678565b34610429576020366003190112610429576004356109bc81610418565b6109f0337f00000000000000000000000000000000000000000000000000000000000000006001600160a01b031614613869565b6001600160a01b0381165f8181525f5160206152c45f395f51905f52602052604090205f5160206152a45f395f51905f5290610a2b90613430565b610aa0610a8b60206040840193610a5760018651610a488161341a565b610a518161341a565b14614877565b610a6088614d7c565b600285525b610a7d81610587610a7761057b614227565b9a613360565b01516001600160a01b031690565b915194610a978661341a565b6105af8661341a565b6040516001600160a01b039092169482916105d59183613678565b9181601f84011215610429578235916001600160401b038311610429576020838186019501011161042957565b3461042957608036600319011261042957600435610b0581610418565b6024356001600160401b03811161042957610b24903690600401610abb565b906044356001600160401b03811161042957610b44903690600401610abb565b93909273__$c0ca080a98cf238f72f7f61cbbb953094a$__91823b156104295760405163dcf44cad60e01b81527f00000000000000000000000000000000000000000000000000000000000000006001600160a01b039081166004830152909116602482015260a06044820152945f94869485938493610be293929091610bd09160a48701919061387f565b8481036003190160648601529161387f565b606435608483015203915af480156108aa5761089457005b5f91031261042957565b34610429575f366003190112610429576040517f00000000000000000000000000000000000000000000000000000000000000006001600160a01b03168152602090f35b34610429576020366003190112610429576020600435610c6781610418565b6001600160a01b0390610c7990613385565b5416604051908152f35b3461042957602036600319011261042957600435610ca081610418565b610cd4337f00000000000000000000000000000000000000000000000000000000000000006001600160a01b031614613869565b610de8610dd760018060a01b03831692835f525f5160206152c45f395f51905f5260205261095561054361053e60405f20610dce85610dc8604051610d188161167b565b60018060a01b038554168152610dba836001870154610db0610da06002602087019a60018060a01b0385168c52610d7f610d6f60408a0196610d6060ff8260a01c1689613424565b60a81c6001600160401b031690565b6001600160401b031660608a0152565b01546001600160401b03811660808801525b60401c6001600160401b031690565b6001600160401b031660a0860152565b516104ab8161341a565b610dc2614a0d565b90614f08565b1561488d565b61053185614d7c565b60025f918281558260018201550155565b7fe1434e25d6611e0db941968fdc97811c982ac1602e951637d206f5fdda9dd8f15f80a2005b34610429575f602036600319011261042957600435610e2c81610418565b73__$1cd3066fe913aa9d2ac4c48f01e58e18c5$__803b1561042957610eab915f9160405180809581946311e4ddaf60e31b83527f00000000000000000000000000000000000000000000000000000000000000007f00000000000000000000000000000000000000000000000000000000000000006004850161389f565b03915af480156108aa57610ebd575080f35b6108a891505f906116d1565b34610429576020366003190112610429576020610ef0600435610eeb81610418565b6138d6565b6040519015158152f35b3461042957602036600319011261042957610f6d6020600435610f1c81610418565b60405163e61e2bff60e01b81526001600160a01b037f000000000000000000000000000000000000000000000000000000000000000081166004830152909116602482015291829081906044820190565b038173__$1cd3066fe913aa9d2ac4c48f01e58e18c5$__5af480156108aa57610fa8915f91610fac575b506040519081529081906020820190565b0390f35b610fce915060203d602011610fd4575b610fc681836116d1565b81019061395e565b5f610f97565b503d610fbc565b34610429575f366003190112610429576040517f00000000000000000000000000000000000000000000000000000000000000006001600160a01b03168152602090f35b346104295760403660031901126104295760043561103c81610418565b60243590413303611166573a611157578115611148577f9fce3fb7dc05df2879421f9d9c06784dad3d39aba44c0c1ee0b9d094e76550059060018060a01b03811692835f525f5160206152c45f395f51905f526020526110b06110a160405f20613430565b9260408401516104ab8161341a565b6110fa6110c56110be614a0d565b809461425b565b80546110dd906001600160601b0385811691166148c0565b81546001600160601b0319166001600160601b0391909116179055565b6111268130337f00000000000000000000000000000000000000000000000000000000000000006147be565b604080519182526001600160401b03909216602082015290819081015b0390a2005b63b288589b60e01b5f5260045ffd5b6383f1b1d360e01b5f5260045ffd5b63022d8c9560e31b5f5260045ffd5b6001600160401b0381160361042957565b60409060031901126104295760043561119e81610418565b9060243561045281611175565b34610429576111b936611186565b9060018060a01b03165f525f5160206152c45f395f51905f526020526111eb6111e460405f20613430565b91826148fd565b6020820151909190610fa8906001600160a01b0316916040810151936112108561341a565b6112198561341a565b60208101516112419061123c906001600160701b03165b6001600160701b031690565b61396d565b91611253604083015163ffffffff1690565b9061126860608201516001600160401b031690565b61129060a061128160808501516001600160401b031690565b9301516001600160401b031690565b926112b16112a3606087015161ffff1690565b95516001600160601b031690565b604080516001600160a01b03909a168a5260ff909a1660208a01529888019590955263ffffffff9490941660608701526001600160401b039384166080870152831660a086015290911660c084015261ffff1660e08301526001600160601b03909216610100820152908190610120820190565b346104295760203660031901126104295760043561134281610418565b611376337f00000000000000000000000000000000000000000000000000000000000000006001600160a01b031614613869565b611524611389611384614a0d565b613ade565b6001600160a01b03831692906113a98415156113a481614337565b61434d565b6113b45f5b15614211565b6001600160401b0381168061154d575b506113d05f6001613827565b6114356113df61048b84613360565b61141d6001604083016114068782516113f78161341a565b6114008161341a565b15614379565b6001600160a01b0387168085526020850152613424565b6001600160401b038316606082015261058784613360565b6114488261052b61051f61051283613385565b6114558261056481613385565b61145f600161341a565b61146882613cc8565b61151f6114e86114775f611230565b936114ca6114836116f2565b5f81526001600160701b03871660208201525f6040820181905260608201526114c5866114af856133bd565b906001600160401b03165f5260205260405f2090565b6143bf565b6114d3816133e2565b9060018060a01b03165f5260205260405f2090565b916114f58354801561442b565b61150f611500611703565b6001600160701b039095168552565b6001600160401b03166020840152565b614445565b61152e600161341a565b805f5160206151e45f395f51905f52604051806105d55f600183613678565b61156f9061156861155c614227565b6001600160401b031690565b1015614363565b5f6113c4565b346104295760403660031901126104295760043561159281610418565b73__$1cd3066fe913aa9d2ac4c48f01e58e18c5$__90602435823b15610429576040516304e6b02160e51b81527f00000000000000000000000000000000000000000000000000000000000000006001600160a01b03908116600483015290921660248301526044820152905f90829060649082905af480156108aa5761089457005b34610429576020366003190112610429576001600160401b0360043561163a81611175565b165f525f5160206152245f395f51905f52602052602061165d60405f205461398b565b1515604051908152f35b634e487b7160e01b5f52604160045260245ffd5b60c081019081106001600160401b0382111761169657604052565b611667565b606081019081106001600160401b0382111761169657604052565b608081019081106001600160401b0382111761169657604052565b90601f801991011681019081106001600160401b0382111761169657604052565b604051906117016080836116d1565b565b604051906117016040836116d1565b6001600160401b03811161169657601f01601f191660200190565b60403660031901126104295760043561174581610418565b602435906001600160401b03821161042957366023830112156104295781600401359061177182611712565b9161177f60405193846116d1565b8083523660248286010111610429576020815f9260246108a8970183870137840101526139c3565b34610429576117f760206117ba3661042d565b604051635c345cf760e01b81529384928392907f00000000000000000000000000000000000000000000000000000000000000006004850161389f565b038173__$1cd3066fe913aa9d2ac4c48f01e58e18c5$__5af480156108aa576020915f91611829575b50604051908152f35b6118409150823d8411610fd457610fc681836116d1565b5f611820565b34610429575f366003190112610429577f00000000000000000000000000000000000000000000000000000000000000006001600160a01b0316300361189d5760206040515f5160206152e45f395f51905f528152f35b63703e46dd60e11b5f5260045ffd5b34610429576118fb60406118bf3661042d565b8251635f0243e360e11b81529384928392907f00000000000000000000000000000000000000000000000000000000000000006004850161389f565b038173__$1cd3066fe913aa9d2ac4c48f01e58e18c5$__5af49081156108aa575f905f92611936575b50604080519182526020820192909252f35b9150506040813d604011611968575b81611952604093836116d1565b810103126104295760208151910151905f611924565b3d9150611945565b34610429575f366003190112610429576040517f00000000000000000000000000000000000000000000000000000000000000006001600160a01b03168152602090f35b34610429576020366003190112610429576004356001600160401b038111610429576119e4903690600401610abb565b6119f6336002600160a01b0314613ac8565b6119fe614a0d565b916001600160401b035f5160206152645f395f51905f525416926001600160401b03611a2982613ade565b168411611aca575081611a787fb869aea82a9f266a8943b699a5c9bf08edaa33fe1e2e827f958d75a5ed357e3e9361114393865f525f5160206152245f395f51905f5260205260405f20613b6b565b611ab8611a8485613ade565b6001600160401b03166001600160401b03195f5160206152645f395f51905f525416175f5160206152645f395f51905f5255565b60405190151581529081906020820190565b6001600160401b039084631e559a0560e11b5f526004521660245260445ffd5b34610429575f36600319011261042957611b02614b07565b611b0a61353d565b5f5160206152845f395f51905f5280546001600160a01b031981169091555f906001600160a01b03167f8be0079c531659141344cd1fd0a4f28419497f9722a3daafe3b4186f6b6457e08280a3005b3461042957602036600319011261042957600435611b7681610418565b6001600160a01b0381165f9081527f96610efdc8a37de390ea3757bf0331faa3a74708adc53f30ba708302b0f55800602052604090205460ff16611ca257611c47611bc361048b83613360565b611c3e60408201611bea8560038351611bdb8161341a565b611be48161341a565b14613c33565b6020830151611c04906001600160a01b03163381146134d7565b611c3885611c10614a0d565b6001600160401b03611c2f61155c60808901516001600160401b031690565b91161015613c5b565b60019052565b61058783613360565b611c5081613cc8565b7f7bd9ec00705b7640a93da0fcf84dc0bfce1b2c9a5146d548ab1dabd23322c9ac611143611c7c614a0d565b6040516001600160401b0390911681526001600160a01b03909316929081906020820190565b638300031d60e01b5f526001600160a01b031660045260245ffd5b34610429575f366003190112610429576020611cd7614a0d565b6001600160401b0360405191168152f35b34610429575f366003190112610429575f5160206153645f395f51905f5254336001600160a01b0390911603611d21576108a833614b27565b63118cdaa760e01b5f523360045260245ffd5b34610429575f366003190112610429576040517f00000000000000000000000000000000000000000000000000000000000000006001600160a01b03168152602090f35b34610429575f366003190112610429576040517f00000000000000000000000000000000000000000000000000000000000000006001600160a01b03168152602090f35b90602080835192838152019201905f5b818110611dd95750505090565b82516001600160a01b0316845260209384019390920191600101611dcc565b805180835260209291819084018484015e5f828201840152601f01601f1916010190565b9060406001600160401b0381611e3b8551606086526060860190611df8565b946020810151602086015201511691015290565b90611e6290604083526040830190611dbc565b906020818303910152815180825260208201916020808360051b8301019401925f915b838310611e9457505050505090565b9091929394602080611eb2600193601f198682030187528951611e1c565b97019301930191939290611e85565b3461042957602036600319011261042957611f07600435611ee181611175565b7f0000000000000000000000000000000000000000000000000000000000000000614b83565b611f118151613d96565b905f5b8151811015611f9a576001906001600160a01b03611f3282856138c2565b51165f525f5160206152045f395f51905f5260205260405f206001600160401b03600260405192611f628461169b565b611f6b81613de5565b84528581015460208501520154166040820152611f8882866138c2565b52611f9381856138c2565b5001611f14565b50610fa860405192839283611e4f565b906020610452928181520190611dbc565b34610429576020366003190112610429576001600160401b03600435611fe081611175565b165f525f5160206152445f395f51905f5260205260405f206040519081602082549182815201915f5260205f20905f5b81811061203357610fa885612027818703826116d1565b60405191829182611faa565b82546001600160a01b0316845260209093019260019283019201612010565b34610429576020366003190112610429576004356001600160401b038111610429576120829036906004016105da565b612094336002600160a01b0314613ac8565b61209c614a0d565b916120bb5f5160206153045f395f51905f52546001600160401b031690565b906120c861155c85613ade565b6001600160401b03831690811161215f57612150575f925b73__$c0ca080a98cf238f72f7f61cbbb953094a$__91823b15610429576121405f9560405197889687958695631792dc1560e31b87527f000000000000000000000000000000000000000000000000000000000000000060048801613ed9565b03915af480156108aa5761089457005b61215982613ebb565b926120e0565b631e559a0560e11b5f526001600160401b03808416600452851660245260445ffd5b34610429575f366003190112610429575f5160206153045f395f51905f52546001600160401b0316806121ba57506040515f8152602090f35b6121c5602091613ebb565b611cd7565b34610429575f366003190112610429575f5160206152845f395f51905f52546040516001600160a01b039091168152602090f35b34610429575f60203660031901126104295760043561221c81610418565b73__$1cd3066fe913aa9d2ac4c48f01e58e18c5$__803b1561042957610eab915f916040518080958194637284855160e11b83527f00000000000000000000000000000000000000000000000000000000000000007f00000000000000000000000000000000000000000000000000000000000000006004850161389f565b34610429575f366003190112610429576040517f00000000000000000000000000000000000000000000000000000000000000006001600160a01b03168152602090f35b6080600319820112610429576004356001600160401b038111610429578161230991600401610abb565b929092916024356001600160401b038111610429578161232b91600401610abb565b929092916044356001600160401b038111610429578161234d91600401610abb565b92909291606435906001600160401b0382116104295761236f91600401610abb565b9091565b3461042957612381366122df565b91969394929673__$c0ca080a98cf238f72f7f61cbbb953094a$__97883b15610429575f966123e495604051998a98630817c25760e11b8a527f000000000000000000000000000000000000000000000000000000000000000060048b01613f63565b938180849603915af480156108aa57610ebd575080f35b346104295760203660031901126104295761241e61048b60043561095581610418565b8051612432906001600160a01b03166133bd565b90610fa861246c612467606084019461245286516001600160401b031690565b6001600160401b03165f5260205260405f2090565b613fbe565b60208301519092906001600160a01b03169260408201519461248d8661341a565b6124968661341a565b60208201516124b19061123c906001600160701b0316611230565b926112686124c6604085015163ffffffff1690565b92516001600160401b031690565b34610429575f3660031901126104295760206001600160401b035f5160206152645f395f51905f525416604051908152f35b906020610452928181520190611e1c565b346104295760203660031901126104295760043561253481610418565b61253c613d77565b5060018060a01b03165f525f5160206152045f395f51905f52602052610fa860405f206001600160401b036002604051926125768461169b565b61257f81613de5565b845260018101546020850152015416604082015260405191829182612506565b34610429575f36600319011261042957610fa86040516125c06040826116d1565b60058152640352e302e360dc1b6020820152604051918291602083526020830190611df8565b34610429576125f4366122df565b91969394929673__$c0ca080a98cf238f72f7f61cbbb953094a$__97883b15610429575f966123e495604051998a98633bd68e1f60e21b8a527f000000000000000000000000000000000000000000000000000000000000000060048b01613f63565b346104295761266536611186565b9073__$1cd3066fe913aa9d2ac4c48f01e58e18c5$__91823b156104295760405163c5d0132d60e01b81527f00000000000000000000000000000000000000000000000000000000000000006001600160a01b0390811660048301527f0000000000000000000000000000000000000000000000000000000000000000811660248301527f00000000000000000000000000000000000000000000000000000000000000008116604483015290921660648301526001600160401b03166084820152905f90829060a49082905af480156108aa5761089457005b34610429575f366003190112610429576020611cd7611384614a0d565b346104295760203660031901126104295760043561277981610418565b6127ad337f00000000000000000000000000000000000000000000000000000000000000006001600160a01b031614613869565b6001600160a01b0381165f8181525f5160206152c45f395f51905f52602052604090205f5160206152a45f395f51905f52906127e890613430565b610aa0610a8b6020604084019361281588600287516128068161341a565b61280f8161341a565b14614cf9565b61281e88613cc8565b60018552610a65565b34610429575f36600319011261042957610fa8612845611ee1614a0d565b604051918291602083526020830190611dbc565b34610429575f3660031901126104295760206001600160401b035f5160206153045f395f51905f525416604051908152f35b34610429576117f7602061289e3661042d565b60405163ca55139b60e01b81529384928392907f00000000000000000000000000000000000000000000000000000000000000006004850161389f565b3461042957602036600319011261042957610f6d60206004356128fd81610418565b604051632c9737fb60e21b81526001600160a01b037f000000000000000000000000000000000000000000000000000000000000000081166004830152909116602482015291829081906044820190565b346104295760203660031901126104295760043561296b81610418565b7f00000000000000000000000000000000000000000000000000000000000000006001600160a01b03163303612bf5576129a761048b82613360565b60408101916129bb8184516104ab8161341a565b6129c3614a0d565b906129ce828461425b565b93612a0c6129ec6129e7875463ffffffff9060d01c1690565b614d21565b865463ffffffff60d01b191660d082901b63ffffffff60d01b1617909655565b612a198461058784613360565b6040516317c332e760e31b81527f00000000000000000000000000000000000000000000000000000000000000006001600160a01b03169490602081600481895afa80156108aa5763ffffffff915f91612bd6575b501663ffffffff87161015612ad5575b50506040805163ffffffff90951685526001600160401b0390921660208501526001600160a01b0316927ff30f0392d5346908bf200bc0924d0c9860e22d46fc606e979a2e14fff24c62b992509081908101611143565b6004946020612ae2614a0d565b9160405197888092630d97cd9b60e31b82525afa9283156108aa57612b51612b41612b579363ffffffff612b60977ff30f0392d5346908bf200bc0924d0c9860e22d46fc606e979a2e14fff24c62b99b5f91612ba7575b501690613afc565b6001600160401b03166080850152565b60039052565b611c3e83614d7c565b6040516001600160401b03831681526001600160a01b038216907f6acc1079130362b805ce4a8874346d4ee8893d55f223e378ddc73031ce427eab90602090a25f80612a7e565b612bc9915060203d602011612bcf575b612bc181836116d1565b8101906149f8565b5f612b39565b503d612bb7565b612bef915060203d602011612bcf57612bc181836116d1565b5f612a6e565b635e2569d960e11b5f5260045ffd5b34610429576020366003190112610429576001600160401b03600435612c2981611175565b165f525f5160206152245f395f51905f52602052610fa8612c4c60405f20613de5565b604051918291602083526020830190611df8565b34610429575f36600319011261042957612c7b611ee1614a0d565b612c858151613d96565b905f5b8151811015611f9a576001906001600160a01b03612ca682856138c2565b51165f525f5160206152045f395f51905f5260205260405f206001600160401b03600260405192612cd68461169b565b612cdf81613de5565b84528581015460208501520154166040820152612cfc82866138c2565b52612d0781856138c2565b5001612c88565b63ffffffff81160361042957565b3461042957604036600319011261042957600435612d3981611175565b6001600160401b0360243591612d4e83612d0e565b16805f525f5160206152445f395f51905f5260205260405f20908154908115612dd85763ffffffff84169082821015612dc057610fa8612da6612d918787613cb3565b905460039190911b1c6001600160a01b031690565b6040516001600160a01b0390911681529081906020820190565b632fdbfd3160e21b5f5260045260245260445260645ffd5b6316b38b6f60e01b5f5260045260245ffd5b3461042957612e01612dfb3661042d565b906140b6565b604080519283526001600160401b0391909116602083015290f35b34610429575f366003190112610429575f5160206151c45f395f51905f5254612e44816141c5565b612e4d82613d96565b915f5b818110612e68575050610fa860405192839283611e4f565b80612e74600192613c83565b838060a01b0391549060031b1c16612e8c82866138c2565b52818060a01b03612e9d82866138c2565b51165f525f5160206152045f395f51905f52602052612ebe60405f20613e83565b612ec882876138c2565b52612ed381866138c2565b5001612e50565b3461042957606036600319011261042957600435612ef781610418565b612eff61061b565b90604435604051636f85684760e01b815290916020826004817f00000000000000000000000000000000000000000000000000000000000000006001600160a01b03165afa9182156108aa576108a894612f6985612f899581945f91612fb1575b508110156141f7565b612f796402540be40083066113ae565b612f81614227565b9233906144b7565b30337f00000000000000000000000000000000000000000000000000000000000000006147be565b612fca915060203d602011610fd457610fc681836116d1565b5f612f60565b3461042957612fde366122df565b91969394929673__$c0ca080a98cf238f72f7f61cbbb953094a$__97883b15610429575f966123e495604051998a9863a757204960e01b8a527f000000000000000000000000000000000000000000000000000000000000000060048b01613f63565b34610429575f366003190112610429575f5160206153645f395f51905f52546040516001600160a01b039091168152602090f35b34610429576020366003190112610429576001600160401b0360043561309a81611175565b165f525f5160206152445f395f51905f52602052602060405f2054604051908152f35b34610429576020366003190112610429576004356130da81610418565b6130e2614b07565b5f5160206153645f395f51905f5280546001600160a01b0319166001600160a01b039283169081179091555f5160206152845f395f51905f52549091167f38d16b8cac22d99fc7c124b9cd0de2d3fa1faef420bfe791d8c362d765e227005f80a3005b346104295760203660031901126104295760043561316281610418565b6001600160a01b03165f9081525f5160206152c45f395f51905f52602052604090206001015460a01c60ff1660048110156131a4576040519015158152602090f35b634e487b7160e01b5f52602160045260245ffd5b34610429576131c636611186565b9073__$1cd3066fe913aa9d2ac4c48f01e58e18c5$__91823b15610429576040516304c5372960e01b81527f00000000000000000000000000000000000000000000000000000000000000006001600160a01b0390811660048301527f00000000000000000000000000000000000000000000000000000000000000008116602483015290921660448301526001600160401b03166064820152905f90829060849082905af480156108aa5761089457005b346104295760203660031901126104295760043561329581610418565b73__$1cd3066fe913aa9d2ac4c48f01e58e18c5$__90813b1561042957604051635154d80160e11b81527f00000000000000000000000000000000000000000000000000000000000000006001600160a01b0390811660048301527f0000000000000000000000000000000000000000000000000000000000000000811660248301527f0000000000000000000000000000000000000000000000000000000000000000811660448301529091166064820152905f90829060849082905af480156108aa5761089457005b6001600160a01b03165f9081525f5160206152c45f395f51905f526020526040902090565b6001600160a01b03165f9081527f4102a9ba7244b40639ebe412c7bfc792b19c048efdf631bf4f130fef80c0df016020526040902090565b6001600160a01b03165f9081525f5160206153245f395f51905f526020526040902090565b6001600160a01b03165f9081527f4102a9ba7244b40639ebe412c7bfc792b19c048efdf631bf4f130fef80c0df036020526040902090565b600411156131a457565b60048210156131a45752565b906117016040516134408161167b565b60a06134a160028396600180851b0381541685526001600160401b03806001830154600180881b038116602089015261348160ff82891c1660408a01613424565b60a81c1616606086015201546001600160401b0381166080850152610d91565b6001600160401b0316910152565b156134b75750565b635a4887e160e01b5f9081526001600160a01b0391909116600452602490fd5b156134df5750565b6359de29ed60e01b5f9081526001600160a01b0391909116600452602490fd5b1561350657565b6352afe97760e11b5f5260045ffd5b1561351d5750565b63b5202b6360e01b5f9081526001600160a01b0391909116600452602490fd5b5f5160206153645f395f51905f5280546001600160a01b0319169055565b80546001600160a01b0319166001600160a01b03909216919091179055565b8151909190613592906001600160a01b03168361355b565b60208101516001830192906135b0906001600160a01b03168461355b565b604082015160048110156131a45760048110156131a4578354606084015167ffffffffffffffff60a81b60a89190911b1668ffffffffffffffffff60a01b1990911660ff60a01b60a093841b16171790935561170192613650916002019261364261362560808301516001600160401b031690565b855467ffffffffffffffff19166001600160401b03909116178555565b01516001600160401b031690565b815467ffffffffffffffff60401b191660409190911b67ffffffffffffffff60401b16179055565b60ff909116815261ffff909116602082015260400190565b1561369757565b63612acc3960e11b5f5260045ffd5b634e487b7160e01b5f52603260045260245ffd5b91908110156136ca5760051b0190565b6136a6565b3561045281610418565b634e487b7160e01b5f52601160045260245ffd5b90600182018092116136fb57565b6136d9565b919082018092116136fb57565b93929193613719614d39565b613721614d39565b613729614d39565b6001600160a01b038116156138095761374790959493929195614b27565b61374f614d39565b613757614d39565b613762838314613690565b5f945f945b8486106137a8575050505050508061377c5750565b6117019030337f00000000000000000000000000000000000000000000000000000000000000006147be565b9091929394956137fd6001916137eb6137ca6137c58b8b896136ba565b6136cf565b856137d96137c58d8d8b6136ba565b6137e48d8c8c6136ba565b359261464a565b6137f68988886136ba565b3590613700565b96019493929190613767565b631e4fbdf760e01b5f525f60045260245ffd5b6040513d5f823e3d90fd5b1561382f5750565b61ffff906368ec6e2560e11b5f521660045260245ffd5b80546001600160f01b031660f09290921b6001600160f01b031916919091179055565b1561387057565b6354348f0360e01b5f5260045ffd5b908060209392818452848401375f828201840152601f01601f1916010190565b6001600160a01b0391821681529181166020830152909116604082015260600190565b80518210156136ca5760209160051b010190565b6001600160a01b03165f8181525f5160206152c45f395f51905f526020526040902060019081015460a01c60ff1661390d8161341a565b036139595761391a6148b5565b905f5b825181101561395257816001600160a01b0361393c61053184876138c2565b161461394a5760010161391d565b505050600190565b5050505f90565b505f90565b90816020910312610429575190565b906402540be4008202918083046402540be40014901517156136fb57565b90600182811c921680156139b9575b60208310146139a557565b634e487b7160e01b5f52602260045260245ffd5b91607f169161399a565b90916001600160a01b037f000000000000000000000000000000000000000000000000000000000000000016308114908115613aa6575b5061189d57613a07614b07565b6040516352d1902d60e01b8152926020846004816001600160a01b0387165afa5f9481613a85575b50613a5057634c9c8ce360e01b5f526001600160a01b03831660045260245ffd5b90915f5160206152e45f395f51905f528403613a7157611701929350614e66565b632a87526960e21b5f52600484905260245ffd5b613a9f91955060203d602011610fd457610fc681836116d1565b935f613a2f565b5f5160206152e45f395f51905f52546001600160a01b0316141590505f6139fa565b15613acf57565b633d45932f60e11b5f5260045ffd5b6001600160401b036001911601906001600160401b0382116136fb57565b906001600160401b03809116911601906001600160401b0382116136fb57565b601f8211613b2957505050565b5f5260205f20906020601f840160051c83019310613b61575b601f0160051c01905b818110613b56575050565b5f8155600101613b4b565b9091508190613b42565b9092916001600160401b03811161169657613b9081613b8a845461398b565b84613b1c565b5f601f8211600114613bce578190613bbf9394955f92613bc3575b50508160011b915f199060031b1c19161790565b9055565b013590505f80613bab565b601f19821694613be1845f5260205f2090565b915f5b878110613c1b575083600195969710613c02575b505050811b019055565b01355f19600384901b60f8161c191690555f8080613bf8565b90926020600181928686013581550194019101613be4565b15613c3b5750565b631bceedfb60e11b5f9081526001600160a01b0391909116600452602490fd5b15613c635750565b633a4541ef60e01b5f9081526001600160a01b0391909116600452602490fd5b5f5160206151c45f395f51905f52548110156136ca575f5160206151c45f395f51905f525f5260205f2001905f90565b80548210156136ca575f5260205f2001905f90565b5f5160206151c45f395f51905f525490600160401b82101561169657600182015f5160206151c45f395f51905f52555f5160206151c45f395f51905f52548210156136ca575f5160206151c45f395f51905f525f527f024be1d688fec05d4c3e9aeb5eac4f8c1e7d5bd030a2d0a8bafafba39f7f7ac990910180546001600160a01b0319166001600160a01b03909216919091179055565b6001600160401b0381116116965760051b60200190565b60405190613d848261169b565b5f604083606081528260208201520152565b90613da082613d60565b613dad60405191826116d1565b8281528092613dbe601f1991613d60565b01905f5b828110613dce57505050565b602090613dd9613d77565b82828501015201613dc2565b9060405191825f825492613df88461398b565b8084529360018116908115613e615750600114613e1d575b50611701925003836116d1565b90505f9291925260205f20905f915b818310613e45575050906020611701928201015f613e10565b6020919350806001915483858901015201910190918492613e2c565b90506020925061170194915060ff191682840152151560051b8201015f613e10565b90604051613e908161169b565b60406001600160401b0360028395613ea781613de5565b855260018101546020860152015416910152565b6001600160401b035f19911601906001600160401b0382116136fb57565b6001600160a01b03909116815260a0602082018190528101839052929594939160c0840191905f5b818110613f3957505050916001600160401b036080928161170196959816604084015216606082015201906001600160401b03169052565b9091926020806001928635613f4d81610418565b848060a01b031681520194019101919091613f01565b9795939094613f94613fa2936104529b9995613fb09860018060a01b03168c5260a060208d015260a08c019161387f565b9189830360408b015261387f565b91868303606088015261387f565b92608081850391015261387f565b90604051613fcb816116b6565b91546001600160601b0381168352606081811c6001600160701b0316602085015260d082901c63ffffffff16604085015260f09190911c90830152565b90604051604081018181106001600160401b038211176116965760405291546001600160701b038116835260701c6001600160401b03166020830152565b90815461405281613d60565b9261406060405194856116d1565b81845260208401905f5260205f205f915b83831061407e5750505050565b60016020819261408d85614008565b815201920192019190614071565b5f198101919082116136fb57565b919082039182116136fb57565b906114d36140c3926133e2565b604051906140d0826116b6565b80546140db81613d60565b906140e960405192836116d1565b80825260208201835f5260205f205f915b8383106141a8575050505060036141679261415792855261413861412860018301546001600160401b031690565b6001600160401b03166020870152565b61414460028201614046565b604086015201546001600160401b031690565b6001600160401b03166060830152565b5180519081156141a05761417d6141839261409b565b906138c2565b5190610452602061128161123c611230865160018060701b031690565b50505f905f90565b6001602081926141b785614008565b8152019201920191906140fa565b906141cf82613d60565b6141dc60405191826116d1565b82815280926141ed601f1991613d60565b0190602036910137565b156141ff5750565b630a30df6160e11b5f5260045260245ffd5b1561421857565b634b5d6ee760e11b5f5260045ffd5b610452611384614a0d565b8054600160601b600160d01b03191660609290921b600160601b600160d01b0316919091179055565b80516001600160a01b03165f9081525f5160206153245f395f51905f526020526040902091929161428d9084906114af565b805490939060601c6001600160701b0316614333576142ff6142f960606142d8612467826142c46133bd895160018060a01b031690565b97019661245288516001600160401b031690565b60208101516142f0906001600160701b031689614232565b015161ffff1690565b85613846565b61431361155c83516001600160401b031690565b6001600160401b03821611614326575050565b6001600160401b03169052565b5050565b1561433e57565b632808647560e11b5f5260045ffd5b1561435457565b639905827b60e01b5f5260045ffd5b1561436a57565b63d5b25b6360e01b5f5260045ffd5b156143815750565b63164688df60e21b5f9081526001600160a01b0391909116600452602490fd5b81156143ab570490565b634e487b7160e01b5f52601260045260245ffd5b815181546001600160601b0319166001600160601b03919091161781556117019161ffff9060609060208101516143ff906001600160701b031685614232565b6040810151845463ffffffff60d01b191660d09190911b63ffffffff60d01b1617845501511690613846565b156144335750565b634168a4a560e11b5f5260045260245ffd5b8054600160401b8110156116965761446291600182018155613cb3565b9190916144a457805182546020909201516001600160b01b03199092166001600160701b03919091161760709190911b67ffffffffffffffff60701b16179055565b634e487b7160e01b5f525f60045260245ffd5b916146185f5160206151e45f395f51905f529361450a9661151f6114e8614630966114d36145d86112306144f79c60018060a01b0389169d8e1515614337565b6001600160a01b0385169e8f151561434d565b61451a6402540be40082066113ae565b6001600160401b03881680614635575b5061453e8b610bb861ffff82161115613827565b6145a361454d61048b8b613360565b61458b60028c614577604085019161456a8184516113f78161341a565b6001600160a01b03168552565b6001600160a01b038a166020850152613424565b6001600160401b038a1660608201526105878b613360565b6145b68961052b61051f61051289613385565b6145c38961056487613385565b6145cd600261341a565b6402540be400900490565b956146136145e46116f2565b5f81526001600160701b03891660208201525f604082015261ffff8b1660608201526114c5886114af856133bd565b6133e2565b614622600261341a565b604051918291600283613678565b0390a3565b6146449061156861155c614227565b5f61452a565b6001600160a01b038116925f5160206151e45f395f51905f5292614630926147a6916147759061467b881515614337565b6001600160a01b038116986114d39061473a906112309061469d8d151561434d565b6146ad6402540be40082066113ae565b6146c089610bb861ffff82161115613827565b6147076146cf61048b89613360565b6146f86001604083016146e78c82516113f78161341a565b6001600160a01b038c168452614577565b5f606082015261058789613360565b61471a8761052b61051f61051289613385565b6147278761056487613385565b614731600161341a565b6145cd87613cc8565b936146136147466116f2565b5f81526001600160701b03871660208201525f604082015261ffff891660608201526114c55f6114af856133bd565b6147818154801561442b565b61479b61478c611703565b6001600160701b039093168352565b5f6020830152614445565b6147b0600161341a565b604051918291600183613678565b6040516323b872dd60e01b602082019081526001600160a01b03938416602483015293909216604483015260648083019490945292815291614828915f9182919061480a6084876116d1565b60018060a01b031694519082865af1614821614fca565b9083615165565b8051908115159182614859575b505061483e5750565b635274afe760e01b5f526001600160a01b031660045260245ffd5b6148709250906020806106c0938301019101614d64565b5f80614835565b1561487e57565b63098a8cbb60e41b5f5260045ffd5b156148955750565b6375687d0f60e11b5f9081526001600160a01b0391909116600452602490fd5b610452611ee1614a0d565b6001600160601b0391821690821601919082116136fb57565b604051906148e6826116b6565b5f6060838281528260208201528260408201520152565b91906149359061490b6148d9565b5083516001600160a01b03165f9081525f5160206153245f395f51905f52602052604090206114af565b9160405192614943846116b6565b546001600160601b0381168452606081811c6001600160701b03166020860181905260d083901c63ffffffff16604087015260f09290921c9085015283906149de57506149d360606149bb61246784612452846149ac6133bd611701995160018060a01b031690565b9201516001600160401b031690565b6020818101516001600160701b0316908701526142f0565b61ffff166060840152565b925050565b90816020910312610429575161045281611175565b90816020910312610429575161045281612d0e565b604051631454a0a560e31b81527f00000000000000000000000000000000000000000000000000000000000000006001600160a01b031690602081600481855afa80156108aa576001600160401b03915f91614ad8575b501690814310614ad2576020614a7c600493436140a9565b916040519384809263068d921560e31b82525afa9081156108aa5763ffffffff61155c92610452945f91614ab3575b5016906143a1565b614acc915060203d602011612bcf57612bc181836116d1565b5f614aab565b50505f90565b614afa915060203d602011614b00575b614af281836116d1565b8101906149e3565b5f614a64565b503d614ae8565b5f5160206152845f395f51905f52546001600160a01b03163303611d2157565b614b2f61353d565b5f5160206152845f395f51905f5280546001600160a01b039283166001600160a01b0319821681179092559091167f8be0079c531659141344cd1fd0a4f28419497f9722a3daafe3b4186f6b6457e05f80a3565b905f5160206151c45f395f51905f5254614b9c816141c5565b925f5b828110614cd757506040516306598de160e31b815290602090829060049082906001600160a01b03165afa80156108aa5763ffffffff915f91614cb8575b501691818311614caf575b5f5b838110614bf957505050815290565b80614c0d61048b610955610531858a6138c2565b614c16836136ed565b858110614c6c57505090614c66600192614c51614c36610531858b6138c2565b91614c60614c47610531838d6138c2565b614c51878d6138c2565b6001600160a01b039091169052565b896138c2565b01614bea565b614c7f61048b610955610531848c6138c2565b614c898684614f08565b614c938783614f08565b11614ca2575b50600101614c16565b9092509050816001614c99565b91508091614be8565b614cd1915060203d602011612bcf57612bc181836116d1565b5f614bdd565b80614cf3614ce9612d91600194613c83565b614c5183896138c2565b01614b9f565b15614d015750565b63403f6f6f60e11b5f9081526001600160a01b0391909116600452602490fd5b63ffffffff60019116019063ffffffff82116136fb57565b60ff5f5160206153445f395f51905f525460401c1615614d5557565b631afcd79f60e31b5f5260045ffd5b90816020910312610429575180151581036104295790565b5f5160206151c45f395f51905f5254905f905f19906001600160a01b03165b838310614e28575b5090505f811215614db2575050565b6001821180614e16575b614dcb575b5050611701614f3f565b614deb614de5612d91614de0614e0f9561409b565b613c83565b91613c83565b81546001600160a01b0393841660039290921b91821b9390911b1916919091179055565b5f80614dc1565b50614e208261409b565b811415614dbc565b80614e4c614e3585613c83565b90546001600160a01b039260039290921b1c821690565b1603614e5b575050805f614da3565b600190920191614d9b565b90813b15614ee7575f5160206152e45f395f51905f5280546001600160a01b0319166001600160a01b0384169081179091557fbc7cd75a20ee27fd9adebab32041f755214dbc6bffa90cc0225b39da2e5c2d3b5f80a2805115614ecf57614ecc91614ff9565b50565b505034614ed857565b63b398979f60e01b5f5260045ffd5b50634c9c8ce360e01b5f9081526001600160a01b0391909116600452602490fd5b6001600160701b0391602091614f1e9190615016565b0151166402540be4008102908082046402540be40014901517156136fb5790565b5f5160206151c45f395f51905f52548015614fb6575f198101905f5160206151c45f395f51905f52548210156136ca575f5160206151c45f395f51905f525f8190527f024be1d688fec05d4c3e9aeb5eac4f8c1e7d5bd030a2d0a8bafafba39f7f7ac890910180546001600160a01b031916905555565b634e487b7160e01b5f52603160045260245ffd5b3d15614ff4573d90614fdb82611712565b91614fe960405193846116d1565b82523d5f602084013e565b606090565b5f8061045293602081519101845af4615010614fca565b91615165565b9061501f6148d9565b50606082019061503682516001600160401b031690565b6001600160401b0381166001600160401b038316101561515e57505b6001600160401b0381168015615132578351615080906124679084906114af906001600160a01b03166133bd565b9061509561155c85516001600160401b031690565b14801561511c575b8015615109575b80156150ee575b80156150cf575b6150c857505f19016001600160401b0316615052565b9250505090565b5063ffffffff6150e6604083015163ffffffff1690565b1615156150b2565b5061ffff615101606083015161ffff1690565b1615156150ab565b5080516001600160601b031615156150a4565b5060208101516001600160701b0316151561509d565b50509051610452915061246790615151906001600160a01b03166133bd565b5f805260205260405f2090565b9050615052565b90615189575080511561517a57805190602001fd5b630a12f52160e11b5f5260045ffd5b815115806151ba575b61519a575090565b639996b31560e01b5f9081526001600160a01b0391909116600452602490fd5b50803b1561519256fe4102a9ba7244b40639ebe412c7bfc792b19c048efdf631bf4f130fef80c0df0242449fd19d367b0177da9082fe6da7d4da41af7573e3a3c1750ecffeffe26f9df295d610a4116363064013aa5e1168427c6b907b208d8be559665c0e7adec500d9eff1b8c318f0d144ec006a3ad306d57c34b8d91ebd3ec67df12b9551f47c008f1c49778ec45f03e87f0e3e1567785ab335a882d8dad6d5c44cb7ae50968400d9eff1b8c318f0d144ec006a3ad306d57c34b8d91ebd3ec67df12b9551f47c019016d09d72d40fdae2fd8ceac6b6234c7706214fd39c1cd1e609a0528c199300c00107e0d011ac7c8e4dfa18e3dd3623ff151f8bfcc3821cd39bc114bd6504d94102a9ba7244b40639ebe412c7bfc792b19c048efdf631bf4f130fef80c0df00360894a13ba1a3210667c828492db98dca3e2076cc3735a920a3ca505d382bbc8f1c49778ec45f03e87f0e3e1567785ab335a882d8dad6d5c44cb7ae509684014102a9ba7244b40639ebe412c7bfc792b19c048efdf631bf4f130fef80c0df04f0c57e16840df040f15088dc2f81fe391c3923bec73e23a9662efc9c229c6a00237e158222e3e6968b72b9db0d8043aacf074ad9f650f0d1606b4d82ee432c00a264697066735822122020543ea79fca4f0b13453f4ab9324bf42f6c1062139c09b9b1c218568c9ba9b464736f6c634300081e0033f0c57e16840df040f15088dc2f81fe391c3923bec73e23a9662efc9c229c6a00","linkReferences":{"contracts/staking/StakingDpos.sol":{"StakingDpos":[{"start":3657,"length":20},{"start":9186,"length":20},{"start":9865,"length":20},{"start":10492,"length":20},{"start":13030,"length":20}]},"contracts/staking/StakingEconomics.sol":{"StakingEconomics":[{"start":2795,"length":20},{"start":4398,"length":20},{"start":4721,"length":20},{"start":6292,"length":20},{"start":6907,"length":20},{"start":7167,"length":20},{"start":9502,"length":20},{"start":10600,"length":20},{"start":13513,"length":20},{"start":13719,"length":20}]}}},"methodIdentifiers":{"UPGRADE_INTERFACE_VERSION()":"ad3cb1cc","acceptOwnership()":"79ba5097","activateValidator(address)":"b46e5520","addValidator(address)":"4d238c8e","beaconAssurance(uint64)":"4e5e2c04","calcAvailableForRedelegateAmount(address,address)":"5ef9e8c6","changeValidatorCommissionRate(address,uint16)":"14f8649f","changeValidatorOwner(address,address)":"0052c9e1","claimDelegatorFee(address)":"426594b1","claimDelegatorFeeAtEpoch(address,uint64)":"fe38ebef","claimValidatorFee(address)":"ff4794fc","claimValidatorFeeAtEpoch(address,uint64)":"adf2a79c","commitEpochBeaconKey(bytes)":"6ece9cb1","commitEpochCommittee(address[])":"87401d8a","committeeSelectionEpoch()":"8bd070e4","currentEpoch()":"76671808","delegate(address,uint256)":"026e402b","deposit(address,uint256)":"47e7ef24","disableValidator(address)":"1fe97684","getChainConfig()":"606c0c94","getConsensusKeys(address)":"ad36f42f","getDelegatorFee(address,address)":"52b7bea2","getEpochBeaconKey(uint64)":"c9adaf5c","getEpochCommittee(uint64)":"80b562de","getEpochCommitteeLength(uint64)":"e3e6cedc","getGovernance()":"289b3c0d","getPendingDelegatorFee(address,address)":"c2fd58fc","getPendingValidatorFee(address)":"c6fb9065","getRegistryWithKeys()":"d96cbd7b","getStaking()":"7b1391a6","getStakingPool()":"45946334","getStakingToken()":"9f9106d1","getSystemReward()":"7a37cc59","getValidatorByOwner(address)":"30108c22","getValidatorDelegation(address,address)":"d951e186","getValidatorFee(address)":"457179fd","getValidatorStatus(address)":"a310624f","getValidatorStatusAtEpoch(address,uint64)":"48124d26","getValidators()":"b7ab4db5","getValidatorsWithKeys()":"d41c52eb","getValidatorsWithKeysAt(uint64)":"7cfba9f3","initialize(address,address[],uint256[],uint16)":"01f6bb50","isValidator(address)":"facd743b","isValidatorActive(address)":"42ad55ac","nextEpoch()":"aea0e78b","nextEpochForBeaconKey()":"a8f4bbb6","nextEpochToCommit()":"c06a82de","owner()":"8da5cb5b","pendingOwner()":"e30c3978","proxiableUUID()":"52d1902d","redelegateDelegatorFee(address)":"8ecb3fc9","registerValidator(address,uint16,uint256)":"dd0fb5df","releaseValidatorFromJail(address)":"73a3dda6","removeValidator(address)":"40a141ff","renounceOwnership()":"715018a6","resolveSigner(uint64,uint32)":"d7f1733d","setConsensusKeys(address,bytes,bytes,bytes32)":"225cba85","slash(address)":"c96be4cb","slashEquivocationFinalize(bytes,bytes,bytes,bytes)":"add07a3e","slashEquivocationNotarize(bytes,bytes,bytes,bytes)":"e28d2f63","slashEquivocationNullifyFinalize(bytes,bytes,bytes,bytes)":"a10827e9","transferOwnership(address)":"f2fde38b","undelegate(address,uint256)":"4d99dd16","upgradeToAndCall(address,bytes)":"4f1ef286"},"storageLayout":{"storage":[],"types":{}},"id":4}