{"abi":[{"type":"constructor","inputs":[{"name":"stakingContract","type":"address","internalType":"contract IStaking"},{"name":"systemRewardContract","type":"address","internalType":"contract ISystemReward"},{"name":"stakingPoolContract","type":"address","internalType":"contract IStakingPool"},{"name":"governanceContract","type":"address","internalType":"contract IFluentGovernance"},{"name":"chainConfigContract","type":"address","internalType":"contract IChainConfig"},{"name":"stakingToken","type":"address","internalType":"contract IERC20"},{"name":"livenessSlashingAddr","type":"address","internalType":"address"}],"stateMutability":"nonpayable"},{"type":"function","name":"UPGRADE_INTERFACE_VERSION","inputs":[],"outputs":[{"name":"","type":"string","internalType":"string"}],"stateMutability":"view"},{"type":"function","name":"acceptOwnership","inputs":[],"outputs":[],"stateMutability":"nonpayable"},{"type":"function","name":"activateValidator","inputs":[{"name":"validator","type":"address","internalType":"address"}],"outputs":[],"stateMutability":"nonpayable"},{"type":"function","name":"addValidator","inputs":[{"name":"account","type":"address","internalType":"address"}],"outputs":[],"stateMutability":"nonpayable"},{"type":"function","name":"calcAvailableForRedelegateAmount","inputs":[{"name":"validator","type":"address","internalType":"address"},{"name":"delegator","type":"address","internalType":"address"}],"outputs":[{"name":"amountToStake","type":"uint256","internalType":"uint256"},{"name":"rewardsDust","type":"uint256","internalType":"uint256"}],"stateMutability":"view"},{"type":"function","name":"changeValidatorCommissionRate","inputs":[{"name":"validatorAddress","type":"address","internalType":"address"},{"name":"commissionRate","type":"uint16","internalType":"uint16"}],"outputs":[],"stateMutability":"nonpayable"},{"type":"function","name":"changeValidatorOwner","inputs":[{"name":"validatorAddress","type":"address","internalType":"address"},{"name":"newOwner","type":"address","internalType":"address"}],"outputs":[],"stateMutability":"nonpayable"},{"type":"function","name":"claimDelegatorFee","inputs":[{"name":"validatorAddress","type":"address","internalType":"address"}],"outputs":[],"stateMutability":"nonpayable"},{"type":"function","name":"claimDelegatorFeeAtEpoch","inputs":[{"name":"validatorAddress","type":"address","internalType":"address"},{"name":"beforeEpoch","type":"uint64","internalType":"uint64"}],"outputs":[],"stateMutability":"nonpayable"},{"type":"function","name":"claimValidatorFee","inputs":[{"name":"validatorAddress","type":"address","internalType":"address"}],"outputs":[],"stateMutability":"nonpayable"},{"type":"function","name":"claimValidatorFeeAtEpoch","inputs":[{"name":"validatorAddress","type":"address","internalType":"address"},{"name":"beforeEpoch","type":"uint64","internalType":"uint64"}],"outputs":[],"stateMutability":"nonpayable"},{"type":"function","name":"commitEpochCommittee","inputs":[{"name":"committee","type":"address[]","internalType":"address[]"}],"outputs":[],"stateMutability":"nonpayable"},{"type":"function","name":"committeeSelectionEpoch","inputs":[],"outputs":[{"name":"","type":"uint64","internalType":"uint64"}],"stateMutability":"view"},{"type":"function","name":"currentEpoch","inputs":[],"outputs":[{"name":"","type":"uint64","internalType":"uint64"}],"stateMutability":"view"},{"type":"function","name":"delegate","inputs":[{"name":"validatorAddress","type":"address","internalType":"address"},{"name":"amount","type":"uint256","internalType":"uint256"}],"outputs":[],"stateMutability":"nonpayable"},{"type":"function","name":"deposit","inputs":[{"name":"validatorAddress","type":"address","internalType":"address"},{"name":"amount","type":"uint256","internalType":"uint256"}],"outputs":[],"stateMutability":"nonpayable"},{"type":"function","name":"disableValidator","inputs":[{"name":"validator","type":"address","internalType":"address"}],"outputs":[],"stateMutability":"nonpayable"},{"type":"function","name":"getChainConfig","inputs":[],"outputs":[{"name":"","type":"address","internalType":"contract IChainConfig"}],"stateMutability":"view"},{"type":"function","name":"getConsensusKeys","inputs":[{"name":"validatorAddress","type":"address","internalType":"address"}],"outputs":[{"name":"","type":"tuple","internalType":"struct IStaking.ConsensusKeys","components":[{"name":"blsPubkey","type":"bytes","internalType":"bytes"},{"name":"peerPubkey","type":"bytes32","internalType":"bytes32"},{"name":"activationEpoch","type":"uint64","internalType":"uint64"}]}],"stateMutability":"view"},{"type":"function","name":"getDelegatorFee","inputs":[{"name":"validatorAddress","type":"address","internalType":"address"},{"name":"delegatorAddress","type":"address","internalType":"address"}],"outputs":[{"name":"","type":"uint256","internalType":"uint256"}],"stateMutability":"view"},{"type":"function","name":"getEpochCommittee","inputs":[{"name":"epoch","type":"uint64","internalType":"uint64"}],"outputs":[{"name":"","type":"address[]","internalType":"address[]"}],"stateMutability":"view"},{"type":"function","name":"getGovernance","inputs":[],"outputs":[{"name":"","type":"address","internalType":"contract IFluentGovernance"}],"stateMutability":"view"},{"type":"function","name":"getPendingDelegatorFee","inputs":[{"name":"validatorAddress","type":"address","internalType":"address"},{"name":"delegatorAddress","type":"address","internalType":"address"}],"outputs":[{"name":"","type":"uint256","internalType":"uint256"}],"stateMutability":"view"},{"type":"function","name":"getPendingValidatorFee","inputs":[{"name":"validatorAddress","type":"address","internalType":"address"}],"outputs":[{"name":"","type":"uint256","internalType":"uint256"}],"stateMutability":"view"},{"type":"function","name":"getStaking","inputs":[],"outputs":[{"name":"","type":"address","internalType":"contract IStaking"}],"stateMutability":"view"},{"type":"function","name":"getStakingPool","inputs":[],"outputs":[{"name":"","type":"address","internalType":"contract IStakingPool"}],"stateMutability":"view"},{"type":"function","name":"getStakingToken","inputs":[],"outputs":[{"name":"","type":"address","internalType":"contract IERC20"}],"stateMutability":"view"},{"type":"function","name":"getSystemReward","inputs":[],"outputs":[{"name":"","type":"address","internalType":"contract ISystemReward"}],"stateMutability":"view"},{"type":"function","name":"getValidatorByOwner","inputs":[{"name":"owner","type":"address","internalType":"address"}],"outputs":[{"name":"","type":"address","internalType":"address"}],"stateMutability":"view"},{"type":"function","name":"getValidatorDelegation","inputs":[{"name":"validatorAddress","type":"address","internalType":"address"},{"name":"delegator","type":"address","internalType":"address"}],"outputs":[{"name":"delegatedAmount","type":"uint256","internalType":"uint256"},{"name":"atEpoch","type":"uint64","internalType":"uint64"}],"stateMutability":"view"},{"type":"function","name":"getValidatorFee","inputs":[{"name":"validatorAddress","type":"address","internalType":"address"}],"outputs":[{"name":"","type":"uint256","internalType":"uint256"}],"stateMutability":"view"},{"type":"function","name":"getValidatorStatus","inputs":[{"name":"validatorAddress","type":"address","internalType":"address"}],"outputs":[{"name":"ownerAddress","type":"address","internalType":"address"},{"name":"status","type":"uint8","internalType":"uint8"},{"name":"totalDelegated","type":"uint256","internalType":"uint256"},{"name":"slashesCount","type":"uint32","internalType":"uint32"},{"name":"changedAt","type":"uint64","internalType":"uint64"},{"name":"jailedBefore","type":"uint64","internalType":"uint64"},{"name":"claimedAt","type":"uint64","internalType":"uint64"},{"name":"commissionRate","type":"uint16","internalType":"uint16"},{"name":"totalRewards","type":"uint96","internalType":"uint96"}],"stateMutability":"view"},{"type":"function","name":"getValidatorStatusAtEpoch","inputs":[{"name":"validatorAddress","type":"address","internalType":"address"},{"name":"epoch","type":"uint64","internalType":"uint64"}],"outputs":[{"name":"ownerAddress","type":"address","internalType":"address"},{"name":"status","type":"uint8","internalType":"uint8"},{"name":"totalDelegated","type":"uint256","internalType":"uint256"},{"name":"slashesCount","type":"uint32","internalType":"uint32"},{"name":"changedAt","type":"uint64","internalType":"uint64"},{"name":"jailedBefore","type":"uint64","internalType":"uint64"},{"name":"claimedAt","type":"uint64","internalType":"uint64"},{"name":"commissionRate","type":"uint16","internalType":"uint16"},{"name":"totalRewards","type":"uint96","internalType":"uint96"}],"stateMutability":"view"},{"type":"function","name":"getValidators","inputs":[],"outputs":[{"name":"","type":"address[]","internalType":"address[]"}],"stateMutability":"view"},{"type":"function","name":"getValidatorsWithKeys","inputs":[],"outputs":[{"name":"addrs","type":"address[]","internalType":"address[]"},{"name":"keys","type":"tuple[]","internalType":"struct IStaking.ConsensusKeys[]","components":[{"name":"blsPubkey","type":"bytes","internalType":"bytes"},{"name":"peerPubkey","type":"bytes32","internalType":"bytes32"},{"name":"activationEpoch","type":"uint64","internalType":"uint64"}]}],"stateMutability":"view"},{"type":"function","name":"getValidatorsWithKeysAt","inputs":[{"name":"epoch","type":"uint64","internalType":"uint64"}],"outputs":[{"name":"addrs","type":"address[]","internalType":"address[]"},{"name":"keys","type":"tuple[]","internalType":"struct IStaking.ConsensusKeys[]","components":[{"name":"blsPubkey","type":"bytes","internalType":"bytes"},{"name":"peerPubkey","type":"bytes32","internalType":"bytes32"},{"name":"activationEpoch","type":"uint64","internalType":"uint64"}]}],"stateMutability":"view"},{"type":"function","name":"initialize","inputs":[{"name":"initialOwner","type":"address","internalType":"address"},{"name":"validators","type":"address[]","internalType":"address[]"},{"name":"initialStakes","type":"uint256[]","internalType":"uint256[]"},{"name":"commissionRate","type":"uint16","internalType":"uint16"}],"outputs":[],"stateMutability":"nonpayable"},{"type":"function","name":"isValidator","inputs":[{"name":"account","type":"address","internalType":"address"}],"outputs":[{"name":"","type":"bool","internalType":"bool"}],"stateMutability":"view"},{"type":"function","name":"isValidatorActive","inputs":[{"name":"account","type":"address","internalType":"address"}],"outputs":[{"name":"","type":"bool","internalType":"bool"}],"stateMutability":"view"},{"type":"function","name":"nextEpoch","inputs":[],"outputs":[{"name":"","type":"uint64","internalType":"uint64"}],"stateMutability":"view"},{"type":"function","name":"nextEpochToCommit","inputs":[],"outputs":[{"name":"","type":"uint64","internalType":"uint64"}],"stateMutability":"view"},{"type":"function","name":"owner","inputs":[],"outputs":[{"name":"","type":"address","internalType":"address"}],"stateMutability":"view"},{"type":"function","name":"pendingOwner","inputs":[],"outputs":[{"name":"","type":"address","internalType":"address"}],"stateMutability":"view"},{"type":"function","name":"proxiableUUID","inputs":[],"outputs":[{"name":"","type":"bytes32","internalType":"bytes32"}],"stateMutability":"view"},{"type":"function","name":"redelegateDelegatorFee","inputs":[{"name":"validator","type":"address","internalType":"address"}],"outputs":[],"stateMutability":"nonpayable"},{"type":"function","name":"registerValidator","inputs":[{"name":"validatorAddress","type":"address","internalType":"address"},{"name":"commissionRate","type":"uint16","internalType":"uint16"},{"name":"initialStake","type":"uint256","internalType":"uint256"}],"outputs":[],"stateMutability":"nonpayable"},{"type":"function","name":"releaseValidatorFromJail","inputs":[{"name":"validatorAddress","type":"address","internalType":"address"}],"outputs":[],"stateMutability":"nonpayable"},{"type":"function","name":"removeValidator","inputs":[{"name":"account","type":"address","internalType":"address"}],"outputs":[],"stateMutability":"nonpayable"},{"type":"function","name":"renounceOwnership","inputs":[],"outputs":[],"stateMutability":"nonpayable"},{"type":"function","name":"resolveSigner","inputs":[{"name":"epoch","type":"uint64","internalType":"uint64"},{"name":"signerIdx","type":"uint32","internalType":"uint32"}],"outputs":[{"name":"","type":"address","internalType":"address"}],"stateMutability":"view"},{"type":"function","name":"setConsensusKeys","inputs":[{"name":"validatorAddress","type":"address","internalType":"address"},{"name":"blsPubkeyUncompressed","type":"bytes","internalType":"bytes"},{"name":"blsPoPUncompressed","type":"bytes","internalType":"bytes"},{"name":"peerPubkey","type":"bytes32","internalType":"bytes32"}],"outputs":[],"stateMutability":"nonpayable"},{"type":"function","name":"slash","inputs":[{"name":"validatorAddress","type":"address","internalType":"address"}],"outputs":[],"stateMutability":"nonpayable"},{"type":"function","name":"slashEquivocationFinalize","inputs":[{"name":"evidence","type":"bytes","internalType":"bytes"},{"name":"pkUncompressed","type":"bytes","internalType":"bytes"},{"name":"sig1Uncompressed","type":"bytes","internalType":"bytes"},{"name":"sig2Uncompressed","type":"bytes","internalType":"bytes"}],"outputs":[],"stateMutability":"nonpayable"},{"type":"function","name":"slashEquivocationNotarize","inputs":[{"name":"evidence","type":"bytes","internalType":"bytes"},{"name":"pkUncompressed","type":"bytes","internalType":"bytes"},{"name":"sig1Uncompressed","type":"bytes","internalType":"bytes"},{"name":"sig2Uncompressed","type":"bytes","internalType":"bytes"}],"outputs":[],"stateMutability":"nonpayable"},{"type":"function","name":"slashEquivocationNullifyFinalize","inputs":[{"name":"evidence","type":"bytes","internalType":"bytes"},{"name":"pkUncompressed","type":"bytes","internalType":"bytes"},{"name":"sig1Uncompressed","type":"bytes","internalType":"bytes"},{"name":"sig2Uncompressed","type":"bytes","internalType":"bytes"}],"outputs":[],"stateMutability":"nonpayable"},{"type":"function","name":"transferOwnership","inputs":[{"name":"newOwner","type":"address","internalType":"address"}],"outputs":[],"stateMutability":"nonpayable"},{"type":"function","name":"undelegate","inputs":[{"name":"validatorAddress","type":"address","internalType":"address"},{"name":"amount","type":"uint256","internalType":"uint256"}],"outputs":[],"stateMutability":"nonpayable"},{"type":"function","name":"upgradeToAndCall","inputs":[{"name":"newImplementation","type":"address","internalType":"address"},{"name":"data","type":"bytes","internalType":"bytes"}],"outputs":[],"stateMutability":"payable"},{"type":"event","name":"Claimed","inputs":[{"name":"validator","type":"address","indexed":true,"internalType":"address"},{"name":"staker","type":"address","indexed":true,"internalType":"address"},{"name":"amount","type":"uint256","indexed":false,"internalType":"uint256"},{"name":"epoch","type":"uint64","indexed":false,"internalType":"uint64"}],"anonymous":false},{"type":"event","name":"ConsensusKeysSet","inputs":[{"name":"validator","type":"address","indexed":true,"internalType":"address"},{"name":"blsPubkey","type":"bytes","indexed":false,"internalType":"bytes"},{"name":"peerPubkey","type":"bytes32","indexed":false,"internalType":"bytes32"},{"name":"activationEpoch","type":"uint64","indexed":false,"internalType":"uint64"}],"anonymous":false},{"type":"event","name":"Delegated","inputs":[{"name":"validator","type":"address","indexed":true,"internalType":"address"},{"name":"staker","type":"address","indexed":true,"internalType":"address"},{"name":"amount","type":"uint256","indexed":false,"internalType":"uint256"},{"name":"epoch","type":"uint64","indexed":false,"internalType":"uint64"}],"anonymous":false},{"type":"event","name":"EpochCommitteeCommitted","inputs":[{"name":"epoch","type":"uint64","indexed":true,"internalType":"uint64"},{"name":"committee","type":"address[]","indexed":false,"internalType":"address[]"}],"anonymous":false},{"type":"event","name":"EquivocationSlashed","inputs":[{"name":"validator","type":"address","indexed":true,"internalType":"address"},{"name":"epoch","type":"uint64","indexed":false,"internalType":"uint64"},{"name":"reporter","type":"address","indexed":true,"internalType":"address"}],"anonymous":false},{"type":"event","name":"Initialized","inputs":[{"name":"version","type":"uint64","indexed":false,"internalType":"uint64"}],"anonymous":false},{"type":"event","name":"OwnershipTransferStarted","inputs":[{"name":"previousOwner","type":"address","indexed":true,"internalType":"address"},{"name":"newOwner","type":"address","indexed":true,"internalType":"address"}],"anonymous":false},{"type":"event","name":"OwnershipTransferred","inputs":[{"name":"previousOwner","type":"address","indexed":true,"internalType":"address"},{"name":"newOwner","type":"address","indexed":true,"internalType":"address"}],"anonymous":false},{"type":"event","name":"Redelegated","inputs":[{"name":"validator","type":"address","indexed":true,"internalType":"address"},{"name":"staker","type":"address","indexed":true,"internalType":"address"},{"name":"amount","type":"uint256","indexed":false,"internalType":"uint256"},{"name":"dust","type":"uint256","indexed":false,"internalType":"uint256"},{"name":"epoch","type":"uint64","indexed":false,"internalType":"uint64"}],"anonymous":false},{"type":"event","name":"Undelegated","inputs":[{"name":"validator","type":"address","indexed":true,"internalType":"address"},{"name":"staker","type":"address","indexed":true,"internalType":"address"},{"name":"amount","type":"uint256","indexed":false,"internalType":"uint256"},{"name":"epoch","type":"uint64","indexed":false,"internalType":"uint64"}],"anonymous":false},{"type":"event","name":"Upgraded","inputs":[{"name":"implementation","type":"address","indexed":true,"internalType":"address"}],"anonymous":false},{"type":"event","name":"ValidatorAdded","inputs":[{"name":"validator","type":"address","indexed":true,"internalType":"address"},{"name":"owner","type":"address","indexed":true,"internalType":"address"},{"name":"status","type":"uint8","indexed":false,"internalType":"uint8"},{"name":"commissionRate","type":"uint16","indexed":false,"internalType":"uint16"}],"anonymous":false},{"type":"event","name":"ValidatorDeposited","inputs":[{"name":"validator","type":"address","indexed":true,"internalType":"address"},{"name":"amount","type":"uint256","indexed":false,"internalType":"uint256"},{"name":"epoch","type":"uint64","indexed":false,"internalType":"uint64"}],"anonymous":false},{"type":"event","name":"ValidatorJailed","inputs":[{"name":"validator","type":"address","indexed":true,"internalType":"address"},{"name":"epoch","type":"uint64","indexed":false,"internalType":"uint64"}],"anonymous":false},{"type":"event","name":"ValidatorModified","inputs":[{"name":"validator","type":"address","indexed":true,"internalType":"address"},{"name":"owner","type":"address","indexed":true,"internalType":"address"},{"name":"status","type":"uint8","indexed":false,"internalType":"uint8"},{"name":"commissionRate","type":"uint16","indexed":false,"internalType":"uint16"}],"anonymous":false},{"type":"event","name":"ValidatorOwnerClaimed","inputs":[{"name":"validator","type":"address","indexed":true,"internalType":"address"},{"name":"amount","type":"uint256","indexed":false,"internalType":"uint256"},{"name":"epoch","type":"uint64","indexed":false,"internalType":"uint64"}],"anonymous":false},{"type":"event","name":"ValidatorReleased","inputs":[{"name":"validator","type":"address","indexed":true,"internalType":"address"},{"name":"epoch","type":"uint64","indexed":false,"internalType":"uint64"}],"anonymous":false},{"type":"event","name":"ValidatorRemoved","inputs":[{"name":"validator","type":"address","indexed":true,"internalType":"address"}],"anonymous":false},{"type":"event","name":"ValidatorSlashed","inputs":[{"name":"validator","type":"address","indexed":true,"internalType":"address"},{"name":"slashes","type":"uint32","indexed":false,"internalType":"uint32"},{"name":"epoch","type":"uint64","indexed":false,"internalType":"uint64"}],"anonymous":false},{"type":"error","name":"AddressEmptyCode","inputs":[{"name":"target","type":"address","internalType":"address"}]},{"type":"error","name":"AddressInsufficientBalance","inputs":[{"name":"account","type":"address","internalType":"address"}]},{"type":"error","name":"AlreadySlashedForEquivocation","inputs":[{"name":"validator","type":"address","internalType":"address"}]},{"type":"error","name":"AmountTooLow","inputs":[{"name":"amount","type":"uint256","internalType":"uint256"}]},{"type":"error","name":"BadCommissionRate","inputs":[{"name":"commissionRate","type":"uint16","internalType":"uint16"}]},{"type":"error","name":"BadShareDistribution","inputs":[{"name":"shareDistribution","type":"uint16","internalType":"uint16"}]},{"type":"error","name":"BlsVerifierNotConfigured","inputs":[]},{"type":"error","name":"CommitteeLengthMismatch","inputs":[{"name":"expected","type":"uint256","internalType":"uint256"},{"name":"got","type":"uint256","internalType":"uint256"}]},{"type":"error","name":"CommitteeMemberKeyless","inputs":[{"name":"validator","type":"address","internalType":"address"}]},{"type":"error","name":"CommitteeMemberNotInActiveSet","inputs":[{"name":"validator","type":"address","internalType":"address"}]},{"type":"error","name":"CommitteeNotStrictlyAscending","inputs":[{"name":"validator","type":"address","internalType":"address"}]},{"type":"error","name":"ConsensusKeysAlreadySet","inputs":[{"name":"validator","type":"address","internalType":"address"}]},{"type":"error","name":"ConsensusKeysNotSet","inputs":[{"name":"validator","type":"address","internalType":"address"}]},{"type":"error","name":"DelegationQueueEmpty","inputs":[]},{"type":"error","name":"DelegationQueueNotEmpty","inputs":[{"name":"delegationQueue","type":"uint256","internalType":"uint256"}]},{"type":"error","name":"DepositIsZero","inputs":[]},{"type":"error","name":"ERC1967InvalidImplementation","inputs":[{"name":"implementation","type":"address","internalType":"address"}]},{"type":"error","name":"ERC1967NonPayable","inputs":[]},{"type":"error","name":"EpochCommitteeNotCommitted","inputs":[{"name":"epoch","type":"uint64","internalType":"uint64"}]},{"type":"error","name":"EpochIsNotReady","inputs":[{"name":"epoch","type":"uint64","internalType":"uint64"}]},{"type":"error","name":"EpochNotYetCommittable","inputs":[{"name":"target","type":"uint64","internalType":"uint64"},{"name":"currentEpoch","type":"uint64","internalType":"uint64"}]},{"type":"error","name":"EquivocationKeyMismatch","inputs":[]},{"type":"error","name":"EquivocationSignatureInvalid","inputs":[]},{"type":"error","name":"EvidenceDecoderNotConfigured","inputs":[]},{"type":"error","name":"FailedInnerCall","inputs":[]},{"type":"error","name":"InitialStakeTooLow","inputs":[{"name":"initialStake","type":"uint256","internalType":"uint256"}]},{"type":"error","name":"InsufficientBalance","inputs":[]},{"type":"error","name":"InvalidClaimEpoch","inputs":[]},{"type":"error","name":"InvalidConsensusKeyEncoding","inputs":[]},{"type":"error","name":"InvalidEpoch","inputs":[]},{"type":"error","name":"InvalidInitialization","inputs":[]},{"type":"error","name":"InvalidProofOfPossession","inputs":[{"name":"validator","type":"address","internalType":"address"}]},{"type":"error","name":"MalformedInitialBalance","inputs":[]},{"type":"error","name":"MalformedInputLength","inputs":[]},{"type":"error","name":"NotActiveValidator","inputs":[]},{"type":"error","name":"NotEnoughBalance","inputs":[]},{"type":"error","name":"NotEnoughShares","inputs":[{"name":"requiredShares","type":"uint256","internalType":"uint256"}]},{"type":"error","name":"NotInitializing","inputs":[]},{"type":"error","name":"NotPendingValidator","inputs":[{"name":"validator","type":"address","internalType":"address"}]},{"type":"error","name":"NothingToClaim","inputs":[]},{"type":"error","name":"NothingToUnstake","inputs":[]},{"type":"error","name":"OnlyCoinbase","inputs":[]},{"type":"error","name":"OnlyGovernance","inputs":[]},{"type":"error","name":"OnlyLivenessSlashing","inputs":[]},{"type":"error","name":"OnlyStakingContract","inputs":[]},{"type":"error","name":"OnlySystemCall","inputs":[]},{"type":"error","name":"OnlyValidatorOwner","inputs":[{"name":"validator","type":"address","internalType":"address"}]},{"type":"error","name":"OnlyZeroGasPrice","inputs":[]},{"type":"error","name":"OwnableInvalidOwner","inputs":[{"name":"owner","type":"address","internalType":"address"}]},{"type":"error","name":"OwnableUnauthorizedAccount","inputs":[{"name":"account","type":"address","internalType":"address"}]},{"type":"error","name":"OwnerCantBeZero","inputs":[]},{"type":"error","name":"OwnerSelfStakeBelowMinimum","inputs":[]},{"type":"error","name":"PendingUndelegate","inputs":[]},{"type":"error","name":"SafeERC20FailedOperation","inputs":[{"name":"token","type":"address","internalType":"address"}]},{"type":"error","name":"SafeTransferFailed","inputs":[]},{"type":"error","name":"SignerIndexOutOfRange","inputs":[{"name":"epoch","type":"uint64","internalType":"uint64"},{"name":"signerIdx","type":"uint32","internalType":"uint32"},{"name":"committeeLen","type":"uint256","internalType":"uint256"}]},{"type":"error","name":"StillInJail","inputs":[{"name":"validator","type":"address","internalType":"address"}]},{"type":"error","name":"UUPSUnauthorizedCallContext","inputs":[]},{"type":"error","name":"UUPSUnsupportedProxiableUUID","inputs":[{"name":"slot","type":"bytes32","internalType":"bytes32"}]},{"type":"error","name":"UnsafeTransferFailed","inputs":[]},{"type":"error","name":"ValidatorAlreadyExists","inputs":[{"name":"validator","type":"address","internalType":"address"}]},{"type":"error","name":"ValidatorHasActiveDelegations","inputs":[{"name":"validator","type":"address","internalType":"address"}]},{"type":"error","name":"ValidatorNotFound","inputs":[{"name":"validator","type":"address","internalType":"address"}]},{"type":"error","name":"ValidatorNotInJail","inputs":[{"name":"validator","type":"address","internalType":"address"}]},{"type":"error","name":"ValidatorOwnerAlreadyInUse","inputs":[{"name":"validator","type":"address","internalType":"address"}]},{"type":"error","name":"WrongAmountPrecision","inputs":[]},{"type":"error","name":"ZeroAmount","inputs":[]},{"type":"error","name":"ZeroCommissionRate","inputs":[]},{"type":"error","name":"ZeroInitialStake","inputs":[]},{"type":"error","name":"ZeroOwner","inputs":[]},{"type":"error","name":"ZeroValidator","inputs":[]}],"bytecode":{"object":"0x6101803461029357601f61760438819003918201601f19168301916001600160401b038311848410176102975780849260e094604052833981010312610293578051906001600160a01b03821682036102935760208101516001600160a01b03811681036102935760408201516001600160a01b0381168103610293576060830151906001600160a01b0382168203610293576080840151926001600160a01b03841684036102935760a0850151946001600160a01b03861686036102935760c00151956001600160a01b0387168703610293573060805260a05260c05260e0526101005261012052610140525f5160206175e45f395f51905f525460ff8160401c16610284576002600160401b03196001600160401b0382160161022e575b506101605260405161733890816102ac8239608051818181611d7f0152614165015260a051816120b3015260c05181818161206f015261661e015260e051816112a3015261010051818181610b400152818161100701528181611094015281816115e40152612e650152610120518181816107a201528181610d5c0152818161182401528181611e0f01528181613090015281816133dd0152818161509c0152818161530701528181615c0801528181615d5e01528181615f08015281816160a2015281816161d80152616a8601526101405181818161094d015281816113b501528181612a5a0152818161345001528181613b7f0152818161664d0152616be801526101605181612fd50152f35b6001600160401b0319166001600160401b039081175f5160206175e45f395f51905f52556040519081527fc7f505b2f371ae2175ee4913f4499e1f2633a7b5936321eed1cdaeb6115181d290602090a15f61011f565b63f92ee8a960e01b5f5260045ffd5b5f80fd5b634e487b7160e01b5f52604160045260245ffdfe60806040526004361015610011575f80fd5b5f3560e01c806252c9e1146103b357806301f6bb50146103ae578063026e402b146103a957806314f8649f146103a45780631fe976841461039f578063225cba851461039a578063289b3c0d1461039557806330108c221461039057806340a141ff1461038b578063426594b11461038657806342ad55ac14610381578063457179fd1461037c578063459463341461037757806347e7ef241461037257806348124d261461036d5780634d238c8e146103685780634d99dd16146103635780634f1ef2861461035e57806352b7bea21461035957806352d1902d146103545780635ef9e8c61461034f578063606c0c941461034a578063715018a61461034557806373a3dda614610340578063766718081461033b57806379ba5097146103365780637a37cc59146103315780637b1391a61461032c5780637cfba9f31461032757806380b562de1461032257806387401d8a1461031d5780638bd070e4146103185780638da5cb5b146103135780638ecb3fc91461030e5780639f9106d114610309578063a10827e914610304578063a310624f146102ff578063ad36f42f146102fa578063ad3cb1cc146102f5578063add07a3e146102f0578063adf2a79c146102eb578063aea0e78b146102e6578063b46e5520146102e1578063b7ab4db5146102dc578063c06a82de146102d7578063c2fd58fc146102d2578063c6fb9065146102cd578063c96be4cb146102c8578063d41c52eb146102c3578063d7f1733d146102be578063d951e186146102b9578063dd0fb5df146102b4578063e28d2f63146102af578063e30c3978146102aa578063f2fde38b146102a5578063facd743b146102a0578063fe38ebef1461029b5763ff4794fc14610296575f80fd5b61362c565b613600565b6135a1565b613519565b6134e5565b613493565b61339d565b613376565b613317565b61325b565b612fb6565b612f8f565b612f71565b612f3f565b612f0d565b612e42565b612e25565b612da2565b612d50565b612d09565b612c81565b612bac565b612b1d565b612a45565b612673565b61263f565b6125f6565b612357565b6122c0565b6121e7565b61209e565b61205a565b61200e565b611fe3565b611ead565b611e3e565b611dfa565b611dd3565b611d6d565b611d4c565b611cd2565b6117f5565b6115c1565b61144b565b6112d2565b61128e565b61125f565b61122e565b6111fc565b611071565b611036565b610ff2565b610c66565b610b1d565b610a2d565b61076c565b6105cc565b6103f5565b6001600160a01b038116036103c957565b5f80fd5b60409060031901126103c9576004356103e5816103b8565b906024356103f2816103b8565b90565b346103c9576104de5f5160206172435f395f51905f52610414366103cd565b61055661053a61052c61043061042b86979661369d565b6137f1565b61050987610504604084019761045b838a5161044b816137db565b610454816137db565b1515613870565b6104f36104e3602087019d8e61048b61047a825160018060a01b031690565b6001600160a01b0381163314613898565b61049f6001600160a01b03861615156138c0565b6104d1876104cb6104bf6104b2896136c2565b546001600160a01b031690565b6001600160a01b031690565b156138d6565b516001600160a01b031690565b6136c2565b80546001600160a01b0319169055565b6001600160a01b0381168c526136c2565b61393f565b6104d18161052761052161051b614a88565b83614abc565b9961369d565b6139b7565b95516001600160a01b031690565b915193610546856137db565b61054f856137db565b5460f01c90565b6040516001600160a01b03928316959092169382916105759183613a73565b0390a3005b9181601f840112156103c9578235916001600160401b0383116103c9576020808501948460051b0101116103c957565b6064359061ffff821682036103c957565b6024359061ffff821682036103c957565b346103c95760803660031901126103c9576004356105e9816103b8565b6024356001600160401b0381116103c95761060890369060040161057a565b6044929192356001600160401b0381116103c95761062a90369060040161057a565b906106336105aa565b925f5160206172c35f395f51905f5254956001600160401b036106716106646106608a60ff9060401c1690565b1590565b986001600160401b031690565b1680159081610764575b600114908161075a575b159081610751575b50610742576106d095876106c760016001600160401b03195f5160206172c35f395f51905f525416175f5160206172c35f395f51905f5255565b61071e57613b08565b6106d657005b5f5160206172c35f395f51905f52805460ff60401b19169055604051600181527fc7f505b2f371ae2175ee4913f4499e1f2633a7b5936321eed1cdaeb6115181d290602090a1005b5f5160206172c35f395f51905f52805460ff60401b1916600160401b179055613b08565b63f92ee8a960e01b5f5260045ffd5b9050155f61068d565b303b159150610685565b88915061067b565b346103c95760403660031901126103c957600435610789816103b8565b60405163eea9a01b60e01b8152602435906020816004817f00000000000000000000000000000000000000000000000000000000000000006001600160a01b03165afa8015610a285782915f916109f9575b5081101590816109ef575b6107ef91615050565b6108016402540be40082065b15614a72565b7f30bcda2f188b532c7644e632473e83a6fb3c5c79717650d0ac790d141bb1b17761057561083161042b8561369d565b61084385604083015161044b816137db565b61085361084e6152f8565b6144df565b906108a86108618383614abc565b9161089f61087d6402540be40089045b6001600160701b031690565b845490949061089990869060601c6001600160701b031661506a565b90614a93565b6105278861369d565b6108ca336108b5886136fa565b9060018060a01b03165f5260205260405f2090565b8054156109df576108e46108de825461494e565b826142de565b509081546108fc816001600160401b039060701c1690565b6001600160401b0386811691161061098c575050805461094592610928916001600160701b031661506a565b81546001600160701b0319166001600160701b0391909116179055565b6109718430337f0000000000000000000000000000000000000000000000000000000000000000615007565b60405133956001600160a01b0316949092839290918361335d565b6109da939192506109a691906001600160701b031661506a565b906109c16109b2611c78565b6001600160701b039093168352565b6001600160401b0384166020830152614ce2565b614ce2565b610945565b906109da916109c16109b2611c78565b80151591506107e6565b610a1b915060203d602011610a21575b610a138183611c57565b810190614a49565b5f6107db565b503d610a09565b613cc1565b346103c95760403660031901126103c957600435610a4a816103b8565b610a526105bb565b610a6581610bb861ffff82161115613c12565b5f5160206172435f395f51905f52610a7f61042b8461369d565b91610ae6610ad86040850194610a9a87875161044b816137db565b6104d1816105276020820199610ab961047a8c5160018060a01b031690565b610ad388610ace610ac8614a88565b86614abc565b613c31565b61369d565b94516001600160a01b031690565b925192610af2846137db565b610afb846137db565b6040516001600160a01b03918216959091169390918291610575919083613a73565b346103c95760203660031901126103c957600435610b3a816103b8565b610b6e337f00000000000000000000000000000000000000000000000000000000000000006001600160a01b031614613c54565b6001600160a01b0381165f8181525f5160206172635f395f51905f52602052604090205f5160206172435f395f51905f5290610ba9906137f1565b610c1e610c0960206040840193610bd560018651610bc6816137db565b610bcf816137db565b14615253565b610bde8861691f565b600285525b610bfb81610527610bf561051b614a88565b9a61369d565b01516001600160a01b031690565b915194610c15866137db565b61054f866137db565b6040516001600160a01b039092169482916105759183613a73565b9181601f840112156103c9578235916001600160401b0383116103c957602083818601950101116103c957565b346103c95760803660031901126103c957600435610c83816103b8565b6024356001600160401b0381116103c957610ca2903690600401610c39565b906044356001600160401b0381116103c957610cc2903690600401610c39565b60643592610cd9610cd287613732565b5460ff1690565b610fcc57610ce961042b8761369d565b6040810151610cf7816137db565b610d00816137db565b15610fb057602001516001600160a01b031633819003610f9557506101008514801590610f8a575b610f7b578315610f7b57610d43610d3e8761376a565b613ca2565b610f5f5760405163c6b904ad60e01b81526020816004817f00000000000000000000000000000000000000000000000000000000000000006001600160a01b03165afa908115610a28575f91610f30575b506001600160a01b0316908115610f21576040516352e96e9160e11b8152955f8780610dc4848660048401613d57565b0381865afa968715610a28575f97610ef2575b506020939291610e118892610dea615269565b92610df3613d68565b96604051998a9889978897638bf2613360e01b895260048901613dcf565b03915afa908115610a28575f91610ec3575b5015610ea7577fb0119b4b0cb7a880df8e2f34a5c3a4d23f45d700a23e900c5e5dc9a6fc3e18529192610ea2610e57614a88565b610e89610e62611c89565b878152602081018690526001600160401b0383166040820152610e848561376a565b613e85565b6040516001600160a01b03909316959293849384613f8c565b0390a2005b630d27338f60e11b5f526001600160a01b03831660045260245ffd5b610ee5915060203d602011610eeb575b610edd8183611c57565b810190613db7565b5f610e23565b503d610ed3565b610e11975091610f1760209594933d805f833e610f0f8183611c57565b810190613d12565b9750919293610dd7565b632d901c8960e01b5f5260045ffd5b610f52915060203d602011610f58575b610f4a8183611c57565b810190613cac565b5f610d94565b503d610f40565b63bbfb171f60e01b5f526001600160a01b03861660045260245ffd5b63e12284eb60e01b5f5260045ffd5b506080821415610d28565b6359de29ed60e01b5f526001600160a01b031660045260245ffd5b635a4887e160e01b5f526001600160a01b03871660045260245ffd5b638300031d60e01b5f526001600160a01b03861660045260245ffd5b5f9103126103c957565b346103c9575f3660031901126103c9576040517f00000000000000000000000000000000000000000000000000000000000000006001600160a01b03168152602090f35b346103c95760203660031901126103c9576020600435611055816103b8565b6001600160a01b0390611067906136c2565b5416604051908152f35b346103c95760203660031901126103c95760043561108e816103b8565b6110c2337f00000000000000000000000000000000000000000000000000000000000000006001600160a01b031614613c54565b6111d66111c560018060a01b03831692835f525f5160206172635f395f51905f52602052610ad36104e36104de60405f206111bc856111b660405161110681611c01565b60018060a01b0385541681526111a883600187015461119e61118e6002602087019a60018060a01b0385168c5261116d61115d60408a019661114e60ff8260a01c16896137e5565b60a81c6001600160401b031690565b6001600160401b031660608a0152565b01546001600160401b03811660808801525b60401c6001600160401b031690565b6001600160401b031660a0860152565b5161044b816137db565b6111b06152f8565b90616cae565b156152a6565b6104d18561691f565b60025f918281558260018201550155565b7fe1434e25d6611e0db941968fdc97811c982ac1602e951637d206f5fdda9dd8f15f80a2005b346103c95760203660031901126103c95761122c60043561121c816103b8565b6112246152f8565b903390615423565b005b346103c95760203660031901126103c9576020611255600435611250816103b8565b613fcc565b6040519015158152f35b346103c95760203660031901126103c9576020611286600435611281816103b8565b614057565b604051908152f35b346103c9575f3660031901126103c9576040517f00000000000000000000000000000000000000000000000000000000000000006001600160a01b03168152602090f35b346103c95760403660031901126103c9576004356112ef816103b8565b60243590413303611406573a6113f75781156113e8577f9fce3fb7dc05df2879421f9d9c06784dad3d39aba44c0c1ee0b9d094e76550059060018060a01b03811692835f525f5160206172635f395f51905f5260205261136361135460405f206137f1565b92604084015161044b816137db565b6113ad6113786113716152f8565b8094614abc565b8054611390906001600160601b0385811691166157b8565b81546001600160601b0319166001600160601b0391909116179055565b6113d98130337f0000000000000000000000000000000000000000000000000000000000000000615007565b610ea26040519283928361335d565b63b288589b60e01b5f5260045ffd5b6383f1b1d360e01b5f5260045ffd5b63022d8c9560e31b5f5260045ffd5b6001600160401b038116036103c957565b60409060031901126103c95760043561143e816103b8565b906024356103f281611415565b346103c95761145936611426565b9060018060a01b03165f525f5160206172635f395f51905f5260205261148b61148460405f206137f1565b91826157f5565b60208201519091906115bd906001600160a01b0316916040810151936114b0856137db565b6114b9856137db565b60208101516114d9906114d4906001600160701b0316610871565b614128565b916114eb604083015163ffffffff1690565b9061150060608201516001600160401b031690565b61152860a061151960808501516001600160401b031690565b9301516001600160401b031690565b9261154961153b606087015161ffff1690565b95516001600160601b031690565b604080516001600160a01b03909a168a5260ff909a1660208a01529888019590955263ffffffff9490941660608701526001600160401b039384166080870152831660a086015290911660c084015261ffff1660e08301526001600160601b03909216610100820152908190610120820190565b0390f35b346103c95760203660031901126103c9576004356115de816103b8565b611612337f00000000000000000000000000000000000000000000000000000000000000006001600160a01b031614613c54565b6117a46116256116206152f8565b6144c1565b6001600160a01b038316929061164584151561164081614b83565b614b99565b61164e5f6107fb565b6001600160401b038116806117cd575b5061166a5f6001613c12565b6116cf61167961042b8461369d565b6116b76001604083016116a0878251611691816137db565b61169a816137db565b15614bc5565b6001600160a01b03871680855260208501526137e5565b6001600160401b03831660608201526105278461369d565b6116e2826104cb6104bf6104b2836136c2565b6116ef82610504816136c2565b6116f960016137db565b611702826142f3565b6109d561176d6117115f610871565b9361176461171d611ca8565b5f81526001600160701b03871660208201525f60408201819052606082015261175f866117498561378f565b906001600160401b03165f5260205260405f2090565b614c0b565b6108b5816136fa565b9161177a83548015614c77565b611794611785611c78565b6001600160701b039095168552565b6001600160401b03166020840152565b6117ae60016137db565b805f5160206171c35f395f51905f52604051806105755f600183613a73565b6117ef906117e86117dc614a88565b6001600160401b031690565b1015614baf565b5f61165e565b346103c95760403660031901126103c957600435611812816103b8565b60243560405163eea9a01b60e01b81527f00000000000000000000000000000000000000000000000000000000000000006001600160a01b031690602081600481855afa8015610a285783915f91611bce575b508110159081611bc4575b61187991615050565b6118896402540be40083066107fb565b61189561042b8461369d565b9060408201916118aa85845161044b816137db565b6118b2614a88565b906118bd8282614abc565b805490939060601c6001600160701b0316946118df6402540be4008804610871565b9561191261190c886001600160701b038116936119076001600160701b0382168611156158c7565b6158dd565b87614a93565b61191f846105278b61369d565b61192c336108b58b6136fa565b9561194b61194588546119408115156158f6565b61494e565b886142de565b509261198f6104bf60206119808c88549761190761196e8a60018060701b031690565b916001600160701b03831610156158c7565b9801516001600160a01b031690565b33149081611b7e575b50611ad8575b50600493602093929160701c6001600160401b03166001600160401b03878116911610611aa05781546001600160701b0319166001600160701b039091161790555b604051635e7b72ad60e01b815292839182905afa938415610a2857600261057594611a6b611a4163ffffffff7fa410e32157a44414a502bb47d775234de1aa7da123f5adfe426898f1601883fd99610971975f91611a71575b50168761453a565b611a5b611a4c611c78565b6001600160701b039096168652565b6001600160401b03166020850152565b01614ce2565b611a93915060203d602011611a99575b611a8b8183611c57565b8101906152e3565b5f611a39565b503d611a81565b611ad39150611abf611ab0611c78565b6001600160701b039092168252565b6001600160401b0386168185015286614ce2565b6119e0565b90929190611b086114d4610871611af76001600160701b038916614128565b935460601c6001600160701b031690565b90604051636f85684760e01b8152602081600481885afa908115610a28575f91611b5f575b5081109182611b54575b5050611b455790915f61199e565b6348b4fee160e01b5f5260045ffd5b141590505f80611b37565b611b78915060203d602011610a2157610a138183611c57565b5f611b2d565b905060018151611b8d816137db565b611b96816137db565b14908115611ba6575b505f611998565b6002915051611bb4816137db565b611bbd816137db565b145f611b9f565b8015159150611870565b611be7915060203d602011610a2157610a138183611c57565b5f611865565b634e487b7160e01b5f52604160045260245ffd5b60c081019081106001600160401b03821117611c1c57604052565b611bed565b606081019081106001600160401b03821117611c1c57604052565b608081019081106001600160401b03821117611c1c57604052565b90601f801991011681019081106001600160401b03821117611c1c57604052565b60405190611c87604083611c57565b565b60405190611c87606083611c57565b60405190611c8761010083611c57565b60405190611c87608083611c57565b6001600160401b038111611c1c57601f01601f191660200190565b60403660031901126103c957600435611cea816103b8565b602435906001600160401b0382116103c957366023830112156103c957816004013590611d1682611cb7565b91611d246040519384611c57565b80835236602482860101116103c9576020815f92602461122c97018387013784010152614159565b346103c9576020611286611d5f366103cd565b611d676152f8565b9161590c565b346103c9575f3660031901126103c9577f00000000000000000000000000000000000000000000000000000000000000006001600160a01b03163003611dc45760206040515f5160206172835f395f51905f528152f35b63703e46dd60e11b5f5260045ffd5b346103c9576040611dee611de9611d5f366103cd565b615bcd565b82519182526020820152f35b346103c9575f3660031901126103c9576040517f00000000000000000000000000000000000000000000000000000000000000006001600160a01b03168152602090f35b346103c9575f3660031901126103c957611e56615c77565b611e5e6138fe565b5f5160206172235f395f51905f5280546001600160a01b031981169091555f906001600160a01b03167f8be0079c531659141344cd1fd0a4f28419497f9722a3daafe3b4186f6b6457e08280a3005b346103c95760203660031901126103c957600435611eca816103b8565b611ed6610cd282613732565b611fc857611f6d611ee961042b8361369d565b611f6460408201611f108560038351611f01816137db565b611f0a816137db565b1461425e565b6020830151611f2a906001600160a01b0316338114613898565b611f5e85611f366152f8565b6001600160401b03611f556117dc60808901516001600160401b031690565b91161015614286565b60019052565b6105278361369d565b611f76816142f3565b7f7bd9ec00705b7640a93da0fcf84dc0bfce1b2c9a5146d548ab1dabd23322c9ac610ea2611fa26152f8565b6040516001600160401b0390911681526001600160a01b03909316929081906020820190565b638300031d60e01b5f526001600160a01b031660045260245ffd5b346103c9575f3660031901126103c9576020611ffd6152f8565b6001600160401b0360405191168152f35b346103c9575f3660031901126103c9575f5160206172e35f395f51905f5254336001600160a01b03909116036120475761122c33615c97565b63118cdaa760e01b5f523360045260245ffd5b346103c9575f3660031901126103c9576040517f00000000000000000000000000000000000000000000000000000000000000006001600160a01b03168152602090f35b346103c9575f3660031901126103c9576040517f00000000000000000000000000000000000000000000000000000000000000006001600160a01b03168152602090f35b90602080835192838152019201905f5b8181106120ff5750505090565b82516001600160a01b03168452602093840193909201916001016120f2565b805180835260209291819084018484015e5f828201840152601f01601f1916010190565b9060406001600160401b0381612161855160608652606086019061211e565b946020810151602086015201511691015290565b90612188906040835260408301906120e2565b906020818303910152815180825260208201916020808360051b8301019401925f915b8383106121ba57505050505090565b90919293946020806121d8600193601f198682030187528951612142565b970193019301919392906121ab565b346103c95760203660031901126103c95761220c60043561220781611415565b615d25565b61221681516143d4565b905f5b815181101561229f576001906001600160a01b036122378285613fb8565b51165f525f5160206171e35f395f51905f5260205260405f206001600160401b0360026040519261226784611c21565b61227081614423565b8452858101546020850152015416604082015261228d8286613fb8565b526122988185613fb8565b5001612219565b506115bd60405192839283612175565b9060206103f29281815201906120e2565b346103c95760203660031901126103c9576001600160401b036004356122e581611415565b165f525f5160206172035f395f51905f5260205260405f206040519081602082549182815201915f5260205f20905f5b818110612338576115bd8561232c81870382611c57565b604051918291826122af565b82546001600160a01b0316845260209093019260019283019201612315565b346103c95760203660031901126103c9576004356001600160401b0381116103c95761238790369060040161057a565b906003600160a01b031933016125e75761239f6152f8565b906123be5f5160206172a35f395f51905f52546001600160401b031690565b916123cb6117dc826144c1565b6001600160401b0384169081116125c557806125b9576123ea5f615d25565b945f935f5b875181101561244757600161240f61240a6104d1848c613fb8565b61376a565b015461241e575b6001016123ef565b9461243f60019161243a6124356104d18a8d613fb8565b615ecc565b614598565b959050612416565b5085858084036125a25750612479816001600160401b03165f525f5160206172035f395f51905f5260205260405f2090565b5f905f5b858110612501575050507f015ffbf030c2f06f58cedc968ae2ec9df38a79be1a74f68686ca971ce1994a5d93946124ed6124b96124f2936144c1565b6001600160401b03166001600160401b03195f5160206172a35f395f51905f525416175f5160206172a35f395f51905f5255565b615ef3565b610ea2604051928392836145a6565b61251461250f828888613ab5565b613aca565b9260016125208561376a565b015490811561258657845c1561256a5781111561254e57906125486001925f865d9484614375565b0161247d565b6333f1cce760e11b5f526001600160a01b03841660045260245ffd5b632c036eb960e11b5f526001600160a01b03851660045260245ffd5b630ccf9c8160e11b5f526001600160a01b03851660045260245ffd5b63f841867b60e01b5f52600452602483905260445ffd5b6123ea6122078561455a565b631e559a0560e11b5f526001600160401b03808516600452821660245260445ffd5b633d45932f60e11b5f5260045ffd5b346103c9575f3660031901126103c9575f5160206172a35f395f51905f52546001600160401b03168061262f57506040515f8152602090f35b61263a60209161455a565b611ffd565b346103c9575f3660031901126103c9575f5160206172235f395f51905f52546040516001600160a01b039091168152602090f35b346103c95760203660031901126103c957600435612690816103b8565b6126986152f8565b6126af6126a8336108b5856136fa565b91826169cf565b905f60018201916126c783546001600160401b031690565b8154946001600160401b0381165b6001600160401b0383169587871015612a35576126fb6126f585876142de565b50614805565b966020880198836127166117dc8c516001600160401b031690565b1015612a23575f976127278261494e565b83106129f8575b8b6127436117dc8d516001600160401b031690565b86811090816129d9575b501561283a576127898c61277461276661278e9461378f565b91516001600160401b031690565b6001600160401b03165f5260205260405f2090565b614710565b60208101805190918c916127aa906001600160701b0316610871565b1561283157916127f46108716127e66127fa946127e06108716127d06128009a99616a66565b505092516001600160701b031690565b90614146565b92516001600160701b031690565b90614bed565b90613afb565b975b61282b61281e6128198d516001600160401b031690565b6153f2565b6001600160401b03168c52565b9761272e565b50505097612802565b509750985096909693919361284e8961494e565b111561287257508061281961286661286c93876142de565b9061540f565b916126d5565b819297506128919061288b8697989361289996976142de565b90614cce565b949394613971565b600383019060026128b183546001600160401b031690565b94018054915b826001600160401b0387161061296f575b505050906128fa7fa82f74002b6639f6cfc2cfd4f3ade1998108eda0f484d9064e3098c211e81d6e9361290e93613971565b6129046001615419565b611de96001615419565b81939161295f575b80612950575b6040805194855260208501919091526001600160401b039091169083015233926001600160a01b0316918060608101610575565b61295a8133616b9c565b61291c565b61296a848633615083565b612916565b90919361297f6126f587856142de565b826129976117dc60208401516001600160401b031690565b116129d257516129c9916129bb916127fa906114d4906001600160701b0316610871565b9561281961286682866142de565b949391906128b7565b50936128c8565b90508a80159182156129ee575b50505f61274d565b1090508a5f6129e6565b975061282b6117dc612a12612a0c896144c1565b8a6142de565b505460701c6001600160401b031690565b50509093955061289992919650613971565b9093955061289992919650613971565b346103c9575f3660031901126103c9576040517f00000000000000000000000000000000000000000000000000000000000000006001600160a01b03168152602090f35b60806003198201126103c9576004356001600160401b0381116103c95781612ab391600401610c39565b929092916024356001600160401b0381116103c95781612ad591600401610c39565b929092916044356001600160401b0381116103c95781612af791600401610c39565b92909291606435906001600160401b0382116103c957612b1991600401610c39565b9091565b346103c957612b6f5f612b2f36612a89565b97909691959294929091906001600160a01b03612b4a61608d565b1690604051809b819482936302d85f5760e41b84526020600485018181520191613d37565b03915afa8015610a285761122c975f91612b8a575b5061616a565b612ba691503d805f833e612b9e8183611c57565b810190614611565b5f612b84565b346103c95760203660031901126103c957612bcf61042b600435610ad3816103b8565b8051612be8906001600160a01b031661378f565b61378f565b906115bd612c08612789606084019461277486516001600160401b031690565b60208301519092906001600160a01b031692604082015194612c29866137db565b612c32866137db565b6020820151612c4d906114d4906001600160701b0316610871565b92611500612c62604085015163ffffffff1690565b92516001600160401b031690565b9060206103f2928181520190612142565b346103c95760203660031901126103c957600435612c9e816103b8565b612ca66143b5565b5060018060a01b03165f525f5160206171e35f395f51905f526020526115bd60405f206001600160401b03600260405192612ce084611c21565b612ce981614423565b845260018101546020850152015416604082015260405191829182612c70565b346103c9575f3660031901126103c9576115bd604051612d2a604082611c57565b60058152640352e302e360dc1b602082015260405191829160208352602083019061211e565b346103c957612b6f5f612d6236612a89565b97909691959294929091906001600160a01b03612d7d61608d565b1690604051809b81948293636725859d60e11b84526020600485018181520191613d37565b346103c957612db036611426565b6001600160a01b0382165f9081525f5160206172635f395f51905f5260205260409020600181015460a01c60ff166004811015612e205761122c93612df6911515613870565b612e1b6001600160401b03612e096152f8565b166001600160401b038416111561475a565b616550565b6137c7565b346103c9575f3660031901126103c9576020611ffd6116206152f8565b346103c95760203660031901126103c957600435612e5f816103b8565b612e93337f00000000000000000000000000000000000000000000000000000000000000006001600160a01b031614613c54565b6001600160a01b0381165f8181525f5160206172635f395f51905f52602052604090205f5160206172435f395f51905f5290612ece906137f1565b610c1e610c0960206040840193612efb8860028751612eec816137db565b612ef5816137db565b14616739565b612f04886142f3565b60018552610be3565b346103c9575f3660031901126103c9576115bd612f2b6122076152f8565b6040519182916020835260208301906120e2565b346103c9575f3660031901126103c95760206001600160401b035f5160206172a35f395f51905f525416604051908152f35b346103c9576020611286612f84366103cd565b611d676116206152f8565b346103c95760203660031901126103c9576020611286600435612fb1816103b8565b614770565b346103c95760203660031901126103c957600435612fd3816103b8565b7f00000000000000000000000000000000000000000000000000000000000000006001600160a01b0316330361324c5761300f61042b8261369d565b604081019161302381845161044b816137db565b61302b6152f8565b906130368284614abc565b9361307461305461304f875463ffffffff9060d01c1690565b616761565b865463ffffffff60d01b191660d082901b63ffffffff60d01b1617909655565b613081846105278461369d565b6040516317c332e760e31b81527f00000000000000000000000000000000000000000000000000000000000000006001600160a01b03169490602081600481895afa8015610a285763ffffffff915f9161322d575b501663ffffffff87161461313c575b50506040805163ffffffff90951685526001600160401b0390921660208501526001600160a01b0316927ff30f0392d5346908bf200bc0924d0c9860e22d46fc606e979a2e14fff24c62b992509081908101610ea2565b60049460206131496152f8565b9160405197888092630d97cd9b60e31b82525afa928315610a28576131b86131a86131be9363ffffffff6131c7977ff30f0392d5346908bf200bc0924d0c9860e22d46fc606e979a2e14fff24c62b99b5f9161320e575b50169061453a565b6001600160401b03166080850152565b60039052565b611f648361691f565b6040516001600160401b03831681526001600160a01b038216907f6acc1079130362b805ce4a8874346d4ee8893d55f223e378ddc73031ce427eab90602090a25f806130e5565b613227915060203d602011611a9957611a8b8183611c57565b5f6131a0565b613246915060203d602011611a9957611a8b8183611c57565b5f6130d6565b635e2569d960e11b5f5260045ffd5b346103c9575f3660031901126103c9576132766122076152f8565b61328081516143d4565b905f5b815181101561229f576001906001600160a01b036132a18285613fb8565b51165f525f5160206171e35f395f51905f5260205260405f206001600160401b036002604051926132d184611c21565b6132da81614423565b845285810154602085015201541660408201526132f78286613fb8565b526133028185613fb8565b5001613283565b63ffffffff8116036103c957565b346103c95760403660031901126103c957602061334b60043561333981611415565b6024359061334682613309565b616779565b6040516001600160a01b039091168152f35b9081526001600160401b03909116602082015260400190565b346103c95761338d613387366103cd565b90614969565b906115bd6040519283928361335d565b346103c95760603660031901126103c9576004356133ba816103b8565b6133c26105bb565b90604435604051636f85684760e01b815290916020826004817f00000000000000000000000000000000000000000000000000000000000000006001600160a01b03165afa918215610a285761122c9461342c8561344c9581945f91613474575b50811015614a58565b61343c6402540be40083066107fb565b613444614a88565b923390614d0f565b30337f0000000000000000000000000000000000000000000000000000000000000000615007565b61348d915060203d602011610a2157610a138183611c57565b5f613423565b346103c957612b6f5f6134a536612a89565b97909691959294929091906001600160a01b036134c061608d565b1690604051809b819482936327e7ff4b60e01b84526020600485018181520191613d37565b346103c9575f3660031901126103c9575f5160206172e35f395f51905f52546040516001600160a01b039091168152602090f35b346103c95760203660031901126103c957600435613536816103b8565b61353e615c77565b5f5160206172e35f395f51905f5280546001600160a01b0319166001600160a01b039283169081179091555f5160206172235f395f51905f52549091167f38d16b8cac22d99fc7c124b9cd0de2d3fa1faef420bfe791d8c362d765e227005f80a3005b346103c95760203660031901126103c9576004356135be816103b8565b6001600160a01b03165f9081525f5160206172635f395f51905f52602052604090206001015460a01c60ff166004811015612e20576040519015158152602090f35b346103c95761122c61361136611426565b906136256001600160401b03612e096152f8565b3390615423565b346103c95760203660031901126103c957600435613649816103b8565b6001600160a01b0381165f9081525f5160206172635f395f51905f5260205260409020600181015460a01c60ff166004811015612e205761122c9261368f911515613870565b6136976152f8565b90616550565b6001600160a01b03165f9081525f5160206172635f395f51905f526020526040902090565b6001600160a01b03165f9081527f4102a9ba7244b40639ebe412c7bfc792b19c048efdf631bf4f130fef80c0df016020526040902090565b6001600160a01b03165f9081527f4102a9ba7244b40639ebe412c7bfc792b19c048efdf631bf4f130fef80c0df036020526040902090565b6001600160a01b03165f9081527f96610efdc8a37de390ea3757bf0331faa3a74708adc53f30ba708302b0f558006020526040902090565b6001600160a01b03165f9081525f5160206171e35f395f51905f526020526040902090565b6001600160a01b03165f9081527f4102a9ba7244b40639ebe412c7bfc792b19c048efdf631bf4f130fef80c0df046020526040902090565b634e487b7160e01b5f52602160045260245ffd5b60041115612e2057565b6004821015612e205752565b90611c8760405161380181611c01565b60a061386260028396600180851b0381541685526001600160401b03806001830154600180881b038116602089015261384260ff82891c1660408a016137e5565b60a81c1616606086015201546001600160401b038116608085015261117f565b6001600160401b0316910152565b156138785750565b635a4887e160e01b5f9081526001600160a01b0391909116600452602490fd5b156138a05750565b6359de29ed60e01b5f9081526001600160a01b0391909116600452602490fd5b156138c757565b6352afe97760e11b5f5260045ffd5b156138de5750565b63b5202b6360e01b5f9081526001600160a01b0391909116600452602490fd5b5f5160206172e35f395f51905f5280546001600160a01b0319169055565b80546001600160a01b0360039390931b83811b199091169290931690921b179055565b80546001600160a01b0319166001600160a01b03909216919091179055565b634e487b7160e01b5f525f60045260245ffd5b906001600160401b03166001600160401b0319825416179055565b805467ffffffffffffffff60401b191660409290921b67ffffffffffffffff60401b16919091179055565b81519091906139cf906001600160a01b03168361393f565b60208101516001830192906139ed906001600160a01b03168461393f565b60408201516004811015612e20578354606084015167ffffffffffffffff60a81b60a89190911b1668ffffffffffffffffff60a01b1990911660ff60a01b60a093841b161717909355611c8792613a6d9160020192613a5f613a5960808301516001600160401b031690565b85613971565b01516001600160401b031690565b9061398c565b60ff909116815261ffff909116602082015260400190565b15613a9257565b63612acc3960e11b5f5260045ffd5b634e487b7160e01b5f52603260045260245ffd5b9190811015613ac55760051b0190565b613aa1565b356103f2816103b8565b634e487b7160e01b5f52601160045260245ffd5b9060018201809211613af657565b613ad4565b91908201809211613af657565b93929193613b146167f0565b613b1c6167f0565b613b246167f0565b6001600160a01b03811615613bff57613b4290959493929195615c97565b613b4a6167f0565b613b526167f0565b613b5d838314613a8b565b5f945f945b848610613ba35750505050505080613b775750565b611c879030337f0000000000000000000000000000000000000000000000000000000000000000615007565b909192939495613bf3600191613be1613bc061250f8b8b89613ab5565b85613bcf61250f8d8d8b613ab5565b613bda8d8c8c613ab5565b3592614ea2565b613bec898888613ab5565b3590613afb565b96019493929190613b62565b631e4fbdf760e01b5f525f60045260245ffd5b15613c1a5750565b61ffff906368ec6e2560e11b5f521660045260245ffd5b80546001600160f01b031660f09290921b6001600160f01b031916919091179055565b15613c5b57565b6354348f0360e01b5f5260045ffd5b90600182811c92168015613c98575b6020831014613c8457565b634e487b7160e01b5f52602260045260245ffd5b91607f1691613c79565b6103f29054613c6a565b908160209103126103c957516103f2816103b8565b6040513d5f823e3d90fd5b81601f820112156103c957805190613ce382611cb7565b92613cf16040519485611c57565b828452602083830101116103c957815f9260208093018386015e8301015290565b906020828203126103c95781516001600160401b0381116103c9576103f29201613ccc565b908060209392818452848401375f828201840152601f01601f1916010190565b9160206103f2938181520191613d37565b60405190613d77606083611c57565b602b82526a5357555f524f5f504f505f60a81b6040837f424c535f504f505f424c53313233383147315f584d443a5348412d3235365f5360208201520152565b908160209103126103c9575180151581036103c95790565b959391613e1e93613e02613e1092613df46103f29b999560a08c5260a08c019061211e565b908a820360208c015261211e565b9088820360408a015261211e565b918683036060880152613d37565b926080818503910152613d37565b818110613e37575050565b5f8155600101613e2c565b9190601f8111613e5157505050565b611c87925f5260205f20906020601f840160051c83019310613e7b575b601f0160051c0190613e2c565b9091508190613e6e565b91909182519283516001600160401b038111611c1c57613eaf81613ea98554613c6a565b85613e42565b6020601f8211600114613f1757600292613eea83613f0594604094611c87999a5f92613f0c575b50508160011b915f199060031b1c19161790565b85555b6020810151600186015501516001600160401b031690565b9101613971565b015190505f80613ed6565b601f19821695613f2a855f5260205f2090565b965f5b818110613f74575083611c87979860409460029794613f059760019510613f5c575b505050811b018555613eed565b01515f1960f88460031b161c191690555f8080613f4f565b83830151895560019098019760209384019301613f2d565b9193926001600160401b0390613fac60409360608652606086019061211e565b95602085015216910152565b8051821015613ac55760209160051b010190565b6001600160a01b03165f8181525f5160206172635f395f51905f526020526040902060019081015460a01c60ff16614003816137db565b03614052576140136122076152f8565b905f5b825181101561404b57816001600160a01b036140356104d18487613fb8565b161461404357600101614016565b505050600190565b5050505f90565b505f90565b60018060a01b03165f525f5160206172635f395f51905f5260205260405f206040519061408382611c01565b80546001600160a01b0390811683526001820154908116602084015260408301916140fe916140ee916002916140d8906140c89061114e60a082901c60ff16896137e5565b6001600160401b03166060880152565b01546001600160401b038116608086015261117f565b6001600160401b031660a0840152565b51614108816137db565b614111816137db565b15614052576103f2906141226152f8565b90615720565b906402540be4008202918083046402540be4001490151715613af657565b81810292918115918404141715613af657565b90916001600160a01b037f00000000000000000000000000000000000000000000000000000000000000001630811490811561423c575b50611dc45761419d615c77565b6040516352d1902d60e01b8152926020846004816001600160a01b0387165afa5f948161421b575b506141e657634c9c8ce360e01b5f526001600160a01b03831660045260245ffd5b90915f5160206172835f395f51905f52840361420757611c87929350616c0c565b632a87526960e21b5f52600484905260245ffd5b61423591955060203d602011610a2157610a138183611c57565b935f6141c5565b5f5160206172835f395f51905f52546001600160a01b0316141590505f614190565b156142665750565b631bceedfb60e11b5f9081526001600160a01b0391909116600452602490fd5b1561428e5750565b633a4541ef60e01b5f9081526001600160a01b0391909116600452602490fd5b5f5160206171a35f395f51905f5254811015613ac5575f5160206171a35f395f51905f525f5260205f2001905f90565b8054821015613ac5575f5260205f2001905f90565b5f5160206171a35f395f51905f525490600160401b821015611c1c57600182015f5160206171a35f395f51905f52555f5160206171a35f395f51905f5254821015613ac5575f5160206171a35f395f51905f525f908152611c87927f024be1d688fec05d4c3e9aeb5eac4f8c1e7d5bd030a2d0a8bafafba39f7f7ac90161391c565b80549190600160401b831015611c1c5782614398916001611c87950181556142de565b9061391c565b6001600160401b038111611c1c5760051b60200190565b604051906143c282611c21565b5f604083606081528260208201520152565b906143de8261439e565b6143eb6040519182611c57565b82815280926143fc601f199161439e565b01905f5b82811061440c57505050565b6020906144176143b5565b82828501015201614400565b9060405191825f82549261443684613c6a565b808452936001811690811561449f575060011461445b575b50611c8792500383611c57565b90505f9291925260205f20905f915b818310614483575050906020611c87928201015f61444e565b602091935080600191548385890101520191019091849261446a565b905060209250611c8794915060ff191682840152151560051b8201015f61444e565b6001600160401b036001911601906001600160401b038211613af657565b6001600160401b036002911601906001600160401b038211613af657565b6001600160401b036008911601906001600160401b038211613af657565b6001600160401b036103e8911601906001600160401b038211613af657565b906001600160401b03809116911601906001600160401b038211613af657565b6001600160401b035f19911601906001600160401b038211613af657565b906001600160401b03809116911603906001600160401b038211613af657565b5f198114613af65760010190565b60208082528101839052604001915f5b8181106145c35750505090565b90919260208060019286356145d7816103b8565b848060a01b0316815201940191019190916145b6565b5190611c8782611415565b5190611c8782613309565b519060ff821682036103c957565b6020818303126103c9578051906001600160401b0382116103c95701610100818303126103c957614640611c98565b9161464a826145ed565b8352614658602083016145f8565b602084015261466960408301614603565b604084015260608201516001600160401b0381116103c9578161468d918401613ccc565b606084015260808201516001600160401b0381116103c957816146b1918401613ccc565b60808401526146c260a08301614603565b60a084015260c08201516001600160401b0381116103c957816146e6918401613ccc565b60c084015260e08201516001600160401b0381116103c9576147089201613ccc565b60e082015290565b9060405161471d81611c3c565b91546001600160601b0381168352606081811c6001600160701b0316602085015260d082901c63ffffffff16604085015260f09190911c90830152565b1561476157565b635071536360e11b5f5260045ffd5b60018060a01b03165f525f5160206172635f395f51905f5260205260405f206040519061479c82611c01565b80546001600160a01b0390811683526001820154908116602084015260408301916147e1916140ee916002916140d8906140c89061114e60a082901c60ff16896137e5565b516147eb816137db565b6147f4816137db565b15614052576103f290614122614a88565b90604051604081018181106001600160401b03821117611c1c5760405291546001600160701b038116835260701c6001600160401b03166020830152565b90815461484f8161439e565b9261485d6040519485611c57565b81845260208401905f5260205f205f915b83831061487b5750505050565b60016020819261488a85614805565b81520192019201919061486e565b906040516148a581611c3c565b809280546148b28161439e565b906148c06040519283611c57565b80825260208201835f5260205f205f915b838310614931575050505061386260038493606093611c87965261491261490260018301546001600160401b031690565b6001600160401b03166020870152565b61491e60028201614843565b604086015201546001600160401b031690565b60016020819261494085614805565b8152019201920191906148d1565b5f19810191908211613af657565b91908203918211613af657565b906108b5614976926136fa565b6040519061498382611c3c565b805461498e8161439e565b9061499c6040519283611c57565b80825260208201835f5260205f205f915b838310614a2c575050505060036149eb926149db92855261491261490260018301546001600160401b031690565b6001600160401b03166060830152565b518051908115614a2457614a01614a079261494e565b90613fb8565b51906103f260206115196114d4610871865160018060701b031690565b50505f905f90565b600160208192614a3b85614805565b8152019201920191906149ad565b908160209103126103c9575190565b15614a605750565b630a30df6160e11b5f5260045260245ffd5b15614a7957565b634b5d6ee760e11b5f5260045ffd5b6103f26116206152f8565b8054600160601b600160d01b03191660609290921b600160601b600160d01b0316919091179055565b8051614ad6908390611749906001600160a01b031661378f565b805490929060601c6001600160701b0316614b7e57614b48614b426060614b2161278982614b0d612be3895160018060a01b031690565b97019661277488516001600160401b031690565b6020810151614b39906001600160701b031688614a93565b015161ffff1690565b84613c31565b614b5c6117dc83516001600160401b031690565b6001600160401b03821611614b7057505090565b6001600160401b0316905290565b505090565b15614b8a57565b632808647560e11b5f5260045ffd5b15614ba057565b639905827b60e01b5f5260045ffd5b15614bb657565b63d5b25b6360e01b5f5260045ffd5b15614bcd5750565b63164688df60e21b5f9081526001600160a01b0391909116600452602490fd5b8115614bf7570490565b634e487b7160e01b5f52601260045260245ffd5b815181546001600160601b0319166001600160601b0391909116178155611c879161ffff906060906020810151614c4b906001600160701b031685614a93565b6040810151845463ffffffff60d01b191660d09190911b63ffffffff60d01b1617845501511690613c31565b15614c7f5750565b634168a4a560e11b5f5260045260245ffd5b8151815460209093015167ffffffffffffffff60701b60709190911b166001600160b01b03199093166001600160701b0390911617919091179055565b9190614cdd57611c8791614c91565b61395e565b8054600160401b811015611c1c57614cff916001820181556142de565b919091614cdd57611c8791614c91565b91614e705f5160206171c35f395f51905f5293614d62966109d561176d614e88966108b5614e30610871614d4f9c60018060a01b0389169d8e1515614b83565b6001600160a01b0385169e8f1515614b99565b614d726402540be40082066107fb565b6001600160401b03881680614e8d575b50614d968b610bb861ffff82161115613c12565b614dfb614da561042b8b61369d565b614de360028c614dcf6040850191614dc2818451611691816137db565b6001600160a01b03168552565b6001600160a01b038a1660208501526137e5565b6001600160401b038a1660608201526105278b61369d565b614e0e896104cb6104bf6104b2896136c2565b614e1b89610504876136c2565b614e2560026137db565b6402540be400900490565b95614e6b614e3c611ca8565b5f81526001600160701b03891660208201525f604082015261ffff8b16606082015261175f886117498561378f565b6136fa565b614e7a60026137db565b604051918291600283613a73565b0390a3565b614e9c906117e86117dc614a88565b5f614d82565b6001600160a01b038116925f5160206171c35f395f51905f5292614e8892614fef91614fcd90614ed3881515614b83565b6001600160a01b038116986108b590614f929061087190614ef58d1515614b99565b614f056402540be40082066107fb565b614f1889610bb861ffff82161115613c12565b614f5f614f2761042b8961369d565b614f50600160408301614f3f8c8251611691816137db565b6001600160a01b038c168452614dcf565b5f60608201526105278961369d565b614f72876104cb6104bf6104b2896136c2565b614f7f87610504876136c2565b614f8960016137db565b614e25876142f3565b93614e6b614f9e611ca8565b5f81526001600160701b03871660208201525f604082015261ffff8916606082015261175f5f6117498561378f565b614fd981548015614c77565b614fe46109b2611c78565b5f6020830152614ce2565b614ff960016137db565b604051918291600183613a73565b6040516323b872dd60e01b60208201526001600160a01b039283166024820152929091166044830152606480830193909352918152611c879161504b608483611c57565b61681b565b156150585750565b637640cbd760e01b5f5260045260245ffd5b6001600160701b039182169082160191908211613af657565b60405163eea9a01b60e01b8152919291906020826004817f00000000000000000000000000000000000000000000000000000000000000006001600160a01b03165afa918215610a28577f30bcda2f188b532c7644e632473e83a6fb3c5c79717650d0ac790d141bb1b1779284915f91615234575b50811015908161522a575b61510c91615050565b61511c6402540be40084066107fb565b61512861042b8561369d565b9061513b85604084015161044b816137db565b61514661084e6152f8565b916151546108618483614abc565b615161826108b5886136fa565b80541561521a576151756108de825461494e565b5090815461518d816001600160401b039060701c1690565b6001600160401b038781169116106151db57505080546151b992610928916001600160701b031661506a565b6040516001600160a01b03918216959091169390918291614e8891908361335d565b615215939192506151f591906001600160701b031661506a565b906152016109b2611c78565b6001600160401b0385166020830152614ce2565b6151b9565b90615215916152016109b2611c78565b8015159150615103565b61524d915060203d602011610a2157610a138183611c57565b5f6150f8565b1561525a57565b63098a8cbb60e41b5f5260045ffd5b6040516e464c55454e545f44504f535f56315f60881b60208201524660c01b6001600160c01b031916602f820152601781526103f2603782611c57565b156152ae5750565b6375687d0f60e11b5f9081526001600160a01b0391909116600452602490fd5b908160209103126103c957516103f281611415565b908160209103126103c957516103f281613309565b604051631454a0a560e31b81527f00000000000000000000000000000000000000000000000000000000000000006001600160a01b031690602081600481855afa8015610a28576001600160401b03915f916153c3575b5016908143106153bd5760206153676004934361495c565b916040519384809263068d921560e31b82525afa908115610a285763ffffffff6117dc926103f2945f9161539e575b501690614bed565b6153b7915060203d602011611a9957611a8b8183611c57565b5f615396565b50505f90565b6153e5915060203d6020116153eb575b6153dd8183611c57565b8101906152ce565b5f61534f565b503d6153d3565b6001600160401b03166001600160401b038114613af65760010190565b90614cdd575f9055565b60021115612e2057565b92919261543d615436836108b5846136fa565b94856169cf565b935f94600182019461545686546001600160401b031690565b918354956001600160401b0382165b6001600160401b03851698888a101561570b576154856126f587896142de565b9960208b0199836154a06117dc8d516001600160401b031690565b10156156f4575f6154b08261494e565b83106156d6575b6154cb6117dc8d516001600160401b031690565b85811090816156b7575b501561557d578c9d8c9d6154f36127898f8f6127666127749161378f565b6020810180519092919061550f906001600160701b0316610871565b1561556d57926127fa6117dc936127f46108716127e661553b966127e06108716127d06154cb9c616a66565b9d5b61556161555461281983516001600160401b031690565b6001600160401b03168252565b5050509c9b9a9c6154b7565b5050509b6117dc6154cb9161553d565b50989a919395979950959193956155938961494e565b11156155b95750806128196128666155ab938b6142de565b959694929097959391615465565b889597506155d59061288b836155da9697999d9b9594956142de565b613971565b600382019060026155f283546001600160401b031690565b93018054915b826001600160401b0386161061564c575b5050507fb22dec804803f8b1c5333f626cdbfdfb1bd629f1e1bb45dcfb22b5f74ed46b1c93929161563991613971565b6156425f615419565b6151b98482616b9c565b9091939661565d6126f589856142de565b826156756117dc60208401516001600160401b031690565b116156af57516156a791615699916127fa906114d4906001600160701b0316610871565b9761281961286682866142de565b9391906155f8565b509693615609565b90508180159182156156cc575b50505f6154d5565b109050815f6156c4565b506156ef6117dc612a126156e98b6144c1565b8c6142de565b6154b7565b505090939997506155da9296985094939094613971565b90939997506155da9296985094939094613971565b905f5b60a083016001600160401b038151166001600160401b03841611156157b15761577e612789615783926001600160401b0361576660018060a01b0389511661378f565b9151166001600160401b03165f5260205260405f2090565b616a66565b5090508101809111613af6579260a083016001600160401b036157a8818351166153f2565b16905292615723565b5091505090565b6001600160601b039182169082160191908211613af657565b604051906157de82611c3c565b5f6060838281528260208201528260408201520152565b90615817906158026157d1565b508251611749906001600160a01b031661378f565b906040519161582583611c3c565b546001600160601b0381168352606081811c6001600160701b039081166020860181815260d085901c63ffffffff16604088015260f09490941c928601928352919291166158c15760606158b991614b396158a66127898761277486615897612be36103f29c5160018060a01b031690565b9201516001600160401b031690565b60208101516001600160701b0316909252565b61ffff169052565b50505090565b156158ce57565b631e9acf1760e31b5f5260045ffd5b6001600160701b039182169082160391908211613af657565b156158fd57565b631022580160e11b5f5260045ffd5b919061591e615923916108b5856136fa565b614898565b925f9360208101905b81516001600160401b03169581519687516001600160401b0382161015615bc2576001600160401b0394959697614a0161596c926001600160401b031690565b5194602086019661598488516001600160401b031690565b868216968791161015615b0a575f936159a486516001600160401b031690565b6001600160401b036159b783515161494e565b911610615acf575b925b6159d56117dc8a516001600160401b031690565b8781109081615ab0575b5015615a7b57615a046127896159f48c61378f565b8b516001600160401b0316612774565b60208101805190918a91615a20906001600160701b0316610871565b15615a7257916127f46108716127e66127fa946127e06108716127d0615a469a99616a66565b925b615a6c615a5f6128198b516001600160401b031690565b6001600160401b03168a52565b926159c1565b50505092615a48565b9550955095509050615aa7615a9a61281984516001600160401b031690565b6001600160401b03168352565b9493919461592c565b9050858015918215615ac5575b50505f6159df565b109050855f615abd565b9350615b046117dc6020615af58751614a016117dc6116208c516001600160401b031690565b5101516001600160401b031690565b936159bf565b9550935094509450505b6040606085019401925b84516001600160401b031684519081516001600160401b0382161015615bb857615b5191906001600160401b0316614a01565b5160208101516001600160401b03858116911611615bb05751615b8591906127fa906114d4906001600160701b0316610871565b92615baa615b9d61281987516001600160401b031690565b6001600160401b03168652565b92615b1e565b509350915050565b5050925092505090565b509450945050615b14565b906402540be4008204916402540be4008302928084046402540be4001490151715613af65760405163eea9a01b60e01b8152836020826004817f00000000000000000000000000000000000000000000000000000000000000006001600160a01b03165afa918215610a28575f92615c56575b5010615c5057826103f29161495c565b5f925090565b615c7091925060203d602011610a2157610a138183611c57565b905f615c40565b5f5160206172235f395f51905f52546001600160a01b0316330361204757565b615c9f6138fe565b5f5160206172235f395f51905f5280546001600160a01b039283166001600160a01b0319821681179092559091167f8be0079c531659141344cd1fd0a4f28419497f9722a3daafe3b4186f6b6457e05f80a3565b90615cfd8261439e565b615d0a6040519182611c57565b8281528092615d1b601f199161439e565b0190602036910137565b5f5160206171a35f395f51905f525490615d3e82615cf3565b915f5b818110615e9557506040516306598de160e31b81526020816004817f00000000000000000000000000000000000000000000000000000000000000006001600160a01b03165afa8015610a285763ffffffff915f91615e76575b501691818311615e6d575b5f5b838110615db757505050815290565b80615dcb61042b610ad36104d1858a613fb8565b615dd483613ae8565b858110615e2a57505090615e24600192615e0f615df46104d1858b613fb8565b91615e1e615e056104d1838d613fb8565b615e0f878d613fb8565b6001600160a01b039091169052565b89613fb8565b01615da8565b615e3d61042b610ad36104d1848c613fb8565b615e478684616cae565b615e518783616cae565b11615e60575b50600101615dd4565b9092509050816001615e57565b91508091615da6565b615e8f915060203d602011611a9957611a8b8183611c57565b5f615d9b565b80615ec6615ebc615ea76001946142ae565b905460039190911b1c6001600160a01b031690565b615e0f8388613fb8565b01615d41565b6001905d565b80545f825580615ee0575050565b611c87915f5260205f2090810190613e2c565b604051635e7b72ad60e01b81526020816004817f00000000000000000000000000000000000000000000000000000000000000006001600160a01b03165afa908115610a2857615f519163ffffffff915f9161606e575b50166144fd565b906001600160401b0382166001600160401b038216111561606a57615f7e91615f7991614578565b61455a565b90615fa15f5160206172a35f395f51905f52546001600160401b039060401c1690565b906001600160401b035f9316915b826001600160401b038216111580616057575b1561603c5761600081615ff6616006935f5160206172035f395f51905f52906001600160401b03165f5260205260405f2090565b5461600c576153f2565b936153f2565b92615faf565b612819616037825f5160206172035f395f51905f52906001600160401b03165f5260205260405f2090565b615ed2565b909250611c8791505f5160206172a35f395f51905f5261398c565b5060106001600160401b03851610615fc2565b5050565b616087915060203d602011611a9957611a8b8183611c57565b5f615f4a565b60405163e2cf72f960e01b81526020816004817f00000000000000000000000000000000000000000000000000000000000000006001600160a01b03165afa908115610a28575f916160fc575b506001600160a01b031680156160ed5790565b6339082be360e21b5f5260045ffd5b616115915060203d602011610f5857610f4a8183611c57565b5f6160da565b6040519061612a606083611c57565b602b82526a5357555f524f5f504f505f60a81b6040837f424c535f5349475f424c53313233383147315f584d443a5348412d3235365f5360208201520152565b949395909592919261619761618687516001600160401b031690565b602088015163ffffffff1690616779565b966161a4610cd289613732565b616534576161b96161b48961376a565b614423565b9160608351036165185760405163c6b904ad60e01b81526020816004817f00000000000000000000000000000000000000000000000000000000000000006001600160a01b03165afa908115610a28575f916164f9575b506001600160a01b0316928315610f21576040516352e96e9160e11b81525f818061623f8b8860048401613d57565b0381885afa908115610a28575f916164df575b50602081519101209060208151910120036164d0576040516308f4980560e41b81525f8180616285858a60048401613d57565b0381875afa908115610a28575f916164b6575b50602081519101206080890151602081519101201480159061644f575b6163f6576020906162d26162cd60408b015160ff1690565b616cf7565b616301888560608d0151946162e561611b565b9a6040519b8c978897638bf2613360e01b895260048901613dcf565b0381855afa938415610a28575f9461642f575b506020939461635a61632d6162cd60a08b015160ff1690565b9160c08a01519361633c61611b565b966040519a8b9889978897638bf2613360e01b895260048901613dcf565b03915afa918215610a28575f9261640e575b5015908115616405575b506163f6576163ae9061639861638b84613732565b805460ff19166001179055565b6163a183616db5565b516001600160401b031690565b6040516001600160401b03909116815233916001600160a01b0316907f91e56833d0814e74403082df728a38a2de915f4658a3f5bb4082e926f4ae6d03908060208101614e88565b631fa0273560e21b5f5260045ffd5b9050155f616376565b61642891925060203d602011610eeb57610edd8183611c57565b905f61636c565b6020945061644990853d8711610eeb57610edd8183611c57565b93616314565b506040516308f4980560e41b81525f818061646e888c60048401613d57565b0381875afa908115610a28575f9161649c575b506020815191012060e08901516020815191012014156162b5565b6164b091503d805f833e610f0f8183611c57565b5f616481565b6164ca91503d805f833e610f0f8183611c57565b5f616298565b6376e84d2d60e11b5f5260045ffd5b6164f391503d805f833e610f0f8183611c57565b5f616252565b616512915060203d602011610f5857610f4a8183611c57565b5f616210565b63aa0f4bb560e01b5f526001600160a01b03891660045260245ffd5b638300031d60e01b5f526001600160a01b03881660045260245ffd5b600281019161656a83546001600160401b039060401c1690565b916165748361451b565b6001600160401b0383166001600160401b03821610616731575b505f935f93905b6001600160401b0384166001600160401b038316106166e857906165b89161398c565b60018101546165d19085906001600160a01b0316616b9c565b8261661c575b547fb947d7b49cedaf132fd7a9592099c21170864455405d51b4825032441532410092506001600160a01b0390811616926166176040519283928361335d565b0390a2565b7f00000000000000000000000000000000000000000000000000000000000000006001600160a01b031661667184827f0000000000000000000000000000000000000000000000000000000000000000616e91565b803b156103c95760405163b6b55f2560e01b815260048101949094525f908490602490829084905af1928315610a28577fb947d7b49cedaf132fd7a9592099c21170864455405d51b48250324415324100936166ce575b506165d7565b806166dc5f6166e293611c57565b80610fe8565b5f6166c8565b90939460016167286001600160401b039261672261671961577e6127898b611749612be38c5460018060a01b031690565b93909150613afb565b98613afb565b95011690616595565b91505f61658e565b156167415750565b63403f6f6f60e11b5f9081526001600160a01b0391909116600452602490fd5b63ffffffff60019116019063ffffffff8211613af657565b6001600160401b03165f8181525f5160206172035f395f51905f5260205260409020805493929184156167de5763ffffffff831690858210156167c3575050615ea79293506142de565b859250632fdbfd3160e21b5f5260045260245260445260645ffd5b6316b38b6f60e01b5f5260045260245ffd5b60ff5f5160206172c35f395f51905f525460401c161561680c57565b631afcd79f60e31b5f5260045ffd5b5f806168439260018060a01b03169360208151910182865af161683c616f81565b9083617144565b8051908115159182616879575b50506168595750565b635274afe760e01b5f9081526001600160a01b0391909116600452602490fd5b61688c9250602080918301019101613db7565b155f80616850565b5f5160206171a35f395f51905f5254801561690b575f198101905f5160206171a35f395f51905f5254821015613ac5575f5160206171a35f395f51905f525f8190527f024be1d688fec05d4c3e9aeb5eac4f8c1e7d5bd030a2d0a8bafafba39f7f7ac890910180546001600160a01b031916905555565b634e487b7160e01b5f52603160045260245ffd5b5f195f905f5160206171a35f395f51905f5254925b83831061699d575b5090505f81121561694b575050565b600182118061698b575b616964575b5050611c87616894565b61439861697e615ea76169796169849561494e565b6142ae565b916142ae565b5f8061695a565b506169958261494e565b811415616955565b6169a9615ea7846142ae565b6001600160a01b038281169116036169c4575050805f61693c565b600190920191616934565b60018101546001600160401b031681546001600160401b0382161015616a2957612a126169ff91616a04936142de565b61451b565b906001600160401b0381166001600160401b038316105f14616a24575090565b905090565b506002616a4060038301546001600160401b031690565b91019081546001600160401b038216105f14614b7e57612a126169ff91616a04936142de565b604081015163ffffffff16604051639dbf97db60e01b81526020816004817f00000000000000000000000000000000000000000000000000000000000000006001600160a01b03165afa908115610a285763ffffffff9182915f91616b7d575b5016911610616af15751616aea906001600160601b03165b6001600160601b031690565b5f915f9190565b60208101516001600160701b031615616b6457616b5f616ade91616b5a616b48616b40616b27616ade855160018060601b031690565b6127e0616b39606087015161ffff1690565b61ffff1690565b612710900490565b9151919384926001600160601b031690565b61495c565b915f90565b51616b77906001600160601b0316616ade565b5f918290565b616b96915060203d602011611a9957611a8b8183611c57565b5f616ac6565b9080616ba6575050565b60405163a9059cbb60e01b60208201526001600160a01b0390921660248301526044820152611c8790616be681606481015b03601f198101835282611c57565b7f000000000000000000000000000000000000000000000000000000000000000061681b565b90813b15616c8d575f5160206172835f395f51905f5280546001600160a01b0319166001600160a01b0384169081179091557fbc7cd75a20ee27fd9adebab32041f755214dbc6bffa90cc0225b39da2e5c2d3b5f80a2805115616c7557616c7291616fb0565b50565b505034616c7e57565b63b398979f60e01b5f5260045ffd5b50634c9c8ce360e01b5f9081526001600160a01b0391909116600452602490fd5b6001600160701b0391602091616cc49190616fcd565b0151166402540be4008102908082046402540be4001490151715613af65790565b805191908290602001825e015f815290565b60ff616d01615269565b91168015616d7d57600114616d47576103f26009616d29926040519384916020830190616ce5565b685f46494e414c495a4560b81b815203601619810184520182611c57565b6103f26008616d60926040519384916020830190616ce5565b675f4e554c4c49465960c01b815203601719810184520182611c57565b506103f26009616d97926040519384916020830190616ce5565b685f4e4f544152495a4560b81b815203601619810184520182611c57565b60018060a01b03811690815f525f5160206172635f395f51905f52602052616ddf60405f206137f1565b90604082018051616def816137db565b616df8816137db565b15616e7e57616e2a929160038260016105279451616e15816137db565b616e1e816137db565b14616e70575b5261369d565b7f6acc1079130362b805ce4a8874346d4ee8893d55f223e378ddc73031ce427eab616617616e566152f8565b6040516001600160401b0390911681529081906020820190565b616e798361691f565b616e24565b83635a4887e160e01b5f5260045260245ffd5b60405163095ea7b360e01b602082019081526001600160a01b03841660248301526044808301959095529381529192616efe90616ecf606485611c57565b83516001600160a01b038416915f91829182855af190616eed616f81565b82616f4f575b5081616f4857501590565b616f0757505050565b60405163095ea7b360e01b60208201526001600160a01b0390931660248401525f6044840152611c879261504b90616f428160648101616bd8565b8261681b565b3b15919050565b80519192508115918215616f67575b5050905f616ef3565b616f7a9250602080918301019101613db7565b5f80616f5e565b3d15616fab573d90616f9282611cb7565b91616fa06040519384611c57565b82523d5f602084013e565b606090565b5f806103f293602081519101845af4616fc7616f81565b91617144565b90616fd66157d1565b506060820190616fed82516001600160401b031690565b6001600160401b0381166001600160401b038316101561713d57505b6001600160401b03811680156171115783516001600160a01b03165f9081527f4102a9ba7244b40639ebe412c7bfc792b19c048efdf631bf4f130fef80c0df046020526040902061705f90612789908490611749565b906170746117dc85516001600160401b031690565b1480156170fb575b80156170e8575b80156170cd575b80156170ae575b6170a757505f19016001600160401b0316617009565b9250505090565b5063ffffffff6170c5604083015163ffffffff1690565b161515617091565b5061ffff6170e0606083015161ffff1690565b16151561708a565b5080516001600160601b03161515617083565b5060208101516001600160701b0316151561707c565b505090516103f2915061278990617130906001600160a01b031661378f565b5f805260205260405f2090565b9050617009565b90617168575080511561715957805190602001fd5b630a12f52160e11b5f5260045ffd5b81511580617199575b617179575090565b639996b31560e01b5f9081526001600160a01b0391909116600452602490fd5b50803b1561717156fe4102a9ba7244b40639ebe412c7bfc792b19c048efdf631bf4f130fef80c0df0242449fd19d367b0177da9082fe6da7d4da41af7573e3a3c1750ecffeffe26f9df295d610a4116363064013aa5e1168427c6b907b208d8be559665c0e7adec5008f1c49778ec45f03e87f0e3e1567785ab335a882d8dad6d5c44cb7ae509684009016d09d72d40fdae2fd8ceac6b6234c7706214fd39c1cd1e609a0528c199300c00107e0d011ac7c8e4dfa18e3dd3623ff151f8bfcc3821cd39bc114bd6504d94102a9ba7244b40639ebe412c7bfc792b19c048efdf631bf4f130fef80c0df00360894a13ba1a3210667c828492db98dca3e2076cc3735a920a3ca505d382bbc8f1c49778ec45f03e87f0e3e1567785ab335a882d8dad6d5c44cb7ae50968401f0c57e16840df040f15088dc2f81fe391c3923bec73e23a9662efc9c229c6a00237e158222e3e6968b72b9db0d8043aacf074ad9f650f0d1606b4d82ee432c00a26469706673582212207d4ed7a9511b4f56d2b610405129d6d87e72a110e41fab59cf490dbe422fcf1b64736f6c634300081e0033f0c57e16840df040f15088dc2f81fe391c3923bec73e23a9662efc9c229c6a00","linkReferences":{}},"methodIdentifiers":{"UPGRADE_INTERFACE_VERSION()":"ad3cb1cc","acceptOwnership()":"79ba5097","activateValidator(address)":"b46e5520","addValidator(address)":"4d238c8e","calcAvailableForRedelegateAmount(address,address)":"5ef9e8c6","changeValidatorCommissionRate(address,uint16)":"14f8649f","changeValidatorOwner(address,address)":"0052c9e1","claimDelegatorFee(address)":"426594b1","claimDelegatorFeeAtEpoch(address,uint64)":"fe38ebef","claimValidatorFee(address)":"ff4794fc","claimValidatorFeeAtEpoch(address,uint64)":"adf2a79c","commitEpochCommittee(address[])":"87401d8a","committeeSelectionEpoch()":"8bd070e4","currentEpoch()":"76671808","delegate(address,uint256)":"026e402b","deposit(address,uint256)":"47e7ef24","disableValidator(address)":"1fe97684","getChainConfig()":"606c0c94","getConsensusKeys(address)":"ad36f42f","getDelegatorFee(address,address)":"52b7bea2","getEpochCommittee(uint64)":"80b562de","getGovernance()":"289b3c0d","getPendingDelegatorFee(address,address)":"c2fd58fc","getPendingValidatorFee(address)":"c6fb9065","getStaking()":"7b1391a6","getStakingPool()":"45946334","getStakingToken()":"9f9106d1","getSystemReward()":"7a37cc59","getValidatorByOwner(address)":"30108c22","getValidatorDelegation(address,address)":"d951e186","getValidatorFee(address)":"457179fd","getValidatorStatus(address)":"a310624f","getValidatorStatusAtEpoch(address,uint64)":"48124d26","getValidators()":"b7ab4db5","getValidatorsWithKeys()":"d41c52eb","getValidatorsWithKeysAt(uint64)":"7cfba9f3","initialize(address,address[],uint256[],uint16)":"01f6bb50","isValidator(address)":"facd743b","isValidatorActive(address)":"42ad55ac","nextEpoch()":"aea0e78b","nextEpochToCommit()":"c06a82de","owner()":"8da5cb5b","pendingOwner()":"e30c3978","proxiableUUID()":"52d1902d","redelegateDelegatorFee(address)":"8ecb3fc9","registerValidator(address,uint16,uint256)":"dd0fb5df","releaseValidatorFromJail(address)":"73a3dda6","removeValidator(address)":"40a141ff","renounceOwnership()":"715018a6","resolveSigner(uint64,uint32)":"d7f1733d","setConsensusKeys(address,bytes,bytes,bytes32)":"225cba85","slash(address)":"c96be4cb","slashEquivocationFinalize(bytes,bytes,bytes,bytes)":"add07a3e","slashEquivocationNotarize(bytes,bytes,bytes,bytes)":"e28d2f63","slashEquivocationNullifyFinalize(bytes,bytes,bytes,bytes)":"a10827e9","transferOwnership(address)":"f2fde38b","undelegate(address,uint256)":"4d99dd16","upgradeToAndCall(address,bytes)":"4f1ef286"},"storageLayout":{"storage":[],"types":{}},"id":44}