{"abi":[{"type":"constructor","inputs":[{"name":"stakingContract","type":"address","internalType":"contract IStaking"},{"name":"systemRewardContract","type":"address","internalType":"contract ISystemReward"},{"name":"stakingPoolContract","type":"address","internalType":"contract IStakingPool"},{"name":"governanceContract","type":"address","internalType":"contract IFluentGovernance"},{"name":"chainConfigContract","type":"address","internalType":"contract IChainConfig"},{"name":"stakingToken","type":"address","internalType":"contract IERC20"},{"name":"livenessSlashingAddr","type":"address","internalType":"address"}],"stateMutability":"nonpayable"},{"type":"function","name":"UPGRADE_INTERFACE_VERSION","inputs":[],"outputs":[{"name":"","type":"string","internalType":"string"}],"stateMutability":"view"},{"type":"function","name":"acceptOwnership","inputs":[],"outputs":[],"stateMutability":"nonpayable"},{"type":"function","name":"activateValidator","inputs":[{"name":"validator","type":"address","internalType":"address"}],"outputs":[],"stateMutability":"nonpayable"},{"type":"function","name":"addValidator","inputs":[{"name":"account","type":"address","internalType":"address"}],"outputs":[],"stateMutability":"nonpayable"},{"type":"function","name":"beaconAssurance","inputs":[{"name":"epoch","type":"uint64","internalType":"uint64"}],"outputs":[{"name":"","type":"bool","internalType":"bool"}],"stateMutability":"view"},{"type":"function","name":"calcAvailableForRedelegateAmount","inputs":[{"name":"validator","type":"address","internalType":"address"},{"name":"delegator","type":"address","internalType":"address"}],"outputs":[{"name":"amountToStake","type":"uint256","internalType":"uint256"},{"name":"rewardsDust","type":"uint256","internalType":"uint256"}],"stateMutability":"view"},{"type":"function","name":"changeValidatorCommissionRate","inputs":[{"name":"validatorAddress","type":"address","internalType":"address"},{"name":"commissionRate","type":"uint16","internalType":"uint16"}],"outputs":[],"stateMutability":"nonpayable"},{"type":"function","name":"changeValidatorOwner","inputs":[{"name":"validatorAddress","type":"address","internalType":"address"},{"name":"newOwner","type":"address","internalType":"address"}],"outputs":[],"stateMutability":"nonpayable"},{"type":"function","name":"claimDelegatorFee","inputs":[{"name":"validatorAddress","type":"address","internalType":"address"}],"outputs":[],"stateMutability":"nonpayable"},{"type":"function","name":"claimDelegatorFeeAtEpoch","inputs":[{"name":"validatorAddress","type":"address","internalType":"address"},{"name":"beforeEpoch","type":"uint64","internalType":"uint64"}],"outputs":[],"stateMutability":"nonpayable"},{"type":"function","name":"claimValidatorFee","inputs":[{"name":"validatorAddress","type":"address","internalType":"address"}],"outputs":[],"stateMutability":"nonpayable"},{"type":"function","name":"claimValidatorFeeAtEpoch","inputs":[{"name":"validatorAddress","type":"address","internalType":"address"},{"name":"beforeEpoch","type":"uint64","internalType":"uint64"}],"outputs":[],"stateMutability":"nonpayable"},{"type":"function","name":"commitEpochBeaconKey","inputs":[{"name":"epoch","type":"uint64","internalType":"uint64"},{"name":"groupPubKey","type":"bytes","internalType":"bytes"}],"outputs":[],"stateMutability":"nonpayable"},{"type":"function","name":"commitEpochCommittee","inputs":[{"name":"committee","type":"address[]","internalType":"address[]"}],"outputs":[],"stateMutability":"nonpayable"},{"type":"function","name":"committeeSelectionEpoch","inputs":[],"outputs":[{"name":"","type":"uint64","internalType":"uint64"}],"stateMutability":"view"},{"type":"function","name":"currentEpoch","inputs":[],"outputs":[{"name":"","type":"uint64","internalType":"uint64"}],"stateMutability":"view"},{"type":"function","name":"delegate","inputs":[{"name":"validatorAddress","type":"address","internalType":"address"},{"name":"amount","type":"uint256","internalType":"uint256"}],"outputs":[],"stateMutability":"nonpayable"},{"type":"function","name":"deposit","inputs":[{"name":"validatorAddress","type":"address","internalType":"address"},{"name":"amount","type":"uint256","internalType":"uint256"}],"outputs":[],"stateMutability":"nonpayable"},{"type":"function","name":"disableValidator","inputs":[{"name":"validator","type":"address","internalType":"address"}],"outputs":[],"stateMutability":"nonpayable"},{"type":"function","name":"getChainConfig","inputs":[],"outputs":[{"name":"","type":"address","internalType":"contract IChainConfig"}],"stateMutability":"view"},{"type":"function","name":"getConsensusKeys","inputs":[{"name":"validatorAddress","type":"address","internalType":"address"}],"outputs":[{"name":"","type":"tuple","internalType":"struct IStaking.ConsensusKeys","components":[{"name":"blsPubkey","type":"bytes","internalType":"bytes"},{"name":"peerPubkey","type":"bytes32","internalType":"bytes32"},{"name":"activationEpoch","type":"uint64","internalType":"uint64"}]}],"stateMutability":"view"},{"type":"function","name":"getDelegatorFee","inputs":[{"name":"validatorAddress","type":"address","internalType":"address"},{"name":"delegatorAddress","type":"address","internalType":"address"}],"outputs":[{"name":"","type":"uint256","internalType":"uint256"}],"stateMutability":"view"},{"type":"function","name":"getEpochBeaconKey","inputs":[{"name":"epoch","type":"uint64","internalType":"uint64"}],"outputs":[{"name":"","type":"bytes","internalType":"bytes"}],"stateMutability":"view"},{"type":"function","name":"getEpochCommittee","inputs":[{"name":"epoch","type":"uint64","internalType":"uint64"}],"outputs":[{"name":"","type":"address[]","internalType":"address[]"}],"stateMutability":"view"},{"type":"function","name":"getEpochCommitteeLength","inputs":[{"name":"epoch","type":"uint64","internalType":"uint64"}],"outputs":[{"name":"","type":"uint256","internalType":"uint256"}],"stateMutability":"view"},{"type":"function","name":"getGovernance","inputs":[],"outputs":[{"name":"","type":"address","internalType":"contract IFluentGovernance"}],"stateMutability":"view"},{"type":"function","name":"getPendingDelegatorFee","inputs":[{"name":"validatorAddress","type":"address","internalType":"address"},{"name":"delegatorAddress","type":"address","internalType":"address"}],"outputs":[{"name":"","type":"uint256","internalType":"uint256"}],"stateMutability":"view"},{"type":"function","name":"getPendingValidatorFee","inputs":[{"name":"validatorAddress","type":"address","internalType":"address"}],"outputs":[{"name":"","type":"uint256","internalType":"uint256"}],"stateMutability":"view"},{"type":"function","name":"getRegistryWithKeys","inputs":[],"outputs":[{"name":"addrs","type":"address[]","internalType":"address[]"},{"name":"keys","type":"tuple[]","internalType":"struct IStaking.ConsensusKeys[]","components":[{"name":"blsPubkey","type":"bytes","internalType":"bytes"},{"name":"peerPubkey","type":"bytes32","internalType":"bytes32"},{"name":"activationEpoch","type":"uint64","internalType":"uint64"}]}],"stateMutability":"view"},{"type":"function","name":"getStaking","inputs":[],"outputs":[{"name":"","type":"address","internalType":"contract IStaking"}],"stateMutability":"view"},{"type":"function","name":"getStakingPool","inputs":[],"outputs":[{"name":"","type":"address","internalType":"contract IStakingPool"}],"stateMutability":"view"},{"type":"function","name":"getStakingToken","inputs":[],"outputs":[{"name":"","type":"address","internalType":"contract IERC20"}],"stateMutability":"view"},{"type":"function","name":"getSystemReward","inputs":[],"outputs":[{"name":"","type":"address","internalType":"contract ISystemReward"}],"stateMutability":"view"},{"type":"function","name":"getValidatorByOwner","inputs":[{"name":"owner","type":"address","internalType":"address"}],"outputs":[{"name":"","type":"address","internalType":"address"}],"stateMutability":"view"},{"type":"function","name":"getValidatorDelegation","inputs":[{"name":"validatorAddress","type":"address","internalType":"address"},{"name":"delegator","type":"address","internalType":"address"}],"outputs":[{"name":"delegatedAmount","type":"uint256","internalType":"uint256"},{"name":"atEpoch","type":"uint64","internalType":"uint64"}],"stateMutability":"view"},{"type":"function","name":"getValidatorFee","inputs":[{"name":"validatorAddress","type":"address","internalType":"address"}],"outputs":[{"name":"","type":"uint256","internalType":"uint256"}],"stateMutability":"view"},{"type":"function","name":"getValidatorStatus","inputs":[{"name":"validatorAddress","type":"address","internalType":"address"}],"outputs":[{"name":"ownerAddress","type":"address","internalType":"address"},{"name":"status","type":"uint8","internalType":"uint8"},{"name":"totalDelegated","type":"uint256","internalType":"uint256"},{"name":"slashesCount","type":"uint32","internalType":"uint32"},{"name":"changedAt","type":"uint64","internalType":"uint64"},{"name":"jailedBefore","type":"uint64","internalType":"uint64"},{"name":"claimedAt","type":"uint64","internalType":"uint64"},{"name":"commissionRate","type":"uint16","internalType":"uint16"},{"name":"totalRewards","type":"uint96","internalType":"uint96"}],"stateMutability":"view"},{"type":"function","name":"getValidatorStatusAtEpoch","inputs":[{"name":"validatorAddress","type":"address","internalType":"address"},{"name":"epoch","type":"uint64","internalType":"uint64"}],"outputs":[{"name":"ownerAddress","type":"address","internalType":"address"},{"name":"status","type":"uint8","internalType":"uint8"},{"name":"totalDelegated","type":"uint256","internalType":"uint256"},{"name":"slashesCount","type":"uint32","internalType":"uint32"},{"name":"changedAt","type":"uint64","internalType":"uint64"},{"name":"jailedBefore","type":"uint64","internalType":"uint64"},{"name":"claimedAt","type":"uint64","internalType":"uint64"},{"name":"commissionRate","type":"uint16","internalType":"uint16"},{"name":"totalRewards","type":"uint96","internalType":"uint96"}],"stateMutability":"view"},{"type":"function","name":"getValidators","inputs":[],"outputs":[{"name":"","type":"address[]","internalType":"address[]"}],"stateMutability":"view"},{"type":"function","name":"getValidatorsWithKeys","inputs":[],"outputs":[{"name":"addrs","type":"address[]","internalType":"address[]"},{"name":"keys","type":"tuple[]","internalType":"struct IStaking.ConsensusKeys[]","components":[{"name":"blsPubkey","type":"bytes","internalType":"bytes"},{"name":"peerPubkey","type":"bytes32","internalType":"bytes32"},{"name":"activationEpoch","type":"uint64","internalType":"uint64"}]}],"stateMutability":"view"},{"type":"function","name":"getValidatorsWithKeysAt","inputs":[{"name":"epoch","type":"uint64","internalType":"uint64"}],"outputs":[{"name":"addrs","type":"address[]","internalType":"address[]"},{"name":"keys","type":"tuple[]","internalType":"struct IStaking.ConsensusKeys[]","components":[{"name":"blsPubkey","type":"bytes","internalType":"bytes"},{"name":"peerPubkey","type":"bytes32","internalType":"bytes32"},{"name":"activationEpoch","type":"uint64","internalType":"uint64"}]}],"stateMutability":"view"},{"type":"function","name":"initialize","inputs":[{"name":"initialOwner","type":"address","internalType":"address"},{"name":"validators","type":"address[]","internalType":"address[]"},{"name":"initialStakes","type":"uint256[]","internalType":"uint256[]"},{"name":"commissionRate","type":"uint16","internalType":"uint16"}],"outputs":[],"stateMutability":"nonpayable"},{"type":"function","name":"isValidator","inputs":[{"name":"account","type":"address","internalType":"address"}],"outputs":[{"name":"","type":"bool","internalType":"bool"}],"stateMutability":"view"},{"type":"function","name":"isValidatorActive","inputs":[{"name":"account","type":"address","internalType":"address"}],"outputs":[{"name":"","type":"bool","internalType":"bool"}],"stateMutability":"view"},{"type":"function","name":"nextEpoch","inputs":[],"outputs":[{"name":"","type":"uint64","internalType":"uint64"}],"stateMutability":"view"},{"type":"function","name":"nextEpochForBeaconKey","inputs":[],"outputs":[{"name":"","type":"uint64","internalType":"uint64"}],"stateMutability":"view"},{"type":"function","name":"nextEpochToCommit","inputs":[],"outputs":[{"name":"","type":"uint64","internalType":"uint64"}],"stateMutability":"view"},{"type":"function","name":"owner","inputs":[],"outputs":[{"name":"","type":"address","internalType":"address"}],"stateMutability":"view"},{"type":"function","name":"pendingOwner","inputs":[],"outputs":[{"name":"","type":"address","internalType":"address"}],"stateMutability":"view"},{"type":"function","name":"proxiableUUID","inputs":[],"outputs":[{"name":"","type":"bytes32","internalType":"bytes32"}],"stateMutability":"view"},{"type":"function","name":"redelegateDelegatorFee","inputs":[{"name":"validator","type":"address","internalType":"address"}],"outputs":[],"stateMutability":"nonpayable"},{"type":"function","name":"registerValidator","inputs":[{"name":"validatorAddress","type":"address","internalType":"address"},{"name":"commissionRate","type":"uint16","internalType":"uint16"},{"name":"initialStake","type":"uint256","internalType":"uint256"}],"outputs":[],"stateMutability":"nonpayable"},{"type":"function","name":"releaseValidatorFromJail","inputs":[{"name":"validatorAddress","type":"address","internalType":"address"}],"outputs":[],"stateMutability":"nonpayable"},{"type":"function","name":"removeValidator","inputs":[{"name":"account","type":"address","internalType":"address"}],"outputs":[],"stateMutability":"nonpayable"},{"type":"function","name":"renounceOwnership","inputs":[],"outputs":[],"stateMutability":"nonpayable"},{"type":"function","name":"resolveSigner","inputs":[{"name":"epoch","type":"uint64","internalType":"uint64"},{"name":"signerIdx","type":"uint32","internalType":"uint32"}],"outputs":[{"name":"","type":"address","internalType":"address"}],"stateMutability":"view"},{"type":"function","name":"setConsensusKeys","inputs":[{"name":"validatorAddress","type":"address","internalType":"address"},{"name":"blsPubkeyUncompressed","type":"bytes","internalType":"bytes"},{"name":"blsPoPUncompressed","type":"bytes","internalType":"bytes"},{"name":"peerPubkey","type":"bytes32","internalType":"bytes32"}],"outputs":[],"stateMutability":"nonpayable"},{"type":"function","name":"slash","inputs":[{"name":"validatorAddress","type":"address","internalType":"address"}],"outputs":[],"stateMutability":"nonpayable"},{"type":"function","name":"slashEquivocationFinalize","inputs":[{"name":"evidence","type":"bytes","internalType":"bytes"},{"name":"pkUncompressed","type":"bytes","internalType":"bytes"},{"name":"sig1Uncompressed","type":"bytes","internalType":"bytes"},{"name":"sig2Uncompressed","type":"bytes","internalType":"bytes"}],"outputs":[],"stateMutability":"nonpayable"},{"type":"function","name":"slashEquivocationNotarize","inputs":[{"name":"evidence","type":"bytes","internalType":"bytes"},{"name":"pkUncompressed","type":"bytes","internalType":"bytes"},{"name":"sig1Uncompressed","type":"bytes","internalType":"bytes"},{"name":"sig2Uncompressed","type":"bytes","internalType":"bytes"}],"outputs":[],"stateMutability":"nonpayable"},{"type":"function","name":"slashEquivocationNullifyFinalize","inputs":[{"name":"evidence","type":"bytes","internalType":"bytes"},{"name":"pkUncompressed","type":"bytes","internalType":"bytes"},{"name":"sig1Uncompressed","type":"bytes","internalType":"bytes"},{"name":"sig2Uncompressed","type":"bytes","internalType":"bytes"}],"outputs":[],"stateMutability":"nonpayable"},{"type":"function","name":"transferOwnership","inputs":[{"name":"newOwner","type":"address","internalType":"address"}],"outputs":[],"stateMutability":"nonpayable"},{"type":"function","name":"undelegate","inputs":[{"name":"validatorAddress","type":"address","internalType":"address"},{"name":"amount","type":"uint256","internalType":"uint256"}],"outputs":[],"stateMutability":"nonpayable"},{"type":"function","name":"upgradeToAndCall","inputs":[{"name":"newImplementation","type":"address","internalType":"address"},{"name":"data","type":"bytes","internalType":"bytes"}],"outputs":[],"stateMutability":"payable"},{"type":"event","name":"Claimed","inputs":[{"name":"validator","type":"address","indexed":true,"internalType":"address"},{"name":"staker","type":"address","indexed":true,"internalType":"address"},{"name":"amount","type":"uint256","indexed":false,"internalType":"uint256"},{"name":"epoch","type":"uint64","indexed":false,"internalType":"uint64"}],"anonymous":false},{"type":"event","name":"ConsensusKeysSet","inputs":[{"name":"validator","type":"address","indexed":true,"internalType":"address"},{"name":"blsPubkey","type":"bytes","indexed":false,"internalType":"bytes"},{"name":"peerPubkey","type":"bytes32","indexed":false,"internalType":"bytes32"},{"name":"activationEpoch","type":"uint64","indexed":false,"internalType":"uint64"}],"anonymous":false},{"type":"event","name":"Delegated","inputs":[{"name":"validator","type":"address","indexed":true,"internalType":"address"},{"name":"staker","type":"address","indexed":true,"internalType":"address"},{"name":"amount","type":"uint256","indexed":false,"internalType":"uint256"},{"name":"epoch","type":"uint64","indexed":false,"internalType":"uint64"}],"anonymous":false},{"type":"event","name":"EpochBeaconKeyCommitted","inputs":[{"name":"epoch","type":"uint64","indexed":true,"internalType":"uint64"},{"name":"assured","type":"bool","indexed":false,"internalType":"bool"}],"anonymous":false},{"type":"event","name":"EpochCommitteeCommitted","inputs":[{"name":"epoch","type":"uint64","indexed":true,"internalType":"uint64"},{"name":"committee","type":"address[]","indexed":false,"internalType":"address[]"}],"anonymous":false},{"type":"event","name":"EquivocationSlashed","inputs":[{"name":"validator","type":"address","indexed":true,"internalType":"address"},{"name":"epoch","type":"uint64","indexed":false,"internalType":"uint64"},{"name":"reporter","type":"address","indexed":true,"internalType":"address"}],"anonymous":false},{"type":"event","name":"Initialized","inputs":[{"name":"version","type":"uint64","indexed":false,"internalType":"uint64"}],"anonymous":false},{"type":"event","name":"OwnershipTransferStarted","inputs":[{"name":"previousOwner","type":"address","indexed":true,"internalType":"address"},{"name":"newOwner","type":"address","indexed":true,"internalType":"address"}],"anonymous":false},{"type":"event","name":"OwnershipTransferred","inputs":[{"name":"previousOwner","type":"address","indexed":true,"internalType":"address"},{"name":"newOwner","type":"address","indexed":true,"internalType":"address"}],"anonymous":false},{"type":"event","name":"Redelegated","inputs":[{"name":"validator","type":"address","indexed":true,"internalType":"address"},{"name":"staker","type":"address","indexed":true,"internalType":"address"},{"name":"amount","type":"uint256","indexed":false,"internalType":"uint256"},{"name":"dust","type":"uint256","indexed":false,"internalType":"uint256"},{"name":"epoch","type":"uint64","indexed":false,"internalType":"uint64"}],"anonymous":false},{"type":"event","name":"Undelegated","inputs":[{"name":"validator","type":"address","indexed":true,"internalType":"address"},{"name":"staker","type":"address","indexed":true,"internalType":"address"},{"name":"amount","type":"uint256","indexed":false,"internalType":"uint256"},{"name":"epoch","type":"uint64","indexed":false,"internalType":"uint64"}],"anonymous":false},{"type":"event","name":"Upgraded","inputs":[{"name":"implementation","type":"address","indexed":true,"internalType":"address"}],"anonymous":false},{"type":"event","name":"ValidatorAdded","inputs":[{"name":"validator","type":"address","indexed":true,"internalType":"address"},{"name":"owner","type":"address","indexed":true,"internalType":"address"},{"name":"status","type":"uint8","indexed":false,"internalType":"uint8"},{"name":"commissionRate","type":"uint16","indexed":false,"internalType":"uint16"}],"anonymous":false},{"type":"event","name":"ValidatorDeposited","inputs":[{"name":"validator","type":"address","indexed":true,"internalType":"address"},{"name":"amount","type":"uint256","indexed":false,"internalType":"uint256"},{"name":"epoch","type":"uint64","indexed":false,"internalType":"uint64"}],"anonymous":false},{"type":"event","name":"ValidatorJailed","inputs":[{"name":"validator","type":"address","indexed":true,"internalType":"address"},{"name":"epoch","type":"uint64","indexed":false,"internalType":"uint64"}],"anonymous":false},{"type":"event","name":"ValidatorModified","inputs":[{"name":"validator","type":"address","indexed":true,"internalType":"address"},{"name":"owner","type":"address","indexed":true,"internalType":"address"},{"name":"status","type":"uint8","indexed":false,"internalType":"uint8"},{"name":"commissionRate","type":"uint16","indexed":false,"internalType":"uint16"}],"anonymous":false},{"type":"event","name":"ValidatorOwnerClaimed","inputs":[{"name":"validator","type":"address","indexed":true,"internalType":"address"},{"name":"amount","type":"uint256","indexed":false,"internalType":"uint256"},{"name":"epoch","type":"uint64","indexed":false,"internalType":"uint64"}],"anonymous":false},{"type":"event","name":"ValidatorReleased","inputs":[{"name":"validator","type":"address","indexed":true,"internalType":"address"},{"name":"epoch","type":"uint64","indexed":false,"internalType":"uint64"}],"anonymous":false},{"type":"event","name":"ValidatorRemoved","inputs":[{"name":"validator","type":"address","indexed":true,"internalType":"address"}],"anonymous":false},{"type":"event","name":"ValidatorSlashed","inputs":[{"name":"validator","type":"address","indexed":true,"internalType":"address"},{"name":"slashes","type":"uint32","indexed":false,"internalType":"uint32"},{"name":"epoch","type":"uint64","indexed":false,"internalType":"uint64"}],"anonymous":false},{"type":"error","name":"AddressEmptyCode","inputs":[{"name":"target","type":"address","internalType":"address"}]},{"type":"error","name":"AddressInsufficientBalance","inputs":[{"name":"account","type":"address","internalType":"address"}]},{"type":"error","name":"AlreadySlashedForEquivocation","inputs":[{"name":"validator","type":"address","internalType":"address"}]},{"type":"error","name":"AmountTooLow","inputs":[{"name":"amount","type":"uint256","internalType":"uint256"}]},{"type":"error","name":"BadCommissionRate","inputs":[{"name":"commissionRate","type":"uint16","internalType":"uint16"}]},{"type":"error","name":"BadShareDistribution","inputs":[{"name":"shareDistribution","type":"uint16","internalType":"uint16"}]},{"type":"error","name":"BeaconEpochNotMonotonic","inputs":[{"name":"epoch","type":"uint64","internalType":"uint64"},{"name":"lastCommitted","type":"uint64","internalType":"uint64"}]},{"type":"error","name":"BlsVerifierNotConfigured","inputs":[]},{"type":"error","name":"CommitteeLengthMismatch","inputs":[{"name":"expected","type":"uint256","internalType":"uint256"},{"name":"got","type":"uint256","internalType":"uint256"}]},{"type":"error","name":"CommitteeMemberKeyless","inputs":[{"name":"validator","type":"address","internalType":"address"}]},{"type":"error","name":"CommitteeMemberNotInActiveSet","inputs":[{"name":"validator","type":"address","internalType":"address"}]},{"type":"error","name":"CommitteeNotStrictlyAscending","inputs":[{"name":"validator","type":"address","internalType":"address"}]},{"type":"error","name":"ConsensusKeysAlreadySet","inputs":[{"name":"validator","type":"address","internalType":"address"}]},{"type":"error","name":"ConsensusKeysNotSet","inputs":[{"name":"validator","type":"address","internalType":"address"}]},{"type":"error","name":"DelegationQueueEmpty","inputs":[]},{"type":"error","name":"DelegationQueueNotEmpty","inputs":[{"name":"delegationQueue","type":"uint256","internalType":"uint256"}]},{"type":"error","name":"DepositIsZero","inputs":[]},{"type":"error","name":"ERC1967InvalidImplementation","inputs":[{"name":"implementation","type":"address","internalType":"address"}]},{"type":"error","name":"ERC1967NonPayable","inputs":[]},{"type":"error","name":"EpochCommitteeNotCommitted","inputs":[{"name":"epoch","type":"uint64","internalType":"uint64"}]},{"type":"error","name":"EpochIsNotReady","inputs":[{"name":"epoch","type":"uint64","internalType":"uint64"}]},{"type":"error","name":"EpochNotYetCommittable","inputs":[{"name":"target","type":"uint64","internalType":"uint64"},{"name":"currentEpoch","type":"uint64","internalType":"uint64"}]},{"type":"error","name":"EquivocationKeyMismatch","inputs":[]},{"type":"error","name":"EquivocationSignatureInvalid","inputs":[]},{"type":"error","name":"EvidenceDecoderNotConfigured","inputs":[]},{"type":"error","name":"FailedInnerCall","inputs":[]},{"type":"error","name":"InitialStakeTooLow","inputs":[{"name":"initialStake","type":"uint256","internalType":"uint256"}]},{"type":"error","name":"InsufficientBalance","inputs":[]},{"type":"error","name":"InvalidClaimEpoch","inputs":[]},{"type":"error","name":"InvalidConsensusKeyEncoding","inputs":[]},{"type":"error","name":"InvalidEpoch","inputs":[]},{"type":"error","name":"InvalidInitialization","inputs":[]},{"type":"error","name":"InvalidProofOfPossession","inputs":[{"name":"validator","type":"address","internalType":"address"}]},{"type":"error","name":"MalformedInitialBalance","inputs":[]},{"type":"error","name":"MalformedInputLength","inputs":[]},{"type":"error","name":"NotActiveValidator","inputs":[]},{"type":"error","name":"NotEnoughBalance","inputs":[]},{"type":"error","name":"NotEnoughShares","inputs":[{"name":"requiredShares","type":"uint256","internalType":"uint256"}]},{"type":"error","name":"NotInitializing","inputs":[]},{"type":"error","name":"NotPendingValidator","inputs":[{"name":"validator","type":"address","internalType":"address"}]},{"type":"error","name":"NothingToClaim","inputs":[]},{"type":"error","name":"NothingToUnstake","inputs":[]},{"type":"error","name":"OnlyCoinbase","inputs":[]},{"type":"error","name":"OnlyGovernance","inputs":[]},{"type":"error","name":"OnlyLivenessSlashing","inputs":[]},{"type":"error","name":"OnlyStakingContract","inputs":[]},{"type":"error","name":"OnlySystemCall","inputs":[]},{"type":"error","name":"OnlyValidatorOwner","inputs":[{"name":"validator","type":"address","internalType":"address"}]},{"type":"error","name":"OnlyZeroGasPrice","inputs":[]},{"type":"error","name":"OwnableInvalidOwner","inputs":[{"name":"owner","type":"address","internalType":"address"}]},{"type":"error","name":"OwnableUnauthorizedAccount","inputs":[{"name":"account","type":"address","internalType":"address"}]},{"type":"error","name":"OwnerCantBeZero","inputs":[]},{"type":"error","name":"OwnerSelfStakeBelowMinimum","inputs":[]},{"type":"error","name":"PeerPubkeyAlreadyInUse","inputs":[{"name":"peerPubkey","type":"bytes32","internalType":"bytes32"}]},{"type":"error","name":"PendingUndelegate","inputs":[]},{"type":"error","name":"SafeERC20FailedOperation","inputs":[{"name":"token","type":"address","internalType":"address"}]},{"type":"error","name":"SafeTransferFailed","inputs":[]},{"type":"error","name":"SignerIndexOutOfRange","inputs":[{"name":"epoch","type":"uint64","internalType":"uint64"},{"name":"signerIdx","type":"uint32","internalType":"uint32"},{"name":"committeeLen","type":"uint256","internalType":"uint256"}]},{"type":"error","name":"StillInJail","inputs":[{"name":"validator","type":"address","internalType":"address"}]},{"type":"error","name":"UUPSUnauthorizedCallContext","inputs":[]},{"type":"error","name":"UUPSUnsupportedProxiableUUID","inputs":[{"name":"slot","type":"bytes32","internalType":"bytes32"}]},{"type":"error","name":"UnsafeTransferFailed","inputs":[]},{"type":"error","name":"ValidatorAlreadyExists","inputs":[{"name":"validator","type":"address","internalType":"address"}]},{"type":"error","name":"ValidatorHasActiveDelegations","inputs":[{"name":"validator","type":"address","internalType":"address"}]},{"type":"error","name":"ValidatorNotFound","inputs":[{"name":"validator","type":"address","internalType":"address"}]},{"type":"error","name":"ValidatorNotInJail","inputs":[{"name":"validator","type":"address","internalType":"address"}]},{"type":"error","name":"ValidatorOwnerAlreadyInUse","inputs":[{"name":"validator","type":"address","internalType":"address"}]},{"type":"error","name":"WrongAmountPrecision","inputs":[]},{"type":"error","name":"ZeroAmount","inputs":[]},{"type":"error","name":"ZeroCommissionRate","inputs":[]},{"type":"error","name":"ZeroInitialStake","inputs":[]},{"type":"error","name":"ZeroOwner","inputs":[]},{"type":"error","name":"ZeroValidator","inputs":[]}],"bytecode":{"object":"0x610180346102e757601f6157f638819003918201601f19168301916001600160401b038311848410176102eb5780849260e0946040528339810103126102e7578051906001600160a01b03821682036102e75760208101516001600160a01b03811681036102e75760408201516001600160a01b03811681036102e7576060830151906001600160a01b03821682036102e7576080840151926001600160a01b03841684036102e75760a0850151946001600160a01b03861686036102e75760c00151956001600160a01b03871687036102e7573060805260a05260c05260e0526101005261012052610140525f5160206157d65f395f51905f525460ff8160401c166102d8576002600160401b03196001600160401b03821601610282575b50610160526040516154d6908161030082396080518181816119c90152613bd7015260a05181611dc8015260c051818181611d840152818161273a0152613344015260e051816111a40152610100518181816109c201528181610c1901528181610e5a015281816114ea01526127ce01526101205181818161081801528181610b7301528181611037015281816110e7015281816117520152818161194001528181611a4401528181611af601528181611f1e01528181612153015281816122ae015281816123f70152818161267e015281816126e1015281816129020152818161296301528181612a7701528181612f44015281816130430152818161321d015281816132eb015261494501526101405181818161084901528181611016015281816112b60152818161228d015281816122eb0152818161271201528181612fb70152818161324e0152818161331c01526137ae015261016051816129bc0152f35b6001600160401b0319166001600160401b039081175f5160206157d65f395f51905f52556040519081527fc7f505b2f371ae2175ee4913f4499e1f2633a7b5936321eed1cdaeb6115181d290602090a15f61011f565b63f92ee8a960e01b5f5260045ffd5b5f80fd5b634e487b7160e01b5f52604160045260245ffdfe60806040526004361015610011575f80fd5b5f3560e01c806252c9e11461041357806301f6bb501461040e578063026e402b1461040957806314f8649f146104045780631fe97684146103ff578063225cba85146103fa578063289b3c0d146103f557806330108c22146103f057806337e559f1146103eb57806340a141ff146103e6578063426594b1146103e157806342ad55ac146103dc578063457179fd146103d757806345946334146103d257806347e7ef24146103cd57806348124d26146103c85780634d238c8e146103c35780634d99dd16146103be5780634e5e2c04146103b95780634f1ef286146103b457806352b7bea2146103af57806352d1902d146103aa5780635ef9e8c6146103a5578063606c0c94146103a0578063715018a61461039b57806373a3dda614610396578063766718081461039157806379ba50971461038c5780637a37cc59146103875780637b1391a6146103825780637cfba9f31461037d57806380b562de1461037857806387401d8a146103735780638bd070e41461036e5780638da5cb5b146103695780638ecb3fc9146103645780639f9106d11461035f578063a10827e91461035a578063a310624f14610355578063a8f4bbb614610350578063ad36f42f1461034b578063ad3cb1cc14610346578063add07a3e14610341578063adf2a79c1461033c578063aea0e78b14610337578063b46e552014610332578063b7ab4db51461032d578063c06a82de14610328578063c2fd58fc14610323578063c6fb90651461031e578063c96be4cb14610319578063c9adaf5c14610314578063d41c52eb1461030f578063d7f1733d1461030a578063d951e18614610305578063d96cbd7b14610300578063dd0fb5df146102fb578063e28d2f63146102f6578063e30c3978146102f1578063e3e6cedc146102ec578063f2fde38b146102e7578063facd743b146102e2578063fe38ebef146102dd5763ff4794fc146102d8575f80fd5b6132a2565b6131e2565b61316f565b6130e7565b61309f565b61306b565b612ffa565b612f04565b612e46565b612e14565b612d46565b612c8a565b612c53565b61299d565b61292a565b6128da565b6128a8565b612876565b6127ab565b61278e565b6126a6565b612635565b6125ee565b612552565b61250f565b612436565b6123ae565b6122d6565b612239565b612205565b6121bc565b61208d565b611ff6565b611efc565b611db3565b611d6f565b611d23565b611cf8565b611b94565b611b25565b611ae1565b611a1d565b6119b7565b611918565b61189e565b6117a6565b611706565b6114c7565b61134d565b6111d3565b61118f565b6110ae565b61107d565b610fc2565b610e37565b610c94565b610c48565b610c04565b610ae8565b61099f565b6108af565b6107cc565b61062c565b610455565b6001600160a01b0381160361042957565b5f80fd5b60409060031901126104295760043561044581610418565b9060243561045281610418565b90565b346104295761053e5f5160206153c15f395f51905f526104743661042d565b6105b661059a61058c61049061048b86979661338a565b61345a565b6105698761056460408401976104bb838a516104ab81613444565b6104b481613444565b15156134d9565b610553610543602087019d8e6104eb6104da825160018060a01b031690565b6001600160a01b0381163314613501565b6104ff6001600160a01b0386161515613529565b6105318761052b61051f610512896133af565b546001600160a01b031690565b6001600160a01b031690565b1561353f565b516001600160a01b031690565b6133af565b80546001600160a01b0319169055565b6001600160a01b0381168c526133af565b613585565b6105318161058761058161057b6142a6565b836142da565b9961338a565b6135a4565b95516001600160a01b031690565b9151936105a685613444565b6105af85613444565b5460f01c90565b6040516001600160a01b03928316959092169382916105d591836136a2565b0390a3005b9181601f84011215610429578235916001600160401b038311610429576020808501948460051b01011161042957565b6064359061ffff8216820361042957565b6024359061ffff8216820361042957565b346104295760803660031901126104295760043561064981610418565b6024356001600160401b038111610429576106689036906004016105da565b6044929192356001600160401b0381116104295761068a9036906004016105da565b9061069361060a565b925f5160206154615f395f51905f5254956001600160401b036106d16106c46106c08a60ff9060401c1690565b1590565b986001600160401b031690565b16801590816107c4575b60011490816107ba575b1590816107b1575b506107a257610730958761072760016001600160401b03195f5160206154615f395f51905f525416175f5160206154615f395f51905f5255565b61077e57613737565b61073657005b5f5160206154615f395f51905f52805460ff60401b19169055604051600181527fc7f505b2f371ae2175ee4913f4499e1f2633a7b5936321eed1cdaeb6115181d290602090a1005b5f5160206154615f395f51905f52805460ff60401b1916600160401b179055613737565b63f92ee8a960e01b5f5260045ffd5b9050155f6106ed565b303b1591506106e5565b8891506106db565b34610429576040366003190112610429576004356107e981610418565b73__$1cd3066fe913aa9d2ac4c48f01e58e18c5$__90602435823b1561042957604051634498f72b60e11b81527f00000000000000000000000000000000000000000000000000000000000000006001600160a01b0390811660048301527f00000000000000000000000000000000000000000000000000000000000000008116602483015290921660448301526064820152905f90829060849082905af480156108aa5761089457005b806108a25f6108a893611842565b80610bfa565b005b613846565b34610429576040366003190112610429576004356108cc81610418565b6108d461061b565b6108e781610bb861ffff82161115613851565b5f5160206153c15f395f51905f5261090161048b8461338a565b9161096861095a604085019461091c8787516104ab81613444565b61053181610587602082019961093b6104da8c5160018060a01b031690565b6109558861095061094a6142a6565b866142da565b613870565b61338a565b94516001600160a01b031690565b92519261097484613444565b61097d84613444565b6040516001600160a01b039182169590911693909182916105d59190836136a2565b34610429576020366003190112610429576004356109bc81610418565b6109f0337f00000000000000000000000000000000000000000000000000000000000000006001600160a01b031614613893565b6001600160a01b0381165f8181525f5160206153e15f395f51905f52602052604090205f5160206153c15f395f51905f5290610a2b9061345a565b610aa0610a8b60206040840193610a5760018651610a4881613444565b610a5181613444565b146148f6565b610a6088614eb9565b600285525b610a7d81610587610a7761057b6142a6565b9a61338a565b01516001600160a01b031690565b915194610a9786613444565b6105af86613444565b6040516001600160a01b039092169482916105d591836136a2565b9181601f84011215610429578235916001600160401b038311610429576020838186019501011161042957565b3461042957608036600319011261042957600435610b0581610418565b6024356001600160401b03811161042957610b24903690600401610abb565b906044356001600160401b03811161042957610b44903690600401610abb565b93909273__$c0ca080a98cf238f72f7f61cbbb953094a$__91823b156104295760405163dcf44cad60e01b81527f00000000000000000000000000000000000000000000000000000000000000006001600160a01b039081166004830152909116602482015260a06044820152945f94869485938493610be293929091610bd09160a4870191906138a9565b848103600319016064860152916138a9565b606435608483015203915af480156108aa5761089457005b5f91031261042957565b34610429575f366003190112610429576040517f00000000000000000000000000000000000000000000000000000000000000006001600160a01b03168152602090f35b34610429576020366003190112610429576020600435610c6781610418565b6001600160a01b0390610c79906133af565b5416604051908152f35b6001600160401b0381160361042957565b3461042957604036600319011261042957600435610cb181610c83565b6024356001600160401b03811161042957610cd0903690600401610abb565b9091610ce4336002600160a01b03146138c9565b610cec614936565b92610d05610cf9856138df565b6001600160401b031690565b936001600160401b038316948511610e1657505f5160206153815f395f51905f52546001600160401b03168015158181610e00575b50610dcf575091610db8610d8483610d7f847fb869aea82a9f266a8943b699a5c9bf08edaa33fe1e2e827f958d75a5ed357e3e97610d7a610dca9861395a565b613a17565b6138df565b6001600160401b03166001600160401b03195f5160206153815f395f51905f525416175f5160206153815f395f51905f5255565b60405190151581529081906020820190565b0390a2005b82610ddc610dfd9261391d565b6307ff3c7760e31b5f526001600160401b0391821660045216602452604490565b5ffd5b9050610e0e610cf9856138df565b11155f610d3a565b631e559a0560e11b5f526001600160401b038084166004521660245260445ffd5b3461042957602036600319011261042957600435610e5481610418565b610e88337f00000000000000000000000000000000000000000000000000000000000000006001600160a01b031614613893565b610f9c610f8b60018060a01b03831692835f525f5160206153e15f395f51905f5260205261095561054361053e60405f20610f8285610f7c604051610ecc816117ec565b60018060a01b038554168152610f6e836001870154610f64610f546002602087019a60018060a01b0385168c52610f33610f2360408a0196610f1460ff8260a01c168961344e565b60a81c6001600160401b031690565b6001600160401b031660608a0152565b01546001600160401b03811660808801525b60401c6001600160401b031690565b6001600160401b031660a0860152565b516104ab81613444565b610f76614936565b90615045565b15614a30565b61053185614eb9565b60025f918281558260018201550155565b7fe1434e25d6611e0db941968fdc97811c982ac1602e951637d206f5fdda9dd8f15f80a2005b34610429575f602036600319011261042957600435610fe081610418565b73__$1cd3066fe913aa9d2ac4c48f01e58e18c5$__803b156104295761105f915f9160405180809581946311e4ddaf60e31b83527f00000000000000000000000000000000000000000000000000000000000000007f000000000000000000000000000000000000000000000000000000000000000060048501613adf565b03915af480156108aa57611071575080f35b6108a891505f90611842565b346104295760203660031901126104295760206110a460043561109f81610418565b613b16565b6040519015158152f35b346104295760203660031901126104295761112160206004356110d081610418565b60405163e61e2bff60e01b81526001600160a01b037f000000000000000000000000000000000000000000000000000000000000000081166004830152909116602482015291829081906044820190565b038173__$1cd3066fe913aa9d2ac4c48f01e58e18c5$__5af480156108aa5761115c915f91611160575b506040519081529081906020820190565b0390f35b611182915060203d602011611188575b61117a8183611842565b810190613b9e565b5f61114b565b503d611170565b34610429575f366003190112610429576040517f00000000000000000000000000000000000000000000000000000000000000006001600160a01b03168152602090f35b34610429576040366003190112610429576004356111f081610418565b60243590413303611319573a61130a5781156112fb577f9fce3fb7dc05df2879421f9d9c06784dad3d39aba44c0c1ee0b9d094e76550059060018060a01b03811692835f525f5160206153e15f395f51905f5260205261126461125560405f2061345a565b9260408401516104ab81613444565b6112ae611279611272614936565b80946142da565b8054611291906001600160601b038581169116614a63565b81546001600160601b0319166001600160601b0391909116179055565b6112da8130337f000000000000000000000000000000000000000000000000000000000000000061483d565b604080519182526001600160401b0390921660208201529081908101610dca565b63b288589b60e01b5f5260045ffd5b6383f1b1d360e01b5f5260045ffd5b63022d8c9560e31b5f5260045ffd5b60409060031901126104295760043561134081610418565b9060243561045281610c83565b346104295761135b36611328565b9060018060a01b03165f525f5160206153e15f395f51905f5260205261138d61138660405f2061345a565b9182614aa0565b602082015190919061115c906001600160a01b0316916040810151936113b285613444565b6113bb85613444565b60208101516113e3906113de906001600160701b03165b6001600160701b031690565b613bad565b916113f5604083015163ffffffff1690565b9061140a60608201516001600160401b031690565b61143260a061142360808501516001600160401b031690565b9301516001600160401b031690565b92611453611445606087015161ffff1690565b95516001600160601b031690565b604080516001600160a01b03909a168a5260ff909a1660208a01529888019590955263ffffffff9490941660608701526001600160401b039384166080870152831660a086015290911660c084015261ffff1660e08301526001600160601b03909216610100820152908190610120820190565b34610429576020366003190112610429576004356114e481610418565b611518337f00000000000000000000000000000000000000000000000000000000000000006001600160a01b031614613893565b6116c1611526610d7f614936565b6001600160a01b0383169290611546841515611541816143b6565b6143cc565b6115515f5b15614290565b6001600160401b038116806116ea575b5061156d5f6001613851565b6115d261157c61048b8461338a565b6115ba6001604083016115a387825161159481613444565b61159d81613444565b156143f8565b6001600160a01b038716808552602085015261344e565b6001600160401b03831660608201526105878461338a565b6115e58261052b61051f610512836133af565b6115f282610564816133af565b6115fc6001613444565b61160582613d65565b6116bc6116856116145f6113d2565b93611667611620611863565b5f81526001600160701b03871660208201525f6040820181905260608201526116628661164c856133e7565b906001600160401b03165f5260205260405f2090565b61443e565b6116708161340c565b9060018060a01b03165f5260205260405f2090565b91611692835480156144aa565b6116ac61169d611874565b6001600160701b039095168552565b6001600160401b03166020840152565b6144c4565b6116cb6001613444565b805f5160206153215f395f51905f52604051806105d55f6001836136a2565b611700906116f9610cf96142a6565b10156143e2565b5f611561565b346104295760403660031901126104295760043561172381610418565b73__$1cd3066fe913aa9d2ac4c48f01e58e18c5$__90602435823b15610429576040516304e6b02160e51b81527f00000000000000000000000000000000000000000000000000000000000000006001600160a01b03908116600483015290921660248301526044820152905f90829060649082905af480156108aa5761089457005b346104295760203660031901126104295760206117cd6004356117c881610c83565b614b86565b511515604051908152f35b634e487b7160e01b5f52604160045260245ffd5b60c081019081106001600160401b0382111761180757604052565b6117d8565b606081019081106001600160401b0382111761180757604052565b608081019081106001600160401b0382111761180757604052565b90601f801991011681019081106001600160401b0382111761180757604052565b60405190611872608083611842565b565b60405190611872604083611842565b6001600160401b03811161180757601f01601f191660200190565b6040366003190112610429576004356118b681610418565b602435906001600160401b0382116104295736602383011215610429578160040135906118e282611883565b916118f06040519384611842565b8083523660248286010111610429576020815f9260246108a897018387013784010152613bcb565b3461042957611968602061192b3661042d565b604051635c345cf760e01b81529384928392907f000000000000000000000000000000000000000000000000000000000000000060048501613adf565b038173__$1cd3066fe913aa9d2ac4c48f01e58e18c5$__5af480156108aa576020915f9161199a575b50604051908152f35b6119b19150823d84116111885761117a8183611842565b5f611991565b34610429575f366003190112610429577f00000000000000000000000000000000000000000000000000000000000000006001600160a01b03163003611a0e5760206040515f5160206154015f395f51905f528152f35b63703e46dd60e11b5f5260045ffd5b3461042957611a6c6040611a303661042d565b8251635f0243e360e11b81529384928392907f000000000000000000000000000000000000000000000000000000000000000060048501613adf565b038173__$1cd3066fe913aa9d2ac4c48f01e58e18c5$__5af49081156108aa575f905f92611aa7575b50604080519182526020820192909252f35b9150506040813d604011611ad9575b81611ac360409383611842565b810103126104295760208151910151905f611a95565b3d9150611ab6565b34610429575f366003190112610429576040517f00000000000000000000000000000000000000000000000000000000000000006001600160a01b03168152602090f35b34610429575f36600319011261042957611b3d614c44565b611b45613567565b5f5160206153a15f395f51905f5280546001600160a01b031981169091555f906001600160a01b03167f8be0079c531659141344cd1fd0a4f28419497f9722a3daafe3b4186f6b6457e08280a3005b3461042957602036600319011261042957600435611bb181610418565b6001600160a01b0381165f9081527f96610efdc8a37de390ea3757bf0331faa3a74708adc53f30ba708302b0f55800602052604090205460ff16611cdd57611c82611bfe61048b8361338a565b611c7960408201611c258560038351611c1681613444565b611c1f81613444565b14613cd0565b6020830151611c3f906001600160a01b0316338114613501565b611c7385611c4b614936565b6001600160401b03611c6a610cf960808901516001600160401b031690565b91161015613cf8565b60019052565b6105878361338a565b611c8b81613d65565b7f7bd9ec00705b7640a93da0fcf84dc0bfce1b2c9a5146d548ab1dabd23322c9ac610dca611cb7614936565b6040516001600160401b0390911681526001600160a01b03909316929081906020820190565b638300031d60e01b5f526001600160a01b031660045260245ffd5b34610429575f366003190112610429576020611d12614936565b6001600160401b0360405191168152f35b34610429575f366003190112610429575f5160206154815f395f51905f5254336001600160a01b0390911603611d5c576108a833614c64565b63118cdaa760e01b5f523360045260245ffd5b34610429575f366003190112610429576040517f00000000000000000000000000000000000000000000000000000000000000006001600160a01b03168152602090f35b34610429575f366003190112610429576040517f00000000000000000000000000000000000000000000000000000000000000006001600160a01b03168152602090f35b90602080835192838152019201905f5b818110611e145750505090565b82516001600160a01b0316845260209384019390920191600101611e07565b805180835260209291819084018484015e5f828201840152601f01601f1916010190565b9060406001600160401b0381611e768551606086526060860190611e33565b946020810151602086015201511691015290565b90611e9d90604083526040830190611df7565b906020818303910152815180825260208201916020808360051b8301019401925f915b838310611ecf57505050505090565b9091929394602080611eed600193601f198682030187528951611e57565b97019301930191939290611ec0565b3461042957602036600319011261042957611f42600435611f1c81610c83565b7f0000000000000000000000000000000000000000000000000000000000000000614cc0565b611f4c8151613e33565b905f5b8151811015611fd5576001906001600160a01b03611f6d8285613b02565b51165f525f5160206153415f395f51905f5260205260405f206001600160401b03600260405192611f9d8461180c565b611fa681613e82565b84528581015460208501520154166040820152611fc38286613b02565b52611fce8185613b02565b5001611f4f565b5061115c60405192839283611e8a565b906020610452928181520190611df7565b34610429576020366003190112610429576001600160401b0360043561201b81610c83565b165f525f5160206153615f395f51905f5260205260405f206040519081602082549182815201915f5260205f20905f5b81811061206e5761115c8561206281870382611842565b60405191829182611fe5565b82546001600160a01b031684526020909301926001928301920161204b565b34610429576020366003190112610429576004356001600160401b038111610429576120bd9036906004016105da565b6120cf336002600160a01b03146138c9565b6120d7614936565b916120f65f5160206154215f395f51905f52546001600160401b031690565b90612103610cf9856138df565b6001600160401b03831690811161219a5761218b575f925b73__$c0ca080a98cf238f72f7f61cbbb953094a$__91823b156104295761217b5f9560405197889687958695631792dc1560e31b87527f000000000000000000000000000000000000000000000000000000000000000060048801613f58565b03915af480156108aa5761089457005b6121948261391d565b9261211b565b631e559a0560e11b5f526001600160401b03808416600452851660245260445ffd5b34610429575f366003190112610429575f5160206154215f395f51905f52546001600160401b0316806121f557506040515f8152602090f35b61220060209161391d565b611d12565b34610429575f366003190112610429575f5160206153a15f395f51905f52546040516001600160a01b039091168152602090f35b34610429575f60203660031901126104295760043561225781610418565b73__$1cd3066fe913aa9d2ac4c48f01e58e18c5$__803b156104295761105f915f916040518080958194637284855160e11b83527f00000000000000000000000000000000000000000000000000000000000000007f000000000000000000000000000000000000000000000000000000000000000060048501613adf565b34610429575f366003190112610429576040517f00000000000000000000000000000000000000000000000000000000000000006001600160a01b03168152602090f35b6080600319820112610429576004356001600160401b038111610429578161234491600401610abb565b929092916024356001600160401b038111610429578161236691600401610abb565b929092916044356001600160401b038111610429578161238891600401610abb565b92909291606435906001600160401b038211610429576123aa91600401610abb565b9091565b34610429576123bc3661231a565b91969394929673__$c0ca080a98cf238f72f7f61cbbb953094a$__97883b15610429575f9661241f95604051998a98630817c25760e11b8a527f000000000000000000000000000000000000000000000000000000000000000060048b01613fe2565b938180849603915af480156108aa57611071575080f35b346104295760203660031901126104295761245961048b60043561095581610418565b805161246d906001600160a01b03166133e7565b9061115c6124a76124a2606084019461248d86516001600160401b031690565b6001600160401b03165f5260205260405f2090565b61403d565b60208301519092906001600160a01b0316926040820151946124c886613444565b6124d186613444565b60208201516124ec906113de906001600160701b03166113d2565b9261140a612501604085015163ffffffff1690565b92516001600160401b031690565b34610429575f3660031901126104295760206001600160401b035f5160206153815f395f51905f525416604051908152f35b906020610452928181520190611e57565b346104295760203660031901126104295760043561256f81610418565b612577613e14565b5060018060a01b03165f525f5160206153415f395f51905f5260205261115c60405f206001600160401b036002604051926125b18461180c565b6125ba81613e82565b845260018101546020850152015416604082015260405191829182612541565b604051906125e9602083611842565b5f8252565b34610429575f3660031901126104295761115c60405161260f604082611842565b60058152640352e302e360dc1b6020820152604051918291602083526020830190611e33565b34610429576126433661231a565b91969394929673__$c0ca080a98cf238f72f7f61cbbb953094a$__97883b15610429575f9661241f95604051998a98633bd68e1f60e21b8a527f000000000000000000000000000000000000000000000000000000000000000060048b01613fe2565b34610429576126b436611328565b9073__$1cd3066fe913aa9d2ac4c48f01e58e18c5$__91823b156104295760405163c5d0132d60e01b81527f00000000000000000000000000000000000000000000000000000000000000006001600160a01b0390811660048301527f0000000000000000000000000000000000000000000000000000000000000000811660248301527f00000000000000000000000000000000000000000000000000000000000000008116604483015290921660648301526001600160401b03166084820152905f90829060a49082905af480156108aa5761089457005b34610429575f366003190112610429576020611d12610d7f614936565b34610429576020366003190112610429576004356127c881610418565b6127fc337f00000000000000000000000000000000000000000000000000000000000000006001600160a01b031614613893565b6001600160a01b0381165f8181525f5160206153e15f395f51905f52602052604090205f5160206153c15f395f51905f52906128379061345a565b610aa0610a8b60206040840193612864886002875161285581613444565b61285e81613444565b14614e36565b61286d88613d65565b60018552610a65565b34610429575f3660031901126104295761115c612894611f1c614936565b604051918291602083526020830190611df7565b34610429575f3660031901126104295760206001600160401b035f5160206154215f395f51905f525416604051908152f35b346104295761196860206128ed3661042d565b60405163ca55139b60e01b81529384928392907f000000000000000000000000000000000000000000000000000000000000000060048501613adf565b3461042957602036600319011261042957611121602060043561294c81610418565b604051632c9737fb60e21b81526001600160a01b037f000000000000000000000000000000000000000000000000000000000000000081166004830152909116602482015291829081906044820190565b34610429576020366003190112610429576004356129ba81610418565b7f00000000000000000000000000000000000000000000000000000000000000006001600160a01b03163303612c44576129f661048b8261338a565b6040810191612a0a8184516104ab81613444565b612a12614936565b90612a1d82846142da565b93612a5b612a3b612a36875463ffffffff9060d01c1690565b614e5e565b865463ffffffff60d01b191660d082901b63ffffffff60d01b1617909655565b612a68846105878461338a565b6040516317c332e760e31b81527f00000000000000000000000000000000000000000000000000000000000000006001600160a01b03169490602081600481895afa80156108aa5763ffffffff915f91612c25575b501663ffffffff87161015612b24575b50506040805163ffffffff90951685526001600160401b0390921660208501526001600160a01b0316927ff30f0392d5346908bf200bc0924d0c9860e22d46fc606e979a2e14fff24c62b992509081908101610dca565b6004946020612b31614936565b9160405197888092630d97cd9b60e31b82525afa9283156108aa57612ba0612b90612ba69363ffffffff612baf977ff30f0392d5346908bf200bc0924d0c9860e22d46fc606e979a2e14fff24c62b99b5f91612bf6575b5016906138fd565b6001600160401b03166080850152565b60039052565b611c7983614eb9565b6040516001600160401b03831681526001600160a01b038216907f6acc1079130362b805ce4a8874346d4ee8893d55f223e378ddc73031ce427eab90602090a25f80612acd565b612c18915060203d602011612c1e575b612c108183611842565b810190614921565b5f612b88565b503d612c06565b612c3e915060203d602011612c1e57612c108183611842565b5f612abd565b635e2569d960e11b5f5260045ffd5b346104295760203660031901126104295761115c612c766004356117c881610c83565b604051918291602083526020830190611e33565b34610429575f36600319011261042957612ca5611f1c614936565b612caf8151613e33565b905f5b8151811015611fd5576001906001600160a01b03612cd08285613b02565b51165f525f5160206153415f395f51905f5260205260405f206001600160401b03600260405192612d008461180c565b612d0981613e82565b84528581015460208501520154166040820152612d268286613b02565b52612d318185613b02565b5001612cb2565b63ffffffff81160361042957565b3461042957604036600319011261042957600435612d6381610c83565b6001600160401b0360243591612d7883612d38565b16805f525f5160206153615f395f51905f5260205260405f20908154908115612e025763ffffffff84169082821015612dea5761115c612dd0612dbb8787613d50565b905460039190911b1c6001600160a01b031690565b6040516001600160a01b0390911681529081906020820190565b632fdbfd3160e21b5f5260045260245260445260645ffd5b6316b38b6f60e01b5f5260045260245ffd5b3461042957612e2b612e253661042d565b90614135565b604080519283526001600160401b0391909116602083015290f35b34610429575f366003190112610429575f5160206153015f395f51905f5254612e6e81614244565b612e7782613e33565b915f5b818110612e9257505061115c60405192839283611e8a565b80612e9e600192613d20565b838060a01b0391549060031b1c16612eb68286613b02565b52818060a01b03612ec78286613b02565b51165f525f5160206153415f395f51905f52602052612ee860405f20613f20565b612ef28287613b02565b52612efd8186613b02565b5001612e7a565b3461042957606036600319011261042957600435612f2181610418565b612f2961061b565b90604435604051636f85684760e01b815290916020826004817f00000000000000000000000000000000000000000000000000000000000000006001600160a01b03165afa9182156108aa576108a894612f9385612fb39581945f91612fdb575b50811015614276565b612fa36402540be400830661154b565b612fab6142a6565b923390614536565b30337f000000000000000000000000000000000000000000000000000000000000000061483d565b612ff4915060203d6020116111885761117a8183611842565b5f612f8a565b34610429576130083661231a565b91969394929673__$c0ca080a98cf238f72f7f61cbbb953094a$__97883b15610429575f9661241f95604051998a9863a757204960e01b8a527f000000000000000000000000000000000000000000000000000000000000000060048b01613fe2565b34610429575f366003190112610429575f5160206154815f395f51905f52546040516001600160a01b039091168152602090f35b34610429576020366003190112610429576001600160401b036004356130c481610c83565b165f525f5160206153615f395f51905f52602052602060405f2054604051908152f35b346104295760203660031901126104295760043561310481610418565b61310c614c44565b5f5160206154815f395f51905f5280546001600160a01b0319166001600160a01b039283169081179091555f5160206153a15f395f51905f52549091167f38d16b8cac22d99fc7c124b9cd0de2d3fa1faef420bfe791d8c362d765e227005f80a3005b346104295760203660031901126104295760043561318c81610418565b6001600160a01b03165f9081525f5160206153e15f395f51905f52602052604090206001015460a01c60ff1660048110156131ce576040519015158152602090f35b634e487b7160e01b5f52602160045260245ffd5b34610429576131f036611328565b9073__$1cd3066fe913aa9d2ac4c48f01e58e18c5$__91823b15610429576040516304c5372960e01b81527f00000000000000000000000000000000000000000000000000000000000000006001600160a01b0390811660048301527f00000000000000000000000000000000000000000000000000000000000000008116602483015290921660448301526001600160401b03166064820152905f90829060849082905af480156108aa5761089457005b34610429576020366003190112610429576004356132bf81610418565b73__$1cd3066fe913aa9d2ac4c48f01e58e18c5$__90813b1561042957604051635154d80160e11b81527f00000000000000000000000000000000000000000000000000000000000000006001600160a01b0390811660048301527f0000000000000000000000000000000000000000000000000000000000000000811660248301527f0000000000000000000000000000000000000000000000000000000000000000811660448301529091166064820152905f90829060849082905af480156108aa5761089457005b6001600160a01b03165f9081525f5160206153e15f395f51905f526020526040902090565b6001600160a01b03165f9081527f4102a9ba7244b40639ebe412c7bfc792b19c048efdf631bf4f130fef80c0df016020526040902090565b6001600160a01b03165f9081525f5160206154415f395f51905f526020526040902090565b6001600160a01b03165f9081527f4102a9ba7244b40639ebe412c7bfc792b19c048efdf631bf4f130fef80c0df036020526040902090565b600411156131ce57565b60048210156131ce5752565b9061187260405161346a816117ec565b60a06134cb60028396600180851b0381541685526001600160401b03806001830154600180881b03811660208901526134ab60ff82891c1660408a0161344e565b60a81c1616606086015201546001600160401b0381166080850152610f45565b6001600160401b0316910152565b156134e15750565b635a4887e160e01b5f9081526001600160a01b0391909116600452602490fd5b156135095750565b6359de29ed60e01b5f9081526001600160a01b0391909116600452602490fd5b1561353057565b6352afe97760e11b5f5260045ffd5b156135475750565b63b5202b6360e01b5f9081526001600160a01b0391909116600452602490fd5b5f5160206154815f395f51905f5280546001600160a01b0319169055565b80546001600160a01b0319166001600160a01b03909216919091179055565b81519091906135bc906001600160a01b031683613585565b60208101516001830192906135da906001600160a01b031684613585565b604082015160048110156131ce5760048110156131ce578354606084015167ffffffffffffffff60a81b60a89190911b1668ffffffffffffffffff60a01b1990911660ff60a01b60a093841b1617179093556118729261367a916002019261366c61364f60808301516001600160401b031690565b855467ffffffffffffffff19166001600160401b03909116178555565b01516001600160401b031690565b815467ffffffffffffffff60401b191660409190911b67ffffffffffffffff60401b16179055565b60ff909116815261ffff909116602082015260400190565b156136c157565b63612acc3960e11b5f5260045ffd5b634e487b7160e01b5f52603260045260245ffd5b91908110156136f45760051b0190565b6136d0565b3561045281610418565b634e487b7160e01b5f52601160045260245ffd5b906001820180921161372557565b613703565b9190820180921161372557565b93929193613743614e76565b61374b614e76565b613753614e76565b6001600160a01b038116156138335761377190959493929195614c64565b613779614e76565b613781614e76565b61378c8383146136ba565b5f945f945b8486106137d257505050505050806137a65750565b6118729030337f000000000000000000000000000000000000000000000000000000000000000061483d565b9091929394956138276001916138156137f46137ef8b8b896136e4565b6136f9565b856138036137ef8d8d8b6136e4565b61380e8d8c8c6136e4565b35926146c9565b6138208988886136e4565b359061372a565b96019493929190613791565b631e4fbdf760e01b5f525f60045260245ffd5b6040513d5f823e3d90fd5b156138595750565b61ffff906368ec6e2560e11b5f521660045260245ffd5b80546001600160f01b031660f09290921b6001600160f01b031916919091179055565b1561389a57565b6354348f0360e01b5f5260045ffd5b908060209392818452848401375f828201840152601f01601f1916010190565b156138d057565b633d45932f60e11b5f5260045ffd5b6001600160401b036001911601906001600160401b03821161372557565b906001600160401b03809116911601906001600160401b03821161372557565b6001600160401b035f19911601906001600160401b03821161372557565b6001600160401b03601f19911601906001600160401b03821161372557565b6001600160401b03165f527fd9eff1b8c318f0d144ec006a3ad306d57c34b8d91ebd3ec67df12b9551f47c0060205260405f2090565b90600182811c921680156139be575b60208310146139aa57565b634e487b7160e01b5f52602260045260245ffd5b91607f169161399f565b601f82116139d557505050565b5f5260205f20906020601f840160051c83019310613a0d575b601f0160051c01905b818110613a02575050565b5f81556001016139f7565b90915081906139ee565b9092916001600160401b03811161180757613a3c81613a368454613990565b846139c8565b5f601f8211600114613a7a578190613a6b9394955f92613a6f575b50508160011b915f199060031b1c19161790565b9055565b013590505f80613a57565b601f19821694613a8d845f5260205f2090565b915f5b878110613ac7575083600195969710613aae575b505050811b019055565b01355f19600384901b60f8161c191690555f8080613aa4565b90926020600181928686013581550194019101613a90565b6001600160a01b0391821681529181166020830152909116604082015260600190565b80518210156136f45760209160051b010190565b6001600160a01b03165f8181525f5160206153e15f395f51905f526020526040902060019081015460a01c60ff16613b4d81613444565b03613b9957613b5a614a58565b905f5b8251811015613b9257816001600160a01b03613b7c6105318487613b02565b1614613b8a57600101613b5d565b505050600190565b5050505f90565b505f90565b90816020910312610429575190565b906402540be4008202918083046402540be400149015171561372557565b90916001600160a01b037f000000000000000000000000000000000000000000000000000000000000000016308114908115613cae575b50611a0e57613c0f614c44565b6040516352d1902d60e01b8152926020846004816001600160a01b0387165afa5f9481613c8d575b50613c5857634c9c8ce360e01b5f526001600160a01b03831660045260245ffd5b90915f5160206154015f395f51905f528403613c7957611872929350614fa3565b632a87526960e21b5f52600484905260245ffd5b613ca791955060203d6020116111885761117a8183611842565b935f613c37565b5f5160206154015f395f51905f52546001600160a01b0316141590505f613c02565b15613cd85750565b631bceedfb60e11b5f9081526001600160a01b0391909116600452602490fd5b15613d005750565b633a4541ef60e01b5f9081526001600160a01b0391909116600452602490fd5b5f5160206153015f395f51905f52548110156136f4575f5160206153015f395f51905f525f5260205f2001905f90565b80548210156136f4575f5260205f2001905f90565b5f5160206153015f395f51905f525490600160401b82101561180757600182015f5160206153015f395f51905f52555f5160206153015f395f51905f52548210156136f4575f5160206153015f395f51905f525f527f024be1d688fec05d4c3e9aeb5eac4f8c1e7d5bd030a2d0a8bafafba39f7f7ac990910180546001600160a01b0319166001600160a01b03909216919091179055565b6001600160401b0381116118075760051b60200190565b60405190613e218261180c565b5f604083606081528260208201520152565b90613e3d82613dfd565b613e4a6040519182611842565b8281528092613e5b601f1991613dfd565b01905f5b828110613e6b57505050565b602090613e76613e14565b82828501015201613e5f565b9060405191825f825492613e9584613990565b8084529360018116908115613efe5750600114613eba575b5061187292500383611842565b90505f9291925260205f20905f915b818310613ee2575050906020611872928201015f613ead565b6020919350806001915483858901015201910190918492613ec9565b90506020925061187294915060ff191682840152151560051b8201015f613ead565b90604051613f2d8161180c565b60406001600160401b0360028395613f4481613e82565b855260018101546020860152015416910152565b6001600160a01b03909116815260a0602082018190528101839052929594939160c0840191905f5b818110613fb857505050916001600160401b036080928161187296959816604084015216606082015201906001600160401b03169052565b9091926020806001928635613fcc81610418565b848060a01b031681520194019101919091613f80565b9795939094614013614021936104529b999561402f9860018060a01b03168c5260a060208d015260a08c01916138a9565b9189830360408b01526138a9565b9186830360608801526138a9565b9260808185039101526138a9565b9060405161404a81611827565b91546001600160601b0381168352606081811c6001600160701b0316602085015260d082901c63ffffffff16604085015260f09190911c90830152565b90604051604081018181106001600160401b038211176118075760405291546001600160701b038116835260701c6001600160401b03166020830152565b9081546140d181613dfd565b926140df6040519485611842565b81845260208401905f5260205f205f915b8383106140fd5750505050565b60016020819261410c85614087565b8152019201920191906140f0565b5f1981019190821161372557565b9190820391821161372557565b906116706141429261340c565b6040519061414f82611827565b805461415a81613dfd565b906141686040519283611842565b80825260208201835f5260205f205f915b838310614227575050505060036141e6926141d69285526141b76141a760018301546001600160401b031690565b6001600160401b03166020870152565b6141c3600282016140c5565b604086015201546001600160401b031690565b6001600160401b03166060830152565b51805190811561421f576141fc6142029261411a565b90613b02565b519061045260206114236113de6113d2865160018060701b031690565b50505f905f90565b60016020819261423685614087565b815201920192019190614179565b9061424e82613dfd565b61425b6040519182611842565b828152809261426c601f1991613dfd565b0190602036910137565b1561427e5750565b630a30df6160e11b5f5260045260245ffd5b1561429757565b634b5d6ee760e11b5f5260045ffd5b610452610d7f614936565b8054600160601b600160d01b03191660609290921b600160601b600160d01b0316919091179055565b80516001600160a01b03165f9081525f5160206154415f395f51905f526020526040902091929161430c90849061164c565b805490939060601c6001600160701b03166143b25761437e61437860606143576124a2826143436133e7895160018060a01b031690565b97019661248d88516001600160401b031690565b602081015161436f906001600160701b0316896142b1565b015161ffff1690565b85613870565b614392610cf983516001600160401b031690565b6001600160401b038216116143a5575050565b6001600160401b03169052565b5050565b156143bd57565b632808647560e11b5f5260045ffd5b156143d357565b639905827b60e01b5f5260045ffd5b156143e957565b63d5b25b6360e01b5f5260045ffd5b156144005750565b63164688df60e21b5f9081526001600160a01b0391909116600452602490fd5b811561442a570490565b634e487b7160e01b5f52601260045260245ffd5b815181546001600160601b0319166001600160601b03919091161781556118729161ffff90606090602081015161447e906001600160701b0316856142b1565b6040810151845463ffffffff60d01b191660d09190911b63ffffffff60d01b1617845501511690613870565b156144b25750565b634168a4a560e11b5f5260045260245ffd5b8054600160401b811015611807576144e191600182018155613d50565b91909161452357805182546020909201516001600160b01b03199092166001600160701b03919091161760709190911b67ffffffffffffffff60701b16179055565b634e487b7160e01b5f525f60045260245ffd5b916146975f5160206153215f395f51905f5293614589966116bc6116856146af966116706146576113d26145769c60018060a01b0389169d8e15156143b6565b6001600160a01b0385169e8f15156143cc565b6145996402540be400820661154b565b6001600160401b038816806146b4575b506145bd8b610bb861ffff82161115613851565b6146226145cc61048b8b61338a565b61460a60028c6145f660408501916145e981845161159481613444565b6001600160a01b03168552565b6001600160a01b038a16602085015261344e565b6001600160401b038a1660608201526105878b61338a565b6146358961052b61051f610512896133af565b61464289610564876133af565b61464c6002613444565b6402540be400900490565b95614692614663611863565b5f81526001600160701b03891660208201525f604082015261ffff8b1660608201526116628861164c856133e7565b61340c565b6146a16002613444565b6040519182916002836136a2565b0390a3565b6146c3906116f9610cf96142a6565b5f6145a9565b6001600160a01b038116925f5160206153215f395f51905f52926146af92614825916147f4906146fa8815156143b6565b6001600160a01b03811698611670906147b9906113d29061471c8d15156143cc565b61472c6402540be400820661154b565b61473f89610bb861ffff82161115613851565b61478661474e61048b8961338a565b6147776001604083016147668c825161159481613444565b6001600160a01b038c1684526145f6565b5f60608201526105878961338a565b6147998761052b61051f610512896133af565b6147a687610564876133af565b6147b06001613444565b61464c87613d65565b936146926147c5611863565b5f81526001600160701b03871660208201525f604082015261ffff891660608201526116625f61164c856133e7565b614800815480156144aa565b61481a61480b611874565b6001600160701b039093168352565b5f60208301526144c4565b61482f6001613444565b6040519182916001836136a2565b6040516323b872dd60e01b602082019081526001600160a01b039384166024830152939092166044830152606480830194909452928152916148a7915f91829190614889608487611842565b60018060a01b031694519082865af16148a0615107565b90836152a2565b80519081151591826148d8575b50506148bd5750565b635274afe760e01b5f526001600160a01b031660045260245ffd5b6148ef9250906020806106c0938301019101614ea1565b5f806148b4565b156148fd57565b63098a8cbb60e41b5f5260045ffd5b90816020910312610429575161045281610c83565b90816020910312610429575161045281612d38565b604051631454a0a560e31b81527f00000000000000000000000000000000000000000000000000000000000000006001600160a01b031690602081600481855afa80156108aa576001600160401b03915f91614a01575b5016908143106149fb5760206149a560049343614128565b916040519384809263068d921560e31b82525afa9081156108aa5763ffffffff610cf992610452945f916149dc575b501690614420565b6149f5915060203d602011612c1e57612c108183611842565b5f6149d4565b50505f90565b614a23915060203d602011614a29575b614a1b8183611842565b81019061490c565b5f61498d565b503d614a11565b15614a385750565b6375687d0f60e11b5f9081526001600160a01b0391909116600452602490fd5b610452611f1c614936565b6001600160601b03918216908216019190821161372557565b60405190614a8982611827565b5f6060838281528260208201528260408201520152565b9190614ad890614aae614a7c565b5083516001600160a01b03165f9081525f5160206154415f395f51905f526020526040902061164c565b9160405192614ae684611827565b546001600160601b0381168452606081811c6001600160701b03166020860181905260d083901c63ffffffff16604087015260f09290921c908501528390614b815750614b766060614b5e6124a28461248d84614b4f6133e7611872995160018060a01b031690565b9201516001600160401b031690565b6020818101516001600160701b03169087015261436f565b61ffff166060840152565b925050565b5f5160206153815f395f51905f52546001600160401b03168015614c1e57614bad9061391d565b6001600160401b038216906001600160401b038116821015614c355750602011614c2e57614bda8161393b565b905b614bed614be88261395a565b613e82565b8051614c2857506001600160401b0382166001600160401b03821614614c1e575f19016001600160401b0316614bdc565b50506104526125da565b91505090565b5f90614bdc565b6104529250614be8915061395a565b5f5160206153a15f395f51905f52546001600160a01b03163303611d5c57565b614c6c613567565b5f5160206153a15f395f51905f5280546001600160a01b039283166001600160a01b0319821681179092559091167f8be0079c531659141344cd1fd0a4f28419497f9722a3daafe3b4186f6b6457e05f80a3565b905f5160206153015f395f51905f5254614cd981614244565b925f5b828110614e1457506040516306598de160e31b815290602090829060049082906001600160a01b03165afa80156108aa5763ffffffff915f91614df5575b501691818311614dec575b5f5b838110614d3657505050815290565b80614d4a61048b610955610531858a613b02565b614d5383613717565b858110614da957505090614da3600192614d8e614d73610531858b613b02565b91614d9d614d84610531838d613b02565b614d8e878d613b02565b6001600160a01b039091169052565b89613b02565b01614d27565b614dbc61048b610955610531848c613b02565b614dc68684615045565b614dd08783615045565b11614ddf575b50600101614d53565b9092509050816001614dd6565b91508091614d25565b614e0e915060203d602011612c1e57612c108183611842565b5f614d1a565b80614e30614e26612dbb600194613d20565b614d8e8389613b02565b01614cdc565b15614e3e5750565b63403f6f6f60e11b5f9081526001600160a01b0391909116600452602490fd5b63ffffffff60019116019063ffffffff821161372557565b60ff5f5160206154615f395f51905f525460401c1615614e9257565b631afcd79f60e31b5f5260045ffd5b90816020910312610429575180151581036104295790565b5f5160206153015f395f51905f5254905f905f19906001600160a01b03165b838310614f65575b5090505f811215614eef575050565b6001821180614f53575b614f08575b505061187261507c565b614f28614f22612dbb614f1d614f4c9561411a565b613d20565b91613d20565b81546001600160a01b0393841660039290921b91821b9390911b1916919091179055565b5f80614efe565b50614f5d8261411a565b811415614ef9565b80614f89614f7285613d20565b90546001600160a01b039260039290921b1c821690565b1603614f98575050805f614ee0565b600190920191614ed8565b90813b15615024575f5160206154015f395f51905f5280546001600160a01b0319166001600160a01b0384169081179091557fbc7cd75a20ee27fd9adebab32041f755214dbc6bffa90cc0225b39da2e5c2d3b5f80a280511561500c5761500991615136565b50565b50503461501557565b63b398979f60e01b5f5260045ffd5b50634c9c8ce360e01b5f9081526001600160a01b0391909116600452602490fd5b6001600160701b039160209161505b9190615153565b0151166402540be4008102908082046402540be40014901517156137255790565b5f5160206153015f395f51905f525480156150f3575f198101905f5160206153015f395f51905f52548210156136f4575f5160206153015f395f51905f525f8190527f024be1d688fec05d4c3e9aeb5eac4f8c1e7d5bd030a2d0a8bafafba39f7f7ac890910180546001600160a01b031916905555565b634e487b7160e01b5f52603160045260245ffd5b3d15615131573d9061511882611883565b916151266040519384611842565b82523d5f602084013e565b606090565b5f8061045293602081519101845af461514d615107565b916152a2565b9061515c614a7c565b50606082019061517382516001600160401b031690565b6001600160401b0381166001600160401b038316101561529b57505b6001600160401b038116801561526f5783516151bd906124a290849061164c906001600160a01b03166133e7565b906151d2610cf985516001600160401b031690565b148015615259575b8015615246575b801561522b575b801561520c575b61520557505f19016001600160401b031661518f565b9250505090565b5063ffffffff615223604083015163ffffffff1690565b1615156151ef565b5061ffff61523e606083015161ffff1690565b1615156151e8565b5080516001600160601b031615156151e1565b5060208101516001600160701b031615156151da565b5050905161045291506124a29061528e906001600160a01b03166133e7565b5f805260205260405f2090565b905061518f565b906152c657508051156152b757805190602001fd5b630a12f52160e11b5f5260045ffd5b815115806152f7575b6152d7575090565b639996b31560e01b5f9081526001600160a01b0391909116600452602490fd5b50803b156152cf56fe4102a9ba7244b40639ebe412c7bfc792b19c048efdf631bf4f130fef80c0df0242449fd19d367b0177da9082fe6da7d4da41af7573e3a3c1750ecffeffe26f9df295d610a4116363064013aa5e1168427c6b907b208d8be559665c0e7adec5008f1c49778ec45f03e87f0e3e1567785ab335a882d8dad6d5c44cb7ae50968400d9eff1b8c318f0d144ec006a3ad306d57c34b8d91ebd3ec67df12b9551f47c019016d09d72d40fdae2fd8ceac6b6234c7706214fd39c1cd1e609a0528c199300c00107e0d011ac7c8e4dfa18e3dd3623ff151f8bfcc3821cd39bc114bd6504d94102a9ba7244b40639ebe412c7bfc792b19c048efdf631bf4f130fef80c0df00360894a13ba1a3210667c828492db98dca3e2076cc3735a920a3ca505d382bbc8f1c49778ec45f03e87f0e3e1567785ab335a882d8dad6d5c44cb7ae509684014102a9ba7244b40639ebe412c7bfc792b19c048efdf631bf4f130fef80c0df04f0c57e16840df040f15088dc2f81fe391c3923bec73e23a9662efc9c229c6a00237e158222e3e6968b72b9db0d8043aacf074ad9f650f0d1606b4d82ee432c00a2646970667358221220cc02ac280c14abd85a4ccca6533902f63d1ae65310df096b0911d98f9a1bb55a64736f6c634300081e0033f0c57e16840df040f15088dc2f81fe391c3923bec73e23a9662efc9c229c6a00","linkReferences":{"contracts/staking/StakingDpos.sol":{"StakingDpos":[{"start":3657,"length":20},{"start":9245,"length":20},{"start":9924,"length":20},{"start":10571,"length":20},{"start":13072,"length":20}]},"contracts/staking/StakingEconomics.sol":{"StakingEconomics":[{"start":2795,"length":20},{"start":4834,"length":20},{"start":5157,"length":20},{"start":6693,"length":20},{"start":7276,"length":20},{"start":7536,"length":20},{"start":9561,"length":20},{"start":10679,"length":20},{"start":13555,"length":20},{"start":13761,"length":20}]}}},"methodIdentifiers":{"UPGRADE_INTERFACE_VERSION()":"ad3cb1cc","acceptOwnership()":"79ba5097","activateValidator(address)":"b46e5520","addValidator(address)":"4d238c8e","beaconAssurance(uint64)":"4e5e2c04","calcAvailableForRedelegateAmount(address,address)":"5ef9e8c6","changeValidatorCommissionRate(address,uint16)":"14f8649f","changeValidatorOwner(address,address)":"0052c9e1","claimDelegatorFee(address)":"426594b1","claimDelegatorFeeAtEpoch(address,uint64)":"fe38ebef","claimValidatorFee(address)":"ff4794fc","claimValidatorFeeAtEpoch(address,uint64)":"adf2a79c","commitEpochBeaconKey(uint64,bytes)":"37e559f1","commitEpochCommittee(address[])":"87401d8a","committeeSelectionEpoch()":"8bd070e4","currentEpoch()":"76671808","delegate(address,uint256)":"026e402b","deposit(address,uint256)":"47e7ef24","disableValidator(address)":"1fe97684","getChainConfig()":"606c0c94","getConsensusKeys(address)":"ad36f42f","getDelegatorFee(address,address)":"52b7bea2","getEpochBeaconKey(uint64)":"c9adaf5c","getEpochCommittee(uint64)":"80b562de","getEpochCommitteeLength(uint64)":"e3e6cedc","getGovernance()":"289b3c0d","getPendingDelegatorFee(address,address)":"c2fd58fc","getPendingValidatorFee(address)":"c6fb9065","getRegistryWithKeys()":"d96cbd7b","getStaking()":"7b1391a6","getStakingPool()":"45946334","getStakingToken()":"9f9106d1","getSystemReward()":"7a37cc59","getValidatorByOwner(address)":"30108c22","getValidatorDelegation(address,address)":"d951e186","getValidatorFee(address)":"457179fd","getValidatorStatus(address)":"a310624f","getValidatorStatusAtEpoch(address,uint64)":"48124d26","getValidators()":"b7ab4db5","getValidatorsWithKeys()":"d41c52eb","getValidatorsWithKeysAt(uint64)":"7cfba9f3","initialize(address,address[],uint256[],uint16)":"01f6bb50","isValidator(address)":"facd743b","isValidatorActive(address)":"42ad55ac","nextEpoch()":"aea0e78b","nextEpochForBeaconKey()":"a8f4bbb6","nextEpochToCommit()":"c06a82de","owner()":"8da5cb5b","pendingOwner()":"e30c3978","proxiableUUID()":"52d1902d","redelegateDelegatorFee(address)":"8ecb3fc9","registerValidator(address,uint16,uint256)":"dd0fb5df","releaseValidatorFromJail(address)":"73a3dda6","removeValidator(address)":"40a141ff","renounceOwnership()":"715018a6","resolveSigner(uint64,uint32)":"d7f1733d","setConsensusKeys(address,bytes,bytes,bytes32)":"225cba85","slash(address)":"c96be4cb","slashEquivocationFinalize(bytes,bytes,bytes,bytes)":"add07a3e","slashEquivocationNotarize(bytes,bytes,bytes,bytes)":"e28d2f63","slashEquivocationNullifyFinalize(bytes,bytes,bytes,bytes)":"a10827e9","transferOwnership(address)":"f2fde38b","undelegate(address,uint256)":"4d99dd16","upgradeToAndCall(address,bytes)":"4f1ef286"},"storageLayout":{"storage":[],"types":{}},"id":45}