{"abi":[{"type":"constructor","inputs":[{"name":"stakingContract","type":"address","internalType":"contract IStaking"},{"name":"systemRewardContract","type":"address","internalType":"contract ISystemReward"},{"name":"stakingPoolContract","type":"address","internalType":"contract IStakingPool"},{"name":"governanceContract","type":"address","internalType":"contract IFluentGovernance"},{"name":"chainConfigContract","type":"address","internalType":"contract IChainConfig"},{"name":"stakingToken","type":"address","internalType":"contract IERC20"},{"name":"livenessSlashingAddr","type":"address","internalType":"address"}],"stateMutability":"nonpayable"},{"type":"function","name":"UPGRADE_INTERFACE_VERSION","inputs":[],"outputs":[{"name":"","type":"string","internalType":"string"}],"stateMutability":"view"},{"type":"function","name":"acceptOwnership","inputs":[],"outputs":[],"stateMutability":"nonpayable"},{"type":"function","name":"activateValidator","inputs":[{"name":"validator","type":"address","internalType":"address"}],"outputs":[],"stateMutability":"nonpayable"},{"type":"function","name":"addValidator","inputs":[{"name":"account","type":"address","internalType":"address"}],"outputs":[],"stateMutability":"nonpayable"},{"type":"function","name":"calcAvailableForRedelegateAmount","inputs":[{"name":"validator","type":"address","internalType":"address"},{"name":"delegator","type":"address","internalType":"address"}],"outputs":[{"name":"amountToStake","type":"uint256","internalType":"uint256"},{"name":"rewardsDust","type":"uint256","internalType":"uint256"}],"stateMutability":"view"},{"type":"function","name":"changeValidatorCommissionRate","inputs":[{"name":"validatorAddress","type":"address","internalType":"address"},{"name":"commissionRate","type":"uint16","internalType":"uint16"}],"outputs":[],"stateMutability":"nonpayable"},{"type":"function","name":"changeValidatorOwner","inputs":[{"name":"validatorAddress","type":"address","internalType":"address"},{"name":"newOwner","type":"address","internalType":"address"}],"outputs":[],"stateMutability":"nonpayable"},{"type":"function","name":"claimDelegatorFee","inputs":[{"name":"validatorAddress","type":"address","internalType":"address"}],"outputs":[],"stateMutability":"nonpayable"},{"type":"function","name":"claimDelegatorFeeAtEpoch","inputs":[{"name":"validatorAddress","type":"address","internalType":"address"},{"name":"beforeEpoch","type":"uint64","internalType":"uint64"}],"outputs":[],"stateMutability":"nonpayable"},{"type":"function","name":"claimValidatorFee","inputs":[{"name":"validatorAddress","type":"address","internalType":"address"}],"outputs":[],"stateMutability":"nonpayable"},{"type":"function","name":"claimValidatorFeeAtEpoch","inputs":[{"name":"validatorAddress","type":"address","internalType":"address"},{"name":"beforeEpoch","type":"uint64","internalType":"uint64"}],"outputs":[],"stateMutability":"nonpayable"},{"type":"function","name":"commitEpochCommittee","inputs":[{"name":"committee","type":"address[]","internalType":"address[]"}],"outputs":[],"stateMutability":"nonpayable"},{"type":"function","name":"committeeSelectionEpoch","inputs":[],"outputs":[{"name":"","type":"uint64","internalType":"uint64"}],"stateMutability":"view"},{"type":"function","name":"currentEpoch","inputs":[],"outputs":[{"name":"","type":"uint64","internalType":"uint64"}],"stateMutability":"view"},{"type":"function","name":"delegate","inputs":[{"name":"validatorAddress","type":"address","internalType":"address"},{"name":"amount","type":"uint256","internalType":"uint256"}],"outputs":[],"stateMutability":"nonpayable"},{"type":"function","name":"deposit","inputs":[{"name":"validatorAddress","type":"address","internalType":"address"},{"name":"amount","type":"uint256","internalType":"uint256"}],"outputs":[],"stateMutability":"nonpayable"},{"type":"function","name":"disableValidator","inputs":[{"name":"validator","type":"address","internalType":"address"}],"outputs":[],"stateMutability":"nonpayable"},{"type":"function","name":"getChainConfig","inputs":[],"outputs":[{"name":"","type":"address","internalType":"contract IChainConfig"}],"stateMutability":"view"},{"type":"function","name":"getConsensusKeys","inputs":[{"name":"validatorAddress","type":"address","internalType":"address"}],"outputs":[{"name":"","type":"tuple","internalType":"struct IStaking.ConsensusKeys","components":[{"name":"blsPubkey","type":"bytes","internalType":"bytes"},{"name":"peerPubkey","type":"bytes32","internalType":"bytes32"},{"name":"activationEpoch","type":"uint64","internalType":"uint64"}]}],"stateMutability":"view"},{"type":"function","name":"getDelegatorFee","inputs":[{"name":"validatorAddress","type":"address","internalType":"address"},{"name":"delegatorAddress","type":"address","internalType":"address"}],"outputs":[{"name":"","type":"uint256","internalType":"uint256"}],"stateMutability":"view"},{"type":"function","name":"getEpochCommittee","inputs":[{"name":"epoch","type":"uint64","internalType":"uint64"}],"outputs":[{"name":"","type":"address[]","internalType":"address[]"}],"stateMutability":"view"},{"type":"function","name":"getEpochCommitteeLength","inputs":[{"name":"epoch","type":"uint64","internalType":"uint64"}],"outputs":[{"name":"","type":"uint256","internalType":"uint256"}],"stateMutability":"view"},{"type":"function","name":"getEpochCommitteeWithStakes","inputs":[{"name":"epoch","type":"uint64","internalType":"uint64"}],"outputs":[{"name":"addrs","type":"address[]","internalType":"address[]"},{"name":"keys","type":"tuple[]","internalType":"struct IStaking.ConsensusKeys[]","components":[{"name":"blsPubkey","type":"bytes","internalType":"bytes"},{"name":"peerPubkey","type":"bytes32","internalType":"bytes32"},{"name":"activationEpoch","type":"uint64","internalType":"uint64"}]},{"name":"stakes","type":"uint256[]","internalType":"uint256[]"}],"stateMutability":"view"},{"type":"function","name":"getGovernance","inputs":[],"outputs":[{"name":"","type":"address","internalType":"contract IFluentGovernance"}],"stateMutability":"view"},{"type":"function","name":"getPendingDelegatorFee","inputs":[{"name":"validatorAddress","type":"address","internalType":"address"},{"name":"delegatorAddress","type":"address","internalType":"address"}],"outputs":[{"name":"","type":"uint256","internalType":"uint256"}],"stateMutability":"view"},{"type":"function","name":"getPendingValidatorFee","inputs":[{"name":"validatorAddress","type":"address","internalType":"address"}],"outputs":[{"name":"","type":"uint256","internalType":"uint256"}],"stateMutability":"view"},{"type":"function","name":"getRegistryWithKeys","inputs":[],"outputs":[{"name":"addrs","type":"address[]","internalType":"address[]"},{"name":"keys","type":"tuple[]","internalType":"struct IStaking.ConsensusKeys[]","components":[{"name":"blsPubkey","type":"bytes","internalType":"bytes"},{"name":"peerPubkey","type":"bytes32","internalType":"bytes32"},{"name":"activationEpoch","type":"uint64","internalType":"uint64"}]}],"stateMutability":"view"},{"type":"function","name":"getStaking","inputs":[],"outputs":[{"name":"","type":"address","internalType":"contract IStaking"}],"stateMutability":"view"},{"type":"function","name":"getStakingPool","inputs":[],"outputs":[{"name":"","type":"address","internalType":"contract IStakingPool"}],"stateMutability":"view"},{"type":"function","name":"getStakingToken","inputs":[],"outputs":[{"name":"","type":"address","internalType":"contract IERC20"}],"stateMutability":"view"},{"type":"function","name":"getSystemReward","inputs":[],"outputs":[{"name":"","type":"address","internalType":"contract ISystemReward"}],"stateMutability":"view"},{"type":"function","name":"getValidatorByOwner","inputs":[{"name":"owner","type":"address","internalType":"address"}],"outputs":[{"name":"","type":"address","internalType":"address"}],"stateMutability":"view"},{"type":"function","name":"getValidatorDelegation","inputs":[{"name":"validatorAddress","type":"address","internalType":"address"},{"name":"delegator","type":"address","internalType":"address"}],"outputs":[{"name":"delegatedAmount","type":"uint256","internalType":"uint256"},{"name":"atEpoch","type":"uint64","internalType":"uint64"}],"stateMutability":"view"},{"type":"function","name":"getValidatorFee","inputs":[{"name":"validatorAddress","type":"address","internalType":"address"}],"outputs":[{"name":"","type":"uint256","internalType":"uint256"}],"stateMutability":"view"},{"type":"function","name":"getValidatorStatus","inputs":[{"name":"validatorAddress","type":"address","internalType":"address"}],"outputs":[{"name":"ownerAddress","type":"address","internalType":"address"},{"name":"status","type":"uint8","internalType":"uint8"},{"name":"totalDelegated","type":"uint256","internalType":"uint256"},{"name":"slashesCount","type":"uint32","internalType":"uint32"},{"name":"changedAt","type":"uint64","internalType":"uint64"},{"name":"jailedBefore","type":"uint64","internalType":"uint64"},{"name":"claimedAt","type":"uint64","internalType":"uint64"},{"name":"commissionRate","type":"uint16","internalType":"uint16"},{"name":"totalRewards","type":"uint96","internalType":"uint96"}],"stateMutability":"view"},{"type":"function","name":"getValidatorStatusAtEpoch","inputs":[{"name":"validatorAddress","type":"address","internalType":"address"},{"name":"epoch","type":"uint64","internalType":"uint64"}],"outputs":[{"name":"ownerAddress","type":"address","internalType":"address"},{"name":"status","type":"uint8","internalType":"uint8"},{"name":"totalDelegated","type":"uint256","internalType":"uint256"},{"name":"slashesCount","type":"uint32","internalType":"uint32"},{"name":"changedAt","type":"uint64","internalType":"uint64"},{"name":"jailedBefore","type":"uint64","internalType":"uint64"},{"name":"claimedAt","type":"uint64","internalType":"uint64"},{"name":"commissionRate","type":"uint16","internalType":"uint16"},{"name":"totalRewards","type":"uint96","internalType":"uint96"}],"stateMutability":"view"},{"type":"function","name":"getValidators","inputs":[],"outputs":[{"name":"","type":"address[]","internalType":"address[]"}],"stateMutability":"view"},{"type":"function","name":"getValidatorsWithKeys","inputs":[],"outputs":[{"name":"addrs","type":"address[]","internalType":"address[]"},{"name":"keys","type":"tuple[]","internalType":"struct IStaking.ConsensusKeys[]","components":[{"name":"blsPubkey","type":"bytes","internalType":"bytes"},{"name":"peerPubkey","type":"bytes32","internalType":"bytes32"},{"name":"activationEpoch","type":"uint64","internalType":"uint64"}]}],"stateMutability":"view"},{"type":"function","name":"getValidatorsWithKeysAt","inputs":[{"name":"epoch","type":"uint64","internalType":"uint64"}],"outputs":[{"name":"addrs","type":"address[]","internalType":"address[]"},{"name":"keys","type":"tuple[]","internalType":"struct IStaking.ConsensusKeys[]","components":[{"name":"blsPubkey","type":"bytes","internalType":"bytes"},{"name":"peerPubkey","type":"bytes32","internalType":"bytes32"},{"name":"activationEpoch","type":"uint64","internalType":"uint64"}]}],"stateMutability":"view"},{"type":"function","name":"initialize","inputs":[{"name":"initialOwner","type":"address","internalType":"address"},{"name":"validators","type":"address[]","internalType":"address[]"},{"name":"initialStakes","type":"uint256[]","internalType":"uint256[]"},{"name":"commissionRate","type":"uint16","internalType":"uint16"}],"outputs":[],"stateMutability":"nonpayable"},{"type":"function","name":"isValidator","inputs":[{"name":"account","type":"address","internalType":"address"}],"outputs":[{"name":"","type":"bool","internalType":"bool"}],"stateMutability":"view"},{"type":"function","name":"isValidatorActive","inputs":[{"name":"account","type":"address","internalType":"address"}],"outputs":[{"name":"","type":"bool","internalType":"bool"}],"stateMutability":"view"},{"type":"function","name":"nextEpoch","inputs":[],"outputs":[{"name":"","type":"uint64","internalType":"uint64"}],"stateMutability":"view"},{"type":"function","name":"nextEpochToCommit","inputs":[],"outputs":[{"name":"","type":"uint64","internalType":"uint64"}],"stateMutability":"view"},{"type":"function","name":"owner","inputs":[],"outputs":[{"name":"","type":"address","internalType":"address"}],"stateMutability":"view"},{"type":"function","name":"pendingOwner","inputs":[],"outputs":[{"name":"","type":"address","internalType":"address"}],"stateMutability":"view"},{"type":"function","name":"proxiableUUID","inputs":[],"outputs":[{"name":"","type":"bytes32","internalType":"bytes32"}],"stateMutability":"view"},{"type":"function","name":"redelegateDelegatorFee","inputs":[{"name":"validator","type":"address","internalType":"address"}],"outputs":[],"stateMutability":"nonpayable"},{"type":"function","name":"registerValidator","inputs":[{"name":"validatorAddress","type":"address","internalType":"address"},{"name":"commissionRate","type":"uint16","internalType":"uint16"},{"name":"initialStake","type":"uint256","internalType":"uint256"}],"outputs":[],"stateMutability":"nonpayable"},{"type":"function","name":"releaseValidatorFromJail","inputs":[{"name":"validatorAddress","type":"address","internalType":"address"}],"outputs":[],"stateMutability":"nonpayable"},{"type":"function","name":"removeValidator","inputs":[{"name":"account","type":"address","internalType":"address"}],"outputs":[],"stateMutability":"nonpayable"},{"type":"function","name":"renounceOwnership","inputs":[],"outputs":[],"stateMutability":"nonpayable"},{"type":"function","name":"resolveSigner","inputs":[{"name":"epoch","type":"uint64","internalType":"uint64"},{"name":"signerIdx","type":"uint32","internalType":"uint32"}],"outputs":[{"name":"","type":"address","internalType":"address"}],"stateMutability":"view"},{"type":"function","name":"setConsensusKeys","inputs":[{"name":"validatorAddress","type":"address","internalType":"address"},{"name":"blsPubkeyUncompressed","type":"bytes","internalType":"bytes"},{"name":"blsPoPUncompressed","type":"bytes","internalType":"bytes"},{"name":"peerPubkey","type":"bytes32","internalType":"bytes32"}],"outputs":[],"stateMutability":"nonpayable"},{"type":"function","name":"slash","inputs":[{"name":"validatorAddress","type":"address","internalType":"address"}],"outputs":[],"stateMutability":"nonpayable"},{"type":"function","name":"slashEquivocationFinalize","inputs":[{"name":"evidence","type":"bytes","internalType":"bytes"},{"name":"pkUncompressed","type":"bytes","internalType":"bytes"},{"name":"sig1Uncompressed","type":"bytes","internalType":"bytes"},{"name":"sig2Uncompressed","type":"bytes","internalType":"bytes"}],"outputs":[],"stateMutability":"nonpayable"},{"type":"function","name":"slashEquivocationNotarize","inputs":[{"name":"evidence","type":"bytes","internalType":"bytes"},{"name":"pkUncompressed","type":"bytes","internalType":"bytes"},{"name":"sig1Uncompressed","type":"bytes","internalType":"bytes"},{"name":"sig2Uncompressed","type":"bytes","internalType":"bytes"}],"outputs":[],"stateMutability":"nonpayable"},{"type":"function","name":"slashEquivocationNullifyFinalize","inputs":[{"name":"evidence","type":"bytes","internalType":"bytes"},{"name":"pkUncompressed","type":"bytes","internalType":"bytes"},{"name":"sig1Uncompressed","type":"bytes","internalType":"bytes"},{"name":"sig2Uncompressed","type":"bytes","internalType":"bytes"}],"outputs":[],"stateMutability":"nonpayable"},{"type":"function","name":"transferOwnership","inputs":[{"name":"newOwner","type":"address","internalType":"address"}],"outputs":[],"stateMutability":"nonpayable"},{"type":"function","name":"undelegate","inputs":[{"name":"validatorAddress","type":"address","internalType":"address"},{"name":"amount","type":"uint256","internalType":"uint256"}],"outputs":[],"stateMutability":"nonpayable"},{"type":"function","name":"upgradeToAndCall","inputs":[{"name":"newImplementation","type":"address","internalType":"address"},{"name":"data","type":"bytes","internalType":"bytes"}],"outputs":[],"stateMutability":"payable"},{"type":"event","name":"Claimed","inputs":[{"name":"validator","type":"address","indexed":true,"internalType":"address"},{"name":"staker","type":"address","indexed":true,"internalType":"address"},{"name":"amount","type":"uint256","indexed":false,"internalType":"uint256"},{"name":"epoch","type":"uint64","indexed":false,"internalType":"uint64"}],"anonymous":false},{"type":"event","name":"ConsensusKeysSet","inputs":[{"name":"validator","type":"address","indexed":true,"internalType":"address"},{"name":"blsPubkey","type":"bytes","indexed":false,"internalType":"bytes"},{"name":"peerPubkey","type":"bytes32","indexed":false,"internalType":"bytes32"},{"name":"activationEpoch","type":"uint64","indexed":false,"internalType":"uint64"}],"anonymous":false},{"type":"event","name":"Delegated","inputs":[{"name":"validator","type":"address","indexed":true,"internalType":"address"},{"name":"staker","type":"address","indexed":true,"internalType":"address"},{"name":"amount","type":"uint256","indexed":false,"internalType":"uint256"},{"name":"epoch","type":"uint64","indexed":false,"internalType":"uint64"}],"anonymous":false},{"type":"event","name":"EpochCommitteeCommitted","inputs":[{"name":"epoch","type":"uint64","indexed":true,"internalType":"uint64"},{"name":"committee","type":"address[]","indexed":false,"internalType":"address[]"}],"anonymous":false},{"type":"event","name":"EquivocationSlashed","inputs":[{"name":"validator","type":"address","indexed":true,"internalType":"address"},{"name":"epoch","type":"uint64","indexed":false,"internalType":"uint64"},{"name":"reporter","type":"address","indexed":true,"internalType":"address"}],"anonymous":false},{"type":"event","name":"Initialized","inputs":[{"name":"version","type":"uint64","indexed":false,"internalType":"uint64"}],"anonymous":false},{"type":"event","name":"OwnershipTransferStarted","inputs":[{"name":"previousOwner","type":"address","indexed":true,"internalType":"address"},{"name":"newOwner","type":"address","indexed":true,"internalType":"address"}],"anonymous":false},{"type":"event","name":"OwnershipTransferred","inputs":[{"name":"previousOwner","type":"address","indexed":true,"internalType":"address"},{"name":"newOwner","type":"address","indexed":true,"internalType":"address"}],"anonymous":false},{"type":"event","name":"Redelegated","inputs":[{"name":"validator","type":"address","indexed":true,"internalType":"address"},{"name":"staker","type":"address","indexed":true,"internalType":"address"},{"name":"amount","type":"uint256","indexed":false,"internalType":"uint256"},{"name":"dust","type":"uint256","indexed":false,"internalType":"uint256"},{"name":"epoch","type":"uint64","indexed":false,"internalType":"uint64"}],"anonymous":false},{"type":"event","name":"Undelegated","inputs":[{"name":"validator","type":"address","indexed":true,"internalType":"address"},{"name":"staker","type":"address","indexed":true,"internalType":"address"},{"name":"amount","type":"uint256","indexed":false,"internalType":"uint256"},{"name":"epoch","type":"uint64","indexed":false,"internalType":"uint64"}],"anonymous":false},{"type":"event","name":"Upgraded","inputs":[{"name":"implementation","type":"address","indexed":true,"internalType":"address"}],"anonymous":false},{"type":"event","name":"ValidatorAdded","inputs":[{"name":"validator","type":"address","indexed":true,"internalType":"address"},{"name":"owner","type":"address","indexed":true,"internalType":"address"},{"name":"status","type":"uint8","indexed":false,"internalType":"uint8"},{"name":"commissionRate","type":"uint16","indexed":false,"internalType":"uint16"}],"anonymous":false},{"type":"event","name":"ValidatorDeposited","inputs":[{"name":"validator","type":"address","indexed":true,"internalType":"address"},{"name":"amount","type":"uint256","indexed":false,"internalType":"uint256"},{"name":"epoch","type":"uint64","indexed":false,"internalType":"uint64"}],"anonymous":false},{"type":"event","name":"ValidatorJailed","inputs":[{"name":"validator","type":"address","indexed":true,"internalType":"address"},{"name":"epoch","type":"uint64","indexed":false,"internalType":"uint64"}],"anonymous":false},{"type":"event","name":"ValidatorModified","inputs":[{"name":"validator","type":"address","indexed":true,"internalType":"address"},{"name":"owner","type":"address","indexed":true,"internalType":"address"},{"name":"status","type":"uint8","indexed":false,"internalType":"uint8"},{"name":"commissionRate","type":"uint16","indexed":false,"internalType":"uint16"}],"anonymous":false},{"type":"event","name":"ValidatorOwnerClaimed","inputs":[{"name":"validator","type":"address","indexed":true,"internalType":"address"},{"name":"amount","type":"uint256","indexed":false,"internalType":"uint256"},{"name":"epoch","type":"uint64","indexed":false,"internalType":"uint64"}],"anonymous":false},{"type":"event","name":"ValidatorReleased","inputs":[{"name":"validator","type":"address","indexed":true,"internalType":"address"},{"name":"epoch","type":"uint64","indexed":false,"internalType":"uint64"}],"anonymous":false},{"type":"event","name":"ValidatorRemoved","inputs":[{"name":"validator","type":"address","indexed":true,"internalType":"address"}],"anonymous":false},{"type":"event","name":"ValidatorSlashed","inputs":[{"name":"validator","type":"address","indexed":true,"internalType":"address"},{"name":"slashes","type":"uint32","indexed":false,"internalType":"uint32"},{"name":"epoch","type":"uint64","indexed":false,"internalType":"uint64"}],"anonymous":false},{"type":"error","name":"AddressEmptyCode","inputs":[{"name":"target","type":"address","internalType":"address"}]},{"type":"error","name":"AddressInsufficientBalance","inputs":[{"name":"account","type":"address","internalType":"address"}]},{"type":"error","name":"AlreadySlashedForEquivocation","inputs":[{"name":"validator","type":"address","internalType":"address"}]},{"type":"error","name":"AmountTooLow","inputs":[{"name":"amount","type":"uint256","internalType":"uint256"}]},{"type":"error","name":"BadCommissionRate","inputs":[{"name":"commissionRate","type":"uint16","internalType":"uint16"}]},{"type":"error","name":"BadShareDistribution","inputs":[{"name":"shareDistribution","type":"uint16","internalType":"uint16"}]},{"type":"error","name":"BlsVerifierNotConfigured","inputs":[]},{"type":"error","name":"CommitteeLengthMismatch","inputs":[{"name":"expected","type":"uint256","internalType":"uint256"},{"name":"got","type":"uint256","internalType":"uint256"}]},{"type":"error","name":"CommitteeMemberKeyless","inputs":[{"name":"validator","type":"address","internalType":"address"}]},{"type":"error","name":"CommitteeMemberNotInActiveSet","inputs":[{"name":"validator","type":"address","internalType":"address"}]},{"type":"error","name":"CommitteeNotStrictlyAscending","inputs":[{"name":"validator","type":"address","internalType":"address"}]},{"type":"error","name":"ConsensusKeysAlreadySet","inputs":[{"name":"validator","type":"address","internalType":"address"}]},{"type":"error","name":"ConsensusKeysNotSet","inputs":[{"name":"validator","type":"address","internalType":"address"}]},{"type":"error","name":"DelegationQueueEmpty","inputs":[]},{"type":"error","name":"DelegationQueueNotEmpty","inputs":[{"name":"delegationQueue","type":"uint256","internalType":"uint256"}]},{"type":"error","name":"DepositIsZero","inputs":[]},{"type":"error","name":"ERC1967InvalidImplementation","inputs":[{"name":"implementation","type":"address","internalType":"address"}]},{"type":"error","name":"ERC1967NonPayable","inputs":[]},{"type":"error","name":"EpochCommitteeNotCommitted","inputs":[{"name":"epoch","type":"uint64","internalType":"uint64"}]},{"type":"error","name":"EpochIsNotReady","inputs":[{"name":"epoch","type":"uint64","internalType":"uint64"}]},{"type":"error","name":"EpochNotYetCommittable","inputs":[{"name":"target","type":"uint64","internalType":"uint64"},{"name":"currentEpoch","type":"uint64","internalType":"uint64"}]},{"type":"error","name":"EquivocationKeyMismatch","inputs":[]},{"type":"error","name":"EquivocationSignatureInvalid","inputs":[]},{"type":"error","name":"EvidenceDecoderNotConfigured","inputs":[]},{"type":"error","name":"FailedInnerCall","inputs":[]},{"type":"error","name":"InitialStakeTooLow","inputs":[{"name":"initialStake","type":"uint256","internalType":"uint256"}]},{"type":"error","name":"InsufficientBalance","inputs":[]},{"type":"error","name":"InvalidClaimEpoch","inputs":[]},{"type":"error","name":"InvalidConsensusKeyEncoding","inputs":[]},{"type":"error","name":"InvalidEpoch","inputs":[]},{"type":"error","name":"InvalidInitialization","inputs":[]},{"type":"error","name":"InvalidProofOfPossession","inputs":[{"name":"validator","type":"address","internalType":"address"}]},{"type":"error","name":"MalformedInitialBalance","inputs":[]},{"type":"error","name":"MalformedInputLength","inputs":[]},{"type":"error","name":"NotActiveValidator","inputs":[]},{"type":"error","name":"NotEnoughBalance","inputs":[]},{"type":"error","name":"NotEnoughShares","inputs":[{"name":"requiredShares","type":"uint256","internalType":"uint256"}]},{"type":"error","name":"NotInitializing","inputs":[]},{"type":"error","name":"NotPendingValidator","inputs":[{"name":"validator","type":"address","internalType":"address"}]},{"type":"error","name":"NothingToClaim","inputs":[]},{"type":"error","name":"NothingToUnstake","inputs":[]},{"type":"error","name":"OnlyCoinbase","inputs":[]},{"type":"error","name":"OnlyGovernance","inputs":[]},{"type":"error","name":"OnlyLivenessSlashing","inputs":[]},{"type":"error","name":"OnlyStakingContract","inputs":[]},{"type":"error","name":"OnlySystemCall","inputs":[]},{"type":"error","name":"OnlyValidatorOwner","inputs":[{"name":"validator","type":"address","internalType":"address"}]},{"type":"error","name":"OnlyZeroGasPrice","inputs":[]},{"type":"error","name":"OwnableInvalidOwner","inputs":[{"name":"owner","type":"address","internalType":"address"}]},{"type":"error","name":"OwnableUnauthorizedAccount","inputs":[{"name":"account","type":"address","internalType":"address"}]},{"type":"error","name":"OwnerCantBeZero","inputs":[]},{"type":"error","name":"OwnerSelfStakeBelowMinimum","inputs":[]},{"type":"error","name":"PeerPubkeyAlreadyInUse","inputs":[{"name":"peerPubkey","type":"bytes32","internalType":"bytes32"}]},{"type":"error","name":"PendingUndelegate","inputs":[]},{"type":"error","name":"SafeERC20FailedOperation","inputs":[{"name":"token","type":"address","internalType":"address"}]},{"type":"error","name":"SafeTransferFailed","inputs":[]},{"type":"error","name":"SignerIndexOutOfRange","inputs":[{"name":"epoch","type":"uint64","internalType":"uint64"},{"name":"signerIdx","type":"uint32","internalType":"uint32"},{"name":"committeeLen","type":"uint256","internalType":"uint256"}]},{"type":"error","name":"StillInJail","inputs":[{"name":"validator","type":"address","internalType":"address"}]},{"type":"error","name":"UUPSUnauthorizedCallContext","inputs":[]},{"type":"error","name":"UUPSUnsupportedProxiableUUID","inputs":[{"name":"slot","type":"bytes32","internalType":"bytes32"}]},{"type":"error","name":"UnsafeTransferFailed","inputs":[]},{"type":"error","name":"ValidatorAlreadyExists","inputs":[{"name":"validator","type":"address","internalType":"address"}]},{"type":"error","name":"ValidatorHasActiveDelegations","inputs":[{"name":"validator","type":"address","internalType":"address"}]},{"type":"error","name":"ValidatorNotFound","inputs":[{"name":"validator","type":"address","internalType":"address"}]},{"type":"error","name":"ValidatorNotInJail","inputs":[{"name":"validator","type":"address","internalType":"address"}]},{"type":"error","name":"ValidatorOwnerAlreadyInUse","inputs":[{"name":"validator","type":"address","internalType":"address"}]},{"type":"error","name":"WrongAmountPrecision","inputs":[]},{"type":"error","name":"ZeroAmount","inputs":[]},{"type":"error","name":"ZeroCommissionRate","inputs":[]},{"type":"error","name":"ZeroInitialStake","inputs":[]},{"type":"error","name":"ZeroOwner","inputs":[]},{"type":"error","name":"ZeroValidator","inputs":[]}],"bytecode":{"object":"0x610180346102e757601f61568438819003918201601f19168301916001600160401b038311848410176102eb5780849260e0946040528339810103126102e7578051906001600160a01b03821682036102e75760208101516001600160a01b03811681036102e75760408201516001600160a01b03811681036102e7576060830151906001600160a01b03821682036102e7576080840151926001600160a01b03841684036102e75760a0850151946001600160a01b03861686036102e75760c00151956001600160a01b03871687036102e7573060805260a05260c05260e0526101005261012052610140525f5160206156645f395f51905f525460ff8160401c166102d8576002600160401b03196001600160401b03821601610282575b5061016052604051615364908161030082396080518181816117d60152613afe015260a05181611bd5015260c051818181611b91015281816128240152613481015260e05181610fc001526101005181818161099201528181610be901528181610c760152818161131801526128b80152610120518181816107e801528181610b4301528181610e5301528181610f03015281816115910152818161174d015281816118510152818161190301528181611d360152818161202f01528181612199015281816122e201528181612768015281816127cb015281816129ec01528181612a4d01528181612b6101528181613081015281816131800152818161335a015281816134280152614a8701526101405181818161081901528181610e32015281816110d201528181612178015281816121d6015281816127fc015281816130f40152818161338b0152818161345901526138eb01526101605181612aa60152f35b6001600160401b0319166001600160401b039081175f5160206156645f395f51905f52556040519081527fc7f505b2f371ae2175ee4913f4499e1f2633a7b5936321eed1cdaeb6115181d290602090a15f61011f565b63f92ee8a960e01b5f5260045ffd5b5f80fd5b634e487b7160e01b5f52604160045260245ffdfe60806040526004361015610011575f80fd5b5f3560e01c806252c9e1146103e357806301f6bb50146103de578063026e402b146103d957806314f8649f146103d45780631fe97684146103cf578063225cba85146103ca578063289b3c0d146103c557806330108c22146103c057806340a141ff146103bb578063426594b1146103b657806342ad55ac146103b1578063457179fd146103ac57806345946334146103a757806347e7ef24146103a257806348124d261461039d5780634d238c8e146103985780634d99dd16146103935780634f1ef2861461038e57806352b7bea21461038957806352d1902d146103845780635ef9e8c61461037f578063606c0c941461037a578063715018a61461037557806373a3dda614610370578063766718081461036b57806379ba5097146103665780637a37cc59146103615780637b1391a61461035c5780637cfba9f31461035757806380b562de1461035257806387401d8a1461034d5780638bd070e4146103485780638da5cb5b146103435780638ecb3fc91461033e5780639f9106d114610339578063a10827e914610334578063a310624f1461032f578063a4d160c11461032a578063ad36f42f14610325578063ad3cb1cc14610320578063add07a3e1461031b578063adf2a79c14610316578063aea0e78b14610311578063b46e55201461030c578063b7ab4db514610307578063c06a82de14610302578063c2fd58fc146102fd578063c6fb9065146102f8578063c96be4cb146102f3578063d41c52eb146102ee578063d7f1733d146102e9578063d951e186146102e4578063d96cbd7b146102df578063dd0fb5df146102da578063e28d2f63146102d5578063e30c3978146102d0578063e3e6cedc146102cb578063f2fde38b146102c6578063facd743b146102c1578063fe38ebef146102bc5763ff4794fc146102b7575f80fd5b6133df565b61331f565b6132ac565b613224565b6131dc565b6131a8565b613137565b613041565b612f83565b612f51565b612e83565b612d3d565b612a87565b612a14565b6129c4565b612992565b612960565b612895565b612878565b612790565b61271f565b6126d8565b6125ae565b612459565b612321565b612299565b6121c1565b612124565b6120f0565b6120a7565b611f6c565b611ed5565b611d14565b611bc0565b611b7c565b611b30565b611b05565b6119a1565b611932565b6118ee565b61182a565b6117c4565b611725565b6116ab565b611545565b6112f5565b61117b565b610fef565b610fab565b610eca565b610e99565b610dde565b610c53565b610c18565b610bd4565b610ab8565b61096f565b61087f565b61079c565b6105fc565b610425565b6001600160a01b038116036103f957565b5f80fd5b60409060031901126103f957600435610415816103e8565b90602435610422816103e8565b90565b346103f95761050e5f51602061524f5f395f51905f52610444366103fd565b61058661056a61055c61046061045b8697966134c7565b613597565b61053987610534604084019761048b838a5161047b81613581565b61048481613581565b1515613616565b610523610513602087019d8e6104bb6104aa825160018060a01b031690565b6001600160a01b038116331461363e565b6104cf6001600160a01b0386161515613666565b610501876104fb6104ef6104e2896134ec565b546001600160a01b031690565b6001600160a01b031690565b1561367c565b516001600160a01b031690565b6134ec565b80546001600160a01b0319169055565b6001600160a01b0381168c526134ec565b6136c2565b6105018161055761055161054b614216565b8361424a565b996134c7565b6136e1565b95516001600160a01b031690565b91519361057685613581565b61057f85613581565b5460f01c90565b6040516001600160a01b03928316959092169382916105a591836137df565b0390a3005b9181601f840112156103f9578235916001600160401b0383116103f9576020808501948460051b0101116103f957565b6064359061ffff821682036103f957565b6024359061ffff821682036103f957565b346103f95760803660031901126103f957600435610619816103e8565b6024356001600160401b0381116103f9576106389036906004016105aa565b6044929192356001600160401b0381116103f95761065a9036906004016105aa565b906106636105da565b925f5160206152ef5f395f51905f5254956001600160401b036106a16106946106908a60ff9060401c1690565b1590565b986001600160401b031690565b1680159081610794575b600114908161078a575b159081610781575b506107725761070095876106f760016001600160401b03195f5160206152ef5f395f51905f525416175f5160206152ef5f395f51905f5255565b61074e57613874565b61070657005b5f5160206152ef5f395f51905f52805460ff60401b19169055604051600181527fc7f505b2f371ae2175ee4913f4499e1f2633a7b5936321eed1cdaeb6115181d290602090a1005b5f5160206152ef5f395f51905f52805460ff60401b1916600160401b179055613874565b63f92ee8a960e01b5f5260045ffd5b9050155f6106bd565b303b1591506106b5565b8891506106ab565b346103f95760403660031901126103f9576004356107b9816103e8565b73__$1cd3066fe913aa9d2ac4c48f01e58e18c5$__90602435823b156103f957604051634498f72b60e11b81527f00000000000000000000000000000000000000000000000000000000000000006001600160a01b0390811660048301527f00000000000000000000000000000000000000000000000000000000000000008116602483015290921660448301526064820152905f90829060849082905af4801561087a5761086457005b806108725f6108789361164f565b80610bca565b005b613983565b346103f95760403660031901126103f95760043561089c816103e8565b6108a46105eb565b6108b781610bb861ffff8216111561398e565b5f51602061524f5f395f51905f526108d161045b846134c7565b9161093861092a60408501946108ec87875161047b81613581565b61050181610557602082019961090b6104aa8c5160018060a01b031690565b6109258861092061091a614216565b8661424a565b6139ad565b6134c7565b94516001600160a01b031690565b92519261094484613581565b61094d84613581565b6040516001600160a01b039182169590911693909182916105a59190836137df565b346103f95760203660031901126103f95760043561098c816103e8565b6109c0337f00000000000000000000000000000000000000000000000000000000000000006001600160a01b0316146139d0565b6001600160a01b0381165f8181525f51602061526f5f395f51905f52602052604090205f51602061524f5f395f51905f52906109fb90613597565b610a70610a5b60206040840193610a2760018651610a1881613581565b610a2181613581565b14614866565b610a3088614da2565b600285525b610a4d81610557610a4761054b614216565b9a6134c7565b01516001600160a01b031690565b915194610a6786613581565b61057f86613581565b6040516001600160a01b039092169482916105a591836137df565b9181601f840112156103f9578235916001600160401b0383116103f957602083818601950101116103f957565b346103f95760803660031901126103f957600435610ad5816103e8565b6024356001600160401b0381116103f957610af4903690600401610a8b565b906044356001600160401b0381116103f957610b14903690600401610a8b565b93909273__$c0ca080a98cf238f72f7f61cbbb953094a$__91823b156103f95760405163dcf44cad60e01b81527f00000000000000000000000000000000000000000000000000000000000000006001600160a01b039081166004830152909116602482015260a06044820152945f94869485938493610bb293929091610ba09160a4870191906139e6565b848103600319016064860152916139e6565b606435608483015203915af4801561087a5761086457005b5f9103126103f957565b346103f9575f3660031901126103f9576040517f00000000000000000000000000000000000000000000000000000000000000006001600160a01b03168152602090f35b346103f95760203660031901126103f9576020600435610c37816103e8565b6001600160a01b0390610c49906134ec565b5416604051908152f35b346103f95760203660031901126103f957600435610c70816103e8565b610ca4337f00000000000000000000000000000000000000000000000000000000000000006001600160a01b0316146139d0565b610db8610da760018060a01b03831692835f525f51602061526f5f395f51905f5260205261092561051361050e60405f20610d9e85610d98604051610ce8816115f9565b60018060a01b038554168152610d8a836001870154610d80610d706002602087019a60018060a01b0385168c52610d4f610d3f60408a0196610d3060ff8260a01c168961358b565b60a81c6001600160401b031690565b6001600160401b031660608a0152565b01546001600160401b03811660808801525b60401c6001600160401b031690565b6001600160401b031660a0860152565b5161047b81613581565b610d92614a78565b90614ce8565b1561487c565b61050185614da2565b60025f918281558260018201550155565b7fe1434e25d6611e0db941968fdc97811c982ac1602e951637d206f5fdda9dd8f15f80a2005b346103f9575f60203660031901126103f957600435610dfc816103e8565b73__$1cd3066fe913aa9d2ac4c48f01e58e18c5$__803b156103f957610e7b915f9160405180809581946311e4ddaf60e31b83527f00000000000000000000000000000000000000000000000000000000000000007f000000000000000000000000000000000000000000000000000000000000000060048501613a06565b03915af4801561087a57610e8d575080f35b61087891505f9061164f565b346103f95760203660031901126103f9576020610ec0600435610ebb816103e8565b613a3d565b6040519015158152f35b346103f95760203660031901126103f957610f3d6020600435610eec816103e8565b60405163e61e2bff60e01b81526001600160a01b037f000000000000000000000000000000000000000000000000000000000000000081166004830152909116602482015291829081906044820190565b038173__$1cd3066fe913aa9d2ac4c48f01e58e18c5$__5af4801561087a57610f78915f91610f7c575b506040519081529081906020820190565b0390f35b610f9e915060203d602011610fa4575b610f96818361164f565b810190613ac5565b5f610f67565b503d610f8c565b346103f9575f3660031901126103f9576040517f00000000000000000000000000000000000000000000000000000000000000006001600160a01b03168152602090f35b346103f95760403660031901126103f95760043561100c816103e8565b60243590413303611136573a611127578115611118577f9fce3fb7dc05df2879421f9d9c06784dad3d39aba44c0c1ee0b9d094e76550059060018060a01b03811692835f525f51602061526f5f395f51905f5260205261108061107160405f20613597565b92604084015161047b81613581565b6110ca61109561108e614a78565b809461424a565b80546110ad906001600160601b0385811691166148af565b81546001600160601b0319166001600160601b0391909116179055565b6110f68130337f00000000000000000000000000000000000000000000000000000000000000006147ad565b604080519182526001600160401b03909216602082015290819081015b0390a2005b63b288589b60e01b5f5260045ffd5b6383f1b1d360e01b5f5260045ffd5b63022d8c9560e31b5f5260045ffd5b6001600160401b038116036103f957565b60409060031901126103f95760043561116e816103e8565b9060243561042281611145565b346103f95761118936611156565b9060018060a01b03165f525f51602061526f5f395f51905f526020526111bb6111b460405f20613597565b91826148ec565b6020820151909190610f78906001600160a01b0316916040810151936111e085613581565b6111e985613581565b60208101516112119061120c906001600160701b03165b6001600160701b031690565b613ad4565b91611223604083015163ffffffff1690565b9061123860608201516001600160401b031690565b61126060a061125160808501516001600160401b031690565b9301516001600160401b031690565b92611281611273606087015161ffff1690565b95516001600160601b031690565b604080516001600160a01b03909a168a5260ff909a1660208a01529888019590955263ffffffff9490941660608701526001600160401b039384166080870152831660a086015290911660c084015261ffff1660e08301526001600160601b03909216610100820152908190610120820190565b346103f95760203660031901126103f957600435611312816103e8565b611346337f00000000000000000000000000000000000000000000000000000000000000006001600160a01b0316146139d0565b6114f4611359611354614a78565b613e6c565b6001600160a01b038316929061137984151561137481614326565b61433c565b6113845f5b15614200565b6001600160401b0381168061151d575b506113a05f600161398e565b6114056113af61045b846134c7565b6113ed6001604083016113d68782516113c781613581565b6113d081613581565b15614368565b6001600160a01b038716808552602085015261358b565b6001600160401b0383166060820152610557846134c7565b611418826104fb6104ef6104e2836134ec565b61142582610534816134ec565b61142f6001613581565b61143882613c8c565b6114ef6114b86114475f611200565b9361149a611453611670565b5f81526001600160701b03871660208201525f6040820181905260608201526114958661147f85613524565b906001600160401b03165f5260205260405f2090565b6143ae565b6114a381613549565b9060018060a01b03165f5260205260405f2090565b916114c58354801561441a565b6114df6114d0611681565b6001600160701b039095168552565b6001600160401b03166020840152565b614434565b6114fe6001613581565b805f5160206151cf5f395f51905f52604051806105a55f6001836137df565b61153f9061153861152c614216565b6001600160401b031690565b1015614352565b5f611394565b346103f95760403660031901126103f957600435611562816103e8565b73__$1cd3066fe913aa9d2ac4c48f01e58e18c5$__90602435823b156103f9576040516304e6b02160e51b81527f00000000000000000000000000000000000000000000000000000000000000006001600160a01b03908116600483015290921660248301526044820152905f90829060649082905af4801561087a5761086457005b634e487b7160e01b5f52604160045260245ffd5b60c081019081106001600160401b0382111761161457604052565b6115e5565b606081019081106001600160401b0382111761161457604052565b608081019081106001600160401b0382111761161457604052565b90601f801991011681019081106001600160401b0382111761161457604052565b6040519061167f60808361164f565b565b6040519061167f60408361164f565b6001600160401b03811161161457601f01601f191660200190565b60403660031901126103f9576004356116c3816103e8565b602435906001600160401b0382116103f957366023830112156103f9578160040135906116ef82611690565b916116fd604051938461164f565b80835236602482860101116103f9576020815f92602461087897018387013784010152613af2565b346103f9576117756020611738366103fd565b604051635c345cf760e01b81529384928392907f000000000000000000000000000000000000000000000000000000000000000060048501613a06565b038173__$1cd3066fe913aa9d2ac4c48f01e58e18c5$__5af4801561087a576020915f916117a7575b50604051908152f35b6117be9150823d8411610fa457610f96818361164f565b5f61179e565b346103f9575f3660031901126103f9577f00000000000000000000000000000000000000000000000000000000000000006001600160a01b0316300361181b5760206040515f51602061528f5f395f51905f528152f35b63703e46dd60e11b5f5260045ffd5b346103f957611879604061183d366103fd565b8251635f0243e360e11b81529384928392907f000000000000000000000000000000000000000000000000000000000000000060048501613a06565b038173__$1cd3066fe913aa9d2ac4c48f01e58e18c5$__5af490811561087a575f905f926118b4575b50604080519182526020820192909252f35b9150506040813d6040116118e6575b816118d06040938361164f565b810103126103f95760208151910151905f6118a2565b3d91506118c3565b346103f9575f3660031901126103f9576040517f00000000000000000000000000000000000000000000000000000000000000006001600160a01b03168152602090f35b346103f9575f3660031901126103f95761194a6149d2565b6119526136a4565b5f51602061522f5f395f51905f5280546001600160a01b031981169091555f906001600160a01b03167f8be0079c531659141344cd1fd0a4f28419497f9722a3daafe3b4186f6b6457e08280a3005b346103f95760203660031901126103f9576004356119be816103e8565b6001600160a01b0381165f9081527f96610efdc8a37de390ea3757bf0331faa3a74708adc53f30ba708302b0f55800602052604090205460ff16611aea57611a8f611a0b61045b836134c7565b611a8660408201611a328560038351611a2381613581565b611a2c81613581565b14613bf7565b6020830151611a4c906001600160a01b031633811461363e565b611a8085611a58614a78565b6001600160401b03611a7761152c60808901516001600160401b031690565b91161015613c1f565b60019052565b610557836134c7565b611a9881613c8c565b7f7bd9ec00705b7640a93da0fcf84dc0bfce1b2c9a5146d548ab1dabd23322c9ac611113611ac4614a78565b6040516001600160401b0390911681526001600160a01b03909316929081906020820190565b638300031d60e01b5f526001600160a01b031660045260245ffd5b346103f9575f3660031901126103f9576020611b1f614a78565b6001600160401b0360405191168152f35b346103f9575f3660031901126103f9575f51602061530f5f395f51905f5254336001600160a01b0390911603611b6957610878336149f2565b63118cdaa760e01b5f523360045260245ffd5b346103f9575f3660031901126103f9576040517f00000000000000000000000000000000000000000000000000000000000000006001600160a01b03168152602090f35b346103f9575f3660031901126103f9576040517f00000000000000000000000000000000000000000000000000000000000000006001600160a01b03168152602090f35b90602080835192838152019201905f5b818110611c215750505090565b82516001600160a01b0316845260209384019390920191600101611c14565b805180835260209291819084018484015e5f828201840152601f01601f1916010190565b9060406001600160401b0381611c838551606086526060860190611c40565b946020810151602086015201511691015290565b9080602083519182815201916020808360051b8301019401925f915b838310611cc257505050505090565b9091929394602080611ce0600193601f198682030187528951611c64565b97019301930191939290611cb3565b9091611d0661042293604084526040840190611c04565b916020818403910152611c97565b346103f95760203660031901126103f957611d5a600435611d3481611145565b7f0000000000000000000000000000000000000000000000000000000000000000614b72565b611d648151613d5a565b905f5b8151811015611eb4576001600160a01b03611d828284613a29565b51165f525f5160206151ef5f395f51905f5260205260405f2060405190611da882611619565b6040515f82548060011c9060018116908115611eaa575b602083108214611e96578285526020850191908115611e7d5750600114611e42575b50506002600195949383611dfd611e2695611e1695038261164f565b855286810154602086015201546001600160401b031690565b6001600160401b03166040830152565b611e308286613a29565b52611e3b8185613a29565b5001611d67565b909150611e52845f5260205f2090565b915f925b818410611e695750500160026001611de1565b600181602092548686015201930192611e56565b60ff191682525090151560051b01905060026001611de1565b634e487b7160e01b5f52602260045260245ffd5b91607f1691611dbf565b50610f7860405192839283611cef565b906020610422928181520190611c04565b346103f95760203660031901126103f9576001600160401b03600435611efa81611145565b165f525f51602061520f5f395f51905f5260205260405f206040519081602082549182815201915f5260205f20905f5b818110611f4d57610f7885611f418187038261164f565b60405191829182611ec4565b82546001600160a01b0316845260209093019260019283019201611f2a565b346103f95760203660031901126103f9576004356001600160401b0381116103f957611f9c9036906004016105aa565b6003600160a01b0319330161209857611fb3614a78565b91611fd25f5160206152af5f395f51905f52546001600160401b031690565b90611fdf61152c85613e6c565b6001600160401b03831690811161207657612067575f925b73__$c0ca080a98cf238f72f7f61cbbb953094a$__91823b156103f9576120575f9560405197889687958695631792dc1560e31b87527f000000000000000000000000000000000000000000000000000000000000000060048801613ec8565b03915af4801561087a5761086457005b61207082613eaa565b92611ff7565b631e559a0560e11b5f526001600160401b03808416600452851660245260445ffd5b633d45932f60e11b5f5260045ffd5b346103f9575f3660031901126103f9575f5160206152af5f395f51905f52546001600160401b0316806120e057506040515f8152602090f35b6120eb602091613eaa565b611b1f565b346103f9575f3660031901126103f9575f51602061522f5f395f51905f52546040516001600160a01b039091168152602090f35b346103f9575f60203660031901126103f957600435612142816103e8565b73__$1cd3066fe913aa9d2ac4c48f01e58e18c5$__803b156103f957610e7b915f916040518080958194637284855160e11b83527f00000000000000000000000000000000000000000000000000000000000000007f000000000000000000000000000000000000000000000000000000000000000060048501613a06565b346103f9575f3660031901126103f9576040517f00000000000000000000000000000000000000000000000000000000000000006001600160a01b03168152602090f35b60806003198201126103f9576004356001600160401b0381116103f9578161222f91600401610a8b565b929092916024356001600160401b0381116103f9578161225191600401610a8b565b929092916044356001600160401b0381116103f9578161227391600401610a8b565b92909291606435906001600160401b0382116103f95761229591600401610a8b565b9091565b346103f9576122a736612205565b91969394929673__$c0ca080a98cf238f72f7f61cbbb953094a$__97883b156103f9575f9661230a95604051998a98630817c25760e11b8a527f000000000000000000000000000000000000000000000000000000000000000060048b01613f52565b938180849603915af4801561087a57610e8d575080f35b346103f95760203660031901126103f95761234461045b600435610925816103e8565b8051612358906001600160a01b0316613524565b90610f7861239261238d606084019461237886516001600160401b031690565b6001600160401b03165f5260205260405f2090565b613fad565b60208301519092906001600160a01b0316926040820151946123b386613581565b6123bc86613581565b60208201516123d79061120c906001600160701b0316611200565b926112386123ec604085015163ffffffff1690565b92516001600160401b031690565b9161241061241e92606085526060850190611c04565b908382036020850152611c97565b906040818303910152602080835192838152019201905f5b8181106124435750505090565b8251845260209384019390920191600101612436565b346103f95760203660031901126103f95760043561247681611145565b6001600160401b0381165f525f51602061520f5f395f51905f5260205260405f20604051808260208294549384815201905f5260205f20925f5b81811061257b5750506124c59250038261164f565b8051916124d183613d5a565b926124db81613ff7565b915f5b8281106124f857505050610f7890604051938493846123fa565b8061253861253361250e6105016001958a613a29565b6001600160a01b03165f9081525f5160206151ef5f395f51905f526020526040902090565b613da9565b6125428289613a29565b5261254d8188613a29565b5061256a8361256561045b610925610501868c613a29565b614ce8565b6125748287613a29565b52016124de565b84546001600160a01b03168352600194850194869450602090930192016124b0565b906020610422928181520190611c64565b346103f95760203660031901126103f9576004356125cb816103e8565b6125d3613d3b565b5060018060a01b03165f525f5160206151ef5f395f51905f5260205260405f206040516125ff81611619565b6040515f83548060011c90600181169081156126ce575b602083108214611e965782855260208501919081156126b45750600114612678575b610f788561266c611e1660028a89612652818b038261164f565b85526001810154602086015201546001600160401b031690565b6040519182918261259d565b909150612688855f5260205f2090565b915f925b8184106126a0575050016002610f78612638565b80548484015260209093019260010161268c565b60ff191682525090151560051b0190506002610f78612638565b91607f1691612616565b346103f9575f3660031901126103f957610f786040516126f960408261164f565b60058152640352e302e360dc1b6020820152604051918291602083526020830190611c40565b346103f95761272d36612205565b91969394929673__$c0ca080a98cf238f72f7f61cbbb953094a$__97883b156103f9575f9661230a95604051998a98633bd68e1f60e21b8a527f000000000000000000000000000000000000000000000000000000000000000060048b01613f52565b346103f95761279e36611156565b9073__$1cd3066fe913aa9d2ac4c48f01e58e18c5$__91823b156103f95760405163c5d0132d60e01b81527f00000000000000000000000000000000000000000000000000000000000000006001600160a01b0390811660048301527f0000000000000000000000000000000000000000000000000000000000000000811660248301527f00000000000000000000000000000000000000000000000000000000000000008116604483015290921660648301526001600160401b03166084820152905f90829060a49082905af4801561087a5761086457005b346103f9575f3660031901126103f9576020611b1f611354614a78565b346103f95760203660031901126103f9576004356128b2816103e8565b6128e6337f00000000000000000000000000000000000000000000000000000000000000006001600160a01b0316146139d0565b6001600160a01b0381165f8181525f51602061526f5f395f51905f52602052604090205f51602061524f5f395f51905f529061292190613597565b610a70610a5b6020604084019361294e886002875161293f81613581565b61294881613581565b14614d1f565b61295788613c8c565b60018552610a35565b346103f9575f3660031901126103f957610f7861297e611d34614a78565b604051918291602083526020830190611c04565b346103f9575f3660031901126103f95760206001600160401b035f5160206152af5f395f51905f525416604051908152f35b346103f95761177560206129d7366103fd565b60405163ca55139b60e01b81529384928392907f000000000000000000000000000000000000000000000000000000000000000060048501613a06565b346103f95760203660031901126103f957610f3d6020600435612a36816103e8565b604051632c9737fb60e21b81526001600160a01b037f000000000000000000000000000000000000000000000000000000000000000081166004830152909116602482015291829081906044820190565b346103f95760203660031901126103f957600435612aa4816103e8565b7f00000000000000000000000000000000000000000000000000000000000000006001600160a01b03163303612d2e57612ae061045b826134c7565b6040810191612af481845161047b81613581565b612afc614a78565b90612b07828461424a565b93612b45612b25612b20875463ffffffff9060d01c1690565b614d47565b865463ffffffff60d01b191660d082901b63ffffffff60d01b1617909655565b612b5284610557846134c7565b6040516317c332e760e31b81527f00000000000000000000000000000000000000000000000000000000000000006001600160a01b03169490602081600481895afa801561087a5763ffffffff915f91612d0f575b501663ffffffff87161015612c0e575b50506040805163ffffffff90951685526001600160401b0390921660208501526001600160a01b0316927ff30f0392d5346908bf200bc0924d0c9860e22d46fc606e979a2e14fff24c62b992509081908101611113565b6004946020612c1b614a78565b9160405197888092630d97cd9b60e31b82525afa92831561087a57612c8a612c7a612c909363ffffffff612c99977ff30f0392d5346908bf200bc0924d0c9860e22d46fc606e979a2e14fff24c62b99b5f91612ce0575b501690613e8a565b6001600160401b03166080850152565b60039052565b611a8683614da2565b6040516001600160401b03831681526001600160a01b038216907f6acc1079130362b805ce4a8874346d4ee8893d55f223e378ddc73031ce427eab90602090a25f80612bb7565b612d02915060203d602011612d08575b612cfa818361164f565b810190614a63565b5f612c72565b503d612cf0565b612d28915060203d602011612d0857612cfa818361164f565b5f612ba7565b635e2569d960e11b5f5260045ffd5b346103f9575f3660031901126103f957612d58611d34614a78565b612d628151613d5a565b905f5b8151811015611eb4576001600160a01b03612d808284613a29565b51165f525f5160206151ef5f395f51905f5260205260405f2060405190612da682611619565b6040515f82548060011c9060018116908115612e6b575b602083108214611e96578285526020850191908115612e525750600114612e17575b50506002600195949383611dfd612dfb95611e1695038261164f565b612e058286613a29565b52612e108185613a29565b5001612d65565b909150612e27845f5260205f2090565b915f925b818410612e3e5750500160026001612ddf565b600181602092548686015201930192612e2b565b60ff191682525090151560051b01905060026001612ddf565b91607f1691612dbd565b63ffffffff8116036103f957565b346103f95760403660031901126103f957600435612ea081611145565b6001600160401b0360243591612eb583612e75565b16805f525f51602061520f5f395f51905f5260205260405f20908154908115612f3f5763ffffffff84169082821015612f2757610f78612f0d612ef88787613c77565b905460039190911b1c6001600160a01b031690565b6040516001600160a01b0390911681529081906020820190565b632fdbfd3160e21b5f5260045260245260445260645ffd5b6316b38b6f60e01b5f5260045260245ffd5b346103f957612f68612f62366103fd565b906140d7565b604080519283526001600160401b0391909116602083015290f35b346103f9575f3660031901126103f9575f5160206151af5f395f51905f5254612fab81613ff7565b612fb482613d5a565b915f5b818110612fcf575050610f7860405192839283611cef565b80612fdb600192613c47565b838060a01b0391549060031b1c16612ff38286613a29565b52818060a01b036130048286613a29565b51165f525f5160206151ef5f395f51905f5260205261302560405f20613da9565b61302f8287613a29565b5261303a8186613a29565b5001612fb7565b346103f95760603660031901126103f95760043561305e816103e8565b6130666105eb565b90604435604051636f85684760e01b815290916020826004817f00000000000000000000000000000000000000000000000000000000000000006001600160a01b03165afa91821561087a57610878946130d0856130f09581945f91613118575b508110156141e6565b6130e06402540be400830661137e565b6130e8614216565b9233906144a6565b30337f00000000000000000000000000000000000000000000000000000000000000006147ad565b613131915060203d602011610fa457610f96818361164f565b5f6130c7565b346103f95761314536612205565b91969394929673__$c0ca080a98cf238f72f7f61cbbb953094a$__97883b156103f9575f9661230a95604051998a9863a757204960e01b8a527f000000000000000000000000000000000000000000000000000000000000000060048b01613f52565b346103f9575f3660031901126103f9575f51602061530f5f395f51905f52546040516001600160a01b039091168152602090f35b346103f95760203660031901126103f9576001600160401b0360043561320181611145565b165f525f51602061520f5f395f51905f52602052602060405f2054604051908152f35b346103f95760203660031901126103f957600435613241816103e8565b6132496149d2565b5f51602061530f5f395f51905f5280546001600160a01b0319166001600160a01b039283169081179091555f51602061522f5f395f51905f52549091167f38d16b8cac22d99fc7c124b9cd0de2d3fa1faef420bfe791d8c362d765e227005f80a3005b346103f95760203660031901126103f9576004356132c9816103e8565b6001600160a01b03165f9081525f51602061526f5f395f51905f52602052604090206001015460a01c60ff16600481101561330b576040519015158152602090f35b634e487b7160e01b5f52602160045260245ffd5b346103f95761332d36611156565b9073__$1cd3066fe913aa9d2ac4c48f01e58e18c5$__91823b156103f9576040516304c5372960e01b81527f00000000000000000000000000000000000000000000000000000000000000006001600160a01b0390811660048301527f00000000000000000000000000000000000000000000000000000000000000008116602483015290921660448301526001600160401b03166064820152905f90829060849082905af4801561087a5761086457005b346103f95760203660031901126103f9576004356133fc816103e8565b73__$1cd3066fe913aa9d2ac4c48f01e58e18c5$__90813b156103f957604051635154d80160e11b81527f00000000000000000000000000000000000000000000000000000000000000006001600160a01b0390811660048301527f0000000000000000000000000000000000000000000000000000000000000000811660248301527f0000000000000000000000000000000000000000000000000000000000000000811660448301529091166064820152905f90829060849082905af4801561087a5761086457005b6001600160a01b03165f9081525f51602061526f5f395f51905f526020526040902090565b6001600160a01b03165f9081527f4102a9ba7244b40639ebe412c7bfc792b19c048efdf631bf4f130fef80c0df016020526040902090565b6001600160a01b03165f9081525f5160206152cf5f395f51905f526020526040902090565b6001600160a01b03165f9081527f4102a9ba7244b40639ebe412c7bfc792b19c048efdf631bf4f130fef80c0df036020526040902090565b6004111561330b57565b600482101561330b5752565b9061167f6040516135a7816115f9565b60a061360860028396600180851b0381541685526001600160401b03806001830154600180881b03811660208901526135e860ff82891c1660408a0161358b565b60a81c1616606086015201546001600160401b0381166080850152610d61565b6001600160401b0316910152565b1561361e5750565b635a4887e160e01b5f9081526001600160a01b0391909116600452602490fd5b156136465750565b6359de29ed60e01b5f9081526001600160a01b0391909116600452602490fd5b1561366d57565b6352afe97760e11b5f5260045ffd5b156136845750565b63b5202b6360e01b5f9081526001600160a01b0391909116600452602490fd5b5f51602061530f5f395f51905f5280546001600160a01b0319169055565b80546001600160a01b0319166001600160a01b03909216919091179055565b81519091906136f9906001600160a01b0316836136c2565b6020810151600183019290613717906001600160a01b0316846136c2565b6040820151600481101561330b57600481101561330b578354606084015167ffffffffffffffff60a81b60a89190911b1668ffffffffffffffffff60a01b1990911660ff60a01b60a093841b16171790935561167f926137b791600201926137a961378c60808301516001600160401b031690565b855467ffffffffffffffff19166001600160401b03909116178555565b01516001600160401b031690565b815467ffffffffffffffff60401b191660409190911b67ffffffffffffffff60401b16179055565b60ff909116815261ffff909116602082015260400190565b156137fe57565b63612acc3960e11b5f5260045ffd5b634e487b7160e01b5f52603260045260245ffd5b91908110156138315760051b0190565b61380d565b35610422816103e8565b634e487b7160e01b5f52601160045260245ffd5b906001820180921161386257565b613840565b9190820180921161386257565b93929193613880614d5f565b613888614d5f565b613890614d5f565b6001600160a01b03811615613970576138ae909594939291956149f2565b6138b6614d5f565b6138be614d5f565b6138c98383146137f7565b5f945f945b84861061390f57505050505050806138e35750565b61167f9030337f00000000000000000000000000000000000000000000000000000000000000006147ad565b90919293949561396460019161395261393161392c8b8b89613821565b613836565b8561394061392c8d8d8b613821565b61394b8d8c8c613821565b3592614639565b61395d898888613821565b3590613867565b960194939291906138ce565b631e4fbdf760e01b5f525f60045260245ffd5b6040513d5f823e3d90fd5b156139965750565b61ffff906368ec6e2560e11b5f521660045260245ffd5b80546001600160f01b031660f09290921b6001600160f01b031916919091179055565b156139d757565b6354348f0360e01b5f5260045ffd5b908060209392818452848401375f828201840152601f01601f1916010190565b6001600160a01b0391821681529181166020830152909116604082015260600190565b80518210156138315760209160051b010190565b6001600160a01b03165f8181525f51602061526f5f395f51905f526020526040902060019081015460a01c60ff16613a7481613581565b03613ac057613a816148a4565b905f5b8251811015613ab957816001600160a01b03613aa36105018487613a29565b1614613ab157600101613a84565b505050600190565b5050505f90565b505f90565b908160209103126103f9575190565b906402540be4008202918083046402540be400149015171561386257565b90916001600160a01b037f000000000000000000000000000000000000000000000000000000000000000016308114908115613bd5575b5061181b57613b366149d2565b6040516352d1902d60e01b8152926020846004816001600160a01b0387165afa5f9481613bb4575b50613b7f57634c9c8ce360e01b5f526001600160a01b03831660045260245ffd5b90915f51602061528f5f395f51905f528403613ba05761167f929350614e8c565b632a87526960e21b5f52600484905260245ffd5b613bce91955060203d602011610fa457610f96818361164f565b935f613b5e565b5f51602061528f5f395f51905f52546001600160a01b0316141590505f613b29565b15613bff5750565b631bceedfb60e11b5f9081526001600160a01b0391909116600452602490fd5b15613c275750565b633a4541ef60e01b5f9081526001600160a01b0391909116600452602490fd5b5f5160206151af5f395f51905f5254811015613831575f5160206151af5f395f51905f525f5260205f2001905f90565b8054821015613831575f5260205f2001905f90565b5f5160206151af5f395f51905f525490600160401b82101561161457600182015f5160206151af5f395f51905f52555f5160206151af5f395f51905f5254821015613831575f5160206151af5f395f51905f525f527f024be1d688fec05d4c3e9aeb5eac4f8c1e7d5bd030a2d0a8bafafba39f7f7ac990910180546001600160a01b0319166001600160a01b03909216919091179055565b6001600160401b0381116116145760051b60200190565b60405190613d4882611619565b5f604083606081528260208201520152565b90613d6482613d24565b613d71604051918261164f565b8281528092613d82601f1991613d24565b01905f5b828110613d9257505050565b602090613d9d613d3b565b82828501015201613d86565b90604051613db681611619565b80926040515f82548060011c9060018116908115613e62575b602083108214611e96578285526020850191908115613e485750600114613e0c575b5050600261167f94938361265260409561360895038261164f565b909150613e1c845f5260205f2090565b915f925b818410613e3457505001600261167f613df1565b805484840152602090930192600101613e20565b60ff191682525090151560051b019050600261167f613df1565b91607f1691613dcf565b6001600160401b036001911601906001600160401b03821161386257565b906001600160401b03809116911601906001600160401b03821161386257565b6001600160401b035f19911601906001600160401b03821161386257565b6001600160a01b03909116815260a0602082018190528101839052929594939160c0840191905f5b818110613f2857505050916001600160401b036080928161167f96959816604084015216606082015201906001600160401b03169052565b9091926020806001928635613f3c816103e8565b848060a01b031681520194019101919091613ef0565b9795939094613f83613f91936104229b9995613f9f9860018060a01b03168c5260a060208d015260a08c01916139e6565b9189830360408b01526139e6565b9186830360608801526139e6565b9260808185039101526139e6565b90604051613fba81611634565b91546001600160601b0381168352606081811c6001600160701b0316602085015260d082901c63ffffffff16604085015260f09190911c90830152565b9061400182613d24565b61400e604051918261164f565b828152809261401f601f1991613d24565b0190602036910137565b90604051604081018181106001600160401b038211176116145760405291546001600160701b038116835260701c6001600160401b03166020830152565b90815461407381613d24565b92614081604051948561164f565b81845260208401905f5260205f205f915b83831061409f5750505050565b6001602081926140ae85614029565b815201920192019190614092565b5f1981019190821161386257565b9190820391821161386257565b906114a36140e492613549565b604051906140f182611634565b80546140fc81613d24565b9061410a604051928361164f565b80825260208201835f5260205f205f915b8383106141c9575050505060036141889261417892855261415961414960018301546001600160401b031690565b6001600160401b03166020870152565b61416560028201614067565b604086015201546001600160401b031690565b6001600160401b03166060830152565b5180519081156141c15761419e6141a4926140bc565b90613a29565b5190610422602061125161120c611200865160018060701b031690565b50505f905f90565b6001602081926141d885614029565b81520192019201919061411b565b156141ee5750565b630a30df6160e11b5f5260045260245ffd5b1561420757565b634b5d6ee760e11b5f5260045ffd5b610422611354614a78565b8054600160601b600160d01b03191660609290921b600160601b600160d01b0316919091179055565b80516001600160a01b03165f9081525f5160206152cf5f395f51905f526020526040902091929161427c90849061147f565b805490939060601c6001600160701b0316614322576142ee6142e860606142c761238d826142b3613524895160018060a01b031690565b97019661237888516001600160401b031690565b60208101516142df906001600160701b031689614221565b015161ffff1690565b856139ad565b61430261152c83516001600160401b031690565b6001600160401b03821611614315575050565b6001600160401b03169052565b5050565b1561432d57565b632808647560e11b5f5260045ffd5b1561434357565b639905827b60e01b5f5260045ffd5b1561435957565b63d5b25b6360e01b5f5260045ffd5b156143705750565b63164688df60e21b5f9081526001600160a01b0391909116600452602490fd5b811561439a570490565b634e487b7160e01b5f52601260045260245ffd5b815181546001600160601b0319166001600160601b039190911617815561167f9161ffff9060609060208101516143ee906001600160701b031685614221565b6040810151845463ffffffff60d01b191660d09190911b63ffffffff60d01b16178455015116906139ad565b156144225750565b634168a4a560e11b5f5260045260245ffd5b8054600160401b8110156116145761445191600182018155613c77565b91909161449357805182546020909201516001600160b01b03199092166001600160701b03919091161760709190911b67ffffffffffffffff60701b16179055565b634e487b7160e01b5f525f60045260245ffd5b916146075f5160206151cf5f395f51905f52936144f9966114ef6114b861461f966114a36145c76112006144e69c60018060a01b0389169d8e1515614326565b6001600160a01b0385169e8f151561433c565b6145096402540be400820661137e565b6001600160401b03881680614624575b5061452d8b610bb861ffff8216111561398e565b61459261453c61045b8b6134c7565b61457a60028c61456660408501916145598184516113c781613581565b6001600160a01b03168552565b6001600160a01b038a16602085015261358b565b6001600160401b038a1660608201526105578b6134c7565b6145a5896104fb6104ef6104e2896134ec565b6145b289610534876134ec565b6145bc6002613581565b6402540be400900490565b956146026145d3611670565b5f81526001600160701b03891660208201525f604082015261ffff8b1660608201526114958861147f85613524565b613549565b6146116002613581565b6040519182916002836137df565b0390a3565b6146339061153861152c614216565b5f614519565b6001600160a01b038116925f5160206151cf5f395f51905f529261461f92614795916147649061466a881515614326565b6001600160a01b038116986114a390614729906112009061468c8d151561433c565b61469c6402540be400820661137e565b6146af89610bb861ffff8216111561398e565b6146f66146be61045b896134c7565b6146e76001604083016146d68c82516113c781613581565b6001600160a01b038c168452614566565b5f6060820152610557896134c7565b614709876104fb6104ef6104e2896134ec565b61471687610534876134ec565b6147206001613581565b6145bc87613c8c565b93614602614735611670565b5f81526001600160701b03871660208201525f604082015261ffff891660608201526114955f61147f85613524565b6147708154801561441a565b61478a61477b611681565b6001600160701b039093168352565b5f6020830152614434565b61479f6001613581565b6040519182916001836137df565b6040516323b872dd60e01b602082019081526001600160a01b03938416602483015293909216604483015260648083019490945292815291614817915f918291906147f960848761164f565b60018060a01b031694519082865af1614810615108565b9083615150565b8051908115159182614848575b505061482d5750565b635274afe760e01b5f526001600160a01b031660045260245ffd5b61485f925090602080610690938301019101614d8a565b5f80614824565b1561486d57565b63098a8cbb60e41b5f5260045ffd5b156148845750565b6375687d0f60e11b5f9081526001600160a01b0391909116600452602490fd5b610422611d34614a78565b6001600160601b03918216908216019190821161386257565b604051906148d582611634565b5f6060838281528260208201528260408201520152565b9190614924906148fa6148c8565b5083516001600160a01b03165f9081525f5160206152cf5f395f51905f526020526040902061147f565b916040519261493284611634565b546001600160601b0381168452606081811c6001600160701b03166020860181905260d083901c63ffffffff16604087015260f09290921c9085015283906149cd57506149c260606149aa61238d846123788461499b61352461167f995160018060a01b031690565b9201516001600160401b031690565b6020818101516001600160701b0316908701526142df565b61ffff166060840152565b925050565b5f51602061522f5f395f51905f52546001600160a01b03163303611b6957565b6149fa6136a4565b5f51602061522f5f395f51905f5280546001600160a01b039283166001600160a01b0319821681179092559091167f8be0079c531659141344cd1fd0a4f28419497f9722a3daafe3b4186f6b6457e05f80a3565b908160209103126103f9575161042281611145565b908160209103126103f9575161042281612e75565b604051631454a0a560e31b81527f00000000000000000000000000000000000000000000000000000000000000006001600160a01b031690602081600481855afa801561087a576001600160401b03915f91614b43575b501690814310614b3d576020614ae7600493436140ca565b916040519384809263068d921560e31b82525afa90811561087a5763ffffffff61152c92610422945f91614b1e575b501690614390565b614b37915060203d602011612d0857612cfa818361164f565b5f614b16565b50505f90565b614b65915060203d602011614b6b575b614b5d818361164f565b810190614a4e565b5f614acf565b503d614b53565b905f5160206151af5f395f51905f5254614b8b81613ff7565b925f5b828110614cc657506040516306598de160e31b815290602090829060049082906001600160a01b03165afa801561087a5763ffffffff915f91614ca7575b501691818311614c9e575b5f5b838110614be857505050815290565b80614bfc61045b610925610501858a613a29565b614c0583613854565b858110614c5b57505090614c55600192614c40614c25610501858b613a29565b91614c4f614c36610501838d613a29565b614c40878d613a29565b6001600160a01b039091169052565b89613a29565b01614bd9565b614c6e61045b610925610501848c613a29565b614c788684614ce8565b614c828783614ce8565b11614c91575b50600101614c05565b9092509050816001614c88565b91508091614bd7565b614cc0915060203d602011612d0857612cfa818361164f565b5f614bcc565b80614ce2614cd8612ef8600194613c47565b614c408389613a29565b01614b8e565b6001600160701b0391602091614cfe9190614f2e565b0151166402540be4008102908082046402540be40014901517156138625790565b15614d275750565b63403f6f6f60e11b5f9081526001600160a01b0391909116600452602490fd5b63ffffffff60019116019063ffffffff821161386257565b60ff5f5160206152ef5f395f51905f525460401c1615614d7b57565b631afcd79f60e31b5f5260045ffd5b908160209103126103f9575180151581036103f95790565b5f5160206151af5f395f51905f5254905f905f19906001600160a01b03165b838310614e4e575b5090505f811215614dd8575050565b6001821180614e3c575b614df1575b505061167f61507d565b614e11614e0b612ef8614e06614e35956140bc565b613c47565b91613c47565b81546001600160a01b0393841660039290921b91821b9390911b1916919091179055565b5f80614de7565b50614e46826140bc565b811415614de2565b80614e72614e5b85613c47565b90546001600160a01b039260039290921b1c821690565b1603614e81575050805f614dc9565b600190920191614dc1565b90813b15614f0d575f51602061528f5f395f51905f5280546001600160a01b0319166001600160a01b0384169081179091557fbc7cd75a20ee27fd9adebab32041f755214dbc6bffa90cc0225b39da2e5c2d3b5f80a2805115614ef557614ef291615137565b50565b505034614efe57565b63b398979f60e01b5f5260045ffd5b50634c9c8ce360e01b5f9081526001600160a01b0391909116600452602490fd5b90614f376148c8565b506060820190614f4e82516001600160401b031690565b6001600160401b0381166001600160401b038316101561507657505b6001600160401b038116801561504a578351614f989061238d90849061147f906001600160a01b0316613524565b90614fad61152c85516001600160401b031690565b148015615034575b8015615021575b8015615006575b8015614fe7575b614fe057505f19016001600160401b0316614f6a565b9250505090565b5063ffffffff614ffe604083015163ffffffff1690565b161515614fca565b5061ffff615019606083015161ffff1690565b161515614fc3565b5080516001600160601b03161515614fbc565b5060208101516001600160701b03161515614fb5565b50509051610422915061238d90615069906001600160a01b0316613524565b5f805260205260405f2090565b9050614f6a565b5f5160206151af5f395f51905f525480156150f4575f198101905f5160206151af5f395f51905f5254821015613831575f5160206151af5f395f51905f525f8190527f024be1d688fec05d4c3e9aeb5eac4f8c1e7d5bd030a2d0a8bafafba39f7f7ac890910180546001600160a01b031916905555565b634e487b7160e01b5f52603160045260245ffd5b3d15615132573d9061511982611690565b91615127604051938461164f565b82523d5f602084013e565b606090565b5f8061042293602081519101845af461514e615108565b915b90615174575080511561516557805190602001fd5b630a12f52160e11b5f5260045ffd5b815115806151a5575b615185575090565b639996b31560e01b5f9081526001600160a01b0391909116600452602490fd5b50803b1561517d56fe4102a9ba7244b40639ebe412c7bfc792b19c048efdf631bf4f130fef80c0df0242449fd19d367b0177da9082fe6da7d4da41af7573e3a3c1750ecffeffe26f9df295d610a4116363064013aa5e1168427c6b907b208d8be559665c0e7adec5008f1c49778ec45f03e87f0e3e1567785ab335a882d8dad6d5c44cb7ae509684009016d09d72d40fdae2fd8ceac6b6234c7706214fd39c1cd1e609a0528c199300c00107e0d011ac7c8e4dfa18e3dd3623ff151f8bfcc3821cd39bc114bd6504d94102a9ba7244b40639ebe412c7bfc792b19c048efdf631bf4f130fef80c0df00360894a13ba1a3210667c828492db98dca3e2076cc3735a920a3ca505d382bbc8f1c49778ec45f03e87f0e3e1567785ab335a882d8dad6d5c44cb7ae509684014102a9ba7244b40639ebe412c7bfc792b19c048efdf631bf4f130fef80c0df04f0c57e16840df040f15088dc2f81fe391c3923bec73e23a9662efc9c229c6a00237e158222e3e6968b72b9db0d8043aacf074ad9f650f0d1606b4d82ee432c00a2646970667358221220e79cd63025bf1b3313dd2e5cf39ae86645587ddd4a5fdf96694ffe6299f9c95164736f6c634300081e0033f0c57e16840df040f15088dc2f81fe391c3923bec73e23a9662efc9c229c6a00","linkReferences":{"contracts/staking/StakingDpos.sol":{"StakingDpos":[{"start":3609,"length":20},{"start":8953,"length":20},{"start":9647,"length":20},{"start":10805,"length":20},{"start":13389,"length":20}]},"contracts/staking/StakingEconomics.sol":{"StakingEconomics":[{"start":2747,"length":20},{"start":4350,"length":20},{"start":4673,"length":20},{"start":6244,"length":20},{"start":6777,"length":20},{"start":7037,"length":20},{"start":9284,"length":20},{"start":10913,"length":20},{"start":13872,"length":20},{"start":14078,"length":20}]}}},"methodIdentifiers":{"UPGRADE_INTERFACE_VERSION()":"ad3cb1cc","acceptOwnership()":"79ba5097","activateValidator(address)":"b46e5520","addValidator(address)":"4d238c8e","calcAvailableForRedelegateAmount(address,address)":"5ef9e8c6","changeValidatorCommissionRate(address,uint16)":"14f8649f","changeValidatorOwner(address,address)":"0052c9e1","claimDelegatorFee(address)":"426594b1","claimDelegatorFeeAtEpoch(address,uint64)":"fe38ebef","claimValidatorFee(address)":"ff4794fc","claimValidatorFeeAtEpoch(address,uint64)":"adf2a79c","commitEpochCommittee(address[])":"87401d8a","committeeSelectionEpoch()":"8bd070e4","currentEpoch()":"76671808","delegate(address,uint256)":"026e402b","deposit(address,uint256)":"47e7ef24","disableValidator(address)":"1fe97684","getChainConfig()":"606c0c94","getConsensusKeys(address)":"ad36f42f","getDelegatorFee(address,address)":"52b7bea2","getEpochCommittee(uint64)":"80b562de","getEpochCommitteeLength(uint64)":"e3e6cedc","getEpochCommitteeWithStakes(uint64)":"a4d160c1","getGovernance()":"289b3c0d","getPendingDelegatorFee(address,address)":"c2fd58fc","getPendingValidatorFee(address)":"c6fb9065","getRegistryWithKeys()":"d96cbd7b","getStaking()":"7b1391a6","getStakingPool()":"45946334","getStakingToken()":"9f9106d1","getSystemReward()":"7a37cc59","getValidatorByOwner(address)":"30108c22","getValidatorDelegation(address,address)":"d951e186","getValidatorFee(address)":"457179fd","getValidatorStatus(address)":"a310624f","getValidatorStatusAtEpoch(address,uint64)":"48124d26","getValidators()":"b7ab4db5","getValidatorsWithKeys()":"d41c52eb","getValidatorsWithKeysAt(uint64)":"7cfba9f3","initialize(address,address[],uint256[],uint16)":"01f6bb50","isValidator(address)":"facd743b","isValidatorActive(address)":"42ad55ac","nextEpoch()":"aea0e78b","nextEpochToCommit()":"c06a82de","owner()":"8da5cb5b","pendingOwner()":"e30c3978","proxiableUUID()":"52d1902d","redelegateDelegatorFee(address)":"8ecb3fc9","registerValidator(address,uint16,uint256)":"dd0fb5df","releaseValidatorFromJail(address)":"73a3dda6","removeValidator(address)":"40a141ff","renounceOwnership()":"715018a6","resolveSigner(uint64,uint32)":"d7f1733d","setConsensusKeys(address,bytes,bytes,bytes32)":"225cba85","slash(address)":"c96be4cb","slashEquivocationFinalize(bytes,bytes,bytes,bytes)":"add07a3e","slashEquivocationNotarize(bytes,bytes,bytes,bytes)":"e28d2f63","slashEquivocationNullifyFinalize(bytes,bytes,bytes,bytes)":"a10827e9","transferOwnership(address)":"f2fde38b","undelegate(address,uint256)":"4d99dd16","upgradeToAndCall(address,bytes)":"4f1ef286"},"storageLayout":{"storage":[],"types":{}},"id":4}