{"abi":[{"type":"constructor","inputs":[{"name":"stakingContract","type":"address","internalType":"contract IStaking"},{"name":"systemRewardContract","type":"address","internalType":"contract ISystemReward"},{"name":"stakingPoolContract","type":"address","internalType":"contract IStakingPool"},{"name":"governanceContract","type":"address","internalType":"contract IFluentGovernance"},{"name":"chainConfigContract","type":"address","internalType":"contract IChainConfig"},{"name":"stakingToken","type":"address","internalType":"contract IERC20"}],"stateMutability":"nonpayable"},{"type":"function","name":"UPGRADE_INTERFACE_VERSION","inputs":[],"outputs":[{"name":"","type":"string","internalType":"string"}],"stateMutability":"view"},{"type":"function","name":"acceptOwnership","inputs":[],"outputs":[],"stateMutability":"nonpayable"},{"type":"function","name":"claim","inputs":[{"name":"validator","type":"address","internalType":"address"}],"outputs":[],"stateMutability":"nonpayable"},{"type":"function","name":"claimableRewards","inputs":[{"name":"validator","type":"address","internalType":"address"},{"name":"staker","type":"address","internalType":"address"}],"outputs":[{"name":"","type":"uint256","internalType":"uint256"}],"stateMutability":"view"},{"type":"function","name":"getChainConfig","inputs":[],"outputs":[{"name":"","type":"address","internalType":"contract IChainConfig"}],"stateMutability":"view"},{"type":"function","name":"getGovernance","inputs":[],"outputs":[{"name":"","type":"address","internalType":"contract IFluentGovernance"}],"stateMutability":"view"},{"type":"function","name":"getRatio","inputs":[{"name":"validator","type":"address","internalType":"address"}],"outputs":[{"name":"","type":"uint256","internalType":"uint256"}],"stateMutability":"view"},{"type":"function","name":"getShares","inputs":[{"name":"validator","type":"address","internalType":"address"},{"name":"staker","type":"address","internalType":"address"}],"outputs":[{"name":"","type":"uint256","internalType":"uint256"}],"stateMutability":"view"},{"type":"function","name":"getStakedAmount","inputs":[{"name":"validator","type":"address","internalType":"address"},{"name":"staker","type":"address","internalType":"address"}],"outputs":[{"name":"","type":"uint256","internalType":"uint256"}],"stateMutability":"view"},{"type":"function","name":"getStaking","inputs":[],"outputs":[{"name":"","type":"address","internalType":"contract IStaking"}],"stateMutability":"view"},{"type":"function","name":"getStakingPool","inputs":[],"outputs":[{"name":"","type":"address","internalType":"contract IStakingPool"}],"stateMutability":"view"},{"type":"function","name":"getStakingToken","inputs":[],"outputs":[{"name":"","type":"address","internalType":"contract IERC20"}],"stateMutability":"view"},{"type":"function","name":"getSystemReward","inputs":[],"outputs":[{"name":"","type":"address","internalType":"contract ISystemReward"}],"stateMutability":"view"},{"type":"function","name":"getValidatorPool","inputs":[{"name":"validator","type":"address","internalType":"address"}],"outputs":[{"name":"","type":"tuple","internalType":"struct IStakingPool.ValidatorPool","components":[{"name":"validatorAddress","type":"address","internalType":"address"},{"name":"sharesSupply","type":"uint256","internalType":"uint256"},{"name":"totalStakedAmount","type":"uint256","internalType":"uint256"},{"name":"dustRewards","type":"uint256","internalType":"uint256"},{"name":"pendingUnstake","type":"uint256","internalType":"uint256"},{"name":"epoch","type":"uint64","internalType":"uint64"}]}],"stateMutability":"view"},{"type":"function","name":"initialize","inputs":[{"name":"initialOwner","type":"address","internalType":"address"}],"outputs":[],"stateMutability":"nonpayable"},{"type":"function","name":"owner","inputs":[],"outputs":[{"name":"","type":"address","internalType":"address"}],"stateMutability":"view"},{"type":"function","name":"pendingOwner","inputs":[],"outputs":[{"name":"","type":"address","internalType":"address"}],"stateMutability":"view"},{"type":"function","name":"proxiableUUID","inputs":[],"outputs":[{"name":"","type":"bytes32","internalType":"bytes32"}],"stateMutability":"view"},{"type":"function","name":"renounceOwnership","inputs":[],"outputs":[],"stateMutability":"nonpayable"},{"type":"function","name":"stake","inputs":[{"name":"validator","type":"address","internalType":"address"},{"name":"amount","type":"uint256","internalType":"uint256"}],"outputs":[],"stateMutability":"nonpayable"},{"type":"function","name":"transferOwnership","inputs":[{"name":"newOwner","type":"address","internalType":"address"}],"outputs":[],"stateMutability":"nonpayable"},{"type":"function","name":"unstake","inputs":[{"name":"validator","type":"address","internalType":"address"},{"name":"amount","type":"uint256","internalType":"uint256"}],"outputs":[],"stateMutability":"nonpayable"},{"type":"function","name":"upgradeToAndCall","inputs":[{"name":"newImplementation","type":"address","internalType":"address"},{"name":"data","type":"bytes","internalType":"bytes"}],"outputs":[],"stateMutability":"payable"},{"type":"event","name":"Initialized","inputs":[{"name":"version","type":"uint64","indexed":false,"internalType":"uint64"}],"anonymous":false},{"type":"event","name":"OwnershipTransferStarted","inputs":[{"name":"previousOwner","type":"address","indexed":true,"internalType":"address"},{"name":"newOwner","type":"address","indexed":true,"internalType":"address"}],"anonymous":false},{"type":"event","name":"OwnershipTransferred","inputs":[{"name":"previousOwner","type":"address","indexed":true,"internalType":"address"},{"name":"newOwner","type":"address","indexed":true,"internalType":"address"}],"anonymous":false},{"type":"event","name":"RewardsClaimed","inputs":[{"name":"validator","type":"address","indexed":true,"internalType":"address"},{"name":"staker","type":"address","indexed":true,"internalType":"address"},{"name":"amount","type":"uint256","indexed":false,"internalType":"uint256"}],"anonymous":false},{"type":"event","name":"Staked","inputs":[{"name":"validator","type":"address","indexed":true,"internalType":"address"},{"name":"staker","type":"address","indexed":true,"internalType":"address"},{"name":"amount","type":"uint256","indexed":false,"internalType":"uint256"}],"anonymous":false},{"type":"event","name":"Unstaked","inputs":[{"name":"validator","type":"address","indexed":true,"internalType":"address"},{"name":"staker","type":"address","indexed":true,"internalType":"address"},{"name":"amount","type":"uint256","indexed":false,"internalType":"uint256"}],"anonymous":false},{"type":"event","name":"Upgraded","inputs":[{"name":"implementation","type":"address","indexed":true,"internalType":"address"}],"anonymous":false},{"type":"error","name":"AddressEmptyCode","inputs":[{"name":"target","type":"address","internalType":"address"}]},{"type":"error","name":"AddressInsufficientBalance","inputs":[{"name":"account","type":"address","internalType":"address"}]},{"type":"error","name":"AlreadySlashedForEquivocation","inputs":[{"name":"validator","type":"address","internalType":"address"}]},{"type":"error","name":"AmountTooLow","inputs":[{"name":"amount","type":"uint256","internalType":"uint256"}]},{"type":"error","name":"BadCommissionRate","inputs":[{"name":"commissionRate","type":"uint16","internalType":"uint16"}]},{"type":"error","name":"BadShareDistribution","inputs":[{"name":"shareDistribution","type":"uint16","internalType":"uint16"}]},{"type":"error","name":"BlsVerifierNotConfigured","inputs":[]},{"type":"error","name":"CommitteeLengthMismatch","inputs":[{"name":"expected","type":"uint256","internalType":"uint256"},{"name":"got","type":"uint256","internalType":"uint256"}]},{"type":"error","name":"CommitteeMemberKeyless","inputs":[{"name":"validator","type":"address","internalType":"address"}]},{"type":"error","name":"CommitteeMemberNotInActiveSet","inputs":[{"name":"validator","type":"address","internalType":"address"}]},{"type":"error","name":"CommitteeNotStrictlyAscending","inputs":[{"name":"validator","type":"address","internalType":"address"}]},{"type":"error","name":"ConsensusKeysAlreadySet","inputs":[{"name":"validator","type":"address","internalType":"address"}]},{"type":"error","name":"ConsensusKeysNotSet","inputs":[{"name":"validator","type":"address","internalType":"address"}]},{"type":"error","name":"DelegationQueueEmpty","inputs":[]},{"type":"error","name":"DelegationQueueNotEmpty","inputs":[{"name":"delegationQueue","type":"uint256","internalType":"uint256"}]},{"type":"error","name":"DepositIsZero","inputs":[]},{"type":"error","name":"ERC1967InvalidImplementation","inputs":[{"name":"implementation","type":"address","internalType":"address"}]},{"type":"error","name":"ERC1967NonPayable","inputs":[]},{"type":"error","name":"EpochCommitteeNotCommitted","inputs":[{"name":"epoch","type":"uint64","internalType":"uint64"}]},{"type":"error","name":"EpochIsNotReady","inputs":[{"name":"epoch","type":"uint64","internalType":"uint64"}]},{"type":"error","name":"EpochNotYetCommittable","inputs":[{"name":"target","type":"uint64","internalType":"uint64"},{"name":"currentEpoch","type":"uint64","internalType":"uint64"}]},{"type":"error","name":"EquivocationKeyMismatch","inputs":[]},{"type":"error","name":"EquivocationSignatureInvalid","inputs":[]},{"type":"error","name":"EvidenceDecoderNotConfigured","inputs":[]},{"type":"error","name":"FailedInnerCall","inputs":[]},{"type":"error","name":"InitialStakeTooLow","inputs":[{"name":"initialStake","type":"uint256","internalType":"uint256"}]},{"type":"error","name":"InsufficientBalance","inputs":[]},{"type":"error","name":"InvalidClaimEpoch","inputs":[]},{"type":"error","name":"InvalidConsensusKeyEncoding","inputs":[]},{"type":"error","name":"InvalidInitialization","inputs":[]},{"type":"error","name":"InvalidProofOfPossession","inputs":[{"name":"validator","type":"address","internalType":"address"}]},{"type":"error","name":"MalformedInitialBalance","inputs":[]},{"type":"error","name":"MalformedInputLength","inputs":[]},{"type":"error","name":"MathOverflowedMulDiv","inputs":[]},{"type":"error","name":"NotActiveValidator","inputs":[]},{"type":"error","name":"NotEnoughBalance","inputs":[]},{"type":"error","name":"NotEnoughShares","inputs":[{"name":"requiredShares","type":"uint256","internalType":"uint256"}]},{"type":"error","name":"NotInitializing","inputs":[]},{"type":"error","name":"NotPendingValidator","inputs":[{"name":"validator","type":"address","internalType":"address"}]},{"type":"error","name":"NothingToClaim","inputs":[]},{"type":"error","name":"NothingToUnstake","inputs":[]},{"type":"error","name":"OnlyCoinbase","inputs":[]},{"type":"error","name":"OnlyGovernance","inputs":[]},{"type":"error","name":"OnlyLivenessSlashing","inputs":[]},{"type":"error","name":"OnlyStakingContract","inputs":[]},{"type":"error","name":"OnlySystemCall","inputs":[]},{"type":"error","name":"OnlyValidatorOwner","inputs":[{"name":"validator","type":"address","internalType":"address"}]},{"type":"error","name":"OnlyZeroGasPrice","inputs":[]},{"type":"error","name":"OwnableInvalidOwner","inputs":[{"name":"owner","type":"address","internalType":"address"}]},{"type":"error","name":"OwnableUnauthorizedAccount","inputs":[{"name":"account","type":"address","internalType":"address"}]},{"type":"error","name":"OwnerCantBeZero","inputs":[]},{"type":"error","name":"OwnerSelfStakeBelowMinimum","inputs":[]},{"type":"error","name":"PeerPubkeyAlreadyInUse","inputs":[{"name":"peerPubkey","type":"bytes32","internalType":"bytes32"}]},{"type":"error","name":"PendingUndelegate","inputs":[]},{"type":"error","name":"SafeERC20FailedOperation","inputs":[{"name":"token","type":"address","internalType":"address"}]},{"type":"error","name":"SafeTransferFailed","inputs":[]},{"type":"error","name":"SignerIndexOutOfRange","inputs":[{"name":"epoch","type":"uint64","internalType":"uint64"},{"name":"signerIdx","type":"uint32","internalType":"uint32"},{"name":"committeeLen","type":"uint256","internalType":"uint256"}]},{"type":"error","name":"StillInJail","inputs":[{"name":"validator","type":"address","internalType":"address"}]},{"type":"error","name":"UUPSUnauthorizedCallContext","inputs":[]},{"type":"error","name":"UUPSUnsupportedProxiableUUID","inputs":[{"name":"slot","type":"bytes32","internalType":"bytes32"}]},{"type":"error","name":"UnsafeTransferFailed","inputs":[]},{"type":"error","name":"ValidatorAlreadyExists","inputs":[{"name":"validator","type":"address","internalType":"address"}]},{"type":"error","name":"ValidatorNotFound","inputs":[{"name":"validator","type":"address","internalType":"address"}]},{"type":"error","name":"ValidatorNotInJail","inputs":[{"name":"validator","type":"address","internalType":"address"}]},{"type":"error","name":"ValidatorOwnerAlreadyInUse","inputs":[{"name":"validator","type":"address","internalType":"address"}]},{"type":"error","name":"WrongAmountPrecision","inputs":[]},{"type":"error","name":"ZeroAmount","inputs":[]},{"type":"error","name":"ZeroStaker","inputs":[]},{"type":"error","name":"ZeroValidator","inputs":[]}],"bytecode":{"object":"0x6101603461022f57601f61261d38819003918201601f19168301916001600160401b038311848410176102335780849260c09460405283398101031261022f578051906001600160a01b038216820361022f5760208101516001600160a01b038116810361022f5760408201516001600160a01b038116810361022f576060830151916001600160a01b038316830361022f576080840151936001600160a01b038516850361022f5760a00151946001600160a01b038616860361022f573060805260a05260c05260e0526101005261012052610140525f5160206125fd5f395f51905f525460ff8160401c16610220576002600160401b03196001600160401b038216016101ca575b6040516123b5908161024882396080518181816111ae015261127d015260a051818181610458015281816107d501528181610b4c01528181610c6001528181610eee0152818161153101528181611ca001528181611d600152611e88015260c05181610f33015260e0518161143e015261010051816114830152610120518181816104af0152818161116c015261208401526101405181818161079201528181610a6b01528181610c1d01528181610e74015281816115a80152611eb30152f35b6001600160401b0319166001600160401b039081175f5160206125fd5f395f51905f52556040519081527fc7f505b2f371ae2175ee4913f4499e1f2633a7b5936321eed1cdaeb6115181d290602090a15f610109565b63f92ee8a960e01b5f5260045ffd5b5f80fd5b634e487b7160e01b5f52604160045260245ffdfe60806040526004361015610011575f80fd5b5f5f3560e01c806239204014611a1e5780630db14e951461197c5780631712b0d8146118ea5780631e83409a146114b2578063289b3c0d1461146d57806345946334146114285780634f1ef2861461120257806352d1902d1461119b578063606c0c94146111565780636be9dcce1461110e578063715018a61461108f578063754b270714610fb257806379ba509714610f625780637a37cc5914610f1d5780637b1391a614610ed85780638da5cb5b14610ea35780639f9106d114610e5e578063ad3cb1cc14610e02578063adc9772e1461099b578063c2a672e014610359578063c4d66de8146101d3578063e30c39781461019e5763f2fde38b14610116575f80fd5b3461019b57602036600319011261019b5761012f611a48565b610137611dd6565b5f5160206123605f395f51905f5280546001600160a01b0319166001600160a01b039283169081179091555f5160206122e05f395f51905f52549091167f38d16b8cac22d99fc7c124b9cd0de2d3fa1faef420bfe791d8c362d765e227008380a380f35b80fd5b503461019b578060031936011261019b575f5160206123605f395f51905f52546040516001600160a01b039091168152602090f35b503461019b57602036600319011261019b576101ed611a48565b5f5160206123405f395f51905f52549060ff8260401c1615916001600160401b03811680159081610351575b6001149081610347575b15908161033e575b5061032f5767ffffffffffffffff1981166001175f5160206123405f395f51905f525582610303575b5061025d612192565b610265612192565b61026d612192565b6001600160a01b038116156102ef5761028590611e09565b61028d612192565b610295612192565b61029c5780f35b60ff60401b195f5160206123405f395f51905f5254165f5160206123405f395f51905f52557fc7f505b2f371ae2175ee4913f4499e1f2633a7b5936321eed1cdaeb6115181d2602060405160018152a180f35b631e4fbdf760e01b83526004839052602483fd5b68ffffffffffffffffff191668010000000000000001175f5160206123405f395f51905f52555f610254565b63f92ee8a960e01b8452600484fd5b9050155f61022b565b303b159150610223565b849150610219565b503461019b57604036600319011261019b57610373611a48565b6024359061038081611bee565b608081019081511561077d575b505061039881611bee565b90604082019182511561076e576103ae82611b32565b335f90815260209190915260409020600201546001600160401b031661075f576020810180516103e8810180911161074b576103f46103ec84611c64565b508651611b9a565b906103e882018092116107375761040e9160019188611fa8565b9161041884611afa565b335f9081526020919091526040902054831161043385611afa565b335f908152602091909152604090205490610725575060405163aea0e78b60e01b81527f00000000000000000000000000000000000000000000000000000000000000006001600160a01b03169390602081600481885afa90811561071a5789916106eb575b50604051635e7b72ad60e01b81526020816004817f00000000000000000000000000000000000000000000000000000000000000006001600160a01b03165afa9081156106e0578a91610699575b5063ffffffff6001600160401b039116911601906001600160401b038211610685576001600160401b0360a0879695948a836002818f9c9860059861054b839b6040519761053489611a74565b885260208801928352846040890194168452611b32565b6001808a1b0333165f5260205260405f20955186555160018601555116920191168419825416179055608081016105838c8251611b9a565b8152600180841b0389169a8b8b525f5160206123005f395f51905f5260205260408b2097600180861b03600180871b0385511616600180871b03198a541617895551600189015551600288015560608201516003880155516004870155015116920191166001600160401b0319825416179055803b156106765784839161062193836040518096819582946326ccee8b60e11b845260048401611bd3565b03925af1801561067a57610661575b50506040519182527fd8654fcc8cf5b36d30b3f5e4688fc78118e6d68de60b9994e09902268b57c3e360203393a380f35b8161066b91611abe565b61067657825f610630565b8280fd5b6040513d84823e3d90fd5b634e487b7160e01b89526011600452602489fd5b90506020813d6020116106d8575b816106b460209383611abe565b810103126106d4575163ffffffff811681036106d45763ffffffff6104e7565b8980fd5b3d91506106a7565b6040513d8c823e3d90fd5b61070d915060203d602011610713575b6107058183611abe565b810190611ba7565b5f610499565b503d6106fb565b6040513d8b823e3d90fd5b6316302eef60e01b8852600452602487fd5b634e487b7160e01b88526011600452602488fd5b634e487b7160e01b87526011600452602487fd5b63af63699b60e01b8552600485fd5b63422f6e3560e11b8552600485fd5b6040516370a0823160e01b81523060048201527f00000000000000000000000000000000000000000000000000000000000000006001600160a01b031690602081602481855afa90811561099057879161095e575b507f00000000000000000000000000000000000000000000000000000000000000006001600160a01b031691823b1561095a578760405163426594b160e01b815281816024818360018060a01b038d16998a60048401525af1801561067a57610945575b50506020602491604051928380926370a0823160e01b82523060048301525afa90811561093a5788916108fd575b506001600160401b0393600593610887610881879560a095611bc6565b83611d1c565b89525f5160206123005f395f51905f526020526040892095600180841b03600180851b0383511616600180851b0319885416178755602082015160018801556040820151600288015560608201516003880155516004870155015116920191166001600160401b03198254161790555f8061038d565b90506020813d602011610932575b8161091860209383611abe565b8101031261092e57516001600160401b03610864565b5f80fd5b3d915061090b565b6040513d8a823e3d90fd5b8161094f91611abe565b61095a57875f610836565b8780fd5b90506020813d602011610988575b8161097960209383611abe565b8101031261092e57515f6107d2565b3d915061096c565b6040513d89823e3d90fd5b503461019b57604036600319011261019b576109b5611a48565b602435906109c281611bee565b6080810190815115610c08575b50506109da81611bee565b90602082018051926103e88401809411610bf4576109f781611c64565b5093610a0860408301958651611b9a565b906103e88201809211610737576001600160401b0360a089969594610aca610a358985976005978e611fa8565b610a8f6040516323b872dd60e01b60208201523360248201523060448201528d606482015260648152610a69608482611abe565b7f0000000000000000000000000000000000000000000000000000000000000000612127565b610a9889611afa565b600180861b0333165f5260205260405f20610ab4828254611b9a565b9055610ac18c8c51611b9a565b8b528751611b9a565b8652600180831b038716988989525f5160206123005f395f51905f526020526040892096600180851b03600180861b0384511616600180861b03198954161788555160018801555160028701556060810151600387015560808101516004870155015116920191166001600160401b0319825416179055610b4a84611e74565b7f00000000000000000000000000000000000000000000000000000000000000006001600160a01b0316803b1561067657848391610b9f938360405180968195829463026e402b60e01b845260048401611bd3565b03925af1801561067a57610bdf575b50506040519182527f5dac0c1b1112564a045ba943c9d50270893e8e826c49be8e7073adc713ab7bd760203393a380f35b81610be991611abe565b61067657825f610bae565b634e487b7160e01b86526011600452602486fd5b6040516370a0823160e01b81523060048201527f00000000000000000000000000000000000000000000000000000000000000006001600160a01b031690602081602481855afa908115610990578791610dd0575b507f00000000000000000000000000000000000000000000000000000000000000006001600160a01b031691823b1561095a578760405163426594b160e01b815281816024818360018060a01b038d16998a60048401525af1801561067a57610dbb575b50506020602491604051928380926370a0823160e01b82523060048301525afa90811561093a578891610d82575b506001600160401b0393600593610d0c610881879560a095611bc6565b89525f5160206123005f395f51905f526020526040892095600180841b03600180851b0383511616600180851b0319885416178755602082015160018801556040820151600288015560608201516003880155516004870155015116920191166001600160401b03198254161790555f806109cf565b90506020813d602011610db3575b81610d9d60209383611abe565b8101031261092e57516001600160401b03610cef565b3d9150610d90565b81610dc591611abe565b61095a57875f610cc1565b90506020813d602011610dfa575b81610deb60209383611abe565b8101031261092e57515f610c5d565b3d9150610dde565b503461019b578060031936011261019b5760408051610e218282611abe565b6005815260208101640352e302e360dc1b81528251938492602084525180928160208601528585015e828201840152601f01601f19168101030190f35b503461019b578060031936011261019b576040517f00000000000000000000000000000000000000000000000000000000000000006001600160a01b03168152602090f35b503461019b578060031936011261019b575f5160206122e05f395f51905f52546040516001600160a01b039091168152602090f35b503461019b578060031936011261019b576040517f00000000000000000000000000000000000000000000000000000000000000006001600160a01b03168152602090f35b503461019b578060031936011261019b576040517f00000000000000000000000000000000000000000000000000000000000000006001600160a01b03168152602090f35b503461019b578060031936011261019b575f5160206123605f395f51905f5254336001600160a01b0390911603610f9f57610f9c33611e09565b80f35b63118cdaa760e01b815233600452602490fd5b503461019b57602036600319011261019b57610fd4610fcf611a48565b611bee565b906020820151916103e8830180931161107b57806040610ff6610fff93611c64565b50910151611b9a565b6103e8810180911161107b5761101e81670de0b6b3a7640000856121bd565b92811561106757670de0b6b3a76400009009611040575b602082604051908152f35b6001820180921161105357506020611035565b634e487b7160e01b81526011600452602490fd5b634e487b7160e01b83526012600452602483fd5b634e487b7160e01b82526011600452602482fd5b503461019b578060031936011261019b576110a8611dd6565b5f5160206123605f395f51905f5280546001600160a01b03199081169091555f5160206122e05f395f51905f528054918216905581906001600160a01b03167f8be0079c531659141344cd1fd0a4f28419497f9722a3daafe3b4186f6b6457e08280a380f35b503461019b57604036600319011261019b57611128611a48565b611139611133611a5e565b91611b32565b9060018060a01b03165f52602052602060405f2054604051908152f35b503461019b578060031936011261019b576040517f00000000000000000000000000000000000000000000000000000000000000006001600160a01b03168152602090f35b503461019b578060031936011261019b577f00000000000000000000000000000000000000000000000000000000000000006001600160a01b031630036111f35760206040515f5160206123205f395f51905f528152f35b63703e46dd60e11b8152600490fd5b50604036600319011261019b57611217611a48565b602435906001600160401b0382116106765736602383011215610676578160040135908361124483611adf565b936112526040519586611abe565b8385526020850193366024828401011161067657806024602093018637850101526001600160a01b037f000000000000000000000000000000000000000000000000000000000000000016308114908115611406575b506113f7576112b5611dd6565b6040516352d1902d60e01b81526001600160a01b0382169390602081600481885afa8691816113bf575b506112f857634c9c8ce360e01b86526004859052602486fd5b93845f5160206123205f395f51905f528796036113ad5750823b1561139b575f5160206123205f395f51905f5280546001600160a01b031916821790558491907fbc7cd75a20ee27fd9adebab32041f755214dbc6bffa90cc0225b39da2e5c2d3b8380a28051156113805761137c9382915190845af4611376612252565b91612281565b5080f35b505050503461138c5780f35b63b398979f60e01b8152600490fd5b634c9c8ce360e01b8552600452602484fd5b632a87526960e21b8652600452602485fd5b9091506020813d6020116113ef575b816113db60209383611abe565b810103126113eb5751905f6112df565b8680fd5b3d91506113ce565b63703e46dd60e11b8452600484fd5b5f5160206123205f395f51905f52546001600160a01b0316141590505f6112a8565b503461019b578060031936011261019b576040517f00000000000000000000000000000000000000000000000000000000000000006001600160a01b03168152602090f35b503461019b578060031936011261019b576040517f00000000000000000000000000000000000000000000000000000000000000006001600160a01b03168152602090f35b503461092e57602036600319011261092e576114cc611a48565b6114d581611b32565b60018060a01b0333165f5260205260405f20604051906114f482611a74565b80549182815260406001600160401b036002600185015494856020860152015416910190808252156118db578051604051630ecce30160e31b81527f00000000000000000000000000000000000000000000000000000000000000006001600160a01b03169290916001600160401b031690602083600481875afa92831561185e575f936118af575b506001600160401b038091511692161061189d57506040516370a0823160e01b8152306004820152907f00000000000000000000000000000000000000000000000000000000000000006001600160a01b031690602083602481855afa92831561185e575f93611869575b50803b1561092e5760405163426594b160e01b81526001600160a01b0387166004820152905f908290602490829084905af1801561185e57611842575b50906020602492604051938480926370a0823160e01b82523060048301525afa9182156118375786926117fc575b506001600160401b0360a061166b6005938395611bc6565b9461167588611afa565b600180841b0333165f5260205260405f20611691828254611bc6565b90556116aa61169f89611bee565b916020830151611bc6565b602082015260408101956116bf888851611bc6565b87528760808301916116d2828451611bc6565b83528181116117e8575b5050600180841b0389168a525f5160206123005f395f51905f5260205260408a2096600180851b03600180861b0384511616600180861b03198954161788556020830151600189015551600288015560608201516003880155516004870155015116920191166001600160401b031982541617905561175a82611b32565b60018060a01b0333165f5260205282600260405f2082815582600182015501556117ad60405163a9059cbb60e01b6020820152610a698161179f853360248401611bd3565b03601f198101835282611abe565b60405190815233916001600160a01b0316907f9310ccfcb8de723f578a9e4282ea9f521f05ae40dc08f3068dfad528a65ee3c790602090a380f35b6117f59161088191611bc6565b875f6116dc565b91506020823d60201161182f575b8161181760209383611abe565b8101031261092e579051906001600160401b03611653565b3d915061180a565b6040513d88823e3d90fd5b6024929196505f61185291611abe565b60205f96919250611625565b6040513d5f823e3d90fd5b9092506020813d602011611895575b8161188560209383611abe565b8101031261092e5751915f6115e8565b3d9150611878565b631b8bc9b360e21b5f5260045260245ffd5b6001600160401b039193506118d3829160203d602011610713576107058183611abe565b93915061157d565b6312d37ee560e31b5f5260045ffd5b3461092e57602036600319011261092e5760c0611916611908611a48565b611910611b6a565b50611bee565b6001600160401b0360a061192983611c64565b61193a604086939601958651611b9a565b85526060820190815260405194600180851b038351168652602083015160208701525160408601525160608501526080810151608085015201511660a0820152f35b3461092e57604036600319011261092e57611995611a48565b61199d611a5e565b6119af6119a983611bee565b92611afa565b9060018060a01b03165f5260205260405f20546119d96119ce83611c64565b506040840151611b9a565b916103e88301809311611a0a57602001516103e88101809111611a0a57602092611a02926121bd565b604051908152f35b634e487b7160e01b5f52601160045260245ffd5b3461092e57604036600319011261092e57611a37611a48565b611139611a42611a5e565b91611afa565b600435906001600160a01b038216820361092e57565b602435906001600160a01b038216820361092e57565b606081019081106001600160401b03821117611a8f57604052565b634e487b7160e01b5f52604160045260245ffd5b60c081019081106001600160401b03821117611a8f57604052565b90601f801991011681019081106001600160401b03821117611a8f57604052565b6001600160401b038111611a8f57601f01601f191660200190565b6001600160a01b03165f9081527f3ec11625092490bee5ebf7f2a26d6921811c497aeda967af2d28f1c0388b4a026020526040902090565b6001600160a01b03165f9081527f3ec11625092490bee5ebf7f2a26d6921811c497aeda967af2d28f1c0388b4a016020526040902090565b60405190611b7782611aa3565b5f60a0838281528260208201528260408201528260608201528260808201520152565b91908201809211611a0a57565b9081602091031261092e57516001600160401b038116810361092e5790565b91908203918211611a0a57565b6001600160a01b039091168152602081019190915260400190565b611bf6611b6a565b5060018060a01b0316805f525f5160206123005f395f51905f5260205260405f20906001600160401b03600560405193611c2f85611aa3565b6001810154602086015260028101546040860152600381015460608601526004810154608086015201541660a0830152815290565b6080810151611d1457805160405163295bdf5160e11b81526001600160a01b0391821660048201523060248201529190602090839060449082907f0000000000000000000000000000000000000000000000000000000000000000165afa90811561185e575f91611cde575b611cda9250612021565b9091565b90506020823d602011611d0c575b81611cf960209383611abe565b8101031261092e57611cda915190611cd0565b3d9150611cec565b606001515f91565b90611d279082612021565b9181611d46575b606091611d4060408301918251611b9a565b90520152565b611d4f82611e74565b80516001600160a01b0390811692907f000000000000000000000000000000000000000000000000000000000000000016803b1561092e57815f91611dab958360405180988195829463026e402b60e01b845260048401611bd3565b03925af192831561185e57606093611dc6575b509150611d2e565b5f611dd091611abe565b5f611dbe565b5f5160206122e05f395f51905f52546001600160a01b03163303611df657565b63118cdaa760e01b5f523360045260245ffd5b5f5160206123605f395f51905f5280546001600160a01b03199081169091555f5160206122e05f395f51905f5280549182166001600160a01b0393841690811790915591167f8be0079c531659141344cd1fd0a4f28419497f9722a3daafe3b4186f6b6457e05f80a3565b60405163095ea7b360e01b602082019081527f00000000000000000000000000000000000000000000000000000000000000006001600160a01b0316927f00000000000000000000000000000000000000000000000000000000000000009190611ef6908490611ee8908760248401611bd3565b03601f198101855284611abe565b82516001600160a01b038316915f91829182855af190611f14612252565b82611f76575b5081611f6b575b5015611f2c57505050565b611f64611f69936040519063095ea7b360e01b602083015260248201525f604482015260448152611f5e606482611abe565b82612127565b612127565b565b90503b15155f611f21565b80519192508115918215611f8e575b5050905f611f1a565b611fa1925060208091830101910161210f565b5f80611f85565b9190611fb58282856121bd565b93600481101561200d576001809116149283611fe4575b505050611fd65790565b60018101809111611a0a5790565b909180935015611ff9570915155f8080611fcc565b634e487b7160e01b5f52601260045260245ffd5b634e487b7160e01b5f52602160045260245ffd5b9190612034608091606085015190611b9a565b92015182811015612109576120499192611bc6565b906402540be4008204916402540be4008302928084046402540be4001490151715611a0a5760405163eea9a01b60e01b8152836020826004817f00000000000000000000000000000000000000000000000000000000000000006001600160a01b03165afa91821561185e575f926120d5575b50106120cf57826120cc91611bc6565b90565b5f925090565b9091506020813d602011612101575b816120f160209383611abe565b8101031261092e5751905f6120bc565b3d91506120e4565b505f9190565b9081602091031261092e5751801515810361092e5790565b5f8061214f9260018060a01b03169360208151910182865af1612148612252565b9083612281565b8051908115159182612177575b50506121655750565b635274afe760e01b5f5260045260245ffd5b61218a925060208091830101910161210f565b155f8061215c565b60ff5f5160206123405f395f51905f525460401c16156121ae57565b631afcd79f60e31b5f5260045ffd5b9091828202915f1984820993838086109503948086039514612244578483111561223557829109815f0382168092046002816003021880820260020302808202600203028082026002030280820260020302808202600203028091026002030293600183805f03040190848311900302920304170290565b63227bc15360e01b5f5260045ffd5b505091508115611ff9570490565b3d1561227c573d9061226382611adf565b916122716040519384611abe565b82523d5f602084013e565b606090565b906122a5575080511561229657805190602001fd5b630a12f52160e11b5f5260045ffd5b815115806122d6575b6122b6575090565b639996b31560e01b5f9081526001600160a01b0391909116600452602490fd5b50803b156122ae56fe9016d09d72d40fdae2fd8ceac6b6234c7706214fd39c1cd1e609a0528c1993003ec11625092490bee5ebf7f2a26d6921811c497aeda967af2d28f1c0388b4a00360894a13ba1a3210667c828492db98dca3e2076cc3735a920a3ca505d382bbcf0c57e16840df040f15088dc2f81fe391c3923bec73e23a9662efc9c229c6a00237e158222e3e6968b72b9db0d8043aacf074ad9f650f0d1606b4d82ee432c00a2646970667358221220ebac3e14285818ad8d2b34b638cb125a5d90b510cca5764c2cc6193953aeef3364736f6c634300081e0033f0c57e16840df040f15088dc2f81fe391c3923bec73e23a9662efc9c229c6a00","linkReferences":{}},"methodIdentifiers":{"UPGRADE_INTERFACE_VERSION()":"ad3cb1cc","acceptOwnership()":"79ba5097","claim(address)":"1e83409a","claimableRewards(address,address)":"6be9dcce","getChainConfig()":"606c0c94","getGovernance()":"289b3c0d","getRatio(address)":"754b2707","getShares(address,address)":"00392040","getStakedAmount(address,address)":"0db14e95","getStaking()":"7b1391a6","getStakingPool()":"45946334","getStakingToken()":"9f9106d1","getSystemReward()":"7a37cc59","getValidatorPool(address)":"1712b0d8","initialize(address)":"c4d66de8","owner()":"8da5cb5b","pendingOwner()":"e30c3978","proxiableUUID()":"52d1902d","renounceOwnership()":"715018a6","stake(address,uint256)":"adc9772e","transferOwnership(address)":"f2fde38b","unstake(address,uint256)":"c2a672e0","upgradeToAndCall(address,bytes)":"4f1ef286"},"storageLayout":{"storage":[],"types":{}},"id":9}