{"abi":[{"type":"constructor","inputs":[{"name":"stakingContract","type":"address","internalType":"contract IStaking"},{"name":"systemRewardContract","type":"address","internalType":"contract ISystemReward"},{"name":"stakingPoolContract","type":"address","internalType":"contract IStakingPool"},{"name":"governanceContract","type":"address","internalType":"contract IFluentGovernance"},{"name":"chainConfigContract","type":"address","internalType":"contract IChainConfig"},{"name":"stakingToken","type":"address","internalType":"contract IERC20"}],"stateMutability":"nonpayable"},{"type":"receive","stateMutability":"payable"},{"type":"function","name":"TREASURY_AUTO_CLAIM_THRESHOLD","inputs":[],"outputs":[{"name":"","type":"uint256","internalType":"uint256"}],"stateMutability":"view"},{"type":"function","name":"TREASURY_MIN_CLAIM_THRESHOLD","inputs":[],"outputs":[{"name":"","type":"uint256","internalType":"uint256"}],"stateMutability":"view"},{"type":"function","name":"UPGRADE_INTERFACE_VERSION","inputs":[],"outputs":[{"name":"","type":"string","internalType":"string"}],"stateMutability":"view"},{"type":"function","name":"acceptOwnership","inputs":[],"outputs":[],"stateMutability":"nonpayable"},{"type":"function","name":"claimSystemFee","inputs":[],"outputs":[],"stateMutability":"nonpayable"},{"type":"function","name":"deposit","inputs":[{"name":"amount","type":"uint256","internalType":"uint256"}],"outputs":[],"stateMutability":"nonpayable"},{"type":"function","name":"getChainConfig","inputs":[],"outputs":[{"name":"","type":"address","internalType":"contract IChainConfig"}],"stateMutability":"view"},{"type":"function","name":"getDistributionShares","inputs":[],"outputs":[{"name":"","type":"tuple[]","internalType":"struct ISystemReward.DistributionShare[]","components":[{"name":"account","type":"address","internalType":"address"},{"name":"share","type":"uint16","internalType":"uint16"}]}],"stateMutability":"view"},{"type":"function","name":"getGovernance","inputs":[],"outputs":[{"name":"","type":"address","internalType":"contract IFluentGovernance"}],"stateMutability":"view"},{"type":"function","name":"getNativeSystemFee","inputs":[],"outputs":[{"name":"","type":"uint256","internalType":"uint256"}],"stateMutability":"view"},{"type":"function","name":"getStaking","inputs":[],"outputs":[{"name":"","type":"address","internalType":"contract IStaking"}],"stateMutability":"view"},{"type":"function","name":"getStakingPool","inputs":[],"outputs":[{"name":"","type":"address","internalType":"contract IStakingPool"}],"stateMutability":"view"},{"type":"function","name":"getStakingToken","inputs":[],"outputs":[{"name":"","type":"address","internalType":"contract IERC20"}],"stateMutability":"view"},{"type":"function","name":"getSystemFee","inputs":[],"outputs":[{"name":"","type":"uint256","internalType":"uint256"}],"stateMutability":"view"},{"type":"function","name":"getSystemReward","inputs":[],"outputs":[{"name":"","type":"address","internalType":"contract ISystemReward"}],"stateMutability":"view"},{"type":"function","name":"initialize","inputs":[{"name":"initialOwner","type":"address","internalType":"address"},{"name":"accounts","type":"address[]","internalType":"address[]"},{"name":"shares","type":"uint16[]","internalType":"uint16[]"}],"outputs":[],"stateMutability":"nonpayable"},{"type":"function","name":"owner","inputs":[],"outputs":[{"name":"","type":"address","internalType":"address"}],"stateMutability":"view"},{"type":"function","name":"pendingOwner","inputs":[],"outputs":[{"name":"","type":"address","internalType":"address"}],"stateMutability":"view"},{"type":"function","name":"proxiableUUID","inputs":[],"outputs":[{"name":"","type":"bytes32","internalType":"bytes32"}],"stateMutability":"view"},{"type":"function","name":"renounceOwnership","inputs":[],"outputs":[],"stateMutability":"nonpayable"},{"type":"function","name":"transferOwnership","inputs":[{"name":"newOwner","type":"address","internalType":"address"}],"outputs":[],"stateMutability":"nonpayable"},{"type":"function","name":"updateDistributionShare","inputs":[{"name":"accounts","type":"address[]","internalType":"address[]"},{"name":"shares","type":"uint16[]","internalType":"uint16[]"}],"outputs":[],"stateMutability":"nonpayable"},{"type":"function","name":"upgradeToAndCall","inputs":[{"name":"newImplementation","type":"address","internalType":"address"},{"name":"data","type":"bytes","internalType":"bytes"}],"outputs":[],"stateMutability":"payable"},{"type":"event","name":"DistributionShareChanged","inputs":[{"name":"account","type":"address","indexed":false,"internalType":"address"},{"name":"share","type":"uint16","indexed":false,"internalType":"uint16"}],"anonymous":false},{"type":"event","name":"FeeClaimed","inputs":[{"name":"account","type":"address","indexed":false,"internalType":"address"},{"name":"nativeAmount","type":"uint256","indexed":false,"internalType":"uint256"},{"name":"tokenAmount","type":"uint256","indexed":false,"internalType":"uint256"}],"anonymous":false},{"type":"event","name":"Initialized","inputs":[{"name":"version","type":"uint64","indexed":false,"internalType":"uint64"}],"anonymous":false},{"type":"event","name":"OwnershipTransferStarted","inputs":[{"name":"previousOwner","type":"address","indexed":true,"internalType":"address"},{"name":"newOwner","type":"address","indexed":true,"internalType":"address"}],"anonymous":false},{"type":"event","name":"OwnershipTransferred","inputs":[{"name":"previousOwner","type":"address","indexed":true,"internalType":"address"},{"name":"newOwner","type":"address","indexed":true,"internalType":"address"}],"anonymous":false},{"type":"event","name":"Upgraded","inputs":[{"name":"implementation","type":"address","indexed":true,"internalType":"address"}],"anonymous":false},{"type":"error","name":"AddressEmptyCode","inputs":[{"name":"target","type":"address","internalType":"address"}]},{"type":"error","name":"AddressInsufficientBalance","inputs":[{"name":"account","type":"address","internalType":"address"}]},{"type":"error","name":"AlreadySlashedForEquivocation","inputs":[{"name":"validator","type":"address","internalType":"address"}]},{"type":"error","name":"AmountTooLow","inputs":[{"name":"amount","type":"uint256","internalType":"uint256"}]},{"type":"error","name":"BadCommissionRate","inputs":[{"name":"commissionRate","type":"uint16","internalType":"uint16"}]},{"type":"error","name":"BadShareDistribution","inputs":[{"name":"shareDistribution","type":"uint16","internalType":"uint16"}]},{"type":"error","name":"BlsVerifierNotConfigured","inputs":[]},{"type":"error","name":"CommitteeLengthMismatch","inputs":[{"name":"expected","type":"uint256","internalType":"uint256"},{"name":"got","type":"uint256","internalType":"uint256"}]},{"type":"error","name":"CommitteeMemberKeyless","inputs":[{"name":"validator","type":"address","internalType":"address"}]},{"type":"error","name":"CommitteeMemberNotInActiveSet","inputs":[{"name":"validator","type":"address","internalType":"address"}]},{"type":"error","name":"CommitteeNotStrictlyAscending","inputs":[{"name":"validator","type":"address","internalType":"address"}]},{"type":"error","name":"ConsensusKeysAlreadySet","inputs":[{"name":"validator","type":"address","internalType":"address"}]},{"type":"error","name":"ConsensusKeysNotSet","inputs":[{"name":"validator","type":"address","internalType":"address"}]},{"type":"error","name":"DelegationQueueEmpty","inputs":[]},{"type":"error","name":"DelegationQueueNotEmpty","inputs":[{"name":"delegationQueue","type":"uint256","internalType":"uint256"}]},{"type":"error","name":"DepositIsZero","inputs":[]},{"type":"error","name":"ERC1967InvalidImplementation","inputs":[{"name":"implementation","type":"address","internalType":"address"}]},{"type":"error","name":"ERC1967NonPayable","inputs":[]},{"type":"error","name":"EpochCommitteeNotCommitted","inputs":[{"name":"epoch","type":"uint64","internalType":"uint64"}]},{"type":"error","name":"EpochIsNotReady","inputs":[{"name":"epoch","type":"uint64","internalType":"uint64"}]},{"type":"error","name":"EpochNotYetCommittable","inputs":[{"name":"target","type":"uint64","internalType":"uint64"},{"name":"currentEpoch","type":"uint64","internalType":"uint64"}]},{"type":"error","name":"EquivocationKeyMismatch","inputs":[]},{"type":"error","name":"EquivocationSignatureInvalid","inputs":[]},{"type":"error","name":"EvidenceDecoderNotConfigured","inputs":[]},{"type":"error","name":"FailedInnerCall","inputs":[]},{"type":"error","name":"InitialStakeTooLow","inputs":[{"name":"initialStake","type":"uint256","internalType":"uint256"}]},{"type":"error","name":"InsufficientBalance","inputs":[]},{"type":"error","name":"InvalidClaimEpoch","inputs":[]},{"type":"error","name":"InvalidConsensusKeyEncoding","inputs":[]},{"type":"error","name":"InvalidInitialization","inputs":[]},{"type":"error","name":"InvalidProofOfPossession","inputs":[{"name":"validator","type":"address","internalType":"address"}]},{"type":"error","name":"MalformedInitialBalance","inputs":[]},{"type":"error","name":"MalformedInputLength","inputs":[]},{"type":"error","name":"NotActiveValidator","inputs":[]},{"type":"error","name":"NotEnoughBalance","inputs":[]},{"type":"error","name":"NotEnoughShares","inputs":[{"name":"requiredShares","type":"uint256","internalType":"uint256"}]},{"type":"error","name":"NotInitializing","inputs":[]},{"type":"error","name":"NotPendingValidator","inputs":[{"name":"validator","type":"address","internalType":"address"}]},{"type":"error","name":"NothingToClaim","inputs":[]},{"type":"error","name":"NothingToUnstake","inputs":[]},{"type":"error","name":"OnlyCoinbase","inputs":[]},{"type":"error","name":"OnlyGovernance","inputs":[]},{"type":"error","name":"OnlyLivenessSlashing","inputs":[]},{"type":"error","name":"OnlyStakingContract","inputs":[]},{"type":"error","name":"OnlySystemCall","inputs":[]},{"type":"error","name":"OnlyValidatorOwner","inputs":[{"name":"validator","type":"address","internalType":"address"}]},{"type":"error","name":"OnlyZeroGasPrice","inputs":[]},{"type":"error","name":"OwnableInvalidOwner","inputs":[{"name":"owner","type":"address","internalType":"address"}]},{"type":"error","name":"OwnableUnauthorizedAccount","inputs":[{"name":"account","type":"address","internalType":"address"}]},{"type":"error","name":"OwnerCantBeZero","inputs":[]},{"type":"error","name":"OwnerSelfStakeBelowMinimum","inputs":[]},{"type":"error","name":"PeerPubkeyAlreadyInUse","inputs":[{"name":"peerPubkey","type":"bytes32","internalType":"bytes32"}]},{"type":"error","name":"PendingUndelegate","inputs":[]},{"type":"error","name":"SafeERC20FailedOperation","inputs":[{"name":"token","type":"address","internalType":"address"}]},{"type":"error","name":"SafeTransferFailed","inputs":[]},{"type":"error","name":"SignerIndexOutOfRange","inputs":[{"name":"epoch","type":"uint64","internalType":"uint64"},{"name":"signerIdx","type":"uint32","internalType":"uint32"},{"name":"committeeLen","type":"uint256","internalType":"uint256"}]},{"type":"error","name":"StillInJail","inputs":[{"name":"validator","type":"address","internalType":"address"}]},{"type":"error","name":"UUPSUnauthorizedCallContext","inputs":[]},{"type":"error","name":"UUPSUnsupportedProxiableUUID","inputs":[{"name":"slot","type":"bytes32","internalType":"bytes32"}]},{"type":"error","name":"UnsafeTransferFailed","inputs":[]},{"type":"error","name":"ValidatorAlreadyExists","inputs":[{"name":"validator","type":"address","internalType":"address"}]},{"type":"error","name":"ValidatorNotFound","inputs":[{"name":"validator","type":"address","internalType":"address"}]},{"type":"error","name":"ValidatorNotInJail","inputs":[{"name":"validator","type":"address","internalType":"address"}]},{"type":"error","name":"ValidatorOwnerAlreadyInUse","inputs":[{"name":"validator","type":"address","internalType":"address"}]},{"type":"error","name":"WrongAmountPrecision","inputs":[]},{"type":"error","name":"ZeroAmount","inputs":[]}],"bytecode":{"object":"0x610160346101e257601f61171938819003918201601f19168301916001600160401b038311848410176101e65780849260c0946040528339810103126101e2578051906001600160a01b03821682036101e25760208101516001600160a01b03811681036101e25760408201516001600160a01b03811681036101e2576060830151916001600160a01b03831683036101e2576080840151936001600160a01b03851685036101e25760a00151946001600160a01b03861686036101e2573060805260a05260c05260e0526101005261012052610140525f5160206116f95f395f51905f525460ff8160401c166101d3576002600160401b03196001600160401b0382160161017d575b6040516114fe90816101fb82396080518181816107ae015261087d015260a05181610569015260c051816105ad015260e05181610bec01526101005181818161073b0152610c30015261012051816106ba015261014051818181610364015281816104b601528181610c8701526111770152f35b6001600160401b0319166001600160401b039081175f5160206116f95f395f51905f52556040519081527fc7f505b2f371ae2175ee4913f4499e1f2633a7b5936321eed1cdaeb6115181d290602090a15f610109565b63f92ee8a960e01b5f5260045ffd5b5f80fd5b634e487b7160e01b5f52604160045260245ffdfe608080604052600436101561004c575b50361561001a575f80fd5b341561003d576802b5e3af16b188000047101561003357005b61003b611162565b005b63b288589b60e01b5f5260045ffd5b5f3560e01c90816323056e9914610c5f57508063289b3c0d14610c1b5780634594633414610bd75780634b9532ae14610a0b5780634f1ef2861461080257806352d1902d1461079c5780635ba41fd4146107815780635bf143e4146106e9578063606c0c94146106a5578063715018a61461062857806379ba5097146105dc5780637a37cc59146105985780637b1391a6146105545780638da5cb5b14610520578063929a55c0146104fd5780639ac51fab146104e55780639f9106d1146104a1578063ad3cb1cc14610443578063b6b55f2514610340578063ba340c9214610325578063cf5b2f9c14610211578063e30c3978146101dd5763f2fde38b14610155575f61000f565b346101d95760203660031901126101d95761016e610cfc565b610176611095565b5f5160206114a95f395f51905f5280546001600160a01b0319166001600160a01b039283169081179091555f5160206114295f395f51905f52549091167f38d16b8cac22d99fc7c124b9cd0de2d3fa1faef420bfe791d8c362d765e227005f80a3005b5f80fd5b346101d9575f3660031901126101d9575f5160206114a95f395f51905f52546040516001600160a01b039091168152602090f35b346101d9575f3660031901126101d9575f5160206114495f395f51905f52546001600160401b038111610311576040519061025260208260051b0183610d5d565b8082525f5160206114495f395f51905f525f9081526020830191907f7335f69cbe74dbd61a09828591dff13d220ebfc74dd63a8ae3e91ac256d4c678835b8383106102f4578486604051918291602083019060208452518091526040830191905f5b8181106102c2575050500390f35b825180516001600160a01b0316855260209081015161ffff1681860152869550604090940193909201916001016102b4565b60016020819261030385610d99565b815201920192019190610290565b634e487b7160e01b5f52604160045260245ffd5b346101d9575f3660031901126101d957602047604051908152f35b346101d95760203660031901126101d957600435801561003d5760206024916103b97f000000000000000000000000000000000000000000000000000000000000000091604051906323b872dd60e01b8583015233868301523060448301526064820152606481526103b3608482610d5d565b82611356565b6040516370a0823160e01b815230600482015292839182906001600160a01b03165afa8015610438575f906103fd575b6802b5e3af16b18800009150101561003357005b506020813d602011610430575b8161041760209383610d5d565b810103126101d9576802b5e3af16b188000090516103e9565b3d915061040a565b6040513d5f823e3d90fd5b346101d9575f3660031901126101d95760408051906104628183610d5d565b600582526020820191640352e302e360dc1b83528151928391602083525180918160208501528484015e5f828201840152601f01601f19168101030190f35b346101d9575f3660031901126101d9576040517f00000000000000000000000000000000000000000000000000000000000000006001600160a01b03168152602090f35b346101d9575f3660031901126101d95761003b611162565b346101d9575f3660031901126101d95760206040516802b5e3af16b18800008152f35b346101d9575f3660031901126101d9575f5160206114295f395f51905f52546040516001600160a01b039091168152602090f35b346101d9575f3660031901126101d9576040517f00000000000000000000000000000000000000000000000000000000000000006001600160a01b03168152602090f35b346101d9575f3660031901126101d9576040517f00000000000000000000000000000000000000000000000000000000000000006001600160a01b03168152602090f35b346101d9575f3660031901126101d9575f5160206114a95f395f51905f5254336001600160a01b03909116036106155761003b336110b5565b63118cdaa760e01b5f523360045260245ffd5b346101d9575f3660031901126101d957610640611095565b5f5160206114a95f395f51905f5280546001600160a01b03199081169091555f5160206114295f395f51905f52805491821690555f906001600160a01b03167f8be0079c531659141344cd1fd0a4f28419497f9722a3daafe3b4186f6b6457e08280a3005b346101d9575f3660031901126101d9576040517f00000000000000000000000000000000000000000000000000000000000000006001600160a01b03168152602090f35b346101d95760403660031901126101d9576004356001600160401b0381116101d957610719903690600401610d12565b6024356001600160401b0381116101d957610738903690600401610d12565b917f00000000000000000000000000000000000000000000000000000000000000006001600160a01b031633036107725761003b93610e84565b6354348f0360e01b5f5260045ffd5b346101d9575f3660031901126101d9576020604051600a8152f35b346101d9575f3660031901126101d9577f00000000000000000000000000000000000000000000000000000000000000006001600160a01b031630036107f35760206040515f5160206114695f395f51905f528152f35b63703e46dd60e11b5f5260045ffd5b60403660031901126101d957610816610cfc565b602435906001600160401b0382116101d957366023830112156101d95781600401359061084282610d7e565b916108506040519384610d5d565b808352602083019336602483830101116101d957815f926024602093018737840101526001600160a01b037f0000000000000000000000000000000000000000000000000000000000000000163081149081156109e9575b506107f3576108b5611095565b6040516352d1902d60e01b81526001600160a01b0382169390602081600481885afa5f91816109b5575b506108f75784634c9c8ce360e01b5f5260045260245ffd5b805f5160206114695f395f51905f528692036109a35750823b15610991575f5160206114695f395f51905f5280546001600160a01b031916821790557fbc7cd75a20ee27fd9adebab32041f755214dbc6bffa90cc0225b39da2e5c2d3b5f80a2825115610978575f809161003b945190845af4610972611133565b916113ca565b5050503461098257005b63b398979f60e01b5f5260045ffd5b634c9c8ce360e01b5f5260045260245ffd5b632a87526960e21b5f5260045260245ffd5b9091506020813d6020116109e1575b816109d160209383610d5d565b810103126101d9575190866108df565b3d91506109c4565b5f5160206114695f395f51905f52546001600160a01b031614159050846108a8565b346101d95760603660031901126101d957610a24610cfc565b6024356001600160401b0381116101d957610a43903690600401610d12565b6044929192356001600160401b0381116101d957610a65903690600401610d12565b915f5160206114895f395f51905f52549460ff8660401c1615956001600160401b03811680159081610bcf575b6001149081610bc5575b159081610bbc575b50610bad5767ffffffffffffffff1981166001175f5160206114895f395f51905f525586610b81575b50610ad661132b565b610ade61132b565b610ae661132b565b6001600160a01b03851615610b6e57610b01610b16956110b5565b610b0961132b565b610b1161132b565b610e84565b610b1c57005b60ff60401b195f5160206114895f395f51905f5254165f5160206114895f395f51905f52557fc7f505b2f371ae2175ee4913f4499e1f2633a7b5936321eed1cdaeb6115181d2602060405160018152a1005b631e4fbdf760e01b5f525f60045260245ffd5b68ffffffffffffffffff191668010000000000000001175f5160206114895f395f51905f525586610acd565b63f92ee8a960e01b5f5260045ffd5b90501588610aa4565b303b159150610a9c565b889150610a92565b346101d9575f3660031901126101d9576040517f00000000000000000000000000000000000000000000000000000000000000006001600160a01b03168152602090f35b346101d9575f3660031901126101d9576040517f00000000000000000000000000000000000000000000000000000000000000006001600160a01b03168152602090f35b346101d9575f3660031901126101d9576370a0823160e01b81523060048201526020816024817f00000000000000000000000000000000000000000000000000000000000000006001600160a01b03165afa8015610438575f90610cc9575b602090604051908152f35b506020813d602011610cf4575b81610ce360209383610d5d565b810103126101d95760209051610cbe565b3d9150610cd6565b600435906001600160a01b03821682036101d957565b9181601f840112156101d9578235916001600160401b0383116101d9576020808501948460051b0101116101d957565b604081019081106001600160401b0382111761031157604052565b90601f801991011681019081106001600160401b0382111761031157604052565b6001600160401b03811161031157601f01601f191660200190565b90604051610da681610d42565b91546001600160a01b038116835260a01c61ffff166020830152565b9190811015610dd25760051b0190565b634e487b7160e01b5f52603260045260245ffd5b15610dee5750565b61ffff9063ddb91a3360e01b5f521660045260245ffd5b5f5160206114495f395f51905f5254811015610dd2575f5160206114495f395f51905f525f5260205f2001905f90565b9190610e715780518254602092909201516001600160b01b03199092166001600160a01b03919091161760a09190911b61ffff60a01b16179055565b634e487b7160e01b5f525f60045260245ffd5b909392918285036110865790610e98611162565b5f915f935b868510610f1757505050610eba915061271061ffff821614610de6565b5f5160206114495f395f51905f525482811115610f12578015610efe575f1901610ee381610e05565b610e71575f90555f5160206114495f395f51905f5255610eba565b634e487b7160e01b5f52603160045260245ffd5b509050565b909192610f25858886610dc2565b356001600160a01b038116908190036101d957610f43868486610dc2565b359161ffff8316928381036101d95780610f62610f6d92851515610de6565b612710851115610de6565b5f5160206114495f395f51905f5254871061103a57604051610f8e81610d42565b828152602081018490525f5160206114495f395f51905f525490600160401b8210156103115761ffff93611001604092610ffb8560017f55f2d69d9dbe97a29594a0106efd4f56ce72ec40b82d3583d53ef836e11bd00f97015f5160206114495f395f51905f5255610e05565b90610e35565b8151908152856020820152a1160161ffff811161102657600190940193929190610e9d565b634e487b7160e01b5f52601160045260245ffd5b7f55f2d69d9dbe97a29594a0106efd4f56ce72ec40b82d3583d53ef836e11bd00f604061ffff93611081825161106f81610d42565b828152876020820152610ffb8c610e05565b611001565b63612acc3960e11b5f5260045ffd5b5f5160206114295f395f51905f52546001600160a01b0316330361061557565b5f5160206114a95f395f51905f5280546001600160a01b03199081169091555f5160206114295f395f51905f5280549182166001600160a01b0393841690811790915591167f8be0079c531659141344cd1fd0a4f28419497f9722a3daafe3b4186f6b6457e05f80a3565b8181029291811591840414171561102657565b3d1561115d573d9061114482610d7e565b916111526040519384610d5d565b82523d5f602084013e565b606090565b6040516370a0823160e01b81523060048201527f0000000000000000000000000000000000000000000000000000000000000000919047906020816024816001600160a01b0388165afa908115610438575f916112f9575b50600a821115806112ee575b6112e8575f5b5f5160206114495f395f51905f52548110156112e1576111f46111ee82610e05565b50610d99565b90602082019161271061121b61ffff82611211828851168a611120565b0495511686611120565b0490836112b4575b600193826060927f534114bde8a4f5487c6eb9d267c214944566cf13de30333c7a2abed6857634cf94611272575b868060a01b039051169160405192835260208301526040820152a1016111cc565b6112af878060a01b038251166040519063a9059cbb60e01b60208301526024820152836044820152604481526112a9606482610d5d565b8c611356565b611251565b5f8080808760018060a01b038651165af16112cd611133565b506112235763b4a9474b60e01b5f5260045ffd5b5050509050565b50509050565b50600a8111156111c6565b90506020813d602011611323575b8161131460209383610d5d565b810103126101d957515f6111ba565b3d9150611307565b60ff5f5160206114895f395f51905f525460401c161561134757565b631afcd79f60e31b5f5260045ffd5b5f8061137e9260018060a01b03169360208151910182865af1611377611133565b90836113ca565b80519081151591826113a6575b50506113945750565b635274afe760e01b5f5260045260245ffd5b81925090602091810103126101d957602001518015908115036101d9575f8061138b565b906113ee57508051156113df57805190602001fd5b630a12f52160e11b5f5260045ffd5b8151158061141f575b6113ff575090565b639996b31560e01b5f9081526001600160a01b0391909116600452602490fd5b50803b156113f756fe9016d09d72d40fdae2fd8ceac6b6234c7706214fd39c1cd1e609a0528c19930085de466a486fac3ceb8a96c8f08f407e42a5512799e7ca6bc110e97735605701360894a13ba1a3210667c828492db98dca3e2076cc3735a920a3ca505d382bbcf0c57e16840df040f15088dc2f81fe391c3923bec73e23a9662efc9c229c6a00237e158222e3e6968b72b9db0d8043aacf074ad9f650f0d1606b4d82ee432c00a2646970667358221220b845ec6a02d3d2332ec26d6f84286b7dce65468f96ccb127a2e5350eb36d73c264736f6c634300081e0033f0c57e16840df040f15088dc2f81fe391c3923bec73e23a9662efc9c229c6a00","linkReferences":{}},"methodIdentifiers":{"TREASURY_AUTO_CLAIM_THRESHOLD()":"929a55c0","TREASURY_MIN_CLAIM_THRESHOLD()":"5ba41fd4","UPGRADE_INTERFACE_VERSION()":"ad3cb1cc","acceptOwnership()":"79ba5097","claimSystemFee()":"9ac51fab","deposit(uint256)":"b6b55f25","getChainConfig()":"606c0c94","getDistributionShares()":"cf5b2f9c","getGovernance()":"289b3c0d","getNativeSystemFee()":"ba340c92","getStaking()":"7b1391a6","getStakingPool()":"45946334","getStakingToken()":"9f9106d1","getSystemFee()":"23056e99","getSystemReward()":"7a37cc59","initialize(address,address[],uint16[])":"4b9532ae","owner()":"8da5cb5b","pendingOwner()":"e30c3978","proxiableUUID()":"52d1902d","renounceOwnership()":"715018a6","transferOwnership(address)":"f2fde38b","updateDistributionShare(address[],uint16[])":"5bf143e4","upgradeToAndCall(address,bytes)":"4f1ef286"},"storageLayout":{"storage":[],"types":{}},"id":50}