{
  "_format": "hh-sol-artifact-1",
  "contractName": "Token",
  "sourceName": "contracts/Token.sol",
  "abi": [
    {
      "inputs": [
        {
          "internalType": "string",
          "name": "_name",
          "type": "string"
        },
        {
          "internalType": "string",
          "name": "_symbol",
          "type": "string"
        },
        {
          "internalType": "uint256",
          "name": "_initialSupply",
          "type": "uint256"
        }
      ],
      "stateMutability": "nonpayable",
      "type": "constructor"
    },
    {
      "inputs": [
        {
          "internalType": "address",
          "name": "spender",
          "type": "address"
        },
        {
          "internalType": "uint256",
          "name": "allowance",
          "type": "uint256"
        },
        {
          "internalType": "uint256",
          "name": "needed",
          "type": "uint256"
        }
      ],
      "name": "ERC20InsufficientAllowance",
      "type": "error"
    },
    {
      "inputs": [
        {
          "internalType": "address",
          "name": "sender",
          "type": "address"
        },
        {
          "internalType": "uint256",
          "name": "balance",
          "type": "uint256"
        },
        {
          "internalType": "uint256",
          "name": "needed",
          "type": "uint256"
        }
      ],
      "name": "ERC20InsufficientBalance",
      "type": "error"
    },
    {
      "inputs": [
        {
          "internalType": "address",
          "name": "approver",
          "type": "address"
        }
      ],
      "name": "ERC20InvalidApprover",
      "type": "error"
    },
    {
      "inputs": [
        {
          "internalType": "address",
          "name": "receiver",
          "type": "address"
        }
      ],
      "name": "ERC20InvalidReceiver",
      "type": "error"
    },
    {
      "inputs": [
        {
          "internalType": "address",
          "name": "sender",
          "type": "address"
        }
      ],
      "name": "ERC20InvalidSender",
      "type": "error"
    },
    {
      "inputs": [
        {
          "internalType": "address",
          "name": "spender",
          "type": "address"
        }
      ],
      "name": "ERC20InvalidSpender",
      "type": "error"
    },
    {
      "inputs": [
        {
          "internalType": "address",
          "name": "owner",
          "type": "address"
        }
      ],
      "name": "OwnableInvalidOwner",
      "type": "error"
    },
    {
      "inputs": [
        {
          "internalType": "address",
          "name": "account",
          "type": "address"
        }
      ],
      "name": "OwnableUnauthorizedAccount",
      "type": "error"
    },
    {
      "anonymous": false,
      "inputs": [
        {
          "indexed": true,
          "internalType": "address",
          "name": "owner",
          "type": "address"
        },
        {
          "indexed": true,
          "internalType": "address",
          "name": "spender",
          "type": "address"
        },
        {
          "indexed": false,
          "internalType": "uint256",
          "name": "value",
          "type": "uint256"
        }
      ],
      "name": "Approval",
      "type": "event"
    },
    {
      "anonymous": false,
      "inputs": [
        {
          "indexed": true,
          "internalType": "address",
          "name": "previousOwner",
          "type": "address"
        },
        {
          "indexed": true,
          "internalType": "address",
          "name": "newOwner",
          "type": "address"
        }
      ],
      "name": "OwnershipTransferred",
      "type": "event"
    },
    {
      "anonymous": false,
      "inputs": [
        {
          "indexed": true,
          "internalType": "address",
          "name": "from",
          "type": "address"
        },
        {
          "indexed": true,
          "internalType": "address",
          "name": "to",
          "type": "address"
        },
        {
          "indexed": false,
          "internalType": "uint256",
          "name": "value",
          "type": "uint256"
        }
      ],
      "name": "Transfer",
      "type": "event"
    },
    {
      "inputs": [
        {
          "internalType": "address",
          "name": "owner",
          "type": "address"
        },
        {
          "internalType": "address",
          "name": "spender",
          "type": "address"
        }
      ],
      "name": "allowance",
      "outputs": [
        {
          "internalType": "uint256",
          "name": "",
          "type": "uint256"
        }
      ],
      "stateMutability": "view",
      "type": "function"
    },
    {
      "inputs": [
        {
          "internalType": "address",
          "name": "spender",
          "type": "address"
        },
        {
          "internalType": "uint256",
          "name": "value",
          "type": "uint256"
        }
      ],
      "name": "approve",
      "outputs": [
        {
          "internalType": "bool",
          "name": "",
          "type": "bool"
        }
      ],
      "stateMutability": "nonpayable",
      "type": "function"
    },
    {
      "inputs": [
        {
          "internalType": "address",
          "name": "account",
          "type": "address"
        }
      ],
      "name": "balanceOf",
      "outputs": [
        {
          "internalType": "uint256",
          "name": "",
          "type": "uint256"
        }
      ],
      "stateMutability": "view",
      "type": "function"
    },
    {
      "inputs": [
        {
          "internalType": "uint256",
          "name": "amount",
          "type": "uint256"
        }
      ],
      "name": "burn",
      "outputs": [],
      "stateMutability": "nonpayable",
      "type": "function"
    },
    {
      "inputs": [],
      "name": "decimals",
      "outputs": [
        {
          "internalType": "uint8",
          "name": "",
          "type": "uint8"
        }
      ],
      "stateMutability": "pure",
      "type": "function"
    },
    {
      "inputs": [],
      "name": "name",
      "outputs": [
        {
          "internalType": "string",
          "name": "",
          "type": "string"
        }
      ],
      "stateMutability": "view",
      "type": "function"
    },
    {
      "inputs": [],
      "name": "owner",
      "outputs": [
        {
          "internalType": "address",
          "name": "",
          "type": "address"
        }
      ],
      "stateMutability": "view",
      "type": "function"
    },
    {
      "inputs": [],
      "name": "renounceOwnership",
      "outputs": [],
      "stateMutability": "nonpayable",
      "type": "function"
    },
    {
      "inputs": [],
      "name": "symbol",
      "outputs": [
        {
          "internalType": "string",
          "name": "",
          "type": "string"
        }
      ],
      "stateMutability": "view",
      "type": "function"
    },
    {
      "inputs": [],
      "name": "totalSupply",
      "outputs": [
        {
          "internalType": "uint256",
          "name": "",
          "type": "uint256"
        }
      ],
      "stateMutability": "view",
      "type": "function"
    },
    {
      "inputs": [
        {
          "internalType": "address",
          "name": "to",
          "type": "address"
        },
        {
          "internalType": "uint256",
          "name": "value",
          "type": "uint256"
        }
      ],
      "name": "transfer",
      "outputs": [
        {
          "internalType": "bool",
          "name": "",
          "type": "bool"
        }
      ],
      "stateMutability": "nonpayable",
      "type": "function"
    },
    {
      "inputs": [
        {
          "internalType": "address",
          "name": "from",
          "type": "address"
        },
        {
          "internalType": "address",
          "name": "to",
          "type": "address"
        },
        {
          "internalType": "uint256",
          "name": "value",
          "type": "uint256"
        }
      ],
      "name": "transferFrom",
      "outputs": [
        {
          "internalType": "bool",
          "name": "",
          "type": "bool"
        }
      ],
      "stateMutability": "nonpayable",
      "type": "function"
    },
    {
      "inputs": [
        {
          "internalType": "address",
          "name": "newOwner",
          "type": "address"
        }
      ],
      "name": "transferOwnership",
      "outputs": [],
      "stateMutability": "nonpayable",
      "type": "function"
    }
  ],
  "bytecode": "0x60a0604052601260ff1660809060ff168152503480156200001f57600080fd5b5060405162001f5238038062001f52833981810160405281019062000045919062000684565b33838381600390816200005991906200095f565b5080600490816200006b91906200095f565b505050600073ffffffffffffffffffffffffffffffffffffffff168173ffffffffffffffffffffffffffffffffffffffff1603620000e35760006040517f1e4fbdf7000000000000000000000000000000000000000000000000000000008152600401620000da919062000a8b565b60405180910390fd5b620000f4816200013360201b60201c565b506000608051600a62000108919062000c38565b8262000115919062000c89565b9050620001293382620001f960201b60201c565b5050505062000d7a565b6000600560009054906101000a900473ffffffffffffffffffffffffffffffffffffffff16905081600560006101000a81548173ffffffffffffffffffffffffffffffffffffffff021916908373ffffffffffffffffffffffffffffffffffffffff1602179055508173ffffffffffffffffffffffffffffffffffffffff168173ffffffffffffffffffffffffffffffffffffffff167f8be0079c531659141344cd1fd0a4f28419497f9722a3daafe3b4186f6b6457e060405160405180910390a35050565b600073ffffffffffffffffffffffffffffffffffffffff168273ffffffffffffffffffffffffffffffffffffffff16036200026e5760006040517fec442f0500000000000000000000000000000000000000000000000000000000815260040162000265919062000a8b565b60405180910390fd5b62000282600083836200028660201b60201c565b5050565b600073ffffffffffffffffffffffffffffffffffffffff168373ffffffffffffffffffffffffffffffffffffffff1603620002dc578060026000828254620002cf919062000cd4565b92505081905550620003b2565b60008060008573ffffffffffffffffffffffffffffffffffffffff1673ffffffffffffffffffffffffffffffffffffffff168152602001908152602001600020549050818110156200036b578381836040517fe450d38c000000000000000000000000000000000000000000000000000000008152600401620003629392919062000d20565b60405180910390fd5b8181036000808673ffffffffffffffffffffffffffffffffffffffff1673ffffffffffffffffffffffffffffffffffffffff16815260200190815260200160002081905550505b600073ffffffffffffffffffffffffffffffffffffffff168273ffffffffffffffffffffffffffffffffffffffff1603620003fd57806002600082825403925050819055506200044a565b806000808473ffffffffffffffffffffffffffffffffffffffff1673ffffffffffffffffffffffffffffffffffffffff168152602001908152602001600020600082825401925050819055505b8173ffffffffffffffffffffffffffffffffffffffff168373ffffffffffffffffffffffffffffffffffffffff167fddf252ad1be2c89b69c2b068fc378daa952ba7f163c4a11628f55a4df523b3ef83604051620004a9919062000d5d565b60405180910390a3505050565b6000604051905090565b600080fd5b600080fd5b600080fd5b600080fd5b6000601f19601f8301169050919050565b7f4e487b7100000000000000000000000000000000000000000000000000000000600052604160045260246000fd5b6200051f82620004d4565b810181811067ffffffffffffffff82111715620005415762000540620004e5565b5b80604052505050565b600062000556620004b6565b905062000564828262000514565b919050565b600067ffffffffffffffff821115620005875762000586620004e5565b5b6200059282620004d4565b9050602081019050919050565b60005b83811015620005bf578082015181840152602081019050620005a2565b60008484015250505050565b6000620005e2620005dc8462000569565b6200054a565b905082815260208101848484011115620006015762000600620004cf565b5b6200060e8482856200059f565b509392505050565b600082601f8301126200062e576200062d620004ca565b5b815162000640848260208601620005cb565b91505092915050565b6000819050919050565b6200065e8162000649565b81146200066a57600080fd5b50565b6000815190506200067e8162000653565b92915050565b600080600060608486031215620006a0576200069f620004c0565b5b600084015167ffffffffffffffff811115620006c157620006c0620004c5565b5b620006cf8682870162000616565b935050602084015167ffffffffffffffff811115620006f357620006f2620004c5565b5b620007018682870162000616565b925050604062000714868287016200066d565b9150509250925092565b600081519050919050565b7f4e487b7100000000000000000000000000000000000000000000000000000000600052602260045260246000fd5b600060028204905060018216806200077157607f821691505b60208210810362000787576200078662000729565b5b50919050565b60008190508160005260206000209050919050565b60006020601f8301049050919050565b600082821b905092915050565b600060088302620007f17fffffffffffffffffffffffffffffffffffffffffffffffffffffffffffffffff82620007b2565b620007fd8683620007b2565b95508019841693508086168417925050509392505050565b6000819050919050565b6000620008406200083a620008348462000649565b62000815565b62000649565b9050919050565b6000819050919050565b6200085c836200081f565b620008746200086b8262000847565b848454620007bf565b825550505050565b600090565b6200088b6200087c565b6200089881848462000851565b505050565b5b81811015620008c057620008b460008262000881565b6001810190506200089e565b5050565b601f8211156200090f57620008d9816200078d565b620008e484620007a2565b81016020851015620008f4578190505b6200090c6200090385620007a2565b8301826200089d565b50505b505050565b600082821c905092915050565b6000620009346000198460080262000914565b1980831691505092915050565b60006200094f838362000921565b9150826002028217905092915050565b6200096a826200071e565b67ffffffffffffffff811115620009865762000985620004e5565b5b62000992825462000758565b6200099f828285620008c4565b600060209050601f831160018114620009d75760008415620009c2578287015190505b620009ce858262000941565b86555062000a3e565b601f198416620009e7866200078d565b60005b8281101562000a1157848901518255600182019150602085019450602081019050620009ea565b8683101562000a31578489015162000a2d601f89168262000921565b8355505b6001600288020188555050505b505050505050565b600073ffffffffffffffffffffffffffffffffffffffff82169050919050565b600062000a738262000a46565b9050919050565b62000a858162000a66565b82525050565b600060208201905062000aa2600083018462000a7a565b92915050565b7f4e487b7100000000000000000000000000000000000000000000000000000000600052601160045260246000fd5b60008160011c9050919050565b6000808291508390505b600185111562000b365780860481111562000b0e5762000b0d62000aa8565b5b600185161562000b1e5780820291505b808102905062000b2e8562000ad7565b945062000aee565b94509492505050565b60008262000b51576001905062000c24565b8162000b61576000905062000c24565b816001811462000b7a576002811462000b855762000bbb565b600191505062000c24565b60ff84111562000b9a5762000b9962000aa8565b5b8360020a91508482111562000bb45762000bb362000aa8565b5b5062000c24565b5060208310610133831016604e8410600b841016171562000bf55782820a90508381111562000bef5762000bee62000aa8565b5b62000c24565b62000c04848484600162000ae4565b9250905081840481111562000c1e5762000c1d62000aa8565b5b81810290505b9392505050565b600060ff82169050919050565b600062000c458262000649565b915062000c528362000c2b565b925062000c817fffffffffffffffffffffffffffffffffffffffffffffffffffffffffffffffff848462000b3f565b905092915050565b600062000c968262000649565b915062000ca38362000649565b925082820262000cb38162000649565b9150828204841483151762000ccd5762000ccc62000aa8565b5b5092915050565b600062000ce18262000649565b915062000cee8362000649565b925082820190508082111562000d095762000d0862000aa8565b5b92915050565b62000d1a8162000649565b82525050565b600060608201905062000d37600083018662000a7a565b62000d46602083018562000d0f565b62000d55604083018462000d0f565b949350505050565b600060208201905062000d74600083018462000d0f565b92915050565b6080516111bf62000d93600039600050506111bf6000f3fe608060405234801561001057600080fd5b50600436106100cf5760003560e01c806370a082311161008c57806395d89b411161006657806395d89b4114610202578063a9059cbb14610220578063dd62ed3e14610250578063f2fde38b14610280576100cf565b806370a08231146101aa578063715018a6146101da5780638da5cb5b146101e4576100cf565b806306fdde03146100d4578063095ea7b3146100f257806318160ddd1461012257806323b872dd14610140578063313ce5671461017057806342966c681461018e575b600080fd5b6100dc61029c565b6040516100e99190610de6565b60405180910390f35b61010c60048036038101906101079190610ea1565b61032e565b6040516101199190610efc565b60405180910390f35b61012a610351565b6040516101379190610f26565b60405180910390f35b61015a60048036038101906101559190610f41565b61035b565b6040516101679190610efc565b60405180910390f35b61017861038a565b6040516101859190610fb0565b60405180910390f35b6101a860048036038101906101a39190610fcb565b610393565b005b6101c460048036038101906101bf9190610ff8565b6103a0565b6040516101d19190610f26565b60405180910390f35b6101e26103e8565b005b6101ec6103fc565b6040516101f99190611034565b60405180910390f35b61020a610426565b6040516102179190610de6565b60405180910390f35b61023a60048036038101906102359190610ea1565b6104b8565b6040516102479190610efc565b60405180910390f35b61026a6004803603810190610265919061104f565b6104db565b6040516102779190610f26565b60405180910390f35b61029a60048036038101906102959190610ff8565b610562565b005b6060600380546102ab906110be565b80601f01602080910402602001604051908101604052809291908181526020018280546102d7906110be565b80156103245780601f106102f957610100808354040283529160200191610324565b820191906000526020600020905b81548152906001019060200180831161030757829003601f168201915b5050505050905090565b6000806103396105e8565b90506103468185856105f0565b600191505092915050565b6000600254905090565b6000806103666105e8565b9050610373858285610602565b61037e858585610697565b60019150509392505050565b60006012905090565b61039d338261078b565b50565b60008060008373ffffffffffffffffffffffffffffffffffffffff1673ffffffffffffffffffffffffffffffffffffffff168152602001908152602001600020549050919050565b6103f061080d565b6103fa6000610894565b565b6000600560009054906101000a900473ffffffffffffffffffffffffffffffffffffffff16905090565b606060048054610435906110be565b80601f0160208091040260200160405190810160405280929190818152602001828054610461906110be565b80156104ae5780601f10610483576101008083540402835291602001916104ae565b820191906000526020600020905b81548152906001019060200180831161049157829003601f168201915b5050505050905090565b6000806104c36105e8565b90506104d0818585610697565b600191505092915050565b6000600160008473ffffffffffffffffffffffffffffffffffffffff1673ffffffffffffffffffffffffffffffffffffffff16815260200190815260200160002060008373ffffffffffffffffffffffffffffffffffffffff1673ffffffffffffffffffffffffffffffffffffffff16815260200190815260200160002054905092915050565b61056a61080d565b600073ffffffffffffffffffffffffffffffffffffffff168173ffffffffffffffffffffffffffffffffffffffff16036105dc5760006040517f1e4fbdf70000000000000000000000000000000000000000000000000000000081526004016105d39190611034565b60405180910390fd5b6105e581610894565b50565b600033905090565b6105fd838383600161095a565b505050565b600061060e84846104db565b90507fffffffffffffffffffffffffffffffffffffffffffffffffffffffffffffffff8110156106915781811015610681578281836040517ffb8f41b2000000000000000000000000000000000000000000000000000000008152600401610678939291906110ef565b60405180910390fd5b6106908484848403600061095a565b5b50505050565b600073ffffffffffffffffffffffffffffffffffffffff168373ffffffffffffffffffffffffffffffffffffffff16036107095760006040517f96c6fd1e0000000000000000000000000000000000000000000000000000000081526004016107009190611034565b60405180910390fd5b600073ffffffffffffffffffffffffffffffffffffffff168273ffffffffffffffffffffffffffffffffffffffff160361077b5760006040517fec442f050000000000000000000000000000000000000000000000000000000081526004016107729190611034565b60405180910390fd5b610786838383610b31565b505050565b600073ffffffffffffffffffffffffffffffffffffffff168273ffffffffffffffffffffffffffffffffffffffff16036107fd5760006040517f96c6fd1e0000000000000000000000000000000000000000000000000000000081526004016107f49190611034565b60405180910390fd5b61080982600083610b31565b5050565b6108156105e8565b73ffffffffffffffffffffffffffffffffffffffff166108336103fc565b73ffffffffffffffffffffffffffffffffffffffff1614610892576108566105e8565b6040517f118cdaa70000000000000000000000000000000000000000000000000000000081526004016108899190611034565b60405180910390fd5b565b6000600560009054906101000a900473ffffffffffffffffffffffffffffffffffffffff16905081600560006101000a81548173ffffffffffffffffffffffffffffffffffffffff021916908373ffffffffffffffffffffffffffffffffffffffff1602179055508173ffffffffffffffffffffffffffffffffffffffff168173ffffffffffffffffffffffffffffffffffffffff167f8be0079c531659141344cd1fd0a4f28419497f9722a3daafe3b4186f6b6457e060405160405180910390a35050565b600073ffffffffffffffffffffffffffffffffffffffff168473ffffffffffffffffffffffffffffffffffffffff16036109cc5760006040517fe602df050000000000000000000000000000000000000000000000000000000081526004016109c39190611034565b60405180910390fd5b600073ffffffffffffffffffffffffffffffffffffffff168373ffffffffffffffffffffffffffffffffffffffff1603610a3e5760006040517f94280d62000000000000000000000000000000000000000000000000000000008152600401610a359190611034565b60405180910390fd5b81600160008673ffffffffffffffffffffffffffffffffffffffff1673ffffffffffffffffffffffffffffffffffffffff16815260200190815260200160002060008573ffffffffffffffffffffffffffffffffffffffff1673ffffffffffffffffffffffffffffffffffffffff168152602001908152602001600020819055508015610b2b578273ffffffffffffffffffffffffffffffffffffffff168473ffffffffffffffffffffffffffffffffffffffff167f8c5be1e5ebec7d5bd14f71427d1e84f3dd0314c0f7b2291e5b200ac8c7c3b92584604051610b229190610f26565b60405180910390a35b50505050565b600073ffffffffffffffffffffffffffffffffffffffff168373ffffffffffffffffffffffffffffffffffffffff1603610b83578060026000828254610b779190611155565b92505081905550610c56565b60008060008573ffffffffffffffffffffffffffffffffffffffff1673ffffffffffffffffffffffffffffffffffffffff16815260200190815260200160002054905081811015610c0f578381836040517fe450d38c000000000000000000000000000000000000000000000000000000008152600401610c06939291906110ef565b60405180910390fd5b8181036000808673ffffffffffffffffffffffffffffffffffffffff1673ffffffffffffffffffffffffffffffffffffffff16815260200190815260200160002081905550505b600073ffffffffffffffffffffffffffffffffffffffff168273ffffffffffffffffffffffffffffffffffffffff1603610c9f5780600260008282540392505081905550610cec565b806000808473ffffffffffffffffffffffffffffffffffffffff1673ffffffffffffffffffffffffffffffffffffffff168152602001908152602001600020600082825401925050819055505b8173ffffffffffffffffffffffffffffffffffffffff168373ffffffffffffffffffffffffffffffffffffffff167fddf252ad1be2c89b69c2b068fc378daa952ba7f163c4a11628f55a4df523b3ef83604051610d499190610f26565b60405180910390a3505050565b600081519050919050565b600082825260208201905092915050565b60005b83811015610d90578082015181840152602081019050610d75565b60008484015250505050565b6000601f19601f8301169050919050565b6000610db882610d56565b610dc28185610d61565b9350610dd2818560208601610d72565b610ddb81610d9c565b840191505092915050565b60006020820190508181036000830152610e008184610dad565b905092915050565b600080fd5b600073ffffffffffffffffffffffffffffffffffffffff82169050919050565b6000610e3882610e0d565b9050919050565b610e4881610e2d565b8114610e5357600080fd5b50565b600081359050610e6581610e3f565b92915050565b6000819050919050565b610e7e81610e6b565b8114610e8957600080fd5b50565b600081359050610e9b81610e75565b92915050565b60008060408385031215610eb857610eb7610e08565b5b6000610ec685828601610e56565b9250506020610ed785828601610e8c565b9150509250929050565b60008115159050919050565b610ef681610ee1565b82525050565b6000602082019050610f116000830184610eed565b92915050565b610f2081610e6b565b82525050565b6000602082019050610f3b6000830184610f17565b92915050565b600080600060608486031215610f5a57610f59610e08565b5b6000610f6886828701610e56565b9350506020610f7986828701610e56565b9250506040610f8a86828701610e8c565b9150509250925092565b600060ff82169050919050565b610faa81610f94565b82525050565b6000602082019050610fc56000830184610fa1565b92915050565b600060208284031215610fe157610fe0610e08565b5b6000610fef84828501610e8c565b91505092915050565b60006020828403121561100e5761100d610e08565b5b600061101c84828501610e56565b91505092915050565b61102e81610e2d565b82525050565b60006020820190506110496000830184611025565b92915050565b6000806040838503121561106657611065610e08565b5b600061107485828601610e56565b925050602061108585828601610e56565b9150509250929050565b7f4e487b7100000000000000000000000000000000000000000000000000000000600052602260045260246000fd5b600060028204905060018216806110d657607f821691505b6020821081036110e9576110e861108f565b5b50919050565b60006060820190506111046000830186611025565b6111116020830185610f17565b61111e6040830184610f17565b949350505050565b7f4e487b7100000000000000000000000000000000000000000000000000000000600052601160045260246000fd5b600061116082610e6b565b915061116b83610e6b565b925082820190508082111561118357611182611126565b5b9291505056fea2646970667358221220e18b6bec8737538b112cb60426c21cf8aa1fc621027a773afdfcf137c78e58ed64736f6c63430008140033",
  "linkReferences": {},
  "deployedLinkReferences": {}
}